:020000040800F2
:10000000008000202D4C0008B158000895220008FF
:10001000B3580008B5580008B758000800000000A1
:1000200000000000000000000000000031A50008F2
:10003000B958000800000000C1A5000805A6000886
:10004000BB580008BD580008BF580008C158000838
:10005000C3580008C5580008455800084B58000808
:1000600051580008575800085D580008C758000844
:10007000C9580008CB580008CD580008CF580008D0
:10008000D1580008D3580008D5580008D7580008A0
:10009000D9580008DB580008DD58000863580008EC
:1000A000DF580008E1580008E3580008E558000848
:1000B000E7580008E9580008EB580008ED58000818
:1000C000EF580008F1580008F3580008F5580008E8
:1000D000F75800086960000849620008F9580008EC
:1000E0008758000831590008FB580008FD580008DF
:1000F000FF580008000000000000000000000000A1
:1001000000000000000000005FF808F110B5054C89
:10011000237833B9044B13B10448AFF300800123B3
:10012000237010BD7804002000000000ACF9010825
:1001300008B5034B1BB103490348AFF3008008BD6A
:10014000000000007C040020ACF9010808B501F0B3
:1001500073F8BDE8084001F0A5B808B501F06CF8E7
:1001600008BD08B501F068F8503008BD0048704778
:100170004D01000808B501F05FF8643008BD10B506
:1001800001F05AF8044603680121DB6898472368A8
:1001900020461B694FF4FA71984723682046BDE852
:1001A0001040DB680021184708B501F045F8BDE8AC
:1001B000084001F0F3B808B501F03EF8BDE808408A
:1001C00001F0B0B910B5044601F036F801462046FA
:1001D00001F00CFB204610BD08B5034808F032F8CA
:1001E000BDE8084006F060B83BAC010806F05CB81A
:1001F00010B50446C06910B1012113F079FF2069E0
:1002000010B1012113F074FF204610BDF8B5002590
:10021000C0E901120570C0E90335C0E90555C0E920
:100220000755456206990446164600F11C0711F071
:10023000EFFE38B93146074808F004F82021064897
:1002400001F0AAFF069A3946204611F0CBFE20465F
:10025000F8BD00BF59AC010884AC0108F8B5002511
:10026000C0E901120570C0E90335C0E90555C0E9D0
:100270000755456206990446164600F11C0711F021
:1002800075FF38B93146074807F0DCFF20210648E2
:1002900001F082FF069A3946204611F031FF2046D0
:1002A000F8BD00BF59AC010884AC01082DE9F0414C
:1002B00000259DF81860C0E901120570C0E90335FA
:1002C000C0E90555C0E90755456231460446174661
:1002D00000F11C0811F0B0FD38B93946074807F0A5
:1002E000B1FF2021064801F057FF32464146204623
:1002F00011F090FD2046BDE8F08100BF59AC010827
:1003000084AC010870B5AAB012F07EFF0546002645
:100310000EA804ACFFF756FF0EA928460DF0B2FE5A
:10032000634B644A009602212046FFF76FFF214687
:10033000284613F00FF82046FFF75AFF32235E4A93
:10034000009302215D4B2046FFF760FF21462846BF
:1003500013F000F82046FFF74BFF594B594A1B6832
:10036000032100932046584BFFF778FF214628468B
:1003700012F0F0FF2046FFF73BFF3C23534A009367
:100380000221534B2046FFF741FF2146284612F039
:10039000E1FF2046FFF72CFF4E4B4F4A009601210C
:1003A0002046FFF783FF2146284612F0D3FF204660
:1003B000FFF71EFF494B4A4A009602212046FFF7ED
:1003C00025FF2146284612F0C5FF2046FFF710FF03
:1003D000444B454A009601212046FFF767FF21461E
:1003E000284612F0B7FF2046FFF702FF3F4B404A76
:1003F000009602212046FFF709FF2146284612F009
:10040000A9FF2046FFF7F4FE4FF41673394A009314
:100410000221394B2046FFF7F9FE2146284612F00B
:1004200099FF2046FFF7E4FE344B354A1B68032151
:1004300000932046334BFFF711FF2146284612F068
:1004400089FF2046FFF7D4FE2F4B304A1B6803215B
:10045000009320462E4BFFF701FF2146284612F05D
:1004600079FF2046FFF7C4FE2A4B2B4A0093032155
:100470002A4B2046FFF7F2FE2146284612F06AFF7B
:100480002046FFF7B5FE2846254B264A264912F09E
:1004900029FE264B0493264B0593264B0693264BA9
:1004A000009394E80700012313F046F92AB070BDC9
:1004B00094A80108C5A80108FBA80108D3A8010851
:1004C000040000204EA901080AA9010899A9010801
:1004D00059A90108A5A90108E4A90108F7A901087B
:1004E00037AA010843AA01086EAA01087BAA0108DD
:1004F000C3AA0108F6AA0108D4AA0108080000202E
:100500004DAB010807AB01080C000020A5AB0108AA
:1005100055AB010853E3010807AC0108AFAB010874
:10052000ED01000811AC010835AC0108B15100081B
:1005300039510008D90100080000080810B5084C1E
:1005400022681AB98F21074801F026FE064B1A6867
:100550002368B2FBF3F003FB102303B1013010BD9D
:100560008807002006AF010884070020F8B5FFF7D0
:10057000F8FD03681B6898470E4B1B78B3B90E4B08
:10058000D3E90023B3F1004F08BF002A10D00027A1
:100590000A4E841A61EB0305A64277EB050407DBDC
:1005A000904271EB0303B4BF012300231846F8BD4A
:1005B0000123FBE7A0060020280000204351010092
:1005C00038B502F078FF03F0F5FF022104F000F8DF
:1005D00004460D4603F0EAFB012C75F100030ADB2B
:1005E00002F03EF805492B462246097802F033FD19
:1005F000034B187838BD034BFBE700BFAC07002066
:10060000DF080020DC080020F8B54FF00047002686
:10061000174C15F007FCD4E90023BB4208BFB242D7
:1006200023D002F01DF830CC1249621C45F10003C2
:10063000097802F01EFDB94208BFB04204460D46DB
:1006400013D0FFF78EFD03681B689847A04271EB3B
:1006500005030ADB2946204607F074FD01460648DB
:1006600007F0F0FD054B1878F8BD054BFBE700BF20
:1006700030000020A40700208AAD0108DF08002018
:10068000DC08002010B50020002103F0DDF904464D
:1006900028B90F4807F0D6FD0E4B187810BD4179E8
:1006A0000D4807F0CFFD617980290DD10B4B2279E0
:1006B0002168186812F048F9204603F00DFD082162
:1006C000204613F015FDE7E7054807F0BBFDF3E70B
:1006D000E5AD0108DC080020EDAD0108A807002009
:1006E000F6AD010810B5FFF766FD0B4B1880FFF75C
:1006F0005BFD0A49044616F0C1FD16F0ABFF084B3E
:10070000084A18804FF0804120460EF0B3FBBDE848
:1007100010400EF0D9BB00BF3800002000007A4422
:100720003A000020CDCC4C4008B5084807F08AFDBF
:10073000FFF717FD03681B689847054BC3E90001E5
:10074000FFF7D0FF034B187808BD00BFB8AD010814
:1007500030000020DC08002070B5354C86B02368DE
:10076000DB0708D412F06AFD80220146314811F0FF
:1007700057FE01232360304B2E4A304D1A602B6800
:100780002F4C13F0010F04D1FFF7F4FC012320607C
:100790002B60206803681B689847054620B94FF412
:1007A0008571284801F0F8FC274B06AC0593274BD0
:1007B0000393274B0293274B44F8083DFFF7D1FCE6
:1007C000064694E803008DE8030002AB0CCB2946F3
:1007D000304603F0BFFE03F0EDFE044615F022FBA9
:1007E00012F02CFD1C49054612F0D9FB04F52474C7
:1007F0000146204614F02CFF1849284612F0CFFB82
:100800000146204614F09EFF1549284612F0C7FB0A
:100810000146204615F00CF81249284612F09CFBC0
:100820000DF0C2FAFFF75EFF0F4B187806B070BDEF
:10083000940400208C070020A807002098040020C2
:100840009C07002006AF0108458200086D080008DB
:1008500089080008A50800084DAB0108A5AB0108F0
:1008600007AC0108E4A90108DC080020054B30B4FE
:100870001C6823689D681346AC460A46014620461C
:1008800030BC60479C070020054B30B41C682368CF
:100890005D681346AC460A460146204630BC6047B8
:1008A0009C070020034B01461B681A681846126912
:1008B000104700BF9C07002038B502F0FCFD03F094
:1008C00079FE012103F084FE04460D4603F06EFA22
:1008D000012C75F100030ADB01F0C2FE09492B4629
:1008E0002246097802F0B7FB074B187838BD15F09F
:1008F00080FD28B9054807F0A5FC0122044B1A70B9
:10090000044BF2E7AC070020DF08002031AD0108FE
:10091000A0060020DC0800207FB52E4B1B685B681A
:1009200013B1012004B070BDFFF720FE0028F8D1FC
:10093000294C2668002E39D115F047FD002833DDFB
:1009400003F038FE03F052FD0546002840D04FF476
:1009500000722249684613F02EFB01238DF80C30FB
:100960001F4B1B78012B04D16A683346684613F08D
:1009700068FBD5E90721684613F02AFB684613F0A7
:1009800052FB2060284615F001FB0022154B6846FB
:100990001A6013F046FB0546684613F044FB2946EF
:1009A0000246114813F0BEFA236863B115F021FD29
:1009B000054615F00AFD2D1A15F01BFD29460246C5
:1009C0000A4807F03FFC2068003018BF0120A9E763
:1009D0002060E9E7A807002084070020A004002089
:1009E0007F0700208007002010000020C8AD01080C
:1009F0001FB56123CDE9013101A9039201F04AFE3F
:100A000005B05DF804FB07B58DF8041001A98DF859
:100A100005208DF8063001F0FDFE03B05DF804FB03
:100A20002DE9F04F87B0FFF798FB044614F030FB38
:100A3000204614F043FBFFF765FCFA200BF096F814
:100A400012F0FCFB044611F0F1FF204603F0A6F87B
:100A5000A449204612F09AFA012800F232810025BA
:100A6000A14B1870A149204612F090FAA0F10A0398
:100A7000282B00F22B819E4B1860002D40F029811D
:100A80009C4D9D4807F0DEFBFFF767FB2B689B4CF6
:100A900013F0010F04D101F0E3FD012320602B606E
:100AA0002568FFF75EFB0146284601F0ABFC256890
:100AB000FFF75CFB0146284601F0A6FC12F0BEFBE6
:100AC0008F49256812F06BFA8E49024603A801F09F
:100AD00083FC03A9284601F0D9FC8B4B25681870CC
:100AE00000220023894903A801F028FC03A9284615
:100AF00001F0CCFC864A87491070874A2068FFF7CE
:100B000077FF8DF80700206802F0F4FC834A8246E4
:100B100083492068FFF76CFF4FF000097025814B77
:100B2000064603A92068049303958DF8149001F0FC
:100B3000B1FD7D4A8DF805007C492068FFF758FF1C
:100B40007B4B804603A92068049303958DF814908D
:100B500001F0A0FD774A8DF8060077492068FFF77D
:100B600047FF764B8346764A7649206803F0EAF9D8
:100B7000754A074675492068FFF73AFF744A8DF8B1
:100B8000020074492068FFF733FF5F4B8DF80300C4
:100B90001A787149206802F0EFFD9DF807508DF832
:100BA00004002068534680F828506C4D9DF80710CB
:100BB0002A78FFF728FF6A4A5146DFF8BCA133467E
:100BC00020681278FFF71FFF9DF805309AF8002083
:100BD00031462068FFF717FF4D4933460A782068F1
:100BE0009DF80510FFF70FFF43462A78314620682D
:100BF000FFF709FF9DF806309AF80020414620686B
:100C0000FFF701FF424943460A7820689DF8061025
:100C1000FFF7F9FE3B462A7841462068DFF85C8101
:100C2000FFF7F1FE3B462A789DF802102068FFF797
:100C3000EAFE9DF8023098F8002039462068FFF758
:100C4000E2FE9DF803302A7839462068FFF7DBFE84
:100C50005B469AF800209DF803102068FFF7D3FE4A
:100C60009DF804302A789DF803102068FFF7CBFE2A
:100C70009DF8023098F800209DF804102068FFF7D6
:100C8000C2FE214A5B469DF8041020681278FFF7E7
:100C9000BAFE33462A7859462068FFF7B4FE20682A
:100CA00001F06EFF2F4807F0CDFA01224FF4967144
:100CB000206801F0FFFE48460AF0D2FC07B0BDE80C
:100CC000F08F294807F0BEFA0125CBE6274807F048
:100CD000B9FA274807F0B6FA4FF4E571254801F054
:100CE0005BFACDE6C5A801087F070020FBA8010834
:100CF000880700209C0400206FAE0108A007002098
:100D00004EA901088CAE0108A407002091AE01088D
:100D1000AC070020A5BC010859070008C105000860
:100D20009BAE0108A5AE0108B9080008B0AE0108E5
:100D3000BAAE010829070008C5AE0108110F000866
:100D400019090008CCAE010885060008D9AE0108D3
:100D500009060008E2AE01087ABC0108DC080020A0
:100D6000E0080020ECAE010816AE010839AE01081B
:100D70005CAE010806AF0108DF08002091090020E1
:100D800030B5012585B00A4604461949684613F076
:100D900012F9022168468DF80C5013F037F903213F
:100DA000684613F033F92946684613F02FF9114BC2
:100DB0006846198813F051F90F4B6846B3F90010D3
:100DC00013F033F90D4B197811B1002229461A702E
:100DD000684613F01BF9684613F023F90546684688
:100DE00013F021F9012325606371207105B030BD36
:100DF000A10600203A00002038000020A0060020B4
:100E00002DE9F743384B80461D780A4645B1012D40
:100E100059D0D421354803B0BDE8F04301F0BCB946
:100E2000FFF78CFB324C334F2368984246D93D681C
:100E3000314A05FB0325314B1E68FFF77FFB226813
:100E4000904292BF00233B685343F61A3B689E4290
:100E500028BF1E461EB9B421244801F09DF90A2777
:100E6000236803FB0777FFF769FB2168074401F15B
:100E70000109FFF763FBFBB2024600934946334684
:100E80001F4807F0DFF93146284607F041FA1D48B0
:100E900007F0D8F9236888F805700133C8F80050C6
:100EA00088F804602360FFF749FB2368984202D169
:100EB0000022124B1A6003B0BDE8F083B2210B4848
:100EC00001F06AF9B7E7104D104C2946204612F0A0
:100ED000FBFF652388F8040088F80530D4E9022375
:100EE000C8F800509A42E2E77F07002006AF0108E9
:100EF0008007002088070020A0040020840700202D
:100F00004FAD010852E30108A106002010000020A7
:100F1000F7B5194F04463B680D465B688BB1174E19
:100F2000174807F08FF90DF107032A463146386854
:100F300011F0C6FA9DF8073026606371207103B086
:100F4000F0BDFFF713FB78B10E4807F07BF9FFF710
:100F500008F903681B6898470B4BC3E90001294651
:100F60002046FFF70DFFEAE7084807F06BF929462E
:100F70002046FFF745FFE2E7A8070020A106002072
:100F8000D3AC0108F9AC01082800002016AD010817
:100F900013B5FFF7E2F8036800249B689847FFF752
:100FA000EEF801234FF496720B49CDE900340B485B
:100FB00023460AF067FA0A4807F044F9094807F09F
:100FC00041F90AF039FC4FF4FB71074801F0E4F8ED
:100FD000204602B010BD00BF52AF0108210A000830
:100FE0005BAF01086EAF010806AF0108FF23024A9C
:100FF0001370024A13707047AC070020A40700204A
:101000007047000038B50A4C05460121204604F01F
:1010100017FB002320461A46012104F04FFA85F001
:1010200001022046BDE83840012104F015BB00BF95
:101030000000024008B50120FFF7E4FFBDE80840CA
:10104000032005F041B90846FFF7DCBF10B50446A0
:10105000682113F04DF8204610BD0000024B01211D
:10106000186803681B681847BC070020021C18BFDB
:1010700001220321014804F0EFBA00BF000402403E
:1010800010B50C460AF05AFF022808D14FF47A70C6
:101090004443B4FBF0F0BDE810400AF067BD2046C1
:1010A000BDE8104004F026B80321014804F0DDBA81
:1010B0000004024010B5094C094807F0C3F8204667
:1010C0000B2104F0BDFA002320461A460B2104F040
:1010D000F5F9BDE8104003F0F3BF00BF0000024087
:1010E000B4B2010808B5022003F04EFF03F0B0FFD0
:1010F00000F02EFC03F0D6FF00F03CFE04F03AFDB9
:101100000C4801F013F84FF4E13005F091F80A4B68
:101110001A680AB9094A1A60094B1A680AB9074AD3
:101120001A60084807F08EF8BDE80840064807F046
:1011300089B800BF351000083C0D0020D1600008C0
:10114000400D002007B001081FB00108F7B50446A4
:1011500013F094FF22461F4B1F4E42F83C3B0023E6
:10116000E36353601D4A84F84C3062641C4AC4E94E
:101170001633A2641B4A84F8603022651A4B1B4A5E
:10118000636662651A4807F05DF83368194F01938A
:101190003B68194D00932B68184A1B2104F121006C
:1011A00017F018FC296804F1110007F0A3F9396859
:1011B00004F1150007F09EF9316804F1190007F0F9
:1011C00099F9296804F11D0007F094F9204603B04D
:1011D000F0BD00BF18B301086400F81F0CB401088B
:1011E000A8B40108D8B4010844B40108C4B4010883
:1011F000E8B201085400F81F5000F81FFDB20108C2
:1012000010B5094CFFF76EFF2368DB0709D40748C8
:10121000FFF79CFF0123064A06490448236015F0A6
:10122000FAF8024810BD00BFB4070020C007002034
:10123000000000200110000838B5064D064C2B6850
:1012400013F0010F04D1FFF7DBFF012320602B60B7
:10125000206838BDB80700202808002008B50B21F9
:10126000054804F007FA28B1BDE808400B21024800
:1012700004F014BA08BD00BF0000024008B519B15F
:10128000BDE80840FFF716BF044806F0DBFFBDE8E5
:10129000084002220B21024804F04EB9D0B20108E6
:1012A00000000240F8B50446374804F1440506F052
:1012B000C9FF2846002100F085FD0021284600F0E6
:1012C00097FD324D204613F009FF0CF027FE0DF07C
:1012D000CDFA20460021FFF7D1FF0BF01FFC13F0E1
:1012E000CDF9012228460C2104F026F904F060FD16
:1012F00023682046DB6804F1540600219847244FF8
:101300000021304600F078FE04F026FA214806F06D
:1013100099FF04F07BFE03F0C5FE384601220D2143
:1013200004F00AF9012238460E2104F005F90021E3
:10133000084604F0FBFC04F1480000F0EDFD01213B
:10134000304600F059FE4FF4E13004F071FF1248CE
:1013500006F078FF28460C2104F072F90023284695
:101360001A460C2104F0AAF80120002104F044FDE3
:1013700013F096F90BF0F8FA04F018FD2046BDE8DA
:10138000F84013F0BBBE00BF82B201080004024067
:1013900000000240A6B20108EEB1010838B50546CA
:1013A000FFF75CFF044628B100212846FFF766FFDF
:1013B00003F086FE03F08CFD05460CB1FFF77AFEC4
:1013C000284638BD70B50C4606461549204616F02D
:1013D00011F920B90021204616F0EEF870B111493C
:1013E000204615F04BFF16F00FF901460E4806F0A7
:1013F00029FF4FF4BB710D4800F0CEFE3046FFF7D9
:101400002DFF054648B93046FFF7C8FF0146204684
:1014100016F0F0F808B1FFF74DFE284670BD00BF8A
:101420003333534000007A4435B0010864B00108FA
:1014300070B52D4AD6B013680546DB0705D42B4995
:1014400000F154030B600123136029492846FFF77C
:10145000B9FF0646274806F0F5FE002105F14400D5
:1014600000F0C6FC244C254BE360254B2361254B43
:10147000A360254B6360254B2360254B6361254B9F
:10148000A361254BE36104F110030FCB8DE80F003E
:1014900094E80F0013F02EFB002305A8EB632B64E8
:1014A00013F0B4FA9DF8143005F13C04012B14D16B
:1014B000DDF8153005A8EB63DDF819302B6413F067
:1014C00075FA164806F0BEFE0821204606F020FFF9
:1014D000BDF91611124806F0B5FE31462846FFF751
:1014E000CDFE56B070BD00BFB0070020BC07002085
:1014F00000004040A0AF0108FC540020F550000857
:101500007D5000085D100008A91000086D1000084B
:101510004582000855A5000895A50008C1AF01083F
:10152000E7AF010870B507490546FFF74BFF0646D0
:1015300013F004FA044631462846FFF79FFE204682
:1015400070BD00BF000040407FB5F82300F14805A2
:1015500004AC0646284604F8013D00F0E3FC0223F3
:10156000214600930122A123284600F0DFFC4FF41E
:1015700000430822009306F15801A123044628469F
:1015800000F0FEFC0440E4B2284600F0CDFC20460A
:1015900004B070BD30B58BB0044604F0C3FE014604
:1015A0004F4806F04FFE4F4806F04CFE204600F034
:1015B00097FB00F0A9FA00F053FA4B4806F042FE00
:1015C00004F1480549484A4906F03CFE284600F027
:1015D000A3FC38B9474806F035FE40F233114648BF
:1015E00000F0DAFD03F06CFD2046FFF7ADFF20B9F7
:1015F0004FF49C71404800F0CFFD94F85F0094F8E0
:101600005A30049094F85E0094F85920039094F8AE
:101610005D0094F85810029094F85C00019094F8E2
:101620005B000090354806F00DFE284600F01AFADF
:10163000284600F07BFA04F1440584F8600004F1C8
:10164000640000F01BFC0021284600F0BBFB0120D9
:1016500000F030FD0021284600F0CAFB012000F018
:1016600047FD2046FFF7E4FE00F0ACFA244806F000
:10167000E9FD4FF4FA7016F0DBFA054640BB21484D
:1016800006F0E0FD204806F0DDFD204806F0DAFD1A
:101690001F4A2049204806F0D5FD2049204806F081
:1016A000D1FD204806F0CEFD04F121011E4806F0D0
:1016B000C9FD07A804F0F6F907A806F019FD0146D0
:1016C0001A4806F0BFFD114806F0BCFD0BB030BD56
:1016D000174806F0B7FD284616F0B2FAD2E700BF69
:1016E000ACB00108C2B00108D9B00108EEB00108E1
:1016F000A086010009B1010864B001081FB101080A
:1017000054B1010887B1010851E30108C5B10108CE
:10171000F6B1010801B2010823B2010833B2010891
:101720003AB2010845B2010865B2010870B2010879
:10173000BBB101082DE9FF4100F14805284600F042
:10174000F1FB04240226284F013C14F0FF0433D09F
:10175000A123012239460096284600F0E7FB4FF40A
:101760000043804600930422A12302A9284600F0EA
:1017700007FCB8F1000F01D10028E5D09DF8083032
:10178000442B20D19DF809306E2B1CD10DF10A009D
:1017900006F0A2FE0223013084B221460DF10900B9
:1017A0008DF8083006F0B9FE002303220093A02331
:1017B00002A9284600F0BAFB284600F0B5FB2046F7
:1017C00004B0BDE8F0814FF488430024ADF8083040
:1017D0006E2300210DF10B008DF80A3006F09DFEFE
:1017E0000094A0230522E3E79FAF010838B50C461B
:1017F000113105460CF00CFF214651F8583F2846A0
:101800002B604B686B6038BD024B186803685B68DF
:10181000184700BF38080020024B186803689B680F
:10182000184700BF380800202DE9FF410023154666
:101830001370022206460D4F04AC386804F8011DEF
:1018400003680092D3F80C80012233462146C0473A
:1018500048B14FF4004238682946036800921C6979
:1018600001223346A04704B0BDE8F08138080020CB
:1018700030B585B08DF80D200022074B8DF80C1087
:101880001C6803A923680092DD68022203462046F3
:10189000A84705B030BD00BF3808002037B54FF469
:1018A0000045064B1C68236800951D6913460A46CF
:1018B00001462046A84703B030BD00BF34080020D1
:1018C00037B50025054B1C6823680095DD68134675
:1018D0000A4601462046A84703B030BD3408002020
:1018E00037B50225054B1C6823680095DD68134653
:1018F0000A4601462046A84703B030BD3408002000
:10190000024B186803681B68184700BF34080020A2
:10191000024B186803685B68184700BF3408002052
:10192000024B186803689B68184700BF3408002002
:101930004FF47A735843B0FBF3F00AF017B910B5BF
:101940000446FFF779FC2146BDE81040FFF7F2BEE0
:1019500010B5424C0BF034F920460222002103F06E
:10196000EBFD01222046114603F0E6FD2046012250
:10197000022103F0E1FD20460222032103F0DCFDF9
:1019800020460022042103F0D7FD20460222082130
:1019900003F0D2FD20460122092103F0CDFD2046AF
:1019A00001220A2103F0C8FD204602220B2103F088
:1019B000C3FD03F077FB002320461A460C2103F0F9
:1019C0007DFD204600220C2103F046FE2046002229
:1019D00004F580640F2103F0AFFD204601220021B1
:1019E00003F0AAFD20460022022103F0A5FD2046B7
:1019F0000022032103F0A0FD20460222062103F06D
:101A00009BFD20460022082103F096FD204600227F
:101A1000092103F091FD204601220C2103F08CFDE9
:101A2000204602220D2103F087FD204602220E21CE
:101A300003F082FD204602220F2103F07DFD0023EA
:101A400004F5806420461A460D2103F037FD204638
:101A5000BDE8104000220D2103F0FEBD0000024051
:101A600004F088B81D4B00B51A6889B0D2075FBF73
:101A70001B4A106001221A601A4B1B4A04931B4B2D
:101A800005931B4B03931B4B02931B4B079308AB14
:101A900043F8082D93E803008DE8030002AB0FCB59
:101AA00012F0DCFE90B1154806F0CCFB0022144881
:101AB000114603F041FD0F2302220021104803F0DC
:101AC000DBFB09B05DF804EB12F062BE69210D4842
:101AD00009B05DF804EB00F05FBB00BF30080020E8
:101AE00038080020091800083119000819180008E2
:101AF000291800087118000845820008AAB30108D7
:101B000000000240BBB30108002307B5ADF8043064
:101B100001238DF8063001980AF0AEFF03F0C2FAF7
:101B200003B05DF804EB0AF0F9BF0000194B10B5E3
:101B30001A688CB0D2075FBF174A106001221A6082
:101B4000164B0793164B0593164B0693164B0893AB
:101B5000164B0993164B0A93164B0B930CAB13E9D8
:101B600007008DE8070005AB0FCB12F05DFB0446C4
:101B700001220F21104803F0DFFC3CB10F4806F0B2
:101B800061FB12F02FFB20460CB010BD0C4806F094
:101B900059FBF8E72C080020340800209D180008A5
:101BA000C1180008E11800080119000811190008FF
:101BB0002119000845820008000002402CB30108EA
:101BC0005FB301082DE9F04FA9B00BF0EDFADFF893
:101BD0000C9168B9384B394ACDE923332292384AFF
:101BE0000093CDF88090219220AB0FCB0BF0E2FA5E
:101BF000344B00251993344B4FF0010A1893334BA3
:101C00004FF003081A93324B2B4C1B93314B2C4F44
:101C10001C930423294E09A918A8CDE909351D9460
:101C20001E971F968DF829A007F0BCF807F0AEF8B4
:101C300016F068FE2946142223A80C95CDF82C80B6
:101C400016F059F8EE460DF1A00C4CF8186DBCE8F2
:101C50000F00CDE92047AEE80F009CE803008EE8B6
:101C600003000DF1800B0BA99BE80C0003C90CF0DD
:101C7000A1F8294610220EA816F03DF8164BCDE922
:101C80001244CDF834808DF83EA002AC0DADCDE904
:101C900015761793CDF850900FCD0FC42B682360A5
:101CA00016AB93E803008DE8030012AB0FCB0CF0EA
:101CB000D9FC29B0BDE8F08F4582000851830008A7
:101CC0007D830008A1CA000869C9000879C8000816
:101CD00011C8000825C800083F190008615B00080A
:101CE0002DE9F047044603F0F3F81E49054615F0C8
:101CF000C5FA15F089FC01461B4806F0A3FA4FF01F
:101D00008041284615F058FC48B30025DFF8609064
:101D1000DFF85080154E03F0DBF84946074615F012
:101D20005FFCA8B94146384615F0A8FA15F06CFCDE
:101D30000146304606F086FA236885F00105204604
:101D4000DB68294698474FF47A7003F0D3F9E2E74D
:101D500023682046BDE8F047DB6800211847BDE84E
:101D6000F08700BF00007A447DB301088FB30108FB
:101D70000000204008B50D49012003F051FD0C4939
:101D80000B2003F04DFD0B490A2003F049FD0A49E1
:101D9000042003F045FD0949072003F041FDBDE89B
:101DA00008400749052003F03BBD00BF79A00008AB
:101DB00095A3000821A20008ADA4000801A4000812
:101DC00089A40008002310B50C461A460D210748C7
:101DD00003F074FB14B1012C00D010BD2246BDE805
:101DE00010400D21014803F037BC00BF000802403D
:101DF000002310B50C461A460C21074803F05EFB81
:101E000014B1012C00D010BD2246BDE810400C21B9
:101E1000014803F021BC00BF0000024012F054BB97
:101E2000084611461A4612F0EDBB084611461A46FE
:101E300012F06ABB084611461A4612F09FBB00001A
:101E40000C2110B1024803F0FBBB014803F0FEBBBC
:101E50000004024010B561B1FFF7EEF9044612F03C
:101E600007FB01462046FFF7ADFABDE8104012F02F
:101E700017BCBDE8104012F001BC000070B588B07E
:101E8000FFF7DAF91D490546FFF79CFA0C210646D3
:101E90001B4803F0D5FB00230C211A46184803F019
:101EA0000DFB0021012003F0A7FF102200210DEB04
:101EB000020015F020FF134B02AC0293124B069365
:101EC000124B039308AB13E903008DE8030094E879
:101ED0000F0012F0FDFB60B112F0F6FA01460C485B
:101EE00006F0B0F93146284608B0BDE87040FFF76B
:101EF000C5B9084806F0A6F9F4E700BF0000404065
:101F000000040240411E0008F5500008AD5E0008C4
:101F100014B401082AB40108014803F00BBC00BF47
:101F2000A086010003F0D6BB03F0F0BB2DE9F04121
:101F3000069F1E4607F00303032B80460C461546FA
:101F400003D12F210D4800F027F92046BC07324667
:101F500029460AD503F028FC10B10120BDE8F08124
:101F60000123002088F80430F8E7FB0702D503F0CE
:101F700029FCF1E703F00AFCEEE700BF58B40108C2
:101F80002DE9F041069C0D46E107804616461F46A6
:101F900003D54C210D4800F0FFF8A20703D54F21CF
:101FA0000A4800F0F9F823043A46314628460AD593
:101FB00003F016FC10B10120BDE8F08101230020E0
:101FC00088F80430F8E703F0D3FBF3E758B40108CE
:101FD00008B50321034803F048FB003018BF012077
:101FE00008BD00BF000402400A460248032103F076
:101FF00033BB00BF0004024008B581B101230321B7
:102000001A460A4803F05AFA0321084803F018FB5D
:10201000BDE8084003220548114603F02FBA01220B
:10202000BDE808400321014803F086BA00040240DD
:1020300003F096BD1FB501A806F01CF801A803F037
:1020400021FD05B05DF804FB1FB501A806F012F8EC
:1020500001A803F065FE05B05DF804FB03F0CEBDFA
:1020600003F0E6BD084603F05DBCDFB50023CDE913
:102070000133ADF80C3001238DF807308DF80830AE
:102080006FF01D038DF809300723044601A88DF871
:102090000A3006F014F8236806461B6820460F46EF
:1020A0009847864277EB0103B4BF0120002004B0BB
:1020B000D0BD0000042817D8DFE800F00309100E97
:1020C0001200002303211A46084803F0F7B9002242
:1020D0000321064803F030BA0222F9E70122F7E7AC
:1020E0000321024803F04EBA704700BF00000240CF
:1020F000042817D8DFE800F00309100E12000023AF
:1021000002211A46084803F0D9B9002202210648E4
:1021100003F012BA0222F9E70122F7E7022102488E
:1021200003F030BA704700BF00000240014B186056
:10213000704700BFC808002073B5124C06462378CC
:102140000D46114A1BB913780BB172B6FEE7012395
:10215000002113700D48642215F0CDFD2B4600962A
:102160000B4A6421094816F035FC0A4B1B6803B181
:1021700098470125054E304606F0A8F872B625703E
:10218000F9E700BFA80800203C0800203E08002016
:1021900007B50108C8080020F7B5144C0646237897
:1021A0000D46134A1BB913780BB172B6FEE7012333
:1021B000002113700F48642215F09DFD2B460096F8
:1021C0000D4A64210B4816F005FC0C4B1B6803B14B
:1021D00098470125074F0A4E384606F077F83046F3
:1021E00006F074F872B62570F6E700BFA908002063
:1021F0003D0800203E0800202FB50108C808002037
:102200003EB501080368DFF888C080B5CCF800301F
:10221000164F4368164E3B608368164D3360C368A3
:1022200015492B600369154A0B604369144C136010
:102230008369C0692360134B1860DCF800003868BC
:1022400030682868096810481268002122686422F2
:102250001B6815F050FD23680C4A64210A4816F0EB
:10226000B9FB094806F032F8FEE700BFB8080020C5
:10227000C0080020C4080020BC080020A4080020DA
:10228000AC080020B00800203E080020F4B401088B
:10229000B4080020074B1B6803B198471EF0040FD9
:1022A0000CBFEFF30880EFF309808169004A104703
:1022B00005220008C808002010B50446C06908B10E
:1022C00006F046F8206908B106F042F8606808B1E7
:1022D00006F03EF8204610BD10B50446006808F030
:1022E000F1FF204610BD00001FB50B465468017871
:1022F0000294127801925A68009242681B68024860
:1023000005F0A0FF04B010BD5AB50108C92101486D
:10231000FFF742BF78B50108FE2307B502A901F80F
:10232000043D054B1868002300681A4608F0BAFC03
:1023300003B05DF804FB00BFD8080020D0B51F46ED
:102340007423C0E900310023044683600820164648
:1023500011F0AEFEC0E90067A0602046D0BD0000CD
:102360002DE9D043DDE9066799467223C0E90031C3
:1023700000239642836077EB09030446904603DA14
:102380002B210748FFF708FF102011F091FEC0E94C
:102390000089C0E90267A0602046BDE8D08300BF85
:1023A000C2B50108036837B5632B04460D4601D05A
:1023B000FFF7ACFF002302AA42F8043DA1682846BB
:1023C00005F026FD019B1BB138210248FFF7E4FE12
:1023D00003B030BDC2B5010870B563230025C0E964
:1023E0000031044685601A20164611F061FE1A225B
:1023F000294615F080FC3146A0602046FFF7D2FF49
:10240000204670BD81647047C16470472DE9F84370
:10241000D0E90173884600254FF00C09DB1B0A4EFA
:102420009B105E43ECB2B4420BD209FB04724146EE
:10243000506816F023FB01350028F3D12046BDE893
:10244000F8834FF0FF30FAE7ABAAAAAA2DE9F843C8
:10245000D0E90473884600254FF00C09DB1B0A4EB7
:102460009B105E43ECB2B4420BD209FB04724146AE
:10247000506816F003FB01350028F3D12046BDE873
:10248000F8834FF0FF30FAE7ABAAAAAA2DE9F04192
:102490000E4649680446FFF7B9FFC0B2FF2803D0D3
:1024A0007C212948FFF778FED4E90123274F9B1AA6
:1024B0009B107B437E2B03D97F212348FFF76CFEC3
:1024C000D4E901120C25E068531A9B10121A7B43C1
:1024D00092107A430133934205FB03F80ED841442E
:1024E000A160D4E9013496E80700E31A04E9070083
:1024F00016489B1058430138BDE8F081404605F06E
:102500003DFF054618B969211148FFF745FED4E99A
:1025100001C30027A3EB0C039A100C4B5343002B71
:1025200009DD05EB070E0CEB070207CA013B8EE83D
:1025300007000C37F3E7604605F00AFF6560454485
:10254000C4E90255CDE700BFC2B50108ABAAAAAAEB
:10255000DFB601081FB56E23CDE90131002301A9C3
:102560000393FFF793FF05B05DF804FBFF2270B5FE
:10257000002380F828204FF000424FF0FF31C0E9DF
:102580000D23C2636FF07F42C0E910120522254D72
:10259000C0E914232A68044612F00102C0E900339E
:1025A000C0E90233C0E90433C0E90633C0E90833A7
:1025B0000363C0E9123313D101211B4E0846326078
:1025C000716008F095FA306018B912211748FFF7CA
:1025D000E3FD0123164A174913482B6013F01BFF34
:1025E000154B1A680AB9104A1A6014492046FFF7B9
:1025F000B1FF134B134918702046FFF7ABFF124B86
:10260000124918702046FFF7A5FF114B11491870A9
:102610002046FFF79FFFFE220F4B18700F4B2046FE
:102620001A7070BDD4080020480900201FB70108A7
:1026300000000020D9220008D808002061B7010856
:10264000E008002069B70108DE08002071B7010822
:10265000DC08002076B70108DF080020DD08002034
:1026600010B5084C2368DB0709D40748FFF77EFF45
:102670000123064A06490448236013F0CCFE0248B1
:1026800010BD00BFD0080020F0080020000000208E
:10269000B92200082DE9F0410E4649680446FFF7CB
:1026A000D5FEC0B2FF2803D087212948FFF774FD6B
:1026B000D4E90423274F9B1A9B107B437E2B03D91D
:1026C0008A212348FFF768FDD4E904120C25A0698C
:1026D000531A9B10121A7B4392107A430133934290
:1026E00005FB03F80ED841446161D4E9043496E84F
:1026F0000700E31A04E9070016489B105843013805
:10270000BDE8F081404605F039FE054618B969215B
:102710001148FFF741FDD4E904C30027A3EB0C03E4
:102720009A100C4B5343002B09DD05EB070E0CEB05
:10273000070207CA013B8EE807000C37F3E7604643
:1027400005F006FE25614544C4E90555CDE700BF07
:10275000C2B50108ABAAAAAADFB6010838B5D0E90C
:1027600001239B1A074A9B105343CDB29D42044656
:1027700003D3A6210448FFF70FFD0C20636800FB7C
:10278000053038BDABAAAAAAC2B5010838B5CCB28B
:10279000114905460B6813F0010307D10F4A702059
:1027A0001372012310600E480B605060FF2C10D094
:1027B000D5E904239B1A0B4A9B1053439C4203D335
:1027C000B2210948FFF7E8FC0C23286903FB040049
:1027D00038BD0248FCE700BFCC080020E408002018
:1027E0000CB60108ABAAAAAAC2B5010810B5D0E977
:1027F0000730C9B2D2B2834209D01C788C4204D1CE
:102800005C78944201D1987810BD0333F3E74FF020
:10281000FF30F9E72DE9F041D0E904239B1A4F4A34
:102820009B1053430D4609780446994203D39321E4
:102830004B48FFF7B1FCD4E901239B1A474A9B1090
:1028400053436978994203D394214548FFF7A4FC88
:10285000D4E904239B1A414A9B105343A978994217
:1028600005D3FE2903D095213D48FFF795FC6A78F2
:1028700029782046FFF7BAFFC3B2FF2B064629D0BE
:1028800029782046FFF782FF697807462046FFF740
:1028900065FF314680462046FFF778FF41460246F5
:1028A0003846FFF721FD29782046FFF76FFF69784A
:1028B00006462046FFF752FFA97807462046FFF755
:1028C00065FF394602463046FFF70EFD9C2124483D
:1028D000FFF762FCD4E90723204F9B1A7B437E2B32
:1028E00003D99F211E48FFF757FCD4E90762616AAC
:1028F000931B7B43521A57430133BB4203EB4308FC
:102900000AD8464426622A88236A23F8032CAA7828
:1029100003F8012CBDE8F081404605F02FFD064686
:1029200018B969210F48FFF737FCD4E90702131AD9
:102930000A4A5A430023002A0ADDC118B1F800C030
:10294000F71826F803C08978013AB9700333F2E723
:1029500005F0FEFCE66146446662D3E7ABAAAAAA8C
:10296000C2B50108DFB6010813B5FF24084A02AB5F
:10297000106803F8044D0A460068194608F036FA54
:10298000012814BF20469DF8040002B010BD00BF0E
:10299000D808002038B5816800681D46144605F047
:1029A000C1FD0346201845EBE37138BD08682DE9E9
:1029B000F04172281F461FD074280FD0632820D101
:1029C000886805F0E5FA002871F1000304460D4619
:1029D0000EDADD210D48FFF7DFFB09E08B68D3E954
:1029E0000045B5F1004F08BF002C01D0A4187D416F
:1029F00020462946BDE8F0818868BDE8F041FFF730
:102A0000C9BF00244FF00045F2E700BFC2B501087E
:102A10002DE9F0410F4606460024FFB2FFF7B6FE4F
:102A2000D6E90758454511D02B78BB420CD16978BF
:102A30003046FFF793FE0368692B05D183681B6856
:102A400003B198470134E4B20335EBE72046BDE813
:102A5000F0812DE9F34180460F460025FFF796FEF1
:102A6000D8F81C40D8F8206003340336FFB2A642E1
:102A70001BD0234633F8032D9B78ADF804208DF846
:102A8000063014F8033C9F420DD19DF805104046D6
:102A9000FFF764FE0368692B05D183685B6803B1A7
:102AA00098470135EDB20334E1E7284602B0BDE8AE
:102AB000F0810000836C73B504460D46164623B9B9
:102AC0004FF48C710B48FFF767FBCDE90064234698
:102AD0002A460949094808F0D5FC012807D04FF4D7
:102AE0008F71044802B0BDE87040FFF755BB02B0DB
:102AF00070BD00BFC2B50108D4B601084D30000852
:102B000038B590F847300446032B0D4604D940F2FF
:102B100031110648FFF740FB94F847305A1C84F8FF
:102B200047201C4484F8425038BD00BFC2B501089C
:102B300010B590F84730044623B94FF49B7106480E
:102B4000FFF72AFB94F84730013BDBB284F84730AB
:102B50001C4494F8420010BDC2B50108CBB2FE2B54
:102B600010B504460AD0FFF711FE03686D2B05D19E
:102B7000017A2046BDE81040FFF708BE10BD0000F6
:102B80002DE9F84304460026114FD4E904239B1A8B
:102B90009B107B435FFA86F8434516D94146204691
:102BA000FFF7DCFFD4E90759A9450CD02B78434542
:102BB00007D169782046FFF7D1FDA9782046FFF7B5
:102BC000CDFF0335F0E70136DFE7BDE8F88300BF4E
:102BD000ABAAAAAA38B50546002495F84730A34207
:102BE00007DD2B1993F842102846FFF7CFFD01347B
:102BF000F3E738BD00232DE9F74FC0E904338846D9
:102C00001946D8E907594FF000430446C0E90213BA
:102C1000C0E90013FF208A469B46D2B2207401927D
:102C20004D45D4E900671FD02B78019A934219D102
:102C300069784046FFF792FDDDE90C2301464046E6
:102C4000FFF7B4FE594508BF50450BD05F4508BF9C
:102C5000564503D0B04271EB070303DA6B78C4E941
:102C6000000123740335DBE7B7F1004F08BF002EE6
:102C700008D0DDE90C23B21A67EB030316461F46A2
:102C8000C4E90267204603B0BDE8F08FF8B50D46F1
:102C90000B4B896806464B434FF47A71B3FBF1F155
:102CA000FFF762FE0446C7B2B06C03681B68984722
:102CB000FF2FC6E90E010CBF287C2046F8BD00BFDF
:102CC00040420F0038B5C36C04460D461BB9BDE841
:102CD0003840FFF7DBBF806C134903685B69984796
:102CE000A06C0368DB689847A06C03689968D5E915
:102CF00000238847A06C03681B699847E36C9847DA
:102D0000A06C0368DB689847A06C03681B68984751
:102D1000C4E90E0100212046FFF726FEC0B2FE28BE
:102D200008BF287C38BD00BF19230008F8B5D1E9D9
:102D30000067B7F1004F08BF002E05460C4608D1CA
:102D40001AB1BDE8F840FFF7A1BFBDE8F840FFF7B2
:102D5000B9BFD1E90267012E77F1000301DA087CDF
:102D6000F8BD8AB121462846FFF790FF237CC0B208
:102D70008342F5D1D5E90E67D4E90023964277EB7B
:102D80000303B8BFFF20EBE7D0E91423964277EBAB
:102D90000303E7DBFFF796FFE8E700002DE9F043C8
:102DA00089B004460D46FFF7F1FC03680646702B18
:102DB00004D04FF49E713C48FFF7EEF9A06C036815
:102DC0001B6898472A46C4E90C01CDE90001214659
:102DD00002A8FFF70FFF29462046FFF719FE9DF8CE
:102DE00018300746FF2B05D120B940F247112E4875
:102DF000FFF7D2F9D4E90C0105F0A4F901462B48FC
:102E000005F020FA39462A4805F01CFA9DF81810FA
:102E1000FF2920D100224FF00043CDE90423254FA4
:102E2000327A02A92046FFF781FFC3B2FF2B80460A
:102E300032D1D4E90E23DDE90201801A61EB0301EE
:102E400089468046CDE9048905F092F90146384665
:102E500005F0F8F9E4E72046FFF780FCD0E90078B8
:102E6000DDE9020105F06EF9424603463946124893
:102E700005F0E8F9D4E90C23DDE90201801A61EBE1
:102E8000030188460746CDE9047805F071F901464B
:102E90000A4805F0D7F9C2E729462046FFF7D9FDD1
:102EA000404609B0BDE8F083C2B501081AB6010872
:102EB00039B6010896B6010854B6010878B601087B
:102EC00070B504460D46FFF761FC03686D2B11D009
:102ED000702B09D0612B14D1836894F8411094F8B9
:102EE0004000BDE87040184729462046BDE87040C4
:102EF000FFF754BF034840F22B11FFF74DF94FF095
:102F0000FF3070BDC2B501082DE9F04790F82830B8
:102F10000446FF2B04D14FF4D6714848FFF73CF923
:102F200094F828102046FFF731FC94F82830DFF899
:102F3000188184F8463094F846102046FFF726FCA6
:102F4000036805466D2B204694F846100BD1FFF719
:102F5000D7FD297A204684F84610FFF717FC204653
:102F6000FFF738FEE7E7FFF7ABFFC3B2FF2B0646DC
:102F70000BD140F2C1113148FFF70EF940F2C111F7
:102F80002F4B304A2D4814F03FFD024694F846106E
:102F90002046FFF72BFCC5B2FF2D09D140F2C71127
:102FA0002648FFF7F9F8264B264A40F2C711E9E711
:102FB00094F84610FE2D204621D1FFF7B9FD0746B3
:102FC00001462046FFF7E2FB324639462046FFF72E
:102FD0000DFCC5B2FF2D0DD131462046FFF7BEFBDB
:102FE00040F2D3111548FFF7D7F8154B154A40F2B8
:102FF000D311C7E72046FFF7EDFD3946DAE7FFF7C3
:10300000C5FB314607462046FFF7A8FB2946814607
:103010002046FFF7BBFB8246404605F013F95246B7
:1030200049463846FFF760F994F8463084F8416025
:1030300084F8403084F846507DE700BFC2B50108EF
:10304000BEB601087EB70108C4B6010808B5FFF78F
:1030500007FBFFF759FFD0B51F461646FFF77EFB6B
:1030600003688468742B01D0FFF750F9C4E9006746
:10307000D0BDD0B5044616461F46FFF76FFB32465B
:103080003B4601462046BDE8D040FFF78FBC00001C
:10309000836C10B5044623B94FF41F710248FFF743
:1030A0007BF8A06C10BD00BFC2B50108FF23054A24
:1030B0001370054A1370054A1370054A1370054AC8
:1030C00013707047E0080020DE080020DC080020B4
:1030D000DF080020DD080020014B1878704700BF92
:1030E000DC08002010B50446006808F0EBF8204624
:1030F00010BD00002DE9FF480BF004FC4FF6FF71F6
:103100002E4A2F4C13888B421CBF01331380FFF7CC
:10311000A7FAFFF7BDFF03681B6898476378064668
:103120000F4603BB274BDB88EBB1274AD2E900BC33
:10313000BCF1004F08BFBBF1000F0FD083457CEB03
:10314000010210DA214AB0EB0B0002FB03F261EB43
:103150000C01D317904271EB030304DB1C4805F00C
:1031600071F8012363700023ADF80C3063782BB144
:1031700001238DF80C30144BC3E900672378154CFC
:10318000BBB1012514488DF80D5005F05BF8257092
:10319000124B13481A78134B1978002300930068D8
:1031A000039B0BF0F1FC30B10F4B187804B0BDE875
:1031B000F0882370ECE70D4BF7E700BF9209002081
:1031C0007409002080090020500000208051010077
:1031D000C3B801087D090020ECB801087709002078
:1031E0007009002076090020DC080020DE0800209D
:1031F0001D4B10B5DB882BB91C4805F023F81C4B80
:10320000187810BD1B4BD3E90023B3F1004F08BF62
:10321000002A01D01848F0E7184C23780133DBB2BC
:10322000032B237001D91648E7E7012B0BD90A219C
:10323000002005F077F9134B58434FF47A73B0FB35
:10324000F3F008F093FC21780F4804F0FBFF002313
:103250000E4A13700E4A13700E4A13600E4A137012
:10326000012353700D4BCBE78009002001B9010801
:10327000DC080020480000201DB90108A809002032
:1032800037B9010840420F004EB901087709002004
:10329000760900207009002074090020DF08002052
:1032A00008B500231A4607F0FDFC431E584258415A
:1032B00008BD000007B50B78012B12D005D3022BF7
:1032C00013D00C4804F0BEFF08E0002302A941F827
:1032D000043D094B1B681868FFF7E2FF03B05DF877
:1032E00004FB02A94FF0FF33F1E7034B04311B68E5
:1032F000F1E700BFB4B90108600900201FB57023D1
:10330000CDE90131002301A98DF80C30FFF7C2F996
:1033100005B05DF804FB00002DE9F04F474B85B088
:103320001A780446002A40F08580012744491F701E
:10333000FFF710F9434B444918702046FFF70AF98C
:10334000DFF854A141498AF800002046FFF702F94E
:10335000DFF848910A22002389F800003C4901A8BF
:10336000FEF7ECFF01A92046FFF790F8394E3A49E5
:1033700030702046FFF7EEF8384B39491870204678
:10338000FFF7E8F8374B384918702046FFF7E2F8A6
:10339000364B374A187037492046FDF729FBDFF8CE
:1033A00000B1354A8BF8000034492046FDF720FB78
:1033B000334905462046FFF7A1FF70230193314BA7
:1033C000804601A9204602938DF80C70FFF762F940
:1033D00007462D4A2B4612789BF800102046FDF731
:1033E00012FB43469AF8002029462046FDF70BFBC6
:1033F0003B4699F8002029462046FDF704FB2B4662
:10340000327841462046FDF7FEFA2B46327839469F
:103410002046FDF7F8FA1D4A2B4612782946204629
:10342000FDF7F1FA1A4B1B4A1B7812782946204601
:10343000FDF7E9FA05B0BDE8F08F00BFA90900204B
:103440000ABB01087809002014BB01081FBB010852
:103450002BBB01085909002038BB01089009002046
:1034600044BB01089409002051BB010895090020C4
:10347000F53000085FBB01087142000869BB010814
:103480007DBB010890BB0108DC080020DF0800209C
:10349000DD080020E00800207C09002058090020F9
:1034A0007A09002008B50BF00BFA18B1BDE8084006
:1034B0000BF028BA08BD08B50BF002FA18B9BDE840
:1034C00008400BF0D3B908BD30B5044685B00D46B1
:1034D000FFF722FF6D22064B01A91B782046CDE99C
:1034E00001258DF80C30FFF7D5F805B030BD00BFD1
:1034F0007A0900202DE9F84F424B434D1A680446E3
:1035000012F0010F01BFFF222A7001221A602B78EE
:10351000FF2B73D1FFF700FF3C4A3D492046FDF7E2
:1035200067FA3C4A28703C492046FDF761FA3B4F58
:103530003B4A38703B492046FDF75AFA3A4E3B4920
:1035400030702046FFF7C0FF394982462046FFF71A
:10355000D5FE384983462046FFF7D0FE8146364ADD
:103560003B78127829782046FDF74DFA334ADFF888
:10357000E0803378127829782046FDF744FA3378D2
:1035800098F8002039782046FDF73DFA2B7898F816
:10359000002031782046FDF736FA294A5B4612783A
:1035A00039782046FDF72FFA26493B780A782046DD
:1035B0005946FDF728FA244A4B46127839782046B6
:1035C000FDF721FA1F493B780A7820464946FDF766
:1035D0001AFA1A4A5346127831782046FDF713FA40
:1035E000337898F8002051462046FDF70CFA174A28
:1035F0002B78127831782046FDF705FA2878BDE857
:10360000F88F00BF54090020AB090020D93C000806
:10361000A0BC01083D380008AABC010879090020B7
:10362000F1310008B4BC01087B090020BEBC0108D0
:10363000CABC0108D8BC010878090020DF080020B6
:103640007C09002059090020DE080020DC08002049
:10365000E008002038B504460D46FFF75DFE034A3A
:1036600029462046FDF7C4F938BD00BFA93A000835
:10367000344B2DE9F04F1A890023044689B0CDE977
:1036800000230391002300222F4905A8FEF768FEBE
:1036900005A92046FEF7FAFE2C4982462046FFF790
:1036A0002DFE2B4983462046FFF7D4FF294A80464A
:1036B00029492046FDF79CF9284A05462849204615
:1036C000FDF796F90646274FDFF8A8903B7899F862
:1036D000002029462046FDF796F9234A5B462946F5
:1036E00020461278FDF78FF9204A434629462046A6
:1036F0001278FDF788F93346524659462046FDF7C1
:1037000082F93346524641462046FDF77CF9184A75
:103710003B78414620461278FDF775F93B7899F8D9
:10372000002031462046FDF76EF96D230593039B7B
:1037300005A9204606938DF81C50FEF7ABFF09B093
:10374000BDE8F08F80090020E7BC0108F4BC010847
:1037500004BD0108F93D000815BD0108D930000875
:1037600024BD0108DD0800209409002095090020EF
:1037700091090020DC0800202DE9FF4790468A4689
:103780001E4A1F490446FDF733F91E4905462046E7
:10379000FFF7B4FD1C4981462046FFF75BFF064654
:1037A0001A4A4B46294620461278FDF72CF9184A4A
:1037B000184F3346294620461278FDF724F93B7806
:1037C000424649462046FDF71EF93B7842463146BF
:1037D0002046FDF718F9104A3B781278314620460A
:1037E000FDF711F96D2301A92046CDE9013A8DF8C5
:1037F0000C50FEF74FFF04B0BDE8F0871D3E0008F7
:1038000075BC01087FBC01088FBC01089409002029
:1038100095090020DD0800209109002070B50D46B3
:103820000446FEF71DFF044922462B46BDE87040C2
:103830000978FFF710BC00BF59090020F7B55E4CAE
:103840002668A6B9082010F033FC05460660012062
:1038500032466860042107F04BF9286018B912213C
:103860005648FEF799FC564825600BF061F8554D17
:10387000554F296855480131296004F0E3FC0BF0ED
:1038800041F83B781BB901233B700BF067F800232C
:1038900002A941F8043D23684D4A186807F0A6FACA
:1038A000012807D04B4804F0CDFC40F28D114A4866
:1038B000FEF772FC019E731C51D1484804F0C2FC13
:1038C0002B68042B0FD90FF0B9FC03785BB1444887
:1038D00004F0B8FC4FF47A7008F048F94FF4CC715A
:1038E0003D48FEF759FC00233B702B681E22013B2C
:1038F000DBB21E2B28BF1E2302FA03F3394A934280
:1039000026D8B3F5616F1E464FF0000722D2B3F5FB
:10391000167F77F1000320DA3C2E77F10003ACBF6D
:103920001E210A21002004F0FDFD341847EBE0754C
:103930002946204604F01CFC01462B4804F082FC7A
:1039400020462946FFF76AFF284B187803B0F0BDE0
:103950000027244E4FF41671E4E73C21E2E74EB114
:103960003146234804F06EFC01980021FFF756FF12
:10397000204BEAE720482E6004F064FC0AF076FF52
:10398000FEF76EFEFFF784FB03681B6898471B4B2E
:10399000C3E9000123686BB130460AF0C9FF25680E
:1039A00035B1286807F08EFC0821284610F0A0FBEE
:1039B00000232360124BC8E7600900201FB70108ED
:1039C000B5320008A4090020A0090020A3B701080F
:1039D000A0860100B6B70108D0B7010824B80108D5
:1039E0003BB8010800A3020088B80108DE080020E7
:1039F0009EB801087C090020B3B8010840000020EF
:103A0000E0080020054B1870054B1A700022054B8A
:103A10001960054B1A705A70704700BF7709002073
:103A200076090020700900207409002002790168DD
:103A30004079FFF7E7BF08B50BF09EF8C0B2DE286B
:103A400028BFDE2008BD00004FF47A7337B500248C
:103A500003FB00F2074802A9056841F8044DB2FBD8
:103A6000F3F2286807F0C2F9012814BF2046019834
:103A700003B030BD5C0900204FF47A7337B50024E1
:103A800003FB00F2074802A9056841F8044DB2FBA8
:103A9000F3F2286807F0ECFA012814BF20460198D9
:103AA00003B030BD5C0900202DE9F04F8FB0FEF768
:103AB000D7FD4FF00009064690F846B0FFF7F2FC3C
:103AC000DFF8C4A0DFF8C480B06C02AD036808ACB6
:103AD0001B6898475A46CDE90001314608A8FFF710
:103AE00089F80FCC0FC5DDE908012368B1F1004F5B
:103AF00008BF00282B70DDE90A4516D11C4804F0E8
:103B0000A1FB002501271B4C4FF47A73A4FB030192
:103B100003FB0511FFF7B0FF10B30122164B5A72D9
:103B2000164B18780FB0BDE8F08F04F00BFB294658
:103B30000746204604F01CFB39460246504604F076
:103B400081FBA04579EB050308DA0021094804F060
:103B50000FFB01460A4804F075FBD2E70027D3E7C4
:103B60001FB1084804F06EFBAEE79DF81800D9E7D6
:103B70003CBA01088051010064090020910900202D
:103B800076BA01088FBA010854BA010885510100BC
:103B9000022818BF00200BF09DB90000F8B53B4B80
:103BA00005461E78002E6FD101271F700AF076FBA4
:103BB000374928460FF0EAF9C31F052B354C42D888
:103BC00020710E233449284663710FF0E8F9334918
:103BD000074614F053FF00283AD1E06030492846E8
:103BE0000FF0BAF92F49607028460FF0CFF9B0F501
:103BF0007A7F3AD8E0802C4928460FF0C7F942F284
:103C00001073984236D82081284928460FF0A4F92D
:103C10002749A07028460FF0B9F9B0F57A7F2ED267
:103C20006081244928460FF097F9E07036B12248A8
:103C300004F008FB71212148FEF7AEFAE068BDE808
:103C4000F840FFF7A5BF1E4804F0FCFA3E46B8E76F
:103C50001C49384614F012FF10B90223E360BDE797
:103C6000194804F0EFFA0126B8E7184804F0EAFA18
:103C70000126C0E7164804F0E5FA0126C4E7154816
:103C800004F0E0FA0126CCE7F8BD00BFAA09002045
:103C9000A4BB010880090020BDBB010860BC01086D
:103CA000E0BB0108E4BB01080BBC010865E20108A8
:103CB00033BC01085DBC010862BC0108D0B7010833
:103CC000A7BB0108CAD40108C4BB0108EDBB0108A9
:103CD00014BC01083EBC010870B5234BC0B21B7870
:103CE000984206D10FF0AAFA0FF062F91F4B18782C
:103CF00070BD1F4D0FF0A2FAFFF750FF95F90500B8
:103D00000CF026FC0AF0DAFF28790CF0EFFB0AF041
:103D1000C9FF68780BF0A8F8164B1A681C4612F019
:103D2000010213D10421144E08463260716006F07E
:103D3000DFFE306018B912211048FEF72DFA01237A
:103D40000F4A10490C48236012F065FB0E4B1A68AD
:103D50000AB9094A1A600D480BF0C2F8EB780BB1AA
:103D60000B4BC4E70B4BC2E77B090020E0080020A7
:103D70008009002050090020980900201FB7010881
:103D800000000020E53000085C090020F541000833
:103D900078090020DF080020034B93F83230022B13
:103DA0000CBF022000207047D800002008B5FFF7A4
:103DB000F3FF30B90AF084FD18B9BDE808400AF0F5
:103DC00055BDFFF7E9FF022806D10AF079FD18B1C9
:103DD000BDE808400AF096BD08BD000008B5FFF731
:103DE000DBFF02280CBF024B024B187808BD00BF56
:103DF0009509002094090020054B1B8913B9054B38
:103E000018787047044B5B7A002BF8D1FFF7E6BFB8
:103E100080090020DC08002064090020FFF7DEBFD5
:103E200001232DE9F348394C002000216372FFF78C
:103E300023FE10B1364B18781AE02368984718B95A
:103E4000344B1B78002B3CD00BF050F8012871F15B
:103E5000000306460F460EDB2F4804F0F3F9FEF789
:103E6000FFFB32463B46217AFFF7F5F8FFF7B6FF36
:103E700002B0BDE8F08823689847054688B1274816
:103E800004F0E0F9002364680093ADF80430FFF714
:103E9000D2FD01466846A0476846FFF7C7FD204BA4
:103EA000C9E71C4B1B7863B11E4804F0CBF91E4BCD
:103EB0001B88022B28D82A4629462846FFF7A2FD50
:103EC000EDE71A4D6B89EBB1EB78DBB1FEF7C8FB80
:103ED000FFF7DEF803681B6898476B89144A154D95
:103EE0005A43D5E90067861B61EB0707D317B24237
:103EF000BB4107DA104804F0A5F940F249310F48F8
:103F0000FEF74AF9002363720D4B94E76409002021
:103F10009109002096090020E2B90108F3B90108CF
:103F20009009002005BA01089209002080090020AC
:103F300080510100400000201CBA0108D0B70108E0
:103F4000DC0800202DE9F04F0446444D87B0C5E958
:103F50000023019100230A22414903A8FEF7EEF94C
:103F600003A92046FEF792FA3E4A824628723E494D
:103F70002046FCF73DFD3D4905462046FFF7A4FAE3
:103F80003B498DF803002046FFF7B8F939498346CD
:103F90002046FFF75FFB384980462046FFF768FB65
:103FA0000746364A364EDFF8EC902B46014612782B
:103FB0002046FCF728FD337899F800203946204642
:103FC000FCF721FD337899F8002029462046FCF7BC
:103FD0001AFD2A4A3378294620461278FCF713FD49
:103FE000284A9DF80330294620461278FCF70BFD3D
:103FF000254A2B469DF8031020461278FCF703FD56
:10400000224A5B46294620461278FCF7FCFC2B46E8
:10401000524659462046FCF7F6FC1D4A43462946BF
:1040200020461278FCF7EFFC2B46524641462046CC
:10403000FCF7E9FC337899F8002041462046FCF76C
:10404000E2FC6D230393019B03A9204604938DF8A2
:104050001470FEF71FFB07B0BDE8F08F6409002065
:1040600033BD0108213E000843BD010851BD0108D0
:1040700014BB01081FBB01085DBD0108DC0800205E
:10408000DD08002090090020E008002094090020AD
:104090009509002091090020F8B51D4600234171C3
:1040A000BDF8181004460360C180174602B115B967
:1040B00023712046F8BD0749284610F015F806463A
:1040C00010B920712660F4E72A46394613F0EFFD57
:1040D0002571F7E783F4010810B50446006808B1BC
:1040E00010F004F8204610BD70B5364E86B0326828
:1040F000044622B940F2CB113348FEF74DF8002CAC
:104100005DD00022314B1A80D4E91C2313431FD009
:104110002F4B1D6807F0D8FB01462E48A847D4E96D
:104120001C0104F00FF8226F01462B4804F08AF8B6
:10413000D4E91C2303A803F09DFFD4E91C232749DD
:1041400003A8C1E900232649C1E9002301F09AFC34
:10415000FEF786FAFEF79CFF03681B689847214B21
:10416000214AC3E90001237AC3F3C0031370637FBC
:104170002BB3237F1BB31D4908200FF0ABFF05466F
:1041800030B16289237F617F0092A26EFFF784FFC6
:104190000395A5B1002330681A4603A9006806F00C
:1041A000CBFC01280BD0124804F04CF8039C34B12E
:1041B0002046FFF791FF082120460FF099FF06B037
:1041C00070BD00BF5C090020D0B701089209002033
:1041D000D8000020A5BA0108B2BA010848000020A2
:1041E00050000020400000209609002083F40108C0
:1041F000DFBA010810B50446FFF776FF24B1204668
:10420000BDE810400CF006BD10BD000038B542F20C
:1042100010700AF093FB0446124804F013F8ECB156
:104220002578022D16D160680021FFF7F7FAD4F83F
:104230009800FFF759FF237A2BB10B4804F002F8DE
:1042400000220A4B1A7020460BF04AFA032D06D1C1
:10425000284638BD032DEAD10020E5E70125FFF708
:10426000A5FDF5E769B9010887B901087D090020B6
:10427000002310B5144C84F836300AF021FB08B145
:104280000AF040FBFFF7C2FF032815D8DFE800F073
:1042900005020A080D4803F0D5FF0D4B187810BD34
:1042A0000C4BFBE7FFF778FD022809BF01230A4BFF
:1042B00084F83630094BF1E7094840F2BA21FDF79E
:1042C0006BFF4FF0FF30EAE7D80000209AB90108F1
:1042D000E0080020DF0800207C09002058090020A9
:1042E000D0B70108FF2300210D4A13700D4A137047
:1042F0000D4A13700D4A13700D4A13700D4A137056
:104300000D4A13700D4A13700D4A13700D4A137045
:104310000D4A13700D4AC2E900111372704700BFB5
:104320007A090020790900207B09002091090020EA
:1043300090090020950900209409002078090020A8
:104340007C09002058090020590900206409002038
:1043500010B50446D0F8A80210B101210FF0C8FE34
:10436000D4F89C0210B104210FF0C2FED4F89002E0
:1043700010B104210FF0BCFE204610BD7FB5002413
:1043800001A82146CDE90144039411F0FBFF051E6D
:1043900006DA2946124803F055FF204604B070BDE6
:1043A00001A811F04FFE044608B1C36943B929467C
:1043B0000C4803F047FF284611F0BAFF0024ECE751
:1043C000284611F0B5FF06460028E6D129460648E2
:1043D00003F038FF204611F0D9FD3446DDE700BF79
:1043E000A3BD0108CABD010800BE010870B506469C
:1043F0000024084D3046FFF7C1FF50B90134E4B244
:104400000F2CF7D911F00EFD32212846FDF7C4FE1E
:10441000F0E770BD2BBE01082DE9F043804600682F
:104420008DB003680C461B6898471C2206460F4651
:1044300005A8002113F05FFCE3886079ADF828300F
:1044400009F0A2FC012E8DF82D0077F100032079F0
:10445000A8BF069603F092FF0546A8B3227921680B
:1044600013F025FC607909F097FC41288DF82E00A7
:1044700005D042282BD0194803F0E4FE21E0217931
:10448000284611F091FA04460246294608F52470A0
:1044900010F058FE00B30DF10C0900232246294606
:1044A000484611F0F5FDCDE9006708F1080099E8EC
:1044B000060000F0D4FA002305AA2146284611F090
:1044C00007FE284603F044FF0DB0BDE8F0832179D4
:1044D000284611F0B9FAD6E70148CDE768BD0108D2
:1044E00086BD010882B073B50793034643F8081BE5
:1044F00004460021184616464FF4227213F0FBFBC7
:104500004FF42072002113F0F6FB00210F4D2822FA
:10451000C4F8881284F88C1204F5247013F0EBFBB5
:104520002A781AB96F210A48FDF736FE00232B704E
:104530000A9B3046009307AB0ECB11F08FFC204650
:1045400002B0BDE8704002B0704700BF58000020C4
:104550002BBE010882B07FB5114C0E4608A981E838
:104560000C0023680546DB0711D409AB93E807006C
:10457000089B8DE80700324629460A48FFF7B2FF3C
:104580000123094A09490748236011F044FF084BF9
:10459000044A1A6004B0BDE8704002B0704700BF22
:1045A000AC090020B8090020000000205143000899
:1045B000B009002010B5044C22681AB97B210348C9
:1045C000FDF7EAFD206810BDB00900202BBE0108F0
:1045D0002DE9F04F8BB089460690FFF7EBFF059071
:1045E0000EF02CFE9E4906460EF0B6FC9D49049046
:1045F00030460EF0CBFC9C49054630460EF0C6FC1A
:104600009A49044630460EF0C1FC049B804633B103
:104610002DB124B1964803F015FE00230493069BA8
:10462000186803681B689847B9F1020F82468B46E9
:1046300040F0D5802B46EC17CDE902348D4EDDE9F4
:104640000234234300F0D580059B484603F1080758
:1046500009F094FC8849D1E900231343894633D1FA
:10466000384600F087FA384600F02FFA834B18706E
:10467000002800F0DF803846079300F004FA049B1E
:10468000002B00F0DB80079B1B78002B40F0D680CE
:10469000DDE9020103F06CFDDDE90234DB18644161
:1046A00025468146294618461C4603F061FD4A46C8
:1046B00003463146724803F0C5FD14EB0A046E4B05
:1046C00045EB0B05C3E90045022098FBF0F8434693
:1046D000DC17CDE902346B4D684C069B1868036803
:1046E0001B689847644B8246D3E90089404571EBCB
:1046F00009038B4680F28680B8EB0A0069EB0B0158
:1047000003F036FD31460246284603F09BFD4FF488
:104710007A7009F065FC804690B101460598FFF774
:104720007BFE404608F04AFF049B4BB1384600F040
:104730004BFA237823B101225348114603F082FD3E
:1047400009AB0093DDE90223BAEB02026BEB030332
:10475000384600F0D5F902460B4613438046894699
:1047600016D0099BA3B15946504603F0EBFC014615
:10477000464803F067FD4946404603F0E3FCA8EBDA
:104780000A020146424803F05DFD099800F016F95F
:10479000049B002BA1D02378002B9ED142464B4690
:1047A00013432FD0DDE90223B8EB020069EB0301CC
:1047B00002460B46DDE9020110EB0A0041EB0B015A
:1047C000904271EB030388DAB8EB0A0869EB0B0936
:1047D000DDE90201B8EB000069EB01010FE0B9F17E
:1047E000010F05D12246E317CDE90223294E26E722
:1047F000294E3146294803F025FD002000210BB049
:10480000BDE8F08F384600F0BEF9011E05DD2448F2
:1048100003F018FD384600F036F909F07FFB314609
:10482000204803F00FFD002213491046C1E9002281
:104830001146E4E7049B002B7FF42AAFDDE9020177
:1048400003F096FC31460246174803F0FBFCDDE915
:10485000024514EB0A0445EB0B05C9E9004533E7B3
:104860006EAA010899A9010837AA0108F6AA010849
:1048700080BE010877BE0108780C0020700C002073
:1048800002BF01088EBF0108BABF0108E1BF0108DD
:10489000F0BF01087DBE01087BF70108C9BE010811
:1048A0000CC001083EC0010852BF010837B50346DD
:1048B00068460024002580E806000021C3E9004581
:1048C000C3E9044503F11804197203C884E805001C
:1048D000184603B030BD00002DE9D848D0E904BC2B
:1048E0001F465BEA0C03044616460DD0D0E90023B0
:1048F000134309D1B6EB0B0067EB0C01C4E90001CF
:104900000146044803F09EFC0123C4E904672372B6
:10491000BDE8D88860C0010810B504460EF08EFCD2
:1049200004490EF033FB002801DDC11710BDD4E9A6
:104930000001FBE7C3AA01082DE9F84399460446A4
:104940009046FFF7E9FF06460F4656EA070323D0D5
:1049500004F11005D5E9004554EA050318D0B8EB79
:10496000040069EB0501002871F1000310DB3B46F0
:10497000324612F08FFE10F1010808FB07F341F1F7
:10498000000906FB0933A8FB0601194424184D4110
:1049900020462946BDE8F88304460D46F8E708B5E9
:1049A000D0E90423134307D0FFF7B6FF50EA010311
:1049B00014BF0120002008BD0020FCE773B50446A9
:1049C000856900F11001D1E9000103F0BBFB064647
:1049D0002046FFF7A1FF237A32460093294603467B
:1049E000024803F02FFC02B070BD00BF77C0010881
:1049F000F0B58BB06C460646034684E806009DF889
:104A0000042000F52075AB42184607D01F7F97425F
:104A100002D19F698F4209D02033F4E7D6F8803263
:104A2000132B05D90123002086F884320BB0F0BD8A
:104A300094E8060002A8FFF739FFD6F880C202AC5E
:104A400006EB4C173D460FCC0FC594E80F0085E8E8
:104A50000F000CF10103C6F880323846E6E737B59F
:104A6000DDE906456B4683E8060093E80600FFF79C
:104A7000BFFF30B122462B4603B0BDE83040FFF700
:104A80002BBF03B030BD2DE9F043074606464FF07B
:104A9000000889B000F52079B14510D034466D4644
:104AA00018220021684613F026F90FCD0FC4CDE976
:104AB0000688203695E80F0084E80F00ECE7002315
:104AC00087F8843209B0BDE8F08338B5D0F8803279
:104AD00093B1044600F52075A5420FD0A3690BB928
:104AE0002034F9E7D4E90423134305D02046FFF727
:104AF00013FF50EA0103F3D1012038BD0020FCE789
:104B00002DE9F04799460023089D90462B6090F8C8
:104B100084324BB11421164803F094FB46464F46AD
:104B200030463946BDE8F08704460026002700F5E8
:104B3000207A5445F4D0A369ABB1237A9BB94B4694
:104B400042462046FFF7F8FE50EA01030DD056EA30
:104B5000070303D0B04271EB070304DA2B6803B1FB
:104B60002C6006460F462034E3E706460F46D7E79B
:104B7000A6C00108002300F52072824202D0037211
:104B80002030FAE7704700F52072034600209A4271
:104B900006D0996911B1197A01B901302033F6E7CD
:104BA000704770B50446002500F52076B44208D061
:104BB000A36923B12046FFF7F2FE00B1013520348E
:104BC000F4E7284670BD000073B50446144803F0AE
:104BD00039FB144803F036FB2046FFF776FF064604
:104BE0002046FFF7D0FFD4F88022151A2046FFF7A1
:104BF000D8FFD4F880322A460093314603460A484B
:104C000003F020FB04F52075AC4206D0A36913B174
:104C10002046FFF7D3FE2034F6E702B070BD00BF98
:104C2000D3C00108E5B10108E4C00108002103E098
:104C30000A4B5B584350043109480A4B42189A42C8
:104C4000F6D3094A02E0002342F8043B074B9A429C
:104C5000F9D300F00DF8FCF79BF97047B8F901089B
:104C60000000002078040020780400202055002057
:104C7000314B82B01A6842F480721A6099682F4AE8
:104C80000A409A601A6822F0885222F001121A60D3
:104C90001A6822F480221A609A6822F47D029A60CF
:104CA0000022DA6001921B6813F4007318BF01231D
:104CB0000193019B012B37D14FF48051204B1A688F
:104CC000A3F5806322F00102C3F80024D3F8002486
:104CD00022F00202C3F80024D3F8002422F00402D8
:104CE000C3F800245A6A42F080525A62154A116091
:104CF0005168C906FCD49A689A609A689A609A6862
:104D00009A605A6822F460425A605A6842F44042FB
:104D10005A609A6822F003029A609A689A60064A7A
:104D2000936813F00C0FFBD14FF00062064B9A60B2
:104D3000064ADA6002B07047003802400CC0FF88B3
:104D4000003C02400070004000ED00E00003FA0566
:104D500070B5064688B02E4801F046FB2D4B1A6808
:104D60000092009A91073CD501214FF4007001F0A8
:104D700095FD012001F088FB274A536843F4003376
:104D80005360A2F5374253681B07FCD50024012568
:104D900002A801F063FB02A91D488DF80D4006949E
:104DA0008DF81C508DF80C4001F032FB2A4606238A
:104DB0003146174801F074FB2946154801F05AFBAB
:104DC0000221134801F0FEFB114801F0EDFB134DE9
:104DD00001940F4C0221204601F0EEFB58B108B0BF
:104DE00070BD1A6842F001021A60009A9207BBD4A3
:104DF0001A680092F9E7019B01330193019BB3F517
:104E0000805FE7DB38212846FDF7C6F9E2E700BFFF
:104E100000240140003802400027014018C1010869
:104E200008B5002001F030FB0021074801F022FB0B
:104E300000214FF4007001F031FD044A136823F0A3
:104E40000103136008BD00BF002401400038024088
:104E500013B5072301220146114801F021FB02216D
:104E60000F4801F0AFFB0E4801F09EFB00230D4CF4
:104E7000019302210A4801F09FFB28B1084802B0C3
:104E8000BDE8104001F095BB019B01330193019BEC
:104E9000B3F5805FEDDB4C212046FDF77DF9E8E7B7
:104EA0000024014018C1010870B506460825FFF727
:104EB0004FFF00243046FFF7CBFF013D0444F9D1FA
:104EC000FFF7AEFFC4F3CF0070BD0000000000008C
:104ED00008B51120FFF7E8FF12F078F901460848FD
:104EE00012F080FA11F05AFD03A3D3E9002311F068
:104EF000ADFD12F065F808BD2FDD24068195F33F66
:104F000000F07F450F4A536A43F0805353620E4BC3
:104F10001A465968C906FCD41B68022823F4C053FA
:104F200006D143F4C05313605368DB06FCD47047CA
:104F3000012802D143F48053F5E70028F3D143F46C
:104F40000063F0E7003802400070004010B50C4BE1
:104F50005A68D206FCD41C6814F4C05F0BD114F458
:104F600080500AD114F4006404D106482A21FDF7C8
:104F700013F9204610BD0220FCE70120FAE700BF2C
:104F80000070004066C1010838B50546012001F0F7
:104F900029FB022D01BF144A136843F0010313607B
:104FA000124B1A6842F480721A601A689205FCD596
:104FB0005A6822F4604242F440425A6000229A60E9
:104FC0000A4B9C6814F00C04FBD14FF480721A60F9
:104FD000074B084A28461A60FFF794FF2046BDE8B1
:104FE000384001F0F3BA00BF003C024000380240F4
:104FF0005C000020D0FE3F000C4B5A6B900513D490
:105000005A6A42F080525A62094A116841F480712A
:105010001160596B41F480715963596B8905FCD556
:10502000136823F480731360704700BF0038024098
:1050300000700040054B5A6B910706D45A6B42F042
:1050400001025A635A6B9207FCD570470038024040
:10505000094B5A6A42F020025A629A6942F02002D1
:105060009A619A6922F020029A610022A3F509331D
:105070001A801A855A62704700380240152102389A
:10508000002248430121064B1A85D86299825A6250
:105090001A8219801A8AD207FCD500221A8070471A
:1050A00000140040002349F6FE7282B00193019B78
:1050B000934201DD02B07047019B01330193F6E793
:1050C000002340F6FE7282B00193019B934201DD02
:1050D00002B07047019B01330193F6E7002382B0D1
:1050E0000193019BB3F5CC7F01DD02B07047019BBA
:1050F0000133F5E7D0B1012801D1FFF7EFBF0C4B29
:1051000000211A684FF47A73B2FBF3F2094B013AAB
:1051100092B21A8501220138D8629A8259621982A4
:105120001A801A8AD207FCD500221A80704700BF65
:105130005C0000200014004000F1774303F5780381
:10514000B3F5804F2DE9F04106460C4617462DD2A7
:1051500002F1F73303F608030344B3F5804F25D279
:10516000FFF7F4FE804610B10020FFF7CBFE01F000
:1051700051FA01252744361BA7420AD101F05AFAF9
:10518000B8F1000F02D04046FFF7BCFE2846BDE84C
:10519000F08141F6027001F055FA301914F8011B44
:1051A00001F0ACFA042818BF0025E5E70025EDE77B
:1051B00010B50C4600F1774101F57801B1F5804F4B
:1051C0000DD202F1F73303F608030344B3F5804F21
:1051D00005D20146204612F06AFD012010BD0020D4
:1051E000FCE7000008B5114B984215D003F5806329
:1051F000984213D003F58063984211D003F5806381
:1052000098420FD003F5006398420DD0084B094A2D
:105210001421094812F0F8FB002008BD0120FCE72A
:105220000220FAE70320F8E70520F6E70000024035
:10523000FDC10108B7C1010816C201080F2808B551
:1052400005D9094B094A3B21094812F0DDFB01232E
:1052500003FA00F0C043074A5168014051601368E7
:105260001840106008BD00BF67C20108C1C1010835
:1052700016C20108000401400F292DE9F84F8246AB
:105280000D4693461F4605D95A4B5B4A54215B484D
:1052900012F0BAFB4FF0010909FA05F900F0B8F86D
:1052A0006FEA0903564E032D7268564C02EA030258
:1052B0007260326803EA0203534A3360136A43F0B0
:1052C000010313622ED80F22A3684FEA850802FA61
:1052D00008F223EA0203A3605046FFF783FFA368A6
:1052E00000FA08F01843A0601BF0020F18BFB36863
:1052F000464A1CBF43EA0903B3601BF0040F1EBFFC
:10530000F36843EA0903F360336843EA090333604F
:105310003B01DBB2002D45D182F8063340231360F8
:10532000BDE8F88F072D13D80F22A5F10408E36814
:105330004FEA880802FA08F223EA0203E3605046C3
:10534000FFF750FFE36800FA08F01843E060CBE78E
:105350000B2D13D80F22A5F1080823694FEA8808FE
:1053600002FA08F223EA020323615046FFF73AFFEC
:10537000236900FA08F018432061B5E70F22A5F170
:105380000C0863694FEA880802FA08F223EA02036C
:1053900063615046FFF726FF636900FA08F018437F
:1053A0006061A1E7012D03D182F807338023B6E7BE
:1053B000022D04D182F808334FF48073AFE7032D38
:1053C00004D182F809334FF40073A8E7042D04D107
:1053D00082F80A334FF48063A1E7092D04D882F8DC
:1053E00017334FF400039AE782F828334FF48073A1
:1053F000536095E773C20108DCC1010816C20108B9
:1054000000040140000001400038024000E100E0DB
:10541000144B984205D1144AD36943F00103D36178
:105420007047124B984204D10F4AD36943F00203EC
:10543000F5E70F4B984204D10B4AD36943F00403BC
:10544000EDE70C4B984204D1074AD36943F00803B7
:10545000E5E7094B9842E3D1034AD36943F02003BF
:10546000DDE700BF000002400038024000040240B7
:1054700000080240000C02400014024003234900CF
:1054800010B584688B4024EA030484600124022A56
:1054900004FA01F407D0032A0DD0012A07D183684A
:1054A0002343836003E083688A401A4382608368F1
:1054B0001C43846010BD82681343F2E70F29F8B5DE
:1054C00004460F4615461E4603D940211948FCF7ED
:1054D00063FE2046FFF79CFF03237A009340DB43E3
:1054E0002168194021600121D4F800C001FA02F0BE
:1054F0004CEA000CB940C4F800C009B266B1A688F5
:10550000314389B2A180E168012D03EA0103E36020
:1055100006D0022D08D0F8BDA68826EA0101F1E7E1
:10552000E3680343E360F6E7E36805FA02F21A432F
:10553000E260F0E7C3C201080F2970B505460C46CA
:10554000164603D960210E48FCF726FE2846FFF7D1
:105550005FFF032361008B40DB43EA68012E02EA10
:105560000302EA6005D0022E03D02A6813402B60A4
:1055700070BDEA6806FA01F11143E960F5E700BF82
:10558000C3C201080F2910B505D9074B074A762178
:10559000074812F039FAFFF73BFF4B00032102687E
:1055A00099401143016010BD67C201087FC2010824
:1055B000C3C201080F2938B50446154605D97C2118
:1055C0001B4B1C4A1C4812F01FFA0F2A03D91B4B15
:1055D000184A7D21F6E7FFF71BFF07294FF00F035D
:1055E00018D8006A8A00934020EA03032362236AE2
:1055F00005FA02F21A4322620322236849008A4014
:1056000023EA020323600223226803FA01F1114313
:10561000216038BDA1F10802406A9200934020EA5F
:1056200003036362636A95401D436562E4E700BF5C
:1056300067C2010892C20108C3C20108B0C20108D2
:10564000012303FA01F189B201837047012303FAB0
:1056500001F189B241837047012303FA01F189B254
:105660000AB10183704741837047008A084100F006
:10567000010070470F2938B505460C4603D9A9210A
:105680000548FCF789FD28686400E04000F003004D
:10569000431E5842584138BDC3C20108808A0841A0
:1056A000C04300F00100704710B5084C23681BB9D7
:1056B000012005F0E5FA206023682BB9BDE8104011
:1056C00036210348FCF768BD10BD00BF800C0020E8
:1056D00012C3010810B50B4C22681AB93C210A48C4
:1056E000FCF75AFD206842F2107105F011FC012808
:1056F0000CBF0124002403D040210348FCF74CFDDB
:10570000204610BD800C002012C3010810B5074CC4
:1057100022681AB94D210648FCF73EFD0023206897
:105720001A46BDE81040194605F006BA800C002064
:1057300012C3010810B50446FFF7B6FFFFF7CAFF12
:1057400021461022034801F04BFD0446FFF7DEFF1F
:10575000204610BD0054004010B5FFF7A5FFFFF72D
:10576000B9FF01F0F5FC0446FFF7D0FF204610BD5D
:1057700008B513460A460146034801F067F90030B0
:1057800018BF012008BD00BF0054004008B51346F3
:105790000A460146034801F05FFA003018BF0120B5
:1057A00008BD00BF0054004008B513460A46014634
:1057B000034801F0E3FA003018BF012008BD00BF24
:1057C0000054004008B513460A460146034801F05C
:1057D00065FB003018BF012008BD00BF0054004029
:1057E00008B513460A460146034801F0AFFB0030F6
:1057F00018BF012008BD00BF005400400123064A25
:1058000083405169194205D05361044B53F820304D
:1058100003B11847704700BF00040140840C00200A
:105820000F2838B504460D4603D926210348FCF756
:10583000B3FC034B43F8245038BD00BF60C30108DC
:10584000840C00200020FFF7D9BF0120FFF7D6BF4E
:105850000220FFF7D3BF0320FFF7D0BF0420FFF7DC
:10586000CDBF08B50920FFF7C9FF0820FFF7C6FF25
:105870000720FFF7C3FF0620FFF7C0FFBDE8084081
:105880000520FFF7BBBF08B50F20FFF7B7FF0E20BD
:10589000FFF7B4FF0D20FFF7B1FF0C20FFF7AEFFBD
:1058A0000B20FFF7ABFFBDE808400A20FFF7A6BFBB
:1058B000FEE7FEE7FEE7FEE7FEE7FEE7FEE7FEE7C0
:1058C000FEE7FEE7FEE7FEE7FEE7FEE7FEE7FEE7B0
:1058D000FEE7FEE7FEE7FEE7FEE7FEE7FEE7FEE7A0
:1058E000FEE7FEE7FEE7FEE7FEE7FEE7FEE7FEE790
:1058F000FEE7FEE7FEE7FEE7FEE7FEE7FEE7FEE780
:105900000A23B0FBF3F203FB120040EA0210C0B21C
:1059100070470000CA22024B5A6253225A627047F3
:1059200000280040014B1860704700BFC40C0020E5
:105930004FF400320F4B10B50F4C5A61E368DB0592
:1059400003D430210D48FCF727FCFFF7E3FF4FF4A9
:105950000072A36823F48853A360094BC3F8842022
:10596000FF236362074B1B6813B1BDE81040184763
:1059700010BD00BF0004014000280040AEC3010874
:1059800000E100E0C40C00202DE9F04F9846374BB1
:1059900085B01B78824691469DF838709DF83C6032
:1059A0002BB9334B334A8C21334812F02DF8431E68
:1059B0001E2B59D80C2957D8A2F5FA63632B53D85C
:1059C000B8F1170F50D83B2F4ED83B2E4CD802F1D0
:1059D0003000C0B2FFF794FF83460846FFF790FF00
:1059E00004465046FFF78CFF40F400554046FFF751
:1059F00087FF45EA0B4545EA042504463846FFF78C
:105A00007FFF000240EA04443046FFF779FF20435D
:105A10001A4CFFF77FFFE36843F08003E360E3681D
:105A20005B06FCD565602060E36823F08003E360DB
:105A3000124BDA689206FCD5FF2204A85A6200F8DD
:105A40000C6D8DF807A08DF80810ADF809908DF851
:105A500006808DF8057002F032FB094BC3E90001A6
:105A6000012005B0BDE8F08F0020FAE7C80C002047
:105A70002FC40108FCC30108AEC301080028004080
:105A8000D00C002037B50578C4788378B0F80520AD
:105A900001790195407800902046FFF775FF03B02B
:105AA00030BD000038B52B4B04461B781BB9E421F0
:105AB0002948FCF771FB294AD36823F02003D360FF
:105AC000D3689B06FCD513685268C2F307410809E6
:105AD00000EB800001F00F0101EB4001C9B201F5BC
