:020000040800F2
:10000000008000208D700008F97C00081D26000883
:10001000FB7C0008FD7C0008FF7C0008000000005D
:10002000000000000000000000000000C1CA00083D
:10003000017D00080000000051CB000895CB0008AE
:10004000037D0008057D0008077D0008097D000884
:100050000B7D00080D7D00088D7C0008937C000856
:10006000997C00089F7C0008A57C00080F7D000893
:10007000117D0008137D0008157D0008177D00081C
:10008000197D00081B7D00081D7D00081F7D0008EC
:10009000217D0008237D0008257D0008AB7C000839
:1000A000277D0008297D00082B7D00082D7D000894
:1000B0002F7D0008317D0008337D0008357D000864
:1000C000377D0008397D00083B7D00083D7D000834
:1000D0003F7D0008D5840008B5860008417D0008F2
:1000E000CF7C0008797D0008437D0008457D00082D
:1000F000477D000800000000000000000000000034
:1001000000000000000000005FF808F110B5054C89
:10011000237833B9044B13B10448AFF300800123B3
:10012000237010BDD805002000000000A0F10108D8
:1001300008B5034B1BB103490348AFF3008008BD6A
:1001400000000000DC050020A0F1010810B5044605
:10015000C06910B1012106F097FF206910B101219B
:1001600006F092FF204610BD30B585B003F054FF75
:10017000002304468DF80F3003F0FEFA204606F007
:100180002DF82149204606F087FD10B901238DF88E
:100190000F30002302221D49CDE9003220461C4BBE
:1001A0000DF10F0203F0BAFD0A233221194DCDE9FA
:1001B00000310DF10F02184B1849204603F0AEFD37
:1001C0002B1F0DF10F0216492046009503F0E6FDA6
:1001D000A5F1200300930DF10F02A5F124031149AD
:1001E000204603F0DBFD1049204603F05BFD9DF83F
:1001F0000F30287733B10D480AF000FB69210C4815
:1002000002F07AF905B030BD0400002010A9010801
:100210005200002038000020530000201EA90108D1
:100220002DA9010838A9010843A9010850A901080E
:100230007EBA0108F8B50025C0E901120570C0E9D1
:100240000335C0E90555C0E90755456206990446DE
:10025000164600F11C0702F0F5FD38B93146074893
:100260000AF0CCFA2021064802F046F9069A3946EF
:10027000204602F0AFFD2046F8BD00BF63A901088B
:100280007EBA0108F8B50025C0E901120570C0E981
:100290000335C0E90555C0E907554562069904468E
:1002A000164600F11C0702F0E9FC38B93146074850
:1002B0000AF0A4FA2021064802F01EF9069A3946EF
:1002C000204602F0C5FC2046F8BD00BF63A9010826
:1002D0007EBA010870B58CB003F09EFE0446384D1E
:1002E00000F0CCFE214601F029FC204606F026FD58
:1002F000344B354A0095032102A8FFF79BFF02A962
:10030000204603F02FFF02A8FFF720FF00950025ED
:100310002E4B2F4A032102A8FFF78CFF02A920468B
:1003200003F020FF02A8FFF711FF2A4B2A4A0221FF
:10033000009502A8FFF7A6FF02A9204603F012FFCE
:1003400002A8FFF703FF3223244A00930221244B23
:1003500002A8FFF797FF02A9204603F003FF02A8B7
:10036000FFF7F4FE01211F4E1F4B02A88DF8085025
:1003700003910496CDE90535CDE90755CDE9095539
:100380000B9502F07BFB38B9314618480AF036FA73
:100390002021174802F0B0F8012209A902A802F0B2
:1003A0005BFB02A9204603F0DDFE02A8FFF7CEFEAC
:1003B00000F064FE0122214601F0C8FC0CB070BDC3
:1003C00026A80108F0A7010838A9010833A80108E8
:1003D0002DA9010877A8010810A901081EA9010884
:1003E000CAA8010843A90108F2A8010863A90108E5
:1003F0007EBA0108012A03D0022A03D000207047E8
:100400000160FBE70B680360F8E7006812F0F2B9DF
:1004100008B5402010F0DEFA202010F0E1FA10F0CC
:1004200047FC014B187808BD580C002008B510F0A7
:1004300095FF012871F1000306DB04480AF0DEF99C
:10044000BDE808400FF062B808BD00BFD3AB01089B
:10045000F8B5194E194F1A4D4EF6602010F03EFCBB
:10046000044640B917480AF0C9F92E21164802F08F
:1004700043F82046F8BD0178022904D113480AF058
:10048000BDF93521F2E7427E30460AF0B7F923780C
:10049000032B04D138460AF0B1F90FF037F8637E28
:1004A000002BE6D028460AF0A9F9204612F0A2F95E
:1004B00010F074FCD0E700BFD9AA0108D3AB010843
:1004C00004AB010889AA01087EBA0108A2AA0108A2
:1004D000F8B5254D254E264F10F040FF012871F14B
:1004E000000304DB28460AF089F90FF00FF810F03A
:1004F0000DFC18B17E21304601F0FEFF01230022E1
:100500000421384610F00CFDFFF7A2FFD0F8A03010
:100510000446CBB11A7F597F16480AF06FF9D4F818
:10052000A0305A7FE02A0FD11A7F042A0CD19B6E8B
:100530001A78012A08D15A78012A05D19A78012A15
:1005400002D1DB78012B06D00B480AF057F9204680
:1005500012F050F9C0E709480AF050F9204612F0AD
:1005600049F9074B1878F8BDD3AB01087EBA0108EA
:1005700077AB01087CAB0108C6AB0108A8AB01084A
:10058000F405002007B58DF8041001A98DF80520A9
:100590008DF8063004F0EEFB03B05DF804FB10B5F7
:1005A0008368044613B1032201469847204610BDD4
:1005B00070B50646D0F8A000C0B060B1437FE02B14
:1005C0003AD1057F836E012D1C7806D12CB93048B5
:1005D0000AF014F9022040B070BD022C53D0032C55
:1005E00053D0042C2AD12B480AF008F9FF2200210D
:1005F000684617F02EFC01238DF800409D4208DD6F
:10060000D6F8A020926ED25C01320DF8032001339F
:10061000F4E7FFF70BFF10F079FB18B1C6211E4875
:1006200001F06AFFE02300222946684610F078FCBA
:10063000E0B91A480AF0E2F80020CCE7052C17D1FF
:1006400017480AF0DBF80023ADF8003001238DF8DD
:10065000023010F05BFB18B1D5210F4801F04CFFC0
:100660000021009BE022084610F0B0FB0320B2E717
:10067000012DE1D1062CDFD10A480AF0BFF808F0BD
:1006800009F92846A7E70420A5E70520A3E700BF4E
:100690008EA90108ABA901087EBA0108BBA901080F
:1006A000CDA90108E5A901082DE9F047DFF8F080A0
:1006B0000024C146354FC0B001F04EFE21466846C9
:1006C0000AF0B1F9FFF7B2FE10F020FB20B14FF4B1
:1006D0008171384601F010FFE02398F800200221D4
:1006E000684610F01DFC38B929480AF087F84FF425
:1006F0007A700DF07DFCDFE7FFF7AAFED0F8A0309E
:1007000005462BB10134A4B2214622480AF076F8FE
:10071000DFF880A02846FFF74BFF0646284612F078
:1007200069F8052E22D801A353F826F0B90600086F
:100730006D070008810700084507000861070008E9
:1007400069070008FFF784FED0F8A0300546002BAB
:10075000E0D00134A4B2214650460AF04FF8D9E760
:10076000012389F80030A7E70023FAE731460A4859
:100770000AF044F84FF49471384601F0BDFE9BE74F
:10078000064B187840B0BDE8F08700BF7EBA01087C
:100790001DAB01083FAB01085CAB0108580C002001
:1007A000F50500206E232DE9F04F85B00193324B03
:1007B00088460293002301A904469346039304F05C
:1007C00013F961262D4BDFF8DC9002932C4B89F84E
:1007D000000001A920460196039304F00DFA294B6D
:1007E00082460293284B01A920460196039304F008
:1007F00003FA264B05460293254B01A92046019694
:10080000039304F0F9F9234B07460293224B01A905
:1008100020460196039304F0EFF906464146DFF8BF
:10082000888053465A462046FFF7ACFE2B4698F880
:10083000002051462046FFF7A5FE184A2B462946C0
:1008400020461278FFF79EFE154A3B462946204671
:100850001278FFF797FE334699F800203946204674
:10086000FFF790FE3B4698F8002031462046FFF700
:1008700089FE05B0BDE8F08FF6A9010809AA0108B4
:100880001104000813AA0108C10800081DAA0108E4
:10089000D104000832AA0108A90600085A0C002059
:1008A0005C0C0020F4050020580C0020826810B574
:1008B0000AB915F08CFDC368BDE810401847000068
:1008C000F0B5234D234E244F89B010F04DF818B9E0
:1008D000224B187809B0F0BD10F024FAFFF7B8FDEC
:1008E00000230446022204A9049068460293CDE93D
:1008F0000665FFF77FFD079B04A80393069B029301
:10090000FFF74DFE237804226178384609F076FF20
:100910006378042B03D05F21114801F0EDFD2378AB
:10092000032B01D10EF0F2FD237E4BB90D4809F0E7
:1009300065FF6846FFF7BAFF6846FFF730FEC4E779
:100940006846FFF7B3FF6846FFF729FEC0E700BF20
:100950000B040008F503000840AA01085C0C002005
:100960007EBA010875AA0108FF22014B1A70704770
:10097000F405002010B50020002105F073FB0446AB
:1009800028B9124809F03AFF114B187810BD417987
:10099000104809F033FF6179802905D0842911D0EE
:1009A0000D4809F02BFF05E00C4B227921681868EF
:1009B00002F070FE204605F0BDFE0821204606F03C
:1009C00063FBE1E70122064B1A76F3E70EAE01085E
:1009D000580C002016AE01081FAE010820060020AA
:1009E0005800002010B501F089F90446084809F0C4
:1009F00005FF204600F0E2FE064916F01BFC16F04B
:100A000005FE4FF40043044C6085238510BD00BFF4
:100A1000B7AF010800007A4458000020054B30B4FD
:100A20001C6823689D681346AC460A46014620466A
:100A300030BC604718060020054B30B41C682368A2
:100A40005D681346AC460A460146204630BC604706
:100A500018060020034B01461B681A6818461269E5
:100A6000104700BF1806002008B5044809F0C6FE6C
:100A7000BDE80840112007F008BF00BF2FB00108F3
:100A800008B5044809F0BAFEBDE80840132007F095
:100A9000FCBE00BFD6AF010808B5044809F0AEFEA1
:100AA000BDE80840122007F0F0BE00BF06B0010804
:100AB00008B5044809F0A2FEBDE80840102007F080
:100AC000E4BE00BF19B00108064B1B685B6833B970
:100AD000054B187A08B15B7A13B100F075BD01209F
:100AE000704700BF200600205800002070B5144C4D
:100AF000237E0BB3637EFBB90125124809F07EFE0D
:100B000004F0BDFF06F03EF8022106F049F806F0B9
:100B100039F8012106F044F8D4E900236576C4E9E8
:100B2000082314F06EFD064630B9074809F066FE4A
:100B300084F82C5025726672044B187870BD00BF83
:100B400058000020A4AD0108C5AD0108580C0020D4
:100B5000F7B5194F04463B680E465B688BB1174DDD
:100B6000174809F04BFE0DF1070332462946386855
:100B700002F01EFB9DF8073025606371207103B001
:100B8000F0BD104D2B7A7BB16B7A6BB90E4809F032
:100B900035FED5E90023C5E904230123314620466B
:100BA0006B7200F0DBFCEAE7084809F027FE3146EB
:100BB000204600F02BFDE2E7200600205807002029
:100BC000E4AC0108580000200AAD010827AD010877
:100BD0002DE9F8434FF0004700268046894605F08E
:100BE00033F9144BD3E90045BD4208BFB44205D0E8
:100BF00014EB080045EB0901C3E90001D3E9044502
:100C0000BD4208BFB44205D014EB080045EB090112
:100C1000C3E90401D3E90801B1F1004F08BF00287E
:100C200005D018EB000449EB0105C3E90845BDE810
:100C3000F88300BF58000020D0B501F05FF8C36B07
:100C40003C301B689847254CC4E9000109F056FD6B
:100C50000146234809F0D2FDFFF7C4FED4E904237E
:100C6000B3F1004F08BF002A2DD0D4E900671D481A
:100C700009F06AFC864277EB0103ACBF0123002335
:100C8000237200236372D4E90823B3F1004F08BF35
:100C9000002A1AD0D4E90067134809F055FC8642AF
:100CA00077EB0103ACBF012300230022627684F8B6
:100CB0002C20227A237662B14BB10C4809F09EFDBC
:100CC0000B4B1878D0BD0123DAE70123EDE7094883
:100CD000F4E70BB10848F1E70848EFE758000020B7
:100CE00042AD0108180000203800002058AD01086E
:100CF000580C002072AD010883AD010892AD0108C7
:100D0000F8B53F4D14F0FCF9D5E90823B3F1004FD5
:100D100008BF002A2C4611D1D5E90023C5E90823D4
:100D2000384B93F8503033B1374809F067FD012351
:100D30002B76364B4DE0364809F060FD00F0DEFFC3
:100D4000C36B3C301B689847D4E90023461C41F133
:100D50000007B3F1004F08BF002A3CD12D4809F02D
:100D60004DFD01232372D4E90023B3F1004F08BFE6
:100D7000002A38D1284809F041FD01232376237A3F
:100D800013B1637A002B36D0237E0BB1637E93B30D
:100D900000F0B4FFC36B3C301B68984702460B461B
:100DA00004461E480D4609F0CFFB09F0A7FC01469A
:100DB0001B4809F023FD2B4622461A4809F0C4FBC4
:100DC00009F09CFC0146184809F018FD01F0C4FA2E
:100DD000164B1878F8BD114809F0B6FB864277EB40
:100DE0000103C0DBBAE70F4809F0AEFB864277EBA0
:100DF0000103C4DBBEE70E4809F000FD99E700BF20
:100E000058000020040000209CAE01085B0C00206C
:100E1000C2AE0108EDAE010821AF010818000020A4
:100E200053AF01083800002074AF0108580C0020AF
:100E300095AF01081FB56123CDE9013101A90392E6
:100E400003F0DAFE05B05DF804FB00002DE9F04F79
:100E500087B0FFF73FFAFA200DF0CAF8FFF784F9E0
:100E600000F04CFF6A4B6B4D03646B4809F0C6FC05
:100E70002B686A4C13F0010F06D100F03FFF00F021
:100E800099FF012320602B60654D26682A6B654918
:100E900003A803F04FFD03A9304603F0A5FD266823
:100EA0002A698DF80500604903A803F043FD03A9F2
:100EB000304603F099FD5D4A8DF806005C492068D4
:100EC000FFF7B8FF8246206804F0F8FD594A8DF814
:100ED000070059492068FFF7ADFF584A06465849B0
:100EE0002068FFF7A7FF574B8346574A57492068AA
:100EF00005F022FB564A804656492068FFF79AFFC4
:100F0000554A8DF8040055492068FFF793FF9DF876
:100F1000053081468DF80C309DF8063003AA8DF817
:100F20000D304F490223206804F00AFF07464D4D5B
:100F300020689DF8073080F828A02A785146FFF7EE
:100F400021FB494B51461A782068FFF72BFC474A92
:100F500033469DF8071020681278FFF713FBDFF87F
:100F600018A143462A7831462068FFF70BFB434619
:100F70002A789DF804102068FFF704FB9DF80430E0
:100F80009AF8002041462068FFF7FCFA4B462A7881
:100F900041462068FFF7F6FA354A3346494620684D
:100FA0001278FFF7EFFA3B462A7849462068FFF7A8
:100FB000E9FA9DF804309AF8002039462068FFF7D6
:100FC000E1FA5B469DF8052039462068FFF7DAFA1A
:100FD0005B469DF8062039462068FFF7D3FA334672
:100FE0002A7859462068FFF7CDFA206804F07EF889
:100FF000204809F003FC01224FF41671206804F028
:101000000FF800200CF05AFD07B0BDE8F08F00BFCC
:10101000D10B0008000600203FAE01081C0600208E
:10102000040000202DA9010838A9010811110008A9
:1010300047C20108ED0A00085CAE0108390C00083F
:1010400064AE0108510B0008C90A00086BAE010824
:101050007509000876C10108010D000878AE010885
:101060002AC20108580C0020040600205C0C002055
:101070005B0C002082AE0108220D002000F03EBE75
:1010800013B500F03BFE044603689B68984723684D
:101090002046DB6801219847236820461B694FF4EE
:1010A000FA71984723682046DB680021984700249E
:1010B00001234FF496720B49CDE900340A482346C8
:1010C0000CF0FCFB094809F099FB094809F096FB74
:1010D0000CF0E4FD40F20121064801F00DFA204633
:1010E00002B010BD44B001084D0E00084DB001081B
:1010F00060B001087EBA010810B50446006810B15E
:10110000012105F0C1FF204610BD000000000000D5
:101110002DE9F04FB64C9BB02368DB0708D402F0F2
:1011200095FF80220146B34801F0E8FF01232360C8
:10113000B04AB14BB14E1A6000F0E0FD34460127D1
:10114000AF4BB04D8365B04B1AA80D93AF4B0C93CA
:10115000AF4B0B93AF4B40F8403D05F0C3FA0FCDBA
:101160000FC40FCD0FC495E80F00377284E80F004D
:1011700000F0C4FDC36B3C301B689847002300227D
:1011800033764FF00043A44DC6E908232B68C6E927
:10119000000113F0010FA14C04D100F0AFFD4C3061
:1011A00020602F60206803681B689847044618B9C0
:1011B000EE219B4801F0A0F99A4B11939A4B0F93A3
:1011C0009A4B0E939A4B10939A4B07939A4B099311
:1011D0009A4B089300F092FD02AB07AA00F13C0580
:1011E00007CA83E8070010AB93E803008DE803000B
:1011F0000EAB0CCB2146284605F08EFC904905F03D
:1012000085FD05F0BFFC13F07BFFFFF7EBFB00F063
:1012100075FD16AA044617468A4B00F14C0503F1EA
:10122000100C164618685968083303C663453246E1
:10123000F7D1E36C01211B6928469847E36C3A46D5
:101240009E687B2110232846B04712AE1022002151
:10125000304616F0FEFDE36C3246D3F804807B2165
:1012600010232846C04710223946304616F0BEFDEE
:10127000E36CB0FA80FAD3F80C80212210237B2192
:101280002846C047E36C3246D3F804807B21102304
:101290002846C04700234FEA5A1AF25C0133212A3C
:1012A00018BF4FF0000A102BF7D1E36C00211B6927
:1012B00028469847204600F081FA15F04BFB48A3DA
:1012C000D3E900238046894615F022FE002800F06D
:1012D000D78045A3D3E90023404649464FF0010596
:1012E00015F00CFE00B90546EDB204F14F025F3473
:1012F00012F8013F002B40F0C580A242F8D11C46F5
:10130000BAF1000F00F0C080002D14BFA3464FF0CB
:10131000000BDFF86481DFF864914B4809F06EFA46
:101320003F4BBAF1000F14BF4A464246474948486E
:1013300009F064FA3A4B002D14BF4A46424645492B
:10134000434809F05BFA364B002C14BF4A4642462C
:1013500041493F4809F052FA40494148BBF1000F6A
:1013600008BF414609F04AFA3E4809F047FA02F040
:101370006DFE3D4A0146304602F09DFC00230820E8
:10138000CDE91633189309F0D5FA384A00F108036D
:101390001690189312F8011F00B1017001308342BA
:1013A000F8D1DDE9120216991793121A5B1A9A42C4
:1013B0006CD11AB116F01AFD002867D12C4809F03B
:1013C0001DFA2C4B1C783846FFF796FE3046FFF787
:1013D00093FE20461BB0BDE8F08F00BFAFF3008046
:1013E000CDCCCCCCCCCC004033333333333313406F
:1013F000F8050020080600202006002058000020E4
:1014000049600008F0AB0108690A0008810A000879
:10141000990A0008B10A0008FC05002018060020FF
:101420007EBA0108FDA700081D0A0008390A000855
:10143000550A00083D630108DD620108A163010847
:101440000400002020AC010845AC010855AC01089F
:101450005AAC010871AC010875AC010842AC010836
:101460007CAC010891AC01089FAC01082FAC0108CD
:10147000A6AC0108040600203DAC010838AC010808
:10148000054632E701243BE7D34642E7004B99E7A4
:10149000580C0020FF22014B1A70704704060020F0
:1014A000054B1A68054B93F84F30B2FBF3F003FB82
:1014B000102303B1013070475407002004000020BE
:1014C00030B5CDB005F05EFB04A905F081FA1E4CE5
:1014D000002836D04FF496721C49684605F035FD59
:1014E00001231B4D8DF80C3095F84E307BB1002355
:1014F000059A684605F070FD95F84E30022B06D12E
:101500009DF8241068464942C9B205F049FD0CA96E
:101510000B9A684605F026FD684605F04EFD002250
:101520000C4B206068461A6005F045FD044668468D
:1015300005F043FD21460246074805F0BDFC4DB0CD
:1015400030BD2060FBE700BF5407002024060020C8
:101550000400002050070020880000207FB50126ED
:101560000A4604461649684605F0EFFC0221684623
:10157000144D8DF80C6005F013FD0521684605F04B
:101580000FFD0D21684605F00BFD698D684605F0DD
:101590002FFDB5F92810684605F011FD95F82C10BF
:1015A000684605F0FDFC684605F005FD0546684601
:1015B00005F003FD66712560207104B070BD00BFA9
:1015C000580700205800002038B50E4C23683BB95E
:1015D00014F003F8002801DDFFF772FF236863B100
:1015E00014F00FF8054613F0F8FF2D1A14F009F85F
:1015F00029460246044809F001F92068003018BF66
:10160000012038BD54070020CCB001082DE9F3417A
:10161000364E074696F84E500A4634468DB1022D96
:101620005CD8334D334C2946204605F017FC96F81C
:101630004E30387164337B71D4E902233D609A42A5
:1016400040E0FFF72DFF2C4E3368984241D994F8C3
:101650004F502A4A03FB0525294B1978FFF720FF35
:10166000336894F84F20984294BF00235343C91A1B
:10167000CCB2944228BF14461CB97321214800F013
:101680003BFF31684FF00A080131FFF709FF08FB03
:1016900001085FFA88F3024600931B48234609F0CD
:1016A000ADF82146284609F00FF9184809F0A6F8C8
:1016B000316887F8058001313D603C713160FFF78A
:1016C000EFFE814202D100220D4B1A6002B0BDE84C
:1016D000F08171210B4800F00FFFBDE7A8210948F8
:1016E00002B0BDE8F04100F007BF00BF04000020D9
:1016F0005807002088000020500700202406002002
:10170000540700207EBA010891B001087DBA010893
:10171000704710B504465C2105F0B6FC204610BDAC
:1017200081F001020148032106F0D4B90000024013
:1017300007F0B0B810B50C460CF0C8FE022808D16E
:101740004FF47A704443B4FBF0F0BDE810400CF065
:101750004FBC2046BDE8104005F022BF08B5034845
:1017600009F04CF8BDE8084007F094B844B401080B
:101770007FB5F82300F1440504AC0646284604F87A
:10178000013D00F017FD0223214600930122A02312
:10179000284600F013FD4FF400430822009306F1A1
:1017A0005001A0230446284600F032FD0440E4B274
:1017B000284600F001FD204604B070BD05F0B8BD1C
:1017C0002DE9F047044605F0B3FD2149054615F023
:1017D000CFFE002836D00FF27009D9E900892368BE
:1017E0000121DB6820469847DFF870A0194F284692
:1017F00015F0B0F842464B4615F076FB0646B8B1F8
:101800005146284615F016FD15F0DAFE40F6C412D2
:10181000014640F62823384608F0F0FF23684FF4CD
:101820007A711B692046984705F082FD0546DEE780
:10183000094808F0E3FF236831462046BDE8F04739
:10184000DB681847BDE8F087CDCCCCCCCCCC0440CD
:101850000000204014B101084DB1010800007A4495
:1018600030B5524B8BB019680446514808F0C6FF9A
:1018700006F0E8FF01464F4808F0C0FF00F090FB7B
:101880004D484E4908F0BAFF04F1440000F08CFCCA
:1018900030B94B4808F0B2FF6E214A4800F02CFEE8
:1018A00005F064FE2046FFF763FF18B97321454831
:1018B00000F022FE94F8570094F85230049094F807
:1018C000560094F85120039094F8550094F8501065
:1018D000029094F85400019094F8530000903A4814
:1018E00008F08CFF04F14C0000F01AFC00F06CFBD7
:1018F000364808F083FF4FF4FA7016F047FA0546B1
:1019000000284BD1324808F079FF324808F076FFC2
:10191000314808F073FF314808F070FF304808F094
:101920006DFF304808F06AFF2F4808F067FF2F4826
:1019300008F064FF2E4808F061FF2E4A2E492F4818
:1019400008F05CFF2E492F4808F058FF2E4808F099
:1019500055FF2E4B2E4A1B682E4900932E4B1268C2
:101960001B682E4817F0F2F92C492D4808F046FF65
:101970002C492D4808F042FF07A806F0B7FA07A83F
:1019800008F092FE0146294808F038FF124808F096
:1019900035FF2046FFF714FF0BB030BD244808F098
:1019A0002DFF284616F0FAF9AFE700BF9C00002093
:1019B00060B1010876B101088CB10108A086010070
:1019C000A7B101087EBA0108BDB10108F2B1010852
:1019D00020B201087CBA01085EB201088FB201088A
:1019E0009EB20108C0B20108E3B2010807B30108C2
:1019F0007DBA01082AB3010835B3010849B30108CB
:101A00005AB3010864B301086FB301086400F81FFA
:101A10005000F81F8FB301085400F81F4008002041
:101A2000A1B30108ACB30108B2B30108CCB30108FB
:101A300054B2010870B50446344E354808F0DEFE55
:101A4000204605F0EBF914F049FC0FF0EBF80DF02F
:101A50003FFB0EF057F9012230460C2105F0C2FF82
:101A600006F0DCFB23680021DB682A4D20469847FE
:101A700006F096F8284808F0C1FE06F0FDFC05F0D7
:101A800067FD284601220D2105F0ACFF2846012202
:101A90000E2105F0A7FF01222846032105F0A2FF31
:101AA0000021084606F066FB002328461A4603215B
:101AB00005F05AFF01220321284606F00BF804F135
:101AC000440000F071FB4FF4E13006F0E7FD1348ED
:101AD00008F094FE30460C2105F0F0FF002330465C
:101AE0001A460C2105F040FF0021084606F0BAFB1B
:101AF0000EF01AF90DF012FA06F08EFB2046FFF7F1
:101B00005FFE2046BDE8704005F098B90004024031
:101B1000DEB301080000024002B4010849B5010823
:101B200038B50C46113105460EF02AFF214651F812
:101B3000503F28462B604B686B6038BD30B50D4672
:101B40009DB0044601466846FFF7EAFF694628460D
:101B50000EF054FC04F1110321346B632C631DB0AF
:101B600030BD00002DE9FF4100F14405284600F09A
:101B700021FB04240226284F013C14F0FF0432D03C
:101B8000A123012239460096284600F017FB4FF4A6
:101B90000043804600930422A12302A9284600F0B6
:101BA00037FBB8F1000FE7D00028E5D09DF80830EA
:101BB000442B1FD19DF809306E2B1BD10DF10A006B
:101BC00008F00BFF013084B221460DF109008DF8B9
:101BD000086008F028FF002303220093A02302A935
:101BE000284600F0EBFA284600F0E6FA204604B05A
:101BF000BDE8F0814FF488430024ADF808306E232F
:101C000000210DF10B008DF80A3008F00CFF009454
:101C1000A0230522E3E700BFE9B00108F7B50446B9
:101C200005F0F2F81B4B1C4A23601C4B6264E36313
:101C300000231B4A1B4E236484F84830E264C4E945
:101C40001433A365184808F0D9FD3368174F019382
:101C50003B68174D00932B68164A1B2104F12100A5
:101C600017F040F8296804F1110008F0D3FE396834
:101C700004F1150008F0CEFE316804F1190008F0F7
:101C8000C9FE296804F11D0008F0C4FE204603B017
:101C9000F0BD00BF30B40108E0B4010824B501086C
:101CA000C4B401086400F81F10B401085400F81F00
:101CB0005000F81F8FB3010810B506F069FD0A4CFB
:101CC0000A4B186000F038F92368DB0709D408488C
:101CD000FFF7A4FF0123074A07490548236014F0D2
:101CE00071FB034810BD00BF380800209C00002095
:101CF0005C080020000000201117000838B5064DD0
:101D0000064C2B6813F0010F04D1FFF7D5FF012318
:101D100020602B60206838BD3C080020B8080020F7
:101D200010B5FFF7EBFF836D2BB1FFF7E7FFBDE8C1
:101D30001040836D1847BDE8104006F0ABBD08B5F4
:101D4000FFF7DCFFBDE80840FFF774BE30B508467A
:101D50008DB014460F4B104A104902F0C5F800210F
:101D60000F4A0A9107920F4A069108920E490F4AAC
:101D70000F4D09920494059104AA01AC07CA0B9572
:101D800084E8070007AB00950FCB02F0E3FB0DB032
:101D900030BD00BF31170008EAB001080EB10108DC
:101DA0005D760008E5750008000008085D1700086A
:101DB000211D000838B5054602F004FF074B044614
:101DC0001A784AB1002205F13C011A7002F0C8FDF0
:101DD0000349204602F0C6FD204638BDA000002081
:101DE0003F1D0008032006F0A5BC10B50446FFF710
:101DF00085FF2146BDE81040FFF7B4BE38B5384D29
:101E00000DF0B8F928460222002105F0EBFD284626
:101E10000222012105F0E6FD002328461A4603218F
:101E200005F0A2FD28460222082105F0DBFD284628
:101E300002220B2105F0D6FD284602220C2105F0D6
:101E4000D1FD284602220D2105F0CCFD28460222B4
:101E50000E2105F0C7FD284602220F2105F0C2FD24
:101E60000222204C1146204605F0BCFD20460222ED
:101E7000032105F0B7FD20460022062105F0B2FD42
:101E800020460222082105F0ADFD2046022209214C
:101E900005F0A8FD204602220C2105F0A3FD2046F6
:101EA00002220D2105F09EFD0F2328460222082163
:101EB00005F038FC204601220C2105F093FD204658
:101EC00002220D2105F08EFD204602220E2105F092
:101ED00089FD2046BDE8384002220F2105F082BD71
:101EE000000002400004024008B50D49012005F041
:101EF000BBFE0C490B2005F0B7FE0B490A2005F08C
:101F0000B3FE0A49042005F0AFFE0949072005F099
:101F1000ABFEBDE808400749052005F0A5BE00BF9F
:101F200069C50008DDC800082DC7000825CA0008DB
:101F30005DC90008F1C9000808B5022005F08EFA55
:101F400005F0F0FAFFF75AFF05F002FBFFF7CCFFB0
:101F500006F034F80C4800F099FA4FF4E13006F03E
:101F60009DFB0A4B1A680AB9094A1A60094B1A689C
:101F70000AB9074A1A60084808F040FCBDE8084062
:101F8000064808F03BBC00BFE51D0008600E0020BD
:101F90003D850008640E002066B401087EB4010887
:101FA000002307B5ADF804308DF8063001238DF815
:101FB000053001980DF03AF805F0CAFA03B05DF863
:101FC00004EB0DF085B800002DE9F04FA5B00DF041
:101FD00079FCDFF800A1374EDFF8FC80DFF8FC90D9
:101FE0001CAF50B9CDE91F66CDE91D98CDF870A0A2
:101FF000009697E80F000DF07FFC2F4B00241593FF
:102000002E4B06A914932E4B14A816932D4BCDE9F5
:102010001A9817932C4B6D46CDE918360423CDE959
:10202000063409F017F909F009F908F043FD032314
:1020300021460994142224AC1FA8089315F009FF27
:1020400044F8188D0FCCCDE91C690FC594E8030046
:1020500085E803000DF1200B97E80C009BE80300D6
:1020600014F088F818B9F421184800F045FA002255
:10207000CDE90B220D92164A0AAB139203220A9263
:10208000012202AC8DF82E200FCBCDE91198CDE9BD
:102090000E66CDF840A084E80F0012AB93E8030071
:1020A0008DE803000EAB0FCB0EF0BEFC25B0BDE8F3
:1020B000F08F00BFFDA7000855F000081DEF0008D5
:1020C0002DEE0008C5ED0008D9ED00087EBA010824
:1020D000EB1D0008A97F000809A9000835A9000820
:1020E0000DF036BD084611461A460DF0CFBD084624
:1020F00011461A460DF04CBD084611461A460DF021
:1021000081BD09B10DF010BE0DF0FCBD0C2110B168
:10211000024805F0D3BC014805F0D6BC00040240DB
:1021200000B50C2189B0194805F0C8FC00230C212A
:102130001A46164805F018FC0021084606F092F8E9
:1021400000220592124A02AB0292124A0692124AE9
:102150000392124A04924FF40042079208AA12E92D
:1021600003008DE803000FCB0DF0F6FD40B10DF03C
:10217000EFFC01460A4809B05DF804EB08F03EBBED
:10218000084809B05DF804EB08F038BB00040240D1
:102190000D210008A175000819830008FDA700089B
:1021A00094B40108AAB40108014805F0E7BC00BFD7
:1021B000A086010005F0B2BC05F0CCBC2DE9F041D1
:1021C000069F1E4607F00303032B80460C46154668
:1021D00003D119210D4800F08FF92046BC07324683
:1021E00029460AD505F004FD10B10120BDE8F081B3
:1021F0000123002088F80430F8E7FB0702D505F03A
:1022000005FDF1E705F0E6FCEEE700BF7EBA010848
:102210002DE9F041069C0D46E107804616461F4613
:1022200003D536210D4800F067F9A20703D53921FF
:102230000A4800F061F923043A46314628460AD597
:1022400005F0F2FC10B10120BDE8F081012300206F
:1022500088F80430F8E705F0AFFCF3E77EBA010830
:1022600005F0A2BE1FB501A808F0E0F901A805F02D
:102270007BFF05B05DF804FB05F0E4BE05F0FCBE95
:10228000084605F073BDDFB50023CDE90133ADF895
:102290000C3001238DF807308DF808306FF01D03E6
:1022A0008DF809300723044601A88DF80A3008F09C
:1022B000E2F9236806461B6820460F469847864287
:1022C00077EB0103B4BF0120002004B0D0BD70B58E
:1022D0000646194610461D4614460DF057FB736816
:1022E00023B120462946BDE87040184770BD000064
:1022F0002DE9FF4714461D46824605F055FE8046EF
:102300008946261A22462B4601A865EB010708F0EC
:102310008DF94046494608F0F1F9294680462046A5
:1023200008F0ECF939460446304608F0FDF922463B
:1023300003464146074808F061FA01A805F0C6FDCA
:1023400020B132463B465046FFF7C1FF04B0BDE81E
:10235000F08700BFF4B401082DE9F04741488AB086
:1023600008F04CFA0BF0FAFC2425079007993E4838
:1023700008F044FA0798684308F0DCFA04463B4842
:1023800008F03CFA94B107990DEB050220460CF0D9
:1023900045F80023DFF8F0A0354F07900893089A1E
:1023A000079B9A421DD3204608F0AEFA0AF0DEFCE5
:1023B00004460AF0E9FC214602462E4808F01EFABF
:1023C0002D4B2E4819889A888B1A08F017FA2C4B37
:1023D0001B6803B198472B4808F010FA0AB0BDE813
:1023E000F087089B05FB03431B7B042B98BF1AF85F
:1023F0000320099B88BF3F22642B83BF6420B3FB6B
:10240000F0F30899002382BF05FB01418969B1FB04
:10241000F3F308990898DDF820C0DDF820E0DDF836
:102420002080DDF8209005FB004005FB0949D9F824
:102430001C6005FB0141CDE9033605FB08439B69A0
:10244000029305FB0E439B68019305FB0C431B8C19
:10245000009303694968384608F0D0F9089B0133B6
:1024600008939CE745B5010851B501085CB5010822
:1024700091B50108C3B50108A2190020E2B5010811
:102480003409002085B0010840B50108014B1860EF
:10249000704700BF5009002073B5124C06462378E0
:1024A0000D46114A1BB913780BB172B6FEE7012332
:1024B000002113700D48642215F0CBFC2B460096CA
:1024C0000B4A6421094816F00DFC0A4B1B6803B146
:1024D00098470125054E304608F0D4F972B62570AC
:1024E000F9E700BF2C090020C0080020C208002026
:1024F00019B6010850090020F7B5184C0646237894
:102500000D46174A1BB913780BB172B6FEE70123CB
:10251000002113701348642215F09BFC2B46009693
:10252000114A64210F4816F0DDFB104B1B680BB1FC
:102530000C4898470E4B1B6803B198470125094E7C
:102540000C4F304608F09EF9384608F09BF972B6F9
:10255000094B257000BF013BFCD1F2E72D0900209B
:10256000C1080020C208002041B60108BC080020B4
:102570005009002050B60108FFFF0F00F8B5DFF842
:1025800098C003681A4FCCF800304368194E3B607E
:102590008368194D3360C368184C2B600369184970
:1025A0002360436982690B60164BC0691A60164A42
:1025B0001060DCF8000038683068286820681C4625
:1025C0000968124D1968124E1268642200212846CB
:1025D00015F03FFC236832466421284616F082FB42
:1025E000284608F04FF90B4B00BF013BFCD1ECE74C
:1025F00040090020480900204C090020440900201F
:10260000280900203009002038090020C2080020D5
:1026100006B60108FFFF0F003C090020074B1B68AE
:1026200003B198471EF0040F0CBFEFF30880EFF3DF
:1026300009808169004A10477D2500085009002063
:1026400010B1012104F020BD704708B108F072B943
:10265000704780687047406870474368012B08D115
:10266000D0E90432934204D01878003018BF01201A
:102670007047002070474B6870B5042B04460E4627
:102680004FF0000304D0C0E900338360204670BDE2
:10269000D1E90425AD1AC0E9003383602846FFF76D
:1026A000D4FFC4E900000544A560D6E904530246FE
:1026B00029468B4205D00AB10E78167001310132DD
:1026C000F7E75B1B18446060E0E742680346022AB4
:1026D00006D1D3E904031B1A032B01D908F08BB9E7
:1026E000002070474368032B06D1D0E904329A4298
:1026F00008BF0023184670470023FBE7037870B536
:1027000081680446B3B1284A284808F077F863681E
:10271000022B12D12046FFF7D8FF0146244808F0CB
:102720006DF8E1680B78002B3CD02248BDE8704082
:1027300008F064B8204A2148E7E7032B05D120467A
:10274000FFF7D0FF01461E48E9E7042B0ED1002514
:102750001C4ED4E90431C91A8D4205D2595D304668
:1027600008F04CF80135F4E71748D8E7012B08D1F9
:102770002046FFF772FF1549154B002818BF194670
:10278000E1E700250F4ED4E904239B1A9D4205D2B0
:10279000515D304608F032F80135F4E70D4808F095
:1027A0002DF8BEE70C48C1E731A80108F4B60108CE
:1027B00008B701082AB701087EBA0108FEB6010869
:1027C00062B801081FDA010812B70108EEB6010865
:1027D000E9B6010818B701087DBA0108B1F5A04FA4
:1027E0002DE9F84304460F4602D9174804F00CFCC3
:1027F000066883689B1B994219D9D0F80490084653
:10280000FFF723FF05460346A9EB0608B14505D0AF
:102810000BB132781A7001360133F7E72068FFF701
:102820000FFF05EB080325603D446360A560256844
:102830003DB92846C4E90155FFF702FF2846BDE827
:10284000F8830120FBE700BF6CB601082DE9F041D9
:102850000368561A904682680446D21A96420D467C
:1028600015D93046FFF7F1FE07460346A84505D0C7
:102870002A7803B11A7001350133F7E720683E4426
:10288000FFF7DEFEC4E901662760BDE8F081476816
:10289000481EFF1ABE420ED81A469D19A91A0029D1
:1028A00004DD10F8011F02F8011BF7E7002EA8BF96
:1028B0009B196360E9E73D441F44FA1A002A04DDCE
:1028C00010F8012F03F8012BF7E763682E4618462E
:1028D000B04505D0327800B1027001360130F7E71B
:1028E000A8EB05084344E4E708B509C81B1AC3F57B
:1028F000A040884202D2104604F086FB994238BFBD
:102900001946581805D2B0F5A04F28BF4FF4A04083
:1029100008BD4FF4A040FBE72DE9F8430C46591CD5
:10292000204615461F46FFF759FF064680B14FF077
:102930000003EA1929462046FFF788FFD4E901532E
:102940009D4208D00DB100232B7063680133636092
:102950003046BDE8F8831B4A01212046FFF7C4FF3B
:1029600023680746A5EB0309FFF76FFE10EB090F7D
:102970001CBF002300F80930236880461A46014630
:10298000954205D009B11078087001320131F7E79E
:10299000D31A01334344104619466568954207D05F
:1029A00019B192F800C081F800C001320131F5E799
:1029B0002D1A1D4420684744FFF742FEC4E90085F4
:1029C000A760C5E7A7B601082DE9F04105460E4608
:1029D00061B1D0E90132D21A8A4209D300221E44E1
:1029E00003B11A700133B342FAD16B60BDE8F081D4
:1029F000114AFFF779FF8046FFF727FED5E900145B
:102A000007460A460346944205D00BB11078187069
:102A100001320133F7E70023641A3C44264404B131
:102A200023700134B442FAD12868FFF709FEC5E9E2
:102A300000744744AF60D9E7DBB70108D0E9003242
:102A4000D21A914210B503D9891AFFF7BDFF10BD04
:102A50003CBF5B184360FAE770B50C460121204685
:102A60001646FFF7BBFE054628B101212046FFF7B9
:102A7000E5FF23681E70284670BD0000426808B557
:102A8000012A06D1BDE808400A4600F11001FFF70F
:102A9000E3BF8168024807F0B1FE002008BD00BF17
:102AA0006AB7010810B50C1A134605D00146224634
:102AB000184615F0B5F90346181910BD2DE9F04177
:102AC0000446A2EB01081646A368226808469B1A32
:102AD00098450F4615D94046FFF7B7FD0546034612
:102AE000BE4205D00BB13A781A7001370133F7E7CF
:102AF0002068FFF7A5FD25604544C4E90155BDE800
:102B0000F0816568AD1AA84504D83146FFF7CAFFC1
:102B10006060F4E70D442946FFF7C4FF6368294667
:102B20001A468E4205D00AB1087810700131013280
:102B3000F7E7751B1D446560E1E770B50E46D2E905
:102B400000313046C91A1446FFF748FE054630B139
:102B5000D4E900124FF000033046FFF7AFFF2846DC
:102B600070BD000070B5D0E9043100F110060446D4
:102B7000C91A3046FFF732FE054640B1D4E90712C4
:102B8000914206D1A168064807F038FE0025284684
:102B900070BD4FF000033046FFF790FFF7E700BF2E
:102BA000C1B601082DE9F0418368A2EB0108174680
:102BB000026804469B1A98450E4615D94046FFF711
:102BC00044FD05460346B74205D0327803B11A707A
:102BD00001360133F7E72068FFF732FD25604544F1
:102BE000C4E90155BDE8F0814568AD1AA84505D88E
:102BF00039463046FFF756FF6060F3E70D4429463B
:102C00003046FFF74FFF636829461A468F4205D0CA
:102C1000087802B1107001310132F7E77D1B1D44C5
:102C20006560DFE737B50D4601A8114607F000FFE4
:102C300004212846FFF7D2FD044630B14FF00003CF
:102C400002AA01A92846FFF7ADFF204603B030BD18
:102C5000FFF7E8BF426808B5022A06D1BDE8084080
:102C60000A4600F11001FFF7DDBF8168024807F056
:102C7000C5FD002008BD00BFA2B70108FFF7EABFED
:102C80002DE9F0410E4600211C4617468AB00DF191
:102C900008082022C0E9001181600546404615F071
:102CA000D8F81E2C94BF22461F223946404615F004
:102CB000ACF87368013B032B14D8DFE803F0023053
:102CC000404722462F49384616F0BFF828B1224621
:102CD0002D49384616F0B9F840B901222946304648
:102CE000FFF7BAFE28460AB0BDE8F0812246274920
:102CF000384616F0AAF828B122462549384616F07B
:102D0000A4F808B90022E9E700220AA941F8242D15
:102D1000404616F0BFF9021C18BF0122DEE7002270
:102D20000AA941F8242D404616F0B4F9019B024649
:102D30004345D7D029463046FFF774FFD2E72346F4
:102D40003A4629463046FFF7E7FDCBE714F0010687
:102D5000C8D1640821462846FFF740FD0028C1D0AD
:102D600021462846FFF76AFEB442BBD0022107EB9A
:102D7000460007F079FE0028B4DB2B689855013631
:102D8000F2E700BFE9B601087CB60108EEB601081B
:102D900081B6010830B51346426885B0032A04465F
:102DA00000F110050A460FD0014601A8FFF768FFA1
:102DB000204601AA2946FFF7C0FE04460198FFF706
:102DC0003FFC204605B030BD2946FFF7A5FD04466F
:102DD000F7E70000F0B5044685B0104616460F46EA
:102DE00016F02BF862680346032A16D032462146B5
:102DF00001A8FFF745FFDDE9011291420BD04FF02A
:102E000000033846FFF75AFE01250198FFF718FC2A
:102E1000284605B0F0BD0025F7E7441C214638469A
:102E2000FFF7DCFC054618B9054807F0E7FCEFE7BB
:102E30004FF00003321931463846FFF707FDE7E748
:102E400087B601080A4600F11001FFF7C3BFF8B5C5
:102E50000D461946284616461F46FFF7BFFC044696
:102E600030B14FF00003F21931462846FFF79AFEC1
:102E70002046F8BD1346426810B5042A06D1BDE8C5
:102E800010400A4600F11001FFF7E1BF81680248D7
:102E900007F0B4FC002010BD31B701082DE9F04166
:102EA0000C4690461D46064640B139B108491846C1
:102EB00004F0E6F8074618B930602060BDE8F081FC
:102EC0002A46414614F0A1FF37602560F6E700BFAF
:102ED0004EEC010870B5054610460E46144615F036
:102EE000ACFF2246034631462846BDE87040FFF756
:102EF000D5BF000010B50C4631B1044900F00CFDFF
:102F0000231A5842584110BD0846FCE756B901083B
:102F100010B500B121B9064807F070FC002010BDC3
:102F20001AB9044AFFF7D6FFF8E70120F7E700BF18
:102F3000F5B7010802B801082DE9F74305460E462A
:102F400017469846FFF7E4FFC0B10F49222004F06E
:102F500097F80446A8B13846FFF77BFB8146384610
:102F6000FFF7C0FB15F069FF4346CDE90090074A23
:102F70002221204615F0B6FE30602C6003B0BDE87B
:102F8000F0833060F9E700BF4EEC010819B8010882
:102F90002DE9F8430E46984616F8013B02F1FF3939
:102FA00003704660C0F80890044615463D214A4625
:102FB000304614F00DFF074668BB4B46182B28BF60
:102FC0001823C4F83001A36204F10C05A26A31464B
:102FD000284614F01AFF0022A66AA3191A7337B103
:102FE000D4F83021791C04F12C0014F00EFF0022DB
:102FF000D4F83031234483F82C202EB129464046A2
:1030000000F08AFCC4F83401D4E901120A48BDE892
:10301000F84307F069BC831B023DED1A182B1A46D2
:10302000A8BF1822B5F5807F28BF4FF48075A26233
:10303000C4F83051C8E700BF21B8010830B50446D4
:103040000D46084B9DB00093074A084B642103A826
:1030500015F048FE03AA29462046FFF73BFF1DB0A6
:1030600030BD00BF2AB3010811B8010835B301080B
:103070002DE9F0431646642203F10C048FB0074695
:10308000884620461849ADF8042015F0C4FE70B9F2
:10309000336B23B1154A322101A815F023FE01AA92
:1030A00041463846FFF716FF0FB0BDE8F0832046D3
:1030B0000F4915F0B0FE0446A0B9736B002BEED09B
:1030C0000125DFF83490736B01A81B5DC5F1320157
:1030D00028444A46013415F005FE102C05F102057E
:1030E000F1D1DCE7034ADBE72DB8010832B801086B
:1030F00036B801083EB801081FDA01080160002156
:103100000273C0E901117047F8B5054617460E462F
:1031100039B332B32049182003F0A6FF044608B3A0
:10312000C0E9006700261D4B00F108074361C0E9B4
:10313000026606618021384603F0C3FED4E900121E
:10314000384603F0FDFE1449082003F08DFF90B1CE
:103150006B68C0E9004603B96860AB6803B15860AA
:10316000A860F8BD0E4807F049FB01213046BDE8D4
:10317000F84003F089BF0B4807F040FB0A4A40F2D1
:1031800055110A4807F03AFB0121206803F07CFF43
:1031900018212046EBE700BF4EEC010880818283B6
:1031A0007EDA010899B80108B5B80108ECB8010841
:1031B00070B54468054604B3266806F1080003F0BC
:1031C00089FED6E903239A42C4B216D16B681BB9B3
:1031D0006A210B48FFF790F96868082143686B6023
:1031E00003F052FF6B6803B9AB600121306803F054
:1031F0004BFF1821304603F047FF204670BD00BF4B
:103200007EBA01087FB50546FFF723FA15F015FED3
:103210000446861C2846FFF71EFA013803281DD8ED
:10322000DFE800F00206080F0734601C04B070BD30
:103230000D34FAE72846FFF755FA15F0FEFD34186D
:10324000F3E701A82946FFF716FADDE9014301A8D3
:103250001B1B06EB4304FDF74FFFE6E70B34E4E7E7
:103260002DE9F04786B08146884614461D46FFF793
:103270004FFE68B12046FFF7C5FF4049074603F0FF
:10328000FFFE0646C9F8000028B93D4807F0B6FA27
:1032900006B0BDE8F0872046FFF7DDF901380328C6
:1032A00064D8DFE800F00214253D2046FFF7D1F98D
:1032B00081462046FFF7D1F9324B334A002814BF2C
:1032C00018461046CDE900902B46304A0AE02046C9
:1032D000FFF7BFF981462046FFF7F7F92B46CDE906
:1032E00000902B4A3946304615F0FCFC05463AE082
:1032F000612D20460DD1FFF7ACF905462046FFF7BA
:10330000F1F92B46234A00903946304615F0EAFC85
:10331000ECE7FFF79EF981462046FFF7E3F9D1E796
:103320002046FFF796F92B4600901B4A3946304657
:1033300015F0D8FCDFF868902146054603A8FFF792
:103340009AF9DDE9034AA2450AD0AF4214F8013BDD
:1033500006D9791B70194A4615F0C4FC0235F2E70C
:1033600003A8FDF7C9FEC8F8005091E72046FFF713
:1033700070F92B460090094AC6E700BF4EEC0108E1
:103380007EDA0108E9B60108EEB601084DB8010879
:1033900055B801085EB8010865B801086BB80108A6
:1033A0001FDA01082DE9F0430E4607469046D1B0DA
:1033B0004FF49C72002102A81D46589C14F049FD50
:1033C00031463B46424602A8FFF7E2FD3678622EC0
:1033D00000F0F98029D83F2E54D008D82E2E5BD08B
:1033E0009DF808107D4807F009FA7D4A58E0532EF1
:1033F00000F0A180612EF3D10DF1340979484A46DD
:1034000005A907F0FBF94F98002800F0D580FFF7D9
:1034100022F9032800F0AF802846734A2146FFF7BF
:1034200059FD724807F0EAF933E0722E48D00ED801
:10343000642E3AD0672ED3D105A96D4807F0DEF986
:1034400033464F9A21462846FFF70AFF21E0732EA4
:1034500051D0772EC4D1674807F0D0F903990029DD
:1034600000F0BA80644815F0D6FC0646002840F00B
:10347000B380624807F0C2F93146384600F038FFA1
:103480005F4AA4E05F4807F0B9F921462846FFF7F4
:10349000D5FD51B0BDE8F0835B4807F0AFF95B4A5A
:1034A00021462846FFF716FDF3E70399584807F031
:1034B000A5F902AB3A4621462846FFF7D9FDE8E7D1
:1034C00005A9544807F09AF90399534815F0A3FC4D
:1034D00020B9384600F03AF9504AE1E74F993846AA
:1034E000FFF708FD08B14E4ADAE74F9808B1FFF739
:1034F00039FB7223A5E705A94A480DAA07F07EF912
:103500004F993846FFF7F6FC0028ECD14F9810B1E0
:103510000DA9FFF797FC73234F9A21462846FFF722
:103520009FFE2168404807F069F92868216807F084
:10353000CBF93E4876E705A93D480DAA07F05EF9AC
:103540004F993846FFF7D6FC0028CCD14F9810B1E0
:103550000DA9FFF777FC2146284673234F9AFFF702
:103560007FFE0121384600F0C3FE324807F046F9DD
:1035700001F026F98DE74F98FFF7B4F815F05DFCE0
:1035800008F1010606442C49304603F079FD074650
:1035900090B14F98FFF7A6F8284A03463146CDF878
:1035A0000090384615F09EFB39464F98FFF74AFCCD
:1035B0000121384603F068FD61234F9A21462846D1
:1035C000FFF7BAFCADE71E4807F018F91D4A21467F
:1035D0002846FFF77FFCC8E701214EE75DBA0108E6
:1035E0007FBA0108AFB90108C8B90108D4B9010808
:1035F00020B9010810BA010838BA01083EBA01081A
:103600005BBA0108FAB8010804B901080EB901084B
:1036100011B9010831B9010831A8010844B90108FC
:1036200047B9010861B901087AB901087DBA0108F2
:103630008BB9010890BA01084EEC0108E6B90108FF
:10364000EBB901080EBA01082DE9F0410C4680469D
:103650000D4815461E46069F07F0D0F804B14DB937
:103660000A4807F0CBF839463046BDE8F041084A31
:10367000FFF730BC069733462A4621464046BDE850
:10368000F041FFF78FBE00BFBCBA0108D1BA0108F4
:10369000E4BA01087FB504460D4600680C49164699
:1036A00000F000FB78B100F0D1FC03AB0093324690
:1036B000294602ABFFF7C8FFDDE902122046FFF7FB
:1036C00023FD04B070BD034807F098F8F9E700BF88
:1036D00056B901087AB8010810B10C2103F0D4BC26
:1036E000704710B1012103F0CFBC704730B51346CD
:1036F0000D460446AC4207D01BB194E8070083E8AE
:1037000007000C330C34F5E7184630BD10B50446FD
:1037100038B1FCF71BFD2046BDE81040282103F01E
:10372000B3BC10BD70B50446406AFFF7D5FFD4E9BD
:103730000656AE4204D02846FCF708FD2835F8E7C7
:10374000A06908B1FFF7E2FF204670BDF8B5054655
:1037500000242826074FD5E906031B1ADB107B43FC
:103760009C4205D206FB0400FFF7FCF90134F2E7A6
:10377000F8BD00BFCDCCCCCCF8B50446224807F04C
:103780003DF8224807F03AF8D4E90631994218D0BA
:10379000C91A1F4EC91071431E4807F02FF80025A3
:1037A0002827D4E906031B1ADB1073439D4205D278
:1037B00007FB0500FEF7A2FF0135F2E7164807F008
:1037C0001DF8D4E90931154EC91A891071431448FE
:1037D00007F014F800250C27D4E909031B1A9B10E5
:1037E00073439D4205D207FB050000F0FBFF013546
:1037F000F2E70C4807F002F80B4806F0FFFFBDE8BF
:10380000F8400A4806F0FABFB9BB01086AB20108DD
:10381000CDCCCCCCC3BB0108D5BB0108ABAAAAAAAE
:103820000EBC01087DBA01081EBC01086BB001087E
:103830002DE9F043002487B006466846CDE90044F0
:1038400002940CF0D5FB68460CF06AFC4FF0280897
:103850002F4F304DD6E906239B1ADB107B439C4249
:103860004ED208FB04F302EB0309D35C002B43D1D7
:103870004846FEF7EEFE014668460CF043FC48461B
:10388000FEF7E9FE042837D8DFE800F03803101A05
:1038900024004846FEF7E1FE014668460CF0E8FBCE
:1038A00050BBC2212846FEF727FE25E04846FEF71A
:1038B0000CFF014668460CF0C1FBE8B9C621F1E7F0
:1038C0004846FEF70FFF014668460CF01BFC98B90E
:1038D000CA21E7E7494603A8FEF7CDFEDDE903125A
:1038E0006846521A0CF0E6FB18B9CF212846FEF7BD
:1038F00003FE0398FFF7F5FE0134ABE7D321D1E7D0
:1039000068460CF035FC029807B0BDE8F08300BFB4
:10391000CDCCCCCC7EBA01082DE9F04305460E464D
:1039200000244FF028081A4F8DB0D5E906239B1AC2
:10393000DB107B439C4224D208FB04293146182229
:10394000684615F094FA4846FEF783FE18220146B1
:103950000DEB020015F08BFA684607F0BDF86846DB
:1039600007F0CCF806A807F0B7F806A807F0C6F8E5
:10397000182268460DEB020115F067FA18B1013400
:10398000D3E74FF0000948460DB0BDE8F08300BF13
:10399000CDCCCCCC2DE9F04F06460F4600244FF09D
:1039A0000C09DFF86C808DB0D6E909535B1B9B10C6
:1039B00008FB03F39C4224D218223946684615F0CE
:1039C00056FA182209FB04FB0DEB020055F80B1008
:1039D00015F04DFA684607F07FF8684607F08EF854
:1039E00006A807F079F806A807F088F818226846B4
:1039F0000DEB020105EB0B0A15F027FA18B10134A3
:103A0000D2E74FF0000A50460DB0BDE8F08F00BF7E
:103A1000ABAAAAAA10B51446FFF77EFF20B1214633
:103A2000BDE81040FFF70EBA10BD0000F8B50C4617
:103A3000064640F201120021224814F00AFA4FF41F
:103A4000807221461F4814F0E0F91E491E4806F016
:103A5000D5FE1E491B4815F039FA1C4905460020C1
:103A600015F034FA294607463046FFF755FFA0B94E
:103A700029463046FFF78EFF044600B3016814481C
:103A800006F0BCFEA3683846984701242046F8BDDE
:103A90003946104806F0B2FEF8E73A462946304665
:103AA000FFF7B8FF04460028F2D00B4806F0A6FE48
:103AB0000A4806F0A3FE3046FFF75EFEE6E7294619
:103AC0000748E7E7D80A002037BC010869B80108B1
:103AD0003DBC010866BC010852BC01087DBA010862
:103AE0007FBC010810B54FF48072044606490430CB
:103AF0000CF0C2FB002805DD2046BDE8104002495D
:103B0000FFF794BF10BD00BFD809002038B5144698
:103B10001D46FFF701FF28B12A462146BDE838407F
:103B2000FFF738B938BD10B51446FFF7F5FE20B1E0
:103B30002146BDE81040FFF78DB810BD10B5144602
:103B4000FFF7EAFE10B12146FEF798FF002010BDF6
:103B500038B514461D46FFF7DFFE28B12A46214638
:103B6000BDE83840FFF786B938BD00002DE9F047C1
:103B700000248CB0074603A8CDE9034405940CF05B
:103B800037FA214603A800940CF04EFB01460028AA
:103B900034D0214603A80CF0D0FA40F2E7330446B3
:103BA000009300263546DFF8F890009BB34273D9A6
:103BB000214603A80CF0F3FA824600286CD11823A2
:103BC00021460DEB030203A80CF07AFA04442146C7
:103BD00003A80CF0F2FA8046B0B10CAA214642F8D4
:103BE00028AD03A80CF00AFA029A044406A9384644
:103BF000FFF799FF00B101350136D6E76A4603A801
:103C00000CF0A2FA0446CCE7214603A80CF01FFBF7
:103C100070B10CAA02F8288D214603A80CF018FAFE
:103C20009DF80820044406A93846FFF787FFE1E71E
:103C3000214603A80CF0DCFA804668B102AB01AA69
:103C4000214603A80CF04DFADDE90123044406A93E
:103C50003846FFF75BFFCDE7214603A80CF0BAFA20
:103C600090B10CAB43F8288D01AA214603A8CDF8EA
:103C700004800CF00EFA9DF808300444019A06A95D
:103C80003846FFF765FFB5E7039B4846195D01F02D
:103C9000E00106F0B3FDAFE728460CB0BDE8F087C1
:103CA00048BB010808B5FFF737FE18B1BDE808406A
:103CB000FEF7D3BC08BD10B5044608461146FFF711
:103CC0002BFE014620B9C4E90000A060204610BDCB
:103CD0002046FEF7D0FCF9E708B5FFF71DFE18B146
:103CE000BDE80840FEF7F1BC08BD08B5FFF714FEBB
:103CF00018B1BDE80840FEF7F5BC08BD037810B563
:103D0000044643B1044806F079FD0021204600F046
:103D1000EFFA0023237010BD33BB01082DE9F041F9
:103D20000E469DF81840174698469DF81C50FFF720
:103D3000D3FF844205DCA84203DC88F80000BDE81C
:103D4000F081012322463B70314606902B46BDE8A8
:103D5000F041014806F052BD0BBB01082DE9F041CE
:103D60000E46BDF8184017469846BDF81C50FFF7A0
:103D7000B3FF844205DCA84203DCA8F80000BDE8DC
:103D8000F081012322463B70314606902B46BDE868
:103D9000F041014806F032BD0BBB010873B51C466B
:103DA0000E461546FFF7A1FF002302AA42F8043D84
:103DB0002060069906F008FB019B33B1226831466A
:103DC000034806F01BFD01232B7002B070BD00BF3D
:103DD000A2BC0108002370B5D1E90025AD1A044644
:103DE000C0E9003383600E46284601D006F0A2FDEC
:103DF000C4E900000544A560D6E9005302462946FF
:103E00008B4205D00AB10E78167001310132F7E706
:103E10005B1B18446060204670BD38B504460D46F3
:103E20000B78103000F8103C4B68103140F80C3C17
:103E300051F8083C40F8083C51F8043C40F8043C78
:103E4000FFF7C8FF05F11C0104F11C00FFF7C2FFDA
:103E5000204638BD2DE9F843D0E90054641B914653
:103E6000A2101F4C06465443B4F5A04F0F4602D192
:103E70001C4803F0C9F8002C14BF22460122A418E4
:103E8000A1EB050526D2B4F5A04F23D82CB30C2006
:103E9000604306F04FFD804618EB05031CBF99E810
:103EA000070083E80700424639463068FFF71EFCEA
:103EB000716800F10C023846FFF718FC05463068BF
:103EC000FFF70AFC0C2303FB0484C6E90085B460F9
:103ED000BDE8F8834FF4A044D9E7A046DCE700BF73
:103EE000ABAAAAAAA7B601082DE9F043054685B0FA
:103EF00008460C4617461E4614F09FFF172803D9A4
:103F000082212D48FEF7F8FACDE90147D5E9097875
:103F100003962A4AA8EB0706B41054430134B4F5BB
:103F2000A04F02D9264803F06FF8EB6ADB1B9B1009
:103F300053439C4215D94FF00C0909FB04F91CB1FD
:103F4000484606F0F7FC0446224641463846FFF74D
:103F5000CDFB686AFFF7C0FB26446C624C44AE623E
:103F6000EC62EA6AD5E9090314491B1A9B10121A7C
:103F70004B4392104A430133934206D9114806F04D
:103F80003DFC8C210C48FEF7B7FAD5E90A32934282
:103F90000AD023B104AA12E9070083E807000C3312
:103FA000AB6205B0BDE8F08301AA194605F1240013
:103FB000FFF750FFF5E700BF7EBA0108ABAAAAAA37
:103FC0006CB60108F0BA010838B50025034604466E
:103FD00003F8045B29461846142213F03AFF0A4AF4
:103FE000C4E906556261C4E90855C4E90A55C4E943
:103FF0000C5580210CF039F92046044B044A054940
:10400000FFF772FF204638BD5809002051400008D4
:10401000C5BC0108D1BC010810B5084C2368DB07FA
:1040200009D40748FFF7D0FF0123064A0649044890
:10403000236012F0C7F9024810BD00BF54090020E8
:10404000DC0B00200000002025370008FFF7E4BF4C
:1040500008B5FFF7E1FFBDE80840FFF78DBB002280
:10406000C0E90022826010B50C6804600A604268F2
:104070004C6844604A6082688C6884608A6010BDC5
:1040800070B50E4605461446B54217D09CB12B7844
:1040900005F1100123706B6804F110006360AB68D8
:1040A000A360EB68E360FFF7DAFF05F11C0104F1A0
:1040B0001C00FFF7D4FF28342835E5E7204670BD03
:1040C0002DE9F843D0E90064A41BE310234C054616
:1040D0005C43B4F5A04F0F46914602D1204802F050
:1040E00093FF002C14BF23460123E418A1EB06061E
:1040F00023D2B4F5A04F20D814B32820604306F093
:1041000019FC804618EB060002D04946FFF785FEF1
:10411000394642462868FFF7B3FF696800F1280274
:104120003846FFF7ADFFD5E900690746B14509D02C
:104130003046FCF70BF82836F8E74FF4A044DCE7EC
:10414000A046DFE7286808B1FFF7E0FA282303FB61
:104150000484C5E90087AC60BDE8F883CDCCCCCC45
:10416000A7B601082DE9F047D0E9065704460E46E8
:10417000DFF80C818AB0AF421BD029466846FFF7B2
:104180004CFE6846FEF765FA81463046FEF761FA56
:104190000146484606F0E1FC30B13046FEF759FAD8
:1041A0000146404606F02AFB6846FBF7CFFF28355C
:1041B000E1E7D4E906892E4AA9EB0807FD1055432B
:1041C0000135B5F5A04F02D92A4802F01DFF236A38
:1041D000A3EB0803DB1053439D4220D94FF0280A7C
:1041E0000AFB05FA1DB1504606F0A4FB05464946F8
:1041F00040462A46FFF744FFD4E90689C14505D069
:104200004046FBF7A3FF08F12808F7E7A06908B1CB
:10421000FFF77CFA2F44A5615544E7612562226AC5
:10422000D4E9060312491B1ADB10121A4B43D210B1
:104230004A430133934206D90F4806F0DFFA77214B
:104240000E48FEF759F9D4E90703984209D010B196
:104250003146FFF7E2FDE3692833E3610AB0BDE8C8
:10426000F0870146324604F11800FFF729FFF5E711
:10427000CDCCCCCC6CB601089ABB01087EBA010843
:1042800068BB0108002313B502A941F8043D094B9E
:104290000422D3E90140084B20445B689847044658
:1042A00028B1064806F0AAFA204602B010BD04481C
:1042B000F8E700BF2C0C0020180C0020DCBE010821
:1042C000F0BE010808B5084806F098FAFFF7A4FE0A
:1042D000FFF73CFA054806F091FAFFF79DFEBDE8AE
:1042E0000840FFF749BA00BF0DBF010825BF01080C
:1042F00073B505464FF416700C4606F01BFB0646D8
:1043000030B9214806F07AFA22212048FEF7F4F865
:104310004FF416720021304613F09BFD31462846BB
:104320004FF41672FFF784FA194D014601902CB331
:10433000184806F063FAD5E901431C44164DEB68B2
:104340001BB101992046083198476B680422104937
:104350002046984704226B680DEB0201A01898478D
:104360006B68019A314604F1080098470B4806F043
:1043700045FA304606F0C8FA02B070BD084806F0AB
:104380003DFA6C68DAE700BFB0D401087EBA0108D4
:104390002C0C0020CEBD0108180C002008BE01081E
:1043A000EDBD01082DE9F74FFFF736FE2F4F06460A
:1043B0002F4806F023FAB846DFF8D090DFF8D0A0F7
:1043C00009F0BEFC2B4D38602B68AB462A4C002B05
:1043D00037D003F56A436033984232D223782BB941
:1043E000264806F00BFA264806F008FA0123304664
:1043F0002370FFF777FB41F2883352464FF0FF31CD
:1044000000200AF071F9019009F09AFC019BC8F8AC
:10441000000023B9237813B13046FFF763FBDAF8C5
:104420000030DA0744BFD8F800202A609B07C7D5C0
:104430000023CBF80030D9F80830002BBED09847C5
:10444000BCE723786BB100213046FFF751FF0D48E0
:1044500006F0D4F90C4806F0D1F9D9F8083003B1C8
:104460009847002323702B60C5E700BF440C002051
:104470004CBE0108400C0020380C002061BE010831
:1044800084BE0108A7BE0108B9BE0108180C0020AF
:104490003C0C002010B5FFF7BFFD04460021FFF7DC
:1044A00027FF2046FFF768F9BDE8104003480023C6
:1044B0000122022100680AF061B900BF140C00203B
:1044C00010B5FFF7A9FD04460021FFF711FF2046B4
:1044D000BDE81040FFF750B92DE9F743194E0746E4
:1044E000884675680AB1B3681D440024DFF86090FF
:1044F00002A941F8084D0422D9F80030284698470F
:10450000326800998A4204D00F4806F077F92046B5
:1045100014E00422D9F800300DEB0201A8189847E6
:1045200001990A4806F06AF9019A4245EFD8D9F88C
:104530000030394605F108009847019803B0BDE8FE
:10454000F08300BF2C0C002017BE010832BE01080A
:10455000180C002084B0F0B585B00AAC84E80F00D8
:104560000B9B23B940F229117F48FDF7C5FF0A9B39
:1045700023B94FF495717C48FDF7BEFF7B4C0AAD23
:104580000FCD0FC42B682546794C0FAA07CA45F8F2
:10459000103984E8070012B94FF48063A3602368E0
:1045A00023B940F235117048FDF7A6FF23680133A7
:1045B00004D140F237116C48FDF79EFFFFF72CFD48
:1045C00006466C4B6C4A6D49FFF78EFC6C4B6D4A8E
:1045D0006D493046FFF788FC6C4B6D4A6D4930469B
:1045E000FFF782FC4FF4167006F0A4F9074680B975
:1045F000694806F003F9694806F000F93046FFF70C
:10460000A5F800233370FFF73DFE654806F0F6F885
:104610002CE04FF41672002113F01BFCD4E90103C7
:104620002D68042203A91844A847002861D02268F5
:10463000039B9A425DD15B4806F0E0F801224FF4FB
:1046400016713846FFF748FF0446574806F0D6F87B
:10465000FFF718FE002C48D001233370224639465C
:104660003046FFF783FA384606F04EF933783BBB05
:104670004FF4167006F05EF9044630B9464806F06D
:10468000BDF87F213848FDF737FF4FF4167200213F
:10469000204613F0DEFB00224FF416712046FFF790
:1046A0001BFF074690BB06F02FF9204606F02CF9B9
:1046B0003E4806F0A3F8FFF7AFFC0021FFF718FE15
:1046C0003B4BFA22019301233A4900933A480023D5
:1046D00009F0F4F820B94FF4A8712348FDF70CFF56
:1046E00005B0BDE8F04004B07047344806F086F8E5
:1046F000347000224FF416713846FFF7EDFE044681
:104700000028ABD1384606F0FFF874E74FF4167076
:1047100006F010F9054630B91F4806F06FF88E21F3
:104720001148FDF7E9FE4FF416720021284613F0F8
:1047300090FB4FF4167229463046FFF779F808B916
:104740002846B0E78742FBD10023E95CE25C914256
:10475000F6D101339F42F8D1284606F0D5F820461D
:1047600006F0D2F8ACE700BF7EBA0108180C0020B2
:104770002C0C0020C1440008D5BC0108E1BC010894
:10478000C5420008E6BC010801BD010895440008C7
:1047900009BD010821BD0108B0D4010888BD010888
:1047A00025BF010826BD01084ABD0108ACBD0108AE
:1047B000140C0020C3BD0108A54300085FBD01081B
:1047C00010B5064C226922B94FF4AA710448FDF7CE
:1047D00093FE2369BDE81040184700BF180C002065
:1047E0007EBA010810B504460168074806F006F8CD
:1047F000616831B10B7823B10448BDE8104005F081
:10480000FDBF0348F9E700BF3DBF01082AB7010813
:104810007DBA010810B50446C06908B106F074F805
:10482000206908B106F070F8606808B106F06CF80D
:10483000204610BD10B50446006808F05BFF204616
:1048400010BD00001FB50B46546801780294127821
:1048500001925A68009242681B68024805F0CEFF38
:1048600004B010BD42BF0108CB210148FDF744BE92
:104870007EBA0108FE2307B502A901F8043D054BE5
:104880001868002300681A4608F024FC03B05DF89D
:1048900004FB00BF540C0020D0B51F467423C0E9B0
:1048A00000310023044683600820164602F0CAFB4C
:1048B000C0E90067A0602046D0BD00002DE9D043CC
:1048C000DDE9066799467223C0E90031002396426C
:1048D000836077EB09030446904603DA2B210748EF
:1048E000FDF70AFE102002F0ADFBC0E90089C0E927
:1048F0000267A0602046BDE8D08300BF7EBA0108F1
:10490000036837B5632B04460D4601D0FFF7ACFFB3
:10491000002302AA42F8043DA168284605F054FD90
:10492000019B1BB138210248FDF7E6FD03B030BD05
:104930007EBA010870B563230025C0E90031044642
:1049400085601A20164602F07DFB1A22294613F0D4
:1049500080FA3146A0602046FFF7D2FF204670BDA6
:1049600081647047C16470472DE9F843D0E9017351
:10497000884600254FF00C09DB1B0A4E9B105E4356
:10498000ECB2B4420BD209FB04724146506814F0F9
:1049900042FA01350028F3D12046BDE8F8834FF0F4
:1049A000FF30FAE7ABAAAAAA2DE9F843D0E90473CD
:1049B000884600254FF00C09DB1B0A4E9B105E4316
:1049C000ECB2B4420BD209FB04724146506814F0B9
:1049D00022FA01350028F3D12046BDE8F8834FF0D4
:1049E000FF30FAE7ABAAAAAA2DE9F0410E464968C2
:1049F0000446FFF7B9FFC0B2FF2803D07C21294845
:104A0000FDF77AFDD4E90123274F9B1A9B107B43C6
:104A10007E2B03D97F212348FDF76EFDD4E90112D7
:104A20000C25E068531A9B10121A7B4392107A43AC
:104A30000133934205FB03F80ED84144A160D4E949
:104A4000013496E80700E31A04E9070016489B10B2
:104A500058430138BDE8F081404605F06BFF05463C
:104A600018B969210F48FDF747FDD4E901C30027B4
:104A7000A3EB0C039A100C4B5343002B09DD05EB01
:104A8000070E0CEB070207CA013B8EE807000C3744
:104A9000F3E7604605F038FF65604544C4E9025518
:104AA000CDE700BF7EBA0108ABAAAAAA1FB56E2344
:104AB000CDE90131002301A90393FFF795FF05B06C
:104AC0005DF804FBFF2270B5002380F828204FF02A
:104AD00000424FF0FF31C0E90D23C2636FF07F4207
:104AE000C0E910120522C0E90033C0E91423C0E96F
:104AF00002330022C0E90433C0E90633C0E90833B9
:104B00000363C0E9123383654FF000431E4DC0E9D3
:104B100018232A68044612F0010213D101211B4E0A
:104B200008463260716008F0FBF9306018B9512115
:104B30001748FDF7E1FC0123164A174913482B607B
:104B400011F040FC154B1A680AB9104A1A60144952
:104B50002046FFF7ABFF134B134918702046FFF7B1
:104B6000A5FF124B124918702046FFF79FFF114B0B
:104B7000114918702046FFF799FFFE220F4B18705D
:104B80000F4B20461A7070BD500C0020D80C00202E
:104B90007EBA01080000002035480008540C0020AF
:104BA000AEC001085C0C0020B6C001085A0C002001
:104BB000BEC00108580C0020C3C001085B0C0020D7
:104BC000590C002010B5084C2368DB0709D40748AE
:104BD000FFF778FF0123064A06490448236011F0D5
:104BE000F1FB024810BD00BF4C0C0020700C0020EF
:104BF00000000020154800082DE9F0410E464968E4
:104C00000446FFF7D1FEC0B2FF2803D08721294810
:104C1000FDF772FCD4E90423274F9B1A9B107B43BA
:104C20007E2B03D98A212348FDF766FCD4E90412C0
:104C30000C25A069531A9B10121A7B4392107A43D9
:104C40000133934205FB03F80ED841446161D4E976
:104C5000043496E80700E31A04E9070016489B109D
:104C600058430138BDE8F081404605F063FE054633
:104C700018B969210F48FDF73FFCD4E904C30027A8
:104C8000A3EB0C039A100C4B5343002B09DD05EBEF
:104C9000070E0CEB070207CA013B8EE807000C3732
:104CA000F3E7604605F030FE25614544C4E905554B
:104CB000CDE700BF7EBA0108ABAAAAAA38B5D0E9F1
:104CC00001239B1A074A9B105343CDB29D420446D1
:104CD00003D3A6210448FDF70FFC0C20636800FBFA
:104CE000053038BDABAAAAAA7EBA010838B5CCB245
:104CF000114905460B6813F0010307D10F4A7020D4
:104D00001372012310600E480B605060FF2C10D00E
:104D1000D5E904239B1A0B4A9B1053439C4203D3AF
:104D2000B2210948FDF7E8FB0C23286903FB0400C6
:104D300038BD0248FCE700BF480C0020600C002092
:104D400060BF0108ABAAAAAA7EBA010810B5D0E9D3
:104D50000730C9B2D2B2834209D01C788C4204D148
:104D60005C78944201D1987810BD0333F3E74FF09B
:104D7000FF30F9E72DE9F041D0E904239B1A4F4AAF
:104D80009B1053430D4609780446994203D393215F
:104D90004B48FDF7B1FBD4E901239B1A474A9B100E
:104DA00053436978994203D394214548FDF7A4FB06
:104DB000D4E904239B1A414A9B105343A978994292
:104DC00005D3FE2903D095213D48FDF795FB6A7870
:104DD00029782046FFF7BAFFC3B2FF2B064629D039
:104DE00029782046FFF782FF697807462046FFF7BB
:104DF00065FF314680462046FFF778FF4146024670
:104E00003846FFF71FFD29782046FFF76FFF6978C6
:104E100006462046FFF752FFA97807462046FFF7CF
:104E200065FF394602463046FFF70CFD9C212448B9
:104E3000FDF762FBD4E90723204F9B1A7B437E2BAF
:104E400003D99F211E48FDF757FBD4E90762616A29
:104E5000931B7B43521A57430133BB4203EB430876
:104E60000AD8464426622A88236A23F8032CAA78A3
:104E700003F8012CBDE8F081404605F05BFD0646D5
:104E800018B969210E48FDF737FBD4E90702131A58
:104E90000A4A5A430023002A0ADDC118B1F800C0AB
:104EA000F71826F803C08978013AB9700333F2E79E
:104EB00005F02AFDE66146446662D3E7ABAAAAAADA
:104EC0007EBA0108FF2337B58DF804300A4B0D4632
:104ED0001C6823681BB929210848FDF70DFB2A46E9
:104EE00001A9206808F09AF9012814BF4FF0FF309B
:104EF0009DF8040003B030BD540C00207EBA0108B8
:104F000038B5816800681D46144605F0C5FD0346A6
:104F1000201845EBE37138BD08682DE9F04172288F
:104F20001F461FD074280FD0632820D1886805F051
:104F30000BFB002871F1000304460D460EDADD215B
:104F40000D48FDF7D9FA09E08B68D3E90045B5F1C2
:104F5000004F08BF002C01D0A4187D4120462946EF
:104F6000BDE8F0818868BDE8F041FFF7C9BF0024C3
:104F70004FF00045F2E700BF7EBA01082DE9F0418D
:104F80000F4606460024FFB2FFF7B0FED6E90758E9
:104F9000454511D02B78BB420CD169783046FFF7DC
:104FA0008DFE0368692B05D183681B6803B19847A0
:104FB0000134E4B20335EBE72046BDE8F0812DE98A
:104FC000F34180460F460025FFF790FED8F81C40BD
:104FD000D8F8206003340336FFB2A6421BD0234624
:104FE00033F8032D9B78ADF804208DF8063014F8C3
:104FF000033C9F420DD19DF805104046FFF75EFE31
:105000000368692B05D183685B6803B19847013554
:10501000EDB20334E1E7284602B0BDE8F0810000BC
:10502000836C73B504460D46164623B94FF48E7152
:105030000B48FDF761FACDE9006423462A46094989
:10504000094808F03BFC012807D04FF4917104484F
:1050500002B0BDE87040FDF74FBA02B070BD00BFAE
:105060007EBA010890C00108A956000838B590F82A
:1050700047300446032B0D4604D940F2351106484B
:10508000FDF73AFA94F847305A1C84F847201C443C
:1050900084F8425038BD00BF7EBA010810B590F8C0
:1050A0004730044623B94FF49D710648FDF724FAB2
:1050B00094F84730013BDBB284F847301C4494F845
:1050C000420010BD7EBA0108CBB2FE2B10B50446DB
:1050D0000AD0FFF70BFE03686D2B05D1017A20463D
:1050E000BDE81040FFF702BE10BD00002DE9F843F7
:1050F00004460026114FD4E904239B1A9B107B43DE
:105100005FFA86F8434516D941462046FFF7DCFF93
:10511000D4E90759A9450CD02B78434507D16978C4
:105120002046FFF7CBFDA9782046FFF7CDFF0335DA
:10513000F0E70136DFE7BDE8F88300BFABAAAAAA13
:1051400038B50546002495F84730A34207DD2B19F2
:1051500093F842102846FFF7C9FD0134F3E738BD44
:1051600000232DE9F74FC0E9083388461946D8E9EE
:1051700007594FF000430446C0E90613C0E9001385
:10518000C0E90213C0E90413FF208A469B46D2B24D
:1051900084F8200001924D45D4E9006720D02B7897
:1051A000019A93421AD169784046FFF787FDDDE9FD
:1051B0000C2301464046FFF7AFFE594508BF504556
:1051C0000CD05F4508BF564503D0B04271EB0703D2
:1051D00004DA6B78C4E9000184F820300335DAE79B
:1051E000B7F1004F08BF002E08D0DDE90C23B21A3A
:1051F00067EB030316461F46C4E90467204603B065
:10520000BDE8F08FF8B50D460B4B896906464B4358
:105210004FF47A71B3FBF1F1FFF754FE0446C7B2C5
:10522000B06C03681B689847FF2FC6E90E010CBFDE
:1052300095F820002046F8BD40420F0038B5C36CF9
:1052400004460D461BB9BDE83840FFF7DBBF806C54
:10525000174903685B699847A06C0368DB68984747
:10526000D5E9020105F04AFA0146124805F0C6FAEE
:10527000A06C03689968D5E902238847A06C03688D
:105280001B699847E36C9847A06C0368DB689847F4
:10529000A06C03681B689847C4E90E0100212046F2
:1052A000FFF710FEC0B2FE2808BF95F8200038BDF9
:1052B000754800089BC00108F8B5D1E90667B7F149
:1052C000004F08BF002E05460C4608D11AB1BDE8B4
:1052D000F840FFF797BFBDE8F840FFF7AFBF012EDA
:1052E00077F1000302DA91F82000F8BD92B121466F
:1052F0002846FFF787FF94F82030C0B28342F4D1EC
:10530000D5E90E67D4E90023964277EB0303B8BFD3
:10531000FF20EAE7D0E91423964277EB0303E6DBAC
:10532000FFF78CFFE7E700002DE9F04F8DB0044652
:105330000D46FFF7DBFC03688046702B04D04FF46A
:10534000A0716B48FDF7D8F8A06C03681B689847FC
:105350002A46C4E90C01CDE90001214602A8FFF765
:10536000FFFE29462046FFF709FE9DF82830064635
:10537000FF2B05D120B940F24B115D48FDF7BCF879
:10538000D4E90C0105F0BAF901465A4805F036FA9D
:105390003146594805F032FA9DF82810FF297ED190
:1053A00000224FF00043CDE90623DDE90223CDE9D9
:1053B0000423DDE90623CDE90823A36D13B3984741
:1053C000DDE90223D4E91801B3F1004F08BF002A38
:1053D00009D0DDE9062310F10B0641F100079642E2
:1053E00077EB03030EDAD4E90C23161843EB01071D
:1053F000CDE90801CDE9046705F096F901463F487B
:1054000005F0FCF94FF0000A4FF0004BDFF8F89080
:1054100098F8082002A92046FFF74EFFA36D064624
:1054200003B19847F3B2FF2B5AD1DDE90223D4E947
:105430000E01161A63EB010739463046CDE9042305
:10544000CDE90667CDE9086705F06EF901464846E3
:1054500005F0D4F9A36D002BDAD0DDE90223D4E9FD
:1054600018015B4508BF524509D0DDE9062310F15C
:105470000B0641F10007964277EB0303C8DAD4E943
:105480000E23161843EB0107CDE90801CDE90467A7
:1054900005F04AF90146194805F0B0F9B8E7204689
:1054A000FFF70CFCD0E90067DDE9020105F026F901
:1054B0003A4603463146124805F0A0F9D4E90C23D8
:1054C000DDE90201801A61EB03010F460646CDE9D2
:1054D000066705F029F901460A4805F08FF964E7E7
:1054E00029462046FFF76BFD30460DB0BDE8F08F32
:1054F0007EBA01086EBF01088DBF0108EABF01082E
:10550000A8BF0108CCBF010802C0010870B504465D
:105510000D46FFF7EBFB03686D2B11D0702B09D004
:10552000612B14D1836894F8411094F84000BDE8D1
:105530007040184729462046BDE87040FFF7F4BE8A
:10554000034840F22F11FCF7D7FF4FF0FF3070BD3A
:105550007EBA01082DE9F04790F828300446FF2B69
:1055600004D14FF4E5714A48FCF7C6FF94F82810BF
:105570002046FFF7BBFB42680178464805F03EF93C
:1055800094F82830DFF81C8184F8463094F84610EF
:105590002046FFF7ABFB036805466D2B204694F8C9
:1055A00046100BD1FFF762FD297A204684F8461099
:1055B000FFF79CFB2046FFF7C3FDE7E7FFF7A6FFD9
:1055C000C3B2FF2B06460BD140F2DF113048FCF787
:1055D00093FF40F2DF11304B304A314812F0F8F9B6
:1055E000024694F846102046FFF7B0FBC5B2FF2DE7
:1055F00009D140F2E5112648FCF77EFF264B274AE9
:1056000040F2E511E9E794F84610FE2D204621D13D
:10561000FFF744FD074601462046FFF767FB324689
:1056200039462046FFF792FBC5B2FF2D0DD131461A
:105630002046FFF743FB40F2F1111548FCF75CFFF1
:10564000154B164A40F2F111C7E72046FFF778FDE7
:105650003946DAE7FFF74AFB314607462046FFF7AF
:105660002DFB294681462046FFF740FB82464046F7
:1056700005F0C4F8524649463846FFF7E3F894F877
:10568000463084F8416084F8403084F846507DE725
:105690007EBA01082AC00108EEB60108CBC0010895
:1056A00048C0010880C0010808B505F00DFAFFF7F1
:1056B00089FAFFF74FFFD0B51F461646FFF7FEFAEF
:1056C00003688468742B01D0FFF7CEF8C4E9006743
:1056D000D0BD0000836C10B5044623B94FF4277188
:1056E0000248FCF709FFA06C10BD00BF7EBA01089C
:1056F000FF23054A1370054A1370054A1370054AC3
:105700001370054A137070475C0C00205A0C00207F
:10571000580C00205B0C0020590C0020014B18781D
:10572000704700BF580C002010B50446006807F011
:10573000E1FF204610BD00002DE9F3480BF0B8FA58
:105740004FF6FF71344A13888B421CBF013313801C
:10575000FFF738FAFFF7BEFF03681B6898472F4B27
:1057600083465A788C46D2B92D4A1289BAB12D4C4B
:1057700030CCB5F1004F08BF002C0ED0844275EB41
:105780000C010CDABBEB0406274C6CEB0507544309
:10579000E517A64277EB050201DB01225A700022D1
:1057A000ADF804208DF806205A782AB101228DF830
:1057B00004201C4AC2E900BC1A781C4B92B1012299
:1057C0008DF805201A701A4A1A491B48019B127855
:1057D000097800680BF0FAFAD8B1184B187802B0C3
:1057E000BDE8F0881A700E4B9B89002BEBD04AF66F
:1057F000C0025A43124CD31730CCBBEB04006CEB05
:105800000501904271EB0303A4BF01238DF805301D
:10581000D9E70C4BE2E700BF240D0020000D00206B
:105820000C0D0020B800002080510100090D00205F
:10583000030D0020020D0020FC0C0020580C00205D
:10584000A80000205A0C0020104B1B8913B9104BE4
:10585000187870470F4BD3E90023B3F1004F08BF0E
:10586000002AF4D10C4A13780133DBB2012B1370F8
:10587000EDD80023094A1370094A1370094A1360CE
:10588000094A137001235370084BE1E70C0D002007
:10589000580C0020B0000020380D0020030D00201F
:1058A000020D0020FC0C0020000D00205B0C0020ED
:1058B0001FB57023CDE90131002301A98DF80C300B
:1058C000FFF79AF905B05DF804FB00002DE9F04FF1
:1058D0004A4B85B01A780446002A40F08B80012795
:1058E00047491F70FFF7E2F8464B474918702046BA
:1058F000FFF7DCF8DFF868A144498AF80000204689
:10590000FFF7D4F8DFF85C910A22002389F8000041
:105910003F4901A8FEF7C0FF01A92046FFF764F840
:105920003C4E3D4930702046FFF7C0F83B4B3C49A8
:1059300018702046FFF7BAF83A4B3B4918702046DA
:10594000FFF7B4F8394B3A4918702046FFF7AEF824
:10595000384B394A187039492046FBF76BFADFF8A3
:1059600008B1374A8BF8000036492046FBF762FA47
:10597000354905462046FFF79BFF70230193334BC3
:10598000804601A9204602938DF80C70FFF734F988
:1059900007462F4A2B4612789BF800102046FAF74C
:1059A000F1FD43469AF8002029462046FAF7EAFD21
:1059B0003B4699F8002029462046FAF7E3FD2B469E
:1059C000327841462046FAF7DDFD2B4632783946DB
:1059D0002046FAF7D7FD1F4A2B4612782946204663
:1059E000FAF7D0FD1C4B1D4A1B7812782946204639
:1059F000FAF7C8FD05B0BDE8F08F00BF390D0020F3
:105A000043C10108040D00204DC1010858C101081F
:105A100064C10108E90C002071C10108220D0020B9
:105A20007FC10108210D00208BC10108260D002037
:105A300098C10108270D002039570008A6C10108A8
:105A400075680008B0C10108C4C10108D7C10108C8
:105A5000580C00205B0C0020590C00205C0C00202E
:105A6000080D0020E80C0020060D002008B50BF002
:105A7000FDF818B1BDE808400BF01AB908BD08B52B
:105A80000BF0F4F818B9BDE808400BF0CBB808BD2E
:105A900030B5044685B00D46FFF718FF6D22064B62
:105AA00001A91B782046CDE901258DF80C30FFF7C0
:105AB000A3F805B030BD00BF060D00202DE9F84F5A
:105AC000424B434D1A68044612F0010F01BFFF22FA
:105AD0002A7001221A602B78FF2B73D1FFF7F6FE94
