:020000040800F2
:100000000080002045620008BD6E000821620008E3
:10001000BF6E0008C16E0008C36E0008000000003B
:1000200000000000000000000000000021BC0008EB
:10003000C56E000800000000B1BC0008F5BC000857
:10004000C76E0008C96E0008CB6E0008CD6E0008B0
:10005000CF6E0008D16E0008516E0008576E000880
:100060005D6E0008636E0008696E0008D36E0008BC
:10007000D56E0008D76E0008D96E0008DB6E000848
:10008000DD6E0008DF6E0008E16E0008E36E000818
:10009000E56E0008E76E0008E96E00086F6E000864
:1000A000EB6E0008ED6E0008EF6E0008F16E0008C0
:1000B000F36E0008F56E0008F76E0008F96E000890
:1000C000FB6E0008FD6E0008FF6E0008016F00085F
:1000D000036F000891750008DD790008056F0008BE
:1000E000936E00083D6F0008076F0008096F000855
:1000F0000B6F00080000000000000000000000007E
:1001000000000000000000005FF808F110B5054C89
:10011000237833B9044B13B10448AFF300800123B3
:10012000237010BD680200200000000018ED0108D7
:1001300008B5034B1BB103490348AFF3008008BD6A
:10014000000000006C02002018ED0108704700005C
:100150008168014809F0E8BB1895010838B50446E4
:1001600081680D4809F0E0FB20690C4D036800210F
:100170001B68984701222846032106F0E5FC206908
:10018000002103685B6898472846BDE83840012293
:10019000022106F0D9BC00BFFE9401080000024015
:1001A0000B4B13B51A68B2F5007F04D21A68511CC4
:1001B0001960084B9854084B1C680DF08FF8002309
:1001C00002460093072120460DF052FF02B010BDF9
:1001D00084040020840200208804002010B5044616
:1001E000382114F0D7F9204610BD000070B5154C29
:1001F0002368092B1FD92268134D023A2946134858
:1002000014F04FF9064620680238284409F09DFC96
:100210008642014610D10E4E30680CF041FC226837
:100220000023294630680CF087FC10B9094809F012
:100230007BFB0023236070BD3246074809F074FB46
:10024000F7E700BF8404002084020020040000209F
:100250008C040020A8940108D694010870B50446C7
:100260002048214E60602148C4E90312A060204864
:1002700086B020606361194604F1180004F124057A
:1002800005F0A8FD0FCE0FC5336801222B600021B9
:100290004FF400700CF0C2FB164B186018B94A21DD
:1002A000154805F041FF154B0A210093002314481F
:1002B0001A460DF0BBFE134B41F2210118600123D9
:1002C000CDE900334FF6FF7303A81A4614F096F8F1
:1002D0000D4A03AB03CB106020461B88516013818D
:1002E00006B070BD51950108949401085B95010812
:1002F000D09501088C04002061950108ED010008EB
:10030000BB95010888040020040000200148006813
:100310000CF0A0BC8C04002010B50446C06807494E
:100320000368DB689847E06804F1240103681B68F0
:1003300098470022024B1A6010BD00BFA1010008BF
:1003400084040020C06810B50368084C5B689847B7
:1003500001220221204606F0F7FB0122032120465C
:1003600006F0F2FB0022024B1A6010BD00000240B2
:100370008404002081F001021830082105F0ECBD52
:1003800081F001021830022105F0E6BD81F0010282
:100390001830042105F0E0BD81F001021830012180
:1003A00005F0DABD10B5044681680E4809F0BCFAC4
:1003B00004F1180005F0BEFD20460021FFF7E6FF1E
:1003C00020460021FFF7DCFF20460021FFF7D2FF87
:1003D00020460121FFF7E0FF2046BDE81040002144
:1003E000FFF7DABFF494010810B5044681681A4893
:1003F00009F09AFAA168194809F096FA20460121F5
:10040000FFF7CAFF01212046FFF7BAFF4FF49670AD
:1004100006F078F920460021FFF7B2FF01212046BF
:10042000FFF7B4FF4FF4967006F06CF920460021F8
:10043000FFF7ACFF01212046FFF79CFF4FF49670B9
:1004400006F060F920460021FFF794FF2046BDE842
:1004500010400021FFF7A0BF27950108379501083C
:1004600008B5034809F060FABDE8084007F0E6BAAD
:10047000FD96010807F0E2BA10B50446C06910B154
:10048000012114F087F8206910B1012114F082F8DD
:10049000204610BDF8B50025C0E901120570C0E97D
:1004A0000335C0E90555C0E907554562069904467C
:1004B000164600F11C0712F041FD38B931460748D5
:1004C00009F032FA2021064805F02EFE069A394638
:1004D000204612F003FD2046F8BD00BF1B9701081F
:1004E0004697010870B52A4B9EB0D3E90012143329
:1004F0001B6881EA02065E400096264809F014FA5D
:1005000013F086F9054603F071F9044631460EA84A
:100510000EF0CCFE234653F8480F0EAA596804ACDF
:1005200003C20EA928460EF0E1FD1B4B1B4A0093A7
:1005300003211B4B2046FFF7ADFF2146284613F051
:1005400013FA2046FFF798FF164B174A0093032132
:10055000164B2046FFF79EFF2146284613F004FA6B
:100560002046FFF789FF2846114B124A124913F023
:10057000C3F8124B0493124B0593124B0693124B84
:10058000009394E80700052313F09CFB1EB070BD98
:100590005000F81FE89501083596010843960108B8
:1005A0000B960108A9960108A09601084C9601082F
:1005B00075040008D3960108F7960108C167000882
:1005C00049670008610400080000080860B103786A
:1005D00013F0700204D0402A05D003F00F007047DA
:1005E00043685868704701207047000010B5044602
:1005F00010B9044809F098F9D4E90001BDE81040A9
:1006000009F0F8B9D19B010810B9264809F08CB956
:100610000178406801F07002402A01F00F030ED00B
:1006200004D8A2B10268204809F07EB9502A20D02F
:10063000602AF7D1012B0CD101781C4805E01C4938
:100640001C4B002808BF19461B4809F06DB9FFF77D
:10065000CDBF022B02D101881848F6E7042B02D146
:1006600001881748F1E7082B01680CBF15481648A8
:10067000EBE7012B03D190F900101448E5E7022BBA
:1006800003D1B0F900101248DFE7042B03D1B0F911
:1006900000101048D9E7082B01680CBF0E480F481E
:1006A000D3E700BFD19B0108B59B01083A9B010825
:1006B0002F9B0108349B0108B2980108469B010852
:1006C000539B0108609B01086E9B01087A9B0108FF
:1006D000859B0108919B01089D9B0108AA9B01082D
:1006E00008B503F083F8BDE8084003F0B5B810B1D1
:1006F000042113F04FBF704710B1012113F04ABF1E
:10070000704710B504460068FFF7F1FF204610BDA2
:100710001FB56123CDE9013101A9039204F002F96B
:1007200005B05DF804FB07B58DF8041001A98DF83C
:1007300005208DF8063004F0C1F903B05DF804FB24
:1007400010B50C4C03F052F82368DB070FD400F10E
:10075000300300F11C0200F120010748FFF77EFD85
:100760000123064A06490448236014F04BFD024861
:1007700010BD00BF90040020BC0600200000002037
:100780004D0100082DE9F047FFF7DAFF044601218B
:10079000FFF702FE2046FFF7BFFD0CF099FD4EF675
:1007A0005F273A4E4FF4007233683949C01AB84295
:1007B0004FF47A73374D20463ED8FFF7A7FDDFF898
:1007C000E0A0DFF8CC902860D5F80080B8F1000FE9
:1007D0001DD10CF07DFD3368C01AB84217D85046C1
:1007E00009F0A2F801212046FFF7CAFDC82005F054
:1007F00089FF41462046FFF7C3FD4FF47A734FF45B
:10080000007249462046FFF781FD2860DCE720465C
:10081000FFF798FD2B68B3B301212046FFF7B6FD23
:1008200041F2883005F06EFF00212046FFF7AEFD53
:10083000194B1878BDE8F087FFF768FD0526DFF84B
:100840006090DFF84C8028602F68002FE4D1013ED3
:1008500016F0FF0617D0484609F066F80121204639
:10086000FFF78EFDC82005F04DFF39462046FFF703
:1008700087FD4FF47A734FF4007241462046FFF72C
:1008800045FD2860E0E7054BD3E700BFB406002034
:10089000A4040020B0060020040800200208002064
:1008A000079B0108F8B51D4809F03EF8FFF748FF1F
:1008B00005460121FFF770FD2846FFF72DFD41F2A7
:1008C00088334FF4007216492846FFF71FFD154C78
:1008D00020602846FFF736FD00212846FFF75CFD23
:1008E00023682BB9104809F01FF8104B1878F8BD91
:1008F0000F4809F019F80025094E0E4F2368AB4246
:1009000006D916F8011B384609F00EF80135F5E74F
:10091000094809F009F8094BE8E700BFE09A010827
:10092000A4040020B0060020079B01080208002054
:10093000F49A010808980108B7A1010804080020EA
:10094000F8B5334808F0F0FFFFF7FAFE012104463E
:10095000FFF722FD2F4B1A786AB1002501212046AE
:100960001D70FFF707FD41F2883005F0CBFE2946E8
:100970002046FFF7FFFC2046FFF7CEFC41F288330C
:100980004FF4007224492046FFF7C0FC234D286035
:100990002046FFF7D7FC2E68AEB9214808F0C4FF07
:1009A00001212046FFF7ECFC4FF4967005F0AAFEFB
:1009B00031462046FFF7E4FC31462046FFF7ECFCC9
:1009C000184B1878F8BD01212046FFF7DFFC4FF4E3
:1009D000967005F097FE20460021FFF7D7FC2046D1
:1009E0000021FFF7D9FC104808F09EFF00240A4EB2
:1009F0000E4F2B68A34206D916F8011B384608F0A3
:100A000093FF0134F5E70A4808F08EFF094BD8E759
:100A1000E09A010818000020A4040020B00600207D
:100A2000079B010802080020F49A010808980108B1
:100A3000B7A10108040800202DE9F04F87B0FFF7A7
:100A40007FFE01210646FFF7A7FCFFF779FE012193
:100A5000FFF790FC4FF4967005F054FE06F084FB0F
:100A6000544B6D46D3E900ABBBF1004F08BFBAF160
:100A7000000F0BD0B0EB0A0861EB0B094FF0000B35
:100A8000DFF85CA1C2457BEB090264DAC3E900012F
:100A900003AC494808F048FF14224849204613F0A7
:100AA00010FD05F01DFD804613F05CFF0021074698
:100AB000204613F02BFD0321204613F027FD0121D2
:100AC000204613F023FD0021204613F01FFD3C4972
:100AD000404615F0C1FA15F0ABFC01B2204613F008
:100AE00027FD3946204613F023FD94E8070085E8EA
:100AF0000700284613F017FD044680B3314808F07C
:100B000013FF12F09FFE304912F01CFD0023ADF8D8
:100B10000C3010B101238DF80D30284613F001FD83
:100B20000446284613F0FFFC039BC2B22146012075
:100B300004F0E8FF284613F0F8FCFFF701FE00215F
:100B4000FFF718FC00213046FFF726FC1F4B1878F2
:100B500007B0BDE8F08F284613F0AEFCC9E71C488B
:100B600013F0E1FC0546B8B1194813F0DCFC01466E
:100B7000184808F0D9FE1648ADF80C4013F0D1FC27
:100B80000546134813F0CFFC039BC2B2294603204D
:100B900004F0B8FF0E48CEE70F4808F0C5FEFFF797
:100BA000CFFD2946FFF7E6FB29463046FFF7F4FB69
:100BB0000A4BCCE7100000204E9A0108480700209D
:100BC00000007A446D9A01088E9A010803080020FB
:100BD000A40600209B9A0108C59A01080408002079
:100BE000085101002DE9F04F87B00DF10B020DF116
:100BF0000A01C24808F098FE0BF026FA04460BF0F2
:100C000029FA21460246BE4808F08EFE02F0EEFDAB
:100C100004460BF019FA05460BF01CFA2946024669
:100C2000B74808F081FEB74808F07EFEFFF788FD60
:100C30000146204614F076FA204614F02FFA20469A
:100C400014F042FAB04808F06FFE0BF0FDF90446CC
:100C50000BF000FA21460246A94808F065FEFFF7AE
:100C600041FC0BF0F1F904460BF0F4F92146024681
:100C7000A34808F059FEA54808F056FEFA200CF0EB
:100C80007FFC12F0DFFD12F0CBF9A14808F04CFE1A
:100C90000BF0DAF904460BF0DDF9214602469848DC
:100CA00008F042FE9B4808F03FFE12F0CBFD9A4D43
:100CB00006462B68994C13F0010F04D103F018FE7F
:100CC000012320602B60256802F090FD00F13801BF
:100CD000284603F0D7FC2068914903F0D5FC9149E0
:100CE0003046256812F051FC8F49024603A803F0F4
:100CF000B3FC03A9284603F009FD25688DF806001A
:100D000006220023894903A803F074FC03A928469E
:100D100003F0FCFC256800230F22854903A803F09B
:100D200069FC03A9284603F0F1FC824A8DF807000C
:100D300081492068FFF7ECFC804A0746804920681B
:100D4000FFF7E6FC7F4A8DF801007F492068FFF736
:100D5000DFFC7E4A80467E492068FFF7D9FC7B4A4B
:100D600081467C492068FFF7D3FC7B4B70250493B8
:100D700000238DF8020003A920680395059303F072
:100D8000D1FD764B03A9049300238DF8030020685E
:100D90000593039503F0C6FD8DF80400206804F068
:100DA0005BFD6F498246206804F0DCFD6D4A8DF8DA
:100DB00005006D492068FFF7ABFC834620686B4A4D
:100DC00080F828706A49FFF7A3FC0646694D5B4628
:100DD0002A7839462068684FFFF7A5FC9DF8013056
:100DE0002A7859462068FFF79EFC9DF804303A782F
:100DF00059462068FFF797FC5B469DF807209DF851
:100E000004102068FFF78FFC9DF802302A789DF8C7
:100E100001102068FFF787FC53463A789DF80110CF
:100E20002068FFF780FC53462A789DF8021020685E
:100E3000FFF779FC53463A789DF802102068FFF7D7
:100E400072FC43462A7851462068FFF76CFC4B46FB
:100E50002A7841462068FFF766FC4B463A784146BF
:100E60002068FFF760FC33462A7849462068FFF780
:100E70005AFC33463A7849462068FFF754FC3F4A0B
:100E80009DF80530314620681278FFF74CFC334658
:100E90002A789DF805102068FFF745FC9DF803307F
:100EA0002A7831462068FFF73EFC43469DF806202D
:100EB0009DF803102068FFF736FC206804F01EF848
:100EC0002F4808F031FD24680BF0BEF805460BF002
:100ED000C1F8294602460A4808F026FD294808F0CC
:100EE00023FD01224FF4C871204603F075FF002056
:100EF0000CF0BAF807B0BDE8F08F00BFD79B01082F
:100F0000FC9B01081B9C01082F9C0108409C0108C8
:100F1000579C0108699C01089404002028070020C0
:100F2000E106000843960108869C010855AD0108BA
:100F30008F9C0108F91500088EAD0108A50800086E
:100F40009F9C010841090008AB9C0108890F00081B
:100F5000B09C0108B99C0108C99C0108CF9C0108FC
:100F600062AD010885070008DD9C0108390A000808
:100F7000E99C010804080020020800200308002062
:100F8000F29C01080C9D01082DE9F04F89B0322236
:100F9000002103AFA748A84C15F05EFD3222A549F9
:100FA000384613F08EFA97E8070084E80700FFF749
:100FB000C7FBA24B06461B68102B1CD800212046FD
:100FC00013F0A4FA01213046FFF7E6F9012130467B
:100FD000FFF7D6F94FF4967005F094FB00213046E8
:100FE000FFF7CEF900213046FFF7D6F9944B187879
:100FF00009B0BDE8F08F0022CDE90522914A103BEF
:1010000003920493384601F0A9FE98BB01213846AB
:1010100001F0ACFEDDE904329A42F3D38A4808F0CD
:1010200083FC854813F07DFA0446834813F07BFA6D
:101030000146204608F0DEFC7F4813F074FA0146B2
:1010400010B97D4813F062FA01213046FFF7A4F988
:1010500001213046FFF79AF94FF4967005F052FBE4
:1010600000213046FFF792F900213046FFF794F94E
:10107000764BBCE7384601F0A3FB0546384601F045
:1010800062FE98B1724808F04FFCDDE9043206991F
:10109000704808F049FC704808F046FCDDE904138C
:1010A0000398C91A184408F0A5FCB7E76B4808F084
:1010B0003BFC6B686A48197808F036FCAB686948F5
:1010C000197808F031FC2B696748198808F02CFC66
:1010D000664808F029FC2868FFF788FAEB6864483E
:1010E0001B68196808F020FCEB681B681A6840F25E
:1010F00001739A4243D15F4808F016FCEB68DFF8B1
:1011000090815B68DFF88C911C69DFF88CA1002C62
:1011100035D023682BB1404608F006FC2068FFF765
:1011200065FA63682BB15A6819781278484608F056
:10113000FBFBA36813B1504608F0F6FBE36823B14C
:101140001A784D48114608F0EFFB236923B193F953
:1011500000104A4808F0E8FB636933B14848197841
:1011600008F0E2FB6069FFF74FFAA3692BB145482D
:1011700008F0DAFBA069FFF739FAE469C7E7EB6822
:101180001A68116840F2017291424FD15B68DFF832
:101190000CB100933C4BDFF8A0805A68D3F800A054
:1011A0000192019A5346524540D0186801F02CFC38
:1011B0008146584608F0B8FB4846FFF717FAD9E9C8
:1011C0000012404613F088F9009B0AF1040A1C69DA
:1011D000002C7DD022688AB1D2F804C0D9F804303E
:1011E0009C450BD100239C455ADD1068D9F80010AE
:1011F000C05CC95C884201D10133F4E7E469E7E7E8
:101200004B68D3E90012404613F066F9216901B139
:101210000978404613F07AF923691C4893F90010C5
:1012200008F082FB484601F0A2FBBAE7284601F02D
:10123000AFFAEFE6F4060020A4060020B006002076
:1012400002080020AC0400200A9A010804080020CB
:10125000B6980108DE980108FB9801080899010872
:1012600016990108279901083B9901084899010836
:101270005B9901086D990108B3990108C5990108A6
:10128000D4990108E699010898040020C89901083A
:10129000829901088C990108A5990108F59901081E
:1012A0000F4808F041FB6069FFF7AEF96069FFF78E
:1012B0008DF9C1B2404613F029F961690B7813F03A
:1012C000700F9DD00846FFF781F9024649689AE7FA
:1012D000044808F029FB2146404613F017F9A1E71E
:1012E0001A9A0108339A0108F0B5012087B015F069
:1012F0007BFB029002F07AFA036804469B689847E9
:10130000374808F011FB374808F00EFB364808F064
:101310000BFB364A3649374808F006FB3649374852
:1013200008F002FB364808F0FFFA364B364A1B68D5
:1013300036490093364B12681B68364816F064FA3B
:101340003449354808F0F0FA03A805F0AFFE03A8C9
:1013500008F04AFA0146314808F0E6FA02993048A6
:1013600008F0E2FA02A92F4808F0DEFA0AF0A2FD1E
:1013700005460AF09FFD01262946002500F570521A
:10138000294808F0D1FA04F0F9FD2B464FF4967283
:101390002649CDE9006526480BF078FD0AF054FE99
:1013A00007460AF057FE39460246224808F0BCFAC2
:1013B00023683146DB68204698474FF4FA7005F001
:1013C000A1F923682946DB68204698471A4808F0A7
:1013D000ABFA1A4808F0A8FA0BF032FFFEE700BF9C
:1013E0004E9D01087C9D0108869D0108B99D01085C
:1013F000C49D0108CF9D0108DF9D0108E69D0108FD
:10140000F19D01086400F81F5000F81F119E0108AB
:101410005400F81F2C070020239E01082E9E01086F
:10142000409E01084D9E01085B9E0108749E0108C4
:10143000E50B0008FC9B01087D9E0108909E0108B9
:10144000B1F5705F2DE9F843054602D9184813F04D
:101450007BF8066883689B1BB1EBA30F1CD9D0F8FF
:1014600004904FEA8108A9EB060759B1404608F0FD
:10147000E7FA04462346B14506D056F8042B43F854
:10148000042BF8E70C46F5E72868FFF730F9274406
:101490002C6044446F60AC602C683CB92046C5E9C0
:1014A0000144FFF724F92046BDE8F8830120FBE75B
:1014B000249D01082DE9F84FD0E90079A9EB070434
:1014C000A410B4F5705F06468846934602D12048C2
:1014D00013F03AF8002C14BF23460123E418A1EBC3
:1014E000070515D2B4F5705F12D8A4B1A00008F0BA
:1014F000A7FA8246DBF80030AAF104024AF8053068
:101500003B46984509D053F8041B42F8041FF8E7FE
:101510004FF47054EAE7A246ECE725F003050435E2
:10152000554441462B46494504D051F8042B43F815
:10153000042BF8E7A1EB08010D4438460AEB8404BC
:10154000FFF7D5F8C6E900A5B460BDE8F88F00BF85
:10155000349D010810B50A46D0E90114A14204D017
:10156000126841F8042B416010BDFFF7A3FFFBE7B1
:101570002DE9F0410368551A174682680446D21ACD
:1015800095420E4615D9284608F05AFA8046034679
:10159000B74204D016F8012B03F8012BF8E72068B6
:1015A0004544FFF7A9F8C4E90155C4F80080BDE837
:1015B000F0814268D21A95420BD825B118462A46C6
:1015C00015F030FA03461D446368AB42EFD0656006
:1015D000EDE7164412B1184615F024FA6368324656
:1015E0001946974204D012F8010B01F8010BF8E7F5
:1015F000BE1B1E446660DAE72DE9F0417248AAB0CE
:1016000008F092F912F01EF9704911F0BEFF0024A3
:1016100005466F4E6F4FDFF8D081002D44D00EABE2
:1016200003930BAB02930AAB019309AB009307AA98
:1016300008AB3146284616F007F9062808D0664858
:1016400008F072F940F2F521644804F06DFD2FE0D6
:101650000E9B11A804930B9BC4F1640103930A9B96
:1016600020440293099B3A460193089B0093079BF1
:1016700016F096F80444622C04DD2146584808F020
:1016800053F9DFE728462C2116F04DF9054658B1ED
:1016900011ABC4F1640118194246013416F080F808
:1016A000632CEAD00135B8E711A94E4808F03CF99F
:1016B00011A816F057F90023002878D0441C2046C2
:1016C000CDE90B330D9308F0BBF905460B98FFF7F6
:1016D00013F82B19CDE90B550D93002D3BD128465E
:1016E0000D95FFF709F841213C4804F01DFD00234A
:1016F00009AA3D490B98CDE90E33109316F0C9F9AC
:101700000546364F384E7DB3284616F02BF9D8B132
:10171000441C204608F094F90A9018B94D21384627
:1017200004F002FD294622460A9815F06DF9DDE91C
:101730000E31C91A891001310EA8FFF781FE18B1C8
:101740000AA90EA8FFF706FF09AA3146002016F0E5
:10175000A0F90546D7E711AA4FF00003224411A9CA
:101760000BA8FFF705FFC2E728460E9E0F9C0E95BB
:10177000CDE90F55FEF7BBFF0B98FEF7BDFF0BF051
:10178000A7FD1A4B35461860194808F0CDF8DFF868
:101790006C80184FA5420DD055F8041B40460E91A1
:1017A00008F0C2F80EA93846FFF7D4FEF2E7044667
:1017B0000646E4E7104B30461C78FEF798FF2046BB
:1017C0002AB0BDE8F08100BF7F970108A09601080C
:1017D00092970108F4970108A497010863980108FB
:1017E0000D9801084998010847980108B40600209F
:1017F000A29801089804002004080020B09801086D
:10180000FF2208B5074B08481A700023074AC0E9B1
:1018100000338360064913F0F5FCBDE80840054835
:1018200012F04ABEB80600209804002000000020F4
:1018300003070008A406002008B5102008F000F9EE
:101840001022002115F008F908BD10B5044680B13A
:10185000006801F08CF8606801F089F8A06801F078
:1018600086F8E06801F064FD2046BDE8104008F00D
:10187000D1B810BD38B50446FFF7DEFF0546204657
:1018800001F066FA702806D00123E3602846FFF7CE
:10189000DCFF002528E0204601F035FA0428F3D1CA
:1018A000204601F071F82860204601F04CFA00282B
:1018B000ECD1204601F068F86860204601F043FA58
:1018C0000028E3D1204601F05FF8A860204601F02F
:1018D0003AFA0028DAD1204601F0D1FDE86020462E
:1018E00001F031FA0028D1D1284638BD10B50446A0
:1018F000012008F0A5F8047010BD70B5044601F091
:1019000039FA30B9204601F023FA402803D00123E8
:10191000E360002070BD204601F0F5F9012805467E
:10192000F5D1204601F01AFA06462946204636B17E
:1019300001F01CFAFF20BDE87040FFF7D7BF01F0AF
:1019400015FA3046F7E708B108F064B8704708B5F3
:10195000042008F075F80023036008BD10B50446A4
:1019600038B1006801F003F82046BDE8104008F0E7
:1019700051B810BD38B50446FFF7E9FF05462046CB
:1019800001F0E6F9702806D00123E3602846FFF74E
:10199000E5FF00250DE0204601F0B5F90128F3D15F
:1019A000204600F0F1FF2860204601F0CCF9002825
:1019B000ECD1284638BD08B5042008F041F80023D2
:1019C000036008BD10B5044638B1006800F0CFFFD1
:1019D0002046BDE8104008F01DB810BD38B50446DB
:1019E000FFF7E9FF0546204601F0B2F9702806D05E
:1019F0000123E3602846FFF7E5FF00250DE02046C0
:101A000001F081F90128F3D1204600F0BDFF2860E4
:101A1000204601F098F90028ECD1284638BD10B5D1
:101A2000044698B1006800F0A2FF606800F09FFFD4
:101A3000206900F09CFFA06800F099FFE06800F0CA
:101A400096FF2046BDE8104007F0E4BF10BD38B552
:101A50000446142007F0F4FF14220021054614F078
:101A6000FBFF204601F074F9702806D00123E360E3
:101A70002846FFF7D4FF002531E0204601F043F966
:101A80000528F3D1204600F07FFF2860204601F0B2
:101A90005AF90028ECD1204600F076FF6860204615
:101AA00001F051F90028E3D1204600F06DFFA86055
:101AB000204601F048F90028DAD1204600F064FF02
:101AC000E860204601F03FF90028D1D1204600F01F
:101AD0005BFF2861204601F036F90028C8D128466E
:101AE00038BD08B51C2007F0ABFF1C22002114F004
:101AF000B3FF08BD10B50446C8B1006800F037FF59
:101B0000606800F034FFA06800F031FFE06801F089
:101B100088F9206900F0E6FC606900F028FFA06900
:101B200001F07FF92046BDE8104007F073BF10BDFB
:101B300038B50446FFF7D5FF0546204601F008F901
:101B4000702806D00123E3602846FFF7D3FF002565
:101B500043E0204601F0D7F80728F3D1204600F0F3
:101B600013FF2860204601F0EEF80028ECD1204653
:101B700000F00AFF6860204601F0E5F80028E3D194
:101B8000204600F001FFA860204601F0DCF80028A4
:101B9000DAD1204601F054F9E860204601F0D3F88C
:101BA0000028D1D1204600F0A7FC2861204601F092
:101BB000CAF80028C8D1204600F0E6FE6861204639
:101BC00001F0C1F80028BFD1204601F039F9A86121
:101BD000204601F0B8F80028B6D1284638BD08B52F
:101BE000142007F02DFF1422002114F035FF08BD4A
:101BF00010B5044698B1006800F0B9FE606800F0C6
:101C0000B6FEA06800F0B3FEE06801F064F9206958
:101C100000F0ADFE2046BDE8104007F0FBBE10BD51
:101C200038B50446FFF7DBFF0546204601F090F883
:101C3000702806D00123E3602846FFF7D9FF00256E
:101C400031E0204601F05FF80528F3D1204600F08E
:101C50009BFE2860204601F076F80028ECD1204653
:101C600000F092FE6860204601F06DF80028E3D194
:101C7000204600F089FEA860204601F064F80028A4
:101C8000DAD1204601F042F9E860204601F05BF825
:101C90000028D1D1204600F077FE2861204601F0CF
:101CA00052F80028C8D1284638BD08B50C2007F0E6
:101CB000C7FE002202604260826008BD10B5044683
:101CC00068B1006800F053FE606801F004F9A06894
:101CD00001F02EFB2046BDE8104007F09BBE10BD72
:101CE00038B50446FFF7E1FF0546204601F030F81D
:101CF000702806D00123E3602846FFF7DFFF0025A8
:101D00001FE0204600F0FFFF0328F3D1204600F03B
:101D10003BFE2860204601F016F80028ECD1204652
:101D200001F0F4F86860204601F00DF80028E3D1D6
:101D3000204601F0A4FBA860204601F004F800282A
:101D4000DAD1284638BD08B5242007F079FE2422D0
:101D5000002114F081FE08BD10B50446F8B10068FA
:101D600000F005FE606801F05CF8A06800F0E4FD9A
:101D7000E06801F0B0F8206901F053F8606900F004
:101D8000DBFDA06900F0DCFAE06900F0F0FD206AFC
:101D900000F0EDFD2046BDE8104007F03BBE10BD51
:101DA00038B50446FFF7CFFF0546204600F0D0FFC8
:101DB000702807D001232846E360FFF7CDFF0025F8
:101DC000284638BD204600F09EFF0928F2D1204663
:101DD00000F0DAFD2860204600F0B5FF0028E9D1C8
:101DE000204601F02DF86860204600F0ACFF002886
:101DF000E0D104226021204600F055FDA860204675
:101E000000F0A1FF0028D5D1204601F07FF8E8605E
:101E1000204600F098FF0028CCD1204601F010F8B1
:101E20002861204600F08FFF0028C3D108226021DE
:101E3000204600F038FD6861204600F084FF00284D
:101E4000B8D10F4A0F49204600F0A3FAA8612046F6
:101E500000F079FF0028ADD1204600F095FDE86143
:101E6000204600F070FF0028A4D1204600F08CFD31
:101E70002862204600F067FF0028A1D09AE700BF43
:101E8000A93200086933000808B5242007F0D8FDFE
:101E90002422002114F0E0FD08BD70B5044638B3DB
:101EA000006800F064FD606800F061FDA06800F06B
:101EB0005EFDE068FFF747FD206900F0B2FF606952
:101EC00000F0AFFFA06901F006F8E56945B1D5E97A
:101ED000000600F04CFD284607F09CFD3546F5E76E
:101EE000206A01F025FA2046BDE8704007F092BD57
:101EF00070BD2DE9F8430446FFF7C6FF05462046AE
:101F000000F026FF702806D00123E3602846FFF783
:101F1000C4FF002550E0204600F0F5FE0928F3D16B
:101F2000204600F031FD2860204600F00CFF00281C
:101F3000ECD1204600F028FD6860204600F003FF49
:101F40000028E3D1204600F01FFDA860204600F0E5
:101F5000FAFE0028DAD12046FFF7CFFCE8602046E1
:101F600000F0F1FE0028D1D1204600F069FF286181
:101F7000204600F0E8FE0028C8D1204600F060FFAF
:101F80006861204600F0DFFE0028BFD1204600F047
:101F9000BDFFA861204600F0D6FE0028B6D120463D
:101FA00000F0E8FE58B1204601F069FA28622046A8
:101FB00000F0C9FE0028A9D12846BDE8F8832046D4
:101FC00000F0C6FE70289FD1204600F09CFE4FF026
:101FD00000080746C146002FE5DD082007F030FD68
:101FE0000646C0F80090C0F80490204600F0CCFCF3
:101FF0003060204600F0A7FE002887D1EB691BB9AE
:10200000EE61013FB046E6E7C8F80460F9E710B5B5
:10201000044668B1006800F0AAFC606800F08CFC1F
:10202000A06800F089FC2046BDE8104007F0F2BC33
:1020300010BD10B5044680B1006800F0F2FE606883
:1020400000F07AFCA06800F07BF9E06800F08FFCFB
:102050002046BDE8104007F0DDBC10BD10B50446B9
:1020600050B1006801F05EFA606800F080FC204624
:10207000BDE8104007F0CEBC10BD08B5202007F029
:10208000DFFC2022002114F0E7FC08BD10B5044657
:10209000E0B1006800F06BFC606800F0C2FEA06870
:1020A00000F04AFCE06800F016FF206900F048F9F3
:1020B000606900F045F9A06900F059FCE06900F0A2
:1020C00056FC2046BDE8104007F0A4BC10BD00003F
:1020D00038B50446FFF7D1FF0546204600F038FE2C
:1020E000702807D001232846E360FFF7CFFF0025C3
:1020F000284638BD204600F006FE0828F2D12046CA
:1021000000F042FC2860204600F01DFE0028E9D1C6
:10211000204600F095FE6860204600F014FE00287E
:10212000E0D104226021204600F0BDFBA8602046DB
:1021300000F009FE0028D5D1204600F0E7FEE86057
:10214000204600F000FE0028CCD1144A1449204655
:1021500000F01FF92861204600F0F5FD0028C1D1EC
:10216000104A1149204600F014F96861204600F039
:10217000EAFD0028B6D1204600F006FCA861204602
:1021800000F0E1FD0028ADD1204600F0FDFBE86144
:10219000204600F0D8FD0028AAD0A3E70F200008B1
:1021A000BF210008332000084122000808B50C2098
:1021B00007F046FC002202604260826008BD38B52C
:1021C0000446FFF7F3FF0546204600F0C1FD7028E6
:1021D00007D001232846E360FFF719FF00252846B2
:1021E00038BD204600F08FFD0328F2D1204600F0D4
:1021F000CBFB2860204600F0A6FD0028E9D1012293
:102200006021204600F04FFB6860204600F09BFDF7
:102210000028DED101225021204600F044FBA860B6
:10222000204600F090FD0028D9D0D2E708B5102054
:1022300007F006FC1022002114F00EFC08BD00007F
:1022400038B50446FFF7F2FF0546204600F080FD52
:10225000702807D001232846E360FFF7EAFE002537
:10226000284638BD204600F04EFD0428F2D1204615
:1022700000F0E6FD2860204600F065FD0028E9D169
:1022800008226021204600F00EFB6860204600F026
:102290005AFD0028DED10A4A0A49204600F079F8A2
:1022A000A860204600F04FFD0028D3D1204600F062
:1022B0006BFBE860204600F046FD0028D0D0C9E75F
:1022C0005D200008D922000808B5082007F0B8FBF7
:1022D00000220260426008BD38B50446FFF7F4FFF3
:1022E0000546204600F034FD702807D0012328461B
:1022F000E360FFF7B3FE0025284638BD204600F016
:1023000002FD0228F2D1204601F022F92860204681
:1023100000F019FD0028E9D1204600F035FB686087
:10232000204600F010FD0028E6D0DFE710B5044697
:102330000C2007F085FB002202604260846010BD23
:1023400038B5044688B938BD50F82500A3689847C9
:102350000135D4E90003AB42F6DC08B107F05AFBC3
:102360002046BDE8384007F055BB0025F1E738B5F9
:1023700004460D464168013141608900006815F04E
:10238000F7F96368206003F18043013B40F8235074
:1023900038BD2DE9F84305468846164600F0D8FCBE
:1023A00070281AD13046FFF7C1FF0446284600F0D6
:1023B000AAFC00260746BE4202DB2046BDE8F883A1
:1023C0002846C0478146284600F0BDFC28B949464A
:1023D0002046FFF7CCFF0136EDE701232046EB60F6
:1023E000FFF7AEFF0024E8E708B5202007F028FB40
:1023F0002022002114F030FB08BD38B5044600F05F
:10240000A7FC702804D001230025E360284638BDCE
:10241000204600F078FC0728F5D1FFF7E5FF0546D8
:10242000204600F0B1FA2860204600F08CFC00281D
:10243000E9D1204600F0BCFC6860204600F083FC37
:102440000028E0D1204600F0FBFCA860204600F008
:102450007AFC0028D7D101226021204600F023FA1F
:10246000E860204600F06FFC0028CCD1012250210A
:10247000204600F018FA2861204600F064FC00288D
:10248000C1D1204601F064F86861204600F05BFC91
:102490000028B8D1204600F077FAA861204600F065
:1024A00052FC0028B2D0AEE710B50446C8B10068AF
:1024B00000F05DFA606800F06FFCA06800F0B1FC0D
:1024C000E06800F039FA206900F036FA606901F03E
:1024D00029F8A06900F04BFA2046BDE8104007F04B
:1024E00099BA10BD10B530B1C469FFF7DDFF14B162
:1024F0002046E469F9E710BDF8B5054600F03AFC5E
:10250000044608B1002406E0284600F021FC7028AB
:1025100003D00123EB602046F8BD284600F0F3FB12
:10252000061EEFDD2846FFF768FF0446284600F048
:102530000AFC70B92746013E002EECD02846FFF772
:102540005CFFF861284600F0FEFB10B9FF69013E10
:10255000F2E701232046EB60FFF7C4FFD2E700005B
:1025600038B50546082007F06BFA002304460360DF
:102570004360284600F0ECFB702806D00123EB6096
:10258000204607F047FA002459E0284600F0BBFB3C
:102590000228F3D104226021284600F084F920604B
:1025A000284600F0D0FB0028EAD123681968B1F56D
:1025B000806F52D01DD8B1F5007F46D00AD8B1F552
:1025C000807F38D040F2011399423AD02F4815F05D
:1025D0005FF834E0B1F5407F3FD040F201339942DB
:1025E00037D040F201239942F0D12846FFF7F6F99F
:1025F00024E0B1F5C06F3CD00ED8B1F5A06F30D05B
:1026000040F20153994230D040F201439942DDD16A
:102610002846FFF7C5FB11E040F2017399422CD028
:102620004FF6017399422CD0B1F5E06FCED1284618
:10263000FFF70DFA02E0284600F032FA606020460B
:1026400038BD284600F0A9FAF8E72846FFF792F9C6
:10265000F4E72846FFF73CFDF0E72846FFF749FC82
:10266000ECE72846FFF7DCFAE8E72846FFF738FBF7
:10267000E4E7284600F002FBE0E72846FFF758FAB7
:10268000DCE72846FFF7F6F8D8E700BFF69E01081A
:1026900010B50446002875D003681A68B2F5806F3B
:1026A00054D01ED8B2F5007F4CD00BD8B2F5807F45
:1026B00039D040F201139A4240D03349334814F0E4
:1026C000E7FF33E0B2F5407F40D040F201339A4259
:1026D00040D040F201239A42EFD14068FFF772F9EF
:1026E00024E0B2F5C06F41D00ED8B2F5A06F35D05E
:1026F00040F201539A4235D040F201439A42DCD174
:102700004068FFF729FB11E040F201739A4231D093
:102710004FF601739A4231D0B2F5E06FCDD14068E7
:10272000FFF77DF902E0406800F09CF9206800F0B6
:1027300003F92046BDE8104007F06CB9406800F08E
:1027400011FAF3E74068FFF709F9EFE76068FFF770
:10275000A4FBEBE74068FFF799FCE7E74068FFF769
:1027600047FAE3E74068FFF7A9FADFE7406800F0BF
:102770006DFADBE74068FFF7BDF9D7E74068FFF780
:1027800064F8D3E710BD00BFC19E0108D79E0108C1
:1027900010B5044698B1006800F0E9F8606800F0F0
:1027A000CBF8A06800F0C8F8E068FFF771FF206977
:1027B00000F0C2F82046BDE8104007F02BB910BD6C
:1027C00038B50446142007F03BF9142200210546D1
:1027D00014F042F9204600F0BBFA702806D001231D
:1027E000E3602846FFF7D4FF00253FE0204600F0D5
:1027F0008AFA0628F3D1204600F0C6F82860204661
:1028000000F0A1FA0028ECD101226021204600F05E
:102810004AF86860204600F096FA0028E1D10122CB
:102820006021204600F03FF8A860204600F08BFAB7
:102830000028D6D12046FFF793FEE860204600F03E
:1028400082FA0028CDD102226021204600F02BF828
:102850002861204600F077FA0028C2D1204600F017
:102860007DFA18B90121204600F080FA284638BDCB
:10287000B0B5CB1D23F0070300AFADEB030D0A4647
:102880000C4605460146684614F0BEF800230DEBE1
:1028900004029C4202F1FF3201DCBD46B0BD11785A
:1028A000E9540133F5E72DE9F84305460C46174690
:1028B00000F060FA064638B9284600F049FAA0420E
:1028C000814603D00123EB6000242FE0284600F06E
:1028D0001AFAB0F10008F5DBB845F3DC384607F02A
:1028E000AFF831463A46044614F0B6F8284600F0F0
:1028F00035FAB9F1500F08BFC0F3C016284600F0F2
:1029000031FAA7EB0809A14401464246484614F0B3
:102910007BF81EB12346FF224B450AD1394620469B
:10292000FFF7A6FF4146284600F020FA2046BDE802
:10293000F88303F8012BEFE708B107F06BB8704795
:1029400070B5064608200D4607F07AF800239D4230
:1029500004460360436008DD284607F071F82A4604
:102960002060314614F050F86560204670BD10B507
:10297000044640B1006808B107F04CF82046BDE8B5
:10298000104007F047B810BD70B5044600F0F2F9EA
:1029900028B9204600F0DCF918B10123E3600025D6
:1029A0000FE0204600F0AFF9061EF6DB204600F0EF
:1029B000D9F93146FFF7C4FF31460546204600F0FD
:1029C000D5F9284670BD03463038C0B209280DD964
:1029D000A3F16102052A02D8573BD8B27047A3F190
:1029E0004102052A01D8373BF7E70020704710B5B0
:1029F00004460078FFF7E7FF01466078FFF7E3FF42
:102A000040EA0110C0B210BD2DE9F84300AF044602
:102A100014F0A8FFC3071AD44510EB1D23F00703D9
:102A2000ADEB030DE8460DF1FF3604EB45094C45CF
:102A300006D129464046FFF783FFBD46BDE8F8832F
:102A40002046FFF7D4FF023406F8010FEFE700201D
:102A5000F3E708B51C2006F0F3FF1C22002113F059
:102A6000FBFF08BD10B50446C8B10068FFF77FFF43
:102A70006068FFF77CFFA068FFF779FFE068FFF769
:102A800076FF2069FFF773FF6069FFF770FFA069A9
:102A9000FFF752FF2046BDE8104006F0BBBF10BD57
:102AA00038B50446FFF7D5FF0546204600F050F93B
:102AB000702806D00123E3602846FFF7D3FF0025E6
:102AC00045E0204600F01FF90728F3D12046FFF724
:102AD0005BFF2860204600F036F90028ECD1204644
:102AE000FFF752FF6860204600F02DF90028E3D17F
:102AF0002046FFF749FFA860204600F024F900288F
:102B0000DAD12046FFF740FFE860204600F01BF9CD
:102B10000028D1D12046FFF737FF2861204600F07A
:102B200012F90028C8D12046FFF72EFF6861204621
:102B300000F009F90028BFD1012260212046FFF7EB
:102B4000B2FEA861204600F0FEF80028B4D1284665
:102B500038BD08B5182006F073FF1822002113F0C5
:102B60007BFF08BD10B50446B0B10068FFF7FFFE5B
:102B70006068FFF7FCFEA068FFF7F9FEE068FFF76A
:102B8000F6FE206900F04DF96069FFF7D5FE20469A
:102B9000BDE8104006F03EBF10BD38B50446FFF753
:102BA000D8FF0546204600F0D3F8702806D0012350
:102BB000E3602846FFF7D6FF00253CE0204600F002
:102BC000A2F80628F3D12046FFF7DEFE2860204653
:102BD00000F0B9F80028ECD12046FFF7D5FE686078
:102BE000204600F0B0F80028E3D12046FFF7CCFEE5
:102BF000A860204600F0A7F80028DAD12046FFF7A9
:102C0000C3FEE860204600F09EF80028D1D120469F
:102C100000F016F92861204600F095F80028C8D188
:102C2000012260212046FFF73EFE6861204600F049
:102C30008AF80028BDD1284638BD08B5142006F012
:102C4000FFFE1422002113F007FF08BD10B5044653
:102C500098B10068FFF78BFE6068FFF788FEA068F8
:102C6000FFF785FEE06800F036F9206900F060FBB0
:102C70002046BDE8104006F0CDBE10BD38B5044674
:102C8000FFF7DBFF0546204600F062F8702806D00B
:102C90000123E3602846FFF7D9FF002531E02046F5
:102CA00000F031F80528F3D12046FFF76DFE2860CB
:102CB000204600F048F80028ECD12046FFF764FEDB
:102CC0006860204600F03FF80028E3D12046FFF777
:102CD0005BFEA860204600F036F80028DAD12046D6
:102CE00000F014F9E860204600F02DF80028D1D15A
:102CF000204600F0C4FB2861204600F024F800289C
:102D0000C8D1284638BDF0B5836805680022EB5C61
:102D1000466803F07003703B18BF4FF0FF338168C3
:102D2000B14201F1010402D38460D018F0BD695CA6
:102D300001F00F07090647EA0212F5D58460002B5F
:102D4000EDD0013BEBE7C068003018BF01207047B1
:102D500002688368D05C00F0700070470268836886
:102D6000D05C7047026880681044704783681944DB
:102D700081607047826803689B5C012B03BF01324E
:102D8000826018460020704708B5082006F058FEFB
:102D900000220260426008BD10B5044638B14068A8
:102DA000FFF7CAFD2046BDE8104006F033BE10BD57
:102DB000F8B50646FFF7DEFF30BB3046FFF7C8FF29
:102DC00005463046FFF7CAFF0746FFF7DDFF602DD7
:102DD000057004464FF0010519D107F00F07013FB8
:102DE00000E06D00AF42FCDC2A4660213046FFF770
:102DF0005AFD237860601D4325703046FFF7A3FF1E
:102E000018B12046FFF7C8FF00242046F8BDF56042
:102E1000F3E708B5082006F013FE002202604260C6
:102E200008BD10B5044650B10068FFF785FD606825
:102E3000FFF782FD2046BDE8104006F0EBBD10BD57
:102E400038B50446FFF796FF60B9FFF7E2FF054685
:102E50002046FFF77DFF702806D00123E360284657
:102E6000FFF7DFFF00251AE02046FFF74CFF02289E
:102E7000F3D1012260212046FFF715FD286020468E
:102E8000FFF761FF0028EAD1042260212046FFF706
:102E90000AFD68602046FFF756FF0028DFD128466C
:102EA00038BD08B5082006F0CBFD00220260426064
:102EB00008BD38B504460D4601680131016089003E
:102EC000406814F055FC2368606003F18043013BC7
:102ED00040F8235038BD38B50446B0B143687BB1E3
:102EE0000368002B0CDD0025636853F82500FFF70D
:102EF0003EFD23680135AB42F6DC606806F08AFDD2
:102F00002046BDE8384006F085BD38BDF8B5054619
:102F1000FFF730FF48B9FFF7C4FF04462846FFF724
:102F200017FF702803D00123EB60002405E028463A
:102F3000FFF7E9FE0646002E01DC2046F8BD2846D4
:102F4000FFF722FD07462846FFF7FDFE28B10123C3
:102F50002046EB60FFF7BFFFE7E71FB13946204689
:102F6000FFF7A7FF013EE6E708B5102006F068FD71
:102F70001022002113F070FD08BD38B504460D463F
:102F8000C1680131C1608900806814F0F1FBE36819
:102F9000A06003F18043013B40F8235038BD08B5E1
:102FA000082006F04DFD00220260426008BD08B511
:102FB0005C2006F045FD5C22002113F04DFD08BDAC
:102FC00010B50446002849D00068FFF7D0FC6068BF
:102FD000FFF727FFA068FFF7AFFCE068FFF7ACFC46
:102FE0002069FFF7A9FC6069FFF7A6FCA069FFF75D
:102FF000A3FCE069FFF7A0FC206AFFF79DFC606A74
:10300000FFF79AFCA06AFFF797FCE06AFFF794FCD1
:10301000206BFFF7ACFC606BFFF78EFCA06BFFF73B
:103020008BFCE06BFFF788FC206CFFF785FC606C85
:10303000FFF782FCA06CFFF77FFCE06CFFF77CFCE5
:10304000206DFFF779FC606DFFF776FCA06DFFF750
:103050008EFC2046BDE8104006F0DCBC10BD38B543
:103060000446FFF787FE60B9FFF7A1FF054620463B
:10307000FFF76EFE702806D00123E3602846FFF7B5
:103080009FFF002505E12046FFF73DFE1728F3D1FD
:103090002046FFF779FC28602046FFF754FE002801
:1030A000ECD12046FFF7CCFE68602046FFF74BFED0
:1030B0000028E3D1082260212046FFF7F4FBA86036
:1030C0002046FFF740FE0028D8D10122602120468B
:1030D000FFF7E9FBE8602046FFF735FE0028CDD179
:1030E000012250212046FFF7DEFB28612046FFF732
:1030F0002AFE0028C2D1082250212046FFF7D3FB28
:1031000068612046FFF71FFE0028B7D10122602129
:103110002046FFF7C8FBA8612046FFF714FE0028F1
:10312000ACD1012250212046FFF7BDFBE8612046CB
:10313000FFF709FE0028A1D1082250212046FFF701
:10314000B2FB28622046FFF7FEFD002896D101223F
:1031500060212046FFF7A7FB68622046FFF7F3FDDA
:1031600000288BD1012250212046FFF79CFBA8624A
:103170002046FFF7E8FD002880D108225021204694
:10318000FFF791FBE8622046FFF7DDFD00287FF4A2
:1031900075AF2046FFF7F8FB28632046FFF7D3FD05
:1031A00000287FF46BAF012260212046FFF77BFBF4
:1031B00068632046FFF7C7FD00287FF45FAF012258
:1031C00050212046FFF76FFBA8632046FFF7BBFDA9
:1031D00000287FF453AF082250212046FFF763FBFD
:1031E000E8632046FFF7AFFD00287FF447AF0122D8
:1031F00060212046FFF757FB28642046FFF7A3FD18
:1032000000287FF43BAF012250212046FFF74BFB03
:1032100068642046FFF797FD00287FF42FAF08224F
:1032200050212046FFF73FFBA8642046FFF78BFDA7
:1032300000287FF423AF012260212046FFF733FBF3
:10324000E8642046FFF77FFD00287FF417AF0122D6
:1032500050212046FFF727FB28652046FFF773FD26
:1032600000287FF40BAF082250212046FFF71BFBFC
:1032700068652046FFF767FD00287FF4FFAE204613
:10328000FFF782FBA8652046FFF75DFD00287FF46D
:10329000F5AE284638BD08B5142006F0D1FB14223F
:1032A000002113F0D9FB08BD10B5044698B10068A1
:1032B000FFF75DFB6068FFF73FFBA068FFF73CFB93
:1032C000E06800F02FF92069FFF751FB2046BDE8C8
:1032D000104006F09FBB10BD10B5044638B3D0E9CE
:1032E0000030FBB11B78013B032B16D8DFE803F05D
:1032F000020C0F1200F016F92068FFF71DFB2046A4
:10330000BDE8104006F086BBFFF7CEFFF4E7FFF7FD
:1033100057FEF1E7FFF785FDEEE70028ECD006F059
:1033200079FBE9E70028EAD006F074FBE7E710BD77
:1033300038B50446B8B10068FFF719FB6068FFF7BD
:10334000CBFF0025D4E90203AB4206DC06F062FBAA
:103350002046BDE8384006F05DBB50F82500FFF779
:10336000E7FF0135EEE738BD38B50446FFF702FD4B
:1033700060B9FFF790FF05462046FFF7E9FC70288B
:1033800006D00123E3602846FFF78EFF002535E0D5
:103390002046FFF7B8FC0528F3D12046FFF7F4FAE2
:1033A00028602046FFF7CFFC0028ECD101226021E5
:1033B0002046FFF778FA68602046FFF7C4FC002833
:1033C000E1D1012250212046FFF76DFAA860204686
:1033D000FFF7B9FC0028D6D1204600F0B9F8E86024
:1033E0002046FFF7B0FC0028CDD12046FFF7CCFAED
:1033F00028612046FFF7A7FC0028C4D1284638BD25
:1034000038B50546FFF7B6FC60B9FFF7C8FD0446BE
:103410002846FFF79DFC702806D00123EB6020466C
:10342000FFF75AFF00241CE02846FFF76CFC022837
:10343000F3D1012260212846FFF735FA20602846A3
:10344000FFF781FC0028EAD123681B78013B032B9E
:10345000E3D8DFE803F002080C10284600F078F803
:103460006060204638BD2846FFF77EFFF8E7284613
:10347000FFF7F5FDF4E72846FFF7E2FCF0E7F8B5C3
:103480000446FFF777FC60B9FFF76EFD054620465E
:10349000FFF75EFC702806D00123E3602846FFF7A3
:1034A00047FF002525E02046FFF72DFC0328F3D138
:1034B0002046FFF769FA28602046FFF744FC002801
:1034C000ECD12046FFF79CFF68602046FFF73BFCED
:1034D0000028E3D12046FFF74DFC50B92046FFF706
:1034E00037FC7028D8D12046FFF70DFC0646002E89
:1034F00001DC2846F8BD2046FFF7C1FF07462046FD
:10350000FFF721FC0028C9D11FB139462846FFF733
:1035100034FD013EEBE708B5082006F091FA0023E0
:10352000036008BD10B5044688B10378406823B134
:10353000402B09D0FFF700FA01E0FFF718FA204608
:10354000BDE8104006F066BAFEF7FDF9F7E710BDDA
:10355000F8B50546FFF70EFC38BB2846FFF7F8FB29
:1035600006462846FFF7FAFB0746FFF7D4FFF1B2FD
:10357000402E044601701BD003DC5EB10123EB60DA
:103580000CE0502E01D0602EF8D107F00F07012675
:10359000013F12E02846FFF7F7F960602846FFF781
:1035A000D2FB18B12046FFF7BDFF00242046F8BD2E
:1035B0002846FEF7A2F9F0E77600B742FCDC324677
:1035C0002846FFF770F9237860601E432670E5E710
:1035D00038B50A4C05460121204603F039FB00238B
:1035E00020461A46012103F071FA85F001022046B7
:1035F000BDE83840012103F037BB00BF00000240A6
:1036000008B50120FFF7E4FFBDE80840032004F0FF
:1036100025BA0846FFF7DCBF10B50446024B03602D
:1036200011F09AFD204610BD2C9F010810B50446EC
:10363000054B283040F8283C044B40F8083CFFF785
:10364000EBFF204610BD00BF0CA2010810A401082A
:1036500010B50446FFF7E0FF2046082110F09AFF5E
:10366000204610BD10B50446FFF7E0FF2046542168
:1036700010F090FF204610BD084603F043B800004C
:10368000024B0121186803681B6818478407002053
:10369000024B186803685B68184700BF8407002066
:1036A000044B011C1B6818BF01211A681846926858
:1036B000104700BF8407002010B5094C094806F0E8
:1036C00033F920460B2103F0C3FA002320461A46A3
:1036D0000B2103F0FBF9BDE8104002F0F9BF00BF79
:1036E00000000240B9A1010808B5022002F054FF11
:1036F00002F0B6FF00F090FB02F0DCFF00F070FD7E
:1037000003F03CFD0A4802F0D5FC4FF4E13004F030
:1037100019F8084B1A680AB9074A1A60074B1A6861
:103720000AB9054A1A600648BDE8084006F0FCB828
:1037300001360008B80B0020F9750008BC0B00200A
:103740009B9F010838B5044611F09EFC23460025D6
:103750002146114A04F1200043F8112BC4F81150FE
:103760005D600E4B41F81C3F00F0B8FE0C4B84F836
:10377000345023630B4BC4E91255A3630A4B84F8FE
:103780005050E363094B0A482364032384F8443010
:1037900006F0CAF8204638BD0CA20108F4A20108C0
:1037A00044A3010874A3010860A3010800040240B7
:1037B000EDA1010810B5094CFFF796FF2368DB0760
:1037C00009D40748FFF7BEFF0123064A064904480B
:1037D000236011F017FD024810BD00BF60070020F4
:1037E00088070020000000202D36000838B5064D5F
:1037F000064C2B6813F0010F04D1FFF7DBFF012308
:1038000020602B60206838BD64070020DC070020A2
:1038100008B50B21054803F035FA28B1BDE808408A
:103820000B21024803F042BA08BD00BF000002406D
:1038300008B519B1BDE80840FFF73EBF044806F0DF
:1038400073F8BDE8084002220B21024803F07CB95E
:10385000D5A101080000024038B504462C4804F107
:103860001C0506F061F82846002100F0E1FC00216B
:10387000284600F0F3FC204611F036FC0BF044FE25
:1038800020460021FFF7D4FF0AF0FAFE01220C21A6
:10389000204803F059F903F089FD04F1200000F0FD
:1038A0000DFE23682046DB68002198471A4D002151
:1038B00004F13C0000F052FD03F054FA174806F002
:1038C00033F803F037FE02F0F5FE284601220D2101
:1038D00003F03AF9012228460E2103F035F90021C0
:1038E000084603F021FD04F1300000F0CDFC4FF458
:1038F000E13003F027FF0A4806F016F80AF0E6FD6B
:1039000003F052FD2046BDE8384011F0FABB00BF7D
:1039100087A101080004024000000240ABA1010899
:1039200003AE010838B50546FFF772FF044628B11B
:1039300000212846FFF77CFF02F0CAFE02F0D0FD0E
:1039400005460CB1FFF7B8FE284638BD70B50C46E9
:1039500006461549204612F03BFD20B900212046BD
:1039600012F018FD70B11149204612F075FB12F0EB
:1039700039FD01460E4805F0D7FF4FF4AF710D48F1
:1039800002F0D2FB3046FFF743FF054648B9304608
:10399000FFF7C8FF0146204612F01AFD08B1FFF7F5
:1039A0008BFE284670BD00BF3333534000007A447D
:1039B000B19F0108E09F010870B52F4AD6B0136887
:1039C0000546DB0705D42D4900F13C030B600123BC
:1039D00013602B492846FFF7B9FF0646294805F032
:1039E000A3FF002105F11C0000F038FC264C274BFA
:1039F000E360274B2361274BA360274B6360274B72
:103A00002360274B6361274BA361274BE36104F1DC
:103A100010030FCB8DE80F0094E80F0011F084F82D
:103A2000002305A8C5F81130C5F8153011F004F8C9
:103A30009DF8143005F11104012B16D1DDF8153075
:103A400005A8C5F81130DDF81930C5F8153010F0AB
:103A5000C3FF164805F068FF0821204605F0CAFF9D
:103A6000BDF91611124805F05FFF31462846FFF7F1
:103A7000DFFE56B070BD00BF5C0700208407002049
:103A800000004040349F0108BC5200200567000838
:103A90008D6600088136000891360008A1360008BE
:103AA0002999000845BC000885BC0008559F0108FD
:103AB0007B9F01087FB5F82300F1300506462846B4
:103AC0008DF80F3000F0E6FB02230DF10F0100939B
:103AD0000122A023284600F0E1FB4FF40043082216
:103AE000009306F14801A0230446284600F000FC9C
:103AF0000440E4B2284600F0CFFB204604B070BD7D
:103B000030B504468BB0594805F00EFF204600F052
:103B10001DFB04F1300500F059FA00F005FA544895
:103B2000544905F001FF284600F0AEFB38B9524871
:103B300005F0FAFE4FF48E71504802F0F5FA02F0EB
:103B4000C7FD2046FFF7B6FF20B940F221114B48D0
:103B500002F0EAFA94F84F304948049394F84E3052
:103B6000039394F84D30029394F84C30019394F8F9
:103B70004B30009394F84A3094F8492094F8481058
:103B800005F0D2FE284600F0D1F9284600F030FAC0
:103B900004F11C0584F850000021284600F048FB81
:103BA000012000F0A9FC0021284600F057FB01206D
:103BB00000F0C0FC2046FFF7FFFE00F065FA314838
:103BC00005F0B2FE4FF4FA7012F00EFF0446002822
:103BD00044D12D4805F0A8FE2C4805F0A5FE2C4840
:103BE00005F0A2FE2B4805F09FFE2B4805F09CFE39
:103BF0002A4805F099FE2A4805F096FE294805F066
:103C000093FE294805F090FE284A2949294805F0E5
:103C10008BFE2949294805F087FE294805F084FED6
:103C2000284B294A1B6829490093294B12681B68B5
:103C3000284813F0E9FD2749274805F075FE07A835
:103C400003F034FA07A805F0CFFD0146234805F03C
:103C50006BFE0F4805F068FE0BB030BD204805F044
:103C600063FE204612F0C8FEB6E700BF20A00108A0
:103C700032A00108A08601004DA00108E09F0108C4
:103C800063A001084E9D010898A00108B6A1010893
:103C9000889D0108CCA00108DBA00108FDA0010857
:103CA00020A1010844A10108B7A10108B99D01089C
:103CB000C49D0108CF9D0108DF9D0108E69D010814
:103CC00067A101086400F81F5000F81F119E010849
:103CD0005400F81F68070020239E01082E9E01084B
:103CE0007C9D0108024B186803685B68184700BF99
:103CF000EC070020024B186803689B68184700BF58
:103D0000EC0700200023F0B513701446022205468C
:103D10000C4E85B030688DF80F1003680092DF6894
:103D200001222B460DF10F01B84748B14FF4004274
:103D300030682146036800921E6901222B46B04775
:103D400005B0F0BDEC07002030B585B08DF80D2032
:103D50000022074B8DF80C101C6803A92368009201
:103D6000DD68022203462046A84705B030BD00BFEB
:103D7000EC07002037B54FF40045064B1C6823685C
:103D800000951D6913460A4601462046A84703B020
:103D900030BD00BFE807002037B50025054B1C6883
:103DA00023680095DD6813460A4601462046A84769
:103DB00003B030BDE807002037B50225054B1C686D
:103DC000236800951D6913460A4601462046A84708
:103DD00003B030BDE8070020024B186803681B6879
:103DE000184700BFE8070020024B186803685B68AB
:103DF000184700BFE8070020024B186803689B685B
:103E0000184700BFE80700204FF47A735843B0FB0F
:103E1000F3F009F0B5BB000010B5424C0AF082FC8B
:103E200020460222002102F08FFE01222046114688
:103E300002F08AFE20460122022102F085FE204681
:103E40000222032102F080FE20460022042102F01B
:103E50007BFE20460222082102F076FE2046012247
:103E6000092102F071FE204601220A2102F06CFEB7
:103E7000204602220B2102F067FE02F01BFC002309
:103E800020461A460C2102F021FE204600220C2179
:103E900002F0EAFE2046002204F580640F2102F0C1
:103EA00053FE20460122002102F04EFE2046002251
:103EB000022102F049FE20460022032102F044FEC6
:103EC00020460222062102F03FFE20460022082161
:103ED00002F03AFE20460022092102F035FE20467B
:103EE00001220C2102F030FE204602220D2102F0B8
:103EF0002BFE204602220E2102F026FE2046022240
:103F00000F2102F021FE002304F5806420461A46AA
:103F10000D2102F0DBFD2046BDE8104000220D21FE
:103F200002F0A2BE0000024003F028B91C4B00B50D
:103F30001A6889B0D2075FBF1A4A106001221A605E
:103F4000194B0493194B0593194B0393194B029387
:103F5000194B0793194B069308AB13E903008DE83F
:103F6000030002AB0FCB10F08DFC90B1144805F0AC
:103F7000DBFC00221348114602F0E6FD0F2302226B
:103F80000021104802F080FC09B05DF804EB10F04D
:103F900013BC69210C4809B05DF804EB02F0C4B809
:103FA000E4070020EC070020E53C0008F53C000891
:103FB000053D0008493D000829990008093E000810
:103FC00099A2010800000240AAA20108002307B537
:103FD000ADF8043001238DF8063001980AF0FEFA9E
:103FE00002F068FB03B05DF804EB0AF049BB000087
:103FF000194B10B51A688CB0D2075FBF174A106012
:1040000001221A60164B0793164B0593164B069325
:10401000164B0893164B0993164B0A93164B0B93AA
:104020000CAB13E907008DE8070005AB0FCB10F0D0
:104030004DFB044601220F21104802F085FD3CB1E2
:104040000F4805F071FC10F01FFB20460CB010BDAE
:104050000C4805F069FCF8E7E0070020E8070020BD
:10406000753D0008993D0008B93D0008D93D00089C
:10407000E93D0008F93D00082999000800000240C8
:1040800020A2010853A201082DE9F0479AB00AF0D6
:1040900015FFDFF8B490244C244E254F12AD50B9D3
:1040A000CDE91544CDE91376CDF84890009495E814
:1040B0000F000AF009FF1F4B4FF0000A13931E4B2D
:1040C0004FF0010812931D4B06A914931C4B284670
:1040D00015931C4BCDE91876CDE916340423CDE9B0
:1040E000063A8DF81D8006F0ABF906F09DF913F045
:1040F000E7FA514610220EA812F0AEFC0323CDE9D8
:1041000008440D938DF83D8001AC0DAD0FCDCDE988
:104110000A970FC42B682360009608AB0FCB0BF0F7
:104120000BF91AB0BDE8F08729990008159A000824
:10413000419A000805E60008CDE40008DDE3000828
:1041400075E3000889E30008697100082DE9F0476C
:10415000044602F0C5F91E49054611F07DFF12F034
:1041600041F901461B4805F0DFFB4FF0804128462E
:1041700012F010F948B30025DFF86090DFF85080A6
:10418000154E02F0ADF94946074612F017F9A8B9E5
:104190004146384611F060FF12F024F901463046DE
:1041A00005F0C2FB236885F001052046DB6829463F
:1041B00098474FF47A7002F0A5FAE2E723682046A8
:1041C000BDE8F047DB6800211847BDE8F08700BF75
:1041D00000007A4471A201087EA20108000020407C
:1041E00008B50D49012002F021FE0C490B2002F018
:1041F0001DFE0B490A2002F019FE0A49042002F0B4
:1042000015FE0949072002F011FEBDE808400749E4
:10421000052002F00BBE00BF75B7000885BA000884
:1042200011B900089DBB0008F1BA000879BB00086D
:10423000002310B50C461A460D21074802F046FC33
:1042400014B1012C00D010BD2246BDE810400D2154
:10425000014802F009BD00BF00080240002310B56C
:104260000C461A460C21074802F030FC14B1012C10
:1042700000D010BD2246BDE810400C21014802F0DC
:10428000F3BC00BF00000240014802F059BD00BF6E
:10429000A086010002F024BD02F03EBD2DE9F041F0
:1042A000069F1E4607F00303032B80460C46154667
:1042B00003D119210D4801F037FF2046BC073246D3
:1042C00029460AD502F076FD10B10120BDE8F08143
:1042D0000123002088F80430F8E7FB0702D502F03C
:1042E00077FDF1E702F058FDEEE700BFFCA2010800
:1042F0002DE9F041069C0D46E107804616461F4613
:1043000003D536210D4801F00FFFA20703D539214F
:104310000A4801F009FF23043A46314628460AD5E7
:1043200002F064FD10B10120BDE8F08101230020FE
:1043300088F80430F8E702F021FDF3E7FCA2010859
:1043400008B5017A406802F098FC003018BF0120DF
:1043500008BD0A46017A406802F086BC38B50446BA
:104360004068257A79B1012329461A4602F0AEFB4E
:10437000217A606802F06CFC217A60680322BDE853
:10438000384002F083BB2946BDE83840012202F0E4
:10439000DBBB02F0E9BE084611461A469DF8003024
:1043A00002F082BF02F02EBF02F046BF084602F0C4
:1043B000BFBDDFB50023CDE90133ADF80C300123DB
:1043C0008DF807308DF808306FF01D038DF8093037
:1043D0000723044601A88DF80A3005F0ECF923689C
:1043E00006461B6820460F469847864277EB010336
:1043F000B4BF0120002004B0D0BD7047704700005A
:104400007FB500F10806054630460C4610F0CEFE9A
:1044100010BB264805F088FAA27C617C244805F090
:1044200083FA637C3BB16868002103681B68984786
:10443000022000F061F8A37C3BB1686800210368AA
:104440005B689847022000F075F861684E290ED02D
:104450004F290CD045290AD06421304610F092FE35
:104460000028D9D13921134801F05EFED4E7A268B3
:10447000114B134413F8072CE3680A2B13D00CDC00
:10448000052BE9D1A07C0290607C0190207C0090FB
:10449000206803F091F904B070BD0F2BF2D0142BFB
:1044A000DAD10223EEE70123ECE700BF8FA3010876
:1044B000E8A30108A8A301088CA3010810B50446CD
:1044C00003F04CF904F10800BDE8104010F071BE93
:1044D000084603F041BA084603F06EBA10B5044628
:1044E000044BC0E900310121083010F06DFE204678
:1044F00010BD00BF10A40108042817D8DFE800F0A1
:104500000309100E1200002303211A46084802F086
:10451000DDBA00220321064802F016BB0222F9E7A9
:104520000122F7E70321024802F034BB704700BFC5
:1045300000000240042817D8DFE800F00309100E3D
:104540001200002302211A46084802F0BFBA0022D6
:104550000221064802F0F8BA0222F9E70122F7E741
:104560000221024802F016BB704700BF0000024063
:104570001FB553680293137801934B6800930B683F
:1045800042680178024805F0CFF905B05DF804FBF8
:1045900028A4010810B50446C06908B105F03AFA2C
:1045A000206908B105F036FA606808B105F032FA02
:1045B000204610BD10B50446006808F075F9204685
:1045C00010BD0000CA21014801F0AEBD46A401089B
:1045D000FE2307B58DF80430054B01A918680023A8
:1045E00000681A4607F0DEFE03B05DF804FB00BF6A
:1045F000FC070020D0B51F467423C0E9003100231A
:1046000004468360082016460FF0BAFFC0E9006731
:10461000A0602046D0BD0000036837B5632B054677
:104620000C4601D0FFF7CEFF002301AAA96820465F
:10463000019304F069FF019A3AB12146044805F05C
:1046400073F93821034801F06FFD03B030BD00BF9E
:1046500088A40108B5A4010870B563230025C0E94A
:104660000031044685601A2016460FF089FF1A2291
:10467000294612F0F1F93146A0602046FFF7CCFF41
:10468000204670BD81647047C16470472DE9F843CE
:10469000D0E90173884600254FF00C09DB1B0A4E58
:1046A0009B105E43ECB2B4420BD209FB047241464C
:1046B000506813F045F901350028F3D12046BDE8D4
:1046C000F8834FF0FF30FAE7ABAAAAAA2DE9F84326
:1046D000D0E90473884600254FF00C09DB1B0A4E15
:1046E0009B105E43ECB2B4420BD209FB047241460C
:1046F000506813F025F901350028F3D12046BDE8B4
:10470000F8834FF0FF30FAE7ABAAAAAA2DE9F047E9
:104710000E4649680446FFF7B9FFC0B2FF2807D02C
:1047200071682E4805F000F97C212D4801F0FCFC51
:10473000D4E901232B4F9B1A9B107B437E2B03D97B
:104740007F21274801F0F0FCD4E901120C25E06834
:10475000531A9B10121A7B4392107A4301339342EF
:1047600005FB03F80ED84144A160D4E9013496E872
:104770000700E31A04E907001A489B105843013860
:10478000BDE8F087404605F05BF9054618B9692198
:10479000154801F0C9FCD4E901C300274FF00C0A09
:1047A000A3EB0C030F4A9B1002FB03F9A9EB0703D1
:1047B000002B0ADD0AFB07F305EB030E634493E8C5
:1047C000070001378EE80700F0E7604605F022F9A0
:1047D00065604544C4E90255C7E700BFE6A9010882
:1047E000B5A40108ABAAAAAA06AA01081FB56E23A0
:1047F000CDE90131002301A90393FFF787FF05B03D
:104800005DF804FBFF2270B5002380F828200446E1
:104810004FF0FF32C0E90033C0E90233C0E904338E
:10482000C0E90633C0E908332264A4F8442084F8C0
:1048300046300522C4E91233002300204FF0004126
:104840001D4EC4E914233268C4E90C0112F00102C0
:10485000C4E90E010DD10121184D08462A6007F068
:10486000C7FC01232860164A16492846336010F019
:10487000C9FC154B1A680AB9104A1A601349204638
:10488000FFF7B4FF124B134918702046FFF7AEFF35
:10489000114B124918702046FFF7A8FF104B114921
:1048A00018702046FFF7A2FFFE220F4B18700F4B27
:1048B00020461A7070BD00BFF80700207008002065
:1048C00000000020B5450008FC07002013AB0108DC
:1048D000040800201BAB01080208002023AB0108DC
:1048E0000008002028AB0108030800200108002070
:1048F00010B5084C2368DB0709D40748FFF782FF8F
:104900000123064A06490448236010F07BFC024854
:1049100010BD00BFF4070020180800200000002090
:10492000954500082DE9F0470E4649680446FFF713
:10493000CDFEC0B2FF2807D071682E4804F0F4FF06
:1049400087212D4801F0F0FBD4E904232B4F9B1A5B
:104950009B107B437E2B03D98A21274801F0E4FB7F
:10496000D4E904120C25A069531A9B10121A7B4338
:1049700092107A430133934205FB03F80ED8414469
:104980006161D4E9043496E80700E31A04E90700FA
:104990001A489B1058430138BDE8F087404605F09F
:1049A0004FF8054618B96921154801F0BDFBD4E957
:1049B00004C300274FF00C0AA3EB0C030F4A9B1013
:1049C00002FB03F9A9EB0703002B0ADD0AFB07F33F
:1049D00005EB030E634493E8070001378EE80700F8
:1049E000F0E7604605F016F825614544C4E9055531
:1049F000C7E700BF3EAA0108B5A40108ABAAAAAA4E
:104A000006AA010838B5D0E901239B1A074A9B1072
:104A10005343CDB29D42044603D3A621044801F07E
:104A200083FB0C20636800FB053038BDABAAAAAA43
:104A3000B5A4010838B5CCB2114905460B6813F08E
:104A4000010307D170200F4A10600F48C2E901032B
:104A500001230B60FF2C10D0D5E904239B1A0B4ACD
:104A60009B1053439C4203D3B221094801F05CFBE5
:104A70000C23286903FB040038BD0248FCE700BF93
:104A8000F00700200808002035A50108ABAAAAAA53
:104A9000B5A4010810B5D0E90730C9B2D2B283423B
:104AA00009D01C788C4204D15C78944201D198786A
:104AB00010BD0333F3E74FF0FF30F9E72DE9F04184
:104AC000D0E904239B1A534A9B1053430D4609789F
:104AD0000446994203D393214F4801F025FBD4E9C2
:104AE00001239B1A4B4A9B1053436978994203D385
:104AF0009421494801F018FBD4E904239B1A454A44
:104B00009B105343A978994205D3FE2903D09521E0
:104B1000414801F009FB6A7829782046FFF7BAFF7F
:104B2000C3B2FF2B06462CD03C4804F0FDFE29788A
:104B30002046FFF77FFF697807462046FFF762FFB0
:104B4000314680462046FFF775FF4146024638460B
:104B5000FFF70EFD29782046FFF76CFF69780646BF
:104B60002046FFF74FFFA97807462046FFF762FF70
:104B7000394602463046FFF7FBFC9C21264801F0EF
:104B8000D3FAD4E90723234F9B1A7B437E2B03D907
:104B90009F21214801F0C8FAD4E90721606A8B1AE5
:104BA0007B43091A4F430133BB4203EB43080AD846
:104BB000424422622A88236A23F8032CAA7803F845
:104BC000012CBDE8F081404604F03AFF064618B9D2
:104BD0006921134801F0A8FAD4E907010B1A0D491D
:104BE00059430023CA1A002A0DDD03EB430287183C
:104BF000B7F800E006EB020C26F802E0BA780133C1
:104C00008CF80220EEE704F005FFE6614644C4E9B3
:104C10000866CFE7ABAAAAAAB5A401081AA501089D
:104C200006AA010813B5FF24074B8DF804401B6842
:104C30000A46186801A907F059FC012814BF20464C
:104C40009DF8040002B010BDFC07002038B5816853
:104C500000681D46144604F08BFF0346201845EB00
:104C6000E37138BD2DE9F0410E681046722E1F46E3
:104C700027D0742E08D0632E12D000244FF00045A8
:104C800020462946BDE8F0818B68D3E90023B3F1C3
:104C9000004F08BF002A19D0841847EB0305EFE73F
:104CA000886804F0F1FC002871F1000304460D4609
:104CB000E6DA084804F038FED921074801F034FA52
:104CC000DEE78868BDE8F041FFF7C0BF14461D4627
:104CD000D6E700BF3CA60108B5A401082DE9F047BE
:104CE0000F460646FFF7A6FE0024DFF85C904268F8
:104CF0000178FFB2124804F017FED6E9075845457F
:104D000016D02B78BB4211D169783046FFF77AFE76
:104D1000016869290AD1D0E9012A484604F004FE55
:104D2000DAF8003003B198470134E4B20335E6E71E
:104D30002146044804F0F8FD2046BDE8F08700BF96
:104D400062A60108ABA6010889A601082DE9F34770
:104D500007468846FFF76EFE0025426801781B482B
:104D600004F0E2FDFC693E6ADFF868900334033624
:104D70005FFA88F8A64220D0234633F8032D9B78AB
:104D8000ADF804208DF8063014F8033C984512D194
:104D90009DF805103846FFF735FE016869290AD1EC
:104DA000D0E9012A484604F0BFFDDAF8043003B127
:104DB00098470135EDB20334DCE72946044804F096
:104DC000B3FD284602B0BDE8F08700BFC9A60108C0
:104DD00016A70108F2A60108836C73B504460D46B8
:104DE000164623B94FF48A710D4801F09DF90D491B
:104DF000CDE9006423462A460B4808F047F801280D
:104E000001460AD0094804F08FFD4FF48D71044823
:104E100002B0BDE8704001F087B902B070BD00BFBC
:104E2000B5A40108B4A90108C9550008BFA9010823
:104E300038B590F846300446032B0D4604D940F2AD
:104E40002D11064801F070F994F846305A1C84F888
:104E500046201C4484F8425038BD00BFB5A4010868
:104E600010B590F84630044623B94FF499710648BE
:104E700001F05AF994F84630013BDBB284F8463031
:104E80001C4494F8420010BDB5A40108CBB2FE2B1F
:104E900037B5054605D1104803B0BDE8304004F0F1
:104EA00043BDFFF7C7FD016804466D290DD1017AA6
:104EB0002846FFF7BFFD436800930368D4E900125A
:104EC000064804F031FD03B030BD4268044803B029
:104ED000BDE8304004F028BDDDAA0108E5AA0108BC
:104EE0001CA8010808B5FFF78DFDBDE80840D0E912
:104EF0000012014804F018BD5EAA01082DE9F74F21
:104F000004462A4804F010FD4FF00008284FDFF84F
:104F1000B0A0DFF8B090D4E90431C91A8910794300
:104F20005FFA88F6B14231D9504604F0FDFC2046C4
:104F30003146FFF7ABFF94F82830DFF88CB0B3426E
:104F40000CBF1C48484604F0EFFCD4E907531A4A4A
:104F5000AB4218D02978B14213D11046019304F026
:104F6000E3FC69782046FFF7BDFF584604F0DCFCFF
:104F7000A9782046FFF78AFF484604F0D5FC019B3C
:104F80000D4A0335E4E708F10108C4E7D4E9072333
:104F90009B1AD4E90102121A92107B437A43074804
:104FA00003B0BDE8F04F04F0BFBC00BF66AA010823
:104FB000ABAAAAAA7EAA01088AAA01089BAA01088C
:104FC00075AA0108B7A1010897AA01082DE9F843BD
:104FD0000422054690F84610114804F0A5FC002470
:104FE000DFF848900F4F05F1420695F84630A3428E
:104FF00010DD16F8011B2846FFF71CFDD0F80480D1
:1050000014B1484604F090FC4146384604F08CFC4C
:105010000134EAE70448BDE8F84304F085BC00BF6A
:10502000CFAA0108D7AA0108DAAA010847980108FF
:1050300000232DE9F047C0E904330E461946D6E9AE
:1050400007574FF000430446C0E90213C0E90013BC
:10505000FF208846994620745FFA82FABD4220D02C
:105060002B7853451BD169783046FFF7CBFCDDE93F
:10507000082301463046FFF7F5FD494508BF404586
:105080000DD0D4E900234B4508BF424503D09042E0
:1050900071EB030303DA6B78C4E900012374033571
:1050A000DCE72046BDE8F087F8B50D460E4B896871
:1050B00006464B434FF47A71B3FBF1F1FFF7B2FDB3
:1050C0000446C7B2B06C03681B689847C6E90E0176
:1050D00004F0B4FB0146054804F026FCFF2F0CBF8A
:1050E000287C2046F8BD00BF40420F00F7A401080D
:1050F00070B504460D46806C86B003681C491B6978
:105100009847A06C03689B689847D5E9002303A8DB
:1051100004F02CFBA06C9DF80C20036800929DF815
:105120000F109DF80E205E689DF80D30B047A06C02
:105130000368DB689847E36C9847A06C03689B683A
:105140009847A06C03681B689847C4E90E0104F0F7
:1051500075FB0146074804F0E7FB00212046FFF7F6
:1051600061FDC0B2FE2808BF287C06B070BD00BF3C
:10517000D1450008F3AA01082DE9F84FD1E9002331
:10518000B3F1004F08BF002A05460C4619D0DFF8DE
:1051900020B1DFF820A1DFF82081D4E90201012845
:1051A00071F1000311DA50EA010302D0364804F02D
:1051B000BBFB364804F0B8FB94F810904846BDE8B5
:1051C000F88FBDE8F84FFFF793BFEB6CD3B94046BB
:1051D00004F0AAFB21462846FFF766FF5FFA80F934
:1051E000B9F1FF0F1ED12A4804F09EFB40F20221C4
:1051F000284800F099FF284B284A40F2032125480F
:1052000011F0F0FAD5E91423904271EB030301DAAF
:105210005046DDE7584604F087FB21462846FFF755
:1052200067FFDBE7237C4B452AD1D5E90E01D4E9A2
:105230000023904271EB030C12DA194804F074FB5E
:10524000D5E90E23D4E90001801A61EB0301C4E91A
:10525000020104F0FFFA0146124804F065FB9CE7E6
:10526000861A61EB0307022E77F10003A6DB3946AD
:10527000304604F0EFFA01460B4804F055FB9DE779
:105280000A4804F051FB99E793A80108B8A801085F
:1052900026A90108B5A40108349B010855AB0108F3
:1052A0004CA901086BA901087EA901089DA9010864
:1052B0000CA90108EEA80108D0A80108F0B589B032
:1052C00004460D46FFF7B6FB0746A06C03681B6853
:1052D00098472A46C4E90C01CDE90001214602A8FD
:1052E000FFF7A6FE29462046FFF7F8FC9DF8183088
:1052F0000646FF2B0AD148B9397826487A6804F067
:1053000013FB4FF4A171244800F00EFFD4E90C0107
:1053100004F094FA0146214804F006FB3146204887
:1053200004F002FB9DF81810FF2913D11D4804F06A
:10533000FBFA00224FF00043CDE9042302A92046E6
:10534000FFF71AFF064629462046FFF7FFFC3046C6
:1053500009B0F0BD2046FFF755FBD0E90067DDE955
:10536000020104F06BFA3A46034631460E4804F057
:10537000DBFAD4E90C3202980399C01A61EB0201FE
:10538000CDE9040104F066FA0146084804F0CCFABD
:10539000D4E700BF74A50108B5A40108A7A50108BA
:1053A000C6A50108E1A50108FAA501081EA6010885
:1053B00070B504460D46FFF73DFB03686D2B11D019
:1053C000702B09D0612B0DD1836894F8411094F8AB
:1053D0004000BDE87040184729462046BDE87040AF
:1053E000FFF76CBF40F22711024800F09DFE4FF01E
:1053F000FF3070BDB5A401082DE9F74F044662489F
:1054000004F092FA614804F08FFA614804F08CFAD3
:105410005E4804F089FA94F82830FF2B04D140F25A
:105420009B115C4800F080FE94F828102046FFF79E
:1054300001FB42680178584804F076FADFF848A189
:1054400094F8286031462046FFF7F4FA0368814655
:105450006D2B1AD14168514804F066FA3146204656
:10546000FFF7E6FC99F8085020462946FFF7E2FAD4
:10547000426801784A4804F057FA2046FFF7A6FD33
:10548000504604F051FA2E46DCE731462046FFF73D
:105490008FFFC3B2FF2B80460ED1424804F044FA7E
:1054A0004FF4D8713B4800F03FFE4FF4D8713E4BAB
:1054B0003E4A384811F096F9024631462046FFF739
:1054C000E9FAC5B2FF2D0CD1394804F02DFA4FF49A
:1054D000DB71304800F028FE334B344A4FF4DB7167
:1054E000E7E73146FE2D204630D1FFF7B9FC0146F3
:1054F00007462046FFF79EFAD9F8042099F80010D5
:1055000083462C4804F010FA424639462046FFF7FD
:10551000C1FAC5B2FF2D0CD1274804F005FA40F2BC
:10552000C1111C4800F000FE1F4B204A40F2C1117F
:10553000BFE7DBF80410214804F0F6F92046FFF736
:1055400045FD504604F0F0F93946CBE7FFF772FA13
:10555000414607462046FFF755FA29468146204630
:10556000FFF768FA0190164804F0DEF9154804F0D8
:10557000DBF9019A49463846FEF7FAFF84F84060A5
:1055800084F841807FE700BFB7A1010836A7010872
:1055900055A70108B5A4010874A7010892A701083E
:1055A000B1A70108C8A70108349B010830AB010866
:1055B000EBA7010805A8010824A8010857A80108BD
:1055C0006DA8010883A8010808B5FFF791F9FFF756
:1055D00013FF00002DE9F8431F461646FFF712FAA5
:1055E000B7F1004F08BF002ED0E9005884681AD0E8
:1055F000742D01D0FEF7E6FFD4E9000104F02AF98A
:1056000039468146304604F025F94A46034641466C
:105610000A4804F089F9742D01D0FEF7D3FFC4E9DC
:105620000067BDE8F883742D01D0FEF7CBFFD4E905
:10563000000104F00FF9024B0246E8E743A5010818
:1056400068A50108FF23054A1370054A1370054A2F
:105650001370054A1370054A137070470408002040
:105660000208002000080020030800200108002094
:105670001FB509F09FFF0023ADF80C300E4B5A7890
:1056800012B101228DF80C201B7813B101238DF883
:105690000D300023094A0A490A4800931278039BF7
:1056A000097800680AF0D2F820B1074B187805B0E5
:1056B0005DF804FB054BF9E75C0A00205F0A002057
:1056C0005E0A0020580A002000080020020800207E
:1056D00008B500231A4606F065FE431E584258419D
:1056E00008BD000007B50B78012B0ED05AB222B1CD
:1056F000022B0ED003B05DF804FB0192074B01A909
:105700001B681868FFF7E4FFF4E74FF0FF330193DD
:10571000F4E7024B04311B68F3E700BFF8080020F0
:105720001FB57023CDE90131002301A90393FFF7D1
:10573000F9F805B05DF804FB2DE9F0436E2600256D
:1057400085B0344B01A90446019602930395FEF7F8
:10575000DDFF314B01A91870304B2046CDE90235F1
:105760000196FEF7D3FFDFF8E8800A2288F80000F0
:1057700000232B4901A8FEF73DFF01A92046FEF7B3
:10578000C5FF6125274B284F0293284B387001A98C
:10579000204601950393FFF7C5F8254BDFF8B49039
:1057A0000293244B89F8000001A920460393019538
:1057B000FFF7B8F8204905462046FFF7B1FF064637
:1057C0001E4A2B4699F8001020461278FAF7ABFFD4
:1057D000334698F8002029462046FAF7A4FF2B46C6
:1057E0003A7831462046FAF79EFF154A2B4629465D
:1057F00020461278FAF797FF124B134A1B7812785B
:1058000029462046FAF78FFF0122104B1A7005B087
:10581000BDE8F0833CAD0108610A002046AD0108F7
:1058200050AD01085DAD01087808002071560008F0
:1058300067AD0108495C00087BAD01080008002045
:105840000308002001080020040800206C0A002042
:10585000600A0020630A00202DE9F043324B85B036
:105860001A68044612F0010F304E56D1FF223270F2
:1058700001221A602E4B1B7813B92046FFF75CFFFC
:1058800061252C4B01A902932B4B204601950393D4
:10589000FFF748F8294B30700293294B01A92046A5
:1058A00003930195FFF73EF8264D274928702046BF
:1058B000FFF736FF254981462046FFF731FF0746AF
:1058C000234A2B78317820461278FAF72CFF214AA8
:1058D0003378297820461278FAF725FF1E4ADFF838
:1058E00080804B46297820461278FAF71CFF2B78E7
:1058F00098F8002049462046FAF715FF174A3B461C
:10590000297820461278FAF70EFF2B7898F80020B5
:1059100039462046FAF707FF02E03378FF2BA9D07B
:10592000307805B0BDE8F083740800206D0A0020CF
:105930006C0A002089AD0108B15C000893AD010834
:10594000B9590008620A00209DAD0108ABAD0108FD
:10595000610A002004080020600A002002080020DC
:105960007808002030B50A4B85B01B7804460D46F8
:105970000BB9FFF7E1FE6D22064B01A91B7820460B
:10598000CDE901258DF80C30FEF7CCFF05B030BD18
:105990006C0A0020630A002070B50D460446FEF72D
:1059A000A7FF044922462B46BDE870400978FFF75F
:1059B00011BE00BF78080020F7B5434C266876B9C1
:1059C00004200EF0DDFD324605460660042101206C
:1059D00006F00EFC28603D48256009F00BFE3C4FA8
:1059E0003C4E39683C480131396003F09DFF09F0B5
:1059F000E1FD33781BB90123337009F011FE002358
:105A000001932368354A01A9186806F06FFD012843
:105A100006D0334803F088FFB821324800F084FBF9
:105A2000019D6B1C2CD1304803F07EFF3A681E218B
:105A3000013AD2B21E2A28BF1E2201FA02F21446EF
:105A40000020D517307004F093F822464FF4E1544B
:105A50002B460025944275EB0301BCBF22462B4622
:105A6000141843EBE0752B462246204803F05CFFF8
:105A700020462946FFF790FF1D4B187803B0F0BD74
:105A80004DB129461B4803F04FFF01980021FFF755
:105A900083FF194BF1E719483D6003F045FF09F01A
:105AA00033FD23686BB1284609F0A4FD256835B1A4
:105AB000286806F0F9FE042128460EF06BFD00234D
:105AC00023600F4BD9E700BFF8080020E556000817
:105AD000680A0020640A0020E0AB0108A0860100EB
