:020000040800F2
:100000000080002019E80008B5F400084543000806
:10001000B7F40008B9F40008BBF4000800000000C1
:10002000000000000000000000000000E1330008B4
:10003000BDF400080000000071340008B534000869
:10004000BFF40008C1F40008C3F40008C5F40008B8
:10005000C7F40008C9F4000849F400084FF4000888
:1000600055F400085BF4000861F40008CBF40008C4
:10007000CDF40008CFF40008D1F40008D3F4000850
:10008000D5F40008D7F40008D9F40008DBF4000820
:10009000DDF40008DFF40008E1F4000867F400086C
:1000A000E3F40008E5F40008E7F40008E9F40008C8
:1000B000EBF40008EDF40008EFF40008F1F4000898
:1000C000F3F40008F5F40008F7F40008F9F4000868
:1000D000FBF40008F1FC000821010108FDF4000810
:1000E0008BF4000835F50008FFF4000801F500085E
:1000F00003F5000800000000000000000000000000
:1001000000000000000000005FF808F110B5054C89
:10011000237833B9044B13B10448AFF300800123B3
:10012000237010BD300500200000000038F20108E7
:1001300008B5034B1BB103490348AFF3008008BD6A
:10014000000000003405002038F2010810B5044614
:10015000C06910B101210CF073FD206910B10121BB
:100160000CF06EFD204610BD2DE9F04186B005F083
:10017000F9FD054600F040FF0027044606AE06F8EC
:10018000097D284605F086F9324604F180012846AB
:1001900000F0FCF904F1080300933246231D3849AE
:1001A000284605F0A1FC04F128030093324604F12F
:1001B00024033449284605F097FC04F148033246ED
:1001C0000093314904F14403284605F08DFC2F4982
:1001D000284605F0F5FB2E4B20703246CDE9007322
:1001E0002C4904AB284605F057FC3C23049A2A49C5
:1001F0005343C4E91A37294B3246CDE900732846E8
:1002000005AB05F049FC059B4FF00108C4E91C371C
:1002100064233246CDE90083214904F1780328465E
:1002200005F01AFC4FF47A733246CDE900731D498C
:1002300004F17A03284605F00FFCFF233246CDE98E
:100240000083194904EB0803284605F0E5FB052364
:10025000A370164B3246CDE90073154904F17C03B7
:10026000284605F019FC9DF80F3033B111480DF008
:10027000D5FB8E21104803F0D3FF06B0BDE8F08116
:1002800096B80108A1B80108ACB80108B8B80108CF
:1002900000F91500C4B80108CDB8010800D68300E4
:1002A000D3B80108DBB80108EBB8010840420F00E1
:1002B000F2B8010803B9010816B90108F8B500251C
:1002C000C0E901120570C0E90335C0E90555C0E970
:1002D0000755456206990446164600F11C0704F0CE
:1002E00045FC38B9314607480DF098FB20210648F7
:1002F00003F096FF069A3946204604F0FFFB20469D
:10030000F8BD00BF1AB9010816B90108F8B50025F3
:10031000C0E901120570C0E90335C0E90555C0E91F
:100320000755456206990446164600F11C0704F07D
:1003300039FB38B9314607480DF070FB20210648DB
:1003400003F06EFF069A3946204604F015FB20465E
:10035000F8BD00BF1AB9010816B9010830B58DB053
:1003600005F000FD044600F04DFC5B4B5B4A00933A
:1003700003215B4B02A8FFF7A1FF02A9204605F06D
:1003800097FD02A8FFF7E2FE564B574A0093032160
:10039000564B02A8FFF792FF02A9204605F088FD00
:1003A00002A8FFF7D3FE524B524A009303214F4B52
:1003B00002A8FFF783FF02A9204605F079FD02A8F5
:1003C000FFF7C4FEB4234C4A009302214B4B02A812
:1003D000FFF79CFF02A9204605F06AFD02A8FFF77F
:1003E000B5FE4123464A00930221464B02A8FFF77F
:1003F0008DFF02A9204605F05BFD02A8FFF7A6FECF
:1004000000230121404D414A02A88DF80830039194
:100410000495CDE90523CDE90733CDE909330B93E5
:1004200004F0C0F938B9294639480DF0F7FA20210F
:10043000384803F0F5FE012209A902A804F0A0F94A
:1004400002A9204605F034FD02A8FFF77FFE052330
:100450000225314A00930221304B02A8FFF756FFD4
:1004600002A9204605F024FD02A8FFF76FFE2C4BE1
:100470002C4A2946009502A8FFF748FF02A920460A
:1004800005F016FD02A8FFF761FE1423264A00932B
:100490002946264B02A8FFF739FF02A9204605F09E
:1004A00007FD02A8FFF752FE6423214A0093294664
:1004B000204B02A8FFF72AFF02A9204605F0F8FC0E
:1004C00002A8FFF743FE01F0FDF9012221460BF0DF
:1004D0001FFC0DB030BD00BF29B7010896B8010858
:1004E00004B701084DB70108A1B8010835B70108E4
:1004F0005CB70108ACB80108CDB801086BB70108BA
:10050000C4B801088DB70108B8B80108B8B7010828
:100510001AB9010816B90108EBB80108D3B70108E8
:10052000E2B70108D3B80108DBB80108FAB701083F
:100530008DB8010857B8010870B515460022C0E90A
:1005400001150270C0E90332C0E90522C0E90722A3
:100550004262DDE90412044600F11C0604F01EFBB1
:1005600038B9294607480DF059FA2B21064803F0FF
:1005700057FEDDE904233146204604F0FCFA20460C
:1005800070BD00BF1AB9010816B90108F7B50C46CD
:10059000154916460546002705F012FA07230C22D6
:1005A0002070CDE900322846A31C324667700F49FF
:1005B00005F032FA0E23E3704FF47A733246CDE938
:1005C00000730B49231D284605F046FAA388094A03
:1005D0005A43D317C4E904235B104FEA3202C4E93B
:1005E000022303B0F0BD00BFEFBA0108F4BA01085E
:1005F000F7BA01088051010038B5044600F03EFC0E
:10060000054694F9030009F0C5F907F04BFBA07803
:1006100009F08EF907F03AFB607807F01BFC01F057
:1006200051F9C36B3C301B6898470023C5E916019C
:1006300085F83A30207838BDF8B500F01FFC064642
:1006400007F01AFD012871F1000304460D460BDB8B
:1006500007F09AF906F03EF94B492B4622460978F5
:1006600006F06DFE494B39E0494C236801332360A5
:1006700001F028F947490BF0F7FA216846480DF0D8
:10068000CDF907F0C7F907F005FA18B995214348E5
:1006900003F0C6FD4EF6602007F0D2F9054618B902
:1006A00098213E4803F0BCFD6B78042B03D09921C0
:1006B0003A4803F0B5FD2F7E28460DF035FA7FB19C
:1006C00037480DF0ABF901F0FDF8C36B3C301B6807
:1006D0009847C6E9160107F057F9324B1878F8BD6C
:1006E00031480DF09BF92368042B0CD905F054FB1D
:1006F000037843B12D480DF091F94FF47A7001F071
:100700003FFF0FF03DFD23681E22013BDBB21E2B95
:1007100028BF1E23A3F12005C3F1200402FA05F12E
:1007200022FA04F4002521434FF4E14402FA03F0D5
:100730008D4208BF844220D3002908BFB0F5616F05
:1007400006460F461BD2B0F5167F71F1000319DA89
:100750003C2871F10003ACBF11460A2100200DF0C6
:10076000ABFA341847EBE075294620460DF0ECF85B
:1007700001460F480DF052F96CE726462F464FF41C
:100780001671EBE73C21E9E751050020B70B00208B
:100790004C050020CDCC1C4045B9010816B9010814
:1007A0005CB90108B40B00206CB901087EB90108DE
:1007B00097B9010838B5044600F060FB0546CCB196
:1007C0000D480DF02BF901F07DF8C36B3C301B6830
:1007D0009847C5E91601637F802B06D1227FA16E61
:1007E0002868BDE8384004F0E3BD0448BDE838405F
:1007F0000DF014B938BD00BFC3BA0108DBBA010857
:100800002DE9F047C6B000F039FB054600F0F4FBD7
:100810000023FC2207A9074603A88DF803300CF03B
:100820005AF901F051F807F027FAFC28824604D95A
:100830004FF49671804803F0F3FC00F01FFB03684F
:100840005B687BBB90F8283013B190F829305BB31C
:1008500090F8383013B190F839303BB306F092FF7E
:10086000002800F08D81042495F83A6006B3B7F8AB
:10087000981000200DF020FAC517294604460DF007
:1008800063F801466D480DF0C9F806F023F82246DA
:100890002B466B49097806F052FD6A4B187846B032
:1008A000BDE8F0870124DFE70224DDE70324DBE76E
:1008B00007F0E2FB8046894658EA09030AD00DF0AA
:1008C00043F8014660480DF0A9F806F003F84246E7
:1008D0004B46DEE7032C00F0C580042C00F0498174
:1008E000022C4FD059480DF099F80DF103035FFA2F
:1008F0008AF207A9286804F0EFFA044600F0E2FF44
:10090000C36B3C301B689847B7F884308BB1D5E98E
:100910001623801A61EB0301D7E92223904271EB81
:10092000030306DB0DF010F8014649480DF076F898
:10093000012600F0C7FF47490BF096F907F06AF867
:100940009DF803303246214607A807F087F920B901
:100950004FF4B671384803F063FC07F089F8037868
:10096000044623B140F26F11334803F059FC07F0FD
:100970000BF8D4F8A000FFF71DFF204608F0B6FDE5
:10098000354B8BE735480DF049F8D5E90423C5E927
:100990000823012385F8293000F070FA804603A867
:1009A0000CF0D1F803222E4903A80CF0A1F808217D
:1009B00003A80CF0BBF8314603A80CF0B7F82146A9
:1009C00003A80CF0B3F800F059FA027F437F72B32A
:1009D000002B14BF6721652103A80CF0A7F80FF0C6
:1009E00067FC014603A80CF0A1F8002103A80CF055
:1009F0009DF8B8F81A1003A80CF0DAF8B8F9181036
:100A000003A80CF0A3F8D8F8602098F8AC30002ABE
:100A10000CBF0221002103A819430CF087F8012321
:100A200003A88DF803300CF08CF8C4B266E7002BF5
:100A300014BF66210021CFE716B9010802BB0108E7
:100A4000510500205005002019BB01082EBB0108EC
:100A500095BB0108CDCC1C40B70B002045BB01085D
:100A6000CFB7010849480CF0D9FFD5E90423C5E9FF
:100A70000C23012385F8393000F000FA044603A85E
:100A80000CF061F804F1640101A812F067FFDDF8D1
:100A90000490B4F9181003A8DDF808800CF056F89B
:100AA000618B03A80CF084F83949484615F06EFDB7
:100AB00015F048FF014603A80CF061F834494046A0
:100AC00015F064FD15F03EFF014603A80CF057F841
:100AD0003049D4F8880015F059FD15F033FF014670
:100AE00003A80CF040F8236E94F8AC10002B0CBF58
:100AF0000223002303A819430CF018F894F8681097
:100B000003A80CF013F8D4F884A02349504615F03C
:100B1000F9FE28BB2149504615F038FD15F038FF85
:100B2000C1B203A80CF002F80021484615F0C2FE3D
:100B3000C0B10021404615F0BDFE98B10021D4F8A7
:100B4000880015F0B7FE68B10022002303A80CF05E
:100B500023F8D4E9102303A80CF01EF802235FE762
:100B6000FF21DEE704F1700013F0B2FB02460B46F2
:100B7000ECE70B480CF052FF34468DF80360BDE6FD
:100B800008480CF04BFF084B88E600BF57BB010834
:100B90000050C3470000C8420000CC410000204183
:100BA00067BB01087FBB0108B40B00202DE9F041B1
:100BB00000259DF81860C0E901120570C0E90335F1
:100BC000C0E90555C0E90755456231460446174658
:100BD00000F11C0803F0E6FD38B9394607480CF06F
:100BE0001DFF2021064803F01BFB324641462046EC
:100BF00003F0C6FD2046BDE8F08100BF1AB9010828
:100C000016B90108F0B5A9B0044600F05BFE054630
:100C10000CAE00F111073946304606F071FD2A4648
:100C200052F84D0F2135516833462563012567631E
:100C3000082703C3504A514B2946009502A8FFF7E5
:100C4000B5FF02A9204605F033F902A8FFF77EFAA6
:100C5000CDE9006710264A4B04211A460DEB070028
:100C6000FFF76AFC0DEB0701204605F021F90DEBBB
:100C70000700FFF76BFA0EAB424A00930197424B15
:100C800004210DEB0700FFF757FC0DEB0701204691
:100C900005F00EF90DEB0700FFF758FA10AB0093C3
:100CA0003A4B01961A4604210DEB0700FFF744FC6E
:100CB0000DEB0701204605F0FBF80DEB0700FFF7F1
:100CC00045FA14AB324A019600930421314B0DEBE7
:100CD0000700FFF731FC0DEB0701204605F0E8F8AF
:100CE0000DEB0700FFF732FA0C230A262A4A00937D
:100CF00002212A4B0DEB0700FFF708FB0DEB070164
:100D0000204605F0D5F80DEB0700FFF71FFA244B3E
:100D1000244A009602210DEB0700FFF7F7FA0DEBCE
:100D20000701204605F0C4F80DEB0700FFF70EFAA7
:100D30001D4B1E4A294600950DEB0700FFF736FFB5
:100D40000DEB0701204605F0B3F80DEB0700FFF7A8
:100D5000FDF9174B174A009602210DEB0700FFF72C
:100D6000D5FA0DEB0701204605F0A2F80DEB0700C0
:100D7000FFF7ECF929B0F0BDEFBA0108ADB90108F1
:100D8000C0B90108E0B90108C7B90108E8B901080C
:100D900019BA0108EFB90108F4BA010820BA01082C
:100DA00048BA01086FBA010878BA010864C301089B
:100DB00094BA0108F7BA0108FF23024A1370024AE5
:100DC00013707047510500205005002070B50D4686
:100DD00006460AF085FE044603680121DB68984751
:100DE000236831461B692046984723680021DB6849
:100DF0002046984735B1236829462046BDE8704013
:100E00001B69184770BD10B504460AF069FE2146FB
:100E1000BDE810400AF072BC1FB56E23CDE9013168
:100E2000002301A9039305F073FC05B05DF804FBF2
:100E30001FB56123CDE9013101A9039205F064FDDD
:100E400005B05DF804FB1FB57023CDE90131002327
:100E500001A98DF80C3005F057FD05B05DF804FBD5
:100E600007B58DF8041001A98DF805208DF806301E
:100E700005F008FE03B05DF804FB000038B5194C1E
:100E8000216811F001012BD14FF4004516480022D2
:100E90004FF0004305830125C0E90223C0E9042384
:100EA000C0E90823C0E90C23C0E91023C0E91623D8
:100EB000016041830177417780F8281080F829107C
:100EC00080F8381080F8391080F83A1080F848100F
:100ED000056680F8AC104822643016F078F9256079
:100EE000014838BD60050020180600202DE9F043B8
:100EF00085B089468046FFF7C1FF4FF00041D0E939
:100F00000456044600208E4208BF854205D015EBEA
:100F1000080246EB0903C4E90423D4E908568E42CB
:100F200008BF854205D015EB080246EB0903C4E96A
:100F30000823D4E90C564FF0004100208E4208BF30
:100F4000854205D015EB080246EB0903C4E90C23E2
:100F5000D4E910568E4208BF854205D015EB080231
:100F600046EB0903C4E9102304F1490528460CF0B7
:100F700091FC42464B4668460CF067FC009BC4F867
:100F80004930019BC4F84D30BDF80830A4F8513009
:100F9000D4E91623B3F1004F08BF002A05D018EB9F
:100FA000020649EB0307C4E9166705B0BDE8F08304
:100FB00008B5FFF763FF0023493000F8013CBDE8A6
:100FC00008400EF071BB000038B50AF089FD0546F7
:100FD000FFF754FF044628460AF0BAFA6083284611
:100FE0000AF090FB618B20830246BDE8384001483F
:100FF0000CF014BDEFBE0108F8B5144E346814F0BF
:10100000010421D1124DA0222146284616F0DFF816
:10101000012728461A22214600F8087B16F0D7F847
:101020001A22214605F1280016F0D1F81A2221468D
:1010300005F1480016F0CBF800224FF00043C5E957
:101040001A23C5E91C2337600148F8BD5C05002060
:10105000780500202DE9F04F89B0FFF70FFF064615
:101060000AF03EFD0546FFF779F9FA2001F088FA0B
:10107000FFF77AF8FFF7C0FFB74B427805F1680435
:101080001A708278B54BB0F878101A70B0F87A20E0
:1010900020460AF003F9B24B48222B64002106F1E6
:1010A000640016F094F813F0B3F9C82001F068FA60
:1010B00002F0E6FF20460AF025F9FFF79DFFA94E52
:1010C00005463368A84C13F0010F06D10AF008FD5D
:1010D0000AF052FE012320603360A4492068FFF724
:1010E0009BFEA34BA34918702068FFF795FEA24909
:1010F000A24E0870A2492068FFF78EFE3070266865
:101100000A22002305AF9F4905A805F06BFA39466E
:10111000304605F0FDFA9C4B266818706A6805AFEA
:101120009A4905A805F09AFA3946304605F0F0FAD2
:1011300026686A6A8DF8070005AF954905A805F08D
:101140008DFA3946304605F0E3FA26686A6C8DF868
:101150000B0005AD8F4905A805F080FA29463046F9
:1011600005F0D6FA8DF80F0020680AF04BF88A4A8D
:101170008DF80C0089492068FFF75AFE884A8DF8DF
:10118000080088492068FFF753FE87498246206897
:10119000FFF759FE854A8DF80D0085492068FFF755
:1011A00047FE844A054684492068FFF741FE834A8A
:1011B0008DF8090082492068FFF73AFE814906460A
:1011C0002068FFF740FE804A8DF80E007F492068B6
:1011D000FFF72EFE7E4983462068FFF734FE7D49E7
:1011E00081462068FFF72FFE7B498DF80A002068B2
:1011F000FFF729FE9DF8087080462068774A80F83E
:1012000028703946764F53461278FFF729FE334649
:101210003A789DF808102068FFF722FE6F4A9DF883
:101220000D30514620681278FFF71AFE5649534692
:101230000A7820689DF80D10FFF712FE33463A78C1
:1012400051462068FFF70CFE644A33463146206859
:101250001278FFF705FE49489DF80E3002783146B6
:101260002068FFF7FDFD484933460A7820689DF85D
:101270000E10FFF7F5FD5B463A7831462068FFF720
:10128000EFFD564A9DF80930594620681278FFF75D
:10129000E7FD9DF809303A7829462068FFF7E0FD20
:1012A00033463A789DF809102068FFF7D9FD304A97
:1012B0004B46594620681278FFF7D2FD9DF80A3058
:1012C0009DF80C2049462068FFF7CAFD2B469DF883
:1012D000072049462068FFF7C3FD2B469DF80B20E9
:1012E00049462068FFF7BCFD2B469DF807209DF876
:1012F0000A102068FFF7B4FD2B469DF80B209DF8DF
:101300000A102068FFF7ACFD1B4943460A782068A5
:101310005946FFF7A5FD2B469DF80720414620685A
:10132000FFF79EFD2B469DF80F2041462068FFF7F2
:1013300097FD2B469DF80C2041462068FFF790FD55
:1013400001224FF4A071206805F0EAFC002000F0B3
:101350007DFE09B0BDE8F08F590200205802002040
:10136000ED0E0008580500207405002079BE010824
:10137000C806002080BE0108C906002050050020D4
:1013800088BE010890BE0108510500209BB80108E5
:1013900098BE01089EBE010821170008A4BE0108DE
:1013A00039060008A9BE0108AEBE0108951B000859
:1013B000B8BE0108E9130008BFBE01080108000813
:1013C000C4BE0108C8BE010899190008D1BE0108B1
:1013D000D9BE0108E1BE0108E8BE0108B70B002034
:1013E000B40B0020000000002DE9F04F9DB00AF082
:1013F00077FB0746FFF700FEAF49814638460AF003
:1014000033FCFFF73BFD0546FFF738FD80460AF049
:1014100067FB0446FFF7F0FD0021064688F84810F8
:1014200020460AF06BF9B17870780DF015F9236851
:1014300064211B6920469847A04920460AF05EF9BE
:10144000236864211B69204698479C4920460AF07E
:1014500055F995F83830002B00F00F8195F8394098
:10146000002C40F00A81964807F1680A0CF0D6FA81
:101470000121504609F06EFFFFF7BEFD04900AF00F
:101480002FFB00F13C030193804612F0F9FE04703B
:101490004470C474064612F0F9FED8F83C20019856
:1014A00012689047049BCDE90201D3E91C23801800
:1014B0005941CDE9060100200021CDE9040119467A
:1014C00010460CF041FA0890DDE904010CF03CFAFA
:1014D000089B024619467B480CF0A0FA4FF4757140
:1014E0001420FFF773FCD8F83C3001981B6898472C
:1014F000DDE90623DDE902BC121A63EB0103B0EB60
:101500000B0B61EB0C0C3178CDE904BC013469B9EB
:10151000022C40F0B7806C48CDE908230CF07EFA2D
:1015200008F1680009F0EEFEDDE90823717819B9C9
:10153000012A73F10001C2DA642012F0E1FA0028F6
:1015400000F0AD80482231460AA815F01CFE12F0CA
:10155000F3FA9DF82A302BB19DF8293013B90123F5
:101560008DF829309DF82930BBB10F9B23F07F43C4
:1015700023F0FF038BB9109B33F47F030DD1119B34
:1015800033F47F4409D10021139815F093F920B169
:101590004E480CF043FA8DF829409DF83B305BB182
:1015A0000DA812F095FE40A3D3E9002382428B419F
:1015B00002DB00238DF83B3099F800306BB19DF8C9
:1015C0003B3053B1FB6B0DA85C6812F081FE07F154
:1015D0003C0602460B463046A0470021504609F023
:1015E000B9FE9DF82940002C7AD039480CF016FA43
:1015F000C8214FF49670FFF7E9FB00214FF4967075
:10160000FFF7E4FB95F8653005F164044BB3D9F8B6
:101610007C3033B30AA9204612F0E0FE14F046FBFA
:101620000646D9F87C000F4614F01EFB20A3D3E930
:10163000002314F093FB02460B463046394614F063
:1016400013FE70B10DA812F043FEB1F1004F08BFB8
:10165000002806D0D5E9102382428B4101DAC5E982
:10166000100148220AA9204615F08DFD19480CF0FA
:10167000D5F99DF8293085F8AC30174B18781DB096
:10168000BDE8F08F052C7FF651AF1448CDE9082353
:101690000CF0C4F9FFF7F2FB0121017744E78DF864
:1016A00029008DF83B0087E7FFE00B5E000000009B
:1016B000FCA9F1D24D62503F66663640B10F00087A
:1016C00060BC010873BC010892BC0108D8BC0108C9
:1016D000EFBC01081BBD0108B40B0020B8BC010819
:1016E0000E480CF09BF9C8214FF49670FFF76EFB83
:1016F000C8211420FFF76AFBC8211420FFF766FBFE
:10170000C8211420FFF762FBC8211420FFF75EFBFD
:1017100021461420FFF75AFBA8E700BF04BD0108CB
:101720002DE9F8430AF0DCF90446FFF7A7FB05466C
:10173000FFF762FC4F4F06463B68DB0708D404F016
:101740002BFB802201464C4803F06CFB01233B60DD
:10175000494B04F13C002B607278484B01271A700A
:10176000B278474B1A70474A474B1A60E36B1B68C5
:10177000984785F82870C5E90401FFF725FC04F1B6
:1017800068050AF0ADF941490AF06EFA3946284673
:1017900009F0E0FD322712F073FD037833B92368B6
:1017A00064211B6920469847013FF4D112F068FD7F
:1017B00003788BB936480CF031F9284609F0A2FDC0
:1017C000322712F05DFD037833B9236864211B6969
:1017D00020469847013FF4D10021284609F0BAFD80
:1017E0000A2000F0CDFE0AF07BF9044612F048FD15
:1017F000057894F88440002D14BFA1464FF00009ED
:10180000244FDFF8BC8024480CF008F9002D14BFE9
:1018100042463A46214B224922480CF0FFF8002C60
:1018200014BF42463A461D4B1F491E480CF0F6F8BD
:101830001E491F48B9F1000F08BF39460CF0EEF8F9
:101840001C480CF0EBF8FFF719FB85F0010584F05C
:1018500001040577447704F09FFA05F0A3FD06F133
:101860008000FEF7C9FE18B1134B1878BDE8F88365
:10187000124BFAE7540500206405002059020020AD
:1018800058020020070E0008980C002066663640BB
:10189000DEBB0108D6BB010805BC01088AC40108EB
:1018A00015BC010820BC010838BC0108DBBB0108DD
:1018B0003DBC010852BC0108B70B0020B40B00204E
:1018C000D1BB01080AF00CB92DE93048FFF7D6FA70
:1018D0000446FFF791FB054609F0B6FCB1F1004F55
:1018E00008BF002806D0D4E9102382428B4101DAD8
:1018F000C4E9100194F848307BB104F149000BF0C1
:10190000C9FFB1F1004F08BF002806D0D4E9102369
:1019100082428B4101DAC4E91001D4E91023B3F10A
:10192000004F08BF002A22D00AF0DAF8C36B3C301F
:101930001B689847D4E91023821A61EB030393468E
:101940009C46D5E91A2393457CEB0303ACBF0125E4
:101950000025236EAB4208D0064B07490748002DEF
:1019600018BF19460CF05AF82566BDE830880125E5
:10197000EFE700BFC9BB0108C2BB010809BF0108EE
:1019800010B5FFF77BFA0446FFF736FB236E0BB961
:10199000283010BD4830FCE72DE9F74F0AF0A0F8D9
:1019A0000646FFF76BFA4FF0004904464FF0000877
:1019B000FFF722FBD4E90C234B4508BF42450546FF
:1019C00007D1012384F83830644B187803B0BDE8A0
:1019D000F08FFFF7D5FFF36B82461B6806F13C00E2
:1019E0009847461C41F10007394630460BF096FFF8
:1019F00001465B480CF012F8D4E904234B4508BFBC
:101A0000424505F1080B7ED156480CF007F801233A
:101A100084F82830D4E90423B3F1004F08BF002A2A
:101A20007AD151480BF0FAFF012384F8383094F84A
:101A300028301BB194F82930002B75D094F8383039
:101A40001BB194F83930002B6ED0D4E91601B6EBF7
:101A5000000867EB01090BF061FF49460190404621
:101A60000BF072FF019B0246194640480BF0D6FF6F
:101A7000B5F88430002B5BD1D4E91001B1F1004FEF
:101A800008BF002865D00BF049FF014638480BF02D
:101A9000C5FF32463B4658460BF05AFE0BF03EFF60
:101AA000014634480BF0BAFF3B46324650460BF035
:101AB0004FFE0BF033FF01462F480BF0AFFF02F053
:101AC000DFFA0AF00DF890F84C3023B12B480BF0F8
:101AD000A5FF0EF055FBFFF7D1F90AF001F8064615
:101AE000FFF78AFA0021304609F008FE0CF04EFD9F
:101AF000B5F89830003318BF012384F83A30236ECC
:101B00004BBB1F4B61E758460BF022FE864277EB3A
:101B10000103FFF67FAF77E750460BF019FE8642D0
:101B200077EB010383DB7CE716480BF077FF4BE78D
:101B3000D5E92423904579EB03039DDB49464046D4
:101B40000BF002FF014610480BF068FF0EF018FB87
:101B500092E70E499AE70E4B37E700BFB70B00201C
:101B600086BD010895BD0108AEBD0108C5BD0108CF
:101B700017BE01082FBE010849BE010860BE01085A
:101B8000C8060020E6BD0108F9BD010880BD0108B6
:101B9000C90600202DE9F041FFF770F90446FFF770
:101BA0002BFA804609F09CFFD4E90423C4E9022300
:101BB000C36B3C301B689847C4E90401256EFFF7EE
:101BC00083FED4E90823B3F1004F08BF002A3DD0BB
:101BD000D4E9046708F108000BF0BAFD864277EB00
:101BE0000103ACBF0123002384F82830002384F8CC
:101BF0002930FFF7C5FED4E90C23B3F1004F08BF2D
:101C0000002A25D0D4E904670BF0A2FD864277EBC9
:101C10000103ACBF0123002384F83830236EAB42AC
:101C20001CBF012384F83830002384F83930FFF7D3
:101C3000CBF994F8282094F838306AB153B10948A8
:101C40000BF0ECFE084B1878BDE8F0810123CBE7E0
:101C50000123E1E70548F3E70BB10548F0E7054844
:101C6000EEE700BF34BD0108B40B00204EBD0108F3
:101C70005FBD01086EBD010813B509F031FF0446D0
:101C800003689B68984723682046DB6801219847D2
:101C9000236820461B694FF4FA7198472368204651
:101CA000DB6800219847002401234FF49672CDE9A8
:101CB000003407492346074800F0C8F800F0B6FA98
:101CC00040F24521044802F0ABFA204602B010BDB4
:101CD0001DBF01085510000816B90108FF23024A6C
:101CE0001370024A13707047C8060020C90600200E
:101CF000064A13681968064B19B94FF0FF321A608B
:101D000070471268D268D2685268F8E7D00600209F
:101D10008007002010B5044620B940F2F26108485F
:101D200002F07EFA6269074B9A4207D1A06A064B1D
:101D3000984203D0B0FA80F0400910BD0020FCE7C3
:101D400016B90108A007002088070020F8B51B4B32
:101D50001B4E1C68054630680F46043001F0E9FA56
:101D6000334640B901203168164EC96A326888404E
:101D700022EA000232606A1C07D137B119681248A2
:101D80000431BDE8F84001F0B1BA1A686419546032
:101D900007D30E4A10681968BDE8F840043101F015
:101DA000B1BA0B4A10681968043101F0ABFA094B5B
:101DB0001A68A24288BF1C60F8BD00BFC807002097
:101DC000CC06002050070020A0070020D4060020E9
:101DD000D00600208007002080B5DFF86C80164F09
:101DE000164D174E2B6863B9164B1B68012BF8D99B
:101DF0004FF08053C8F80030BFF34F8FBFF36F8FA1
:101E0000EEE701F0FFFAFB68DC68201D01F091FAB3
:101E10003368013B33602B68013B2B6001F012FB00
:101E200004F1540016F07CF8206B01F02DFC2046E4
:101E300001F02AFCD6E700BFB407002040070020CD
:101E40003C070020D806002004ED00E02DE9F84F03
:101E50004FEA820A804650460D4699460B9E01F095
:101E600011FC0746002800F0B780BC2001F00AFCF6
:101E70000446002800F0AD80076325B94FF458717F
:101E80005C4802F0CDF95246A521206B15F09FF970
:101E9000236BAAF1040A9A442AF0070A6B1E04F184
:101EA00034020F3513F8011F02F8011B197809B12C
:101EB000AB42F7D10A9D4FF0000B042D28BF04253B
:101EC000271DE562C4E9135B384684F843B001F08E
:101ED0000AFAC5F1050504F1180001F004FAC4F886
:101EE000B4B0602259462461A561646284F8B8B038
:101EF00004F1540015F06BF93F4B4A46A3653F4B84
:101F00004146E3653E4B5046236601F051FA20609E
:101F100006B1346001F076FA3A4B3B4E1A68DFF8AE
:101F2000248101321A603268002A58D134601B685B
:101F3000012B25D1354801F0CBF9354801F0C8F91E
:101F4000344801F0C5F9DFF80091334801F0C0F9D9
:101F5000324D334801F0BCF9484601F0B9F9284642
:101F600001F0B6F92F4801F0B3F92F4801F0B0F9AC
:101F70002E4801F0ADF92E4BC3F800902D4B1D609B
:101F800001252D4A2D491368086801331360E26A60
:101F9000636405FA02F3034314200B601B4B3946BC
:101FA00000FB023001F0A2F901F04CFAD8F8003041
:101FB00063B13368DA6AE36A9A4207D24FF080521B
:101FC0001F4B1A60BFF34F8FBFF36F8F2846BDE8DA
:101FD000F88F384601F058FB4FF0FF35F6E7D8F898
:101FE0000030002BCCD13368DA6AE36A9A4298BF9A
:101FF0003460C5E716B901081CEE01083CEE010883
:10200000FCED01083C070020CC060020D80600208B
:10201000EC060020000700201407002068070020BD
:102020002807002088070020B4070020A007002010
:10203000D0060020D40600204C07002050070020C6
:1020400004ED00E09C0700205407002070B5044612
:102050002A4D01F0D7F904B92C68261D304601F04D
:1020600068F960B91421E06A254B41435B5833B9E4
:102070000122244982400B6823EA02030B60A36A11
:102080001BB104F1180001F054F91F4A1368013321
:1020900013602B68A34220D131461C4801F026F979
:1020A0001B4A13680133136001F0CCF9194B1B680C
:1020B00093B12B68A3420FD1174B1B6823B140F299
:1020C000B641164802F0ACF84FF08052144B1A603B
:1020D000BFF34F8FBFF36F8F70BD124A04F15400EE
:1020E0001368013B136015F01BFF206B01F0CCFA65
:1020F000204601F0C9FAFFF7FBFDD5E7CC0600202A
:10210000D8060020500700204C070020B40700200C
:10211000400700209C0700204807002016B901084E
:1021200004ED00E03C070020F8B5054620B940F278
:102130004C51174802F074F8164B1B68AB4220D084
:1021400001F060F9144B6C691F68144B1E6801F0B4
:1021500079F9BC4217D0B44215D0114B9C4208D13A
:10216000AB6A83B995F8B830012B0CBF022003206D
:10217000F8BD0C4B9C4208D0002C0CBF0420012061
:10218000F6E70020F4E70220F2E70420F0E700BFC2
:1021900016B90108CC060020D0060020D406002085
:1021A000A0070020B407002070B5044620B940F213
:1021B0001C71194802F034F8184D2B68A34229D03D
:1021C00044B301F01FF92046FFF7A4FDF0B1261D2E
:1021D000304601F0AEF801231149E26A08689340E5
:1021E000034314200B600F4B314600FB023001F01B
:1021F0007DF82B68E26ADB6A9A4207D34FF080527F
:10220000094B1A60BFF34F8FBFF36F8FBDE870406B
:1022100001F018B970BD00BF16B90108CC06002046
:1022200050070020D806002004ED00E013B500247C
:102230001A4B009401935022234619491948FFF77D
:1022400005FE01281DD100F0BBFE012819D14FF079
:10225000500383F31188BFF36F8FBFF34F8F124B7F
:10226000124A1B68543313604FF0FF32104B1A6050
:10227000104B1860104B1C6002B0BDE8104001F01C
:1022800041B9013007D140F604010C4802B0BDE865
:10229000104001F0C5BF02B010BD00BF7C07002098
:1022A00026BF0108D91D0008CC060020DC02002052
:1022B000800700209C070020C807002016B90108ED
:1022C000024A136801331360704700BF48070020BB
:1022D000014B1868704700BFC807002008B501F01F
:1022E0006BF9014B186808BDC8070020014B18683E
:1022F000704700BF3C0700202DE9F84F3A4B1B68A0
:10230000002B6AD1394B1C6801341C609CB9384DD4
:102310002B681B6823B140F66221364801F080FF2C
:10232000354B2A68196829601A60344A13680133EA
:102330001360FFF7DDFC324D4FF0000B2B68314F7F
:10234000A34211D93A68304BD16A14224A439A58B1
:10235000022A28BF4FF0010B2C4A1268002A0CBF3A
:1023600058460120BDE8F88FDFF884A0DFF8A4907C
:10237000DAF8002012681AB94FF0FF322A60E1E75C
:10238000DAF80020D268D66871688C4201D22960E0
:10239000D8E706F10408404600F0CBFFB16A19B156
:1023A00006F1180000F0C5FF01224FF0140CF06A8E
:1023B000D9F8003002FA00F11943134BC9F80010A4
:1023C0000CFB0030414600F091FF3868F16AC26AA8
:1023D000914228BF4FF0010BCAE70D4A4FF0000BA6
:1023E000136801331360B7E748070020C8070020CF
:1023F000D006002016B90108D4060020840700206A
:1024000080070020CC060020D8060020CC07002042
:1024100044070020500700202DE9F8432E4C236884
:1024200023B940F668012D4801F0FAFE00F0EAFFFA
:102430002368013B236024682CB1002401F002F8DA
:102440002046BDE8F883264B1B68002BF5D0254DB0
:10245000254EDFF8A8801FE0EB680127DC6804F157
:10246000040904F1180000F064FF484600F061FF21
:102470001420E26A316807FA02F30B4300FB028082
:102480004946336000F032FF184BE26A1B68DB6A92
:102490009A4201D3164B1F602B68002BDCD10CB184
:1024A000FFF726FC134D2C6844B10127104EFFF7AF
:1024B00023FF00B13760013CF9D12C600C4B1B6845
:1024C000002BBAD04FF080520B4B1A60BFF34F8FE6
:1024D000BFF36F8F0124B1E74807002016B9010848
:1024E0003C0700208807002050070020CC06002071
:1024F000CC0700204407002004ED00E0D8060020AF
:1025000038B50C46054620B940F2CA41184801F0DA
:1025100087FE24B940F2CB41154801F081FE154BEE
:102520001B6823B140F2CC41114801F079FEFFF75E
:10253000C7FE114B2A68186814192CBF012100210D
:1025400082422C600CD961B9FFF766FF38B94FF0B1
:1025500080520A4B1A60BFF34F8FBFF36F8F38BDA5
:1025600009B9A042F0D20021201AFFF7EFFBEBE7F8
:1025700016B9010848070020C807002004ED00E054
:1025800010B5044640B94FF080520D4B1A60BFF3AE
:102590004F8FBFF36F8F10BD0A4B1B6823B14FF4F1
:1025A000A461094801F03CFEFFF78AFE00212046A5
:1025B000FFF7CCFBFFF730FF0028E4D0EBE700BFCC
:1025C00004ED00E04807002016B90108244B70B55F
:1025D0001A68244B12B101221A6070BD224E1A6093
:1025E00033681B6B1A68B2F1A53F0BD15A68B2F180
:1025F000A53F07D19A68B2F1A53F03D1DB68B3F1DB
:10260000A53F04D030683168343101F0D9FD174B53
:102610001C68B4FA84F41423E4B2C4F11F046343C5
:10262000134DEB5823B940F68831124801F0F8FDFC
:10263000142202FB04F3E9184868083340682B446D
:10264000984202FB045408BF4368486008BF4B60CF
:102650006368094ADB683360336854331360BCE74E
:1026600048070020CC070020CC060020500700209F
:10267000D806002016B90108DC02002070B5044617
:102680002A4E00F0BFFE04B93468251D284600F02C
:1026900050FE60B91421E06A254B41435B5833B9C1
:1026A0000122244982400B6823EA02030B60A36ADB
:1026B0001BB104F1180000F03CFE29461E4800F052
:1026C00015FE94F8B8301D4D012B04BF002384F88B
:1026D000B83000F0B7FE2A682AB100F093FEFFF789
:1026E00007FB00F0AFFE3368A34211D12B6883B122
:1026F000134B1B6823B14FF4D961124801F090FDD0
:102700004FF08052104B1A60BFF34F8FBFF36F8FA3
:1027100070BD094A11680D4A1268914201D13360B7
:10272000F6E7BDE87040FFF751BF00BFCC060020C0
:10273000D806002050070020A00700209C0700209A
:102740004807002016B9010804ED00E03C0700200E
:1027500038B50D46044620B940F69F31074801F0D0
:102760005FFD074B20461968183100F0CBFD284665
:10277000BDE838400121FFF7E9BA00BF16B90108EA
:10278000CC06002070B50E461446054620B940F62A
:10279000CA310A4801F044FD094B2846196818312E
:1027A00000F0A4FD002C214608BF3046BDE8704073
:1027B00018BF4FF0FF30FFF7C9BA00BF16B90108C4
:1027C000CC06002038B5C368DC6824B940F6FA317D
:1027D000154801F025FD04F11805284600F0A9FD73
:1027E000124B1B68E3B9251D284600F0A2FD01230A
:1027F0000F49E26A08689340034314200B6029469E
:102800000C4B00FB023000F071FD0B4BE26A1B68C1
:10281000DB6A9A4285BF0120084B0020186038BD52
:1028200029460748EFE700BF16B90108480700200E
:1028300050070020D8060020CC060020CC0700203E
:1028400088070020034B1B680360034B1B68436031
:10285000704700BF84070020C807002070B50C46F1
:10286000054620B940F66541144801F0D9FC24B969
:1028700040F66641114801F0D3FC00F0C3FD104B57
:102880001A682368591C0FD00E482E6800686968C2
:10289000864201D091420ED9521A934209D99B1A0D
:1028A00023602846FFF7CEFF002400F0CBFD204632
:1028B00070BD002323600124F7E700BF16B90108AB
:1028C000C8070020840700200122014B1A607047CE
:1028D000CC07002070B50C461646054608B91B4AC1
:1028E000156805F134026260EA6A052B22612A6BE1
:1028F0002560E2616A6CA260EA6C62614FF00002DE
:10290000A2611BD011490968A9420BD12273D6B12B
:10291000296B0A46531A12F8010BA528FAD09B0816
:10292000238470BD032B2373F1D1FFF7C9FCAB6A7D
:102930000BB102232373FFF76FFDE8E72846FFF78B
:10294000F3FB2073E3E72684EBE700BFCC0600200F
:102950002DE9F84F0D6881460C4692461DB30025BF
:102960004FF0240B4B6801F108075B68BB424B60DA
:1029700004BFCB684B604B68D3F80C8063680BFBDB
:1029800005915B6801229F42636008BFE36805F11F
:10299000010508BF63606368DE6853463046FFF791
:1029A00099FFB045EAD12846BDE8F88F2DE9F843F4
:1029B00005461746FFF784FC1F4B1B688B4238D82F
:1029C0004FF0000824264446DFF8809009EB080108
:1029D00006FB04500122FFF7BBFFA8F1140818F111
:1029E000640F0444F2D1154B0222196806FB04500F
:1029F000FFF7AEFF124B04441968022206FB045095
:102A0000FFF7A6FF044404220E4906FB0450FFF71B
:102A10009FFF044406FB045003220B49FFF798FF75
:102A200004440FB100233B60FFF7F6FC2046BDE8ED
:102A3000F8830024F8E700BF3C070020D006002000
:102A4000D4060020B4070020A0070020280700209B
:102A5000014B1868704700BFCC060020054B1B686F
:102A600033B1054B1B68002B0CBF022000207047C0
:102A7000012070479C070020480700202DE9F04105
:102A80000446002836D0234AC36A11681746C96A2B
:102A90008B4237D2142682691F4D002AA8BF3A689C
:102AA00006FB0353A2BFD26AC2F1050282614269EA
:102AB0009A4221D100F10408404600F03AFC174B3D
:102AC00048B9E06A4643AA592AB901211A688140E7
:102AD00022EA01021A603A681968D26AE2620124A5
:102AE00004FA02F0084318601420414600FB02502B
:102AF00000F0FCFB204603E03B68DB6AC362012078
:102B0000BDE8F0811368C06CDC6AA0422CBF0020D5
:102B10000120F5E7CC060020D80600205007002051
:102B2000F8B5044608B90020F8BD1F4B1B68834266
:102B300004D040F67A711D4801F072FB236D23B971
:102B400040F67B71194801F06BFB236DE16AE26C82
:102B5000013B91422365E6D0002BE4D1251D284698
:102B600000F0E7FB124E134A50B91421E76A79438B
:102B700073582BB901201368B84023EA000313608F
:102B8000E36CC3F10501A161E3620124116804FA59
:102B900003F0084310601420294600FB036000F096
:102BA000A5FB2046C0E700BFCC06002016B90108EF
:102BB000D806002050070020F8B50D46044600282E
:102BC00045D0036D23B940F6C971214801F028FBB7
:102BD000E36C9D4238BF1D46E36AAB4237D0236D9C
:102BE000012B34D11B4B1B68A34204D140F6E47186
:102BF000174801F015FB1426A269E36A002AE56272
:102C0000A4BFC5F10505A561134D626906FB035319
:102C10009A421CD1271D384600F08BFBE26A0F4C0C
:102C200040B95643AB592BB901212368914023EA9F
:102C30000103236001231420216893400B43236088
:102C4000394600FB0250BDE8F84000F04FBBF8BD2C
:102C500016B90108CC060020D80600205007002035
:102C6000044B1A681AB119680A6D01320A651868AE
:102C7000704700BFCC0600202DE9F041214C1E46D4
:102C800080460F46154600F0BDFB236893F8B83028
:102C9000022B16D001212368D3F8B42022EA0802BF
:102CA000C3F8B420236883F8B81056B13046FFF754
:102CB0004DF84FF08052144B1A60BFF34F8FBFF3A3
:102CC0006F8F00F0BFFB00F09DFB1DB12368D3F8B0
:102CD000B4302B602368002293F8B830022B09BF70
:102CE000012500252368D3F8B41004BFB943C3F805
:102CF000B410236883F8B82000F0A4FB2846BDE890
:102D0000F08100BFCC06002004ED00E0F8B50E46CF
:102D100017461D46044620B941F219212E4801F0FC
:102D20007FFA00F06FFB15B1D4F8B4302B600223AA
:102D300094F8B85084F8B830EDB2042F1AD8DFE810
:102D400007F00E0309061500D4F8B4301E43C4F88A
:102D5000B46004E0D4F8B4300133C4F8B430012DC9
:102D600012D0012400F06EFB2046F8BD022DEED1FA
:102D70000024F7E7D4F8B4300133F0D041F24A210F
:102D8000154801F04DFAEAE7261D304600F0D1FA69
:102D90001420124AE36A11689D400D431560104AE1
:102DA000314600FB032000F0A1FAA36A23B141F2EF
:102DB0005921094801F034FA0A4BE26A1B68DB6AC0
:102DC0009A42CED94FF08052074B1A60BFF34F8F13
:102DD000BFF36F8FC5E700BF16B901085007002089
:102DE000D8060020CC06002004ED00E02DE9F843D1
:102DF000DDF820800E4691461D46044620B941F27A
:102E00008C21384801F00CFA00F0D6FBEFF3118763
:102E10004FF0500383F31188BFF36F8FBFF34F8FD1
:102E200015B1D4F8B4302B60022394F8B85084F86C
:102E3000B830EDB2B9F1040F1AD8DFE809F00E038B
:102E400009061500D4F8B4301E43C4F8B46004E099
:102E5000D4F8B4300133C4F8B430012D12D00120BD
:102E600087F31188BDE8F883022DEED10020F7E743
:102E7000D4F8B4300133F0D041F2CF21194801F039
:102E8000CFF9EAE7A36A23B141F2DA21154801F04C
:102E9000C7F9154B1B6803BB251D284600F049FAEE
:102EA00001231249E26A08689340034314200B602F
:102EB00029460F4B00FB023000F018FA0D4BE26A76
:102EC0001B68DB6A9A42CAD90123B8F1000F01D00E
:102ED000C8F80030084A1360C1E704F11801074838
:102EE000EAE700BF16B90108480700205007002094
:102EF000D8060020CC060020CC0700208807002040
:102F000038B5054608B9084B1D68002400F07AFA68
:102F100095F8B830022B04BF85F8B840012400F0C2
:102F200091FA204638BD00BFCC060020F8B50F4C02
:102F300000F068FA2568ADB90D4F0E4E384600F026
:102F4000C7F9304600F0C4F90B4B2A461F600B4B03
:102F50000C210A201E6000F073FC206010B10849AB
:102F600001F032F8BDE8F84000F06CBA0408002027
:102F7000D8070020EC070020D0070020D40700204D
:102F80002BBF0108914208B5416000610AD8D21AEE
:102F900083699A420DD2084B011D186800F0B2F9FE
:102FA000002008BD9A4201D2994202D2011D034B72
:102FB000F3E70120F5E700BFD4070020D007002089
:102FC00007B5FFF7B3FF0C4B1B6843B90B484FF431
:102FD000897101F025F9002003B05DF804FB084B6E
:102FE000C822019301230749009307480023FEF7F5
:102FF0002DFF0028EAD0EFE70408002016B90108E9
:103000000808002030BF0108253100082DE9F041F3
:1030100080462C200D4617461E4600F033FB044622
:1030200088B125B94FF4B671084801F0F9F8FFF7F7
:103030007DFF069BC4F80080C4E9065726626362E0
:10304000201D00F050F92046BDE8F08116B90108B6
:103050002DE9FF410D4690461F46064620B94FF424
:10306000C3710F4801F0DCF80E4C206878B1052DD3
:10307000CDE9015803960DDCFFF7F0FC0023022890
:103080000CBF0A9A1A4601A9206800F0FDFB04B0A3
:10309000BDE8F08100233A4601A900F0ABFCF6E759
:1030A00016B90108040800202DE9F74300271A4D3E
:1030B000DFF86C802B681A6832B9184A11681360FF
:1030C000296003B0BDE8F083DB68DC681E6804F1AA
:1030D0000409484600F02DF9636A20469847E369E1
:1030E000012BE7D1A36933449E4206D26360246179
:1030F0004946286800F006F9DCE7002300973246CD
:1031000019462046FFF7A4FF0028D3D140F27231C0
:10311000404601F085F8CDE7D0070020D407002015
:1031200016B901082DE9F04F4FF00108624D89B042
:10313000DFF898B1DBF80020136843B30024D368AC
:10314000D3F80090FFF7BCF8FFF7C2F85B4B82465C
:103150001A681F4690425A4E1CD31860002C4CD05F
:10316000584B1B681A68B2FA82F25209A9EB0A019D
:10317000306800F061FFFFF74FF998B94FF08052C7
:10318000514B1A60BFF34F8FBFF36F8F0AE00124DA
:103190009946D7E70393FFF787FF039BC3F800A087
:1031A000FFF73AF9002205A9306800F0C7FC0028B3
:1031B000BED0059B002BF5DB079C636913B1201D76
:1031C00000F0B7F8FFF784F83B688146984201D2D7
:1031D000FFF76AFF059BC7F80090092BE2D808FAB1
:1031E00003F313F4047A57D113F0C70F33D19B06BE
:1031F000D8D5204600F048FAD4E7814529D8FFF712
:103200000BF9DBF80030DB68D3F80CB00BF10400ED
:1032100000F08FF8DBF81C30012B15D1DBF818100B
:103220004B46524649445846FFF7ACFE60B1009405
:1032300023464A4621465846FFF70AFF20B94FF475
:10324000F471284600F0ECFFDBF82430584698472C
:10325000A8E722468AE7A169069B4A461944204608
:10326000FFF790FE00289DD0636A20469847E369E7
:10327000012B97D1A2690699CDF800A00A445346C4
:1032800051462046FFF7E4FE00288BD140F2013181
:10329000284600F0C5FF85E7069BA36123B94FF4DC
:1032A0004671284600F0BCFFA1694B464A46494496
:1032B0002046FFF767FE75E716B9010800080020F1
:1032C00004080020D407002004ED00E0D00700200F
:1032D0004FF0FF3200F108034360C0E902230361AD
:1032E00000230360704700230361704743689A68B6
:1032F0004B608A609A685160996003680861013385
:10330000036070470A6830B5531C0AD103695A68D4
:103310004A6091608B605960036808610133036003
:1033200030BD00F108035C6825689542EFD823465C
:10333000F9E70369D0E901128A608268516059682F
:10334000814208BF5A60002202611A68013A1A607D
:103350001868704706480068006880F3088862B6FD
:1033600061B6BFF34F8FBFF36F8F00DF00BF000068
:1033700008ED00E0002307B501930B4B1B680133F8
:1033800003D0CA21094800F04BFF4FF0500383F3EC
:103390001188BFF36F8FBFF34F8F019B002BFCD0C1
:1033A00003B05DF804FB00BF0400002016B901085B
:1033B0004FF0807340F8043C054B21F0010140F8C8
:1033C000081C40F80C3C40F8202C4038704700BFE7
:1033D000753300080000000000000000000000003D
:1033E000074B19680868B0E8F00F80F30988BFF34D
:1033F0006F8F4FF0000080F311884EF00D0E704774
:10340000CC0600204FF0500383F31188BFF36F8F79
:10341000BFF34F8F084A13680133012B136009D1A2
:10342000064B1B6813F0FF0F04D040F275110448DF
:1034300000F0F6BE704700BF0400002004ED00E07D
:1034400016B9010810B5074C236823B94FF4BE71B3
:10345000054800F0E5FE2368013B23600BB983F3C8
:10346000118810BD0400002016B9010800000000FA
:10347000EFF30980BFF36F8F0D4B1A6820E9F00F4F
:1034800010602DE908404FF0500080F31188FFF7DD
:103490009DF84FF0000080F31188BDE808401968DE
:1034A0000868B0E8F00F80F30988BFF36F8F7047AA
:1034B000CC06002008B54FF0500383F31188BFF30A
:1034C0006F8FBFF34F8FFEF717FF18B14FF0805289
:1034D000024B1A60002383F3118808BD04ED00E05D
:1034E0000022054B05491A600A6041F26701044A4F
:1034F000116007221A60704710E000E018E000E059
:1035000014E000E013B5264B264C1A78D2B2019293
:10351000FF221A701B78244ADBB28DF803309DF825
:10352000033003F0500313700723002223609DF83B
:103530000310581E090629D402B123602368032B07
:1035400004D04FF49B71194800F06AFE2368144AB6
:103550001B0203F4E06323600024019BDBB21370C1
:10356000134B1A6842F470021A601A6842F07042F3
:103570001A60FFF7B5FF0F4B1C60FFF7EBFEFFF77C
:1035800025F8FFF7F7FE204602B010BD9DF8033086
:1035900001225B00DBB28DF803300346C7E700BFB2
:1035A00000E400E0100800200C08002016B9010813
:1035B00020ED00E00400002008B5EFF305830F2B99
:1035C0000AD90D4A9B5C0D4A12789A4204D940F2FE
:1035D000A5210B4800F024FE0A4B0B4A1B68126819
:1035E00003F4E063934206D9BDE8084040F2B521F8
:1035F000034800F015BE08BDF0E300E00C08002011
:1036000016B901080CED00E01008002070B50D4659
:103610000646FEF755FE0D4B0D491C6862198A429D
:1036200007D90C233360FEF7F7FE4FF0FF34204636
:1036300070BD1A60074A13685B1B1360064A136863
:103640002B441360FEF7E8FEF1E700BF08000020FE
:10365000DC6800200C0000201408002008B5EFF3FF
:1036600005831BB1C221034800F0DAFDBDE8084024
:10367000FEF726BE16B90108FEF7CEBEFEF720BE45
:10368000FEF7CABE13F040BD13F046BD00B58BB0C7
:10369000684614F039F8034B08981B6818440BB0BF
:1036A0005DF804FB0C00002000207047704710B547
:1036B0000446FFF7A7FEA46BFFF7C4FEB4FA84F03C
:1036C000400910BD70B51546026C0446866B42B9C0
:1036D00005689DB98068FFF723FAA5600136A663E7
:1036E00070BD6DB9406813F04EFD6368226C1344E1
:1036F000A2686360934201D3236863600020EDE712
:10370000C06813F040FD236CE2685B4221681A44F4
:103710008A42E2603EBFA2689B18E360022DEDD1B1
:103720000EB1013EEAE73046D8E703461A6C10B402
:10373000084662B1D9689C681144A142D96028BF8B
:10374000196810BC28BFD960D96813F01CBD10BC23
:10375000704770B50446FFF755FE94F8455004F1E4
:1037600024066DB2002D14DCFF2384F84530FFF7EA
:1037700069FEFFF747FE94F8445004F110066DB25D
:10378000002D12DCFF2384F84430BDE87040FFF7C1
:1037900059BE636A002BE7D03046FFF713F808B133
:1037A000FFF792F8013D6DB2DCE72369002BE9D009
:1037B0003046FFF707F808B1FFF786F8013D6DB214
:1037C000DEE7000038B50D46044620B940F203118B
:1037D000194800F025FDFFF715FED4E90F314B43E2
:1037E0002268D0185B1A1344A060E3600020FF2316
:1037F000A063626084F8443084F8453095B9236949
:1038000063B104F11000FEF7DDFF38B14FF08052D4
:103810000A4B1A60BFF34F8FBFF36F8FFFF712FE93
:10382000012038BD04F11000FFF752FD04F124001F
:10383000FFF74EFDF2E700BF16B9010804ED00E006
:10384000F8B50D461746064620B94FF4BB710D4832
:1038500000F0E6FC05FB06F05030FFF713FF0446CE
:1038600048B155B92060C4E90F6501212046FFF732
:10387000A9FF84F84C702046F8BD00F150030360A6
:10388000F1E700BF16B901082DE9FF47884601920C
:103890001E46044620B940F2F1214B4800F0C0FC1E
:1038A000B8F1000F06D1236C23B140F2F221464853
:1038B00000F0B6FC022E07D1E36B012B04D040F2DE
:1038C000F321414800F0ACFCFFF7C8F830B9019B88
:1038D00023B140F2F6213C4800F0A2FC0027B94693
:1038E000DFF8E8A0FFF78EFDA26BE36B9A4201D3ED
:1038F000022E19D1324641462046FFF7E3FE636AA5
:103900001BB104F12400FEF75DFF38B14FF0805287
:103910002E4B1A60BFF34F8FBFF36F8FFFF792FDEF
:10392000012004B0BDE8F087019D1DB9FFF78AFDB5
:103930000020F6E717B902A8FEF784FFFFF782FD23
:10394000FEF7BEFCFFF75EFD94F84430FF2B08BF86
:1039500084F8449094F84530FF2B08BF84F84590D4
:10396000FFF770FD01A902A8FEF778FF28BBFFF75B
:1039700049FDA26BE36B9A420ED1FFF763FD0199FB
:1039800004F11000FEF7E4FE2046FFF7E2FEFEF72A
:1039900043FD48B10127A5E7FFF754FD2046FFF797
:1039A000D8FEFEF739FDF5E74FF08053CAF8003036
:1039B000BFF34F8FBFF36F8FECE72046FFF7C9FED1
:1039C000FEF72AFDB4E700BF16B9010804ED00E0D8
:1039D00010B5024600210120FFF732FF044638B13E
:1039E000002383600360C3601A461946FFF74CFF4B
:1039F000204610BD2DE9F843894690461F460446EF
:103A000020B940F2C331274800F00AFCB9F1000F99
:103A100006D1236C23B14FF47171224800F000FCF1
:103A2000022F07D1E36B012B04D040F2C5311D48B2
:103A300000F0F6FBFFF7C0FDEFF311864FF05003E7
:103A400083F31188BFF36F8FBFF34F8FA26BE36BCC
:103A50009A4201D3022F22D194F845503A466DB2D2
:103A600049462046FFF72EFE6B1C13D1636A0BB943
:103A700001200BE004F12400FEF7A4FE0028F7D09B
:103A8000B8F1000FF4D00120C8F8000086F31188C7
:103A9000BDE8F88301356DB284F84550E8E70020B1
:103AA000F4E700BF16B9010870B50D46044620B909
:103AB0004FF48C61204800F0B3FB236C23B140F23B
:103AC00064411D4800F0ACFB236833B9A36823B1FF
:103AD00040F26941184800F0A3FBFFF76DFDEFF3DA
:103AE00011864FF0500383F31188BFF36F8FBFF33C
:103AF0004F8FA26BE36B93421CD994F8453001328F
:103B00005BB2A2635A1C10D1636A0BB9012009E0B1
:103B100004F12400FEF756FE0028F7D0002DF5D062
:103B20000120286086F3118870BD01335BB284F8F0
:103B30004530EBE70020F5E716B901082DE9F04321
:103B400085B00F460192044620B94FF4A061424867
:103B500000F066FB37B9236C23B140F204513E48B4
:103B600000F05EFBFEF77AFF30B9019B23B140F213
:103B70000951394800F054FB0026B046DFF8DC90CC
:103B8000FFF740FCA56BD5B139462046013DFFF754
:103B9000CCFDA563236963B104F11000FEF712FEAA
:103BA00038B14FF080522D4B1A60BFF34F8FBFF3E7
:103BB0006F8FFFF747FC012005B0BDE8F083019D42
:103BC0001DB9FFF73FFC0020F6E716B902A8FEF783
:103BD00039FEFFF737FCFEF773FBFFF713FC94F891
:103BE0004430FF2B08BF84F8448094F84530FF2B05
:103BF00008BF84F84580FFF725FC01A902A8FEF75D
:103C00002DFEF0B92046FFF752FDA0B1019904F155
:103C10002400FEF79DFD2046FFF79BFDFEF7FCFB11
:103C200038B94FF08053C9F80030BFF34F8FBFF35E
:103C30006F8F0126A4E72046FFF78BFDFEF7ECFB14
:103C4000F7E72046FFF785FDFEF7E6FB2046FFF786
:103C50002EFD0028EDD0B6E716B9010804ED00E00E
:103C60002DE9FF410446019120B940F2915152489B
:103C700000F0D6FA236C23B140F295514E4800F083
:103C8000CFFAFEF7EBFE30B9019B23B140F29A5117
:103C9000494800F0C5FA00252F462E46DFF81C8162
:103CA000FFF7B0FBA36BE3B1013BA363236813B938
:103CB000FEF7D6FFA060236963B104F11000FEF7A0
:103CC00081FD38B14FF080523C4B1A60BFF34F8FEB
:103CD000BFF36F8FFFF7B6FB0125284604B0BDE8A0
:103CE000F081019B4BB925B140F2E151324800F01F
:103CF00097FAFFF7A7FB0025EFE717B902A8FEF731
:103D0000A1FDFFF79FFBFEF7DBFAFFF77BFB94F8C3
:103D10004430FF2B08BF84F8446094F84530FF2BF3
:103D200008BF84F84560FFF78DFB01A902A8FEF7E4
:103D300095FD40BB2046FFF7BAFCF0B123683BB9C4
:103D4000FFF760FBA068FEF799FE0546FFF77AFBD8
:103D5000019904F12400FEF7FBFC2046FFF7F9FC73
:103D6000FEF75AFB38B94FF08053C8F80030BFF364
:103D70004F8FBFF36F8F012792E72046FFF7E9FCD3
:103D8000FEF74AFBF7E72046FFF7E3FCFEF744FBAC
:103D90002046FFF78CFC0028EDD0002D9DD0FFF7CA
:103DA00031FB616A19B1236B1968C1F10501A06883
:103DB000FEF702FF9DE700BF16B9010804ED00E021
:103DC0002DE9F04385B00F460192044620B94FF427
:103DD000CD61424800F024FA37B9236C23B140F298
:103DE0006C613E4800F01CFAFEF738FE30B9019BCA
:103DF00023B140F27161394800F012FA0026B04652
:103E0000DFF8DC90FFF7FEFAA36BD3B1394620460A
:103E1000E568FFF78AFC636AE56063B104F124009A
:103E2000FEF7D0FC38B14FF080522D4B1A60BFF333
:103E30004F8FBFF36F8FFFF705FB012005B0BDE883
:103E4000F083019D1DB9FFF7FDFA0020F6E716B9D2
:103E500002A8FEF7F7FCFFF7F5FAFEF731FAFFF7D5
:103E6000D1FA94F84430FF2B08BF84F8448094F8CA
:103E70004530FF2B08BF84F84580FFF7E3FA01A91E
:103E800002A8FEF7EBFCF0B92046FFF710FCA0B14A
:103E9000019904F12400FEF75BFC2046FFF759FC72
:103EA000FEF7BAFA38B94FF08053C9F80030BFF3C3
:103EB0004F8FBFF36F8F0126A4E72046FFF749FC21
:103EC000FEF7AAFAF7E72046FFF743FCFEF7A4FA4D
:103ED0002046FFF7ECFB0028EDD0B6E716B9010845
:103EE00004ED00E02DE9F84389469046054620B9E7
:103EF00040F2FB61204800F093F9B9F1000F06D1C0
:103F00002B6C23B140F2FC611B4800F089F9FFF7EC
:103F100053FBEFF311874FF0500383F31188BFF386
:103F20006F8FBFF34F8FAC6B1CB395F8446049465D
:103F300076B22846FFF7F9FB013C731CAC6313D142
:103F40002B690BB901200BE005F11000FEF73AFCDC
:103F50000028F7D0B8F1000FF4D00120C8F8000015
:103F600087F31188BDE8F883013676B285F844609E
:103F7000E8E72046F4E700BF16B9010810B504468B
:103F800020B940F28A71054800F04AF9FFF73AFA81
:103F9000A46BFFF757FA204610BD00BF16B9010801
:103FA00038B5054620B940F2A471064800F038F94A
:103FB000FFF728FAA86BEC6B241AFFF743FA2046A8
:103FC00038BD00BF16B90108002330B5064A52F8C3
:103FD000335002EBC3041DB942F83310606030BDAA
:103FE0000133052BF3D1FAE7EC170020002310B5BD
:103FF000074A02EBC3014C68844204D1002042F816
:104000003300486010BD0133052BF2D1FAE700BF41
:10401000EC17002010B5044620B94FF4F8610548AC
:1040200000F0FEF82046FFF7E1FF2046BDE8104013
:10403000FFF72ABB16B9010870B504460D461646AF
:10404000FFF7E0F994F84430FF2B04BF002384F815
:10405000443094F84530FF2B04BF002384F84530EA
:10406000FFF7F0F9A36B2BB93246294604F124007F
:10407000FEF788FB2046BDE87040FFF76ABB0000F2
:104080002DE9F04741488AB009F0C8FCFEF72EF947
:104090002425079007993E4809F0C0FC079868431B
:1040A00009F058FD04463B4809F0B8FC94B1079963
:1040B0000DEB05022046FEF779FC0023DFF8F0A0A7
:1040C000354F07900893089A079B9A421DD32046C4
:1040D00009F02AFDFFF7DAFA0446FFF7E5FA214670
:1040E00002462E4809F09AFC2D4B2E4819889A88D2
:1040F0008B1A09F093FC2C4B1B6803B198472B4893
:1041000009F08CFC0AB0BDE8F087089B05FB03436F
:104110001B7B042B98BF1AF80320099B88BF3F2202
:10412000642B83BF6420B3FBF0F30899002382BFA4
:1041300005FB01418969B1FBF3F308990898DDF8A3
:1041400020C0DDF820E0DDF82080DDF8209005FBC0
:10415000004005FB0949D9F81C6005FB0141CDE988
:10416000033605FB08439B69029305FB0E439B68DE
:10417000019305FB0C431B8C009303694968384687
:1041800009F04CFC089B013308939CE73DBF0108F4
:1041900049BF010854BF010889BF0108BBBF01081E
:1041A00014180020DABF01089008002048C6010852
:1041B00038BF0108014B1860704700BFAC080020F1
:1041C00073B5124C064623780D46114A1BB9137875
:1041D0000BB172B6FEE70123002113700D48642273
:1041E00012F0F5FF2B4600960B4A6421094813F0A4
:1041F000F3FE0A4B1B6803B198470125054E304674
:1042000009F050FC72B62570F9E700BF880800205D
:104210001C0800201E08002011C00108AC08002066
:10422000F7B5184C064623780D46174A1BB9137884
:104230000BB172B6FEE7012300211370134864220C
:1042400012F0C5FF2B460096114A64210F4813F067
:10425000C3FE104B1B680BB10C4898470E4B1B68F4
:1042600003B198470125094E0C4F304609F01AFC5E
:10427000384609F017FC72B6094B257000BF013BA8
:10428000FCD1F2E7890800201D0800201E0800204C
:1042900039C0010818080020AC08002048C00108F7
:1042A000FFFF0F00F8B5DFF898C003681A4FCCF88D
:1042B00000304368194E3B608368194D3360C36812
:1042C000184C2B60036918492360436982690B60AD
:1042D000164BC0691A60164A1060DCF80000386896
:1042E0003068286820681C460968124D1968124E0B
:1042F000126864220021284612F069FF23683246C2
:104300006421284613F068FE284609F0CBFB0B4BCE
:1043100000BF013BFCD1ECE79C080020A408002072
:10432000A8080020A0080020840800208C08002095
:10433000940800201E080020FEBF0108FFFF0F00A8
:1043400098080020074B1B6803B198471EF0040F24
:104350000CBFEFF30880EFF309808169004A104732
:10436000A5420008AC08002010B1012108F068BC8B
:10437000704708B109F0EEBB70478068704740682D
:1043800070474368012B08D1D0E90432934204D02E
:104390001878003018BF01207047002070474B6824
:1043A00070B5042B04460E464FF0000304D0C0E95C
:1043B00000338360204670BDD1E90425AD1AC0E901
:1043C000003383602846FFF7D4FFC4E900000544AA
:1043D000A560D6E90453024629468B4205D00AB1AE
:1043E0000E78167001310132F7E75B1B18446060EC
:1043F000E0E742680346022A06D1D3E904031B1A08
:10440000032B01D909F003BC002070474368032B3C
:1044100006D1D0E904329A4208BF002318467047FB
:104420000023FBE7037870B581680446B3B1284ADE
:10443000284809F0F3FA6368022B12D12046FFF7EF
:10444000D8FF0146244809F0E9FAE1680B78002B0F
:104450003CD02248BDE8704009F0E0BA204A21482B
:10446000E7E7032B05D12046FFF7D0FF01461E48A2
:10447000E9E7042B0ED100251C4ED4E90431C91AFA
:104480008D4205D2595D304609F0C8FA0135F4E78E
:104490001748D8E7012B08D12046FFF772FF1549CE
:1044A000154B002818BF1946E1E700250F4ED4E947
:1044B00004239B1A9D4205D2515D304609F0AEFAA5
:1044C0000135F4E70D4809F0A9FABEE70C48C1E749
:1044D0005AB70108ECC0010800C1010822C1010857
:1044E0008AC40108F6C0010870C20108DFD40108BF
:1044F0000AC10108E6C00108E1C0010810C10108B5
:1045000089C40108B1F5884F2DE9F84304460F46E8
:1045100002D9174808F058FB066883689B1B99422C
:1045200019D9D0F804900846FFF723FF0546034643
:10453000A9EB0608B14505D00BB132781A700136E7
:104540000133F7E72068FFF70FFF05EB080325604D
:104550003D446360A56025683DB92846C4E901551E
:10456000FFF702FF2846BDE8F8830120FBE700BF04
:1045700064C001082DE9F0410368561A904682682C
:104580000446D21A96420D4615D93046FFF7F1FE81
:1045900007460346A84505D02A7803B11A700135AD
:1045A0000133F7E720683E44FFF7DEFEC4E9016609
:1045B0002760BDE8F0814768481EFF1ABE420ED84A
:1045C0001A469D19A91A002904DD10F8011F02F8E6
:1045D000011BF7E7002EA8BF9B196360E9E73D4484
:1045E0001F44FA1A002A04DD10F8012F03F8012BEA
:1045F000F7E763682E461846B04505D0327800B11B
:10460000027001360130F7E7A8EB05084344E4E700
:1046100008B509C81B1AC3F58840884202D2104663
:1046200008F0D2FA994238BF1946581805D2B0F5A9
:10463000884F28BF4FF4884008BD4FF48840FBE7FF
:104640002DE9F8430C46591C204615461F46FFF736
:1046500059FF064680B14FF00003EA19294620466B
:10466000FFF788FFD4E901539D4208D00DB1002324
:104670002B706368013363603046BDE8F8831B4AE2
:1046800001212046FFF7C4FF23680746A5EB030975
:10469000FFF76FFE10EB090F1CBF002300F8093075
:1046A000236880461A460146954205D009B1107824
:1046B000087001320131F7E7D31A01334344104641
:1046C00019466568954207D019B192F800C081F883
:1046D00000C001320131F5E72D1A1D44206847441E
:1046E000FFF742FEC4E90085A760C5E79FC0010847
:1046F0002DE9F04105460E4661B1D0E90132D21AEA
:104700008A4209D300221E4403B11A700133B34216
:10471000FAD16B60BDE8F081114AFFF779FF80465E
:10472000FFF727FED5E9001407460A4603469442E0
:1047300005D00BB11078187001320133F7E7002370
:10474000641A3C44264404B123700134B442FAD1C3
:104750002868FFF709FEC5E900744744AF60D9E750
:10476000D3C10108D0E90032D21A914210B503D961
:10477000891AFFF7BDFF10BD3CBF5B184360FAE725
:1047800070B50C46012120461646FFF7BBFE0546D4
:1047900028B101212046FFF7E5FF23681E70284657
:1047A00070BD0000426808B5012A06D1BDE8084086
:1047B0000A4600F11001FFF7E3BF8168024809F0E3
:1047C0002DF9002008BD00BF62C1010810B50C1A08
:1047D000134605D001462246184612F0DFFC034678
:1047E000181910BD2DE9F0410446A2EB0108164648
:1047F000A368226808469B1A98450F4615D940467B
:10480000FFF7B7FD05460346BE4205D00BB13A7827
:104810001A7001370133F7E72068FFF7A5FD25601F
:104820004544C4E90155BDE8F0816568AD1AA84565
:1048300004D83146FFF7CAFF6060F4E70D4429460B
:10484000FFF7C4FF636829461A468E4205D00AB1B5
:104850000878107001310132F7E7751B1D4465605F
:10486000E1E770B50E46D2E900313046C91A144668
:10487000FFF748FE054630B1D4E900124FF00003BF
:104880003046FFF7AFFF284670BD000070B5D0E995
:10489000043100F110060446C91A3046FFF732FE13
:1048A000054640B1D4E90712914206D1A1680648F5
:1048B00009F0B4F80025284670BD4FF000033046DB
:1048C000FFF790FFF7E700BFB9C001082DE9F041FD
:1048D0008368A2EB01081746026804469B1A9845B4
:1048E0000E4615D94046FFF744FD05460346B7423C
:1048F00005D0327803B11A7001360133F7E720682A
:10490000FFF732FD25604544C4E90155BDE8F0815B
:104910004568AD1AA84505D839463046FFF756FF19
:104920006060F3E70D4429463046FFF74FFF6368A8
:1049300029461A468F4205D0087802B1107001311D
:104940000132F7E77D1B1D446560DFE737B50D4693
:1049500001A8114609F07CF904212846FFF7D2FD91
:10496000044630B14FF0000302AA01A92846FFF720
:10497000ADFF204603B030BDFFF7E8BF426808B581
:10498000022A06D1BDE808400A4600F11001FFF7EF
:10499000DDBF8168024809F041F8002008BD00BF72
:1049A0009AC10108FFF7EABF2DE9F0410E46002148
:1049B0001C4617468AB00DF108082022C0E90011F4
:1049C00081600546404612F002FC1E2C94BF224630
:1049D0001F223946404612F0D6FB7368013B032B79
:1049E00014D8DFE803F00230404722462F4938460A
:1049F00013F0A5FB28B122462D49384613F09FFB42
:104A000040B9012229463046FFF7BAFE28460AB0CF
:104A1000BDE8F08122462749384613F090FB28B1C3
:104A200022462549384613F08AFB08B90022E9E7F7
:104A300000220AA941F8242D404614F0DDFA021C98
:104A400018BF0122DEE700220AA941F8242D4046C2
:104A500014F0D2FA019B02464345D7D0294630468E
:104A6000FFF774FFD2E723463A4629463046FFF760
:104A7000E7FDCBE714F00106C8D1640821462846BB
:104A8000FFF740FD0028C1D021462846FFF76AFE07
:104A9000B442BBD0022107EB460009F0F5F800282C
:104AA000B4DB2B6898550136F2E700BFE1C001087E
:104AB00074C00108E6C0010879C0010830B513468A
:104AC000426885B0032A044600F110050A460FD05B
:104AD000014601A8FFF768FF204601AA2946FFF713
:104AE000C0FE04460198FFF73FFC204605B030BDEC
:104AF0002946FFF7A5FD0446F7E70000F0B5044698
:104B000085B0104616460F4613F011FB6268034647
:104B1000032A16D03246214601A8FFF745FFDDE9FA
:104B2000011291420BD04FF000033846FFF75AFEB6
:104B300001250198FFF718FC284605B0F0BD0025B7
:104B4000F7E7441C21463846FFF7DCFC054618B958
:104B5000054808F063FFEFE74FF0000332193146D4
:104B60003846FFF707FDE7E77FC001080A4600F176
:104B70001001FFF7C3BFF8B50D4619462846164683
:104B80001F46FFF7BFFC044630B14FF00003F21997
:104B900031462846FFF79AFE2046F8BD1346426884
:104BA00010B5042A06D1BDE810400A4600F11001F4
:104BB000FFF7E1BF8168024808F030FF002010BD18
:104BC00029C101082DE9F0410C4690461D460646D4
:104BD00040B139B10849184608F030F8074618B90D
:104BE00030602060BDE8F0812A46414612F0CBFAE1
:104BF00037602560F6E700BFC6E9010870B50546D5
:104C000010460E46144613F092FA224603463146E9
:104C10002846BDE87040FFF7D5BF000010B50C4630
:104C200031B1044900F006FD231A5842584110BD25
:104C30000846FCE764C3010810B500B121B9064875
:104C400008F0ECFE002010BD1AB9044AFFF7D6FFA9
:104C5000F8E70120F7E700BFEDC10108FAC101083C
:104C60002DE9F74305460E4617469846FFF7E4FF41
:104C7000C0B10F49222007F0E1FF0446A8B1384631
:104C8000FFF77BFB81463846FFF7C0FB13F04FFA76
:104C90004346CDE90090074A2221204613F09CF9B3
:104CA00030602C6003B0BDE8F0833060F9E700BFEE
:104CB000C6E9010827C201082DE9F8430E469846C7
:104CC00016F8013B02F1FF3903704660C0F8089006
:104CD000044615463D214A46304612F037FA07464B
:104CE00068BB4B46182B28BF1823C4F83001A362B9
:104CF00004F10C05A26A3146284612F044FA00225B
:104D0000A66AA3191A7337B1D4F83021791C04F1BB
:104D10002C0012F038FA0022D4F83031234483F802
:104D20002C202EB12946404600F084FCC4F8340102
:104D3000D4E901120A48BDE8F84308F0E5BE831B38
:104D4000023DED1A182B1A46A8BF1822B5F5807F30
:104D500028BF4FF48075A262C4F83051C8E700BF85
:104D60002FC2010830B504460D46084B9DB0009394
:104D7000074A084B642103A813F02EF903AA294619
:104D80002046FFF73BFF1DB030BD00BF21C2010828
:104D900019C2010809C201082DE9F0431646642230
:104DA00003F10C048FB00746884620461849ADF839
:104DB000042013F0AAF970B9336B23B1154A3221DC
:104DC00001A813F009F901AA41463846FFF716FF7A
:104DD0000FB0BDE8F08320460F4913F096F9044662
:104DE000A0B9736B002BEED00125DFF83490736B04
:104DF00001A81B5DC5F1320128444A46013413F075
:104E0000EBF8102C05F10205F1D1DCE7034ADBE7F2
:104E10003BC2010840C2010844C201084CC201085B
:104E2000DFD40108016000210273C0E9011170475D
:104E3000F8B5054617460E4639B332B32049182057
:104E400007F0F2FE044608B3C0E9006700261D4BD8
:104E500000F108074361C0E9026606618021384617
:104E600007F0F6FDD4E90012384607F02FFE14498A
:104E7000082007F0D9FE90B16B68C0E9004603B97D
:104E80006860AB6803B15860A860F8BD0E4808F0D0
:104E9000C5FD01213046BDE8F84007F0D1BE0B4802
:104EA00008F0BCFD0A4A40F253110A4808F0B6FD6A
:104EB0000121206807F0C4FE18212046EBE700BF5F
:104EC000C6E90108808182833ED50108A7C2010896
:104ED000C3C20108FAC2010870B54468054604B3AC
:104EE000266806F1080007F0BBFDD6E903239A42C5
:104EF000C4B216D16B681BB96A210B48FFF790F951
:104F00006868082143686B6007F09AFE6B6803B914
:104F1000AB600121306807F093FE1821304607F09E
:104F20008FFE204670BD00BF16B9010810B50446BB
:104F3000006810B1012107F083FE204610BD7FB547
:104F40000546FFF71AFA13F0F2F80446861C2846C5
:104F5000FFF715FA013803281DD8DFE800F0020634
:104F6000080F0734601C04B070BD0D34FAE7284602
:104F7000FFF74CFA13F0DBF83418F3E701A82946E1
:104F8000FFF70DFADDE9014301A81B1B06EB430403
:104F9000FFF7CCFFE6E70B34E4E700002DE9F0472C
:104FA00086B08146884614461D46FFF745FE68B127
:104FB0002046FFF7C4FF4049074607F03FFE06467C
:104FC000C9F8000028B93D4808F028FD06B0BDE842
:104FD000F0872046FFF7D3F90138032864D8DFE8CB
:104FE00000F00214253D2046FFF7C7F98146204610
:104FF000FFF7C7F9324B334A002814BF1846104652
:10500000CDE900902B46304A0AE02046FFF7B5F97B
:1050100081462046FFF7EDF92B46CDE900902B4A5B
:105020003946304612F0D8FF05463AE0612D204659
:105030000DD1FFF7A2F905462046FFF7E7F92B4609
:10504000234A00903946304612F0C6FFECE7FFF7DE
:1050500094F981462046FFF7D9F9D1E72046FFF7BA
:105060008CF92B4600901B4A3946304612F0B4FFAB
:10507000DFF868902146054603A8FFF790F9DDE9BF
:10508000034AA2450AD0AF4214F8013B06D9791B66
:1050900070194A4612F0A0FF0235F2E703A8FFF7A5
:1050A00045FFC8F8005091E72046FFF766F92B4608
:1050B0000090094AC6E700BFC6E901083ED50108CD
:1050C000E1C00108E6C001085BC2010863C2010833
:1050D0006CC2010873C2010879C20108DFD401085B
:1050E0002DE9F0430E4607469046D1B04FF49C722E
:1050F000002102A81D46589C12F069F831463B4633
:10510000424602A8FFF7D8FD3678622E00F0E8800C
:1051100029D83F2E4ED008D82E2E55D09DF80810F5
:10512000764808F07BFC764A52E0532E00F09B80D4
:10513000612EF3D10DF1340972484A4605A908F0F1
:105140006DFC4F98002800F0C480FFF718F9032881
:1051500000F09E8028466C4A2146FFF74FFD6B48C1
:1051600008F05CFC2DE0722E42D00ED8642E34D0B4
:10517000672ED3D105A9664808F050FC33464F9AF4
:1051800021462846FFF70AFF1BE0732E4BD0772EEF
:10519000C4D1604808F042FC0399002973D05E48EE
:1051A00012F0B3FF044600286DD15C4808F036FCCD
:1051B000214669E05A4808F031FC21462846FFF7AD
:1051C000D1FD51B0BDE8F083564808F027FC564A9F
:1051D00021462846FFF712FDF3E70399534808F0EC
:1051E0001DFC02AB3A4621462846FFF7D5FDE8E70D
:1051F00005A94F4808F012FC03994E4812F085FFAC
:1052000020B9384600F030F94B4AE1E74F9938466B
:10521000FFF704FD08B1494ADAE74F9808B1FFF7F4
:1052200035FB7223ABE705A945480DAA08F0F6FB4C
:105230004F993846FFF7F2FC0028ECD14F9810B197
:105240000DA9FFF793FC73234F9A21462846FFF7D9
:10525000A5FE21683B4808F0E1FB2868216808F0BA
:1052600043FC39487CE705A938480DAA08F0D6FB6D
:105270004F993846FFF7D2FC0028CCD14F9810B197
:105280000DA9FFF773FC0121384600F0D7FE2FE08F
:105290004F98FFF7BBF812F04AFF08F101060644E9
:1052A0002B49304607F0CAFC074690B14F98FFF7EC
:1052B000ADF8284A03463146CDF80090384612F042
:1052C0008BFE39464F98FFF751FC0121384607F015
:1052D000B7FC61234F9A21462846FFF7C1FCB8E787
:1052E0001D4808F09BFB1D4A21462846FFF786FC17
:1052F0001B4808F093FB01F009F962E769C4010853
:105300008BC40108BDC30108D6C30108E2C301086C
:105310002EC301081EC4010846C401084CC401087C
:1053200008C3010812C301081CC301081FC30108F8
:105330003FC301085AB7010852C3010855C3010809
:105340006FC3010888C3010889C4010899C3010813
:10535000C6E90108F4C30108F9C301081CC4010827
:105360009CC401082DE9F0410C4680460D481546C5
:105370001E46069F08F052FB04B14DB90A4808F0DA
:105380004DFB39463046BDE8F041084AFFF736BCD0
:10539000069733462A4621464046BDE8F041FFF7CE
:1053A0009FBE00BFC8C40108DDC40108F0C40108E5
:1053B0007FB504460D4600680C49164600F000FB18
:1053C00078B100F0E9FC03AB00933246294602AB0A
:1053D000FFF7C8FFDDE902122046FFF729FD04B000
:1053E00070BD034808F01AFBF9E700BF64C3010869
:1053F00088C2010810B10C2107F022BC704710B11F
:10540000012107F01DBC704730B513460D46044618
:10541000AC4207D01BB194E8070083E807000C33C7
:105420000C34F5E7184630BD10B5044638B1FAF72C
:105430008DFE2046BDE81040282107F001BC10BDBC
:1054400070B50446406AFFF7D5FFD4E90656AE4270
:1054500004D02846FAF77AFE2835F8E7A06908B1A3
:10546000FFF7E2FF204670BDF8B505460024282668
:10547000074FD5E906031B1ADB107B439C4205D27C
:1054800006FB0400FFF702FA0134F2E7F8BD00BFA3
:10549000CDCCCCCCF8B50446224808F0BFFA22485F
:1054A00008F0BCFAD4E90631994218D0C91A1F4E47
:1054B000C91071431E4808F0B1FA00252827D4E925
:1054C00006031B1ADB1073439D4205D207FB050040
:1054D000FEF7A8FF0135F2E7164808F09FFAD4E975
:1054E0000931154EC91A89107143144808F096FA0B
:1054F00000250C27D4E909031B1A9B1073439D4216
:1055000005D207FB050001F013F80135F2E70C485E
:1055100008F084FA0B4808F081FABDE8F8400A4820
:1055200008F07CBAB0C5010846DC0108CDCCCCCC73
:10553000BAC50108CCC50108ABAAAAAA05C60108CC
:1055400089C4010815C601082EC601082DE9F043DB
:10555000002487B006466846CDE90044029407F06F
:10556000A1F8684607F036F94FF028082F4F304D64
:10557000D6E906239B1ADB107B439C424ED208FBE4
:1055800004F302EB0309D35C002B43D14846FEF73A
:10559000F4FE0146684607F00FF94846FEF7EFFEB5
:1055A000042837D8DFE800F03803101A24004846F2
:1055B000FEF7E7FE0146684607F0B4F850BBC2218B
:1055C0002846FEF72DFE25E04846FEF712FF01466D
:1055D000684607F08DF8E8B9C621F1E74846FEF7BE
:1055E00015FF0146684607F0E7F898B9CA21E7E7D2
:1055F000494603A8FEF7D3FEDDE903126846521AB6
:1056000007F0B2F818B9CF212846FEF709FE039833
:10561000FFF7F5FE0134ABE7D321D1E7684607F089
:1056200001F9029807B0BDE8F08300BFCDCCCCCC27
:1056300016B901082DE9F04305460E4600244FF047
:1056400028081A4F8DB0D5E906239B1ADB107B433F
:105650009C4224D208FB042931461822684612F0E5
:1056600080FD4846FEF789FE182201460DEB020038
:1056700012F077FD684608F056FB684608F065FBB7
:1056800006A808F050FB06A808F05FFB1822684641
:105690000DEB020112F053FD18B10134D3E74FF0C6
:1056A000000948460DB0BDE8F08300BFCDCCCCCC9E
:1056B0002DE9F04F06460F4600244FF00C09DFF8A5
:1056C0006C808DB0D6E909535B1B9B1008FB03F37C
:1056D0009C4224D218223946684612F042FD182214
:1056E00009FB04FB0DEB020055F80B1012F039FD1D
:1056F000684608F018FB684608F027FB06A808F083
:1057000012FB06A808F021FB182268460DEB0201E7
:1057100005EB0B0A12F013FD18B10134D2E74FF07C
:10572000000A50460DB0BDE8F08F00BFABAAAAAA90
:1057300010B51446FFF77EFF20B12146BDE81040AA
:10574000FFF714BA10BD0000F8B50C46064640F24B
:1057500001120021224811F03AFD4FF480722146D7
:105760001F4811F010FD1E491E4808F057F91E4948
:105770001B4813F05FFB1C490546002013F05AFB41
:10578000294607463046FFF755FFA0B9294630465F
:10579000FFF78EFF044600B30168144808F03EF995
:1057A000A3683846984701242046F8BD394610487A
:1057B00008F034F9F8E73A4629463046FFF7B8FFD3
:1057C00004460028F2D00B4808F028F90A4808F0EF
:1057D00025F93046FFF75EFEE6E729460748E7E78A
:1057E000340A002054C60108C4E901085AC6010859
:1057F00083C601086FC6010889C401089CC6010858
:1058000010B54FF4807204460649043007F0C2F820
:10581000002805DD2046BDE810400249FFF794BF8F
:1058200010BD00BF3409002038B514461D46FFF7EF
:1058300001FF28B12A462146BDE83840FFF73EB9AE
:1058400038BD10B51446FFF7F5FE20B12146BDE87E
:105850001040FFF793B810BD10B51446FFF7EAFEED
:1058600010B12146FEF79EFF002010BD38B514464A
:105870001D46FFF7DFFE28B12A462146BDE8384025
:10588000FFF78CB938BD00002DE9F04700248CB03B
:10589000074603A8CDE90344059406F003FF21461B
:1058A00003A8009407F01AF80146002834D02146D6
:1058B00003A806F09CFF40F2E7330446009300265D
:1058C0003546DFF8F890009BB34273D9214603A810
:1058D00006F0BFFF824600286CD1182321460DEB4D
:1058E000030203A806F046FF0444214603A806F07D
:1058F000BEFF8046B0B10CAA214642F828AD03A8ED
:1059000006F0D6FE029A044406A93846FFF799FF2E
:1059100000B101350136D6E76A4603A806F06EFFEE
:105920000446CCE7214603A806F0EBFF70B10CAAB1
:1059300002F8288D214603A806F0E4FE9DF8082011
:10594000044406A93846FFF787FFE1E7214603A88C
:1059500006F0A8FF804668B102AB01AA214603A861
:1059600006F019FFDDE90123044406A93846FFF7D4
:105970005BFFCDE7214603A806F086FF90B10CAB94
:1059800043F8288D01AA214603A8CDF8048006F02B
:10599000DAFE9DF808300444019A06A93846FFF75C
:1059A00065FFB5E7039B4846195D01F0E00108F08B
:1059B00035F8AFE728460CB0BDE8F0873FC50108D1
:1059C00008B5FFF737FE18B1BDE80840FEF7D9BCAF
:1059D00008BD10B5044608461146FFF72BFE0146E8
:1059E00020B9C4E90000A060204610BD2046FEF7A3
:1059F000D6FCF9E708B5FFF71DFE18B1BDE8084071
:105A0000FEF7F7BC08BD08B5FFF714FE18B1BDE8F6
:105A10000840FEF7FBBC08BD2DE9F0410E469DF89D
:105A20001840174698469DF81C50FFF7E3FF844244
:105A300005DCA84203DC88F80000BDE8F081012302
:105A400022463B70314606902B46BDE8F0410148A6
:105A500007F0E4BF17C501082DE9F0410E46BDF877
:105A6000184017469846BDF81C50FFF7C3FF844204
:105A700005DCA84203DCA8F80000BDE8F0810123A2
:105A800022463B70314606902B46BDE8F041014866
:105A900007F0C4BF17C501082DE9F0479946DDE9B5
:105AA000086788469246FFF7A5FF0023C517B04256
:105AB00075EB0303044607DB00238742AB4103DB9E
:105AC000C9F80000BDE8F0870123CDE908458AF850
:105AD000003032463B464146BDE8F047014807F0FA
