:020000040800F2
:1000000000800020BDF100085DFE0008D13C000822
:100010005FFE000861FE000863FE000800000000AB
:10002000000000000000000000000000F12B0008AC
:1000300065FE000800000000812C0008C52C0008A7
:1000400067FE000869FE00086BFE00086DFE0008F0
:100050006FFE000871FE0008F1FD0008F7FD0008C2
:10006000FDFD000803FE000809FE000873FE0008FD
:1000700075FE000877FE000879FE00087BFE000888
:100080007DFE00087FFE000881FE000883FE000858
:1000900085FE000887FE000889FE00080FFE0008A4
:1000A0008BFE00088DFE00088FFE000891FE000800
:1000B00093FE000895FE000897FE000899FE0008D0
:1000C0009BFE00089DFE00089FFE0008A1FE0008A0
:1000D000A3FE000899060108C90A0108A5FE000848
:1000E00033FE0008DDFE0008A7FE0008A9FE000898
:1000F000ABFE00080000000000000000000000004F
:1001000000000000000000005FF808F110B5054C89
:10011000237833B9044B13B10448AFF300800123B3
:10012000237010BDC004002000000000C4FA0108C4
:1001300008B5034B1BB103490348AFF3008008BD6A
:1001400000000000C4040020C4FA010810B50446F1
:10015000C06910B1012109F081FC206910B10121B1
:1001600009F07CFC204610BD2DE9F04186B005F079
:10017000CDFA054600F0E2FE0027044606AE28460A
:1001800006F8097D04F04AFE284607F0A1FB04F1B9
:10019000080300933246231D3849284605F078F9B4
:1001A00004F128030093324604F12403344928461D
:1001B00005F06EF904F1480332460093314904F129
:1001C0004403284605F064F92F49284605F0BCF899
:1001D0002E4B20703246CDE900732D4904AB2846E2
:1001E00005F02EF93C23049A2A495343C4E91A37EF
:1001F000294B3246CDE90073284605AB05F020F9BE
:10020000059B4FF00108C4E91C3764233246CDE951
:100210000083224904F17803284605F0F1F84FF4F1
:100220007A733246CDE900731D4904F17A032846FA
:1002300005F0E6F8FF233246CDE90083194904EBC7
:100240000803284605F0BCF80523A370164B324678
:10025000CDE90073154904F17C03284605F0F0F858
:100260009DF80F3033B112480AF0C6FA8A211148BE
:1002700003F09CFC06B0BDE8F08100BFDEC00108C1
:10028000E9C00108F4C0010800C1010800F9150027
:100290000CC1010815C1010800D683001BC101086B
:1002A00023C1010833C1010840420F003AC10108CF
:1002B0004BC101085EC10108F8B50025C0E9011273
:1002C0000570C0E90335C0E90555C0E90755456229
:1002D00006990446164600F11C0704F00DF938B9DA
:1002E000314607480AF088FA2021064803F05EFCF0
:1002F000069A3946204604F0C7F82046F8BD00BFEC
:1003000062C101085EC10108F8B50025C0E901120B
:100310000570C0E90335C0E90555C0E907554562D8
:1003200006990446164600F11C0704F001F838B996
:10033000314607480AF060FA2021064803F036FCEF
:10034000069A3946204603F0DDFF2046F8BD00BF7F
:1003500062C101085EC1010830B58DB005F0D6F963
:10036000044600F0EFFD214608F018FA5B4B5C4AAA
:10037000009303215B4B02A8FFF79EFF02A92046D2
:1003800005F06AFA02A8FFF7E1FE574B574A0093BF
:100390000321574B02A8FFF78FFF02A9204605F063
:1003A0005BFA02A8FFF7D2FE524B534A0093032197
:1003B0004F4B02A8FFF780FF02A9204605F04CFA38
:1003C00002A8FFF7C3FEB4234C4A009302214C4B12
:1003D00002A8FFF799FF02A9204605F03DFA02A8FE
:1003E000FFF7B4FE0F23474A00930221464B02A8B1
:1003F000FFF78AFF02A9204605F02EFA02A8FFF7B0
:10040000A5FE00230121414D414A02A88DF8083084
:1004100003910495CDE90523CDE90733CDE90933EF
:100420000B9303F085FE38B929463A480AF0E4F9FF
:100430002021394803F0BAFB012209A902A803F0E0
:1004400065FE02A9204605F007FA02A8FFF77EFE26
:1004500005230225314A00930221314B02A8FFF700
:1004600053FF02A9204605F0F7F902A8FFF76EFE38
:100470002C4B2D4A2946009502A8FFF745FF02A9FB
:10048000204605F0E9F902A8FFF760FE1423274A89
:1004900000932946264B02A8FFF736FF02A9204603
:1004A00005F0DAF902A8FFF751FE4FF47A73214AFA
:1004B00000932946204B02A8FFF726FF02A92046F9
:1004C00005F0CAF902A8FFF741FE00F03BFD01224A
:1004D000214608F033FB0DB030BD00BF5EBF010800
:1004E000DEC0010828BF010882BF0108E9C0010879
:1004F0006ABF010890BF0108F4C0010815C10108D6
:100500009FBF01080CC10108C7BF010800C1010855
:1005100000C0010862C101085EC1010833C10108C1
:100520001BC001082AC001081BC1010823C1010822
:1005300042C00108D5C001089FC0010870B50D4632
:10054000064608F01BFA044603680121DB68984759
:10055000236831461B692046984723680021DB68E1
:100560002046984735B1236829462046BDE87040AB
:100570001B69184770BD10B5044608F0FFF9214605
:10058000BDE8104008F0E4B81FB56123CDE90131A2
:1005900001A9039205F0A2FE05B05DF804FB07B5C2
:1005A0008DF8041001A98DF805208DF8063005F0AE
:1005B00053FF03B05DF804FB38B5174C216811F008
:1005C000010127D14FF40045144800224FF00043A9
:1005D00005830125C0E90223C0E90423C0E90823FB
:1005E000C0E90C23C0E91023C0E912230160418354
:1005F0000177417780F8281080F8291080F83810AA
:1006000080F83910056580F89C104822543017F0A6
:10061000A8F92560014838BDE4040020E005002069
:100620002DE9F843804689464FF00047FFF7C4FFA5
:100630000026D0E90445BD4208BFB44205D014EB02
:10064000080245EB0903C0E90423D0E90845BD428F
:1006500008BFB44205D014EB080245EB0903C0E91A
:100660000823D0E90C454FF000470026BD4208BFE3
:10067000B44205D014EB080245EB0903C0E90C2392
:10068000D0E91045BD4208BFB44205D014EB0802C2
:1006900045EB0903C0E91023D0E91223B3F1004F61
:1006A00008BF002A05D018EB020449EB0305C0E996
:1006B0001245BDE8F883000070B5FFF77DFF00210B
:1006C0000646002007F034F80D4D044620B90D48C9
:1006D0000AF092F8287870BD4379802B0CD102790A
:1006E0000168306804F028FB204607F0BBFB0821B6
:1006F000204609F0B3F9EDE703480AF07DF8F3E787
:100700007C4F00202AC4010832C401082DE9F04FB3
:1007100089B0FFF751FF064608F030F90546FFF7AC
:100720001BFEFA2001F04CFBFFF71EFDAF4BB04A59
:10073000597805F1640411709978AE4A2046117019
:10074000B3F87A20B3F8781007F062FDAA4B48227C
:100750002B64002106F1540017F003F9A74D14F0A3
:10076000E9FAC82001F02CFB03F04EF9204607F00F
:1007700083FD2B68A24C13F0010F06D108F0FEF8A0
:1007800008F00CFA012320602B609E4B6E25069327
:10079000002305A920680595079305F097FC002123
:1007A000994B07911870994B05A9206806930595F8
:1007B00005F08CFC8D4D964926686A68087095494D
:1007C00005A805F029FC05A80146304605F07EFC89
:1007D000276806466A6A904905A805F01DFC05A829
:1007E0000146384605F072FC6A6C27688DF80000F7
:1007F0008A4905A805F010FC05A80146384605F011
:1008000065FC8DF80400206807F0C4FC844A834628
:1008100084492068FFF7B8FE8DF80500206806F0CF
:10082000A3FC814A8DF8060080492068FFF7ACFEE2
:100830007F4A05467F492068FFF7A6FE7E4B8DF86C
:1008400002007E4A7E49206807F016FA7D4A8046FB
:100850007D492068FFF798FE7C4A8DF807007C49A7
:100860002068FFF791FE8DF801009DF8000004AAB2
:100870008DF811000323774920688DF810608DF8FA
:1008800012B006F0B3FD82469DF8000003AA8DF871
:100890000D000223704920688DF80C6006F0A6FD5B
:1008A0008DF803009DF8040005AA8DF815000323B8
:1008B0006A4920688DF814608DF816B006F096FD30
:1008C00081469DF8057020689DF8063080F82870F4
:1008D000634F9DF805103A78FFF761FE614A434681
:1008E0009DF8061020681278FFF759FE5E4A9DF8C1
:1008F0000730414620681278FFF751FE43463A78A8
:100900009DF807102068FFF74AFE9DF801303A78FD
:1009100041462068FFF743FE544A9DF802309DF897
:10092000011020681278FFF73AFE9DF802303A78FD
:1009300029462068FFF733FE43463A789DF80210B7
:100940002068FFF72CFE304A53469DF801102068BE
:100950001278FFF724FE9DF803305A46514620686E
:10096000FFF71DFE2B46324651462068FFF717FE63
:100970002B469DF8002051462068FFF710FE2B46BD
:1009800032469DF803102068FFF709FE2B469DF8BC
:1009900000209DF803102068FFF701FE1C494B461C
:1009A0000A7820689DF80110FFF7F9FD2B463246C2
:1009B00049462068FFF7F3FD2B469DF80420494681
:1009C0002068FFF7ECFD2B465A4649462068FFF7A2
:1009D000E6FD01224FF49671206805F08BFE0020A1
:1009E00000F062FF09B0BDE8F08F00BF08000020F2
:1009F000B1000020B000002021060008E004002023
:100A0000D805002046C40108800600204DC4010816
:100A100081060020E3C0010855C401085BC4010839
:100A2000910D00086FD50108D513000861C40108B5
:100A3000910A000868C40108FD0F00080D0F0008A6
:100A40006DC40108B906000809D40108691200083C
:100A500023D4010871C4010879C4010880C40108C5
:100A60007C4F0020804F0020415000207F4F00200D
:100A700070B507F083FFC36B00F13C061D68FFF7FC
:100A80009BFD04463046A847C4E9120170BD000032
:100A90002DE9F04F9BB007F071FF8046FFF78CFD0A
:100AA00090F838300546002B00F0078190F8394067
:100AB000002C40F00281A04808F1640909F09CFE76
:100AC0000121484607F000FC07F058FF074600F1F7
:100AD0003C0A14F067F804704470C474064614F0BD
:100AE00067F8FB6B50461B689847944BCDE90001B3
:100AF000D3E91C2380185941CDE9040100200021CD
:100B0000CDE902011946104609F00CFE8346DDE9E5
:100B1000020109F007FE59460246894809F06CFEB9
:100B20004FF475711420FFF709FDFB6B50461B68ED
:100B30009847DDE90423DDE900BC121A63EB0103E9
:100B4000B0EB0B0B61EB0C0C3178CDE902BC01343E
:100B500069B9022C40F0B6807A48CDE9062309F045
:100B60004BFE07F1640007F087FBDDE9062371788F
:100B700019B9012A73F10001C4DA642013F052FCA0
:100B8000002800F0AC804822314608A816F0C5FEC7
:100B900013F064FC9DF822302BB19DF8213013B97D
:100BA00001238DF821309DF82130BBB10D9B23F03E
:100BB0007F4323F0FF038BB90E9B33F47F030DD1EA
:100BC0000F9B33F47F4409D10021119816F006FBE6
:100BD00020B15D4809F010FE8DF821409DF83330BA
:100BE0005BB10BA814F006F84FA3D3E900238242AF
:100BF0008B4102DB00238DF83330504C237873B1E6
:100C00009DF833305BB1D8F83C300BA85E6813F028
:100C1000F1FF08F13C0702460B463846B047002179
:100C2000484607F051FB9DF82160002E5CD04748F4
:100C300009F0E2FDC8214FF49670FFF77FFC002118
:100C40004FF49670FFF77AFC95F8553005F154068D
:100C50003BB3E36F2BB308A9304614F051F815F0FD
:100C6000B9FC8046E06F894615F092FC30A3D3E9C9
:100C7000002315F007FD02460B464046494615F095
:100C800087FF70B10BA813F0B5FFB1F1004F08BF9B
:100C9000002806D0D5E9102382428B4101DAC5E94C
:100CA0001001482208A9304616F037FE284809F0FE
:100CB000A3FD9DF8213085F89C30264B18781BB099
:100CC000BDE8F08F052C7FF652AF2348CDE906230F
:100CD00009F092FDFFF770FC0121017745E78DF8DF
:100CE00021008DF8330088E71C4809F085FDC821F4
:100CF0004FF49670FFF722FCC8211420FFF71EFC6A
:100D0000C8211420FFF71AFCC8211420FFF716FC95
:100D1000C8211420FFF712FC31461420FFF70EFC07
:100D2000C4E700BFAFF30080FFE00B5E00000000EF
:100D3000FCA9F1D24D62503F78C2010808000020A2
:100D40008BC20108AAC20108F0C2010807C301084A
:100D500033C301087C4F0020D0C201081CC3010826
:100D600038B507F00BFE0546FFF726FC044628467B
:100D700007F0A8FB6083284607F0EEFC618B208318
:100D80000246BDE83840014809F036BD87C4010875
:100D90002DE9F04107F0F2FD0446FFF70DFC484E47
:100DA00005463368DB0708D404F0CAFC80220146FC
:100DB000444803F0FDFC01233360424B424A2B6060
:100DC000424B04F13C005978012611709A78404B4F
:100DD0001A70404A404B1A60E36B1B68984785F8CD
:100DE0002860C5E9040104F16405FFF7B9FF314645
:100DF000284607F069FA322613F0D4FE037833B997
:100E0000236864211B6920469847013EF4D113F002
:100E1000C9FE03788BB9314809F0EEFC284607F08B
:100E20002BFA322613F0BEFE037833B9236864210F
:100E30001B6920469847013EF4D10021284607F05F
:100E400043FA0A2000F0BCFF07F098FD044613F0B7
:100E5000A9FE057894F88040002D14BFA0464FF0FD
:100E600000081F4E1F4F204809F0C6FC002D14BF7C
:100E70003A4632461D4B1E491E4809F0BDFC002C67
:100E800014BF3A463246194B1B491A4809F0B4FCC4
:100E90001A491B48B8F1000F08BF314609F0ACFCF5
:100EA000184809F0A9FCFFF787FB174B85F00105EF
:100EB00084F00104057744771878BDE8F08100BF1D
:100EC000DC040020E8040020B1000020080000201D
:100ED000B00000207705000860500020BDC1010867
:100EE000B5C10108B0C10108E4C1010837CA010851
:100EF000F4C10108FFC1010817C20108BAC1010805
:100F00001CC2010831C201087C4F002008B5FFF760
:100F100053FB03685B6873B990F8283013B190F8FD
:100F2000292032B190F838301BB190F8393083F075
:100F30000103184608BD0123FBE700000048704785
:100F40000800002007F01ABDF8B5FFF735FB264B67
:100F50000022D3E900674FF000439F4208BF96424A
:100F6000044608D000F14001D1E90001B042B94186
:100F700001DAC4E91067D4E91201994208BF90422E
:100F800006D0D4E9102382428B4101DAC4E9100172
:100F9000D4E91023B3F1004F08BF002A22D007F094
:100FA000EDFCC36B3C301B689847D4E91023821AD0
:100FB000154661EB03031E460C4BD3E91A239542F9
:100FC00076EB0303ACBF01250025236DAB4208D0AF
:100FD000074B08490848002D08BF194609F00CFCCA
:100FE0002565F8BD0125F0E7A800002008000020D5
:100FF000A1C10108A8C101088DC101082DE9F04176
:10100000894E86B0DE2205460F4602A8314608F01A
:101010006AFCFFF7D1FA0446FFF796FF23685B6886
:101020006BB1824809F0E8FB6B463A4631462068CE
:1010300003F018FC9DF800302E606B71287194F855
:101040002830002B2FD094F8296066BB0127784800
:1010500009F0D2FBD4E9042384F82970C4E90823F9
:10106000FFF7AAFA044602A808F077FC03227149A8
:1010700002A808F045FC072102A808F05FFC3946E9
:1010800002A808F05BFC314602A808F057FCFFF705
:1010900093FA027F437F002A40F08A80002B14BF1E
:1010A0006621002188E0644809F0A6FBD4E9042306
:1010B000C4E90C23012384F83930FFF77DFA044694
:1010C00002A808F04AFC04F15401684613F0D8F86D
:1010D000009FB4F9181002A8019E08F041FC618B32
:1010E00002A808F06FFC5549384615F0E3FE16F0EB
:1010F000BDF8014602A808F04CFC5049304615F0F6
:10110000D9FE16F0B3F8014602A808F042FC4C499B
:10111000A06F15F0CFFE16F0A9F8014602A808F05E
:101120002CFC236D02A8002B0CBF0221002194F897
:101130009C30194308F002FC94F8581002A808F0FB
:10114000FDFBD4F874803F49404616F06FF8002844
:1011500061D13D49404615F0ADFE16F0ADF8C1B283
:1011600002A808F0EBFB0021384616F037F80028FB
:1011700053D00021304616F031F800284DD0002120
:10118000A06F16F02BF8002847D00022002302A8F9
:1011900008F00CFCD4E9102302A808F007FC02A810
:1011A00008F0D7FB044602A808F0D5FB02232CE088
:1011B000002B14BF6721652102A808F0BFFB0FF0C8
:1011C0004BFD014602A808F0B9FB002102A808F077
:1011D000B5FB618B02A808F0F5FBB4F9181002A862
:1011E00008F0BEFB226D94F89C30002A0CBF02214F
:1011F000002102A8194308F0A1FB02A808F0A9FBEE
:10120000044602A808F0A7FB01236B712C6028712B
:1012100006B0BDE8F081FF21A2E704F1600013F001
:10122000E9FC02460B46B2E7F80400203FC2010881
:1012300056C2010817C0010868C201080050C34720
:101240000000C8420000CC410000204108B5FFF773
:10125000B3F9044B006D03F1200200280CBF1846BF
:10126000104608BD300000202DE9F84F07F086FB3E
:101270004FF0004B0546FFF79FF94FF0000AD0E909
:101280000C235B4508BF5245044606D1012380F874
:101290003830454B1878BDE8F88FFFF7D7FFEB6B78
:1012A00005F13C071B68064638469847D4E90423F5
:1012B00010F1010841F100095B4508BF524559D1C1
:1012C0003A4809F099FA012384F82830D4E9042334
:1012D000B3F1004F08BF002A54D1354809F08CFA09
:1012E000012384F8383094F828301BB194F8293061
:1012F000002B4FD094F838301BB194F83930002BC4
:1013000048D0D4E91001B1F1004F08BF002845D101
:101310002849294809F070FAEB6B38461B68984752
:1013200002460B4680462548894609F0FFF809F039
:10133000E3F90146224809F05FFA4B46424630463F
:1013400009F0F4F809F0D8F901461E4809F054FAFA
:1013500002F05AFB07F012FB002107F021FB07F017
:101360000DFB002107F0F4F90DF0E2FD236DCBB980
:10137000154B8FE7114809F0D9F8804579EB010347
:10138000A4DB9DE7304609F0D1F8804579EB0103F5
:10139000A9DBA2E70D4809F02FFA7AE709F0ACF9CA
:1013A0000146B6E70A4B75E77F4F00209EC3010850
:1013B000B7C3010898C30108E1C301081000002069
:1013C000F9C3010813C4010880060020CEC3010838
:1013D00081060020F8B5FFF7EFF8044607F0CEFAD3
:1013E000D4E90423C4E90223C36B3C301B6898474B
:1013F000C4E90401256DFFF7A7FDD4E90823B3F183
:10140000004F08BF002A5FD0D4E90467344809F0D0
:101410008DF8864277EB0103ACBF0123002384F8EB
:101420002830002384F82930FFF710FFD4E90C237B
:10143000B3F1004F08BF002A48D0D4E9046709F08F
:1014400075F8864277EB0103ACBF0123002384F8D3
:101450003830236D0022AB4218BF01234FF0000645
:1014600018BF84F838304FF0004384F83960C4E97D
:10147000122307F083FA0546314607F069F9194B44
:10148000997858780DF0BAFD2B6864211B692846BD
:1014900098471549284607F05BF92B6864211B69BA
:1014A000284698471049284607F052F9FFF758FC9C
:1014B00094F8282094F8383062B14BB10B4809F009
:1014C0009BF90B4B1878F8BD0123A8E70123BEE771
:1014D0000848F4E70BB10848F1E70848EFE700BF18
:1014E0001000002008000020710A00084CC3010809
:1014F0007C4F002066C3010877C3010886C301083A
:1015000013B507F03BFA044603689B6898472368C5
:101510002046DB6801219847236820461B694FF469
:10152000FA71984723682046DB6800219847002419
:1015300001234FF49672CDE900340749234607484A
:1015400000F0C4F800F09CFA40F28F21044802F049
:101550002DFB204602B010BDA1C401080D070008F4
:101560005EC10108FF23024A1370024A13707047DC
:101570008006002081060020064A13681968064B81
:1015800019B94FF0FF321A6070471268D268D268FA
:101590005268F8E7880600203807002010B5044696
:1015A00020B940F2F261084802F000FB6269074B83
:1015B0009A4207D1A06A064B984203D0B0FA80F055
:1015C000400910BD0020FCE75EC10108580700205B
:1015D00040070020F8B51B4B1B4E1C6805463068C1
:1015E0000F46043001F0ADFA334640B901203168AE
:1015F000164EC96A3268884022EA000232606A1CCC
:1016000007D137B1196812480431BDE8F84001F03C
:1016100075BA1A686419546007D30E4A10681968BD
:10162000BDE8F840043101F075BA0B4A106819683A
:10163000043101F06FFA094B1A68A24288BF1C609E
:10164000F8BD00BF800700208406002008070020A6
:10165000580700208C06002088060020380700204C
:1016600080B5DFF86480144F144C154E236863B9BD
:10167000144B1B68012BF8D94FF08053C8F8003089
:10168000BFF34F8FBFF36F8FEEE701F0C3FAFB6834
:10169000DD68281D01F055FA3368013B336023688B
:1016A000013B236001F0D6FA286B01F07FFC28464D
:1016B00001F07CFCDAE700BF6C070020F806002090
:1016C000F40600209006002004ED00E02DE9F84F1C
:1016D0004FEA820A804650460D4699460B9E01F01D
:1016E000D3FB0746002800F0AB805C2001F0CCFB68
:1016F0000446002800F0A180076325B94FF4587113
:10170000564802F053FA5246A521206B16F029F9EB
:10171000236BAAF1040A9A442AF0070A6B1E04F10B
:1017200034020F3513F8011F02F8011B197809B1B3
:10173000AB42F7D10A9D4FF0000B042D28BF0425C2
:10174000271DE562C4E9135B384684F843B001F015
:10175000D2F9C5F1050504F1180001F0CCF9C4F87F
:1017600054B02461A561646284F858B04A46414689
:10177000504601F025FA206006B1346001F04AFAC3
:10178000374B384E1A68DFF8188101321A60326818
:10179000002A58D134601B68012B25D1324801F052
:1017A0009FF9324801F09CF9314801F099F9DFF8CE
:1017B000F490304801F094F92F4D304801F090F941
:1017C000484601F08DF9284601F08AF92C4801F0CD
:1017D00087F92C4801F084F92B4801F081F92B4B53
:1017E000C3F800902A4B1D6001252A4A2A49136834
:1017F000086801331360E26A636405FA02F3034385
:1018000014200B60184B394600FB023001F076F9CA
:1018100001F020FAD8F8003063B13368DA6AE36A7D
:101820009A4207D24FF080521C4B1A60BFF34F8F81
:10183000BFF36F8F2846BDE8F88F384601F0B6FB3E
:101840004FF0FF35F6E7D8F80030002BCCD13368E5
:10185000DA6AE36A9A4298BF3460C5E75EC101085C
:10186000F40600208406002090060020A406002034
:10187000B8060020CC06002020070020E00600204B
:10188000400700206C070020580700208806002031
:101890008C060020040700200807002004ED00E06B
:1018A000540700200C07002070B50446284D01F0B5
:1018B000B1F904B92C68261D304601F042F960B92F
:1018C0001421E06A234B41435B5833B9012222497A
:1018D00082400B6823EA02030B60A36A1BB104F188
:1018E000180001F02EF91D4A1368013313602B68AC
:1018F000A34220D131461A4801F000F9194A136871
:101900000133136001F0A6F9174B1B6893B12B68E4
:10191000A3420FD1154B1B6823B140F2B6411448C6
:1019200002F044F94FF08052124B1A60BFF34F8F10
:10193000BFF36F8F70BD104A206B1368013B1360BB
:1019400001F034FB204601F031FBFFF715FED9E72B
:1019500084060020900600200807002004070020CD
:101960006C070020F8060020540700200007002024
:101970005EC1010804ED00E0F4060020F8B505465C
:1019800020B940F24C51174802F010F9164B1B6871
:10199000AB4220D001F03EF9144B6C691F68144B28
:1019A0001E6801F057F9BC4217D0B44215D0114B54
:1019B0009C4208D1AB6A83B995F85830012B0CBF13
:1019C00002200320F8BD0C4B9C4208D0002C0CBF19
:1019D00004200120F6E70020F4E70220F2E70420CB
:1019E000F0E700BF5EC101088406002088060020E1
:1019F0008C060020580700206C07002070B50446B4
:101A000020B940F21C71194802F0D0F8184D2B682B
:101A1000A34229D044B301F0FDF82046FFF7BEFDF4
:101A2000F0B1261D304601F08CF801231149E26A1D
:101A300008689340034314200B600F4B314600FBB2
:101A4000023001F05BF82B68E26ADB6A9A4207D346
:101A50004FF08052094B1A60BFF34F8FBFF36F8F67
:101A6000BDE8704001F0F6B870BD00BF5EC101086E
:101A700084060020080700209006002004ED00E006
:101A800013B50024174B00940193502223461649A6
:101A90001648FFF71BFE012818D100F099FE012817
:101AA00014D14FF0500383F31188BFF36F8FBFF34E
:101AB0004F8F4FF0FF320E4B1A600E4B18600E4BDB
:101AC0001C6002B0BDE8104001F024B9013007D11C
:101AD00040F60401094802B0BDE8104002F066B8C3
:101AE00002B010BD34070020AAC401086116000826
:101AF0003807002054070020800700205EC101083D
:101B0000024A136801331360704700BF00070020CA
:101B1000014B1868704700BF8007002008B501F02E
:101B200053F9014B186808BD80070020014B186865
:101B3000704700BFF40600202DE9F84F3A4B1B68B0
:101B4000002B6AD1394B1C6801341C609CB9384D9C
:101B50002B681B6823B140F66221364802F026F854
:101B6000354B2A68196829601A60344A13680133B2
:101B70001360FFF701FD324D4FF0000B2B68314F22
:101B8000A34211D93A68304BD16A14224A439A5879
:101B9000022A28BF4FF0010B2C4A1268002A0CBF02
:101BA00058460120BDE8F88FDFF884A0DFF8A49044
:101BB000DAF8002012681AB94FF0FF322A60E1E724
:101BC000DAF80020D268D66871688C4201D22960A8
:101BD000D8E706F10408404600F0B3FFB16A19B136
:101BE00006F1180000F0ADFF01224FF0140CF06A6E
:101BF000D9F8003002FA00F11943134BC9F800106C
:101C00000CFB0030414600F079FF3868F16AC26A87
:101C1000914228BF4FF0010BCAE70D4A4FF0000B6D
:101C2000136801331360B7E7000700208007002026
:101C3000880600205EC101088C0600203C070020B9
:101C4000380700208406002090060020840700202A
:101C5000FC060020080700202DE9F8432E4C2368DD
:101C600023B940F668012D4801F0A0FF00F0D2FF33
:101C70002368013B236024682CB1002400F0EAFFB4
:101C80002046BDE8F883264B1B68002BF5D0254D78
:101C9000254EDFF8A8801FE0EB680127DC6804F11F
:101CA000040904F1180000F04CFF484600F049FF19
:101CB0001420E26A316807FA02F30B4300FB02804A
:101CC0004946336000F01AFF184BE26A1B68DB6A72
:101CD0009A4201D3164B1F602B68002BDCD10CB14C
:101CE000FFF74AFC134D2C6844B10127104EFFF753
:101CF00023FF00B13760013CF9D12C600C4B1B680D
:101D0000002BBAD04FF080520B4B1A60BFF34F8FAD
:101D1000BFF36F8F0124B1E7000700205EC1010807
:101D2000F406002040070020080700208406002059
:101D300084070020FC06002004ED00E0900600204F
:101D400038B50C46054620B940F2CA41184801F0A2
:101D50002DFF24B940F2CB41154801F027FF154B68
:101D60001B6823B140F2CC41114801F01FFFFFF77F
:101D7000C7FE114B2A68186814192CBF01210021D5
:101D800082422C600CD961B9FFF766FF38B94FF079
:101D900080520A4B1A60BFF34F8FBFF36F8F38BD6D
:101DA00009B9A042F0D20021201AFFF713FCEBE79B
:101DB0005EC10108000700208007002004ED00E05C
:101DC00010B5044640B94FF080520D4B1A60BFF376
:101DD0004F8FBFF36F8F10BD0A4B1B6823B14FF4B9
:101DE000A461094801F0E2FEFFF78AFE00212046C7
:101DF000FFF7F0FBFFF730FF0028E4D0EBE700BF70
:101E000004ED00E0000700205EC10108224B70B520
:101E10001A68224B12B101221A6070BD204E1A605E
:101E200033681B6B1A68B2F1A53F0BD15A68B2F147
:101E3000A53F07D19A68B2F1A53F03D1DB68B3F1A2
:101E4000A53F04D030683168343101F07FFE154B76
:101E50001C68B4FA84F41423E4B2C4F11F0463438D
:101E6000114DEB5823B940F68831104801F09EFE21
:101E7000142202FB04F3E9184868083340682B4435
:101E8000984202FB045408BF4368486008BF4B6097
:101E90006368DB683360C0E7000700208407002028
:101EA0008406002008070020900600205EC101087B
:101EB00070B504462A4E00F0ADFE04B93468251D05
:101EC000284600F03EFE60B91421E06A254B4143EC
:101ED0005B5833B90122244982400B6823EA02038C
:101EE0000B60A36A1BB104F1180000F02AFE29461A
:101EF0001E4800F003FE94F858301D4D012B04BF1E
:101F0000002384F8583000F0A5FE2A682AB100F0BA
:101F100081FEFFF731FB00F09DFE3368A34211D133
:101F20002B6883B1134B1B6823B14FF4D96112485E
:101F300001F03CFE4FF08052104B1A60BFF34F8F00
:101F4000BFF36F8F70BD094A11680D4A1268914244
:101F500001D13360F6E7BDE87040FFF757BF00BF1F
:101F60008406002090060020080700205807002063
:101F700054070020000700205EC1010804ED00E0C6
:101F8000F406002038B50D46044620B940F69F31CE
:101F9000074801F00BFE074B20461968183100F086
:101FA000B9FD2846BDE838400121FFF713BB00BF4B
:101FB0005EC101088406002070B50E461446054631
:101FC00020B940F6CA310A4801F0F0FD094B284615
:101FD0001968183100F092FD002C214608BF3046E8
:101FE000BDE8704018BF4FF0FF30FFF7F3BA00BFF5
:101FF0005EC101088406002038B5C368DC6824B9D6
:1020000040F6FA31154801F0D1FD04F118052846D3
:1020100000F097FD124B1B68E3B9251D284600F020
:1020200090FD01230F49E26A08689340034314209E
:102030000B6029460C4B00FB023000F05FFD0B4BA0
:10204000E26A1B68DB6A9A4285BF0120084B0020C8
:10205000186038BD29460748EFE700BF5EC1010898
:1020600000070020080700209006002084060020BA
:102070008407002040070020034B1B680360034BCC
:102080001B684360704700BF3C07002080070020AA
:1020900070B50C46054620B940F66541144801F07C
:1020A00085FD24B940F66641114801F07FFD00F03E
:1020B000B1FD104B1A682368591C0FD00E482E68CA
:1020C00000686968864201D091420ED9521A934243
:1020D00009D99B1A23602846FFF7CEFF002400F0A1
:1020E000B9FD204670BD002323600124F7E700BF3F
:1020F0005EC10108800700203C0700200122014B3F
:102100001A6070478407002070B50C4616460546D5
:1021100008B91B4A156805F134026260EA6A052BAA
:1021200022612A6B2560E2616A6CA260EA6C6261DE
:102130004FF00002A2611BD011490968A9420BD1DE
:102140002273D6B1296B0A46531A12F8010BA5283F
:10215000FAD09B08238470BD032B2373F1D1FFF7C2
:10216000CFFCAB6A0BB102232373FFF775FDE8E7E1
:102170002846FFF703FC2073E3E72684EBE700BF64
:10218000840600202DE9F84F0D6881460C469246E2
:102190001DB300254FF0240B4B6801F108075B6865
:1021A000BB424B6004BFCB684B604B68D3F80C80DC
:1021B00063680BFB05915B6801229F42636008BF67
:1021C000E36805F1010508BF63606368DE68534694
:1021D0003046FFF799FFB045EAD12846BDE8F88FB1
:1021E0002DE9F84305461746FFF78AFC1F4B1B688D
:1021F0008B4238D84FF0000824264446DFF8809000
:1022000009EB080106FB04500122FFF7BBFFA8F110
:10221000140818F1640F0444F2D1154B0222196816
:1022200006FB0450FFF7AEFF124B0444196802226C
:1022300006FB0450FFF7A6FF044404220E4906FBE8
:102240000450FFF79FFF044406FB045003220B4990
:10225000FFF798FF04440FB100233B60FFF7FCFC3D
:102260002046BDE8F8830024F8E700BFF40600200C
:10227000880600208C0600206C07002058070020EC
:10228000E0060020014B1868704700BF840600205C
:10229000054B1B6833B1054B1B68002B0CBF02209C
:1022A00000207047012070475407002000070020DD
:1022B0002DE9F0410446002836D0234AC36A11684C
:1022C0001746C96A8B4237D2142682691F4D002AED
:1022D000A8BF3A6806FB0353A2BFD26AC2F1050247
:1022E000826142699A4221D100F10408404600F01F
:1022F00028FC174B48B9E06A4643AA592AB901217C
:102300001A68814022EA01021A603A681968D26AA2
:10231000E262012404FA02F00843186014204146E6
:1023200000FB025000F0EAFB204603E03B68DB6A5A
:10233000C3620120BDE8F0811368C06CDC6AA04272
:102340002CBF00200120F5E7840600209006002025
:1023500008070020F8B5044608B90020F8BD1F4B57
:102360001B68834204D040F67A711D4801F01EFCC0
:10237000236D23B940F67B71194801F017FC236DDA
:10238000E16AE26C013B91422365E6D0002BE4D187
:10239000251D284600F0D5FB124E134A50B91421D2
:1023A000E76A794373582BB901201368B84023EAD0
:1023B00000031360E36CC3F10501A161E362012432
:1023C000116804FA03F0084310601420294600FB4A
:1023D000036000F093FB2046C0E700BF84060020A6
:1023E0005EC101089006002008070020F8B50D46E0
:1023F0000446002845D0036D23B940F6C971214831
:1024000001F0D4FBE36C9D4238BF1D46E36AAB424A
:1024100037D0236D012B34D11B4B1B68A34204D151
:1024200040F6E471174801F0C1FB1426A269E36A83
:10243000002AE562A4BFC5F10505A561134D6269D7
:1024400006FB03539A421CD1271D384600F079FB46
:10245000E26A0F4C40B95643AB592BB901212368AE
:10246000914023EA01032360012314202168934053
:102470000B432360394600FB0250BDE8F84000F0F2
:102480003DBBF8BD5EC10108840600209006002017
:1024900008070020044B1A681AB119680A6D013246
:1024A0000A651868704700BF840600202DE9F041D6
:1024B0001E4C1E4680460F46154600F0ABFB2368B7
:1024C00093F85830022B14D0012123685A6D22EA68
:1024D00008025A65236883F8581056B13046FFF752
:1024E00079F84FF08052124B1A60BFF34F8FBFF351
:1024F0006F8F00F0AFFB00F08DFB15B123685B6DB3
:102500002B602368002293F85830022B09BF012565
:1025100000252368596D04BFB9435965236883F8C2
:10252000582000F097FB2846BDE8F0818406002083
:1025300004ED00E0F8B50E4617461D46044620B9E6
:1025400041F219212B4801F031FB00F063FB0DB182
:10255000636D2B60022394F8585084F85830EDB224
:10256000042F16D8DFE807F00A0307051100636D92
:102570001E43666502E0636D01336365012D11D072
:10258000012400F067FB2046F8BD022DF1D10024A4
:10259000F7E7636D0133F1D041F24A21154801F0AC
:1025A00005FBEBE7261D304600F0CBFA1420124A5B
:1025B000E36A11689D400D431560104A314600FBE7
:1025C000032000F09BFAA36A23B141F25921094884
:1025D00001F0ECFA0A4BE26A1B68DB6A9A42CFD937
:1025E0004FF08052074B1A60BFF34F8FBFF36F8FCE
:1025F000C6E700BF5EC10108080700209006002062
:102600008406002004ED00E02DE9F843DDF8208089
:102610000E4691461D46044620B941F28C213548AC
:1026200001F0C4FA00F0D0FBEFF311874FF0500334
:1026300083F31188BFF36F8FBFF34F8F0DB1636DBD
:102640002B60022394F8585084F85830EDB2B9F159
:10265000040F16D8DFE809F00A0307051100636DBF
:102660001E43666502E0636D01336365012D11D081
:10267000012087F31188BDE8F883022DF1D10020F5
:10268000F7E7636D0133F1D041F2CF21194801F032
:102690008DFAEBE7A36A23B141F2DA21154801F084
:1026A00085FA154B1B6803BB251D284600F049FA27
:1026B00001231249E26A08689340034314200B6027
:1026C00029460F4B00FB023000F018FA0D4BE26A6E
:1026D0001B68DB6A9A42CBD90123B8F1000F01D005
:1026E000C8F80030084A1360C2E704F1180107482F
:1026F000EAE700BF5EC101080007002008070020CC
:102700009006002084060020840700204007002057
:1027100038B5054608B9084B1D68002400F07AFA60
:1027200095F85830022B04BF85F85840012400F07A
:1027300091FA204638BD00BF84060020F8B50F4C42
:1027400000F068FA2568ADB90D4F0E4E384600F01E
:10275000C7F9304600F0C4F90B4B2A461F600B4BFB
:102760000C210A201E6000F02FFD206010B10849E6
:1027700001F0EEF8BDE8F84000F06CBABC070020AC
:1027800090070020A4070020880700208C07002065
:10279000AFC40108914208B5416000610AD8D21A5D
:1027A00083699A420DD2084B011D186800F0B2F9F6
:1027B000002008BD9A4201D2994202D2011D034B6A
:1027C000F3E70120F5E700BF8C0700208807002011
:1027D00007B5FFF7B3FF0C4B1B6843B90B484FF429
:1027E000897101F0E3F9002003B05DF804FB084BA8
:1027F000C822019301230749009307480023FEF7ED
:1028000065FF0028EAD0EFE7BC0700205EC10108A1
:10281000C0070020B4C40108352900082DE9F041A3
:1028200080462C200D4617461E4600F02DFB044620
:1028300088B125B94FF4B671084801F0B7F9FFF730
:102840007DFF069BC4F80080C4E9065726626362D8
:10285000201D00F050F92046BDE8F0815EC101085E
:102860002DE9FF410D4690461F46064620B94FF41C
:10287000C3710F4801F09AF90E4C206878B1052D0C
:10288000CDE9015803960DDCFFF702FD0023022875
:102890000CBF0A9A1A4601A9206800F0B9FC04B0DE
:1028A000BDE8F08100233A4601A900F067FDF6E794
:1028B0005EC10108BC0700202DE9F74300271A4D2F
:1028C000DFF86C802B681A6832B9184A11681360F7
:1028D000296003B0BDE8F083DB68DC681E6804F1A2
:1028E0000409484600F02DF9636A20469847E369D9
:1028F000012BE7D1A36933449E4206D26360246171
:102900004946286800F006F9DCE7002300973246C4
:1029100019462046FFF7A4FF0028D3D140F27231B8
:10292000404601F043F9CDE7880700208C070020DE
:102930005EC101082DE9F04F4FF00108624D89B0EA
:10294000DFF898B1DBF80020136843B30024D368A4
:10295000D3F80090FFF7D4F8FFF7DAF85B4B824624
:102960001A681F4690425A4E1CD31860002C4CD057
:10297000584B1B681A68B2FA82F25209A9EB0A0195
:10298000306801F01DF8FFF767F998B94FF08052F1
:10299000514B1A60BFF34F8FBFF36F8F0AE00124D2
:1029A0009946D7E70393FFF787FF039BC3F800A07F
:1029B000FFF752F9002205A9306800F083FD0028D6
:1029C000BED0059B002BF5DB079C636913B1201D6E
:1029D00000F0B7F8FFF79CF83B688146984201D2B7
:1029E000FFF76AFF059BC7F80090092BE2D808FAA9
:1029F00003F313F4047A57D113F0C70F33D19B06B6
:102A0000D8D5204600F0D2FAD4E7814529D8FFF77F
:102A100023F9DBF80030DB68D3F80CB00BF10400CD
:102A200000F08FF8DBF81C30012B15D1DBF8181003
:102A30004B46524649445846FFF7ACFE60B10094FD
:102A400023464A4621465846FFF70AFF20B94FF46D
:102A5000F471284601F0AAF8DBF82430584698476C
:102A6000A8E722468AE7A169069B4A461944204600
:102A7000FFF790FE00289DD0636A20469847E369DF
:102A8000012B97D1A2690699CDF800A00A445346BC
:102A900051462046FFF7E4FE00288BD140F2013179
:102AA000284601F083F885E7069BA36123B94FF41C
:102AB0004671284601F07AF8A1694B464A464944D6
:102AC0002046FFF767FE75E75EC10108B8070020E2
:102AD000BC0700208C07002004ED00E088070020E0
:102AE0004FF0FF3200F108034360C0E902230361A5
:102AF00000230360704700230361704743689A68AE
:102B00004B608A609A68516099600368086101337C
:102B1000036070470A6830B5531C0AD103695A68CC
:102B20004A6091608B6059600368086101330360FB
:102B300030BD00F108035C6825689542EFD8234654
:102B4000F9E70369D0E901128A6082685160596827
:102B5000814208BF5A60002202611A68013A1A6075
:102B60001868704706480068006880F3088862B6F5
:102B700061B6BFF34F8FBFF36F8F00DF00BF000060
:102B800008ED00E0002307B501930B4B1B680133F0
:102B900003D0CA21094801F009F84FF0500383F32C
:102BA0001188BFF36F8FBFF34F8F019B002BFCD0B9
:102BB00003B05DF804FB00BF880000205EC101087F
:102BC0004FF0807340F8043C054B21F0010140F8C0
:102BD000081C40F80C3C40F8202C4038704700BFDF
:102BE000852B00080000000000000000000000002D
:102BF000074B19680868B0E8F00F80F30988BFF345
:102C00006F8F4FF0000080F311884EF00D0E70476B
:102C1000840600204FF0500383F31188BFF36F8FB9
:102C2000BFF34F8F084A13680133012B136009D19A
:102C3000064B1B6813F0FF0F04D040F275110448D7
:102C400000F0B4BF704700BF8800002004ED00E032
:102C50005EC1010810B5074C236823B94FF4BE715B
:102C6000054800F0A3FF2368013B23600BB983F301
:102C7000118810BD880000205EC10108000000001E
:102C8000EFF30980BFF36F8F0D4B1A6820E9F00F47
:102C900010602DE908404FF0500080F31188FFF7D5
:102CA000B5F84FF0000080F31188BDE808401968BE
:102CB0000868B0E8F00F80F30988BFF36F8F7047A2
:102CC0008406002008B54FF0500383F31188BFF34A
:102CD0006F8FBFF34F8FFEF72FFF18B14FF0805269
:102CE000024B1A60002383F3118808BD04ED00E055
:102CF0000022054B05491A600A6041F26701044A47
:102D0000116007221A60704710E000E018E000E050
:102D100014E000E013B5264B264C1A78D2B201928B
:102D2000FF221A701B78244ADBB28DF803309DF81D
:102D3000033003F0500313700723002223609DF833
:102D40000310581E090629D402B123602368032BFF
:102D500004D04FF49B71194800F028FF2368144AEF
:102D60001B0203F4E06323600024019BDBB21370B9
:102D7000134B1A6842F470021A601A6842F07042EB
:102D80001A60FFF7B5FF0F4B1C60FFF7EBFEFFF774
:102D90003DF8FFF7F7FE204602B010BD9DF8033066
:102DA00001225B00DBB28DF803300346C7E700BFAA
:102DB00000E400E0C8070020C40700205EC101084D
:102DC00020ED00E08800002008B5EFF305830F2B0D
:102DD0000AD90D4A9B5C0D4A12789A4204D940F2F6
:102DE000A5210B4800F0E2FE0A4B0B4A1B68126853
:102DF00003F4E063934206D9BDE8084040F2B521F0
:102E0000034800F0D3BE08BDF0E300E0C407002093
:102E10005EC101080CED00E0C807002010B50F4BA3
:102E20001A68824218D35C681919884201BF416848
:102E3000184609195960446801198A4207D108499E
:102E400009688A421FBF5168126809194160984297
:102E5000026018BF186010BD1346E1E7DC4B00208C
:102E6000CC07002038B5064B064D1C68246804B911
:102E700038BD6307FAD07921284600F097FEF5E7C0
:102E8000DC4B00205EC101082DE9F8430746FEF740
:102E900037FE3F493F4D0B680BBB3F4A3F4E500743
:102EA0001DBFD01D20F0070002F588434FF4884372
:102EB0001CBF02461B1A00201344083B23F00703E3
:102EC00070603260C3E90000981A0B60C2E90030FC
:102ED000334B1860334B18604FF000432B602B6866
:102EE0001F4252D1002F41D007F1080462071CBFD6
:102EF00024F007040834002C47D02A4B1A6898465F
:102F0000A24242D3254B1E687268A24202D23068A8
:102F1000002837D10968B14237D01F683168121BC9
:102F2000102A07F10807196010D906EB040919F0F7
:102F3000070F03D0D7211C4800F038FE73684846BD
:102F40001B1BC9F804307460FFF768FF14497268EE
:102F5000D8F8003008689B1A8342C8F8003038BFA0
:102F60000B602B681343736000233360FEF774FE1D
:102F70007B0704D040F217110B4800F017FE3846CB
:102F8000BDE8F88333460646BEE70027EEE700BFFC
:102F9000CC070020D04B0020D0070020DC4B0020C5
:102FA000D84B0020D44B00205EC1010838B5044640
:102FB00070B3184D50F8041C2A68114204D140F235
:102FC0002B11154800F0F2FD54F8083C23B14FF4E2
:102FD0009671114800F0EAFD54F8043C2A68134247
:102FE00016D054F8081C99B923EA020344F8043CAB
:102FF000FEF786FD094A54F8043C1168A4F1080064
:103000000B441360FFF70AFFBDE83840FEF724BE0B
:1030100038BD00BFD04B00205EC10108D44B00205A
:10302000014B1868704700BFD44B0020014B186853
:10303000704700BFD84B002010B50446FFF7EAFDEB
:10304000A46BFFF707FEB4FA84F0400910BD70B519
:103050001546026C0446866B42B905689DB98068C6
:10306000FFF778F9A5600136A66370BD6DB94068B9
:1030700014F053FC6368226C1344A26863609342AB
:1030800001D3236863600020EDE7C06814F045FCBD
:10309000236CE2685B4221681A448A42E2603EBFC8
:1030A000A2689B18E360022DEDD10EB1013EEAE764
:1030B0003046D8E703461A6C10B4084662B1D968A6
:1030C0009C681144A142D96028BF196810BC28BF70
:1030D000D960D96814F021BC10BC704770B50446A3
:1030E000FFF798FD94F8455004F124066DB2002DC9
:1030F00014DCFF2384F84530FFF7ACFDFFF78AFDB1
:1031000094F8445004F110066DB2002D12DCFF2338
:1031100084F84430BDE87040FFF79CBD636A002B23
:10312000E7D03046FEF768FF08B1FEF7E7FF013D44
:103130006DB2DCE72369002BE9D03046FEF75CFF77
:1031400008B1FEF7DBFF013D6DB2DEE738B50D4695
:10315000044620B940F20311194800F027FDFFF79B
:1031600059FDD4E90F314B432268D0185B1A134440
:10317000A060E3600020FF23A063626084F8443015
:1031800084F8453095B9236963B104F11000FEF766
:1031900033FF38B14FF080520A4B1A60BFF34F8FA4
:1031A000BFF36F8FFFF756FD012038BD04F110000B
:1031B000FFF796FC04F12400FFF792FCF2E700BF52
:1031C0005EC1010804ED00E0F8B50D46174606465D
:1031D00020B94FF4BB710D4800F0E8FC05FB06F088
:1031E0005030FFF751FE044648B155B92060C4E99C
:1031F0000F6501212046FFF7A9FF84F84C70204697
:10320000F8BD00F150030360F1E700BF5EC10108A3
:103210002DE9FF47884601921E46044620B940F238
:10322000F1214B4800F0C2FCB8F1000F06D1236C2D
:1032300023B140F2F221464800F0B8FC022E07D13B
:10324000E36B012B04D040F2F321414800F0AEFCC7
:10325000FFF71EF830B9019B23B140F2F6213C483C
:1032600000F0A4FC0027B946DFF8E8A0FFF7D2FC85
:10327000A26BE36B9A4201D3022E19D1324641462A
:103280002046FFF7E4FE636A1BB104F12400FEF759
:10329000B3FE38B14FF080522E4B1A60BFF34F8F00
:1032A000BFF36F8FFFF7D6FC012004B0BDE8F087B5
:1032B000019D1DB9FFF7CEFC0020F6E717B902A863
:1032C000FEF7DAFEFFF7C6FCFEF71AFCFFF7A2FCDA
:1032D00094F84430FF2B08BF84F8449094F84530AC
:1032E000FF2B08BF84F84590FFF7B4FC01A902A8A2
:1032F000FEF7CEFE28BBFFF78DFCA26BE36B9A4274
:103300000ED1FFF7A7FC019904F11000FEF73AFE79
:103310002046FFF7E3FEFEF79FFC48B10127A5E733
:10332000FFF798FC2046FFF7D9FEFEF795FCF5E77E
:103330004FF08053CAF80030BFF34F8FBFF36F8F49
:10334000ECE72046FFF7CAFEFEF786FCB4E700BFB5
:103350005EC1010804ED00E010B502460021012025
:10336000FFF732FF044638B1002383600360C36077
:103370001A461946FFF74CFF204610BD2DE9F843C9
:10338000894690461F46044620B940F2C33127487B
:1033900000F00CFCB9F1000F06D1236C23B14FF4FF
:1033A0007171224800F002FC022F07D1E36B012B60
:1033B00004D040F2C5311D4800F0F8FBFFF704FDD2
:1033C000EFF311864FF0500383F31188BFF36F8F33
:1033D000BFF34F8FA26BE36B9A4201D3022F22D12E
:1033E00094F845503A466DB249462046FFF72FFE05
:1033F0006B1C13D1636A0BB901200BE004F12400AC
:10340000FEF7FAFD0028F7D0B8F1000FF4D0012044
:10341000C8F8000086F31188BDE8F88301356DB265
:1034200084F84550E8E70020F4E700BF5EC10108DA
:1034300070B50D46044620B94FF48C61204800F069
:10344000B5FB236C23B140F264411D4800F0AEFB94
:10345000236833B9A36823B140F26941184800F0EA
:10346000A5FBFFF7B1FCEFF311864FF0500383F398
:103470001188BFF36F8FBFF34F8FA26BE36B934243
:103480001CD994F8453001325BB2A2635A1C10D1AA
:10349000636A0BB9012009E004F12400FEF7ACFDDA
:1034A0000028F7D0002DF5D00120286086F3118880
:1034B00070BD01335BB284F84530EBE70020F5E7DF
:1034C0005EC101082DE9F04385B00F460192044624
:1034D00020B94FF4A061424800F068FB37B9236C73
:1034E00023B140F204513E4800F060FBFEF7D0FEED
:1034F00030B9019B23B140F20951394800F056FB25
:103500000026B046DFF8DC90FFF784FBA56BD5B151
:1035100039462046013DFFF7CDFDA563236963B120
:1035200004F11000FEF768FD38B14FF080522D4BCA
:103530001A60BFF34F8FBFF36F8FFFF78BFB012034
:1035400005B0BDE8F083019D1DB9FFF783FB0020A6
:10355000F6E716B902A8FEF78FFDFFF77BFBFEF733
:10356000CFFAFFF757FB94F84430FF2B08BF84F8DD
:10357000448094F84530FF2B08BF84F84580FFF75E
:1035800069FB01A902A8FEF783FDF0B92046FFF709
:1035900053FDA0B1019904F12400FEF7F3FC20468D
:1035A000FFF79CFDFEF758FB38B94FF08053C9F880
:1035B0000030BFF34F8FBFF36F8F0126A4E7204683
:1035C000FFF78CFDFEF748FBF7E72046FFF786FD87
:1035D000FEF742FB2046FFF72FFD0028EDD0B6E7AF
:1035E0005EC1010804ED00E02DE9FF4104460191B0
:1035F00020B940F29151524800F0D8FA236C23B11F
:1036000040F295514E4800F0D1FAFEF741FE30B934
:10361000019B23B140F29A51494800F0C7FA0025B6
:103620002F462E46DFF81C81FFF7F4FAA36BE3B1B7
:10363000013BA363236813B9FEF72CFFA060236945
:1036400063B104F11000FEF7D7FC38B14FF080529F
:103650003C4B1A60BFF34F8FBFF36F8FFFF7FAFA3F
:103660000125284604B0BDE8F081019B4BB925B186
:1036700040F2E151324800F099FAFFF7EBFA0025E9
:10368000EFE717B902A8FEF7F7FCFFF7E3FAFEF73A
:1036900037FAFFF7BFFA94F84430FF2B08BF84F8DD
:1036A000446094F84530FF2B08BF84F84560FFF76D
:1036B000D1FA01A902A8FEF7EBFC40BB2046FFF7B8
:1036C000BBFCF0B123683BB9FFF7A4FAA068FEF792
:1036D000EFFD0546FFF7BEFA019904F12400FEF75D
:1036E00051FC2046FFF7FAFCFEF7B6FA38B94FF066
:1036F0008053C8F80030BFF34F8FBFF36F8F01279F
:1037000092E72046FFF7EAFCFEF7A6FAF7E7204625
:10371000FFF7E4FCFEF7A0FA2046FFF78DFC002837
:10372000EDD0002D9DD0FFF775FA616A19B1236BBA
:103730001968C1F10501A068FEF758FE9DE700BFBA
:103740005EC1010804ED00E02DE9F04385B00F46AD
:103750000192044620B94FF4CD61424800F026FAA8
:1037600037B9236C23B140F26C613E4800F01EFA79
:10377000FEF78EFD30B9019B23B140F271613948EB
:1037800000F014FA0026B046DFF8DC90FFF742FAAA
:10379000A36BD3B139462046E568FFF78BFC636A1B
:1037A000E56063B104F12400FEF726FC38B14FF068
:1037B00080522D4B1A60BFF34F8FBFF36F8FFFF70F
:1037C00049FA012005B0BDE8F083019D1DB9FFF75E
:1037D00041FA0020F6E716B902A8FEF74DFCFFF704
:1037E00039FAFEF78DF9FFF715FA94F84430FF2BFC
:1037F00008BF84F8448094F84530FF2B08BF84F854
:103800004580FFF727FA01A902A8FEF741FCF0B9AD
:103810002046FFF711FCA0B1019904F12400FEF746
:10382000B1FB2046FFF75AFCFEF716FA38B94FF005
:103830008053C9F80030BFF34F8FBFF36F8F01265D
:10384000A4E72046FFF74AFCFEF706FAF7E7204612
:10385000FFF744FCFEF700FA2046FFF7EDFB0028D7
:10386000EDD0B6E75EC1010804ED00E02DE9F843B4
:1038700089469046054620B940F2FB61204800F099
:1038800095F9B9F1000F06D12B6C23B140F2FC6120
:103890001B4800F08BF9FFF797FAEFF311874FF011
:1038A000500383F31188BFF36F8FBFF34F8FAC6B5F
:1038B0001CB395F84460494676B22846FFF7FAFBF8
:1038C000013C731CAC6313D12B690BB901200BE0D5
:1038D00005F11000FEF790FB0028F7D0B8F1000FBB
:1038E000F4D00120C8F8000087F31188BDE8F88300
:1038F000013676B285F84460E8E72046F4E700BF79
:103900005EC1010810B5044620B940F28A7105482D
:1039100000F04CF9FFF77EF9A46BFFF79BF9204606
:1039200010BD00BF5EC1010838B5054620B940F2A0
:10393000A471064800F03AF9FFF76CF9A86BEC6B3C
:10394000241AFFF787F9204638BD00BF5EC1010881
:10395000002330B5064A52F8335002EBC3041DB9B8
:1039600042F83310606030BD0133052BF3D1FAE724
:10397000505A0020002310B5074A02EBC3014C68DF
:10398000844204D1002042F83300486010BD013366
:10399000052BF2D1FAE700BF505A002010B50446BB
:1039A00020B94FF4F861054800F000F92046FFF710
:1039B000E1FF2046BDE81040FFF7F8BA5EC10108FC
:1039C00070B504460D461646FFF724F994F84430C6
:1039D000FF2B04BF002384F8443094F84530FF2BBC
:1039E00004BF002384F84530FFF734F9A36B2BB9EB
:1039F0003246294604F12400FEF7DEFA2046BDE8EF
:103A00007040FFF76BBB00002DE9F04742488AB0D9
:103A100006F0F2FEFEF78AF82425079007993F4842
:103A200006F0EAFE0798684306F082FF04463C4829
:103A300006F0E2FE94B107990DEB05022046FEF771
:103A4000CFFB0023DFF8F4A0364F07900893089AC5
:103A5000079B9A421DD3204606F054FFFFF7E0FA79
:103A60000446FFF7E3FA214602462F4806F0C4FE5B
:103A70002E4B2F4819889A888B1A06F0BDFE2D4BC5
:103A80001B6803B198472C4806F0B6FE0AB0BDE8A3
:103A9000F087089B05FB03431B7B013BDBB2032B39
:103AA00098BF1AF80320099B88BF3F22642B83BF6D
:103AB0006420B3FBF0F30899002382BF05FB0141AA
:103AC0008969B1FBF3F308990898DDF820C0DDF8A7
:103AD00020E0DDF82080DDF8209005FB004005FBAC
:103AE0000949D9F81C6005FB0141CDE9033605FB06
:103AF00008439B69029305FB0E439B68019305FBFA
:103B00000C431B8C009303694968384606F074FE29
:103B1000089B013308939AE7C0C40108CCC401088C
:103B2000D7C401080CC501083EC50108785A002019
:103B30005DC501085C4C00200ACC0108BCC401082A
:103B4000014B1860704700BF784C002073B5124CD1
:103B5000064623780D46114A1BB913780BB172B68D
:103B6000FEE70123002113700D48642213F0F9FED3
:103B70002B4600960B4A6421094814F061FD0A4B5C
:103B80001B6803B198470125054E304606F078FEC4
:103B900072B62570F9E700BF544C0020E84B0020B6
:103BA000EA4B002094C50108784C0020F7B5184C6A
:103BB000064623780D46174A1BB913780BB172B627
:103BC000FEE70123002113701348642213F0C9FE9D
:103BD0002B460096114A64210F4814F031FD104B1A
:103BE0001B680BB10C4898470E4B1B6803B19847F4
:103BF0000125094E0C4F304606F042FE384606F0CD
:103C00003FFE72B6094B257000BF013BFCD1F2E7C5
:103C1000554C0020E94B0020EA4B0020BCC50108B0
:103C2000E44B0020784C0020CBC50108FFFF0F00BB
:103C3000F8B5DFF898C003681A4FCCF80030436835
:103C4000194E3B608368194D3360C368184C2B6074
:103C5000036918492360436982690B60164BC06988
:103C60001A60164A1060DCF800003868306828686E
:103C700020681C460968124D1968124E12686422A9
:103C80000021284613F06DFE236832466421284641
:103C900014F0D6FC284606F0F3FD0B4B00BF013BA9
:103CA000FCD1ECE7684C0020704C0020744C0020E4
:103CB0006C4C0020504C0020584C0020604C0020E0
:103CC000EA4B002081C50108FFFF0F00644C002073
:103CD000074B1B6803B198471EF0040F0CBFEFF3AE
:103CE0000880EFF309808169004A1047313C0008E1
:103CF000784C002010B1012105F0B0BE704708B12A
:103D000006F016BE70478068704740687047436889
:103D1000012B08D1D0E90432934204D01878003046
:103D200018BF01207047002070474B6870B5042B06
:103D300004460E464FF0000304D0C0E90033836010
:103D4000204670BDD1E90425AD1AC0E90033836077
:103D50002846FFF7D4FFC4E900000544A560D6E972
:103D60000453024629468B4205D00AB10E781670DC
:103D700001310132F7E75B1B18446060E0E74268FD
:103D80000346022A06D1D3E904031B1A032B01D9E7
:103D900006F02DBE002070474368032B06D1D0E902
:103DA00004329A4208BF0023184670470023FBE7FD
:103DB000037870B581680446B3B1284A284806F0F4
:103DC0001BFD6368022B12D12046FFF7D8FF014686
:103DD000244806F011FDE1680B78002B3CD0224806
:103DE000BDE8704006F008BD204A2148E7E7032BF4
:103DF00005D12046FFF7D0FF01461E48E9E7042B16
:103E00000ED100251C4ED4E90431C91A8D4205D2C9
:103E1000595D304606F0F0FC0135F4E71748D8E765
:103E2000012B08D12046FFF772FF1549154B0028DA
:103E300018BF1946E1E700250F4ED4E904239B1A69
:103E40009D4205D2515D304606F0D6FC0135F4E7BF
:103E50000D4806F0D1FCBEE70C48C1E78EBF010853
:103E60006FC6010883C60108AAC6010837CA01083F
:103E700079C6010808C801088DC6010892C6010864
:103E800069C6010864C6010898C6010836CA010857
:103E9000B1F5884F2DE9F84304460F4602D917487B
:103EA00005F09CFD066883689B1B994219D9D0F8E0
:103EB00004900846FFF723FF05460346A9EB0608D2
:103EC000B14505D00BB132781A7001360133F7E7EE
:103ED0002068FFF70FFF05EB080325603D44636092
:103EE000A56025683DB92846C4E90155FFF702FFE2
:103EF0002846BDE8F8830120FBE700BFE7C50108BD
:103F00002DE9F0410368561A904682680446D21A99
:103F100096420D4615D93046FFF7F1FE0746034697
:103F2000A84505D02A7803B11A7001350133F7E7A7
:103F300020683E44FFF7DEFEC4E901662760BDE865
:103F4000F0814768481EFF1ABE420ED81A469D19D6
:103F5000A91A002904DD10F8011F02F8011BF7E778
:103F6000002EA8BF9B196360E9E73D441F44FA1A7D
:103F7000002A04DD10F8012F03F8012BF7E763682E
:103F80002E461846B04505D0327800B10270013691
:103F90000130F7E7A8EB05084344E4E708B509C892
:103FA0001B1AC3F58840884202D2104605F016FD60
:103FB000994238BF1946581805D2B0F5884F28BF26
:103FC0004FF4884008BD4FF48840FBE72DE9F843E3
:103FD0000C46591C204615461F46FFF759FF06465A
:103FE00080B14FF00003EA1929462046FFF788FF09
:103FF000D4E901539D4208D00DB100232B706368B2
:10400000013363603046BDE8F8831B4A0121204636
:10401000FFF7C4FF23680746A5EB0309FFF76FFE10
:1040200010EB090F1CBF002300F8093023688046FD
:104030001A460146954205D009B110780870013240
:104040000131F7E7D31A0133434410461946656836
:10405000954207D019B192F800C081F800C0013232
:104060000131F5E72D1A1D4420684744FFF742FE51
:10407000C4E90085A760C5E722C601082DE9F04123
:1040800005460E4661B1D0E90132D21A8A4209D3FF
:1040900000221E4403B11A700133B342FAD16B609F
:1040A000BDE8F081114AFFF779FF8046FFF727FE50
:1040B000D5E9001407460A460346944205D00BB1E1
:1040C0001078187001320133F7E70023641A3C447A
:1040D000264404B123700134B442FAD12868FFF7B2
:1040E00009FEC5E900744744AF60D9E75BC7010822
:1040F000D0E90032D21A914210B503D9891AFFF7DC
:10410000BDFF10BD3CBF5B184360FAE770B50C46BD
:10411000012120461646FFF7BBFE054628B10121C6
:104120002046FFF7E5FF23681E70284670BD00009B
:10413000426808B5012A06D1BDE808400A4600F1E8
:104140001001FFF7E3BF8168024806F055FB00202D
:1041500008BD00BFEAC6010810B50C1A134605D009
:1041600001462246184613F0E3FB0346181910BD1A
:104170002DE9F0410446A2EB01081646A368226827
:1041800008469B1A98450F4615D94046FFF7B7FDDC
:1041900005460346BE4205D00BB13A781A70013786
:1041A0000133F7E72068FFF7A5FD25604544C4E922
:1041B0000155BDE8F0816568AD1AA84504D83146BF
:1041C000FFF7CAFF6060F4E70D442946FFF7C4FF1C
:1041D000636829461A468E4205D00AB108781070E5
:1041E00001310132F7E7751B1D446560E1E770B5E9
:1041F0000E46D2E900313046C91A1446FFF748FE90
:10420000054630B1D4E900124FF000033046FFF705
:10421000AFFF284670BD000070B5D0E9043100F151
:1042200010060446C91A3046FFF732FE054640B173
:10423000D4E90712914206D1A168064806F0DCFADB
:104240000025284670BD4FF000033046FFF790FF71
:10425000F7E700BF3CC601082DE9F0418368A2EBF7
:1042600001081746026804469B1A98450E4615D960
:104270004046FFF744FD05460346B74205D0327875
:1042800003B11A7001360133F7E72068FFF732FDFA
:1042900025604544C4E90155BDE8F0814568AD1A83
:1042A000A84505D839463046FFF756FF6060F3E76A
:1042B0000D4429463046FFF74FFF636829461A46EA
:1042C0008F4205D0087802B1107001310132F7E752
:1042D0007D1B1D446560DFE737B50D4601A811461B
:1042E00006F0A6FB04212846FFF7D2FD044630B1B4
:1042F0004FF0000302AA01A92846FFF7ADFF2046B0
:1043000003B030BDFFF7E8BF426808B5022A06D106
:10431000BDE808400A4600F11001FFF7DDBF8168E3
:10432000024806F069FA002008BD00BF22C7010854
:10433000FFF7EABF2DE9F0410E4600211C46174663
:104340008AB00DF108082022C0E9001181600546FD
:10435000404613F006FB1E2C94BF22461F2239460E
:10436000404613F0DAFA7368013B032B14D8DFE8F8
:1043700003F00230404722462F49384614F0CEF968
:1043800028B122462D49384614F0C8F940B9012217
:1043900029463046FFF7BAFE28460AB0BDE8F0814C
:1043A00022462749384614F0B9F928B12246254952
:1043B000384614F0B3F908B90022E9E700220AA947
:1043C00041F8242D404615F007F9021C18BF0122C0
:1043D000DEE700220AA941F8242D404615F0FCF83A
:1043E000019B02464345D7D029463046FFF774FF6C
:1043F000D2E723463A4629463046FFF7E7FDCBE7AA
:1044000014F00106C8D1640821462846FFF740FD94
:104410000028C1D021462846FFF76AFEB442BBD02F
:10442000022107EB460006F01FFB0028B4DB2B68D7
:1044300098550136F2E700BF64C60108F7C50108C8
:1044400069C60108FCC5010830B51346426885B04D
:10445000032A044600F110050A460FD0014601A8C0
:10446000FFF768FF204601AA2946FFF7C0FE044671
:104470000198FFF73FFC204605B030BD2946FFF705
:10448000A5FD0446F7E70000F0B5044685B01046E8
:1044900016460F4614F03AF962680346032A16D00E
:1044A0003246214601A8FFF745FFDDE9011291429E
:1044B0000BD04FF000033846FFF75AFE0125019854
:1044C000FFF718FC284605B0F0BD0025F7E7441CAF
:1044D00021463846FFF7DCFC054618B9054806F0CA
:1044E0008BF9EFE74FF00003321931463846FFF7FA
:1044F00007FDE7E702C601080A4600F11001FFF7D1
:10450000C3BFF8B50D461946284616461F46FFF7A5
:10451000BFFC044630B14FF00003F2193146284683
:10452000FFF79AFE2046F8BD1346426810B5042AEC
:1045300006D1BDE810400A4600F11001FFF7E1BFC7
:104540008168024806F058F9002010BDB1C6010884
:104550002DE9F0410C4690461D46064640B139B162
:104560000849184605F076FA074618B93060206009
:10457000BDE8F0812A46414613F0CFF93760256047
:10458000F6E700BF56F2010870B5054610460E4624
:10459000144614F0BBF82246034631462846BDE8CF
:1045A0007040FFF7D5BF000010B50C4631B104498B
:1045B00000F004FD231A5842584110BD0846FCE79C
:1045C00013C9010810B500B121B9064806F014F965
:1045D000002010BD1AB9044AFFF7D6FFF8E7012002
:1045E000F7E700BF75C7010882C701082DE9F74347
:1045F00005460E4617469846FFF7E4FFC0B10F493F
:10460000222005F027FA0446A8B13846FFF77BFBC5
:1046100081463846FFF7C0FB14F078F84346CDE9F1
:104620000090074A2221204614F00AF830602C60DE
:1046300003B0BDE8F0833060F9E700BF56F201082F
:10464000BFC701082DE9F8430E46984616F8013B0E
:1046500002F1FF3903704660C0F808900446154621
:104660003D214A46304613F03BF9074668BB4B46AE
:10467000182B28BF1823C4F83001A36204F10C05DD
:10468000A26A3146284613F048F90022A66AA31907
:104690001A7337B1D4F83021791C04F12C0013F0CF
:1046A0003CF90022D4F83031234483F82C202EB179
:1046B0002946404600F082FCC4F83401D4E90112D6
:1046C0000A48BDE8F84306F00DB9831B023DED1A18
:1046D000182B1A46A8BF1822B5F5807F28BF4FF4C3
:1046E0008075A262C4F83051C8E700BFC7C701088F
:1046F00030B504460D46084B9DB00093074A084B61
:10470000642103A813F09CFF03AA29462046FFF763
:104710003BFF1DB030BD00BFB9C70108B1C70108DC
:1047200091C701082DE9F0431646642203F10C04F9
:104730008FB00746884620461849ADF8042013F08C
:10474000D3FF70B9336B23B1154A322101A813F09E
:1047500077FF01AA41463846FFF716FF0FB0BDE8C4
:10476000F08320460F4913F0BFFF0446A0B9736BD6
:10477000002BEED00125DFF83490736B01A81B5D90
:10478000C5F1320128444A46013413F059FF102C78
:1047900005F10205F1D1DCE7034ADBE7D3C70108E5
:1047A000D8C70108DCC70108E4C701088DC60108A5
:1047B000016000210273C0E901117047F8B5054698
:1047C00017460E4639B332B32049182005F036F9A2
:1047D000044608B3C0E9006700261D4B00F1080736
:1047E0004361C0E9026606618021384605F038F869
:1047F000D4E90012384605F071F81449082005F094
:104800001DF990B16B68C0E9004603B96860AB68F8
:1048100003B15860A860F8BD0E4805F0EDFF012116
:104820003046BDE8F84005F019B90B4805F0E4FF43
:104830000A4A4FF4A9710A4805F0DEFF01212068F9
:1048400005F00CF918212046EBE700BF56F20108ED
:10485000808182833FC8010844C8010860C80108FC
:10486000A9C8010870B54468054604B3266806F176
:10487000080004F0FDFFD6E903239A42C4B216D122
:104880006B681BB96A210B48FFF790F9686808212B
:1048900043686B6005F0E2F86B6803B9AB60012117
:1048A000306805F0DBF81821304605F0D7F82046CF
:1048B00070BD00BF5EC1010810B50446006810B1AC
:1048C000012105F0CBF8204610BD7FB50546FFF766
:1048D0001AFA13F01BFF0446861C2846FFF715FA48
:1048E000013803281DD8DFE800F00206080F07345E
:1048F000601C04B070BD0D34FAE72846FFF74CFA8F
:1049000013F004FF3418F3E701A82946FFF70DFA66
:10491000DDE9014301A81B1B06EB4304FFF7CCFFB5
:10492000E6E70B34E4E700002DE9F04786B0814666
:10493000884614461D46FFF745FE68B12046FFF73E
:10494000C4FF4049074605F085F80646C9F800004F
:1049500028B93D4805F050FF06B0BDE8F087204675
:10496000FFF7D3F90138032864D8DFE800F0021418
:10497000253D2046FFF7C7F981462046FFF7C7F9D6
:10498000324B334A002814BF18461046CDE9009038
:104990002B46304A0AE02046FFF7B5F9814620460B
:1049A000FFF7EDF92B46CDE900902B4A394630460A
:1049B00013F046FE05463AE0612D20460DD1FFF783
:1049C000A2F905462046FFF7E7F92B46234A009057
:1049D0003946304613F034FEECE7FFF794F9814690
:1049E0002046FFF7D9F9D1E72046FFF78CF92B468F
:1049F00000901B4A3946304613F022FEDFF86890DB
:104A00002146054603A8FFF790F9DDE9034AA245D0
:104A10000AD0AF4214F8013B06D9791B70194A46F7
:104A200013F00EFE0235F2E703A8FFF745FFC8F8C2
:104A3000005091E72046FFF766F92B460090094A9F
:104A4000C6E700BF56F201083FC8010864C6010866
:104A500069C60108F3C70108FBC7010804C80108BB
:104A60000BC8010811C801088DC601082DE9F043E3
:104A70000E4607469046D1B04FF49C72002102A822
:104A80001D46589C12F06DFF31463B46424602A837
:104A9000FFF7D8FD3678622E00F0E88029D83F2E47
:104AA0004ED008D82E2E55D09DF80810754805F028
:104AB000A3FE754A52E0532E00F09B80612EF3D185
:104AC0000DF1340971484A4605A905F095FE4F9845
:104AD000002800F0C480FFF718F9032800F09E803A
:104AE00028466B4A2146FFF74FFD6A4805F084FED1
:104AF0002DE0722E42D00ED8642E34D0672ED3D142
:104B000005A9654805F078FE33464F9A21462846A8
:104B1000FFF70AFF1BE0732E4BD0772EC4D15F48FE
:104B200005F06AFE0399002973D05D4813F0DCFD9F
:104B3000044600286DD15B4805F05EFE214669E021
:104B4000594805F059FE21462846FFF7D1FD51B0DE
:104B5000BDE8F083554805F04FFE554A21462846EA
:104B6000FFF712FDF3E70399524805F045FE02AB4B
:104B70003A4621462846FFF7D5FDE8E705A94E4805
:104B800005F03AFE03994D4813F0AEFD20B93846C2
:104B900000F02EF94A4AE1E74F993846FFF704FD45
:104BA00008B1484ADAE74F9808B1FFF735FB72239E
:104BB000ABE705A944480DAA05F01EFE4F993846FB
:104BC000FFF7F2FC0028ECD14F9810B10DA9FFF7C8
:104BD00093FC73234F9A21462846FFF7A5FE2168D0
:104BE0003A4805F009FE2868216805F06BFE384850
:104BF0007CE705A937480DAA05F0FEFD4F99384618
:104C0000FFF7D2FC0028CCD14F9810B10DA9FFF7C7
:104C100073FC0121384600F0E5FE2AE04F98FFF7CB
:104C2000BBF813F073FD08F1010606442A4930462B
:104C300004F010FF074690B14F98FFF7ADF8274AF0
:104C400003463146CDF80090384613F0F9FC39465A
:104C50004F98FFF751FC0121384604F0FFFE612315
:104C60004F9A21462846FFF7C1FCB8E71C4805F0DB
:104C7000C3FD1C4805F0C0FD4FF49B711A48FEF7B8
:104C800095FF64E716CA010838CA01086CC9010813
:104C900085C9010891C90108DDC80108CBC901080F
:104CA000F3C90108F9C90108B7C80108C1C801085A
:104CB000CBC80108CEC80108EEC801088EBF0108A4
:104CC00001C9010804C901081EC9010837C9010842
:104CD00036CA010848C9010856F20108A3C90108EB
:104CE000A8C9010849CA01085EC101082DE9F041BF
:104CF0000C4680460D4815461E46069F05F07CFD75
:104D000004B14DB90A4805F077FD39463046BDE893
:104D1000F041084AFFF738BC069733462A46214639
:104D20004046BDE8F041FFF7A1BE00BF75CA0108CB
:104D30008ACA01089DCA01087FB504460D4600686D
:104D40000C49164600F000FB78B100F0F9FC03AB0B
:104D500000933246294602ABFFF7C8FFDDE9021295
:104D60002046FFF72BFD04B070BD034805F044FD5D
:104D7000F9E700BF13C9010820C8010810B10C21D0
:104D800004F06CBE704710B1012104F067BE70479B
:104D900030B513460D460446AC4207D01BB194E82B
:104DA000070083E807000C330C34F5E7184630BDE4
:104DB00010B5044638B1FBF7C9F92046BDE81040EC
:104DC000282104F04BBE10BD70B50446406AFFF7C1
:104DD000D5FFD4E90656AE4204D02846FBF7B6F913
:104DE0002835F8E7A06908B1FFF7E2FF204670BD5B
:104DF000F8B5054600242826074FD5E906031B1AF7
:104E0000DB107B439C4205D206FB0400FFF704FA4B
:104E10000134F2E7F8BD00BFCDCCCCCCF8B50446E8
:104E2000224805F0E9FC224805F0E6FCD4E9063109
:104E3000994218D0C91A1F4EC91071431E4805F077
:104E4000DBFC00252827D4E906031B1ADB1073437B
:104E50009D4205D207FB0500FEF7AAFF0135F2E7E8
:104E6000164805F0C9FCD4E90931154EC91A891054
:104E70007143144805F0C0FC00250C27D4E9090350
:104E80001B1A9B1073439D4205D207FB050001F0DE
:104E90000BF80135F2E70C4805F0AEFC0B4805F0C5
:104EA000ABFCBDE8F8400A4805F0A6BC72CB01088F
:104EB0001BD70108CDCCCCCC7CCB01088ECB010814
:104EC000ABAAAAAAC7CB010836CA0108D7CB0108EA
:104ED000F0CB01082DE9F043002487B00646684670
:104EE000CDE90044029404F0E5FA684604F07AFB48
:104EF0004FF028082F4F304DD6E906239B1ADB10C0
:104F00007B439C424ED208FB04F302EB0309D35CC3
:104F1000002B43D14846FEF7F6FE0146684604F0F2
:104F200053FB4846FEF7F1FE042837D8DFE800F0CF
:104F30003803101A24004846FEF7E9FE0146684689
:104F400004F0F8FA50BBC2212846FEF72FFE25E0F8
:104F50004846FEF714FF0146684604F0D1FAE8B966
:104F6000C621F1E74846FEF717FF0146684604F000
:104F70002BFB98B9CA21E7E7494603A8FEF7D5FEFF
:104F8000DDE903126846521A04F0F6FA18B9CF2187
:104F90002846FEF70BFE0398FFF7F5FE0134ABE75A
:104FA000D321D1E7684604F045FB029807B0BDE87D
:104FB000F08300BFCDCCCCCC5EC101082DE9F0431D
:104FC00005460E4600244FF028081A4F8DB0D5E94B
:104FD00006239B1ADB107B439C4224D208FB042946
:104FE00031461822684613F0ABFB4846FEF78BFEAD
:104FF000182201460DEB020013F0A2FB684605F0F3
:105000006FFD684605F07EFD06A805F069FD06A85F
:1050100005F078FD182268460DEB020113F07EFBC7
:1050200018B10134D3E74FF0000948460DB0BDE890
:10503000F08300BFCDCCCCCC2DE9F04F06460F4617
:1050400000244FF00C09DFF86C808DB0D6E90953CD
:105050005B1B9B1008FB03F39C4224D218223946A9
:10506000684613F06DFB182209FB04FB0DEB0200F0
:1050700055F80B1013F064FB684605F031FD6846E7
:1050800005F040FD06A805F02BFD06A805F03AFD49
:10509000182268460DEB020105EB0B0A13F03EFBEC
:1050A00018B10134D2E74FF0000A50460DB0BDE808
:1050B000F08F00BFABAAAAAA10B51446FFF77EFF77
:1050C00020B12146BDE81040FFF716BA10BD000020
:1050D000F8B50C46064640F201120021224812F0B3
:1050E00040FC4FF4807221461F4812F016FC1E4906
:1050F0001E4805F081FB1E491B4814F08BF91C4922
:105100000546002014F086F9294607463046FFF789
:1051100055FFA0B929463046FFF78EFF044600B37D
:105120000168144805F068FBA368384698470124D5
:105130002046F8BD3946104805F05EFBF8E73A46D0
:1051400029463046FFF7B8FF04460028F2D00B4846
:1051500005F052FB0A4805F04FFB3046FFF75EFEB4
:10516000E6E729460748E7E7004E002016CC01088D
:1051700054F201081CCC010845CC010831CC0108CF
:1051800036CA01085ECC010810B54FF4807204469F
:105190000649043004F006FB002805DD2046BDE882
:1051A00010400249FFF794BF10BD00BF004D002022
:1051B00038B514461D46FFF701FF28B12A4621469F
:1051C000BDE83840FFF740B938BD10B51446FFF7C9
:1051D000F5FE20B12146BDE81040FFF795B810BD9F
:1051E00010B51446FFF7EAFE10B12146FEF7A0FF06
:1051F000002010BD38B514461D46FFF7DFFE28B16C
:105200002A462146BDE83840FFF78EB938BD000078
:105210002DE9F04700248CB0074603A8CDE90344EC
:10522000059404F047F9214603A8009404F05EFABF
:105230000146002834D0214603A804F0E0F940F2EA
:10524000E7330446009300263546DFF8F890009BCC
:10525000B34273D9214603A804F003FA824600281A
:105260006CD1182321460DEB030203A804F08AF940
:105270000444214603A804F002FA8046B0B10CAA07
:10528000214642F828AD03A804F01AF9029A044412
:1052900006A93846FFF799FF00B101350136D6E778
:1052A0006A4603A804F0B2F90446CCE7214603A8F5
:1052B00004F02FFA70B10CAA02F8288D214603A839
:1052C00004F028F99DF80820044406A93846FFF7A1
:1052D00087FFE1E7214603A804F0ECF9804668B1B6
:1052E00002AB01AA214603A804F05DF9DDE9012320
:1052F000044406A93846FFF75BFFCDE7214603A823
:1053000004F0CAF990B10CAB43F8288D01AA2146EC
:1053100003A8CDF8048004F01EF99DF80830044479
:10532000019A06A93846FFF765FFB5E7039B484693
:10533000195D01F0E00105F05FFAAFE728460CB017
:10534000BDE8F08701CB010808B5FFF737FE18B1BB
:10535000BDE80840FEF7DBBC08BD10B504460846B2
:105360001146FFF72BFE014620B9C4E90000A060FA
:10537000204610BD2046FEF7D8FCF9E708B5FFF738
:105380001DFE18B1BDE80840FEF7F9BC08BD08B520
:10539000FFF714FE18B1BDE80840FEF7FDBC08BDDC
:1053A000037810B5044643B1044805F025FA0021FE
:1053B000204600F017FB0023237010BDECCA010843
:1053C0002DE9F0410E469DF81840174698469DF885
:1053D0001C50FFF7D3FF844205DCA84203DC88F8A9
:1053E0000000BDE8F081012322463B703146069063
:1053F0002B46BDE8F041014805F0FEB9C4CA0108DA
:105400002DE9F0410E46BDF8184017469846BDF804
:105410001C50FFF7B3FF844205DCA84203DCA8F868
:105420000000BDE8F081012322463B703146069022
:105430002B46BDE8F041014805F0DEB9C4CA0108B9
:105440002DE9F0479946DDE9086788469246FFF75F
:1054500095FF0023C517B04275EB0303044607DB35
:1054600000238742AB4103DBC9F80000BDE8F087A9
:105470000123CDE908458AF8003032463B464146D3
:10548000BDE8F047014805F0B7B900BFC4CA01083C
:1054900073B51C460E461546FFF779FF002302AA96
:1054A00042F8043D2060069904F080FF019B33B16F
:1054B00022683146034805F09FF901232B7002B0A2
:1054C00070BD00BF81CC0108002370B5D1E9002573
:1054D000AD1A0446C0E9003383600E46284601D069
:1054E00005F026FAC4E900000544A560D6E900539A
:1054F000024629468B4205D00AB10E78167001315A
:105500000132F7E75B1B18446060204670BD38B578
:1055100004460D460B78103000F8103C4B681031F3
:1055200040F80C3C51F8083C40F8083C51F8043C69
:1055300040F8043CFFF7C8FF05F11C0104F11C0012
:10554000FFF7C2FF204638BD2DE9F843D0E90054EB
:10555000641B9146A2101F4C06465443B4F5884F75
:105560000F4602D11C4804F039FA002C14BF224621
:105570000122A418A1EB050526D2B4F5884F23D843
:105580002CB30C20604305F0D3F9804618EB0503DB
:105590001CBF99E8070083E8070042463946306897
:1055A000FFF7F6FB716800F10C023846FFF7F0FBDD
:1055B00005463068FFF7E2FB0C2303FB0484C6E9D1
:1055C0000085B460BDE8F8834FF48844D9E7A0466D
:1055D000DCE700BFABAAAAAA22C601082DE9F04366
:1055E000054685B008460C4617461E4613F08EF851
:1055F000172803D982212D48FEF7D8FACDE90147B3
:10560000D5E9097803962A4AA8EB0706B410544353
:105610000134B4F5884F02D9264804F0DFF9EB6A6B
:10562000DB1B9B1053439C4215D94FF00C0909FB1F
:1056300004F91CB1484605F07BF904462246414670
:105640003846FFF7A5FB686AFFF798FB26446C62B3
:105650004C44AE62EC62EA6AD5E9090314491B1AAC
:105660009B10121A4B4392104A430133934206D9BE
:10567000114805F0C1F88C210C48FEF797FAD5E9DE
:105680000A3293420AD023B104AA12E9070083E840
:1056900007000C33AB6205B0BDE8F08301AA1946E0
:1056A00005F12400FFF750FFF5E700BF5EC10108D8
:1056B000ABAAAAAAE7C50108A9CA010838B50025FE
:1056C0000346044603F8045B29461846142212F0E8
:1056D00048F90A4AC4E906556261C4E90855C4E9B3
:1056E0000A55C4E90C55802104F021F82046044BEA
:1056F000044A0549FFF772FF204638BD804C002060
:1057000045570008A4CC0108B0CC010810B5084CDE
:105710002368DB0709D40748FFF7D0FF0123064AB7
:105720000649044823600FF01BFB024810BD00BF70
:105730007C4C0020044F002000000020C94D0008D0
:10574000FFF7E4BF08B5FFF7E1FFBDE80840FFF74A
:1057500065BB0022C0E90022826010B50C680460BD
:105760000A6042684C6844604A6082688C68846061
:105770008A6010BD70B50E4605461446B54217D076
:105780009CB12B7805F1100123706B6804F11000B7
:105790006360AB68A360EB68E360FFF7DAFF05F1D5
:1057A0001C0104F11C00FFF7D4FF28342835E5E77D
:1057B000204670BD2DE9F843D0E90064A41BE31036
:1057C000234C05465C43B4F5884F0F46914602D101
:1057D000204804F003F9002C14BF23460123E418E9
:1057E000A1EB060623D2B4F5884F20D814B32820A5
:1057F000604305F09DF8804618EB060002D049464C
:10580000FFF785FE394642462868FFF7B3FF69680F
:1058100000F128023846FFF7ADFFD5E900690746D9
:10582000B14509D03046FAF791FC2836F8E74FF435
:105830008844DCE7A046DFE7286808B1FFF7B8FA3C
:10584000282303FB0484C5E90087AC60BDE8F88326
:10585000CDCCCCCC22C601082DE9F047D0E90657C3
:1058600004460E46DFF80C818AB0AF421BD02946B1
:105870006846FFF74CFE6846FEF745FA814630461B
:10588000FEF741FA0146484605F06BF930B1304663
:10589000FEF739FA0146404604F0AEFF6846FAF7D3
:1058A00055FC2835E1E7D4E906892E4AA9EB08071B
:1058B000FD1055430135B5F5884F02D92A4804F04B
:1058C0008DF8236AA3EB0803DB1053439D4220D9D4
:1058D0004FF0280A0AFB05FA1DB1504605F028F8DA
:1058E0000546494640462A46FFF744FFD4E9068963
:1058F000C14505D04046FAF729FC08F12808F7E72A
:10590000A06908B1FFF754FA2F44A5615544E76137
:105910002562226AD4E9060312491B1ADB10121A07
:105920004B43D2104A430133934206D90F4804F047
:1059300063FF77210E48FEF739F9D4E9070398424F
:1059400009D010B13146FFF7E2FDE3692833E36186
:105950000AB0BDE8F0870146324604F11800FFF7AF
:1059600029FFF5E7CDCCCCCCE7C5010853CB010826
:105970005EC1010821CB0108002313B502A941F83B
:10598000043D094B0422D3E90140084B20445B68E5
:105990009847044628B1064804F02EFF204602B07E
:1059A00010BD0448F8E700BF504F0020404F0020D2
:1059B000BBCE0108CFCE010808B5084804F01CFF93
:1059C000FFF7A4FEFFF714FA054804F015FFFFF7F0
:1059D0009DFEBDE80840FFF721BA00BFECCE0108EC
:1059E00004CF010873B505464FF416700C4604F059
:1059F0009FFF064630B9214804F0FEFE22212048D0
:105A0000FEF7D4F84FF416720021304611F0A9FFCA
:105A1000314628464FF41672FFF75CFA194D0146DD
:105A200001902CB3184804F0E7FED5E901431C446B
:105A3000164DEB681BB101992046083198476B68F9
:105A4000042210492046984704226B680DEB02019E
:105A5000A01898476B68019A314604F108009847EE
:105A60000B4804F0C9FE304604F04CFF02B070BD94
:105A7000084804F0C1FE6C68DAE700BFA6E301083D
:105A80005EC10108504F0020ADCD0108404F0020FD
:105A9000E7CD0108CCCD01082DE9F74FFFF736FE21
:105AA0002F4F06462F4804F0A7FEB846DFF8D090E7
:105AB000DFF8D0A0FCF72CF82B4D38602B68AB46F4
:105AC0002A4C002B37D003F56A436033984232D218
:105AD00023782BB9264804F08FFE264804F08CFE6C
