:020000040800F2
:100000000080002011E80008ADF400083543000826
:10001000AFF40008B1F40008B3F4000800000000D9
:10002000000000000000000000000000D1330008C4
:10003000B5F400080000000061340008A534000891
:10004000B7F40008B9F40008BBF40008BDF40008D8
:10005000BFF40008C1F4000841F4000847F40008A8
:100060004DF4000853F4000859F40008C3F40008E4
:10007000C5F40008C7F40008C9F40008CBF4000870
:10008000CDF40008CFF40008D1F40008D3F4000840
:10009000D5F40008D7F40008D9F400085FF400088C
:1000A000DBF40008DDF40008DFF40008E1F40008E8
:1000B000E3F40008E5F40008E7F40008E9F40008B8
:1000C000EBF40008EDF40008EFF40008F1F4000888
:1000D000F3F40008E9FC000819010108F5F4000830
:1000E00083F400082DF50008F7F40008F9F400087F
:1000F000FBF4000800000000000000000000000009
:1001000000000000000000005FF808F110B5054C89
:10011000237833B9044B13B10448AFF300800123B3
:10012000237010BD280500200000000060F20108C7
:1001300008B5034B1BB103490348AFF3008008BD6A
:10014000000000002C05002060F2010810B50446F4
:10015000C06910B101210CF06FFD206910B10121BF
:100160000CF06AFD204610BD2DE9F04186B005F087
:1001700001FE054600F03EFF0027044606AE06F8E5
:10018000097D284605F08EF9324604F180012846A3
:1001900000F0FCF904F1080300933246231D3849AE
:1001A000284605F0A9FC04F128030093324604F127
:1001B00024033449284605F09FFC04F148033246E5
:1001C0000093314904F14403284605F095FC2F497A
:1001D000284605F0FDFB2E4B20703246CDE900731A
:1001E0002C4904AB284605F05FFC3C23049A2A49BD
:1001F0005343C4E91A37294B3246CDE900732846E8
:1002000005AB05F051FC059B4FF00108C4E91C3714
:1002100064233246CDE90083214904F1780328465E
:1002200005F022FC4FF47A733246CDE900731D4984
:1002300004F17A03284605F017FCFF233246CDE986
:100240000083194904EB0803284605F0EDFB05235C
:10025000A370164B3246CDE90073154904F17C03B7
:10026000284605F021FC9DF80F3033B111480DF000
:10027000D1FB8E21104803F0CBFF06B0BDE8F08122
:100280008EB8010899B80108A4B80108B0B80108EF
:1002900000F91500BCB80108C5B8010800D68300F4
:1002A000CBB80108D3B80108E3B8010840420F00F9
:1002B000EAB80108FBB801080EB90108F8B5002535
:1002C000C0E901120570C0E90335C0E90555C0E970
:1002D0000755456206990446164600F11C0704F0CE
:1002E0003DFC38B9314607480DF094FB2021064803
:1002F00003F08EFF069A3946204604F0F7FB2046AD
:10030000F8BD00BF12B901080EB90108F8B5002503
:10031000C0E901120570C0E90335C0E90555C0E91F
:100320000755456206990446164600F11C0704F07D
:1003300031FB38B9314607480DF06CFB20210648E7
:1003400003F066FF069A3946204604F00DFB20466E
:10035000F8BD00BF12B901080EB9010830B58DB063
:1003600005F008FD044600F04BFC5B4B5B4A009334
:1003700003215B4B02A8FFF7A1FF02A9204605F06D
:100380009FFD02A8FFF7E2FE564B574A0093032158
:10039000564B02A8FFF792FF02A9204605F090FDF8
:1003A00002A8FFF7D3FE524B524A009303214F4B52
:1003B00002A8FFF783FF02A9204605F081FD02A8ED
:1003C000FFF7C4FEB4234C4A009302214B4B02A812
:1003D000FFF79CFF02A9204605F072FD02A8FFF777
:1003E000B5FE4123464A00930221464B02A8FFF77F
:1003F0008DFF02A9204605F063FD02A8FFF7A6FEC7
:1004000000230121404D414A02A88DF80830039194
:100410000495CDE90523CDE90733CDE909330B93E5
:1004200004F0B8F938B9294639480DF0F3FA20211B
:10043000384803F0EDFE012209A902A804F098F95A
:1004400002A9204605F03CFD02A8FFF77FFE052328
:100450000225314A00930221304B02A8FFF756FFD4
:1004600002A9204605F02CFD02A8FFF76FFE2C4BD9
:100470002C4A2946009502A8FFF748FF02A920460A
:1004800005F01EFD02A8FFF761FE1423264A009323
:100490002946264B02A8FFF739FF02A9204605F09E
:1004A0000FFD02A8FFF752FE6423214A009329465C
:1004B000204B02A8FFF72AFF02A9204605F000FD05
:1004C00002A8FFF743FE01F0F9F9012221460BF0E3
:1004D0001FFC0DB030BD00BF21B701088EB8010868
:1004E000FCB6010845B7010899B801082DB7010805
:1004F00054B70108A4B80108C5B8010863B70108DA
:10050000BCB8010885B70108B0B80108B0B7010848
:1005100012B901080EB90108E3B80108CBB7010808
:10052000DAB70108CBB80108D3B80108F2B701085F
:1005300085B801084FB8010870B515460022C0E91A
:1005400001150270C0E90332C0E90522C0E90722A3
:100550004262DDE90412044600F11C0604F016FBB9
:1005600038B9294607480DF055FA2B21064803F003
:100570004FFEDDE904233146204604F0F4FA20461C
:1005800070BD00BF12B901080EB90108F7B50C46DD
:10059000154916460546002705F01AFA07230C22CE
:1005A0002070CDE900322846A31C324667700F49FF
:1005B00005F03AFA0E23E3704FF47A733246CDE930
:1005C00000730B49231D284605F04EFAA388094AFB
:1005D0005A43D317C4E904235B104FEA3202C4E93B
:1005E000022303B0F0BD00BFE7BA0108ECBA01086E
:1005F000EFBA01088051010038B5044600F03CFC18
:10060000054694F9030009F0C5F907F057FBA078F7
:1006100009F08EF907F048FB607807F027FC01F03D
:100620004DF9C36B3C301B6898470023C5E91601A0
:1006300085F83A30207838BDF8B500F01DFC064644
:1006400007F02AFD012871F1000304460D460BDB7B
:1006500007F0A4F906F046F94B492B4622460978E3
:1006600006F07DFE494B39E0494C23680133236095
:1006700001F024F947490BF0F7FA216846480DF0DC
:10068000C9F907F0D1F907F00FFA18B995214348D5
:1006900003F0BEFD4EF6602007F0DCF9054618B900
:1006A00098213E4803F0B4FD6B78042B03D09921C8
:1006B0003A4803F0ADFD2F7E28460DF031FA7FB1A8
:1006C00037480DF0A7F901F0F9F8C36B3C301B680F
:1006D0009847C6E9160107F061F9324B1878F8BD62
:1006E00031480DF097F92368042B0CD905F05CFB19
:1006F000037843B12D480DF08DF94FF47A7001F075
:100700003BFF0FF039FD23681E22013BDBB21E2B9D
:1007100028BF1E23A3F12005C3F1200402FA05F12E
:1007200022FA04F4002521434FF4E14402FA03F0D5
:100730008D4208BF844220D3002908BFB0F5616F05
:1007400006460F461BD2B0F5167F71F1000319DA89
:100750003C2871F10003ACBF11460A2100200DF0C6
:10076000A7FA341847EBE075294620460DF0E8F863
:1007700001460F480DF04EF96CE726462F464FF420
:100780001671EBE73C21E9E749050020AF0B00209B
:1007900044050020CDCC1C403DB901080EB901082C
:1007A00054B90108AC0B002064B9010876B90108FE
:1007B0008FB9010838B5044600F05EFB0546CCB1A0
:1007C0000D480DF027F901F079F8C36B3C301B6838
:1007D0009847C5E91601637F802B06D1227FA16E61
:1007E0002868BDE8384004F0EBBD0448BDE8384057
:1007F0000DF010B938BD00BFBBBA0108D3BA01086B
:100800002DE9F047C6B000F037FB054600F0F2FBDB
:100810000023FC2207A9074603A88DF803300CF03B
:1008200056F901F04DF807F035FAFC28824604D954
:100830004FF496717F4803F0EBFC00F01DFB03685A
:100840005B687BBB90F8283013B190F829305BB31C
:1008500090F8383013B190F839303BB306F0A0FF70
:10086000002800F08B81042495F83A6006B3B7F8AD
:10087000981000200DF01CFAC517294604460DF00B
:100880005FF801466C480DF0C5F806F02BF82246DB
:100890002B466A49097806F062FD694B187846B024
:1008A000BDE8F0870124DFE70224DDE70324DBE76E
:1008B00007F0F2FB8046894658EA09030AD00DF09A
:1008C0003FF801465F480DF0A5F806F00BF84246E8
:1008D0004B46DEE7032C00F0C380042C00F0478178
:1008E000022C4FD058480DF095F80DF103035FFA34
:1008F0008AF207A9286804F0E7FA044600F0DEFF50
:10090000C36B3C301B689847B7F884308BB1D5E98E
:100910001623801A61EB0301D7E92223904271EB81
:10092000030306DB0DF00CF8014648480DF072F8A1
:10093000012600F0C3FF46490BF096F907F074F862
:100940009DF803303246214607A807F093F920B9F5
:100950004FF4B671374803F05BFC07F093F8037867
:10096000044623B140F26F11324803F051FC07F006
:1009700015F8D4F8A000FFF71DFF204608F0CAFDC7
:10098000344B8BE734480DF045F8D5E90423C5E92D
:100990000823012385F8293000F06EFA044603A8E5
:1009A0000CF0CDF803222D4903A80CF09DF8082186
:1009B00003A80CF0B7F8314603A80CF0B3F80521F2
:1009C00003A80CF0AFF800F057FA027F437F62B340
:1009D000002B14BF6721652103A80CF0A3F80FF0CA
:1009E00063FC014603A80CF09DF8002103A80CF05D
:1009F00099F8618B03A80CF0D7F8B4F9181003A884
:100A00000CF0A0F8226E94F8AC30002A0CBF022142
:100A1000002103A819430CF085F8012303A88DF8E1
:100A200003300CF08AF8C4B268E7002B14BF6621CB
:100A30000021D1E70EB90108FABA010849050020E2
:100A40004805002011BB010826BB01088DBB010829
:100A5000CDCC1C40AF0B00203DBB0108C7B701083F
:100A600049480CF0D7FFD5E90423C5E90C2301233D
:100A700085F8393000F000FA044603A80CF05FF85E
:100A800004F1640101A812F065FFDDF80490B4F9E7
:100A9000181003A8DDF808800CF054F8618B03A847
:100AA0000CF082F83949484615F06CFD15F046FF08
:100AB000014603A80CF05FF83449404615F062FD8A
:100AC00015F03CFF014603A80CF055F83049D4F866
:100AD000880015F057FD15F031FF014603A80CF012
:100AE0003EF8236E94F8AC10002B0CBF02230023B9
:100AF00003A819430CF016F894F8681003A80CF03A
:100B000011F8D4F884A02349504615F0F7FE28BB0D
:100B10002149504615F036FD15F036FFC1B203A845
:100B20000CF000F80021484615F0C0FEC0B10021CD
:100B3000404615F0BBFE98B10021D4F8880015F0AE
:100B4000B5FE68B10022002303A80CF021F8D4E917
:100B5000102303A80CF01CF802235FE7FF21DEE757
:100B600004F1700013F0B0FB02460B46ECE70B48B3
:100B70000CF050FF34468DF80360BFE608480CF0D7
:100B800049FF084B8AE600BF4FBB01080050C3472E
:100B90000000C8420000CC41000020415FBB0108BA
:100BA00077BB0108AC0B00202DE9F04100259DF832
:100BB0001860C0E901120570C0E90335C0E90555A8
:100BC000C0E90755456231460446174600F11C0846
:100BD00003F0E0FD38B9394607480CF01BFF20212F
:100BE000064803F015FB32464146204603F0C0FD9F
:100BF0002046BDE8F08100BF12B901080EB9010816
:100C0000F0B5A9B0044600F059FE05460CAE00F15F
:100C100011073946304606F081FD2A4652F84D0F3D
:100C2000213551683346256301256763082703C3CF
:100C3000504A514B2946009502A8FFF7B5FF02A97B
:100C4000204605F03DF902A8FFF780FACDE90067DC
:100C500010264A4B04211A460DEB0700FFF76CFCE7
:100C60000DEB0701204605F02BF90DEB0700FFF710
:100C70006DFA0EAB424A00930197424B04210DEBF3
:100C80000700FFF759FC0DEB0701204605F018F9A6
:100C90000DEB0700FFF75AFA10AB00933A4B0196A1
:100CA0001A4604210DEB0700FFF746FC0DEB070188
:100CB000204605F005F90DEB0700FFF747FA14ABE6
:100CC000324A019600930421314B0DEB0700FFF7E8
:100CD00033FC0DEB0701204605F0F2F80DEB0700A1
:100CE000FFF734FA0C230A262A4A009302212A4BE2
:100CF0000DEB0700FFF70AFB0DEB0701204605F09F
:100D0000DFF80DEB0700FFF721FA244B244A009689
:100D100002210DEB0700FFF7F9FA0DEB0701204662
:100D200005F0CEF80DEB0700FFF710FA1D4B1E4A39
:100D3000294600950DEB0700FFF736FF0DEB070185
:100D4000204605F0BDF80DEB0700FFF7FFF9174B44
:100D5000174A009602210DEB0700FFF7D7FA0DEBBB
:100D60000701204605F0ACF80DEB0700FFF7EEF9A0
:100D700029B0F0BDE7BA0108A5B90108B8B9010862
:100D8000D8B90108BFB90108E0B9010811BA0108D2
:100D9000E7B90108ECBA010818BA010840BA01081D
:100DA00067BA010870BA01085BC301088CBA010870
:100DB000EFBA0108FF23024A1370024A137070470A
:100DC000490500204805002070B50D4606460AF08A
:100DD00087FE044603680121DB6898472368314693
:100DE0001B692046984723680021DB682046984706
:100DF00035B1236829462046BDE870401B69184775
:100E000070BD10B504460AF06BFE2146BDE81040E7
:100E10000AF074BC1FB56E23CDE90131002301A98E
:100E2000039305F07DFC05B05DF804FB1FB561235D
:100E3000CDE9013101A9039205F06EFD05B05DF821
:100E400004FB1FB57023CDE90131002301A98DF802
:100E50000C3005F061FD05B05DF804FB07B58DF8B9
:100E6000041001A98DF805208DF8063005F012FE5A
:100E700003B05DF804FB000038B5194C216811F08F
:100E800001012BD14FF40045164800224FF00043DA
:100E900005830125C0E90223C0E90423C0E9082332
:100EA000C0E90C23C0E91023C0E916230160418387
:100EB0000177417780F8281080F8291080F83810E1
:100EC00080F8391080F83A1080F84810056680F8EC
:100ED000AC104822643016F076F92560014838BD20
:100EE00058050020100600202DE9F04385B0894602
:100EF0008046FFF7C1FF4FF00041D0E90456044699
:100F000000208E4208BF854205D015EB080246EB53
:100F10000903C4E90423D4E908568E4208BF854278
:100F200005D015EB080246EB0903C4E90823D4E910
:100F30000C564FF0004100208E4208BF854205D07C
:100F400015EB080246EB0903C4E90C23D4E910565B
:100F50008E4208BF854205D015EB080246EB090317
:100F6000C4E9102304F1490528460CF08FFC4246E1
:100F70004B4668460CF065FC009BC4F84930019B69
:100F8000C4F84D30BDF80830A4F85130D4E9162328
:100F9000B3F1004F08BF002A05D018EB020649EB59
:100FA0000307C4E9166705B0BDE8F08308B5FFF78D
:100FB00063FF0023493000F8013CBDE808400EF013
:100FC0006FBB000038B50AF08BFD0546FFF754FFF4
:100FD000044628460AF0BCFA608328460AF092FBD1
:100FE000618B20830246BDE8384001480CF012BDF9
:100FF000E6BE0108F8B5144E346814F0010421D19E
:10100000124DA0222146284616F0DDF80127284679
:101010001A22214600F8087B16F0D5F81A2221463C
:1010200005F1280016F0CFF81A22214605F14800F4
:1010300016F0C9F800224FF00043C5E91A23C5E9AC
:101040001C2337600148F8BD5405002070050020BE
:101050002DE9F04F89B0FFF70FFF06460AF040FD7B
:101060000546FFF77BF9FA2001F086FAFFF77CF8D6
:10107000FFF7C0FFB74B427805F168041A70827819
:10108000B54BB0F878101A70B0F87A2020460AF004
:1010900005F9B24B48222B64002106F1640016F0DA
:1010A00092F813F0B1F9C82001F066FA02F0E0FFFF
:1010B00020460AF027F9FFF79DFFA94E0546336841
:1010C000A84C13F0010F06D10AF00AFD0AF054FEF5
:1010D000012320603360A4492068FFF79BFEA34BE7
:1010E000A34918702068FFF795FEA249A24E087028
:1010F000A2492068FFF78EFE307026680A2200237E
:1011000005AF9F4905A805F075FA3946304605F048
:1011100007FB9C4B266818706A6805AF9A4905A8BA
:1011200005F0A4FA3946304605F0FAFA26686A6AEC
:101130008DF8070005AF954905A805F097FA3946DF
:10114000304605F0EDFA26686A6C8DF80B0005ADA7
:101150008F4905A805F08AFA2946304605F0E0FADD
:101160008DF80F0020680AF04DF88A4A8DF80C00BF
:1011700089492068FFF75AFE884A8DF80800884997
:101180002068FFF753FE874982462068FFF759FE23
:10119000854A8DF80D0085492068FFF747FE844A8F
:1011A000054684492068FFF741FE834A8DF809000F
:1011B00082492068FFF73AFE814906462068FFF71A
:1011C00040FE804A8DF80E007F492068FFF72EFE12
:1011D0007E4983462068FFF734FE7D4981462068BA
:1011E000FFF72FFE7B498DF80A002068FFF729FEE4
:1011F0009DF8087080462068774A80F82870394644
:10120000764F53461278FFF729FE33463A789DF819
:1012100008102068FFF722FE6F4A9DF80D305146F6
:1012200020681278FFF71AFE564953460A7820685C
:101230009DF80D10FFF712FE33463A7851462068AC
:10124000FFF70CFE644A3346314620681278FFF7F8
:1012500005FE49489DF80E30027831462068FFF7B8
:10126000FDFD484933460A7820689DF80E10FFF7C7
:10127000F5FD5B463A7831462068FFF7EFFD564AA8
:101280009DF80930594620681278FFF7E7FD9DF870
:1012900009303A7829462068FFF7E0FD33463A786E
:1012A0009DF809102068FFF7D9FD304A4B46594692
:1012B00020681278FFF7D2FD9DF80A309DF80C20C7
:1012C00049462068FFF7CAFD2B469DF8072049468E
:1012D0002068FFF7C3FD2B469DF80B204946206888
:1012E000FFF7BCFD2B469DF807209DF80A102068EB
:1012F000FFF7B4FD2B469DF80B209DF80A102068DF
:10130000FFF7ACFD1B4943460A7820685946FFF7B2
:10131000A5FD2B469DF8072041462068FFF79EFD5E
:101320002B469DF80F2041462068FFF797FD2B467E
:101330009DF80C2041462068FFF790FD01224FF4F4
:10134000A071206805F0FCFC002000F07BFE09B0D5
:10135000BDE8F08F5102002050020020E90E000885
:10136000500500206C05002070BE0108C00600205A
:1013700077BE0108C1060020480500207FBE010895
:1013800087BE01084905002093B801088FBE0108F7
:1013900095BE0108191700089BBE01083906000810
:1013A000A0BE0108A5BE01088D1B0008AFBE010844
:1013B000E1130008B6BE010801080008BBBE010821
:1013C000BFBE010891190008C8BE0108D0BE0108BF
:1013D000D8BE0108DFBE0108AF0B0020AC0B002017
:1013E0002DE9F04F9DB00AF07BFB0746FFF702FEA8
:1013F000AF49814638460AF037FCFFF73DFD054608
:10140000FFF73AFD80460AF06BFB0446FFF7F2FD5A
:101410000021064688F8481020460AF06FF9B17896
:1014200070780DF015F9236864211B6920469847F0
:10143000A04920460AF062F9236864211B6920460E
:1014400098479C4920460AF059F995F83830002B06
:1014500000F00F8195F83940002C40F00A81964841
:1014600007F1680A0CF0D6FA0121504609F072FF24
:10147000FFF7C0FD04900AF033FB00F13C03019339
:10148000804612F0F9FE04704470C474064612F0EF
:10149000F9FED8F83C20019812689047049BCDE9EA
:1014A0000201D3E91C2380185941CDE9060100202F
:1014B0000021CDE90401194610460CF041FA0890CC
:1014C000DDE904010CF03CFA089B024619467B4812
:1014D0000CF0A0FA4FF475711420FFF775FCD8F8E2
:1014E0003C3001981B689847DDE90623DDE902BC22
:1014F000121A63EB0103B0EB0B0B61EB0C0C3178B0
:10150000CDE904BC013469B9022C40F0B7806C48C5
:10151000CDE908230CF07EFA08F1680009F0F2FE2C
:10152000DDE90823717819B9012A73F10001C2DAE3
:10153000642012F0E1FA002800F0AD804822314624
:101540000AA815F01CFE12F0F3FA9DF82A302BB110
:101550009DF8293013B901238DF829309DF82930E1
:10156000BBB10F9B23F07F4323F0FF038BB9109B8C
:1015700033F47F030DD1119B33F47F4409D1002153
:10158000139815F093F920B14E480CF043FA8DF8FA
:1015900029409DF83B305BB10DA812F095FE40A3A9
:1015A000D3E9002382428B4102DB00238DF83B30DC
:1015B00099F800306BB19DF83B3053B1FB6B0DA82F
:1015C0005C6812F081FE07F13C0602460B4630468D
:1015D000A0470021504609F0BDFE9DF82940002C8F
:1015E0007AD039480CF016FAC8214FF49670FFF7FC
:1015F000EBFB00214FF49670FFF7E6FB95F86530A2
:1016000005F164044BB3D9F87C3033B30AA9204602
:1016100012F0E0FE14F046FB0646D9F87C000F46B7
:1016200014F01EFB20A3D3E9002314F093FB024621
:101630000B463046394614F013FE70B10DA812F077
:1016400043FEB1F1004F08BF002806D0D5E91023B2
:1016500082428B4101DAC5E9100148220AA92046DD
:1016600015F08DFD19480CF0D5F99DF8293085F855
:10167000AC30174B18781DB0BDE8F08F052C7FF605
:1016800051AF1448CDE908230CF0C4F9FFF7F4FB7F
:101690000121017744E78DF829008DF83B0087E7A9
:1016A000FFE00B5E00000000FCA9F1D24D62503F4C
:1016B00066663640AD0F000857BC01086ABC0108D9
:1016C00089BC0108CFBC0108E6BC010812BD0108B5
:1016D000AC0B0020AFBC01080E480CF09BF9C821F0
:1016E0004FF49670FFF770FBC8211420FFF76CFBD6
:1016F000C8211420FFF768FBC8211420FFF764FB02
:10170000C8211420FFF760FB21461420FFF75CFB83
:10171000A8E700BFFBBC01082DE9F8430AF0E0F997
:101720000446FFF7A9FB0546FFF764FC4F4F06464A
:101730003B68DB0708D404F037FB802201464C48A5
:1017400003F068FB01233B60494B04F13C002B6034
:101750007278484B01271A70B278474B1A70474A83
:10176000474B1A60E36B1B68984785F82870C5E9FA
:101770000401FFF727FC04F168050AF0B1F94149BB
:101780000AF072FA3946284609F0E4FD322712F0D1
:1017900073FD037833B9236864211B692046984799
:1017A000013FF4D112F068FD03788BB936480CF094
:1017B00031F9284609F0A6FD322712F05DFD0378C5
:1017C00033B9236864211B6920469847013FF4D14F
:1017D0000021284609F0BEFD0A2000F0CDFE0AF0E7
:1017E0007FF9044612F048FD057894F88440002DF6
:1017F00014BFA1464FF00009244FDFF8BC802448F5
:101800000CF008F9002D14BF42463A46214B2249FC
:1018100022480CF0FFF8002C14BF42463A461D4BFC
:101820001F491E480CF0F6F81E491F48B9F1000F79
:1018300008BF39460CF0EEF81C480CF0EBF8FFF747
:101840001BFB85F0010584F001040577447704F063
:10185000ABFA05F0B7FD06F18000FEF7CDFE18B13A
:10186000134B1878BDE8F883124BFAE74C050020BB
:101870005C0500205102002050020020030E0008E9
:10188000900C002066663640D6BB0108CEBB01082E
:10189000FDBB010883C401080DBC010818BC010888
:1018A0002FBC0108D3BB010834BC010849BC0108A6
:1018B000AF0B0020AC0B0020C9BB01080AF010B927
:1018C0002DE93048FFF7D8FA0446FFF793FB0546A9
:1018D00009F0BAFCB1F1004F08BF002806D0D4E9E6
:1018E000102382428B4101DAC4E9100194F8483098
:1018F0007BB104F149000BF0C9FFB1F1004F08BF03
:10190000002806D0D4E9102382428B4101DAC4E9D1
:101910001001D4E91023B3F1004F08BF002A22D0F0
:101920000AF0DEF8C36B3C301B689847D4E91023FB
:10193000821A61EB030393469C46D5E91A2393452B
:101940007CEB0303ACBF01250025236EAB4208D01E
:10195000064B07490748002D18BF19460CF05AF8E6
:101960002566BDE830880125EFE700BFC1BB01084F
:10197000BABB010800BF010810B5FFF77DFA0446A5
:10198000FFF738FB236E0BB9283010BD4830FCE759
:101990002DE9F74F0AF0A4F80646FFF76DFA4FF06D
:1019A000004904464FF00008FFF724FBD4E90C235C
:1019B0004B4508BF4245054607D1012384F838301E
:1019C000644B187803B0BDE8F08FFFF7D5FFF36BD9
:1019D00082461B6806F13C009847461C41F100070F
:1019E000394630460BF096FF01465B480CF012F882
:1019F000D4E904234B4508BF424505F1080B7ED1CD
:101A000056480CF007F8012384F82830D4E9042361
:101A1000B3F1004F08BF002A7AD151480BF0FAFF0A
:101A2000012384F8383094F828301BB194F8293019
:101A3000002B75D094F838301BB194F83930002B56
:101A40006ED0D4E91601B6EB000867EB01090BF084
:101A500061FF4946019040460BF072FF019B024630
:101A6000194640480BF0D6FFB5F88430002B5BD107
:101A7000D4E91001B1F1004F08BF002865D00BF088
:101A800049FF014638480BF0C5FF32463B465846F1
:101A90000BF05AFE0BF03EFF014634480BF0BAFF44
:101AA0003B46324650460BF04FFE0BF033FF0146EB
:101AB0002F480BF0AFFF02F0DBFA0AF011F890F8B4
:101AC0004C3023B12B480BF0A5FF0EF055FBFFF770
:101AD000D3F90AF005F80646FFF78CFA00213046E4
:101AE00009F00CFE0CF04EFDB5F89830003318BF2D
:101AF000012384F83A30236E4BBB1F4B61E75846F5
:101B00000BF022FE864277EB0103FFF67FAF77E70B
:101B100050460BF019FE864277EB010383DB7CE72E
:101B200016480BF077FF4BE7D5E92423904579EB76
:101B300003039DDB494640460BF002FF0146104877
:101B40000BF068FF0EF018FB92E70E499AE70E4B78
:101B500037E700BFAF0B00207DBD01088CBD010839
:101B6000A5BD0108BCBD01080EBE010826BE0108C6
:101B700040BE010857BE0108C0060020DDBD0108B7
:101B8000F0BD010877BD0108C10600202DE9F04134
:101B9000FFF772F90446FFF72DFA804609F0A0FF1F
:101BA000D4E90423C4E90223C36B3C301B68984783
:101BB000C4E90401256EFFF783FED4E90823B3F1DD
:101BC000004F08BF002A3DD0D4E9046708F108009F
:101BD0000BF0BAFD864277EB0103ACBF0123002373
:101BE00084F82830002384F82930FFF7C5FED4E9B3
:101BF0000C23B3F1004F08BF002A25D0D4E90467B5
:101C00000BF0A2FD864277EB0103ACBF012300235A
:101C100084F83830236EAB421CBF012384F838307F
:101C2000002384F83930FFF7CDF994F8282094F890
:101C300038306AB153B109480BF0ECFE084B187804
:101C4000BDE8F0810123CBE70123E1E70548F3E795
:101C50000BB10548F0E70548EEE700BF2BBD0108D2
:101C6000AC0B002045BD010856BD010865BD01084B
:101C700013B509F035FF044603689B68984723684D
:101C80002046DB6801219847236820461B694FF4F2
:101C9000FA71984723682046DB68002198470024A2
:101CA00001234FF49672CDE90034074923460748D3
:101CB00000F0C8F800F0B6FA40F24521044802F0FE
:101CC000A7FA204602B010BD14BF01085110000849
:101CD0000EB90108FF23024A1370024A13707047BD
:101CE000C0060020C1060020064A13681968064B8A
:101CF00019B94FF0FF321A6070471268D268D26883
:101D00005268F8E7C80600207807002010B504469E
:101D100020B940F2F261084802F07AFA6269074B92
:101D20009A4207D1A06A064B984203D0B0FA80F0DD
:101D3000400910BD0020FCE70EB9010898070020FB
:101D400080070020F8B51B4B1B4E1C680546306809
:101D50000F46043001F0E9FA334640B901203168FA
:101D6000164EC96A3268884022EA000232606A1C54
:101D700007D137B1196812480431BDE8F84001F0C5
:101D8000B1BA1A686419546007D30E4A106819680A
:101D9000BDE8F840043101F0B1BA0B4A1068196887
:101DA000043101F0ABFA094B1A68A24288BF1C60EB
:101DB000F8BD00BFC0070020C4060020480700206F
:101DC00098070020CC060020C806002078070020D5
:101DD00080B5DFF86C80164F164D174E2B6863B92F
:101DE000164B1B68012BF8D94FF08053C8F8003010
:101DF000BFF34F8FBFF36F8FEEE701F0FBFAFB6885
:101E0000DC68201D01F091FA3368013B33602B68D8
:101E1000013B2B6001F00EFB04F1540016F07CF83E
:101E2000206B01F029FC204601F026FCD6E700BF1C
:101E3000AC0700203807002034070020D00600201F
:101E400004ED00E02DE9F84F4FEA820A8046504643
:101E50000D4699460B9E01F00DFC0746002800F048
:101E6000B780BC2001F006FC0446002800F0AD80DD
:101E7000076325B94FF458715C4802F0C9F952461E
:101E8000A521206B15F09FF9236BAAF1040A9A444F
:101E90002AF0070A6B1E04F134020F3513F8011FF4
:101EA00002F8011B197809B1AB42F7D10A9D4FF036
:101EB000000B042D28BF0425271DE562C4E9135B30
:101EC000384684F843B001F00AFAC5F1050504F17B
:101ED000180001F004FAC4F8B4B060225946246135
:101EE000A561646284F8B8B004F1540015F06BF990
:101EF0003F4B4A46A3653F4B4146E3653E4B504648
:101F0000236601F051FA206006B1346001F072FAE4
:101F10003A4B3B4E1A68DFF8248101321A6032686E
:101F2000002A58D134601B68012B25D1354801F0B7
:101F3000CBF9354801F0C8F9344801F0C5F9DFF8AC
:101F40000091334801F0C0F9324D334801F0BCF93B
:101F5000484601F0B9F9284601F0B6F92F4801F0DA
:101F6000B3F92F4801F0B0F92E4801F0ADF92E4B2E
:101F7000C3F800902D4B1D6001252D4A2D49136893
:101F8000086801331360E26A636405FA02F30343ED
:101F900014200B601B4B394600FB023001F0A2F904
:101FA00001F048FAD8F8003063B13368DA6AE36ABE
:101FB0009A4207D24FF080521F4B1A60BFF34F8FE7
:101FC000BFF36F8F2846BDE8F88F384601F054FB09
:101FD0004FF0FF35F6E7D8F80030002BCCD133684E
:101FE000DA6AE36A9A4298BF3460C5E70EB901081D
:101FF00044EE010864EE010824EE010834070020D5
:10200000C4060020D0060020E4060020F8060020C8
:102010000C07002060070020200700208007002018
:10202000AC07002098070020C8060020CC0600203E
:10203000440700204807002004ED00E0940700203A
:102040004C07002070B504462A4D01F0D3F904B9BD
:102050002C68261D304601F068F960B91421E06A49
:10206000254B41435B5833B90122244982400B6818
:1020700023EA02030B60A36A1BB104F1180001F00C
:1020800054F91F4A1368013313602B68A34220D10F
:1020900031461C4801F026F91B4A136801331360CE
:1020A00001F0C8F9194B1B6893B12B68A3420FD1FB
:1020B000174B1B6823B140F2B641164802F0A8F84E
:1020C0004FF08052144B1A60BFF34F8FBFF36F8FE6
:1020D00070BD124A04F154001368013B136015F0FF
:1020E0001BFF206B01F0C8FA204601F0C5FAFFF78C
:1020F000FBFDD5E7C4060020D006002048070020DD
:1021000044070020AC070020380700209407002077
:10211000400700200EB9010804ED00E0340700205C
:10212000F8B5054620B940F24C51174802F070F856
:10213000164B1B68AB4220D001F05CF9144B6C6964
:102140001F68144B1E6801F075F9BC4217D0B442E9
:1021500015D0114B9C4208D1AB6A83B995F8B830C1
:10216000012B0CBF02200320F8BD0C4B9C4208D071
:10217000002C0CBF04200120F6E70020F4E7022029
:10218000F2E70420F0E700BF0EB90108C406002002
:10219000C8060020CC06002098070020AC070020CD
:1021A00070B5044620B940F21C71194802F030F8AD
:1021B000184D2B68A34229D044B301F01BF92046E7
:1021C000FFF7A4FDF0B1261D304601F0AEF8012363
:1021D0001149E26A08689340034314200B600F4BD7
:1021E000314600FB023001F07DF82B68E26ADB6AC1
:1021F0009A4207D34FF08052094B1A60BFF34F8FBA
:10220000BFF36F8FBDE8704001F014B970BD00BF1F
:102210000EB90108C406002048070020D00600209F
:1022200004ED00E013B500241A4B009401935022F2
:10223000234619491948FFF705FE01281DD100F072
:10224000BBFE012819D14FF0500383F31188BFF36F
:102250006F8FBFF34F8F124B124A1B6854331360BA
:102260004FF0FF32104B1A60104B1860104B1C607F
:1022700002B0BDE8104001F03DB9013007D140F691
:1022800004010C4802B0BDE8104001F0C1BF02B02B
:1022900010BD00BF740700201DBF0108D11D00083C
:1022A000C4060020D40200207807002094070020F4
:1022B000C00700200EB90108024A136801331360F9
:1022C000704700BF40070020014B1868704700BFEF
:1022D000C007002008B501F067F9014B186808BD78
:1022E000C0070020014B1868704700BF340700206A
:1022F0002DE9F84F3A4B1B68002B6AD1394B1C680B
:1023000001341C609CB9384D2B681B6823B140F622
:102310006221364801F07CFF354B2A681968296034
:102320001A60344A136801331360FFF7DDFC324D45
:102330004FF0000B2B68314FA34211D93A68304B54
:10234000D16A14224A439A58022A28BF4FF0010B3F
:102350002C4A1268002A0CBF58460120BDE8F88FAD
:10236000DFF884A0DFF8A490DAF8002012681AB928
:102370004FF0FF322A60E1E7DAF80020D268D66831
:1023800071688C4201D22960D8E706F10408404602
:1023900000F0CBFFB16A19B106F1180000F0C5FFDB
:1023A00001224FF0140CF06AD9F8003002FA00F163
:1023B0001943134BC9F800100CFB0030414600F0E4
:1023C00091FF3868F16AC26A914228BF4FF0010B51
:1023D000CAE70D4A4FF0000B136801331360B7E7EB
:1023E00040070020C0070020C80600200EB90108E1
:1023F000CC0600207C07002078070020C4060020BF
:10240000D0060020C40700203C0700204807002019
:102410002DE9F8432E4C236823B940F668012D4876
:1024200001F0F6FE00F0E6FF2368013B236024681C
:102430002CB1002400F0FEFF2046BDE8F883264BB7
:102440001B68002BF5D0254D254EDFF8A8801FE036
:10245000EB680127DC6804F1040904F1180000F0BE
:1024600064FF484600F061FF1420E26A316807FA11
:1024700002F30B4300FB02804946336000F032FF59
:10248000184BE26A1B68DB6A9A4201D3164B1F6045
:102490002B68002BDCD10CB1FFF726FC134D2C6808
:1024A00044B10127104EFFF723FF00B13760013C14
:1024B000F9D12C600C4B1B68002BBAD04FF0805226
:1024C0000B4B1A60BFF34F8FBFF36F8F0124B1E73F
:1024D000400700200EB901083407002080070020C3
:1024E00048070020C4060020C40700203C07002045
:1024F00004ED00E0D006002038B50C46054620B9B2
:1025000040F2CA41184801F083FE24B940F2CB41A1
:10251000154801F07DFE154B1B6823B140F2CC41FC
:10252000114801F075FEFFF7C7FE114B2A681868C5
:1025300014192CBF0121002182422C600CD961B9F1
:10254000FFF766FF38B94FF080520A4B1A60BFF3AD
:102550004F8FBFF36F8F38BD09B9A042F0D2002171
:10256000201AFFF7EFFBEBE70EB901084007002048
:10257000C007002004ED00E010B5044640B94FF05C
:1025800080520D4B1A60BFF34F8FBFF36F8F10BD9A
:102590000A4B1B6823B14FF4A461094801F038FECF
:1025A000FFF78AFE00212046FFF7CCFBFFF730FF44
:1025B0000028E4D0EBE700BF04ED00E04007002076
:1025C0000EB90108244B70B51A68244B12B10122D0
:1025D0001A6070BD224E1A6033681B6B1A68B2F124
:1025E000A53F0BD15A68B2F1A53F07D19A68B2F165
:1025F000A53F03D1DB68B3F1A53F04D03068316853
:10260000343101F0D5FD174B1C68B4FA84F414235F
:10261000E4B2C4F11F046343134DEB5823B940F6F1
:102620008831124801F0F4FD142202FB04F3E9188A
:102630004868083340682B44984202FB045408BFA2
:102640004368486008BF4B606368094ADB683360D1
:10265000336854331360BCE740070020C4070020F0
:10266000C406002048070020D00600200EB901084B
:10267000D402002070B504462A4E00F0BBFE04B917
:102680003468251D284600F050FE60B91421E06A28
:10269000254B41435B5833B90122244982400B68E2
:1026A00023EA02030B60A36A1BB104F1180000F0D7
:1026B0003CFE29461E4800F015FE94F8B8301D4D2A
:1026C000012B04BF002384F8B83000F0B3FE2A6861
:1026D0002AB100F08FFEFFF707FB00F0ABFE336876
:1026E000A34211D12B6883B1134B1B6823B14FF464
:1026F000D961124801F08CFD4FF08052104B1A60E6
:10270000BFF34F8FBFF36F8F70BD094A11680D4A39
:102710001268914201D13360F6E7BDE87040FFF7DF
:1027200051BF00BFC4060020D0060020480700208B
:102730009807002094070020400700200EB90108E8
:1027400004ED00E03407002038B50D46044620B9FA
:1027500040F69F31074801F05BFD074B20461968A2
:10276000183100F0CBFD2846BDE838400121FFF7C5
:10277000E9BA00BF0EB90108C406002070B50E46C4
:102780001446054620B940F6CA310A4801F040FD1A
:10279000094B28461968183100F0A4FD002C214689
:1027A00008BF3046BDE8704018BF4FF0FF30FFF75C
:1027B000C9BA00BF0EB90108C406002038B5C36805
:1027C000DC6824B940F6FA31154801F021FD04F126
:1027D0001805284600F0A9FD124B1B68E3B9251D1A
:1027E000284600F0A2FD01230F49E26A08689340E1
:1027F000034314200B6029460C4B00FB023000F011
:1028000071FD0B4BE26A1B68DB6A9A4285BF0120AF
:10281000084B0020186038BD29460748EFE700BF85
:102820000EB901084007002048070020D00600200C
:10283000C4060020C407002080070020034B1B684B
:102840000360034B1B684360704700BF7C07002098
:10285000C007002070B50C46054620B940F665411A
:10286000144801F0D5FC24B940F66641114801F046
:10287000CFFC00F0BFFD104B1A682368591C0FD025
:102880000E482E6800686968864201D091420ED9D0
:10289000521A934209D99B1A23602846FFF7CEFFAC
:1028A000002400F0C7FD204670BD002323600124F2
:1028B000F7E700BF0EB90108C00700207C07002021
:1028C0000122014B1A607047C407002070B50C4606
:1028D0001646054608B91B4A156805F134026260C0
:1028E000EA6A052B22612A6B2560E2616A6CA260AC
:1028F000EA6C62614FF00002A2611BD011490968C5
:10290000A9420BD12273D6B1296B0A46531A12F889
:10291000010BA528FAD09B08238470BD032B2373D9
:10292000F1D1FFF7C9FCAB6A0BB102232373FFF7A8
:102930006FFDE8E72846FFF7F3FB2073E3E7268403
:10294000EBE700BFC40600202DE9F84F0D68814673
:102950000C4692461DB300254FF0240B4B6801F145
:1029600008075B68BB424B6004BFCB684B604B6899
:10297000D3F80C8063680BFB05915B6801229F42D2
:10298000636008BFE36805F1010508BF6360636821
:10299000DE6853463046FFF799FFB045EAD1284636
:1029A000BDE8F88F2DE9F84305461746FFF784FC8C
:1029B0001F4B1B688B4238D84FF000082426444632
:1029C000DFF8809009EB080106FB04500122FFF7B5
:1029D000BBFFA8F1140818F1640F0444F2D1154BA1
:1029E0000222196806FB0450FFF7AEFF124B0444A5
:1029F0001968022206FB0450FFF7A6FF04440422D4
:102A00000E4906FB0450FFF79FFF044406FB0450E9
:102A100003220B49FFF798FF04440FB100233B60EA
:102A2000FFF7F6FC2046BDE8F8830024F8E700BF76
:102A300034070020C8060020CC060020AC07002088
:102A40009807002020070020014B1868704700BF3E
:102A5000C4060020054B1B6833B1054B1B68002BD7
:102A60000CBF02200020704701207047940700200F
:102A7000400700202DE9F0410446002836D0234AC3
:102A8000C36A11681746C96A8B4237D21426826915
:102A90001F4D002AA8BF3A6806FB0353A2BFD26AA3
:102AA000C2F10502826142699A4221D100F1040813
:102AB000404600F03AFC174B48B9E06A4643AA5931
:102AC0002AB901211A68814022EA01021A603A6893
:102AD0001968D26AE262012404FA02F0084318601D
:102AE0001420414600FB025000F0FCFB204603E0AE
:102AF0003B68DB6AC3620120BDE8F0811368C06CEB
:102B0000DC6AA0422CBF00200120F5E7C4060020AB
:102B1000D006002048070020F8B5044608B9002078
:102B2000F8BD1F4B1B68834204D040F67A711D48E4
:102B300001F06EFB236D23B940F67B71194801F05B
:102B400067FB236DE16AE26C013B91422365E6D0AD
:102B5000002BE4D1251D284600F0E7FB124E134A56
:102B600050B91421E76A794373582BB901201368CF
:102B7000B84023EA00031360E36CC3F10501A161CF
:102B8000E3620124116804FA03F008431060142082
:102B9000294600FB036000F0A5FB2046C0E700BF0C
:102BA000C40600200EB90108D00600204807002006
:102BB000F8B50D460446002845D0036D23B940F60C
:102BC000C971214801F024FBE36C9D4238BF1D46CA
:102BD000E36AAB4237D0236D012B34D11B4B1B680A
:102BE000A34204D140F6E471174801F011FB14260A
:102BF000A269E36A002AE562A4BFC5F10505A561E3
:102C0000134D626906FB03539A421CD1271D3846B7
:102C100000F08BFBE26A0F4C40B95643AB592BB91D
:102C200001212368914023EA01032360012314203A
:102C3000216893400B432360394600FB0250BDE8F6
:102C4000F84000F04FBBF8BD0EB90108C4060020E3
:102C5000D006002048070020044B1A681AB11968F2
:102C60000A6D01320A651868704700BFC40600206B
:102C70002DE9F041214C1E4680460F46154600F0D6
:102C8000B9FB236893F8B830022B16D001212368D2
:102C9000D3F8B42022EA0802C3F8B420236883F8EA
:102CA000B81056B13046FFF74DF84FF08052144B34
:102CB0001A60BFF34F8FBFF36F8F00F0BBFB00F0C4
:102CC00099FB1DB12368D3F8B4302B602368002230
:102CD00093F8B830022B09BF012500252368D3F8EB
:102CE000B41004BFB943C3F8B410236883F8B82004
:102CF00000F0A0FB2846BDE8F08100BFC40600201C
:102D000004ED00E0F8B50E4617461D46044620B90E
:102D100041F219212E4801F07BFA00F06BFB15B14E
:102D2000D4F8B4302B60022394F8B85084F8B8304B
:102D3000EDB2042F1AD8DFE807F00E0309061500DC
:102D4000D4F8B4301E43C4F8B46004E0D4F8B4300E
:102D50000133C4F8B430012D12D0012400F06AFB15
:102D60002046F8BD022DEED10024F7E7D4F8B430A8
:102D70000133F0D041F24A21154801F049FAEAE75F
:102D8000261D304600F0D1FA1420124AE36A116879
:102D90009D400D431560104A314600FB032000F0B2
:102DA000A1FAA36A23B141F25921094801F030FA8E
:102DB0000A4BE26A1B68DB6A9A42CED94FF0805216
:102DC000074B1A60BFF34F8FBFF36F8FC5E700BF8C
:102DD0000EB9010848070020D0060020C4060020D4
:102DE00004ED00E02DE9F843DDF820800E46914621
:102DF0001D46044620B941F28C21384801F008FAFA
:102E000000F0D2FBEFF311874FF0500383F31188EA
:102E1000BFF36F8FBFF34F8F15B1D4F8B4302B6071
:102E2000022394F8B85084F8B830EDB2B9F1040F29
:102E30001AD8DFE809F00E0309061500D4F8B430FB
:102E40001E43C4F8B46004E0D4F8B4300133C4F8CD
:102E5000B430012D12D0012087F31188BDE8F8832A
:102E6000022DEED10020F7E7D4F8B4300133F0D0D2
:102E700041F2CF21194801F0CBF9EAE7A36A23B167
:102E800041F2DA21154801F0C3F9154B1B6803BB69
:102E9000251D284600F049FA01231249E26A086814
:102EA0009340034314200B6029460F4B00FB023074
:102EB00000F018FA0D4BE26A1B68DB6A9A42CAD925
:102EC0000123B8F1000F01D0C8F80030084A1360A0
:102ED000C1E704F118010748EAE700BF0EB901088D
:102EE0004007002048070020D0060020C40600202C
:102EF000C40700208007002038B5054608B9084BF4
:102F00001D68002400F076FA95F8B830022B04BF53
:102F100085F8B840012400F08DFA204638BD00BF86
:102F2000C4060020F8B50F4C00F064FA2568ADB96E
:102F30000D4F0E4E384600F0C7F9304600F0C4F988
:102F40000B4B2A461F600B4B0C210A201E6000F021
:102F50006FFC206010B1084901F02EF8BDE8F84080
:102F600000F068BAFC070020D0070020E40700202A
:102F7000C8070020CC07002022BF0108914208B5F5
:102F8000416000610AD8D21A83699A420DD2084B77
:102F9000011D186800F0B2F9002008BD9A4201D264
:102FA000994202D2011D034BF3E70120F5E700BF70
:102FB000CC070020C807002007B5FFF7B3FF0C4B74
:102FC0001B6843B90B484FF4897101F021F90020C7
:102FD00003B05DF804FB084BC822019301230749A5
:102FE000009307480023FEF72DFF0028EAD0EFE703
:102FF000FC0700200EB901080008002027BF0108C7
:103000001D3100082DE9F04180462C200D46174661
:103010001E4600F02FFB044688B125B94FF4B67167
:10302000084801F0F5F8FFF77DFF069BC4F8008023
:10303000C4E9065726626362201D00F050F920465D
:10304000BDE8F0810EB901082DE9FF410D4690461B
:103050001F46064620B94FF4C3710F4801F0D8F857
:103060000E4C206878B1052DCDE9015803960DDC92
:10307000FFF7F0FC002302280CBF0A9A1A4601A9A8
:10308000206800F0F9FB04B0BDE8F08100233A4667
:1030900001A900F0A7FCF6E70EB90108FC07002023
:1030A0002DE9F74300271A4DDFF86C802B681A686A
:1030B00032B9184A11681360296003B0BDE8F08383
:1030C000DB68DC681E6804F10409484600F02DF94D
:1030D000636A20469847E369012BE7D1A36933442B
:1030E0009E4206D2636024614946286800F006F9D2
:1030F000DCE700230097324619462046FFF7A4FF7D
:103100000028D3D140F27231404601F081F8CDE77A
:10311000C8070020CC0700200EB901082DE9F04FA8
:103120004FF00108624D89B0DFF898B1DBF800205C
:10313000136843B30024D368D3F80090FFF7BCF8BA
:10314000FFF7C2F85B4B82461A681F4690425A4E00
:103150001CD31860002C4CD0584B1B681A68B2FA6C
:1031600082F25209A9EB0A01306800F05DFFFFF717
:103170004FF998B94FF08052514B1A60BFF34F8FFF
:10318000BFF36F8F0AE001249946D7E70393FFF757
:1031900087FF039BC3F800A0FFF73AF9002205A9B7
:1031A000306800F0C3FC0028BED0059B002BF5DB87
:1031B000079C636913B1201D00F0B7F8FFF784F88E
:1031C0003B688146984201D2FFF76AFF059BC7F82A
:1031D0000090092BE2D808FA03F313F4047A57D1CC
:1031E00013F0C70F33D19B06D8D5204600F044FA20
:1031F000D4E7814529D8FFF70BF9DBF80030DB680D
:10320000D3F80CB00BF1040000F08FF8DBF81C30A1
:10321000012B15D1DBF818104B465246494458464D
:10322000FFF7ACFE60B1009423464A46214658465B
:10323000FFF70AFF20B94FF4F471284600F0E8FFC9
:10324000DBF8243058469847A8E722468AE7A16968
:10325000069B4A4619442046FFF790FE00289DD061
:10326000636A20469847E369012B97D1A2690699C2
:10327000CDF800A00A44534651462046FFF7E4FE2D
:1032800000288BD140F20131284600F0C1FF85E7CC
:10329000069BA36123B94FF44671284600F0B8FF9E
:1032A000A1694B464A4649442046FFF767FE75E749
:1032B0000EB90108F8070020FC070020CC07002009
:1032C00004ED00E0C80700204FF0FF3200F10803D2
:1032D0004360C0E9022303610023036070470023B9
:1032E0000361704743689A684B608A609A685160CE
:1032F0009960036808610133036070470A6830B55C
:10330000531C0AD103695A684A6091608B60596006
:10331000036808610133036030BD00F108035C6895
:1033200025689542EFD82346F9E70369D0E90112F1
:103330008A60826851605968814208BF5A600022E1
:1033400002611A68013A1A601868704706480068F6
:10335000006880F3088862B661B6BFF34F8FBFF391
:103360006F8F00DF00BF000008ED00E0002307B50D
:1033700001930B4B1B68013303D0CA21094800F0AD
:1033800047FF4FF0500383F31188BFF36F8FBFF3F4
:103390004F8F019B002BFCD003B05DF804FB00BFF6
:1033A000040000200EB901084FF0807340F8043C7F
:1033B000054B21F0010140F8081C40F80C3C40F896
:1033C000202C4038704700BF6D330008000000001B
:1033D000074B19680868B0E8F00F80F30988BFF35D
:1033E0006F8F4FF0000080F311884EF00D0E704784
:1033F000C40600204FF0500383F31188BFF36F8F92
:10340000BFF34F8F084A13680133012B136009D1B2
:10341000064B1B6813F0FF0F04D040F275110448EF
:1034200000F0F6BE704700BF0400002004ED00E08D
:103430000EB9010810B5074C236823B94FF4BE71CB
:10344000054800F0E5FE2368013B23600BB983F3D8
:10345000118810BD040000200EB901080000000012
:10346000EFF30980BFF36F8F0D4B1A6820E9F00F5F
:1034700010602DE908404FF0500080F31188FFF7ED
:10348000A1F84FF0000080F31188BDE808401968EA
:103490000868B0E8F00F80F30988BFF36F8F7047BA
:1034A000C406002008B54FF0500383F31188BFF322
:1034B0006F8FBFF34F8FFEF71BFF18B14FF0805295
:1034C000024B1A60002383F3118808BD04ED00E06D
:1034D0000022054B05491A600A6041F26701044A5F
:1034E000116007221A60704710E000E018E000E069
:1034F00014E000E013B5264B264C1A78D2B20192A4
:10350000FF221A701B78244ADBB28DF803309DF835
:10351000033003F0500313700723002223609DF84B
:103520000310581E090629D402B123602368032B17
:1035300004D04FF49B71194800F06AFE2368144AC6
:103540001B0203F4E06323600024019BDBB21370D1
:10355000134B1A6842F470021A601A6842F0704203
:103560001A60FFF7B5FF0F4B1C60FFF7EFFEFFF788
:1035700029F8FFF7FBFE204602B010BD9DF803308E
:1035800001225B00DBB28DF803300346C7E700BFC2
:1035900000E400E008080020040800200EB901083B
:1035A00020ED00E00400002008B5EFF305830F2BA9
:1035B0000AD90D4A9B5C0D4A12789A4204D940F20E
:1035C000A5210B4800F024FE0A4B0B4A1B68126829
:1035D00003F4E063934206D9BDE8084040F2B52108
:1035E000034800F015BE08BDF0E300E00408002029
:1035F0000EB901080CED00E00808002070B50D467A
:103600000646FEF759FE0D4B0D491C6862198A42A9
:1036100007D90C233360FEF7FBFE4FF0FF34204642
:1036200070BD1A60074A13685B1B1360064A136873
:103630002B441360FEF7ECFEF1E700BF080000200A
:10364000D46800200C0000200C08002008B5EFF31F
:1036500005831BB1C221034800F0DAFDBDE8084034
:10366000FEF72ABE0EB90108FEF7D2BEFEF724BE51
:10367000FEF7CEBE13F044BD13F04ABD00B58BB0CB
:10368000684614F03DF8034B08981B6818440BB0CB
:103690005DF804FB0C00002000207047704710B557
:1036A0000446FFF7A7FEA46BFFF7C4FEB4FA84F04C
:1036B000400910BD70B51546026C0446866B42B9D0
:1036C00005689DB98068FFF727FAA5600136A663F3
:1036D00070BD6DB9406813F052FD6368226C1344ED
:1036E000A2686360934201D3236863600020EDE722
:1036F000C06813F044FD236CE2685B4221681A4401
:103700008A42E2603EBFA2689B18E360022DEDD1C1
:103710000EB1013EEAE73046D8E703461A6C10B412
:10372000084662B1D9689C681144A142D96028BF9B
:10373000196810BC28BFD960D96813F020BD10BC2F
:10374000704770B50446FFF755FE94F8455004F1F4
:1037500024066DB2002D14DCFF2384F84530FFF7FA
:1037600069FEFFF747FE94F8445004F110066DB26D
:10377000002D12DCFF2384F84430BDE87040FFF7D1
:1037800059BE636A002BE7D03046FFF717F808B13F
:10379000FFF796F8013D6DB2DCE72369002BE9D015
:1037A0003046FFF70BF808B1FFF78AF8013D6DB21C
:1037B000DEE7000038B50D46044620B940F203119B
:1037C000194800F025FDFFF715FED4E90F314B43F2
:1037D0002268D0185B1A1344A060E3600020FF2326
:1037E000A063626084F8443084F8453095B9236959
:1037F00063B104F11000FEF7E1FF38B14FF08052E1
:103800000A4B1A60BFF34F8FBFF36F8FFFF712FEA3
:10381000012038BD04F11000FFF756FD04F124002B
:10382000FFF752FDF2E700BF0EB9010804ED00E01A
:10383000F8B50D461746064620B94FF4BB710D4842
:1038400000F0E6FC05FB06F05030FFF713FF0446DE
:1038500048B155B92060C4E90F6501212046FFF742
:10386000A9FF84F84C702046F8BD00F150030360B6
:10387000F1E700BF0EB901082DE9FF478846019224
:103880001E46044620B940F2F1214B4800F0C0FC2E
:10389000B8F1000F06D1236C23B140F2F221464863
:1038A00000F0B6FC022E07D1E36B012B04D040F2EE
:1038B000F321414800F0ACFCFFF7CCF830B9019B94
:1038C00023B140F2F6213C4800F0A2FC0027B946A3
:1038D000DFF8E8A0FFF78EFDA26BE36B9A4201D3FD
:1038E000022E19D1324641462046FFF7E3FE636AB5
:1038F0001BB104F12400FEF761FF38B14FF0805294
:103900002E4B1A60BFF34F8FBFF36F8FFFF792FDFF
:10391000012004B0BDE8F087019D1DB9FFF78AFDC5
:103920000020F6E717B902A8FEF788FFFFF782FD2F
:10393000FEF7C2FCFFF75EFD94F84430FF2B08BF92
:1039400084F8449094F84530FF2B08BF84F84590E4
:10395000FFF770FD01A902A8FEF77CFF28BBFFF767
:1039600049FDA26BE36B9A420ED1FFF763FD01990B
:1039700004F11000FEF7E8FE2046FFF7E2FEFEF736
:1039800047FD48B10127A5E7FFF754FD2046FFF7A3
:10399000D8FEFEF73DFDF5E74FF08053CAF8003042
:1039A000BFF34F8FBFF36F8FECE72046FFF7C9FEE1
:1039B000FEF72EFDB4E700BF0EB9010804ED00E0EC
:1039C00010B5024600210120FFF732FF044638B14E
:1039D000002383600360C3601A461946FFF74CFF5B
:1039E000204610BD2DE9F843894690461F460446FF
:1039F00020B940F2C331274800F00AFCB9F1000FAA
:103A000006D1236C23B14FF47171224800F000FC01
:103A1000022F07D1E36B012B04D040F2C5311D48C2
:103A200000F0F6FBFFF7C0FDEFF311864FF05003F7
:103A300083F31188BFF36F8FBFF34F8FA26BE36BDC
:103A40009A4201D3022F22D194F845503A466DB2E2
:103A500049462046FFF72EFE6B1C13D1636A0BB953
:103A600001200BE004F12400FEF7A8FE0028F7D0A7
:103A7000B8F1000FF4D00120C8F8000086F31188D7
:103A8000BDE8F88301356DB284F84550E8E70020C1
:103A9000F4E700BF0EB9010870B50D46044620B921
:103AA0004FF48C61204800F0B3FB236C23B140F24B
:103AB00064411D4800F0ACFB236833B9A36823B10F
:103AC00040F26941184800F0A3FBFFF76DFDEFF3EA
:103AD00011864FF0500383F31188BFF36F8FBFF34C
:103AE0004F8FA26BE36B93421CD994F8453001329F
:103AF0005BB2A2635A1C10D1636A0BB9012009E0C2
:103B000004F12400FEF75AFE0028F7D0002DF5D06E
:103B10000120286086F3118870BD01335BB284F800
:103B20004530EBE70020F5E70EB901082DE9F04339
:103B300085B00F460192044620B94FF4A061424877
:103B400000F066FB37B9236C23B140F204513E48C4
:103B500000F05EFBFEF77EFF30B9019B23B140F21F
:103B60000951394800F054FB0026B046DFF8DC90DC
:103B7000FFF740FCA56BD5B139462046013DFFF764
:103B8000CCFDA563236963B104F11000FEF716FEB6
:103B900038B14FF080522D4B1A60BFF34F8FBFF3F7
:103BA0006F8FFFF747FC012005B0BDE8F083019D52
:103BB0001DB9FFF73FFC0020F6E716B902A8FEF793
:103BC0003DFEFFF737FCFEF777FBFFF713FC94F899
:103BD0004430FF2B08BF84F8448094F84530FF2B15
:103BE00008BF84F84580FFF725FC01A902A8FEF76D
:103BF00031FEF0B92046FFF752FDA0B1019904F162
:103C00002400FEF7A1FD2046FFF79BFDFEF700FC18
:103C100038B94FF08053C9F80030BFF34F8FBFF36E
:103C20006F8F0126A4E72046FFF78BFDFEF7F0FB20
:103C3000F7E72046FFF785FDFEF7EAFB2046FFF792
:103C40002EFD0028EDD0B6E70EB9010804ED00E026
:103C50002DE9FF410446019120B940F291515248AB
:103C600000F0D6FA236C23B140F295514E4800F093
:103C7000CFFAFEF7EFFE30B9019B23B140F29A5123
:103C8000494800F0C5FA00252F462E46DFF81C8172
:103C9000FFF7B0FBA36BE3B1013BA363236813B948
:103CA000FEF7DAFFA060236963B104F11000FEF7AC
:103CB00085FD38B14FF080523C4B1A60BFF34F8FF7
:103CC000BFF36F8FFFF7B6FB0125284604B0BDE8B0
:103CD000F081019B4BB925B140F2E151324800F02F
:103CE00097FAFFF7A7FB0025EFE717B902A8FEF741
:103CF000A5FDFFF79FFBFEF7DFFAFFF77BFB94F8CC
:103D00004430FF2B08BF84F8446094F84530FF2B03
:103D100008BF84F84560FFF78DFB01A902A8FEF7F4
:103D200099FD40BB2046FFF7BAFCF0B123683BB9D0
:103D3000FFF760FBA068FEF79DFE0546FFF77AFBE4
:103D4000019904F12400FEF7FFFC2046FFF7F9FC7F
:103D5000FEF75EFB38B94FF08053C8F80030BFF370
:103D60004F8FBFF36F8F012792E72046FFF7E9FCE3
:103D7000FEF74EFBF7E72046FFF7E3FCFEF748FBB4
:103D80002046FFF78CFC0028EDD0002D9DD0FFF7DA
:103D900031FB616A19B1236B1968C1F10501A06893
:103DA000FEF706FF9DE700BF0EB9010804ED00E035
:103DB0002DE9F04385B00F460192044620B94FF437
:103DC000CD61424800F024FA37B9236C23B140F2A8
:103DD0006C613E4800F01CFAFEF73CFE30B9019BD6
:103DE00023B140F27161394800F012FA0026B04662
:103DF000DFF8DC90FFF7FEFAA36BD3B1394620461B
:103E0000E568FFF78AFC636AE56063B104F12400AA
:103E1000FEF7D4FC38B14FF080522D4B1A60BFF33F
:103E20004F8FBFF36F8FFFF705FB012005B0BDE893
:103E3000F083019D1DB9FFF7FDFA0020F6E716B9E2
:103E400002A8FEF7FBFCFFF7F5FAFEF735FAFFF7DD
:103E5000D1FA94F84430FF2B08BF84F8448094F8DA
:103E60004530FF2B08BF84F84580FFF7E3FA01A92E
:103E700002A8FEF7EFFCF0B92046FFF710FCA0B156
:103E8000019904F12400FEF75FFC2046FFF759FC7E
:103E9000FEF7BEFA38B94FF08053C9F80030BFF3CF
:103EA0004F8FBFF36F8F0126A4E72046FFF749FC31
:103EB000FEF7AEFAF7E72046FFF743FCFEF7A8FA55
:103EC0002046FFF7ECFB0028EDD0B6E70EB901085D
:103ED00004ED00E02DE9F84389469046054620B9F7
:103EE00040F2FB61204800F093F9B9F1000F06D1D0
:103EF0002B6C23B140F2FC611B4800F089F9FFF7FD
:103F000053FBEFF311874FF0500383F31188BFF396
:103F10006F8FBFF34F8FAC6B1CB395F8446049466D
:103F200076B22846FFF7F9FB013C731CAC6313D152
:103F30002B690BB901200BE005F11000FEF73EFCE8
:103F40000028F7D0B8F1000FF4D00120C8F8000025
:103F500087F31188BDE8F883013676B285F84460AE
:103F6000E8E72046F4E700BF0EB9010810B50446A3
:103F700020B940F28A71054800F04AF9FFF73AFA91
:103F8000A46BFFF757FA204610BD00BF0EB9010819
:103F900038B5054620B940F2A471064800F038F95A
:103FA000FFF728FAA86BEC6B241AFFF743FA2046B8
:103FB00038BD00BF0EB90108002330B5064A52F8DB
:103FC000335002EBC3041DB942F83310606030BDBA
:103FD0000133052BF3D1FAE7E4170020002310B5D5
:103FE000074A02EBC3014C68844204D1002042F826
:103FF0003300486010BD0133052BF2D1FAE700BF52
:10400000E417002010B5044620B94FF4F8610548C4
:1040100000F0FEF82046FFF7E1FF2046BDE8104023
:10402000FFF72ABB0EB9010870B504460D461646C7
:10403000FFF7E0F994F84430FF2B04BF002384F825
:10404000443094F84530FF2B04BF002384F84530FA
:10405000FFF7F0F9A36B2BB93246294604F124008F
:10406000FEF78CFB2046BDE87040FFF76ABB0000FE
:104070002DE9F04741488AB009F0CCFCFEF732F94F
:104080002425079007993E4809F0C4FC0798684327
:1040900009F05CFD04463B4809F0BCFC94B107996B
:1040A0000DEB05022046FEF77DFC0023DFF8F0A0B3
:1040B000354F07900893089A079B9A421DD32046D4
:1040C00009F02EFDFFF7DAFA0446FFF7E5FA21467C
:1040D00002462E4809F09EFC2D4B2E4819889A88DE
:1040E0008B1A09F097FC2C4B1B6803B198472B489F
:1040F00009F090FC0AB0BDE8F087089B05FB03437C
:104100001B7B042B98BF1AF80320099B88BF3F2212
:10411000642B83BF6420B3FBF0F30899002382BFB4
:1041200005FB01418969B1FBF3F308990898DDF8B3
:1041300020C0DDF820E0DDF82080DDF8209005FBD0
:10414000004005FB0949D9F81C6005FB0141CDE998
:10415000033605FB08439B69029305FB0E439B68EE
:10416000019305FB0C431B8C009303694968384697
:1041700009F050FC089B013308939CE734BF010809
:1041800040BF01084BBF010880BF0108B2BF010852
:104190000C180020D1BF01088808002041C6010882
:1041A0002FBF0108014B1860704700BFA408002012
:1041B00073B5124C064623780D46114A1BB9137885
:1041C0000BB172B6FEE70123002113700D48642283
:1041D00012F0F9FF2B4600960B4A6421094813F0B0
:1041E000F7FE0A4B1B6803B198470125054E304680
:1041F00009F054FC72B62570F9E700BF8008002072
:10420000140800201608002008C00108A408002097
:10421000F7B5184C064623780D46174A1BB9137894
:104220000BB172B6FEE7012300211370134864221C
:1042300012F0C9FF2B460096114A64210F4813F073
:10424000C7FE104B1B680BB10C4898470E4B1B6800
:1042500003B198470125094E0C4F304609F01EFC6A
:10426000384609F01BFC72B6094B257000BF013BB4
:10427000FCD1F2E781080020150800201608002074
:1042800030C0010810080020A40800203FC0010829
:10429000FFFF0F00F8B5DFF898C003681A4FCCF89D
:1042A00000304368194E3B608368194D3360C36822
:1042B000184C2B60036918492360436982690B60BD
:1042C000164BC0691A60164A1060DCF800003868A6
:1042D0003068286820681C460968124D1968124E1B
:1042E000126864220021284612F06DFF23683246CE
:1042F0006421284613F06CFE284609F0CFFB0B4BD7
:1043000000BF013BFCD1ECE7940800209C08002092
:10431000A0080020980800207C08002084080020C5
:104320008C08002016080020F5BF0108FFFF0F00D1
:1043300090080020074B1B6803B198471EF0040F3C
:104340000CBFEFF30880EFF309808169004A104742
:1043500095420008A408002010B1012108F06CBCAF
:10436000704708B109F0F2BB704780687047406839
:1043700070474368012B08D1D0E90432934204D03E
:104380001878003018BF01207047002070474B6834
:1043900070B5042B04460E464FF0000304D0C0E96C
:1043A00000338360204670BDD1E90425AD1AC0E911
:1043B000003383602846FFF7D4FFC4E900000544BA
:1043C000A560D6E90453024629468B4205D00AB1BE
:1043D0000E78167001310132F7E75B1B18446060FC
:1043E000E0E742680346022A06D1D3E904031B1A18
:1043F000032B01D909F007BC002070474368032B49
:1044000006D1D0E904329A4208BF0023184670470B
:104410000023FBE7037870B581680446B3B1284AEE
:10442000284809F0F7FA6368022B12D12046FFF7FB
:10443000D8FF0146244809F0EDFAE1680B78002B1B
:104440003CD02248BDE8704009F0E4BA204A214837
:10445000E7E7032B05D12046FFF7D0FF01461E48B2
:10446000E9E7042B0ED100251C4ED4E90431C91A0A
:104470008D4205D2595D304609F0CCFA0135F4E79A
:104480001748D8E7012B08D12046FFF772FF1549DE
:10449000154B002818BF1946E1E700250F4ED4E957
:1044A00004239B1A9D4205D2515D304609F0B2FAB1
:1044B0000135F4E70D4809F0ADFABEE70C48C1E755
:1044C00052B70108E3C00108F7C0010819C101088B
:1044D00083C40108EDC0010867C2010807D50108BF
:1044E00001C10108DDC00108D8C0010807C10108E9
:1044F00082C40108B1F5884F2DE9F84304460F4600
:1045000002D9174808F05CFB066883689B1B994238
:1045100019D9D0F804900846FFF723FF0546034653
:10452000A9EB0608B14505D00BB132781A700136F7
:104530000133F7E72068FFF70FFF05EB080325605D
:104540003D446360A56025683DB92846C4E901552E
:10455000FFF702FF2846BDE8F8830120FBE700BF14
:104560005BC001082DE9F0410368561A9046826845
:104570000446D21A96420D4615D93046FFF7F1FE91
:1045800007460346A84505D02A7803B11A700135BD
:104590000133F7E720683E44FFF7DEFEC4E9016619
:1045A0002760BDE8F0814768481EFF1ABE420ED85A
:1045B0001A469D19A91A002904DD10F8011F02F8F6
:1045C000011BF7E7002EA8BF9B196360E9E73D4494
:1045D0001F44FA1A002A04DD10F8012F03F8012BFA
:1045E000F7E763682E461846B04505D0327800B12B
:1045F000027001360130F7E7A8EB05084344E4E711
:1046000008B509C81B1AC3F58840884202D2104673
:1046100008F0D6FA994238BF1946581805D2B0F5B5
:10462000884F28BF4FF4884008BD4FF48840FBE70F
:104630002DE9F8430C46591C204615461F46FFF746
:1046400059FF064680B14FF00003EA19294620467B
:10465000FFF788FFD4E901539D4208D00DB1002334
:104660002B706368013363603046BDE8F8831B4AF2
:1046700001212046FFF7C4FF23680746A5EB030985
:10468000FFF76FFE10EB090F1CBF002300F8093085
:10469000236880461A460146954205D009B1107834
:1046A000087001320131F7E7D31A01334344104651
:1046B00019466568954207D019B192F800C081F893
:1046C00000C001320131F5E72D1A1D44206847442E
:1046D000FFF742FEC4E90085A760C5E796C0010860
:1046E0002DE9F04105460E4661B1D0E90132D21AFA
:1046F0008A4209D300221E4403B11A700133B34227
:10470000FAD16B60BDE8F081114AFFF779FF80466E
:10471000FFF727FED5E9001407460A4603469442F0
:1047200005D00BB11078187001320133F7E7002380
:10473000641A3C44264404B123700134B442FAD1D3
:104740002868FFF709FEC5E900744744AF60D9E760
:10475000CAC10108D0E90032D21A914210B503D97A
:10476000891AFFF7BDFF10BD3CBF5B184360FAE735
:1047700070B50C46012120461646FFF7BBFE0546E4
:1047800028B101212046FFF7E5FF23681E70284667
:1047900070BD0000426808B5012A06D1BDE8084096
:1047A0000A4600F11001FFF7E3BF8168024809F0F3
:1047B00031F9002008BD00BF59C1010810B50C1A1D
:1047C000134605D001462246184612F0E3FC034684
:1047D000181910BD2DE9F0410446A2EB0108164658
:1047E000A368226808469B1A98450F4615D940468B
:1047F000FFF7B7FD05460346BE4205D00BB13A7838
:104800001A7001370133F7E72068FFF7A5FD25602F
:104810004544C4E90155BDE8F0816568AD1AA84575
:1048200004D83146FFF7CAFF6060F4E70D4429461B
:10483000FFF7C4FF636829461A468E4205D00AB1C5
:104840000878107001310132F7E7751B1D4465606F
:10485000E1E770B50E46D2E900313046C91A144678
:10486000FFF748FE054630B1D4E900124FF00003CF
:104870003046FFF7AFFF284670BD000070B5D0E9A5
:10488000043100F110060446C91A3046FFF732FE23
:10489000054640B1D4E90712914206D1A168064805
:1048A00009F0B8F80025284670BD4FF000033046E7
:1048B000FFF790FFF7E700BFB0C001082DE9F04116
:1048C0008368A2EB01081746026804469B1A9845C4
:1048D0000E4615D94046FFF744FD05460346B7424C
:1048E00005D0327803B11A7001360133F7E720683A
:1048F000FFF732FD25604544C4E90155BDE8F0816C
:104900004568AD1AA84505D839463046FFF756FF29
:104910006060F3E70D4429463046FFF74FFF6368B8
:1049200029461A468F4205D0087802B1107001312D
:104930000132F7E77D1B1D446560DFE737B50D46A3
:1049400001A8114609F080F904212846FFF7D2FD9D
:10495000044630B14FF0000302AA01A92846FFF730
:10496000ADFF204603B030BDFFF7E8BF426808B591
:10497000022A06D1BDE808400A4600F11001FFF7FF
:10498000DDBF8168024809F045F8002008BD00BF7E
:1049900091C10108FFF7EABF2DE9F0410E46002161
:1049A0001C4617468AB00DF108082022C0E9001104
:1049B00081600546404612F006FC1E2C94BF22463C
:1049C0001F223946404612F0DAFB7368013B032B85
:1049D00014D8DFE803F00230404722462F4938461A
:1049E00013F0A9FB28B122462D49384613F0A3FB4A
:1049F00040B9012229463046FFF7BAFE28460AB0E0
:104A0000BDE8F08122462749384613F094FB28B1CF
:104A100022462549384613F08EFB08B90022E9E703
:104A200000220AA941F8242D404614F0E1FA021CA4
:104A300018BF0122DEE700220AA941F8242D4046D2
:104A400014F0D6FA019B02464345D7D0294630469A
:104A5000FFF774FFD2E723463A4629463046FFF770
:104A6000E7FDCBE714F00106C8D1640821462846CB
:104A7000FFF740FD0028C1D021462846FFF76AFE17
:104A8000B442BBD0022107EB460009F0F9F8002838
:104A9000B4DB2B6898550136F2E700BFD8C0010897
:104AA0006BC00108DDC0010870C0010830B51346B5
:104AB000426885B0032A044600F110050A460FD06B
:104AC000014601A8FFF768FF204601AA2946FFF723
:104AD000C0FE04460198FFF73FFC204605B030BDFC
:104AE0002946FFF7A5FD0446F7E70000F0B50446A8
:104AF00085B0104616460F4613F015FB6268034654
:104B0000032A16D03246214601A8FFF745FFDDE90A
:104B1000011291420BD04FF000033846FFF75AFEC6
:104B200001250198FFF718FC284605B0F0BD0025C7
:104B3000F7E7441C21463846FFF7DCFC054618B968
:104B4000054808F067FFEFE74FF0000332193146E0
:104B50003846FFF707FDE7E776C001080A4600F18F
:104B60001001FFF7C3BFF8B50D4619462846164693
:104B70001F46FFF7BFFC044630B14FF00003F219A7
:104B800031462846FFF79AFE2046F8BD1346426894
:104B900010B5042A06D1BDE810400A4600F1100104
:104BA000FFF7E1BF8168024808F034FF002010BD24
:104BB00020C101082DE9F0410C4690461D460646ED
:104BC00040B139B10849184608F034F8074618B919
:104BD00030602060BDE8F0812A46414612F0CFFAED
:104BE00037602560F6E700BFEEE9010870B50546BD
:104BF00010460E46144613F096FA224603463146F6
:104C00002846BDE87040FFF7D5BF000010B50C4640
:104C100031B1044900F016FD231A5842584110BD25
:104C20000846FCE75BC3010810B500B121B906488E
:104C300008F0F0FE002010BD1AB9044AFFF7D6FFB5
:104C4000F8E70120F7E700BFE4C10108F1C101085E
:104C50002DE9F74305460E4617469846FFF7E4FF51
:104C6000C0B10F49222007F0E5FF0446A8B138463D
:104C7000FFF77BFB81463846FFF7C0FB13F053FA82
:104C80004346CDE90090074A2221204613F0A0F9BF
:104C900030602C6003B0BDE8F0833060F9E700BFFE
:104CA000EEE901081EC201082DE9F8430E469846B8
:104CB00016F8013B02F1FF3903704660C0F8089016
:104CC000044615463D214A46304612F03BFA074657
:104CD00068BB4B46182B28BF1823C4F83001A362C9
:104CE00004F10C05A26A3146284612F048FA002267
:104CF000A66AA3191A7337B1D4F83021791C04F1CC
:104D00002C0012F03CFA0022D4F83031234483F80E
:104D10002C202EB12946404600F094FCC4F8340102
:104D2000D4E901120A48BDE8F84308F0E9BE831B44
:104D3000023DED1A182B1A46A8BF1822B5F5807F40
:104D400028BF4FF48075A262C4F83051C8E700BF95
:104D500026C2010830B504460D46084B9DB00093AD
:104D6000074A084B642103A813F032F903AA294625
:104D70002046FFF73BFF1DB030BD00BF18C2010841
:104D800010C2010800C201082DE9F0431646642252
:104D900003F10C048FB00746884620461849ADF849
:104DA000042013F0AEF970B9336B23B1154A3221E8
:104DB00001A813F00DF901AA41463846FFF716FF86
:104DC0000FB0BDE8F08320460F4913F09AF904466E
:104DD000A0B9736B002BEED00125DFF83490736B14
:104DE00001A81B5DC5F1320128444A46013413F085
:104DF000EFF8102C05F10205F1D1DCE7034ADBE7FF
:104E000032C2010837C201083BC2010843C201088F
:104E100007D50108016000210273C0E90111704744
:104E2000F8B5054617460E4639B332B32049182067
:104E300007F0F6FE044608B3C0E9006700261D4BE4
:104E400000F108074361C0E9026606618021384627
:104E500007F0FAFDD4E90012384607F033FE144992
:104E6000082007F0DDFE90B16B68C0E9004603B989
:104E70006860AB6803B15860A860F8BD0E4808F0E0
:104E8000C9FD01213046BDE8F84007F0D5BE0B480A
:104E900008F0C0FD0A4A40F255110A4808F0BAFD70
:104EA0000121206807F0C8FE18212046EBE700BF6B
:104EB000EEE901088081828366D501089EC201085F
:104EC000BAC20108F1C2010870B54468054604B3CE
:104ED000266806F1080007F0BFFDD6E903239A42D1
:104EE000C4B216D16B681BB96A210B48FFF790F961
:104EF0006868082143686B6007F09EFE6B6803B921
:104F0000AB600121306807F097FE1821304607F0AA
:104F100093FE204670BD00BF0EB9010810B50446CF
:104F2000006810B1012107F087FE204610BD7FB553
:104F30000546FFF71AFA13F0F6F80446861C2846D1
:104F4000FFF715FA013803281DD8DFE800F0020644
:104F5000080F0734601C04B070BD0D34FAE7284612
:104F6000FFF74CFA13F0DFF83418F3E701A82946ED
:104F7000FFF70DFADDE9014301A81B1B06EB430413
:104F8000FFF7CCFFE6E70B34E4E700002DE9F0473C
:104F900086B08146884614461D46FFF745FE68B137
:104FA0002046FFF7C4FF4049074607F043FE064688
:104FB000C9F8000028B93D4808F02CFD06B0BDE84E
:104FC000F0872046FFF7D3F90138032864D8DFE8DB
:104FD00000F00214253D2046FFF7C7F98146204620
:104FE000FFF7C7F9324B334A002814BF1846104662
:104FF000CDE900902B46304A0AE02046FFF7B5F98C
:1050000081462046FFF7EDF92B46CDE900902B4A6B
:105010003946304612F0DCFF05463AE0612D204665
:105020000DD1FFF7A2F905462046FFF7E7F92B4619
:10503000234A00903946304612F0CAFFECE7FFF7EA
:1050400094F981462046FFF7D9F9D1E72046FFF7CA
:105050008CF92B4600901B4A3946304612F0B8FFB7
:10506000DFF868902146054603A8FFF790F9DDE9CF
:10507000034AA2450AD0AF4214F8013B06D9791B76
:1050800070194A4612F0A4FF0235F2E703A8FFF7B1
:1050900045FFC8F8005091E72046FFF766F92B4618
:1050A0000090094AC6E700BFEEE9010866D501088D
:1050B000D8C00108DDC0010852C201085AC2010867
:1050C00063C201086AC2010870C2010807D501085D
:1050D0002DE9F0430E4607469046D1B04FF49C723E
:1050E000002102A81D46589C12F06DF831463B463F
:1050F000424602A8FFF7D8FD3678622E00F0F9800C
:1051000029D83F2E54D008D82E2E5BD09DF80810F9
:105110007D4808F07FFC7D4A58E0532E00F0A180C6
:10512000612EF3D10DF1340979484A4605A908F0FA
:1051300071FC4F98002800F0D580FFF718F903287C
:1051400000F0AF802846734A2146FFF74FFD7248B2
:1051500008F060FC33E0722E48D00ED8642E3AD0AE
:10516000672ED3D105A96D4808F054FC33464F9AF9
:1051700021462846FFF70AFF21E0732E51D0772EF3
:10518000C4D1674808F046FC0399002900F0BA80B2
:10519000644812F0B6FF0646002840F0B38062482B
:1051A00008F038FC3146384600F050FF5F4AA4E072
:1051B0005F4808F02FFC21462846FFF7CBFD51B091
:1051C000BDE8F0835B4808F025FC5B4A2146284691
:1051D000FFF70CFDF3E70399584808F01BFC02ABFE
:1051E0003A4621462846FFF7CFFDE8E705A954488F
:1051F00008F010FC0399534812F083FF20B9384699
:1052000000F03AF9504AE1E74F993846FFF7FEFCC3
:1052100008B14E4ADAE74F9808B1FFF72FFB722327
:10522000A5E705A94A480DAA08F0F4FB4F993846AE
:10523000FFF7ECFC0028ECD14F9810B10DA9FFF757
:105240008DFC73234F9A21462846FFF79FFE216865
:10525000404808F0DFFB2868216808F041FC3E4820
:1052600076E705A93D480DAA08F0D4FB4F993846CA
:10527000FFF7CCFC0028CCD14F9810B10DA9FFF757
:105280006DFC2146284673234F9AFFF77FFE0121CC
:10529000384600F0DBFE324808F0BCFB01F03EF976
:1052A0008DE74F98FFF7AAF812F03DFF08F10106CD
:1052B00006442C49304607F0BDFC074690B14F9894
:1052C000FFF79CF8284A03463146CDF8009038464F
:1052D00012F07EFE39464F98FFF740FC0121384618
:1052E00007F0AAFC61234F9A21462846FFF7B0FC3D
:1052F000ADE71E4808F08EFB1D4A21462846FFF701
:1053000075FCC8E701214EE762C4010884C40108A6
:10531000B4C30108CDC30108D9C3010825C30108DE
:1053200015C401083DC4010843C4010860C4010854
:10533000FFC2010809C3010813C3010816C301080D
:1053400036C3010852B7010849C301084CC301081C
:1053500066C301087FC3010882C4010890C3010825
:1053600095C40108EEE90108EBC30108F0C3010888
:1053700013C401082DE9F0410C4680460D4815463E
:105380001E46069F08F046FB04B14DB90A4808F0D6
:1053900041FB39463046BDE8F041084AFFF726BCDC
:1053A000069733462A4621464046BDE8F041FFF7BE
:1053B0008FBE00BFC1C40108D6C40108E9C40108FA
:1053C0007FB504460D4600680C49164600F000FB08
:1053D00078B100F0E9FC03AB00933246294602ABFA
:1053E000FFF7C8FFDDE902122046FFF719FD04B000
:1053F00070BD034808F00EFBF9E700BF5BC301086E
:105400007FC2010810B10C2107F016BC704710B123
:10541000012107F011BC704730B513460D46044614
:10542000AC4207D01BB194E8070083E807000C33B7
:105430000C34F5E7184630BD10B5044638B1FAF71C
:1054400085FE2046BDE81040282107F0F5BB10BDC1
:1054500070B50446406AFFF7D5FFD4E90656AE4260
:1054600004D02846FAF772FE2835F8E7A06908B19B
:10547000FFF7E2FF204670BDF8B505460024282658
:10548000074FD5E906031B1ADB107B439C4205D26C
:1054900006FB0400FFF7F2F90134F2E7F8BD00BFA4
:1054A000CDCCCCCCF8B50446224808F0B3FA22485B
:1054B00008F0B0FAD4E90631994218D0C91A1F4E43
:1054C000C91071431E4808F0A5FA00252827D4E921
:1054D00006031B1ADB1073439D4205D207FB050030
:1054E000FEF798FF0135F2E7164808F093FAD4E981
:1054F0000931154EC91A89107143144808F08AFA07
:1055000000250C27D4E909031B1A9B1073439D4205
:1055100005D207FB050001F013F80135F2E70C484E
:1055200008F078FA0B4808F075FABDE8F8400A4828
:1055300008F070BAA9C501086EDC0108CDCCCCCC4E
:10554000B3C50108C5C50108ABAAAAAAFEC50108D2
:1055500082C401080EC6010827C601082DE9F043E0
:10556000002487B006466846CDE90044029407F05F
:1055700095F8684607F02AF94FF028082F4F304D6C
:10558000D6E906239B1ADB107B439C424ED208FBD4
:1055900004F302EB0309D35C002B43D14846FEF72A
:1055A000E4FE0146684607F003F94846FEF7DFFED1
:1055B000042837D8DFE800F03803101A24004846E2
:1055C000FEF7D7FE0146684607F0A8F850BBC22197
:1055D0002846FEF71DFE25E04846FEF702FF01467D
:1055E000684607F081F8E8B9C621F1E74846FEF7BA
:1055F00005FF0146684607F0DBF898B9CA21E7E7DE
:10560000494603A8FEF7C3FEDDE903126846521AB5
:1056100007F0A6F818B9CF212846FEF7F9FD039840
:10562000FFF7F5FE0134ABE7D321D1E7684607F079
:10563000F5F8029807B0BDE8F08300BFCDCCCCCC24
:105640000EB901082DE9F04305460E4600244FF03F
:1056500028081A4F8DB0D5E906239B1ADB107B432F
:105660009C4224D208FB042931461822684612F0D5
:1056700074FD4846FEF779FE182201460DEB020044
:1056800012F06BFD684608F04AFB684608F059FBCB
:1056900006A808F044FB06A808F053FB1822684649
:1056A0000DEB020112F047FD18B10134D3E74FF0C2
:1056B000000948460DB0BDE8F08300BFCDCCCCCC8E
:1056C0002DE9F04F06460F4600244FF00C09DFF895
:1056D0006C808DB0D6E909535B1B9B1008FB03F36C
:1056E0009C4224D218223946684612F036FD182210
:1056F00009FB04FB0DEB020055F80B1012F02DFD19
:10570000684608F00CFB684608F01BFB06A808F08A
:1057100006FB06A808F015FB182268460DEB0201EF
:1057200005EB0B0A12F007FD18B10134D2E74FF078
:10573000000A50460DB0BDE8F08F00BFABAAAAAA80
:1057400010B51446FFF77EFF20B12146BDE810409A
:10575000FFF704BA10BD0000F8B50C46064640F24B
:1057600001120021224811F02EFD4FF480722146D3
:105770001F4811F004FD1E491E4808F04BF91E4950
:105780001B4813F053FB1C490546002013F04EFB49
:10579000294607463046FFF755FFA0B9294630464F
:1057A000FFF78EFF044600B30168144808F032F991
:1057B000A3683846984701242046F8BD394610486A
:1057C00008F028F9F8E73A4629463046FFF7B8FFCF
:1057D00004460028F2D00B4808F01CF90A4808F0EB
:1057E00019F93046FFF75EFEE6E729460748E7E786
:1057F0002C0A00204DC60108ECE9010853C6010837
:105800007CC6010868C6010882C4010895C6010863
:1058100010B54FF4807204460649043007F0B6F81C
:10582000002805DD2046BDE810400249FFF794BF7F
:1058300010BD00BF2C09002038B514461D46FFF7E7
:1058400001FF28B12A462146BDE83840FFF72EB9AE
:1058500038BD10B51446FFF7F5FE20B12146BDE86E
:105860001040FFF783B810BD10B51446FFF7EAFEED
:1058700010B12146FEF78EFF002010BD38B514464A
:105880001D46FFF7DFFE28B12A462146BDE8384015
:10589000FFF77CB938BD00002DE9F04700248CB03B
:1058A000074603A8CDE90344059406F0F7FE214618
:1058B00003A8009407F00EF80146002834D02146D2
:1058C00003A806F090FF40F2E73304460093002659
:1058D0003546DFF8F890009BB34273D9214603A800
:1058E00006F0B3FF824600286CD1182321460DEB49
:1058F000030203A806F03AFF0444214603A806F079
:10590000B2FF8046B0B10CAA214642F828AD03A8E8
:1059100006F0CAFE029A044406A93846FFF799FF2A
:1059200000B101350136D6E76A4603A806F062FFEA
:105930000446CCE7214603A806F0DFFF70B10CAAAD
:1059400002F8288D214603A806F0D8FE9DF808200D
:10595000044406A93846FFF787FFE1E7214603A87C
:1059600006F09CFF804668B102AB01AA214603A85D
:1059700006F00DFFDDE90123044406A93846FFF7D0
:105980005BFFCDE7214603A806F07AFF90B10CAB90
:1059900043F8288D01AA214603A8CDF8048006F01B
:1059A000CEFE9DF808300444019A06A93846FFF758
:1059B00065FFB5E7039B4846195D01F0E00108F07B
:1059C00029F8AFE728460CB0BDE8F08738C50108D4
:1059D00008B5FFF737FE18B1BDE80840FEF7C9BCAF
:1059E00008BD10B5044608461146FFF72BFE0146D8
:1059F00020B9C4E90000A060204610BD2046FEF793
:105A0000C6FCF9E708B5FFF71DFE18B1BDE8084070
:105A1000FEF7E7BC08BD08B5FFF714FE18B1BDE8F6
:105A20000840FEF7EBBC08BD2DE9F0410E469DF89D
:105A30001840174698469DF81C50FFF7E3FF844234
:105A400005DCA84203DC88F80000BDE8F0810123F2
:105A500022463B70314606902B46BDE8F041014896
:105A600007F0D8BF10C501082DE9F0410E46BDF87A
:105A7000184017469846BDF81C50FFF7C3FF8442F4
:105A800005DCA84203DCA8F80000BDE8F081012392
:105A900022463B70314606902B46BDE8F041014856
:105AA00007F0B8BF10C501082DE9F0479946DDE9B8
:105AB000086788469246FFF7A5FF0023C517B04246
:105AC00075EB0303044607DB00238742AB4103DB8E
:105AD000C9F80000BDE8F0870123CDE908458AF840
