:020000040800F2
:100000000080002085FD0008090A0108153F00084E
:100010000B0A01080D0A01080F0A01080000000080
:10002000000000000000000000000000713900081E
:10003000110A010800000000013A0008453A0008D2
:10004000130A0108150A0108170A0108190A01080C
:100050001B0A01081D0A01089D090108A3090108DE
:10006000A9090108AF090108B50901081F0A01081B
:10007000210A0108230A0108250A0108270A0108A4
:10008000290A01082B0A01082D0A01082F0A010874
:10009000310A0108330A0108350A0108BB090108C1
:1000A000370A0108390A01083B0A01083D0A01081C
:1000B0003F0A0108410A0108430A0108450A0108EC
:1000C000470A0108490A01084B0A01084D0A0108BC
:1000D0004F0A0108E511010875160108510A0108C7
:1000E000DF090108890A0108530A0108550A0108B5
:1000F000570A010800000000000000000000000096
:1001000000000000000000005FF808F110B5054C89
:10011000237833B9044B13B10448AFF300800123B3
:10012000237010BD800400200000000008F00108CA
:1001300008B5034B1BB103490348AFF3008008BD6A
:10014000000000008404002008F0010808B50348FE
:100150000BF07CFBBDE8084011F0BCBA2DA30108F0
:1001600011F0B8BA10B50446C06910B101210AF007
:1001700099FC206910B101210AF094FC204610BDC1
:10018000F8B50025C0E901120570C0E90335C0E9E2
:100190000555C0E90755456206990446164600F123
:1001A0001C0704F0CBFA38B9314607480BF04EFB78
:1001B0002021064803F02AFE069A3946204604F01C
:1001C00085FA2046F8BD00BF4BA3010876A30108BD
:1001D000F8B50025C0E901120570C0E90335C0E992
:1001E0000555C0E90755456206990446164600F1D3
:1001F0001C0704F0BFF938B9314607480BF026FB5D
:100200002021064803F002FE069A3946204604F0F3
:100210009BF92046F8BD00BF4BA3010876A3010857
:100220002DE9F04100259DF81860C0E90112057024
:10023000C0E90335C0E90555C0E9075545623146B7
:100240000446174600F11C0804F094F838B9394602
:1002500007480BF0FBFA2021064803F0D7FD324691
:100260004146204604F074F82046BDE8F08100BF06
:100270004BA3010876A30108F0B5AFB008F09EFECD
:100280000146044612A809F09FF905F0AFFA0546A9
:1002900012A90CF081F804F111036B632134684B4F
:1002A0002C6308AC674A00930321674B2046FFF795
:1002B00067FF2146284605F03FFB2046FFF752FF27
:1002C0004FF41653614A00930221614B2046FFF719
:1002D0007FFF2146284605F02FFB2046FFF742FF0F
:1002E0000823012700265B4A009302215A4B20462F
:1002F000FFF76EFF2146284605F01EFB2046FFF75C
:1003000031FF564B564A00930321564B2046FFF7C8
:1003100037FF2146284605F00FFB2046FFF722FF56
:10032000514B524A00930321514B2046FFF728FFBF
:100330002146284605F000FB2046FFF713FF4D4BF2
:100340004D4A009303214D4B2046FFF719FF2146EC
:10035000284605F0F1FA2046FFF704FF484B494ACA
:1003600000930321484B2046FFF70AFF2146284609
:1003700005F0E2FA2046FFF7F5FE444B444A0097A9
:1003800002212046FFF724FF2146284605F0D4FA33
:100390002046FFF7E7FE3F4B3F4A3946009720468D
:1003A000FFF73EFF2146284605F0C6FA2046FFF734
:1003B000D9FE3A4B3A4A394600962046FFF730FFBD
:1003C0002146284605F0B8FA2046FFF7CBFE354B0C
:1003D000354A009602212046FFF7FAFE21462846BC
:1003E00005F0AAFA2046FFF7BDFE304B304A0096D2
:1003F00002212046FFF7ECFE2146284605F09CFA34
:100400002046FFF7AFFE28462A4B2B4A2B4905F022
:100410005BF906212A4B2B4A08932B4BCDE9051299
:1004200009932A4B07960A9305AB93E807008DE8DA
:1004300007000B9694E80F0005F076FC2FB0F0BD96
:1004400057A0010850A001083CA0010869A00108BC
:100450005BA0010885A0010870A0010839D101083E
:10046000CDA001088FA00108F9A00108FEA0010895
:10047000D8A0010854A101084DA1010804A1010858
:10048000C1A10108BBA1010862A10108CEA1010818
:1004900010A2010816A2010847A201084CA20108F7
:1004A00065A2010870A20108B1A20108BDA201085D
:1004B000F8A201086101000803A3010827A30108AD
:1004C0000903010800000808910201084D01000815
:1004D00007B5054B02A901F8010D012218680AF0C1
:1004E0004DF903B05DF804FB9C04002007B50B4DEB
:1004F0000B4E0C4C2B6842F210720DF1070118687C
:1005000001F0EAFC0128F5D13378002BF2D09DF8F8
:10051000071020460BF09AF9ECE700BF1C490020B9
:1005200004000020B7A30108A0F14103052B02D865
:10053000373840B27047A0F16103052B01D8573816
:10054000F7E73038C0B20928F3D94FF0FF307047D1
:100550002DE9F04F8BB005F063F9037833B15A48B9
:100560000BF074F94D21594803F050FC002205208E
:100570000121CDE9032001F031FB039018B91221CC
:10058000534803F043FC534B03AA1A600124002391
:10059000C822CDE900435049504801F0E9FF4FF42B
:1005A00096700AF079FA0546C8200AF075FA0746EF
:1005B00064200AF071FA0646C8200AF06DFA09951F
:1005C000474D4FF49671804605A828600AF0CFF891
:1005D00000F0C6F9214609F01FFE00F0E3F92146BC
:1005E00007F0A0FE3F480BF031F93F4810F0E8FD5E
:1005F00000F0D8F908F0B2F9DFF80491DFF804A1AF
:10060000C822394628680AF0EDF8002819DD4FF0B5
:10061000FF32002407F1FF3B1BF8011F01B3632CDD
:100620002AD80A291CD00D291AD02029F4D009294A
:10063000F2D00846FFF778FF002806DA2B480BF0C7
:1006400005F90A2002F000FBDAE7531C1FBF40EA5D
:10065000021030554FF0FF32013408BF0246DBE78D
:10066000013203D022480BF0F1F8EAE7012C01D166
:100670002048F8E7002CE4D01F480BF0E7F82146AB
:1006800030460BF049F948460BF0E0F800238AF8B1
:10069000003000F087F9C823E2B2314600934346A8
:1006A00008F032F9044600F07DF908F057F901230B
:1006B00012488AF800300BF0C9F8404621460BF08A
:1006C0002BF94846CFE700BFBCA30108DDA3010812
:1006D00032A401081C49002074A40108ED0400089C
:1006E0009C0400207FA40108D1040008D3A40108C1
:1006F000FAA4010826A5010839A5010845A50108A5
:100700003AB301080400002070470000F8B54FF02C
:1007100000470026184CD4E90223BB4208BFB2426E
:1007200027D005F013FE04F10805D5E9004513496B
:10073000621C45F10003097806F081FBB94208BF4D
:10074000B04204460D4614D008F038FC036E603009
:100750001B689847A04271EB05030ADB2946204637
:100760000AF0F4FF014606480BF070F8054B1878C4
:10077000F8BD054BFBE700BF080000202107002063
:10078000EEA50108334800203048002010B50020B5
:10079000002107F041F8044688B14179042905D0C9
:1007A00080290FD00B480BF051F801E000F0E8FE73
:1007B000204607F0CBFB082120460AF073F9064BD0
:1007C000187810BD054B02790168186804F0AEFB7B
:1007D000EEE700BF2CA601083048002024070020C7
:1007E00038B508F0EBFB054608F070FD034C60825D
:1007F000284608F05FFD208238BD00BF08000020B9
:1008000008B508480BF022F808F0D8FB036E6030FA
:100810001B689847044BC3E90201FFF7E1FF034B54
:10082000187808BD1CA601080800002030480020E8
:1008300038B5114C2368DB0708D404F0F1FF80229F
:1008400001460E4804F0D4F8012323600C4B0B4AF8
:100850001A60FFF7C5FF08F0B1FB05461C200AF03F
:10086000FFF8044605F1740108F01CF9054B1C6003
:10087000054B187838BD00BFA0040020C00600203A
:1008800024070020D00400203048002008B508F0DC
:1008900095FBBDE8084008F0CBBB000038B5114B14
:1008A0001878D8B9104CD4E90023B3F1004F08BF31
:1008B000002A14D008F082FB036E60301B68984752
:1008C000D4E90023821A61EB030314461D4600237A
:1008D000064AA242AB41B4BF0120002038BD01202E
:1008E000FCE700BF20070020480000204351010022
:1008F00008B50B4B1B685B680BB1012008BD094BA9
:100900001B78002BF9D1FFF7C9FF0028F5D1064B62
:10091000186803685B689847003018BF0120EDE74E
:1009200024070020B0040020D00400201FB561235C
:10093000CDE9013101A9039205F022FD05B05DF872
:1009400004FB07B58DF8041001A98DF805208DF87A
:10095000063005F0D5FD03B05DF804FB08F02EBBB2
:1009600038B50C4C2368DB0712D408F027FB05468A
:1009700008F024FB05F1480100F15802064809F08F
:1009800087FB0123054A06490348236015F04DFA09
:10099000014838BDA8040020D40600200000002033
:1009A0000907000810B5074C2368DB0708D4FFF7D8
:1009B000D7FF00F11C01044807F072FC01232360FB
:1009C000014810BDAC040020000700202DE9F04FC5
:1009D00091B008F0F3FA044607F0DAFF204607F07A
:1009E000EDFFFFF749FCFA2002F02EF904F018FFA2
:1009F000054604F00DFB284606F0DEFFB9492846FF
:100A000004F0B6FDB84CB9492060284604F0B0FDAA
:100A1000082804D0092802D0072840F05581002674
:100A2000A060B349284604F0ACFD07460146B14832
:100A300017F030FD002840F04C810523E360AE49FB
:100A4000284604F09EFD07460146AC4817F022FDFB
:100A5000002840F0BA81452363600E234FF001085F
:100A6000237484F8118084F81280FFF79BFF81467D
:100A70009D4C04AF0FCC0FC7D4F800C004AF09F1F0
:100A80000C040FCF0FC49E49C4F800C0284604F0E0
:100A900078FD044601469B4817F0FCFC002840F016
:100AA000A781C9F804009849284604F061FD431E57
:100AB000022B014640F2A98194480AF0C7FE0126A4
:100AC0009349284604F05DFD924B10AA186000235C
:100AD00009A942F8343D0AF09FFC039919B18E48E8
:100AE0000AF0B4FE01268D49284604F041FDB0F518
:100AF000616F00F290818A4BC117C3E900018949F7
:100B0000284604F035FDB0F5616F00F28A81864B0E
:100B1000C117C3E90001002E40F08781284600F08C
:100B2000DBFE04F07DFE814904F008FD08B1FFF70B
:100B30000FFD7F480AF08AFE08F040FA7D4D064618
:100B40002B687D4C13F0010F04D105F0FFFB01234E
:100B500020602B6006F16001206805F0C3FA206870
:100B6000764905F0C1FA6B4B25681A68744909A8E3
:100B700005F0A2FA09A9284605F0F8FA714D724A63
:100B8000287072492068FFF7D1FE714A8DF806007F
:100B900070492068FFF7CAFE8DF80700206806F04C
:100BA00091FB6D4A81466D492068FFF7BFFE6C4A94
:100BB00083466C492068FFF7B9FE6B4B82466B4A4F
:100BC0006B49206807F0CCF86A4A06466A492068F3
:100BD000FFF7ACFE694A8DF8050069492068FFF708
:100BE000A5FE2A7880466749206806F0ADFC0746D6
:100BF000654D20689DF806302A7880F828309DF8E9
:100C000006109DF80730FFF79CFE4B462A789DF8AA
:100C100007102068FFF795FE5C4A5B46494620684E
:100C20001278FFF78EFEDFF8789133462A7859461E
:100C30002068FFF786FE33462A789DF80510206865
:100C4000FFF77FFE9DF8053099F8002031462068B7
:100C5000FFF777FE43462A7831462068FFF771FE9A
:100C60004B4A5346414620681278FFF76AFE3B46DE
:100C70002A7841462068FFF764FE9DF8053099F810
:100C8000002039462068FFF75CFE2E4A534639465D
:100C900020681278FFF755FE5B462A785146206897
:100CA000FFF74FFE206805F0E1FD3A480AF0CEFD5F
:100CB00001224FF4FA71206805F072FD002001F066
:100CC00045FD11B0BDE8F08F33480AF0BFFD0126A5
:100CD000A7E63946314817F0DDFB002862D10A2328
:100CE000ACE600BF69A001083000002085A0010823
:100CF000CDA0010877A60108FEA00108B5A601084D
:100D000050A0010857A0010810A201080BA7010874
:100D10004DA10108C804002041A70108B1A20108A3
:100D2000C0040020F8A20108B804002013A801089C
:100D30001EA80108A4040020D00600208D08000889
:100D40003BA80108210700203108000896BF0108D0
:100D50001D0F000840A80108750E00084BA80108E7
:100D60000108000856A801080D110008F108000844
:100D70005DA801088D07000820BE01080D070008C6
:100D80006AA801086BBF01083048002034480020E1
:100D90003348002074A8010852A6010839D101087F
:100DA000F94800203946254817F074FB08B90F238D
:100DB00044E63946224817F06DFB08B914233DE696
:100DC00020480AF043FD012639E639461E4817F04F
:100DD00061FB08B94F233FE639461C4817F05AFB20
:100DE00008B94E2338E61A480AF030FD012634E6E9
:100DF0002146184817F04EFB10B9C9F8048052E696
:100E000015480AF023FD46464DE6144B1870144869
:100E10000AF01CFD54E6014612480AF017FD0126AF
:100E20006DE6014610480AF011FD10480AF00EFD6B
:100E30004FF404710E4802F0E9FF6FE67BA601084B
:100E400081D101087FA60108BAA60108F9A001080E
:100E5000BEA601084AA00108E7A60108CC040020AC
:100E60002AA701085CA7010887A70108B1A7010804
:100E7000C4A7010813B5224C20680368DB699847B2
:100E800008F09CF8036E60301B6898471D4BC3E95F
:100E900000010AF05BFC01461B480AF0D7FCFFF793
:100EA0005FFD012109F0B8F9FFF77CFD012107F092
:100EB00039FAFFF755FD154B1C30D3E90023CDE976
:100EC0000023134BD3E9002300F01EFC206800F040
:100ED00069FAFFF767FD002107F024FAFFF740FDEC
:100EE000002109F099F9206803685B68984710B9F8
:100EF0000122084B1A70084B187802B010BD00BFD1
:100F0000D0040020080000208EA80108B8040020AA
:100F1000C0040020200700203048002013B5FFF750
:100F20005FFC18480AF092FCFFF71AFD012109F056
:100F300073F9FFF737FD012107F0F4F9FFF710FD12
:100F4000114B124CD3E90023CDE90023104B1C3088
:100F5000D3E9002300F0D8FB206800F023FAFFF764
:100F600021FD002107F0DEF9FFF7FAFC002109F06E
:100F700053F920680368DB699847064B187802B07C
:100F800010BD00BFA2A80108B8040020D0040020B2
:100F9000C0040020304800202DE9F04FB2F5827FD8
:100FA000C9B0074689469246049303D9952155480E
:100FB00002F02CFF40F20513534528BF53464FF073
:100FC00000440593002300264FF00108CDE90234C8
:100FD0003B6838465B689847002800F08E803B6885
:100FE000059A1B6906A9384698470528044607D87C
:100FF00045480AF02BFC3B6838469B699847E7E771
:101000000DF119009DF818500AF035FDCDE90001E9
:10101000E1B28C1F042DE4B22ED80539C9B24B1DA4
:10102000DBB2B8F1000F42D0529A9A4515702DD319
:10103000062D26D8DDE90023484602910AF049FD35
:1010400080460299AAEB08038B421DD3033D012D74
:1010500094BF0125002509EB0800284498BF09F832
:10106000084022460DF11E0116F02DFB2544EDB27D
:10107000A8445FFA88F80BE0072D2146CFD123461C
:10108000CFE74FF00008DDE70025F1E74FF000085B
:101090003B6838469B699847049B46449E422CD245
:1010A000DDE900344FF00008CDE9023490E7049AFE
:1010B0008B19934221D8529B1B78AB421DD1DDE99D
:1010C0000223DDE900BC634508BF5A4515D1049BE6
:1010D0009B1B9942DCD8033D012D98BF4FF00108BE
:1010E00009EB0600404498BF09F8064022460DF17E
:1010F0001E0116F0E8FAA044BBE7304649B0BDE84F
:10110000F08F00BFC4A70108D5A501082DE9F04163
:101110004F4E88B004460D46DE22314604A809F041
:1011200002FC00234B4F8DF80E303B68D3F804804F
:10113000B8F1000F0FD048480AF088FB0DF10F03FB
:101140002A463146386803F0A3FC9DF80F3026602C
:101150006371207119E0414E3778CFB140480AF0F1
:1011600075FB404A404913680968C91A8D4228BF77
:101170000D464FF0050161713C4928BF86F800809B
:1011800019442B4421602571136008B0BDE8F0813B
:10119000FFF784FB00283ED035480AF057FB07F0E4
:1011A0000DFF036E60301B689847324DC5E90001A2
:1011B000012104A809F0E2FB012104A809F0DEFBEB
:1011C000394604A809F0DAFB2B4B197809B1012143
:1011D0001F702A4E04A809F0D1FBB6F9121004A81A
:1011E00009F0FCFB318A04A809F010FCD5E90023C2
:1011F00004A809F0FFFB224B04A8197809F0BEFBF4
:1012000004A809F0C6FB054604A809F0C4FB0123A5
:10121000256063719DE71B480AF018FB134F0DF121
:101220000E03194800934FF482722B46394600682A
:10123000FFF7B2FE0C4B854218609DF80E30276018
:10124000637186D2074B25711D60012333709CE7C3
:10125000DC0400202407002050A50108B004002071
:1012600076A50108D8040020D4040020BA05002087
:101270009AA501084800002020070020080000204F
:10128000CC040020B7A50108D0040020F7B507F072
:1012900095FE0F25044640F6C13708F00BF81D4EA9
:1012A000B8420CDC014630460AF0D0FA4FF47A70AE
:1012B0000EF0CCFF204607F0FDFF013DF0D1236882
:1012C00020469B689847FFF74BFB0146204607F0F6
:1012D000A5FB204607F05CFB204607F081FE0024BA
:1012E00001234FF496720C49CDE900340B48234694
:1012F00001F03EF90A480AF0A9FA0A480AF0A6FAEB
:1013000001F010FB4FF41471074802F07FFD2046F6
:1013100003B0F0BDDBA8010815A90108CD0900083C
:101320001EA9010831A90108C4A7010810B5044687
:101330002C2109F0B7FB204610BD0000FF22014B15
:101340001A7070472107002010B50446006801F0AC
:101350002FF8204610BD000007B5074B8DF8070099
:10136000186830B1012300220DF10701006800F078
:101370000FFD03B05DF804FB38070020034630384A
:10138000C0B209280DD9A3F14102052A02D8373B82
:10139000D8B27047A3F16102052A01D8573BF7E79D
:1013A000FF2070472DE9F04F6D4CD5B04FF4967289
:1013B000074609A905A809F0B6FA23685A681B6808
:1013C0009A4205D167480AF041FA55B0BDE8F08F5E
:1013D000FFF7E8FA012106F0A5FF2368624D5A687D
:1013E0001E680392039B9E4200F0B3802B7856F850
:1013F000044B012B03D1032105A809F0BFFA2B7878
:10140000022B7BD1062105A809F0B8FA574B05A895
:10141000D3E9002309F0EEFA217955480AF016FACB
:10142000217920680AF078FA52480AF00FFAFFF79B
:10143000B9FA804605A8D4F8009094F804A009F001
:10144000B3FA834605A809F0ABFAFF285AD805A8D5
:1014500009F0A6FAC0B25B465246494600904046A3
:1014600007F052FA81460146804643480AF0EEF9F9
:1014700005A809F099FA49460AF04EFA3D480AF0E3
:10148000E5F92B78023B012B0ED805A894F80480CF
:10149000D4F800B009F088FAB8F1050F824633D8C5
:1014A0004FF000085FFA88F8414605A809F080FA75
:1014B0002B78012B11D12379032B45D902222168E6
:1014C00005A8114409F03CFA237905A8052B8ABF29
:1014D00023680021597909F051FA3B6805A89C68F6
:1014E00009F059FA09A902463846A04710B923481D
:1014F0000AF0ACF905A809F050FA73E7032B85D17F
:10150000072180E7FF20A6E7B9F1020FC8D94146BD
:10151000584606F0A7FE431EDBB2F92BC0D89AF955
:1015200001308046002B05DA0246FF21504616F0B6
:10153000EEF8B7E7C31C9945B2D302460AF103019E
:10154000504616F0CBF8ADE7002105A809F05EFA89
:10155000BAE7FFF727FA002106F0E4FE35E700BFFF
:101560002C07002062A90108CC04002008000020FC
:1015700089A901083AB301089CA90108ABA901088F
:101580002DE9F04FD5B0044604F04AF9554903F06F
:10159000D5FF28B954480AF059F955B0BDE8F08F85
:1015A000FFF7DCF9036E60301B6898474FF49672C2
:1015B000CDE9020109A905A809F0B5F9267927683E
:1015C00031464A480AF042F9314638460AF0A4F951
:1015D00047480AF03BF9FFF7C3F9012108F01CFE68
:1015E000FFF7E0F9012106F09DFE0025DFF81491D8
:1015F000B54207D26C1C7D5DE4B2022D0DD83D488A
:101600000AF024F9FFF7CEF9002106F08BFEFFF770
:10161000A7F9002108F000FEBFE7321BD2B29542C5
:1016200004D9294634480AF011F9EBE7042105A84A
:1016300009F0A4F9DDE9022305A809F0DBF9FFF7B9
:10164000B1F9824605A809F0AFF9834605A809F06B
:10165000A7F9FF2807EB04081FD805A809F0A0F98F
:10166000C0B25B462A4600904146504607F04CF90E
:101670008246014621480AF0E9F8514605A809F0DA
:1016800097F9032D0BD0A11C0222394405A809F0BB
:1016900057F9052D08D8002108E0FF20E1E70021D7
:1016A00005A809F0B3F9F6E798F8051005A809F0C0
:1016B00065F9134B05A8D3F80080D8F80030D3F8AB
:1016C00008A009F068F909A902464046D04710B9B8
:1016D00048460AF0BBF82C4405A8E5B209F05DF9CC
:1016E00086E700BF47A2010814AB01086AAB0108F6
:1016F0003AB301087AAB0108AFAB0108F5AB0108BA
:10170000D004002003AC01082DE9F74F1D46484BDB
:1017100014461A68824612F00102984614D101213B
:10172000444E08463260716000F058FA306018B9D3
:101730001221414802F06AFB0123404A40493D48DA
:10174000C8F8003014F071FB3E4B1A680AB9394AE8
:101750001A6054EA050303D0DDE90C23134304D1D6
:1017600039480AF073F801205AE0294620460AF069
:1017700003F88046DDE90C0109F0FEFF2D4E02461C
:10178000414632480AF062F800220DF10701306844
:1017900000F0A2FBFFF7E2F8026E6030126890479B
:1017A0004FF47A7BDAF80020804652695046894629
:1017B00027499047DAF800205046DFF8A8A0126ABF
:1017C000002190470AFB04F20DF10701B2FBFBF286
:1017D000306800F081FB0128374626D11D480AF009
:1017E00035F80C9B0AFB03F6B6FBFBFB5A460DF1E2
:1017F0000701386800F070FB012814D1FFF7AEF83C
:10180000036E60301B689847B0EB080261EB090378
:10181000944275EB0303E9DA0F480AF017F8002049
:1018200003B0BDE8F08F0D489BE70D4899E700BF76
:10183000280700203007002032A401080000002003
:10184000491300083807002037AC010857AC0108DD
:101850005913000889AC010897AC0108B6AC01081F
:10186000C5AC010840420F00F8B504460E46D0E969
:10187000002180688B1A9B100133091AB3EBA10F6A
:101880004FEA83070CD83A4462606FF04043216806
:1018900062683068521A03EBA20341F82300F8BDD6
:1018A00038460AF06FF8054618B96921094802F070
:1018B000ADFAD4E900128A4203D0521A284615F034
:1018C0000DFF20680AF048F825603D44C4E9015541
:1018D000DBE700BFE1AC01082DE9F04F0446C5B0DD
:1018E0000C2009F0BDF800254D4FC0E9005585607A
:1018F00038604C49204603F044FE4FF0010883460F
:1019000081462C46DFF840A119F8016BB8F1000FB1
:101910000BD12C2E00D066B9A9EB0B01424809F07F
:1019200095FF2821504602F071FA2C2E2FD0002E60
:1019300054D03046FFF722FDFF280346A9EB0B02E7
:1019400009D100903146394809F080FF42215046C4
:1019500002F05CFA009BFF2C08D13548009309F097
:1019600075FF4621504602F051FA009BB8F1000F76
:1019700004D01D01EDB24FF00008C5E71D43EDB2E4
:10198000631C04AA15554FF00108DCB2BCE71CB378
:101990002849204609F082F8034640B900902648BD
:1019A00009F054FF3021504602F030FA009B04A9A0
:1019B00018462246019315F086FE3A6808200092E8
:1019C00009F04EF8019B009A03600471039003A98B
:1019D0001046FFF749FF1EB1002495E7002CD7D130
:1019E0003B68164859681B68154EC91A891009F0DA
:1019F0002DFF3B68134FD3E9004844450CD054F801
:101A0000045B384609F022FF2868297909F084FF31
:101A1000304609F01BFFF0E745B0BDE8F08F00BF8E
:101A20002C070020BBA10108D6A9010878AA01084B
:101A3000B0AA010809ED010863AA0108D8AA0108A3
:101A40003AB301080CAB010812AA010810B504460C
:101A500001F0A0FFA46B01F0BDFFB4FA84F04009CF
:101A600010BD70B51546026C0446866B42B9056818
:101A70009DB9806801F032FBA5600136A66370BD98
:101A80006DB9406815F01FFE6368226C1344A268AC
:101A90006360934201D3236863600020EDE7C06870
:101AA00015F011FE236CE2685B4221681A448A42F9
:101AB000E2603EBFA2689B18E360022DEDD10EB13B
:101AC000013EEAE73046D8E703461A6C10B40846F0
:101AD00062B1D9689C681144A142D96028BF1968D5
:101AE00010BC28BFD960D96815F0EDBD10BC704797
:101AF00070B5044601F04EFF94F8455004F12406F9
:101B00006DB2002D14DCFF2384F8453001F062FF34
:101B100001F040FF94F8445004F110066DB2002D1E
:101B200012DCFF2384F84430BDE8704001F052BF5E
:101B3000636A002BE7D0304601F0A2F908B101F04A
:101B400021FA013D6DB2DCE72369002BE9D0304674
:101B500001F096F908B101F015FA013D6DB2DEE72A
:101B600038B50D46044620B940F20311194802F079
:101B70004DF901F00FFFD4E90F314B432268D01823
:101B80005B1A1344A060E3600020FF23A06362603F
:101B900084F8443084F8453095B9236963B104F181
:101BA000100001F06DF938B14FF080520A4B1A6005
:101BB000BFF34F8FBFF36F8F01F00CFF012038BDD3
:101BC00004F1100001F050FE04F1240001F04CFE7D
:101BD000F2E700BF21AD010804ED00E0F8B50D46C5
:101BE0001746064620B94FF4BB710D4802F00EF9B6
:101BF00005FB06F0503002F007F8044648B155B92D
:101C00002060C4E90F6501212046FFF7A9FF84F891
:101C10004C702046F8BD00F150030360F1E700BFAF
:101C200021AD01082DE9FF47884601921E46044672
:101C300020B940F2F1214B4802F0E8F8B8F1000F6A
:101C400006D1236C23B140F2F221464802F0DEF8BF
:101C5000022E07D1E36B012B04D040F2F32141485F
:101C600002F0D4F801F0D8F930B9019B23B140F269
:101C7000F6213C4802F0CAF80027B946DFF8E8A090
:101C800001F088FEA26BE36B9A4201D3022E19D1B8
:101C9000324641462046FFF7E4FE636A1BB104F179
:101CA000240001F0EDF838B14FF080522E4B1A604D
:101CB000BFF34F8FBFF36F8F01F08CFE012004B094
:101CC000BDE8F087019D1DB901F084FE0020F6E714
:101CD00017B902A801F014F901F07CFE00F062FED1
:101CE00001F058FE94F84430FF2B08BF84F844906C
:101CF00094F84530FF2B08BF84F8459001F06AFE48
:101D000001A902A801F008F928BB01F043FEA26B6B
:101D1000E36B9A420ED101F05DFE019904F11000CF
:101D200001F074F82046FFF7E3FE00F0D9FE48B159
:101D30000127A5E701F04EFE2046FFF7D9FE00F08F
:101D4000CFFEF5E74FF08053CAF80030BFF34F8F56
:101D5000BFF36F8FECE72046FFF7CAFE00F0C0FE2E
:101D6000B4E700BF21AD010804ED00E010B5024664
:101D700000210120FFF732FF044638B100238360C1
:101D80000360C3601A461946FFF74CFF204610BD9A
:101D90002DE9F843894690461F46044620B940F293
:101DA000C331274802F032F8B9F1000F06D1236C95
:101DB00023B14FF47171224802F028F8022F07D1A5
:101DC000E36B012B04D040F2C5311D4802F01EF830
:101DD00001F0BAFEEFF311864FF0500383F3118840
:101DE000BFF36F8FBFF34F8FA26BE36B9A4201D3A8
:101DF000022F22D194F845503A466DB2494620460A
:101E0000FFF72FFE6B1C13D1636A0BB901200BE0A7
:101E100004F1240001F034F80028F7D0B8F1000FE5
:101E2000F4D00120C8F8000086F31188BDE8F883DB
:101E300001356DB284F84550E8E70020F4E700BFB3
:101E400021AD010870B50D46044620B94FF48C61F0
:101E5000204801F0DBFF236C23B140F264411D48B0
:101E600001F0D4FF236833B9A36823B140F269417C
:101E7000184801F0CBFF01F067FEEFF311864FF039
:101E8000500383F31188BFF36F8FBFF34F8FA26BA3
:101E9000E36B93421CD994F8453001325BB2A263E4
:101EA0005A1C10D1636A0BB9012009E004F1240027
:101EB00000F0E6FF0028F7D0002DF5D001202860C3
:101EC00086F3118870BD01335BB284F84530EBE7CF
:101ED0000020F5E721AD01082DE9F04385B00F465C
:101EE0000192044620B94FF4A061424801F08EFFF0
:101EF00037B9236C23B140F204513E4801F086FF0C
:101F000001F08AF830B9019B23B140F209513948F8
:101F100001F07CFF0026B046DFF8DC9001F03AFDCE
:101F2000A56BD5B139462046013DFFF7CDFDA56330
:101F3000236963B104F1100000F0A2FF38B14FF043
:101F400080522D4B1A60BFF34F8FBFF36F8F01F09C
:101F500041FD012005B0BDE8F083019D1DB901F0F0
:101F600039FD0020F6E716B902A800F0C9FF01F01C
:101F700031FD00F017FD01F00DFD94F84430FF2B0A
:101F800008BF84F8448094F84530FF2B08BF84F8DC
:101F9000458001F01FFD01A902A800F0BDFFF0B9C6
:101FA0002046FFF753FDA0B1019904F1240000F091
:101FB0002DFF2046FFF79CFD00F092FD38B94FF051
:101FC0008053C9F80030BFF34F8FBFF36F8F0126E6
:101FD000A4E72046FFF78CFD00F082FDF7E72046DE
:101FE000FFF786FD00F07CFD2046FFF72FFD00285F
:101FF000EDD0B6E721AD010804ED00E02DE9FF4189
:102000000446019120B940F29151524801F0FEFE80
:10201000236C23B140F295514E4801F0F7FE00F0D9
:10202000FBFF30B9019B23B140F29A51494801F0BE
:10203000EDFE00252F462E46DFF81C8101F0AAFC9C
:10204000A36BE3B1013BA363236813B901F0E6F886
:10205000A060236963B104F1100000F011FF38B1F2
:102060004FF080523C4B1A60BFF34F8FBFF36F8F1E
:1020700001F0B0FC0125284604B0BDE8F081019BC9
:102080004BB925B140F2E151324801F0BFFE01F0F9
:10209000A1FC0025EFE717B902A800F031FF01F01D
:1020A00099FC00F07FFC01F075FC94F84430FF2BA4
:1020B00008BF84F8446094F84530FF2B08BF84F8CB
:1020C000456001F087FC01A902A800F025FF40BB94
:1020D0002046FFF7BBFCF0B123683BB901F05AFC86
:1020E000A06800F0A9FF054601F074FC019904F115
:1020F000240000F08BFE2046FFF7FAFC00F0F0FC15
:1021000038B94FF08053C8F80030BFF34F8FBFF39A
:102110006F8F012792E72046FFF7EAFC00F0E0FC12
:10212000F7E72046FFF7E4FC00F0DAFC2046FFF773
:102130008DFC0028EDD0002D9DD001F02BFC616AB4
:1021400019B1236B1968C1F10501A06801F012F8FB
:102150009DE700BF21AD010804ED00E02DE9F0434B
:1021600085B00F460192044620B94FF4CD61424834
:1021700001F04CFE37B9236C23B140F26C613E484C
:1021800001F044FE00F048FF30B9019B23B140F25A
:102190007161394801F03AFE0026B046DFF8DC9064
:1021A00001F0F8FBA36BD3B139462046E568FFF791
:1021B0008BFC636AE56063B104F1240000F060FE0B
:1021C00038B14FF080522D4B1A60BFF34F8FBFF3E1
:1021D0006F8F01F0FFFB012005B0BDE8F083019D8A
:1021E0001DB901F0F7FB0020F6E716B902A800F0D0
:1021F00087FE01F0EFFB00F0D5FB01F0CBFB94F87C
:102200004430FF2B08BF84F8448094F84530FF2BFE
:1022100008BF84F8458001F0DDFB01A902A800F0A9
:102220007BFEF0B92046FFF711FCA0B1019904F143
:10223000240000F0EBFD2046FFF75AFC00F050FCB4
:1022400038B94FF08053C9F80030BFF34F8FBFF358
:102250006F8F0126A4E72046FFF74AFC00F040FC00
:10226000F7E72046FFF744FC00F03AFC2046FFF772
:10227000EDFB0028EDD0B6E721AD010804ED00E04C
:102280002DE9F84389469046054620B940F2FB61A6
:10229000204801F0BBFDB9F1000F06D12B6C23B132
:1022A00040F2FC611B4801F0B1FD01F04DFCEFF381
:1022B00011874FF0500383F31188BFF36F8FBFF383
:1022C0004F8FAC6B1CB395F84460494676B22846F4
:1022D000FFF7FAFB013C731CAC6313D12B690BB9FC
:1022E00001200BE005F1100000F0CAFD0028F7D036
:1022F000B8F1000FF4D00120C8F8000087F311886E
:10230000BDE8F883013676B285F84460E8E72046F8
:10231000F4E700BF21AD010810B5044620B940F232
:102320008A71054801F072FD01F034FBA46B01F0E5
:1023300051FB204610BD00BF21AD010838B5054650
:1023400020B940F2A471064801F060FD01F022FBC3
:10235000A86BEC6B241A01F03DFB204638BD00BF92
:1023600021AD0108002330B5064A52F8335002EB84
:10237000C3041DB942F83310606030BD0133052B32
:10238000F3D1FAE76C520020002310B5074A02EBA4
:10239000C3014C68844204D1002042F833004860F5
:1023A00010BD0133052BF2D1FAE700BF6C520020BB
:1023B00010B5044620B94FF4F861054801F026FD38
:1023C0002046FFF7E1FF2046BDE8104001F0AEBC1B
:1023D00021AD010870B504460D46164601F0DAFA43
:1023E00094F84430FF2B04BF002384F8443094F861
:1023F0004530FF2B04BF002384F8453001F0EAFA92
:10240000A36B2BB93246294604F1240000F018FDD5
:102410002046BDE87040FFF76BBB0000064A13681A
:102420001968064B19B94FF0FF321A6070471268ED
:10243000D268D2685268F8E740070020F007002011
:1024400010B5044620B940F2F261084801F0DEFC04
:102450006269074B9A4207D1A06A064B984203D0A3
:10246000B0FA80F0400910BD0020FCE76DAD010816
:1024700010080020F8070020F8B51B4B1B4E1C6805
:10248000054630680F46043001F01FFA334640B964
:1024900001203168164EC96A3268884022EA00027B
:1024A00032606A1C07D137B1196812480431BDE89F
:1024B000F84001F0E7B91A686419546007D30E4A6E
:1024C00010681968BDE8F840043101F0E7B90B4A1B
:1024D00010681968043101F0E1F9094B1A68A24249
:1024E00088BF1C60F8BD00BF380800203C070020F2
:1024F000C0070020100800204407002040070020EB
:10250000F007002080B5DFF86480144F144C154E9E
:10251000236863B9144B1B68012BF8D94FF0805323
:10252000C8F80030BFF34F8FBFF36F8FEEE701F0B5
:1025300031FAFB68DD68281D01F0C7F93368013BFB
:1025400033602368013B236001F044FA286B01F0FB
:10255000EDFB284601F0EAFBDAE700BF2408002083
:10256000B0070020AC0700204807002004ED00E081
:102570002DE9F84F4FEA820A804650460D469946AB
:102580000B9E01F041FB0746002800F0AB805C2069
:1025900001F03AFB0446002800F0A180076325B94A
:1025A0004FF45871564801F031FC5246A521206B7A
:1025B00015F0ADF8236BAAF1040A9A442AF0070A31
:1025C0006B1E04F134020F3513F8011F02F8011BD2
:1025D000197809B1AB42F7D10A9D4FF0000B042DD9
:1025E00028BF0425271DE562C4E9135B384684F83B
:1025F00043B001F044F9C5F1050504F1180001F0FC
:102600003EF9C4F854B02461A561646284F858B0FE
:102610004A464146504601F097F9206006B13460C1
:1026200001F0B8F9374B384E1A68DFF818810132DB
:102630001A603268002A58D134601B68012B25D1FA
:10264000324801F011F9324801F00EF9314801F039
:102650000BF9DFF8F490304801F006F92F4D3048BF
:1026600001F002F9484601F0FFF8284601F0FCF8B5
:102670002C4801F0F9F82C4801F0F6F82B4801F04D
:10268000F3F82B4BC3F800902A4B1D6001252A4A12
:102690002A491368086801331360E26A636405FA23
:1026A00002F3034314200B60184B394600FB023041
:1026B00001F0E8F801F08EF9D8F8003063B1336822
:1026C000DA6AE36A9A4207D24FF080521C4B1A60D2
:1026D000BFF34F8FBFF36F8F2846BDE8F88F3846A2
:1026E00001F024FB4FF0FF35F6E7D8F80030002B5F
:1026F000CCD13368DA6AE36A9A4298BF3460C5E79E
:102700006DAD0108AC0700203C0700204807002001
:102710005C0700207007002084070020D8070020F5
:1027200098070020F8070020240800201008002047
:102730004007002044070020BC070020C0070020FD
:1027400004ED00E00C080020C407002070B504462A
:10275000284D01F01FF904B92C68261D304601F000
:10276000B4F860B91421E06A234B41435B5833B994
:102770000122224982400B6823EA02030B60A36A0C
:102780001BB104F1180001F0A0F81D4A13680133D1
:1027900013602B68A34220D131461A4801F072F829
:1027A000194A13680133136001F014F9174B1B68C1
:1027B00093B12B68A3420FD1154B1B6823B140F294
:1027C000B641144801F022FB4FF08052124B1A60C0
:1027D000BFF34F8FBFF36F8F70BD104A206B13682C
:1027E000013B136001F0A2FA204601F09FFAFFF7C7
:1027F00015FED9E73C07002048070020C00700204D
:10280000BC07002024080020B00700200C0800208E
:10281000B80700206DAD010804ED00E0AC07002012
:10282000F8B5054620B940F24C51174801F0EEFAD0
:10283000164B1B68AB4220D001F0ACF8144B6C690E
:102840001F68144B1E6801F0C5F8BC4217D0B44293
:1028500015D0114B9C4208D1AB6A83B995F858301A
:10286000012B0CBF02200320F8BD0C4B9C4208D06A
:10287000002C0CBF04200120F6E70020F4E7022022
:10288000F2E70420F0E700BF6DAD01083C0700202F
:1028900040070020440700201008002024080020E2
:1028A00070B5044620B940F21C71194801F0AEFA27
:1028B000184D2B68A34229D044B301F06BF8204691
:1028C000FFF7BEFDF0B1261D304600F0FEFF0123EC
:1028D0001149E26A08689340034314200B600F4BD0
:1028E000314600FB023000F0CDFF2B68E26ADB6A64
:1028F0009A4207D34FF08052094B1A60BFF34F8FB3
:10290000BFF36F8FBDE8704001F064B870BD00BFC9
:102910006DAD01083C070020C007002048070020DB
:1029200004ED00E013B50024174B009401935022EE
:10293000234616491648FFF71BFE012818D100F060
:102940000BFE012814D14FF0500383F31188BFF31D
:102950006F8FBFF34F8F4FF0FF320E4B1A600E4B4D
:1029600018600E4B1C6002B0BDE8104001F092B838
:10297000013007D140F60401094802B0BDE810401B
:1029800001F044BA02B010BDEC070020B9AD010857
:1029900005250008F00700200C080020380800205A
:1029A0006DAD0108024A136801331360704700BF20
:1029B000B8070020014B1868704700BF3808002096
:1029C0002DE9F84F3A4B1B68002B6AD1394B1C6834
:1029D00001341C609CB9384D2B681B6823B140F64C
:1029E0006221364801F012FA354B2A6819682960CD
:1029F0001A60344A136801331360FFF70FFD324D3C
:102A00004FF0000B2B68314FA34211D93A68304B7D
:102A1000D16A14224A439A58022A28BF4FF0010B68
:102A20002C4A1268002A0CBF58460120BDE8F88FD6
:102A3000DFF884A0DFF8A490DAF8002012681AB951
:102A40004FF0FF322A60E1E7DAF80020D268D6685A
:102A500071688C4201D22960D8E706F1040840462B
:102A600000F033FFB16A19B106F1180000F02DFF34
:102A700001224FF0140CF06AD9F8003002FA00F18C
:102A80001943134BC9F800100CFB0030414600F00D
:102A9000F9FE3868F16AC26A914228BF4FF0010B13
:102AA000CAE70D4A4FF0000B136801331360B7E714
:102AB000B807002038080020400700206DAD01084D
:102AC00044070020F4070020F00700203C07002006
:102AD000480700203C080020B4070020C007002061
:102AE0002DE9F8432E4C236823B940F668012D48A0
:102AF00001F08CF900F04EFF2368013B236024684D
:102B00002CB1002400F066FF2046BDE8F883264B78
:102B10001B68002BF5D0254D254EDFF8A8801FE05F
:102B2000EB680127DC6804F1040904F1180000F0E7
:102B3000CCFE484600F0C9FE1420E26A316807FA6C
:102B400002F30B4300FB02804946336000F09AFE1B
:102B5000184BE26A1B68DB6A9A4201D3164B1F606E
:102B60002B68002BDCD10CB1FFF758FC134D2C68FF
:102B700044B10127104EFFF723FF00B13760013C3D
:102B8000F9D12C600C4B1B68002BBAD04FF080524F
:102B90000B4B1A60BFF34F8FBFF36F8F0124B1E768
:102BA000B80700206DAD0108AC070020F807002031
:102BB000C00700203C0700203C080020B40700208C
:102BC00004ED00E04807002038B50C46054620B962
:102BD00040F2CA41184801F019F924B940F2CB413A
:102BE000154801F013F9154B1B6823B140F2CC4195
:102BF000114801F00BF9FFF7D5FE114B2A68186850
:102C000014192CBF0121002182422C600CD961B91A
:102C1000FFF766FF38B94FF080520A4B1A60BFF3D6
:102C20004F8FBFF36F8F38BD09B9A042F0D200219A
:102C3000201AFFF721FCEBE76DAD0108B807002073
:102C40003808002004ED00E010B5044640B94FF00C
:102C500080520D4B1A60BFF34F8FBFF36F8F10BDC3
:102C60000A4B1B6823B14FF4A461094801F0CEF868
:102C7000FFF798FE00212046FFF7FEFBFFF730FF2D
:102C80000028E4D0EBE700BF04ED00E0B807002027
:102C90006DAD0108224B70B51A68224B12B10122AA
:102CA0001A6070BD204E1A6033681B6B1A68B2F14F
:102CB000A53F0BD15A68B2F1A53F07D19A68B2F18E
:102CC000A53F03D1DB68B3F1A53F04D0306831687C
:102CD000343101F06BF8154B1C68B4FA84F41423FA
:102CE000E4B2C4F11F046343114DEB5823B940F61D
:102CF0008831104801F08AF8142202FB04F3E91825
:102D00004868083340682B44984202FB045408BFCB
:102D10004368486008BF4B606368DB683360C0E7A6
:102D2000B80700203C0800203C070020C007002016
:102D3000480700206DAD010870B504462A4E00F02A
:102D400029FE04B93468251D284600F0BEFD60B98F
:102D50001421E06A254B41435B5833B901222449D1
:102D600082400B6823EA02030B60A36A1BB104F1E3
:102D7000180000F0AAFD29461E4800F083FD94F8D3
:102D800058301D4D012B04BF002384F8583000F04B
:102D900021FE2A682AB100F0FDFDFFF73FFB00F09D
:102DA00019FE3368A34211D12B6883B1134B1B6802
:102DB00023B14FF4D961124801F028F84FF0805246
:102DC000104B1A60BFF34F8FBFF36F8F70BD094A6E
:102DD00011680D4A1268914201D13360F6E7BDE8EF
:102DE0007040FFF757BF00BF3C0700204807002096
:102DF000C0070020100800200C080020B8070020A1
:102E00006DAD010804ED00E0AC07002038B50D46BB
:102E1000044620B940F69F31074800F0F7FF074B02
:102E200020461968183100F039FD2846BDE83840C1
:102E30000121FFF721BB00BF6DAD01083C07002059
:102E400070B50E461446054620B940F6CA310A4808
:102E500000F0DCFF094B28461968183100F012FD1C
:102E6000002C214608BF3046BDE8704018BF4FF027
:102E7000FF30FFF701BB00BF6DAD01083C0700202C
:102E800038B5C368DC6824B940F6FA31154800F05B
:102E9000BDFF04F11805284600F017FD124B1B6812
:102EA000E3B9251D284600F010FD01230F49E26A11
:102EB00008689340034314200B6029460C4B00FB29
:102EC000023000F0DFFC0B4BE26A1B68DB6A9A42BF
:102ED00085BF0120084B0020186038BD29460748EF
:102EE000EFE700BF6DAD0108B8070020C007002064
:102EF000480700203C0700203C080020F80700207D
:102F0000034B1B680360034B1B684360704700BFA3
:102F1000F40700203808002070B50C46054620B99B
:102F200040F66541144800F071FF24B940F666414F
:102F3000114800F06BFF00F02DFD104B1A6823685C
:102F4000591C0FD00E482E6800686968864201D06F
:102F500091420ED9521A934209D99B1A23602846EE
:102F6000FFF7CEFF002400F035FD204670BD0023A2
:102F700023600124F7E700BF6DAD01083808002089
:102F8000F40700200122014B1A6070473C08002022
:102F900070B50C461646054608B91B4A156805F17A
:102FA00034026260EA6A052B22612A6B2560E261C5
:102FB0006A6CA260EA6C62614FF00002A2611BD0F1
:102FC00011490968A9420BD12273D6B1296B0A466F
:102FD000531A12F8010BA528FAD09B08238470BD60
:102FE000032B2373F1D1FFF7DDFCAB6A0BB1022396
:102FF0002373FFF775FDE8E72846FFF711FC207300
:10300000E3E72684EBE700BF3C070020014B18688C
:10301000704700BF3C070020054B1B6833B1054BD0
:103020001B68002B0CBF0220002070470120704756
:103030000C080020B80700202DE9F04104460028C4
:1030400036D0234AC36A11681746C96A8B4237D201
:10305000142682691F4D002AA8BF3A6806FB035355
:10306000A2BFD26AC2F10502826142699A4221D1AD
:1030700000F10408404600F028FC174B48B9E06A0C
:103080004643AA592AB901211A68814022EA01025D
:103090001A603A681968D26AE262012404FA02F0FE
:1030A000084318601420414600FB025000F0EAFB80
:1030B000204603E03B68DB6AC3620120BDE8F08183
:1030C0001368C06CDC6AA0422CBF00200120F5E729
:1030D0003C07002048070020C0070020F8B5044640
:1030E00008B90020F8BD1F4B1B68834204D040F68E
:1030F0007A711D4800F08AFE236D23B940F67B717A
:10310000194800F083FE236DE16AE26C013B9142B5
:103110002365E6D0002BE4D1251D284600F0D5FB21
:10312000124E134A50B91421E76A794373582BB9E8
:1031300001201368B84023EA00031360E36CC3F175
:103140000501A161E3620124116804FA03F0084358
:1031500010601420294600FB036000F093FB20461A
:10316000C0E700BF3C0700206DAD01084807002004
:10317000C0070020F8B50D460446002845D0036D71
:1031800023B940F6C971214800F040FEE36C9D422E
:1031900038BF1D46E36AAB4237D0236D012B34D1D3
:1031A0001B4B1B68A34204D140F6E471174800F0A2
:1031B0002DFE1426A269E36A002AE562A4BFC5F1C8
:1031C0000505A561134D626906FB03539A421CD1A4
:1031D000271D384600F079FBE26A0F4C40B9564390
:1031E000AB592BB901212368914023EA01032360E5
:1031F00001231420216893400B432360394600FBD0
:103200000250BDE8F84000F03DBBF8BD6DAD0108CF
:103210003C07002048070020C0070020044B1A6824
:103220001AB119680A6D01320A651868704700BF43
:103230003C0700202DE9F0411E4C1E4680460F46FB
:10324000154600F0A7FB236893F85830022B14D0E2
:10325000012123685A6D22EA08025A65236883F81F
:10326000581056B13046FFF707F94FF08052124B15
:103270001A60BFF34F8FBFF36F8F00F0ABFB00F00E
:1032800089FB15B123685B6D2B602368002293F8DE
:103290005830022B09BF012500252368596D04BF52
:1032A000B9435965236883F8582000F093FB2846FA
:1032B000BDE8F0813C07002004ED00E0F8B50E46C3
:1032C00017461D46044620B941F219212B4800F04B
:1032D0009DFD00F05FFB0DB1636D2B60022394F840
:1032E000585084F85830EDB2042F16D8DFE807F0B4
:1032F0000A0307051100636D1E43666502E0636DF6
:1033000001336365012D11D0012400F063FB2046D9
:10331000F8BD022DF1D10024F7E7636D0133F1D040
:1033200041F24A21154800F071FDEBE7261D3046B9
:1033300000F0CBFA1420124AE36A11689D400D4355
:103340001560104A314600FB032000F09BFAA36A87
:1033500023B141F25921094800F058FD0A4BE26AB5
:103360001B68DB6A9A42CFD94FF08052074B1A6034
:10337000BFF34F8FBFF36F8FC6E700BF6DAD01087E
:10338000C0070020480700203C07002004ED00E0B3
:103390002DE9F843DDF820800E4691461D4604468F
:1033A00020B941F28C21354800F030FD00F0CCFB13
:1033B000EFF311874FF0500383F31188BFF36F8F42
:1033C000BFF34F8F0DB1636D2B60022394F85850FB
:1033D00084F85830EDB2B9F1040F16D8DFE809F0DF
:1033E0000A0307051100636D1E43666502E0636D05
:1033F00001336365012D11D0012087F31188BDE8E9
:10340000F883022DF1D10020F7E7636D0133F1D08D
:1034100041F2CF21194800F0F9FCEBE7A36A23B190
:1034200041F2DA21154800F0F1FC154B1B6803BB93
:10343000251D284600F049FA01231249E26A08686E
:103440009340034314200B6029460F4B00FB0230CE
:1034500000F018FA0D4BE26A1B68DB6A9A42CBD97E
:103460000123B8F1000F01D0C8F80030084A1360FA
:10347000C2E704F118010748EAE700BF6DAD010893
:10348000B8070020C0070020480700203C070020A4
:103490003C080020F807002038B5054608B9084B5D
:1034A0001D68002400F076FA95F85830022B04BF0E
:1034B00085F85840012400F08DFA204638BD00BF41
:1034C0003C070020F8B50F4C00F064FA2568ADB950
:1034D0000D4F0E4E384600F0C7F9304600F0C4F9E3
:1034E0000B4B2A461F600B4B0C210A201E60FEF777
:1034F00075FB206010B10849FEF734FFBDE8F840C5
:1035000000F068BA74080020480800205C08002019
:103510004008002044080020BEAD0108914208B5D3
:10352000416000610AD8D21A83699A420DD2084BD1
:10353000011D186800F0B2F9002008BD9A4201D2BE
:10354000994202D2011D034BF3E70120F5E700BFCA
:10355000440800204008002007B5FFF7B3FF0C4BDC
:103560001B6843B90B484FF4897100F04FFC0020F1
:1035700003B05DF804FB084BC822019301230749FF
:10358000009307480023FEF7F3FF0028EAD0EFE797
:1035900074080020C3AD01087808002010AE0108AF
:1035A000BD3600082DE9F04180462C200D46174617
:1035B0001E4600F029FB044688B125B94FF4B671C8
:1035C000084800F023FCFFF77DFF069BC4F800804D
:1035D000C4E9065726626362201D00F050F92046B8
:1035E000BDE8F081C3AD01082DE9FF410D469046CD
:1035F0001F46064620B94FF4C3710F4800F006FC81
:103600000E4C206878B1052DCDE9015803960DDCEC
:10361000FFF702FD002302280CBF0A9A1A4601A9EF
:103620002068FEF7FFFA04B0BDE8F08100233A46B7
:1036300001A9FEF7ADFBF6E7C3AD01087408002051
:103640002DE9F74300271A4DDFF86C802B681A68C4
:1036500032B9184A11681360296003B0BDE8F083DD
:10366000DB68DC681E6804F10409484600F02DF9A7
:10367000636A20469847E369012BE7D1A369334485
:103680009E4206D2636024614946286800F006F92C
:10369000DCE700230097324619462046FFF7A4FFD7
:1036A0000028D3D140F27231404600F0AFFBCDE7A5
:1036B0004008002044080020C3AD01082DE9F04F68
:1036C0004FF00108624D89B0DFF898B1DBF80020B7
:1036D000136843B30024D368D3F80090FFF762F96E
:1036E000FFF768F95B4B82461A681F4690425A4EB4
:1036F0001CD31860002C4CD0584B1B681A68B2FAC7
:1037000082F25209A9EB0A013068FEF763FEFFF767
:10371000E7F998B94FF08052514B1A60BFF34F8FC1
:10372000BFF36F8F0AE001249946D7E70393FFF7B1
:1037300087FF039BC3F800A0FFF7D2F9002205A979
:103740003068FEF7C9FB0028BED0059B002BF5DBD7
:10375000079C636913B1201D00F0B7F8FFF72AF941
:103760003B688146984201D2FFF76AFF059BC7F884
:103770000090092BE2D808FA03F313F4047A57D126
:1037800013F0C70F33D19B06D8D5204600F0CEFAF0
:10379000D4E7814529D8FFF7A3F9DBF80030DB68CF
:1037A000D3F80CB00BF1040000F08FF8DBF81C30FC
:1037B000012B15D1DBF818104B46524649445846A8
:1037C000FFF7ACFE60B1009423464A4621465846B6
:1037D000FFF70AFF20B94FF4F471284600F016FBFA
:1037E000DBF8243058469847A8E722468AE7A169C3
:1037F000069B4A4619442046FFF790FE00289DD0BC
:10380000636A20469847E369012B97D1A26906991C
:10381000CDF800A00A44534651462046FFF7E4FE87
:1038200000288BD140F20131284600F0EFFA85E7FD
:10383000069BA36123B94FF44671284600F0E6FACF
:10384000A1694B464A4649442046FFF767FE75E7A3
:10385000C3AD01087008002074080020440800204F
:1038600004ED00E0400800204FF0FF3200F10803B3
:103870004360C0E902230361002303607047002313
:103880000361704743689A684B608A609A68516028
:103890009960036808610133036070470A6830B5B6
:1038A000531C0AD103695A684A6091608B60596061
:1038B000036808610133036030BD00F108035C68F0
:1038C00025689542EFD82346F9E70369D0E901124C
:1038D0008A60826851605968814208BF5A6000223C
:1038E00002611A68013A1A60186870470648006851
:1038F000006880F3088862B661B6BFF34F8FBFF3EC
:103900006F8F00DF00BF000008ED00E0002307B567
:1039100001930B4B1B68013303D0CA21094800F007
:1039200075FA4FF0500383F31188BFF36F8FBFF325
:103930004F8F019B002BFCD003B05DF804FB00BF50
:103940005000002018AE01084FF0807340F8043C8E
:10395000054B21F0010140F8081C40F80C3C40F8F0
:10396000202C4038704700BF0D39000800000000CF
:10397000074B19680868B0E8F00F80F30988BFF3B7
:103980006F8F4FF0000080F311884EF00D0E7047DE
:103990003C0700204FF0500383F31188BFF36F8F73
:1039A000BFF34F8F084A13680133012B136009D10D
:1039B000064B1B6813F0FF0F04D040F2751104484A
:1039C00000F024BA704700BF5000002004ED00E072
:1039D00018AE010810B5074C236823B94FF4BE7127
:1039E000054800F013FA2368013B23600BB983F309
:1039F000118810BD5000002018AE01080000000022
:103A0000EFF30980BFF36F8F0D4B1A6820E9F00FB9
:103A100010602DE908404FF0500080F31188FFF747
:103A200039F94FF0000080F31188BDE808401968AB
:103A30000868B0E8F00F80F30988BFF36F8F704714
:103A40003C07002008B54FF0500383F31188BFF303
:103A50006F8FBFF34F8FFEF7B3FF18B14FF0805257
:103A6000024B1A60002383F3118808BD04ED00E0C7
:103A70000022054B05491A600A6041F26701044AB9
:103A8000116007221A60704710E000E018E000E0C3
:103A900014E000E013B5264B264C1A78D2B20192FE
:103AA000FF221A701B78244ADBB28DF803309DF890
:103AB000033003F0500313700723002223609DF8A6
:103AC0000310581E090629D402B123602368032B72
:103AD00004D04FF49B71194800F098F92368144AF8
:103AE0001B0203F4E06323600024019BDBB213702C
:103AF000134B1A6842F470021A601A6842F070425E
:103B00001A60FFF7B5FF0F4B1C60FFF7EFFEFFF7E2
:103B1000C1F8FFF7FBFE204602B010BD9DF8033050
:103B200001225B00DBB28DF803300346C7E700BF1C
:103B300000E400E0800800207C08002018AE0108A6
:103B400020ED00E05000002008B5EFF305830F2BB7
:103B50000AD90D4A9B5C0D4A12789A4204D940F268
:103B6000A5210B4800F052F90A4B0B4A1B6812685A
:103B700003F4E063934206D9BDE8084040F2B52162
:103B8000034800F043B908BDF0E300E07C080020E2
:103B900018AE01080CED00E08008002010B50F4BB6
:103BA0001A68824218D35C681919884201BF4168BB
:103BB000184609195960446801198A4207D1084911
:103BC00009688A421FBF516812680919416098420A
:103BD000026018BF186010BD1346E1E7944400204E
:103BE0008408002038B5064B064D1C68246804B9CB
:103BF00038BD6307FAD07921284600F007F9F5E7C8
:103C00009444002078AE01082DE9F8430746FEF7FA
:103C1000C9FE3F493F4D0B680BBB3F4A3F4E500723
:103C20001DBFD01D20F0070002F570534FF47053F4
:103C30001CBF02461B1A00201344083B23F0070355
:103C400070603260C3E90000981A0B60C2E900306E
:103C5000334B1860334B18604FF000432B602B68D8
:103C60001F4252D1002F41D007F1080462071CBF48
:103C700024F007040834002C47D02A4B1A689846D1
:103C8000A24242D3254B1E687268A24202D230681B
:103C9000002837D10968B14237D01F683168121B3C
:103CA000102A07F10807196010D906EB040919F06A
:103CB000070F03D0D7211C4800F0A8F873684846C6
:103CC0001B1BC9F804307460FFF768FF1449726861
:103CD000D8F8003008689B1A8342C8F8003038BF13
:103CE0000B602B681343736000233360FEF7F8FE0C
:103CF0007B0704D040F217110B4800F087F83846D4
:103D0000BDE8F88333460646BEE70027EEE700BF6E
:103D10008408002088440020880800209444002063
:103D2000904400208C44002078AE010838B5044649
:103D300070B3184D50F8041C2A68114204D140F2A7
:103D40002B11154800F062F854F8083C23B14FF4E9
:103D50009671114800F05AF854F8043C2A6813424E
:103D600016D054F8081C99B923EA020344F8043C1D
:103D7000FEF718FE094A54F8043C1168A4F1080043
:103D80000B441360FFF70AFFBDE83840FEF7A8BEFA
:103D900038BD00BF8844002078AE01088C44002064
:103DA000014B1860704700BF2C45002073B5124CC2
:103DB000064623780D46114A1BB913780BB172B62B
:103DC000FEE70123002113700D48642213F09FFCCD
:103DD0002B4600960B4A6421094814F007FB0A4B56
:103DE0001B6803B198470125054E304607F072FD68
:103DF00072B62570F9E700BF0C450020A0440020F2
:103E0000A2440020E9AE01082C450020F7B5164C6D
:103E1000064623780D46154A1BB913780BB172B6C6
:103E2000FEE70123002113701148642213F06FFC98
:103E30002B4600960F4A64210D4814F0D7FA0E4B1A
:103E40001B680BB10A4898470C4B1B6803B1984795
:103E50000125074F0A4E384607F03CFD304607F073
:103E600039FD72B62570F6E70D450020A14400200B
:103E7000A244002011AF01089C4400202C450020E2
:103E800020AF01080368DFF888C080B5CCF80030A7
:103E9000164F4368164E3B608368164D3360C36807
:103EA00015492B600369154A0B604369144C136074
:103EB0008369C0692360134B1860DCF80000386820
:103EC0003068286809681048126800212268642256
:103ED0001B6813F01CFC23680C4A64210A4814F088
:103EE00085FA094807F0F6FCFEE700BF1C450020F4
:103EF00024450020284500202045002008450020BA
:103F00001045002014450020A2440020D6AE010830
:103F100018450020074B1B6803B198471EF0040F9B
:103F20000CBFEFF30880EFF309808169004A104766
:103F3000853E00082C45002010B1012106F0B2BDDD
:103F4000704708B107F01EBD704780687047406831
:103F500070474368012B08D1D0E90432934204D062
:103F60001878003018BF01207047002070474B6858
:103F700070B5042B04460E464FF0000304D0C0E990
:103F800000338360204670BDD1E90425AD1AC0E935
:103F9000003383602846FFF7D4FFC4E900000544DE
:103FA000A560D6E90453024629468B4205D00AB1E2
:103FB0000E78167001310132F7E75B1B1844606020
:103FC000E0E742680346022A06D1D3E904031B1A3C
:103FD000032B01D907F04DBD002070474368032B28
:103FE00006D1D0E904329A4208BF00231846704730
:103FF0000023FBE7037870B581680446B3B1284A13
:10400000284807F023FC6368022B12D12046FFF7F3
:10401000D8FF0146244807F019FCE1680B78002B13
:104020003CD02248BDE8704007F010BC204A21482F
:10403000E7E7032B05D12046FFF7D0FF01461E48D6
:10404000E9E7042B0ED100251C4ED4E90431C91A2E
:104050008D4205D2595D304607F0F8FB0135F4E793
:104060001748D8E7012B08D12046FFF772FF154902
:10407000154B002818BF1946E1E700250F4ED4E97B
:1040800004239B1A9D4205D2515D304607F0DEFBAA
:104090000135F4E70D4807F0D9FBBEE70C48C1E74E
:1040A00060A10108C4AF0108D8AF0108FAAF010848
:1040B0003BB30108CEAF010855B10108B7A3010811
:1040C000E2AF0108BEAF0108B9AF0108E8AF0108CF
:1040D0003AB30108B1F5705F2DE9F84304460F4685
:1040E00002D9174806F09EFC066883689B1B99421C
:1040F00019D9D0F804900846FFF723FF0546034678
:10410000A9EB0608B14505D00BB132781A7001361B
:104110000133F7E72068FFF70FFF05EB0803256081
:104120003D446360A56025683DB92846C4E9015552
:10413000FFF702FF2846BDE8F8830120FBE700BF38
:104140003CAF01082DE9F0410368561A9046826899
:104150000446D21A96420D4615D93046FFF7F1FEB5
:1041600007460346A84505D02A7803B11A700135E1
:104170000133F7E720683E44FFF7DEFEC4E901663D
:104180002760BDE8F0814768481EFF1ABE420ED87E
:104190001A469D19A91A002904DD10F8011F02F81A
:1041A000011BF7E7002EA8BF9B196360E9E73D44B8
:1041B0001F44FA1A002A04DD10F8012F03F8012B1E
:1041C000F7E763682E461846B04505D0327800B14F
:1041D000027001360130F7E7A8EB05084344E4E735
:1041E00008B509C81B1AC3F57050884202D21046A0
:1041F00006F018FC994238BF1946581805D2B0F598
:10420000705F28BF4FF4705008BD4FF47050FBE74B
:104210002DE9F8430C46591C204615461F46FFF76A
:1042200059FF064680B14FF00003EA19294620469F
:10423000FFF788FFD4E901539D4208D00DB1002358
:104240002B706368013363603046BDE8F8831B4A16
:1042500001212046FFF7C4FF23680746A5EB0309A9
:10426000FFF76FFE10EB090F1CBF002300F80930A9
:10427000236880461A460146954205D009B1107858
:10428000087001320131F7E7D31A01334344104675
:1042900019466568954207D019B192F800C081F8B7
:1042A00000C001320131F5E72D1A1D442068474452
:1042B000FFF742FEC4E90085A760C5E777AF0108B4
:1042C0002DE9F04105460E4661B1D0E90132D21A1E
:1042D0008A4209D300221E4403B11A700133B3424B
:1042E000FAD16B60BDE8F081114AFFF779FF804693
:1042F000FFF727FED5E9001407460A460346944215
:1043000005D00BB11078187001320133F7E70023A4
:10431000641A3C44264404B123700134B442FAD1F7
:104320002868FFF709FEC5E900744744AF60D9E784
:10433000ABB00108D0E90032D21A914210B503D9CE
:10434000891AFFF7BDFF10BD3CBF5B184360FAE759
:1043500070B50C46012120461646FFF7BBFE054608
:1043600028B101212046FFF7E5FF23681E7028468B
:1043700070BD0000426808B5012A06D1BDE80840BA
:104380000A4600F11001FFF7E3BF8168024807F019
:104390005DFA002008BD00BF3AB0010810B50C1A44
:1043A000134605D001462246184613F097F90346F6
:1043B000181910BD2DE9F0410446A2EB010816467C
:1043C000A368226808469B1A98450F4615D94046AF
:1043D000FFF7B7FD05460346BE4205D00BB13A785C
:1043E0001A7001370133F7E72068FFF7A5FD256054
:1043F0004544C4E90155BDE8F0816568AD1AA8459A
:1044000004D83146FFF7CAFF6060F4E70D4429463F
:10441000FFF7C4FF636829461A468E4205D00AB1E9
:104420000878107001310132F7E7751B1D44656093
:10443000E1E770B50E46D2E900313046C91A14469C
:10444000FFF748FE054630B1D4E900124FF00003F3
:104450003046FFF7AFFF284670BD000070B5D0E9C9
:10446000043100F110060446C91A3046FFF732FE47
:10447000054640B1D4E90712914206D1A168064829
:1044800007F0E4F90025284670BD4FF000033046E0
:10449000FFF790FFF7E700BF91AF01082DE9F0416A
:1044A0008368A2EB01081746026804469B1A9845E8
:1044B0000E4615D94046FFF744FD05460346B74270
:1044C00005D0327803B11A7001360133F7E720685E
:1044D000FFF732FD25604544C4E90155BDE8F08190
:1044E0004568AD1AA84505D839463046FFF756FF4E
:1044F0006060F3E70D4429463046FFF74FFF6368DD
:1045000029461A468F4205D0087802B11070013151
:104510000132F7E77D1B1D446560DFE737B50D46C7
:1045200001A8114607F0C3FA04212846FFF7D2FD7F
:10453000044630B14FF0000302AA01A92846FFF754
:10454000ADFF204603B030BDFFF7E8BF426808B5B5
:10455000022A06D1BDE808400A4600F11001FFF723
:10456000DDBF8168024807F071F9002008BD00BF77
:1045700072B00108FFF7EABF2DE9F0410E460021B5
:104580001C4617468AB00DF108082022C0E9001128
:1045900081600546404613F0BAF81E2C94BF2246AF
:1045A0001F223946404613F08EF87368013B032BF7
:1045B00014D8DFE803F00230404722462F4938463E
:1045C00013F082FF28B122462D49384613F07CFFB4
:1045D00040B9012229463046FFF7BAFE28460AB004
:1045E000BDE8F08122462749384613F06DFF28B117
:1045F00022462549384613F067FF08B90022E9E74B
:1046000000220AA941F8242D404614F081F8021C2A
:1046100018BF0122DEE700220AA941F8242D4046F6
:1046200014F076F8019B02464345D7D02946304620
:10463000FFF774FFD2E723463A4629463046FFF794
:10464000E7FDCBE714F00106C8D1640821462846EF
:10465000FFF740FD0028C1D021462846FFF76AFE3B
:10466000B442BBD0022107EB460007F0EAF900286C
:10467000B4DB2B6898550136F2E700BFB9AF0108EB
:104680004CAF0108BEAF010851AF010830B5134669
:10469000426885B0032A044600F110050A460FD08F
:1046A000014601A8FFF768FF204601AA2946FFF747
:1046B000C0FE04460198FFF73FFC204605B030BD20
:1046C0002946FFF7A5FD0446F7E70000F0B50446CC
:1046D00085B0104616460F4613F0EEFE626803469C
:1046E000032A16D03246214601A8FFF745FFDDE92F
:1046F000011291420BD04FF000033846FFF75AFEEB
:1047000001250198FFF718FC284605B0F0BD0025EB
:10471000F7E7441C21463846FFF7DCFC054618B98C
:10472000054807F093F8EFE74FF0000332193146E0
:104730003846FFF707FDE7E757AF01080A4600F1E3
:104740001001FFF7C3BFF8B50D46194628461646B7
:104750001F46FFF7BFFC044630B14FF00003F219CB
:1047600031462846FFF79AFE2046F8BD13464268B8
:1047700010B5042A06D1BDE810400A4600F1100128
:10478000FFF7E1BF8168024807F060F8002010BD24
:1047900001B001082DE9F0410C4690461D46064641
:1047A00040B139B10849184606F078F9074618B9FA
:1047B00030602060BDE8F0812A46414612F083FF58
:1047C00037602560F6E700BF09ED010870B50546C2
:1047D00010460E46144613F06FFE2246034631463D
:1047E0002846BDE87040FFF7D5BF000010B50C4665
:1047F00031B1044900F0DCFC231A5842584110BD85
:104800000846FCE74DB2010810B500B121B90648D1
:1048100007F01CF8002010BD1AB9044AFFF7D6FFB4
:10482000F8E70120F7E700BFC5B00108D2B00108E2
:104830002DE9F3410D4616461F46FFF7E5FFB8B1D7
:104840000E49222006F02AF90446A0B13046FFF7AF
:104850007CFB80463046FFF7C1FB13F02DFE3B4644
:10486000CDE90080064A2221204613F0BFFD2860D2
:1048700002B0BDE8F0812860FAE700BF09ED010849
:104880000CB101082DE9F8430E46984616F8013B95
:1048900002F1FF3903704660C0F8089004461546DF
:1048A0003D214A46304612F0F1FE074668BB4B46B2
:1048B000182B28BF1823C4F83001A36204F10C059B
:1048C000A26A3146284612F0FEFE0022A66AA3190B
:1048D0001A7337B1D4F83021791C04F12C0012F08E
:1048E000F2FE0022D4F83031234483F82C202EB17C
:1048F0002946404600F05CFCC4F83401D4E90112BA
:104900000A48BDE8F84307F017B8831B023DED1ACB
:10491000182B1A46A8BF1822B5F5807F28BF4FF480
:104920008075A262C4F83051C8E700BF14B1010815
:1049300030B504460D46084B9DB00093074A084B1E
:10494000642103A813F052FD03AA29462046FFF76D
:104950003DFF1DB030BD00BF06B10108FEB001082B
:10496000E1B001082DE9F0431646642203F10C047E
:104970008FB00746884620461849ADF8042013F04A
:1049800089FD70B9336B23B1154A322101A813F0A8
:104990002DFD01AA41463846FFF718FF0FB0BDE8CC
:1049A000F08320460F4913F075FD0446A0B9736BE0
:1049B000002BEED00125DFF83490736B01A81B5D4E
:1049C000C5F1320128444A46013413F00FFD102C82
:1049D00005F10205F1D1DCE7034ADBE720B101086C
:1049E00025B1010829B1010831B10108B7A30108B7
:1049F000016000210273C0E901117047F8B5054656
:104A000017460E4639B332B31D49182006F03AF85E
:104A1000044608B3C0E9006700261A4B00F10807F6
:104A20004361C0E9026606618021384605F038FF1F
:104A3000D4E90012384605F071FF1149082006F04C
:104A400021F890B16B68C0E9004603B96860AB68B3
:104A500003B15860A860F8BD0B4806F0F7FE0121CD
:104A60003046BDE8F84006F01DB8084806F0EEFEF6
:104A70000121206806F016F818212046F1E700BF52
:104A800009ED010880818283D0B10108D5B1010808
:104A900070B54468054604B3266806F1080005F0C1
:104AA00007FFD6E903239A42C4B216D16B681BB93B
:104AB0006A210B48FFF7AAF96868082143686B6010
:104AC00005F0F0FF6B6803B9AB600121306805F0B9
:104AD000E9FF1821304605F0E5FF204670BD00BF14
:104AE0006DB1010810B50446006810B1012105F050
:104AF000D9FF204610BD7FB50546FFF726FA13F013
:104B0000DBFC0446861C2846FFF721FA01380328FF
:104B10001DD8DFE800F00206080F0734601C04B05F
:104B200070BD0D34FAE72846FFF758FA13F0C4FCBD
:104B30003418F3E701A82946FFF719FADDE9014324
:104B400001A81B1B06EB4304FFF7CCFFE6E70B3481
:104B5000E4E700002DE9F04786B081468846144618
:104B60001D46FFF751FE68B12046FFF7C4FF4049DC
:104B7000074605F093FF0646C9F8000028B93D48EE
:104B800006F064FE06B0BDE8F0872046FFF7DFF9C7
:104B90000138032864D8DFE800F00214253D2046E0
:104BA000FFF7D3F981462046FFF7D3F9324B334A5A
:104BB000002814BF18461046CDE900902B46304A15
:104BC0000AE02046FFF7C1F981462046FFF7F9F9D0
:104BD0002B46CDE900902B4A3946304613F006FCAF
:104BE00005463AE0612D20460DD1FFF7AEF90546A6
:104BF0002046FFF7F3F92B46234A0090394630460A
:104C000013F0F4FBECE7FFF7A0F981462046FFF72D
:104C1000E5F9D1E72046FFF798F92B4600901B4AAB
:104C20003946304613F0E2FBDFF86890214605462E
:104C300003A8FFF79CF9DDE9034AA2450AD0AF4279
:104C400014F8013B06D9791B70194A4613F0CEFBC4
:104C50000235F2E703A8FFF745FFC8F8005091E7D7
:104C60002046FFF772F92B460090094AC6E700BFBD
:104C700009ED0108D0B10108B9AF0108BEAF0108C4
:104C800040B1010848B1010851B1010858B101080B
:104C90005EB10108B7A301082DE9F0430E460746AF
:104CA0009046D1B04FF49C72002102A81D46589C3A
:104CB00012F02DFD31463B46424602A8FFF7E2FDC9
:104CC0003678642E5AD01CD83F2E44D008D82E2EC9
:104CD0004BD09DF808106A4806F0B8FD694A48E0D4
:104CE000612E00F09380622EF3D1674806F0AEFD8E
:104CF000664806F0ABFD4FF493716548FFF786F800
:104D000030E0722E45D00CD8672EE2D105A961485B
:104D100006F09CFD33464F9A21462846FFF71AFFBE
:104D200020E0732E50D0772ED3D15B4806F08EFD55
:104D30000399002900F0A180584813F0ABFB04460A
:104D4000002840F09A80564806F080FD21463846FB
:104D500000F0B8FECCE7534806F078FD214628461F
:104D6000FFF7E6FD51B0BDE8F0834F4806F06EFD59
:104D70004E4A21462846FFF729FDF3E703994C48A0
:104D800006F064FD02AB3A4621462846FFF7EAFDED
:104D9000E8E705A9474806F059FD0399464813F08E
:104DA00079FB20B9384600F01DF9444AE1E74F99F4
:104DB0003846FFF71BFD08B1414ADAE74F9808B1C2
:104DC000FFF74CFB7223A6E705A93E480DAA06F0A3
:104DD0003DFD4F993846FFF709FD0028ECD14F986B
:104DE00010B10DA9FFF7AAFC73234F9A214628465C
:104DF000FFF7B0FE2168344806F028FD28682168D6
:104E000006F08AFD314806F021FDABE70DF13409CB
:104E10002F484A4605A906F019FD4F9830B3FFF711
:104E200096F8032801D02B4AA3E74F98FFF7D6F84E
:104E300013F042FB08F1010606442749304605F00D
:104E40002DFE074690B14F98FFF7C8F8234A034656
:104E50003146CDF80090384613F0C8FA39464F98DD
:104E6000FFF76CFC0121384605F01CFE61234F9AC8
:104E700021462846FFF7DCFCBCE7012167E700BFBD
:104E80001AB301083CB30108ACB201084DB30108E4
:104E900079B3010817B20108CFB20108F7B20108CF
:104EA000FDB20108F1B10108FBB1010805B201082A
:104EB00008B2010828B2010860A101083BB201084C
:104EC0003EB2010858B2010871B201083AB30108B4
:104ED00082B201089BB2010809ED0108A7B20108DE
:104EE0002DE9F0410C4680460D4815461E46069FAA
:104EF00006F0ACFC04B14DB90A4806F0A7FC3946EF
:104F00003046BDE8F041084AFFF760BC06973346DB
:104F10002A4621464046BDE8F041FFF7BDBE00BF2E
:104F2000C2B30108D7B30108EAB301087FB504464C
:104F30000D4600680C49164600F000FB78B100F001
:104F40006FFC03AB00933246294602ABFFF7C8FF64
:104F5000DDE902122046FFF751FD04B070BD0348A1
:104F600006F074FCF9E700BF4DB20108B1B10108C9
:104F700010B10C2105F096BD704710B1012105F06C
:104F800091BD704730B513460D460446AC4207D07C
:104F90001BB194E8070083E807000C330C34F5E7F5
:104FA000184630BD10B5044638B1FBF7DBF8204693
:104FB000BDE81040282105F075BD10BD70B5044650
:104FC000406AFFF7D5FFD4E90656AE4204D0284622
:104FD000FBF7C8F82835F8E7A06908B1FFF7E2FF4A
:104FE000204670BDF8B5054600242826074FD5E9B0
:104FF00006031B1ADB107B439C4205D206FB040010
:10500000FFF72CFA0134F2E7F8BD00BFCDCCCCCCD1
:10501000F8B50446224806F019FC224806F016FCB2
:10502000D4E90631994218D0C91A1F4EC9107143EC
:105030001E4806F00BFC00252827D4E906031B1A9E
:10504000DB1073439D4205D207FB0500FEF7D2FF3C
:105050000135F2E7164806F0F9FBD4E90931154E9F
:10506000C91A89107143144806F0F0FB00250C277B
:10507000D4E909031B1A9B1073439D4205D207FB19
:10508000050000F071FF0135F2E70C4806F0DEFB89
:105090000B4806F0DBFBBDE8F8400A4806F0D6BB3B
:1050A000D9B40108A5C60108CDCCCCCCE3B4010825
:1050B000F5B40108ABAAAAAA2EB501083AB30108B3
:1050C0003EB501083CA901082DE9F043002487B052
:1050D00006466846CDE90044029405F00BFA68469E
:1050E00005F0A0FA4FF028082F4F304DD6E90623DF
:1050F0009B1ADB107B439C424ED208FB04F302EB6D
:105100000309D35C002B43D14846FEF71EFF01463E
:10511000684605F079FA4846FEF719FF042837D8A3
:10512000DFE800F03803101A24004846FEF711FFAC
:105130000146684605F01EFA50BBC2212846FEF71C
:1051400065FE25E04846FEF73CFF0146684605F04F
:10515000F7F9E8B9C621F1E74846FEF73FFF0146F7
:10516000684605F051FA98B9CA21E7E7494603A80D
:10517000FEF7FDFEDDE903126846521A05F01CFA3F
:1051800018B9CF212846FEF741FE0398FFF7F5FE38
:105190000134ABE7D321D1E7684605F06BFA0298FA
:1051A00007B0BDE8F08300BFCDCCCCCC11B4010872
:1051B0002DE9F04305460E4600244FF028081A4F0B
:1051C0008DB0D5E906239B1ADB107B439C4224D289
:1051D00008FB042931461822684613F087F948462F
:1051E000FEF7B3FE182201460DEB020013F07EF924
:1051F000684606F08AFC684606F099FC06A806F0A8
:1052000084FC06A806F093FC182268460DEB020108
:1052100013F05AF918B10134D3E74FF000094846AA
:105220000DB0BDE8F08300BFCDCCCCCC2DE9F04F64
:1052300006460F4600244FF00C09DFF86C808DB055
:10524000D6E909535B1B9B1008FB03F39C4224D255
:1052500018223946684613F049F9182209FB04FB65
:105260000DEB020055F80B1013F040F9684606F0FC
:105270004CFC684606F05BFC06A806F046FC06A857
:1052800006F055FC182268460DEB020105EB0B0AEF
:1052900013F01AF918B10134D2E74FF0000A504662
:1052A0000DB0BDE8F08F00BFABAAAAAA10B5144696
:1052B000FFF77EFF20B12146BDE81040FFF73EBA60
:1052C00010BD0000F8B50C46064640F20112002160
:1052D000224812F01CFA4FF4807221461F4812F047
:1052E000F2F91E491E4806F0B1FA1E491B4813F098
:1052F0002DF91C490546002013F028F929460746D8
:105300003046FFF755FFA0B929463046FFF78EFF1C
:10531000044600B30168144806F098FAA3683846BA
:10532000984701242046F8BD3946104806F08EFA09
:10533000F8E73A4629463046FFF7B8FF044600280A
:10534000F2D00B4806F082FA0A4806F07FFA30469F
:10535000FFF75EFEE6E729460748E7E7B446002088
:1053600057B501085CB101085DB5010886B50108B3
:1053700072B501083AB301089FB5010810B54FF4A2
:10538000807204460649043005F02CFA002805DD39
:105390002046BDE810400249FFF794BF10BD00BF92
:1053A000B445002038B514461D46FFF701FF28B16B
:1053B0002A462146BDE83840FFF768B938BD10B528
:1053C0001446FFF7F5FE20B12146BDE81040FFF777
:1053D000BDB810BD10B51446FFF7EAFE10B1214666
:1053E000FEF7C8FF002010BD38B514461D46FFF774
:1053F000DFFE28B12A462146BDE83840FFF7B6B99E
:1054000038BD00002DE9F04700248CB0074603A802
:10541000CDE90344059405F06DF8214603A80094F6
:1054200005F084F90146002834D0214603A805F090
:1054300006F940F2E7330446009300263546DFF8CC
:10544000F890009BB34273D9214603A805F029F9CF
:10545000824600286CD1182321460DEB030203A8D5
:1054600005F0B0F80444214603A805F028F9804669
:10547000B0B10CAA214642F828AD03A805F040F8C7
:10548000029A044406A93846FFF799FF00B1013596
:105490000136D6E76A4603A805F0D8F80446CCE7FB
:1054A000214603A805F055F970B10CAA02F8288D21
:1054B000214603A805F04EF89DF80820044406A9EB
:1054C0003846FFF787FFE1E7214603A805F012F908
:1054D000804668B102AB01AA214603A805F083F813
:1054E000DDE90123044406A93846FFF75BFFCDE759
:1054F000214603A805F0F0F890B10CAB43F8288DD5
:1055000001AA214603A8CDF8048005F044F89DF8CF
:1055100008300444019A06A93846FFF765FFB5E74D
:10552000039B4846195D01F0E00106F08FF9AFE7F3
:1055300028460CB0BDE8F08768B4010808B5FFF74D
:1055400037FE18B1BDE80840FEF703BD08BD10B531
:10555000044608461146FFF72BFE014620B9C4E970
:105560000000A060204610BD2046FEF700FDF9E7D0
:1055700008B5FFF71DFE18B1BDE80840FEF721BDD4
:1055800008BD08B5FFF714FE18B1BDE80840FEF7E6
:1055900025BD08BD037810B5044643B1044806F0A4
:1055A00055F90021204600F08DFA0023237010BD2C
:1055B00053B40108002370B5D1E90025AD1A0446A3
:1055C000C0E9003383600E46284601D006F0DAF9C0
:1055D000C4E900000544A560D6E900530246294607
:1055E0008B4205D00AB10E78167001310132F7E70F
:1055F0005B1B18446060204670BD38B504460D46FC
:105600000B78103000F8103C4B68103140F80C3C1F
:1056100051F8083C40F8083C51F8043C40F8043C80
:10562000FFF7C8FF05F11C0104F11C00FFF7C2FFE2
:10563000204638BD2DE9F843D0E90054641B91465B
:10564000A2101F4C06465443B4F5705F0F4602D1BA
:105650001C4805F0E7F9002C14BF22460122A418CB
:10566000A1EB050526D2B4F5705F23D82CB30C202E
:10567000604306F087F9804618EB05031CBF99E8E4
:10568000070083E80700424639463068FFF77AFC96
:10569000716800F10C023846FFF774FC054630686B
:1056A000FFF766FC0C2303FB0484C6E90085B460A5
:1056B000BDE8F8834FF47054D9E7A046DCE700BF9B
:1056C000ABAAAAAA77AF01082DE9F043054685B039
:1056D00008460C4617461E4612F0EEFE172803D960
:1056E00082212D48FEF792FBCDE90147D5E90978E3
:1056F00003962A4AA8EB0706B41054430134B4F5C4
:10570000705F02D9264805F08DF9EB6ADB1B9B1010
:1057100053439C4215D94FF00C0909FB04F91CB105
:10572000484606F02FF90446224641463846FFF720
:1057300029FC686AFFF71CFC26446C624C44AE628C
:10574000EC62EA6AD5E9090314491B1A9B10121A84
:105750004B4392104A430133934206D9114806F055
:1057600075F88C210C48FEF751FBD5E90A329342BB
:105770000AD023B104AA12E9070083E807000C331A
:10578000AB6205B0BDE8F08301AA194605F124001B
:10579000FFF750FFF5E700BF11B40108ABAAAAAAB2
:1057A0003CAF0108F6B30108002310B504460370AE
:1057B000C0E90633C0E90833C0E90A33C0E90C3355
:1057C000064B80214361043004F0D1FF2046044B96
:1057D000044A0549FFF778FF204610BD34450020F4
:1057E00025580008C2B50108CEB5010810B5084C0F
:1057F0002368DB0709D40748FFF7D6FF0123064AD1
:1058000006490448236010F010FB024810BD00BF99
:1058100030450020B847002000000020BD4F0008A0
:10582000FFF7E4BF08B5FFF7E1FFBDE80840FFF769
:10583000EFBB0022C0E90022826010B50C68046052
:105840000A6042684C6844604A6082688C68846080
:105850008A6010BD70B50E4605461446B54217D095
:105860009CB12B7805F1100123706B6804F11000D6
:105870006360AB68A360EB68E360FFF7DAFF05F1F4
:105880001C0104F11C00FFF7D4FF28342835E5E79C
:10589000204670BD2DE9F843D0E90064A41BE31055
:1058A000234C05465C43B4F5705F0F46914602D128
:1058B000204805F0B7F8002C14BF23460123E41854
:1058C000A1EB060623D2B4F5705F20D814B32820CC
:1058D000604306F057F8804618EB060002D04946B0
:1058E000FFF78BFE394642462868FFF7B3FF696829
:1058F00000F128023846FFF7ADFFD5E900690746F9
:10590000B14509D03046FAF72DFC2836F8E74FF4B8
:105910007054DCE7A046DFE7286808B1FFF742FBD8
:10592000282303FB0484C5E90087AC60BDE8F88345
:10593000CDCCCCCC77AF01082DE9F047D0E90657A4
:1059400004460E46DFF80C818AB0AF421BD02946D0
:105950006846FFF752FE6846FEF7F7FA8146304682
:10596000FEF7F3FA0146484606F010F930B130462A
:10597000FEF7EBFA0146404605F068FF6846FAF785
:10598000F1FB2835E1E7D4E906892E4AA9EB08079F
:10599000FD1055430135B5F5705F02D92A4805F071
:1059A00041F8236AA3EB0803DB1053439D4220D93F
:1059B0004FF0280A0AFB05FA1DB1504605F0E2FF38
:1059C0000546494640462A46FFF744FFD4E9068982
:1059D000C14505D04046FAF7C5FB08F12808F7E7AE
:1059E000A06908B1FFF7DEFA2F44A5615544E761CD
:1059F0002562226AD4E9060312491B1ADB10121A27
:105A00004B43D2104A430133934206D90F4805F065
:105A10001DFF77210E48FEF7F9F9D4E907039842F4
:105A200009D010B13146FFF7E8FDE3692833E3619F
:105A30000AB0BDE8F0870146324604F11800FFF7CE
:105A400029FFF5E7CDCCCCCC3CAF0108BAB40108B6
:105A500011B4010888B40108002313B502A941F864
:105A6000043D094B0422D3E90140084B20445B6804
:105A70009847044628B1064805F0E8FE204602B0E3
:105A800010BD0448F8E700BF04480020F447002098
:105A900034B8010848B8010808B5084805F0D6FE32
:105AA000FFF7A4FEFFF79EFA054805F0CFFEFFF7CB
:105AB0009DFEBDE80840FFF7ABBA00BF65B801081E
:105AC0007DB8010873B505464FF400700C4605F02B
:105AD00059FF064630B9214805F0B8FE202120487C
