:020000040800F2
:10000000008000203D410008B54D0008E938000897
:10001000B74D0008B94D0008BB4D000800000000B6
:10002000000000000000000000000000719A0008BD
:10003000BD4D000800000000019B0008459B000822
:10004000BF4D0008C14D0008C34D0008C54D000854
:10005000C74D0008C94D0008494D00084F4D000824
:10006000554D00085B4D0008614D0008CB4D000860
:10007000CD4D0008CF4D0008D14D0008D34D0008EC
:10008000D54D0008D74D0008D94D0008DB4D0008BC
:10009000DD4D0008DF4D0008E14D0008674D000808
:1000A000E34D0008E54D0008E74D0008E94D000864
:1000B000EB4D0008ED4D0008EF4D0008F14D000834
:1000C000F34D0008F54D0008F74D0008F94D000804
:1000D000FB4D000889540008D5580008FD4D000864
:1000E0008B4D0008354E0008FF4D0008014E0008FA
:1000F000034E0008000000000000000000000000A7
:1001000000000000000000005FF808F110B5054C89
:10011000237833B9044B13B10448AFF300800123B3
:10012000237010BDE8030020000000001CE301085C
:1001300008B5034B1BB103490348AFF3008008BD6A
:1001400000000000EC0300201CE30108704770472A
:1001500003F0C8BF002200B58DB00892CDE9062299
:10016000CDE904220B4A04A909920B4A03C90A9259
:100170000A4A06AB0B9202AA82E803000CAA12E913
:1001800003008DE803000FCB03F070FC0DB05DF8A9
:1001900004FB00BF357800084D790008217900087C
:1001A00010B50446282112F0A1F9204610BD000028
:1001B000C16042624FF416514E2210B5094CC0E99D
:1001C00004124460084C0A228460084C046008242D
:1001D000C0E906424FF487720284002280F8222090
:1001E00010BD00BF20900108249001083090010844
:1001F00010B50C46406A002103685B6898470221ED
:100200000A484CB104F0A0FCBDE8104000230221D4
:100210001A46064804F0D6BB04F09CFCBDE810402A
:1002200002220248114604F00BBC00BF000002404D
:1002300010B50446C068036851B11B690649984768
:10024000E06804F110010368BDE810401B6818471E
:100250005B68BDE8104018475101000810B504461E
:100260000021FFF7E5FF2046BDE810400021FFF721
:10027000BFBF000008B5034807F0DCFABDE808403E
:1002800005F058BBF891010805F054BB10B50446C1
:10029000C06910B1012112F029F9206910B10121C2
:1002A00012F024F9204610BDF8B50025C0E901126E
:1002B0000570C0E90335C0E90555C0E90755456239
:1002C00006990446164600F11C0710F003FD38B9E4
:1002D0003146074807F0AEFA2021064803F088FAB5
:1002E000069A3946204610F0C5FC2046F8BD00BFEE
:1002F0001692010841920108F8B50025C0E90112E3
:100300000570C0E90335C0E90555C0E907554562E8
:1003100006990446164600F11C0710F035FC38B962
:100320003146074807F086FA2021064803F060FAB4
:10033000069A3946204610F010FC2046F8BD00BF52
:10034000169201084192010870B5534B9EB0D3E953
:10035000001214331B6881EA02045C4000944F4889
:1003600007F068FA21460EA80CF0AEFC00F064FE1F
:10037000024652F8400F0EAB516804AC03C311F0B3
:1003800013F905460EA90CF071FB454B454A009345
:100390000321454B2046FFF787FF2146284611F0F1
:1003A000AFF92046FFF772FFB423404A00930221C1
:1003B0003F4B2046FFF7A0FF2146284611F0A0F949
:1003C0002046FFF763FF41233A4A009302213A4B4C
:1003D0002046FFF791FF2146284611F091F920466B
:1003E000FFF754FF354B364A00930321354B204627
:1003F000FFF75AFF2146284611F082F92046FFF701
:1004000045FF0523304A00930221304B2046FFF779
:1004100073FF2146284611F073F92046FFF736FF97
:100420000123002105932A4E2A4B20468DF81010F7
:100430000696CDE90731CDE90911CDE90B110D91F2
:1004400010F0B2FA38B93146234807F0F3F9202109
:10045000224803F0CDF900220BA9204610F092FAB1
:100460002146284611F04CF92046FFF70FFF284699
:100470001B4B1C4A1C4911F00BF81C4B04931C4BE2
:1004800005931C4B06931C4B009394E8070005232F
:1004900011F0E4FA1EB070BD5000F81F489001083A
:1004A000BF900108B49001086B900108F290010818
:1004B000CE90010831910108F89001088791010858
:1004C0007D91010837910108A691010896910108D4
:1004D000AD910108B89101081692010841920108F6
:1004E00089020008CE910108F2910108B94600087E
:1004F00041460008750200080000080810B50849C8
:10050000084C09782278914204D1074807F092F903
:10051000207810BD054B1B789342F9D10448F5E7CC
:100520001704002014040020F4920108160400208F
:100530001B93010808B5104807F07CF900F098FB00
:1005400000F07CFB0D4807F075F911F047F80C49F5
:1005500010F0DEFE05220B4B18700B4B0B481A7087
:100560000B4B0C4A1A6007F065F90021022000F0DD
:10057000ADFB094B187808BD7A92010895920108E5
:10058000A69101081100002010000020BD92010872
:1005900010070020D3060008800500202DE9F8434D
:1005A000374FC6B200F026FC00F048FB00F060FBBD
:1005B0003B68DB070CD411F011F8324910F0A8FEAB
:1005C0003C235843304BC117C3E9000101233B6072
:1005D000DFF8EC802D4FD8E90001B1F1004F08BFE2
:1005E00000281FD12A4807F025F93A78294C2270B3
:1005F000294A1278B24203D0284B1B78B3423CD12F
:10060000274807F017F9012022783B789A4203D156
:10061000244807F00FF9012000F052FA224B187815
:10062000BDE8F88307F086F80146204807F002F994
:1006300004F016FDD8E90032DFF84C80C41A61EBF3
:100640000205D8E9000107F08BF8294681462046CB
:1006500007F086F849460246154807F0EBF8D8E956
:100660000023944275EB030301DB1248BBE71248F9
:1006700007F0E0F8114B1A78B8E70020C4E700BF94
:1006800008040020319101082004002017040020F4
:100690004193010814040020500400201504002098
:1006A000D19301080094010880050020659301089A
:1006B0007F930108A6930108BC930108160400204B
:1006C0000800002008B500F0B7FCBDE8084000F0C5
:1006D000E9BC10B5044600F0AFFC2146BDE810406F
:1006E00000F03CBF1FB57023CDE90131002301A903
:1006F0008DF80C3001F08AFD05B05DF804FB07B5FC
:100700008DF8041001A98DF805208DF8063001F050
:1007100043FE03B05DF804FB2DE9F04F87B0FFF70F
:1007200013FEFA200AF0BEFC10F058FF10F044FB54
:10073000854807F07FF810F051FF844E0546336876
:10074000834C13F0010F04D101F046FD012320601A
:1007500033608049206801F00BFC266800F06CFCD7
:1007600000F13801304601F001FC7B4B6E2604930A
:10077000002303A920680396059301F03BFC0021A8
:10078000764B05911870764B03A920680493039665
:1007900001F030FC7349744F0870206802F0C0FF0C
:1007A00072498DF805002846266810F0BAFD704998
:1007B000024603A801F0C4FB03A80146304601F03D
:1007C00019FC6C498DF807002846266810F0A9FD31
:1007D0006949024603A801F0B3FB03A8014630466D
:1007E00001F008FC6126654B8DF80300049303A813
:1007F000634B014620680396059301F007FD614BAA
:100800008DF80400049303A85F4B0146206803960B
:10081000059301F0FBFC5D4D5D4B2870049303A82C
:100820005C4B014620680593039601F0EFFC5A49A2
:1008300006462068FFF756FF584938702068FFF7D2
:1008400051FF574983462068FFF74CFF8DF806009B
:10085000206802F053FBDFF858A152498AF80000E3
:10086000206802F051FA81469DF804C0DFF8448107
:100870002068614680F828C09AF8003098F8002077
:10088000FFF73DFF2B7898F800209AF800102068B9
:10089000FFF735FF4B4698F8002029782068FFF7CE
:1008A0002EFF334698F8002049462068FFF727FFBF
:1008B0003D4A3346494620681278FFF720FF294910
:1008C0003B780A7820683146FFF719FF2B789DF8AE
:1008D000072039782068FFF712FF2B789DF8052054
:1008E00039782068FFF70BFF1C4A5B4631462068C9
:1008F0001278FFF704FF9DF806309DF80520594651
:100900002068FFF7FCFE2B789DF8032059462068ED
:10091000FFF7F5FE2B789DF803209DF80610206860
:10092000FFF7EDFE206801F0F5FE204806F082FF9B
:1009300001224FF4FA71206801F086FE00200AF0CF
:100940002BF907B0BDE8F08F2C94010804040020B7
:1009500018040020C5060008499401081604002068
:100960005294010817040020500400207D910108D2
:100970005C940108B49001086894010832A1010850
:1009800035050008739401089D05000851040020F6
:100990007F940108FD0400088494010891940108E3
:1009A000A1940108CBA001087E050020AD940108A8
:1009B000150400208005002000F03EBB38B50C4C2B
:1009C0002368DB0712D400F037FB054600F034FB48
:1009D00005F1200100F11C020648FFF7E9FB0123A5
:1009E000054A06490348236012F02AFC014838BD35
:1009F0000C04002028040020000000204F01000803
:100A000037B500F019FB036804469B689847FFF769
:100A1000D5FF01250146204612F0A2FB204612F028
:100A20005BFB204612F06EFB134B4FF49672019362
:100A3000124900230095124809F0C0FF2368294697
:100A4000DB682046984723684FF4FA711B692046FB
:100A5000984723680021DB6820469847094806F03C
:100A6000E9FE094806F0E6FEC82003F0C7FD00F0E5
:100A700011F90AF07DF9FEE710040020C79401087F
:100A800019070008D0940108E3940108FF23064ADF
:100A90001370064A1370064A1370064A1370064A0A
:100AA0001370064A137070471604002017040020C4
:100AB00015040020510400205004002014040020DC
:100AC0002DE9F04F89B0814610F088FD504910F0B3
:100AD00005FC06464F4C02A8214602F039FF254688
:100AE000DDF80880039FDFF84CB1DFF84CA1002E41
:100AF00042D0322104A811F081FBBBF9000013F0B1
:100B000077FA454913F07CFB0021024604A811F056
:100B1000D5FBDAF80020012104A811F0A5FBE36958
:100B20004246009302213B4604A811F0F1FBE27813
:100B3000032104A811F07FFB384904A811F072FBCF
:100B400004A811F06DFB044604A811F062FB002319
:100B5000ADF81030B9F1000F02D001238DF810303C
:100B6000002E049BE2B22D4914BF0320022002F0A4
:100B7000EFFA09B0BDE8F08F3222284904A811F03D
:100B80002DFCBBF9001004A811F05FFC2449DAF831
:100B9000000013F081FA13F06BFC01B204A811F00D
:100BA00054FC2049404613F077FA13F03BFC1D49F2
:100BB0008246384613F070FA13F034FC1A49804626
:100BC000E06913F069FA13F02DFC0746174B2478FF
:100BD0001A78174B51461B7804A89A4208BF44F074
:100BE000020411F04CFC414604A811F048FC3946BF
:100BF00004A811F036FC214604A811F019FCE9788C
:100C000004A811F015FC04A811F01DFC04469EE791
:100C1000AD910108900400200000204158040020FC
:100C200000007A440050C3470000C842140400206A
:100C3000160400208A0400208C04002010B5FFF761
:100C4000BBFE00F099FA0749044613F025FA13F0A9
:100C5000E9FB0146044806F0EDFD044B20461C600C
:100C600010BD00BF00007A44DD9501088C0400200F
:100C700010B5FFF7A1FE00F047FB0446014603480C
:100C800006F0D8FD024B20461C8010BDBE95010821
:100C90008A04002008B5FFF791FE0021FFF7C8FA8B
:100CA00003F036FABDE80840C82003F0A7BC0000F6
:100CB000044B1A782AB9012140220348197013F015
:100CC000FDBE7047D0040020900400202DE9F04FB5
:100CD00087B08046FFF7ECFF3F4806F0ABFDFFF71B
:100CE0006BFE0646FFF76AFE07463C49304600F0B9
:100CF00057FA01213846FFF79BFA01213846FFF7E2
:100D000077FA03F0E7F94146354806F093FD33687A
:100D10000121DB683046984745464FF001094FF006
:100D20000A0ADFF8CCB04FF47A70013D0AF0BAF944
:100D300003F0CAF995FBFAF30AFB135304461BB9F7
:100D40002946584606F076FD336889F00109DB68CC
:100D500049463046984723780BB9002DE3DC3368C9
:100D60003046DB680021984738460021FFF740FAFB
:100D700038460021FFF75CFA214604A802F0E8FD9E
:100D8000E3782278A8EB0501164806F053FD049895
:100D900012F012FD0646E0690F4612F00DFDCDE996
:100DA0000201059812F008FD3246CDE900013B46EC
:100DB0000D4806F03FFD23460C4D04F140062A463F
:100DC00018685968083303C2B3421546F7D1204664
:100DD00007B0BDE8F08F00BF149501080000404047
:100DE0002D9501085E950108919501089004002059
:100DF0004495010838B50B4D0B4C2B6813F0010FCF
:100E000009D110F0EBFB094910F082FA0123C11758
:100E1000C4E900012B60D4E90001BDE83840FFF7C8
:100E200055BF00BF54040020D8040020F2900108F0
:100E300038B50A4C05460121204603F085FE002303
:100E400020461A46012103F0BDFD85F0010220462F
:100E5000BDE83840012103F083BE00BF000002401E
:100E600008B50120FFF7E4FFBDE80840032004F0C7
:100E700071BD0846FFF7DCBF10B50446024B0360A6
:100E800012F088F9204610BD0496010810B50446FA
:100E9000054B283040F8283C044B40F8083CFFF74D
:100EA000EBFF204610BD00BFBC990108C49B0108A0
:100EB00010B50446FFF7E0FF2046082111F016FBAD
:100EC000204610BD10B50446FFF7E0FF20464C2138
:100ED00011F00CFB204610BD084603F08FBB00004C
:100EE000024B0121186803681B6818470805002099
:100EF000021C18BF01220321014803F031BE00BFCC
:100F0000000402400321014803F033BE0004024004
:100F100010B5094C094806F08DFC20460B2103F062
:100F200013FE002320461A460B2103F04BFDBDE8BB
:100F3000104003F049BB00BF000002406B9901085C
:100F400008B5022003F0A4FA03F006FB00F0A4FBAE
:100F500003F02CFB00F084FD04F08CF80A4802F04A
:100F60000DFC4FF4E13004F069FB084B1A680AB934
:100F7000074A1A60074B1A680AB9054A1A600648F8
:100F8000BDE8084006F056BC610E0008D8080020F5
:100F9000F1540008DC0800207396010838B50446B7
:100FA00012F090F82346002521460F4A04F1200054
:100FB00043F8112BC4F811505D600C4B41F81C3FF5
:100FC00000F0F6FE0A4B84F834502363094BC4E961
:100FD0001055A363084B84F84850E363074806F0B4
:100FE00029FC204638BD00BFBC990108A49A01081D
:100FF000F49A0108249B0108109B01089F9901089D
:1010000010B5094CFFF79CFF2368DB0709D407489C
:10101000FFF7C4FF0123064A06490448236012F083
:101020000FF9024810BD00BFE40400200C050020A9
:10103000000000208D0E000838B5064D064C2B68C8
:1010400013F0010F04D1FFF7DBFF012320602B60B9
:10105000206838BDE80400205805002008B50B21A1
:10106000054803F08BFD28B1BDE808400B2102487C
:1010700003F098BD08BD00BF0000024008B519B1DB
:10108000BDE80840FFF744BF044806F0D3FBBDE8C5
:10109000084002220B21024803F0D2BC87990108C4
:1010A0000000024070B504462E4804F11C0506F00D
:1010B000C1FB2846002100F0FBFC0021284600F07F
:1010C0000DFD204612F02EF80BF042FF20460021C5
:1010D000FFF7D4FF0AF0BEFF01220C21224803F0E3
:1010E000AFFC04F0DFF804F1200000F04FFE2368AD
:1010F0002046DB6804F13C05002198471B4E002187
:10110000284600F071FD03F0A9FD194806F092FB96
:1011100004F08CF903F04AFA304601220D2103F065
:101120008FFC012230460E2103F08AFC0021084684
:1011300004F076F804F1300000F0E6FC01212846C6
:1011400000F052FD4FF4E13004F078FA094806F05F
:1011500071FB0AF0A5FE04F0A3F82046BDE870403C
:1011600011F0EDBF3999010800040240000002406F
:101170005D99010862BE010838B50546FFF76EFFAC
:10118000044628B100212846FFF778FF03F01CFA37
:1011900003F022F905460CB1FFF7BAFE284638BD28
:1011A00070B50C4606461549204613F031F920B9B2
:1011B0000021204613F00EF970B11149204612F0BB
:1011C0006BFF13F02FF901460E4806F033FB40F297
:1011D00063110D4802F00CFB3046FFF73FFF054658
:1011E00048B93046FFF7C8FF0146204613F010F912
:1011F00008B1FFF78DFE284670BD00BF3333534062
:1012000000007A4489960108B896010870B52F4A03
:10121000D6B013680546DB0705D42D4900F13C0321
:101220000B60012313602B492846FFF7B9FF0646E0
:10123000294806F0FFFA002105F11C0000F04EFCE1
:10124000264C274BE360274B2361274BA360274B9A
:101250006360274B2360274B6361274BA361274BB8
:10126000E36104F110030FCB8DE80F0094E80F0049
:1012700011F078FC002305A8C5F81130C5F8153029
:1012800011F0F8FB9DF8143005F11104012B16D173
:10129000DDF8153005A8C5F81130DDF81930C5F8AE
:1012A000153011F0B7FB164806F0C4FA08212046A5
:1012B00006F026FBBDF91611124806F0BBFA3146BE
:1012C0002846FFF7DBFE56B070BD00BFE0040020EB
:1012D00008050020000040400C960108E84F00205F
:1012E000FD45000885450008E10E0008050F0008CF
:1012F000F10E000835780008959A0008D59A000884
:101300002D9601085396010870B507490546FFF769
:1013100047FF064611F044FB044631462846FFF7D6
:10132000ADFE204670BD00BF000040407FB5F823F1
:1013300000F13005064628468DF80F3000F0EAFB34
:1013400002230DF10F0100930122A023284600F093
:10135000E5FB4FF400430822009306F14001A0236F
:101360000446284600F004FC0440E4B2284600F09D
:10137000D3FB204604B070BD30B504468BB059484D
:1013800006F058FA204600F021FB04F1300500F089
:101390005DFA00F009FA5448544906F04BFA284621
:1013A00000F0B2FB38B9524806F044FA40F221117D
:1013B000504802F01DFA03F007F92046FFF7B6FF88
:1013C00020B94FF493714B4802F012FA94F8473069
:1013D0004948049394F84630039394F845300293B7
:1013E00094F84430019394F84330009394F84230D9
:1013F00094F8412094F8401006F01CFA284600F0BA
:10140000D5F9284600F034FA04F11C0584F84800A8
:101410000021284600F04CFB012000F0D7FC002101
:10142000284600F05BFB012000F0EEFC2046FFF7B1
:10143000EDFE00F069FA314806F0FCF94FF4FA705D
:1014400013F0F6FA0446002844D12D4806F0F2F9CC
:101450002C4806F0EFF92C4806F0ECF92B4806F082
:10146000E9F92B4806F0E6F92A4806F0E3F92A489C
:1014700006F0E0F9294806F0DDF9294806F0DAF926
:10148000284A2949294806F0D5F92949294806F06A
:10149000D1F9294806F0CEF9284B294A1B68294979
:1014A0000093294B12681B68284814F0BFF927499C
:1014B000274806F0BFF907A803F074FD07A806F057
:1014C0000FF90146234806F0B5F90F4806F0B2F9C6
:1014D0000BB030BD204806F0ADF9204613F0B0FA4D
:1014E000B6E700BFF89601080A970108A086010038
:1014F00025970108B89601083B97010870970108E5
:101500009E97010868990108DC9701080D98010869
:101510001C9801083E980108619801088598010807
:1015200069990108A8980108AE980108C8980108AF
:10153000D8980108DF980108EA9801086400F81FAC
:101540005000F81F0A9901085400F81FEC0400200D
:101550001C99010827990108D2970108002003F07F
:10156000E1BB0000024B186803685B68184700BFC6
:1015700068050020024B186803689B68184700BF85
:10158000680500200023F0B51370144602220546BA
:101590000C4E85B030688DF80F1003680092DF683C
:1015A00001222B460DF10F01B84748B14FF400421C
:1015B00030682146036800921E6901222B46B0471D
:1015C00005B0F0BD6805002030B585B08DF80D2060
:1015D0000022074B8DF80C101C6803A923680092A9
:1015E000DD68022203462046A84705B030BD00BF93
:1015F0006805002037B54FF40045064B1C6823688A
:1016000000951D6913460A4601462046A84703B0C7
:1016100030BD00BF6405002037B50025054B1C68B0
:1016200023680095DD6813460A4601462046A84710
:1016300003B030BD6405002037B50225054B1C689A
:1016400023680095DD6813460A4601462046A847F0
:1016500003B030BD64050020024B186803681B68A6
:10166000184700BF64050020024B186803685B68D8
:10167000184700BF64050020024B186803689B6888
:10168000184700BF640500204FF47A735843B0FB3D
:10169000F3F009F007BD000010B5424C0AF02CFD34
:1016A00020460222002103F0CBF9012220461146F8
:1016B00003F0C6F920460122022103F0C1F92046B9
:1016C0000222032103F0BCF920460022042103F08A
:1016D000B7F920460222082103F0B2F92046012280
:1016E000092103F0ADF9204601220A2103F0A8F9EF
:1016F000204602220B2103F0A3F902F057FF00233A
:1017000020461A460C2103F05DF9204600220C21E8
:1017100003F026FA2046002204F580640F2103F02E
:101720008FF920460122002103F08AF92046002289
:10173000022103F085F920460022032103F080F9FD
:1017400020460222062103F07BF9204600220821D0
:1017500003F076F920460022092103F071F92046B2
:1017600001220C2103F06CF9204602220D2103F026
:1017700067F9204602220E2103F062F92046022278
:101780000F2103F05DF9002304F5806420461A461A
:101790000D2103F017F92046BDE8104000220D216D
:1017A00003F0DEB90000024003F064BC1C4B00B53E
:1017B0001A6889B0D2075FBF1A4A106001221A6006
:1017C000194B0493194B0593194B0393194B02932F
:1017D000194B0793194B069308AB13E903008DE8E7
:1017E000030002AB0FCB11F06BF890B1144806F078
:1017F00021F800221348114603F022F90F23022298
:101800000021104802F0BCFF09B05DF804EB10F0B5
:101810007FBF69210C4809B05DF804EB01F0E8BF17
:101820006005002068050020651500087515000892
:1018300085150008C91500083578000889160008C4
:10184000499A0108000002405A9A0108002307B58E
:10185000ADF8043001238DF8063001980AF0A8FB9A
:1018600002F0A4FE03B05DF804EB0AF0F3BB000045
:10187000194B10B51A688CB0D2075FBF174A1060B9
:1018800001221A60164B0793164B0593164B0693CD
:10189000164B0893164B0993164B0A93164B0B9352
:1018A0000CAB13E907008DE8070005AB0FCB10F078
:1018B000B9FE044601220F21104803F0C1F83CB1E3
:1018C0000F4805F0B7FF10F08BFE20460CB010BD9E
:1018D0000C4805F0AFFFF8E75C0500206405002028
:1018E000F5150008191600083916000859160008E1
:1018F00069160008791600083578000800000240D3
:10190000D0990108039A01082DE9F0479AB00AF02E
:10191000BDFFDFF8B490244C244E254F12AD50B9D2
:10192000CDE91544CDE91376CDF84890009495E8BB
:101930000F000AF0B1FF1F4B4FF0000A13931E4B2C
:101940004FF0010812931D4B06A914931C4B284617
:1019500015931C4BCDE91876CDE916340423CDE957
:10196000063A8DF81D8006F0C5FC06F0B7FC13F0B2
:10197000C1FE514610220EA813F0A0F80323CDE9B2
:1019800008440D938DF83D8001AC0DAD0FCDCDE930
:101990000A970FC42B682360009608AB0FCB0BF09F
:1019A000D9F91AB0BDE8F087357800082179000828
:1019B0004D790008D9BF0008A1BE0008B1BD0008DC
:1019C00049BD00085DBD0008615000082DE9F047E1
:1019D000044602F001FD1E49054612F05DFB12F0BF
:1019E00021FD01461B4805F025FF4FF080412846A8
:1019F00012F0F0FC48B30025DFF86090DFF850806B
:101A0000154E02F0E9FC4946074612F0F7FCA8B96A
:101A10004146384612F040FB12F004FD01463046C4
:101A200005F008FF236885F001052046DB6829469C
:101A300098474FF47A7002F0E1FDE2E72368204610
:101A4000BDE8F047DB6800211847BDE8F08700BF1C
:101A500000007A44219A01082E9A010800002040D3
:101A600008B50D49012003F05DF90C490B2003F086
:101A700059F90B490A2003F055F90A49042003F0EB
:101A800051F90949072003F04DF9BDE8084007491D
:101A9000052003F047B900BFC5950008D598000898
:101AA00061970008ED99000841990008C99900085C
:101AB000002310B50C461A460D21074802F082FF9C
:101AC00014B1012C00D010BD2246BDE810400D21FC
:101AD000014803F045B800BF00080240002310B5DC
:101AE0000C461A460C21074802F06CFF14B1012C79
:101AF00000D010BD2246BDE810400C21014803F083
:101B00002FB800BF00000240014803F095B800BFA5
:101B1000A086010003F060B803F07AB82DE9F04127
:101B2000069F1E4607F00303032B80460C4615460E
:101B300003D119210D4801F05BFE2046BC07324657
:101B400029460AD503F0B2F810B10120BDE8F081B2
:101B50000123002088F80430F8E7FB0702D503F0E2
:101B6000B3F8F1E703F094F8EEE700BFAC9A010890
:101B70002DE9F041069C0D46E107804616461F46BA
:101B800003D536210D4801F033FEA20703D53921D4
:101B90000A4801F02DFE23043A46314628460AD56C
:101BA00003F0A0F810B10120BDE8F081012300206E
:101BB00088F80430F8E703F05DF8F3E7AC9A010821
:101BC00008B50321034802F0D4FF003018BF0120FC
:101BD00008BD00BF000402400A460248032102F08B
:101BE000BFBF00BF0004024008B581B1012303213B
:101BF0001A460A4802F0E6FE0321084802F0A4FF54
:101C0000BDE8084003220548114602F0BBBE012290
:101C1000BDE808400321014802F012BF0004024061
:101C200003F01EBA084611461A469DF8003003F02C
:101C3000B7BA03F063BA03F07BBA084603F0F4B80E
:101C4000DFB50023CDE90133ADF80C3001238DF869
:101C500007308DF808306FF01D038DF80930072329
:101C6000044601A88DF80A3005F021FD23680646D8
:101C70001B6820460F469847864277EB0103B4BFA6
:101C80000120002004B0D0BD704770477FB500F13F
:101C90000806054630460C4611F0A6FA60BB3348EC
:101CA00005F0C8FDA27C617C314805F0C3FD637C72
:101CB0003BB16868002103681B689847022000F068
:101CC00085F8A37C3BB16868002103685B6898478E
:101CD000022000F099F861684E2918D04F2916D0DB
:101CE000452914D01521234801F082FD1621224BED
:101CF000224A204812F096FD6421304611F060FA25
:101D00000028CFD142211B4801F072FDCAE7A36829
:101D1000073B022B15D81A4AD25CE3680A2B18D06D
:101D200009DC052B16D03321124801F061FD124B5E
:101D3000144A3421DDE70F2B0CD0142BF3D10223EE
:101D400008E023210B4801F053FD0B4B0E4A2421E0
:101D5000CFE70123A07C0290607C0190207C009062
:101D6000206803F0A5FC04B070BD00BF3F9B0108D4
:101D7000989B0108589B0108B59B0108E09B01084E
:101D80003C9B0108109C0108449C010810B50446C6
:101D900003F060FC04F10800BDE8104011F027BA20
:101DA000084603F055BD03F07BBC084603F080BD38
:101DB00010B50446044BC0E900310121083011F090
:101DC00021FA204610BD00BFC49B0108042817D883
:101DD000DFE800F00309100E1200002303211A4669
:101DE000084802F0EFBD00220321064802F028BE99
:101DF0000222F9E70122F7E70321024802F046BE7A
:101E0000704700BF00000240042817D8DFE800F048
:101E10000309100E1200002302211A46084802F09E
:101E2000D1BD00220221064802F00ABE0222F9E7D3
:101E30000122F7E70221024802F028BE704700BFE6
:101E40000000024010B50446C06908B105F068FD05
:101E5000206908B105F064FD606808B105F060FD17
:101E6000204610BD10B50446006808F0C7FC2046A7
:101E700010BD00001FB553680293137801934B689F
:101E800000930B6842680178024805F0D3FC05B066
:101E90005DF804FB7C9C0108CA21014801F0A8BC44
:101EA0009A9C0108FE2307B58DF80430054B01A963
:101EB0001868002300681A4608F08CF903B05DF832
:101EC00004FB00BF78050020D0B51F467423C0E98D
:101ED00000310023044683600820164610F0F8FA0B
:101EE000C0E90067A0602046D0BD70B51D466923DB
:101EF000C0E900310023044683600820164610F034
:101F0000E7FAC0E90065A060204670BD036837B5F8
:101F1000632B04460D4601D0FFF7BEFF002301AA44
:101F2000A1682846019305F06BFA019B1BB138218B
:101F3000024801F05DFC03B030BD00BFDC9C01082D
:101F400070B563230025C0E90031044685601A207E
:101F5000164610F0BDFA1A22294612F0AFFD31469E
:101F6000A0602046FFF7D2FF204670BD8164704715
:101F7000C16470472DE9F843D0E901738846002514
:101F80004FF00C09DB1B0A4E9B105E43ECB2B442CF
:101F90000BD209FB04724146506813F067FC01350F
:101FA0000028F3D12046BDE8F8834FF0FF30FAE770
:101FB000ABAAAAAA2DE9F843D0E904738846002504
:101FC0004FF00C09DB1B0A4E9B105E43ECB2B4428F
:101FD0000BD209FB04724146506813F047FC0135EF
:101FE0000028F3D12046BDE8F8834FF0FF30FAE730
:101FF000ABAAAAAA2DE9F0470E4649680446FFF7A6
:10200000B9FFC0B2FF2803D07C212C4801F0F0FBBF
:10201000D4E901232A4F9B1A9B107B437E2B03D9C3
:102020007F21264801F0E4FBD4E901120C25E06889
:10203000531A9B10121A7B4392107A430133934236
:1020400005FB03F80ED84144A160D4E9013496E8B9
:102050000700E31A04E9070019489B1058430138A8
:10206000BDE8F087404605F071FC054618B96921C6
:10207000144801F0BDFBD4E901C300274FF00C0A5E
:10208000A3EB0C030E4A9B1002FB03F9A9EB070319
:10209000002B0ADD0AFB07F305EB030E634493E80C
:1020A000070001378EE80700F0E7604605F038FCCE
:1020B00065604544C4E90255C7E700BFDC9C0108E0
:1020C000ABAAAAAA479D01081FB56E23CDE901312D
:1020D000002301A90393FFF78DFF05B05DF804FB12
:1020E0000023FF2270B54FF00041C0E90033C0E982
:1020F0000233C0E90433C0E90633C0E9083380F88D
:102100002820044600206FF07F42C4E90C01C4E996
:102110000E014FF0FF31C4E91233C4E9101200235D
:1021200005221E4DC4E914232A6812F0010212D1BF
:1021300001211B4E0846326007F072FF306018B96B
:102140001121184801F054FB0123174A174914487C
:102150002B6011F075F8164B1A680AB9104A1A600C
:1021600014492046FFF7B0FF134B1449187020465E
:10217000FFF7AAFF124B134918702046FFF7A4FF80
:10218000114B124918702046FFF79EFFFE22104B9C
:102190001870104B20461A7070BD00BF74050020E7
:1021A000E80500207F9D010800000020651E000852
:1021B00078050020B99D010880050020C19D010817
:1021C0007E050020C99D01087C050020CE9D0108E8
:1021D0007F0500207D05002010B5084C2368DB0733
:1021E00009D40748FFF77CFF0123064A0649044843
:1021F000236011F025F8024810BD00BF70050020D3
:102200009005002000000020451E00082DE9F04741
:102210000E4649680446FFF7CDFEC0B2FF2803D042
:1022200087212C4801F0E4FAD4E904232A4F9B1AB1
:102230009B107B437E2B03D98A21264801F0D8FAD4
:10224000D4E904120C25A069531A9B10121A7B437F
:1022500092107A430133934205FB03F80ED84144B0
:102260006161D4E9043496E80700E31A04E9070041
:1022700019489B1058430138BDE8F087404605F0E7
:1022800065FB054618B96921144801F0B1FAD4E993
:1022900004C300274FF00C0AA3EB0C030E4A9B105B
:1022A00002FB03F9A9EB0703002B0ADD0AFB07F386
:1022B00005EB030E634493E8070001378EE807003F
:1022C000F0E7604605F02CFB25614544C4E905555F
:1022D000C7E700BFDC9C0108ABAAAAAA479D01087A
:1022E00038B5D0E901239B1A074A9B105343CDB25E
:1022F0009D42044603D3A621044801F079FA0C203C
:10230000636800FB053038BDABAAAAAADC9C0108B3
:1023100038B5CCB2114905460B6813F0010307D15B
:102320000F4A70201372012310600E480B6050603A
:10233000FF2C10D0D5E904239B1A0B4A9B10534362
:102340009C4203D3B221094801F052FA0C232869B8
:1023500003FB040038BD0248FCE700BF6C05002009
:10236000840500201E9D0108ABAAAAAADC9C0108D6
:1023700010B5D0E90730C9B2D2B2834209D01C7877
:102380008C4204D15C78944201D1987810BD03331B
:10239000F3E74FF0FF30F9E72DE9F041D0E90423EE
:1023A0009B1A524A9B1053430D46097804469942A2
:1023B00003D393214E4801F01BFAD4E901239B1A61
:1023C0004A4A9B1053436978994203D39421484861
:1023D00001F00EFAD4E904239B1A444A9B1053439C
:1023E000A978994205D3FE2903D09521404801F0F0
:1023F000FFF96A7829782046FFF7BAFFC3B2FF2BAE
:10240000064629D029782046FFF782FF69780746DB
:102410002046FFF765FF314680462046FFF778FFEC
:10242000414602463846FFF725FD29782046FFF74A
:102430006FFF697806462046FFF752FFA9780746E6
:102440002046FFF765FF394602463046FFF712FD8A
:102450009C21274801F0CCF9D4E90723234F9B1A8C
:102460007B437E2B03D99F21214801F0C1F9D4E998
:102470000721606A8B1A7B43091A4F430133BB4221
:1024800003EB43080AD8424422622A88236A23F8CD
:10249000032CAA7803F8012CBDE8F081404605F032
:1024A00055FA064618B96921124801F0A1F9D4E994
:1024B00007010B1A0D4959430023CA1A002A0DDDE2
:1024C00003EB43028718B7F800E006EB020C26F88E
:1024D00002E0BA7801338CF80220EEE705F020FA2A
:1024E000E6614644C4E90866CFE700BFABAAAAAAE2
:1024F000DC9C0108479D010813B5FF24074B8DF8AC
:1025000004401B680A46186801A907F007FF012864
:1025100014BF20469DF8040002B010BD78050020CD
:1025200038B5816800681D46144605F05BFA03461D
:10253000201845EBE37138BD2DE9F0410E681046D7
:10254000722E1F4624D0742E08D0632E12D0002481
:102550004FF0004520462946BDE8F0818B68D3E95D
:102560000023B3F1004F08BF002A16D0841847EBB0
:102570000305EFE7886805F003F8002871F1000310
:1025800004460D46E6DADD21054801F031F9E1E7C0
:102590008868BDE8F041FFF7C3BF14461D46D9E780
:1025A000DC9C01082DE9F0410F4606460024FFB2ED
:1025B000FFF7AEFED6E90758454511D02B78BB4250
:1025C0000CD169783046FFF78BFE0368692B05D183
:1025D00083681B6803B198470134E4B20335EBE725
:1025E0002046BDE8F0812DE9F34180460F460025E5
:1025F000FFF78EFED8F81C40D8F82060033403366D
:10260000FFB2A6421BD0234633F8032D9B78ADF8CA
:1026100004208DF8063014F8033C9F420DD19DF83C
:1026200005104046FFF75CFE0368692B05D18368FF
:102630005B6803B198470135EDB20334E1E7284602
:1026400002B0BDE8F0810000836C73B504460D460E
:10265000164623B94FF48C710B4801F0C9F8CDE947
:10266000006423462A460949094808F0A7F90128C9
:1026700007D04FF48F71044802B0BDE8704001F0FC
:10268000B7B802B070BD00BFDC9C01083C9D0108DA
:10269000C92B000838B590F847300446032B0D4687
:1026A00004D940F23111064801F0A2F894F84730FD
:1026B0005A1C84F847201C4484F8425038BD00BF9F
:1026C000DC9C010810B590F84730044623B94FF45C
:1026D0009B71064801F08CF894F84730013BDBB25F
:1026E00084F847301C4494F8420010BDDC9C01087B
:1026F000CBB2FE2B10B504460AD0FFF709FE0368E3
:102700006D2B05D1017A2046BDE81040FFF700BED1
:1027100010BD00002DE9F84304460026114FD4E90E
:1027200004239B1A9B107B435FFA86F8434516D916
:1027300041462046FFF7DCFFD4E90759A9450CD0F4
:102740002B78434507D169782046FFF7C9FDA97862
:102750002046FFF7CDFF0335F0E70136DFE7BDE8A0
:10276000F88300BFABAAAAAA70B56FF04106044671
:1027700000F14205361A94F8472073199A4205DD94
:1027800015F8011B2046FFF7C3FDF4E770BD0023D9
:102790002DE9F04FC0E90433884619464FF0004355
:1027A0000446C0E90213C0E90013FF2085B0CDE95B
:1027B0000013DDE90E6720745FFA82F9D8E907504B
:1027C0000390039BD4E900AB9D4220D02B784B456E
:1027D0001BD169784046FFF783FD32463B460146F0
:1027E0004046FFF7A9FEDDE90023994208BF904269
:1027F0000BD09B4508BF924503D0504571EB0B03AE
:1028000003DA6B78C4E9000123740335D9E7BBF11F
:10281000004F08BFBAF1000F05D0BAEB06066BEB0C
:102820000707C4E90267204605B0BDE8F08F000045
:10283000F8B50D460B4B896806464B434FF47A7149
:10284000B3FBF1F1FFF758FE0446C7B2B06C036862
:102850001B689847FF2FC6E90E010CBF287C204655
:10286000F8BD00BF40420F0070B5C36C86B004468F
:102870000D4623B906B0BDE87040FFF7D9BF806CA4
:10288000194903681B699847A06C03689B689847BF
:10289000D5E9002303A804F0E5FEA06C9DF80C2008
:1028A000036800929DF80F109DF80E205E689DF859
:1028B0000D30B047A06C0368DB689847E36C98471D
:1028C000A06C03689B689847A06C03681B689847D6
:1028D000C4E90E0100212046FFF70EFEC0B2FE281B
:1028E00008BF287C06B070BDA51E00082DE9F84978
:1028F0009046D1E90023B3F1004F08BF002A0546F6
:102900000C463BD0D4E90201012871F1000302DA40
:10291000207CBDE8F889B8F1000F12D02146284686
:10292000FFF786FFC0B2FF2816D140F20E211948EA
:1029300000F05EFF184B194A40F20F21154811F0C4
:1029400071FFD5E91423904271EB0303E6DB2146C6
:102950002846FFF789FFE5E7237C8342D9D1D5E9F3
:102960000EBCD4E90067B3457CEB0703D1DAB6EBC4
:102970000B0267EB0C03C4E90223C3E7B8F1000FB5
:1029800003D0BDE8F849FFF753BFBDE8F849FFF7AA
:102990006BBF00BFDC9C0108B59B0108FB9D0108D3
:1029A00070B588B004460D46FFF7B2FC03680646D2
:1029B000702B04D04FF49E71214800F019FFA06CD9
:1029C00003681B6898472A46C4E90C01CDE9000159
:1029D000214602A8FFF7DBFE29462046FFF7E2FD6D
:1029E0009DF81830FF2B1BD188B100224FF0004317
:1029F000CDE90423327A02A92046FFF777FF064685
:102A000029462046FFF7EFFD304608B070BD40F282
:102A100047110B4800F0ECFE9DF81830FF2BE4D076
:102A20009DF818102046FFF75BFCD4E90C10029BC0
:102A3000039A5B1A62EB0002CDE90432DAE700BFC9
:102A4000DC9C010870B504460D46FFF761FC036885
:102A50006D2B11D0702B09D0612B0DD1836894F8A8
:102A6000411094F84000BDE87040184729462046C0
:102A7000BDE87040FFF794BF40F22B11024800F010
:102A8000B7FE4FF0FF3070BDDC9C01082DE9F04728
:102A900090F828300446FF2B04D14FF4D0714648FB
:102AA00000F0A6FE94F828102046FFF731FC94F8B9
:102AB0002830DFF8108184F8463094F8461020461C
:102AC000FFF726FC036805466D2B204694F8461058
:102AD0000BD1FFF7DFFD297A204684F84610FFF777
:102AE00017FC2046FFF740FEE7E7FFF7ABFFC3B256
:102AF000FF2B07460BD140F2B5112F4800F078FEAE
:102B000040F2B5112D4B2E4A2B4811F08BFE024698
:102B100094F846102046FFF72BFCC5B2FF2D09D1D3
:102B200040F2BB11244800F063FE244B244A40F2DB
:102B3000BB11E9E794F84610FE2D20461DD1FFF7A2
:102B4000C1FD064601462046FFF7E2FB3A46314604
:102B50002046FFF70DFCC5B2FF2D09D14FF4E371FC
:102B6000154800F045FE154B154A4FF4E371CBE7CD
:102B70002046FFF7F9FD3146DEE7FFF7C9FB39468E
:102B800006462046FFF7ACFB294681462046FFF764
:102B9000BFFB8246404604F04DFE52464946304651
:102BA000FFF768F994F8463084F8417084F84030B3
:102BB00084F8465081E700BFDC9C0108B59B010802
:102BC000D69D01082C9D010808B5FFF705FBFFF70E
:102BD0005DFFD0B51F461646FFF782FB0368846889
:102BE000742B01D0FFF758F9C4E90067D0BD00008D
:102BF000FF23054A1370054A1370054A1370054AEE
:102C00001370054A13707047800500207E05002070
:102C10007C0500207F0500207D05002010B50446BE
:102C2000006807F0EBFD204610BD10B504460068B3
:102C300007F0E4FD204610BD1FB50AF0DFF90023C0
:102C4000ADF80C300E4B5A7812B101228DF80C20E1
:102C50001B7813B101238DF80D300023094A0A496E
:102C60000A4800931278039B097800680AF046FB33
:102C700020B1074B187805B05DF804FB054BF9E768
:102C80001006002013060020120600200C0600206B
:102C90007C0500207E05002008B500231A4607F0B9
:102CA00099FA431E5842584108BD000007B50B78F9
:102CB000012B11D05AB22AB1022B11D00A4804F0CC
:102CC000B9FD06E00192094B01A91B681868FFF7DE
:102CD000E3FF03B05DF804FB4FF0FF330193F2E72D
:102CE000024B04311B68F1E733A001080406002001
:102CF0001FB56123CDE9013101A90392FFF786FADF
:102D000005B05DF804FB000030B5044685B00D4603
:102D100000F010F86D22064B01A91B782046CDE982
:102D200001258DF80C30FFF771FA05B030BD00BFFA
:102D3000160600202DE9F04F554B85B01A78044651
:102D4000002A40F0A180012652491E70FFF7BCF90D
:102D5000514B524918702046FFF7B6F9504B514974
:102D600018702046FFF7B0F94F4900230A22087077
:102D70004E4901A8FFF7A8F801A801462046FFF731
:102D800039F94B4F4B4938702046FFF79DF94A4DB2
:102D90004A4A28704A492046FFF7AAFFDFF854B193
:102DA000484A8BF8000048492046FFF7A1FF4749F1
:102DB00005462046FDF796FC70238046019301A846
:102DC000434B0146204602938DF80C60FFF71EFA34
:102DD000404A824640492046FFF78AFF3F4E40491D
:102DE00030702046FFF790FF81463E482B46027820
:102DF0009BF800102046FDF782FC294A43462946ED
:102E000012782046FDF77BFC274953460A78204676
:102E10002946FDF774FC2B463A7841462046FDF7DB
:102E20006EFC2B463A7851462046FDF768FC2E4A48
:102E30002B4629462D4F12782046DFF8BC80FDF73F
:102E40005EFC29461C4D3B7898F800202046FDF793
:102E500056FC4B462A7831782046FDF750FC3378F3
:102E600098F8002049462046FDF749FC204A3B7867
:102E7000127831782046FDF742FC1A483B780278F8
:102E800031782046FDF73BFC05B0BDE8F08F00BF70
:102E90000A0700208CA001081406002096A0010853
:102EA00017060020A1A00108F8050020ADA0010828
:102EB000F9050020BAA0010818060020392C0008E6
:102EC000C6A0010859330008D0A00108E4A00108F9
:102ED000F7A00108CD3300080BA101080806002067
:102EE0001CA101087C0500207F0500207D05002035
:102EF0001906002016060020800500202DE9F84361
:102F00002B4B04461A682B4E12F0010F4AD1FF22B8
:102F1000327001221A602046FFF70CFF264A27492B
:102F20002046FFF7E5FE264A307026492046FFF787
:102F3000DFFE254D254928702046FDF7D3FB2449A7
:102F400081462046FDF7CEFB0746224A2B78317892
:102F500020461278FDF7D3FB1F4A337829782046A4
:102F60001278FDF7CCFB1D4ADFF878804B462978B4
:102F700020461278FDF7C3FB2B7898F800204946CD
:102F80002046FDF7BCFB164A3B46297820461278BE
:102F9000FDF7B5FB2B7898F8002039462046FDF761
:102FA000AEFB02E03378FF2BB5D03078BDE8F88374
:102FB000F40500200B0700207D3400082DA1010836
:102FC0000930000837A101081506002041A10108B9
:102FD0004FA10108140600208005002017060020DC
:102FE0007E050020F905002070B50D460446FFF768
:102FF000F3F8044922462B46BDE870400978FFF7F4
:10300000E8BD00BFF9050020F7B5414C26689EB920
:1030100004200FF05DFA32460546066004210120C7
:1030200006F0FEFF286018B911213A4800F0E0FBD5
:10303000394825600AF002F8384F394E3968394866
:103040000131396004F0F6FB09F0D8FF33781BB981
:10305000012333700AF008F8002301932368324AF1
:1030600001A9186807F05AF9012806D02F4804F082
:10307000E1FBFB212E4800F0BBFB019D6B1C24D122
:103080002C4804F0D7FB3C681E21013CE4B21E2C06
:1030900028BF1E24002001FA04F4B4F5E15F30706B
:1030A00028BF4FF4E15404F09DFC0025261845EBA1
:1030B000E0773146204804F0BDFB30463946FFF743
:1030C00093FF1E4B187803B0F0BD4DB129461C4844
:1030D00004F0B0FB01980021FFF786FF194BF1E7E0
:1030E00019483D6004F0A6FB09F032FF23686BB17C
:1030F000284609F0A3FF256835B1286807F07EFB54
:10310000042128460FF0F2F9002323600F4BD9E782
:10311000040600207F9D0108AD2C00082806002031
:10312000240600208C9E0108A08601009F9E0108B5
:10313000B99E0108059F01081C9F01087E0500201B
:10314000339F010817060020489F010880050020D2
:1031500082B0ADF80430064B1870064B1A70064B5F
:10316000BDF804201960054B1A8002B0704700BFFB
:1031700013060020120600200C0600201006002076
:103180004FF47A7337B5002403FB00F20749B2FB12
:10319000F3F20D6801A92868019407F001FA0128EB
:1031A00014BF2046019803B030BD00BF00060020C8
:1031B0004FF47A7337B5002403FB00F20749B2FBE2
:1031C000F3F20D6801A92868019407F0A7F8012817
:1031D00014BF2046019803B030BD00BFFC0500209D
:1031E000034B93F82A30022B0CBF022000207047BB
:1031F0009000002070B51D46002304460360417115
:10320000164602B115B92371204670BD28460FF04D
:1032100069F92A462060314611F028FC2571F3E750
:1032200010B50446006808B10FF05EF9204610BDE5
:10323000F7B5184D04462A6822B94FF49171164823
:1032400000F0D6FA24B3637F13B3237F03B30820BF
:103250000FF03EF9237FA26C617F06466789FFF776
:10326000C9FF002328681A4601A90068F780019663
:1032700006F0FAFE01280BD0084804F0DBFA019CA6
:1032800034B12046FFF7CCFF082120460FF02EF97D
:1032900003B0F0BD00060020B99E010861A001083E
:1032A00010B50446FFF7C4FF24B12046BDE8104026
:1032B0000BF0CCBF10BD00007FB542F2107009F0DA
:1032C000C3FE04461F4804F0B5FA002C37D0A06FA7
:1032D000FFF7AEFF2578022D2DD160680021FFF7A2
:1032E00083FEA36FF3B1D3E9142313431AD0164B13
:1032F0001E6807F085FD01461448B047A36FD3E967
:10330000140104F017FAA36F01461A6D104804F077
:1033100091FAA36F01A8D3E9142304F0A3F901A83B
:1033200001F030FE0B4804F085FA20460AF04CFD0F
:10333000284604B070BD032DD3D10020CEE701256F
:10334000F6E700BF589F010890000020769F010813
:10335000839F0108B49F0108002310B5144C84F822
:103360002E3009F029FE08B109F048FEFFF7A4FF4E
:10337000032815D8DFE800F005020A080D4804F01C
:1033800059FA0D4B187810BD0C4BFBE7FFF728FFDF
:10339000022809BF01230A4B84F82E30094BF1E7BC
:1033A00009484FF4FA7100F023FA4FF0FF30EAE7D2
:1033B0009000002019A00108800500207F05002052
:1033C00017060020F8050020B99E010870B50020FE
:1033D0000021FFF7D5FE28B1194804F02BFA194B4C
:1033E000187870BD00200021FFF7E2FE044620B3EC
:1033F00002794179144804F01DFA2279134BDE2A30
:1034000028BFDE222168184611F030FB034666799A
:103410000F48257906700F48A17905700E48E279AA
:1034200003600E4B204619705A70FFF7F9FE082111
:1034300020460FF05BF80A4BD2E70A4BD0E700BFFB
:10344000CD9F010819060020E49F01082C060020EA
:1034500013060020120600200C0600201006002093
:10346000180600207C05002010B50446006810B145
:1034700001210FF03BF8204610BD000070B54F4B06
:10348000C0B21B788AB0984201D14D4B7DE00EF05E
:10349000A5F84C4904460DF021FF0546002877D0D9
:1034A000494A214601A80DF022FF484A214604A8B6
:1034B0000DF01DFF464A214607A80DF018FF079A98
:1034C000049901980AF052F807A8FFF7CDFF04A865
:1034D000FFF7CAFF01A8FFF7C7FF3E4920460DF0DE
:1034E00017FF40B20BF014FD09F0C2FF3A49204625
:1034F0000DF00EFFC0B20BF0D9FC09F0AFFF374959
:103500002046374C0DF0EAFE0AF002F8226812F06D
:10351000010212D10421334E0846326006F080FDCC
:10352000306018B91121304800F062F901232F4AA8
:103530002F492C4823600FF083FE2E4B1A680AB9DE
:10354000284A1A602C4C226812F0010212D1042180
:103550002A4E0846326006F063FD306018B911212A
:10356000214800F045F90123204A254923482360DA
:103570000FF066FE234B1A680AB9204A1A602248E7
:1035800009F0DCFF002D80D0204B18780AB070BD08
:10359000214601A81E4A0DF0AAFE214604A81D4A94
:1035A0000DF0A5FE214607A81B4A0DF0A0FE049AC7
:1035B0000799019809F0C8FF86E700BF15060020AB
:1035C00080050020509E0108559E01085C9E010860
:1035D000639E0108819E0108899E0108B0C401080C
:1035E000F0050020200600207F9D0108000000203B
:1035F0002B2C000800060020EC0500201C060020F3
:103600001D2C0008FC050020A13200081406002033
:103610006A9E0108719E0108799E0108FF23094AEC
:103620001370094A1370094A1370094A1370094A42
:103630001370094A1370094A1370094A1370094A32
:10364000137070471606002015060020080600209B
:103650001906002018060020140600201706002076
:10366000F8050020F905002008B5064804F0E2F846
:103670000020054B1870054B1B689847BDE80840B3
:103680000FF046B878A101080C07002010070020B1
:1036900010B50D4C0D4804F0CDF823680020984774
:1036A0000B4B19780B4B18780FF098F8642007F043
:1036B000F9FC236808489847642007F0F3FC0122CE
:1036C000064B1A7010BD00BF100700205EA1010854
:1036D0001000002011000020E13600080C07002037
:1036E0000B4B07B51B7883B101F0BAFC094BC3E95A
:1036F0000001094B01A91B788DF80430074B1868AD
:10370000002300681A4606F065FD03B05DF804FB6F
:103710000C07002008000020140700207805002076
:1037200030B50D4B85B01A7805460C4C82B100229D
:103730000B491A7001A80B4B0B4AFEF7D6FB01A9E7
:103740002846FEF757FC01462070084804F072F83E
:10375000207805B030BD00BF120000201407002003
:1037600093A10108693600089136000898A1010864
:10377000FF22014B1A70704714070020014B18609C
:10378000704700BFA007002073B5134C064623788E
:103790000D46124A1BB913780BB172B6FEE701232E
:1037A000002113700E48642211F088F92B46009610
:1037B0000C4A64210A4812F005F80B4B1B6803B150
:1037C00098470125064E304604F078F872B6074B4C
:1037D0002570013BFDD1F6E780070020150700208A
:1037E00017070020C0A10108A0070020FFFF0F005D
:1037F00073B5134C064623780D46124A1BB913784D
:103800000BB172B6FEE70123002113700E4864224B
:1038100011F054F92B4600960C4A64210A4811F025
:10382000D1FF0B4B1B6803B19847074804F046F8DB
:10383000084804F043F872B601232370FEE700BF86
:10384000810700201607002017070020E8A10108C3
:10385000A0070020F7A101080368DFF888C080B541
:10386000CCF80030164F4368164E3B608368164D07
:103870003360C36815492B600369154A0B604369BF
:10388000144C13608369C0692360134B1860DCF823
:1038900000003868306828680968104812680021FC
:1038A000226864221B6811F009F923680C4A64211C
:1038B0000A4811F087FF094804F000F8FEE700BF4E
:1038C00090070020980700209C0700209407002004
:1038D0007C070020840700208807002017070020AD
:1038E000ADA101088C070020074B1B6803B1984766
:1038F0001EF0040F0CBFEFF30880EFF3098081691D
:10390000004A104759380008A00700200FB404B03F
:1039100070470000024B01465B690248184700BF30
:10392000FC0700206DDB01081FB5C37A0293037BFF
:103930000193437B0093044B427A5C69017A837A5A
:103940000248A04704B010BDFC07002043A20108B4
:103950002DE9F0410B7C0546532B8B7D0CBF4FF0BE
:10396000FF370127488B572B0CBF4FF0FF384FF024
:1039700001080C4610F038FB224910F041FC0646C5
:10398000207E10F031FB0146304610F07DFA1E49D2
:1039900010F036FC0646E07D10F02AFB014630466A
:1039A00010F072FA0646404610F022FB01463046FF
:1039B00010F072FB0646A08A10F016FB114910F0B9
:1039C0001FFC8046A07C10F00FFB0146404610F023
:1039D0005BFA0D4910F014FC8046607C10F008FB87
:1039E0000146404610F050FA0446384610F000FBFD
:1039F0000146204610F050FB6E6028602846BDE866
:103A0000F08100BF00401C460000704270B588B0D5
:103A10000446014606A8FFF79BFF0798104910F0DF
:103A20003BFB0FF0C9FECDE9040106980C4910F0EC
:103A300033FB0FF0C1FECDE90201E069084910F047
:103A40002BFB0FF0B9FECDE90001E6786578054B58
:103A500032465B6929460448984708B070BD00BFEC
:103A600000007A44FC07002013A2010884B070B55E
:103A700004AC84E80F000021274C40222162274833
:103A800011F01CF804F108050AAB04AE93E803003A
:103A900084E803000FCE0FC596E80300636985E84C
:103AA00003000BB91E4B6361A3880BB90323A380EA
:103AB000E38813B94FF40073E380A3690BB9194B82
:103AC000A361E3690BB9184BE361A3680BB9174B0A
:103AD000A360E3680BB9164BE36023690BB9154B80
:103AE0002361A369E0889847134B186078B1134BA2
:103AF000E188186118460EF0E8FA2368074A104872
:103B0000002B08BF13462362636998470120BDE874
:103B1000704004B0704700BFFC070020BC070020C5
:103B20000D390008314A0108414A010815390008D9
:103B30000D3A000829390008B8070020A407002022
:103B40006DA201082DE9F04F4FF00009B1B00AACA9
:103B5000962200212046C44E10F0B0FFCDF8009010
:103B600021469622C1480EF0EBFA011E09DD052917
:103B70001DDCBD4DBE486B6998476B692146BD4849
:103B80009847009B23B1B84AD3680BB1106A984795
:103B9000B9F1000F00F07B82B34A13690BB1106AD0
:103BA0009847012000F0010031B0BDE8F08F9DF88A
:103BB0002830242B4AD1254622460027012012F81E
:103BC000013F002B42D02A2B00F101003CD11022F2
:103BD0000021204412F09AFDB84237D1B368002B7F
:103BE0003CD1A549204603F00AFF002840F051824D
:103BF000A249204603F003FF002840F04A82A04972
:103C0000204603F0FCFE002840F050829D492046EB
:103C100003F0F5FE002840F049829B49204603F05E
:103C2000EEFE28B99949204603F0E9FE002897D016
:103C3000974903A80027356A039411F056FEB84649
:103C40000346BB46BA46B7E15F40B8E7736991489F
:103C50009847736921468748984781E720469847E7
:103C6000BFE7BBF1080F33DC00228AF811208AF885
:103C70001220AAF8142019220021404610F01EFF3D
:103C80004FF0000B0137204611F002FE2044854220
:103C9000BFF466AF15F8011B2C2940F0CC80002F33
:103CA000E9D0B91E0729E6D801A353F821F000BFD7
:103CB000633C00083B3D0008453D0008D73D000837
:103CC000E13D0008153E0008773C00081B3E000857
:103CD0009DF80C209DF80D10303A303902EB82022D
:103CE00001EB42028AF811209DF80E209DF80F107A
:103CF000303A303902EB820201EB42028AF812209C
:103D00009DF81120303AC2EB421102EB81019DF87F
:103D10001420303A02EBC1029DF81210303901EB49
:103D2000810101EB810102EB81029DF81310303912
:103D300001EB810102EB41029BE79DF80C208AF820
:103D4000102098E7BBF1070F07DC00228AF8172044
:103D50008AF81820AAF81A208DE79DF80C209DF803
:103D60000E10303A02EB8202303902EB820201EB94
:103D700082029DF80D10303901EB810102EB410206
:103D80008AF817209DF80F209DF81010303A30392E
:103D900002EB820201EB42028AF818209DF8122001
:103DA000303AC2EB421102EB81019DF81520303A06
:103DB00002EBC1029DF81310303901EB810101EBD8
:103DC000810102EB81029DF81410303901EB810171
:103DD00002EB4102BEE79DF80C208AF816204AE764
:103DE0009DF80C102C483039C9B28AF8011072695C
:103DF000904740E70A2318F800C00130ACF1300CBE
:103E000003FB01C18345F5D18AF803107269C9B279
:103E10002248EDE700200146F4E7404610F020FD7F
:103E20000FF0DCFF326ACAF81C0053785BB993705C
:103E30000123009394E630AB03EB0B0000F8B41CB5
:103E40000BF1010B1FE7B088937883423CBF01332D
:103E500093709178736988429EBF01201070009022
:103E600012780F4898477BE6FC070020A407002043
:103E70007FA201086DDB0108B6A20108BDA20108FE
:103E8000C4A20108CBA20108D2A20108D9A201084C
:103E900014A30108A0A20108E0A20108EAA20108F7
:103EA000FAA2010815F8013B2C2B6FD1B8F1000FD5
:103EB00005D0B8F1010F12D0B8F1090F35D0192291
:103EC000002103A810F0FAFD4FF0000B08F10108E3
:103ED000204611F0DDFC20448542E3D340E603A8F0
:103EE00011F0D6FC0528EAD9BDF80C300A220021D1
:103EF00002A8ADF808308DF80AA012F007FC38725D
:103F0000BDF80E300A22002102A8ADF8083012F0E8
:103F1000FDFB7872BDF810300A22002102A8ADF82E
:103F2000083012F0F3FBB872C9E703A811F0B0FC37
:103F3000052802D84FF0010912E60025BDF80C3023
:103F40000A22294602A8ADF808308DF80A5012F06E
:103F5000DDFB7873BDF80E300A22294602A8ADF8C1
:103F6000083012F0D3FB3873BDF810300A2229460E
:103F700002A8ADF8083012F0C9FBC0B2F8721038D0
:103F800012288CBF00200120F873D3E730AA5A44CE
:103F900002F8B43C0BF1010B9AE7012A24D10A2262
:103FA0000021184612F0B2FB5FFA80FB454903A8D6
:103FB00011F09BFC03460137FAB2002BEDD1D84536
:103FC0007FF4CEAD95F8233095F822209A4202D0A6
:103FD0000C2B7FF4C5AD012385F8203095F82430F3
:103FE000013385F82430BBE5022A18D10A220021CA
:103FF000184612F08BFB5FFA80F8B8F1010F04D07D
:1040000095F8213001334345D9D1B8F1010F85F836
:104010002180CBD185F823A085F820A0C6E7032A0C
:1040200007D10A220021184612F070FB85F8220001
:10403000BCE7BBD912F003010CD118460A2212F0DA
:1040400065FB95F823300B2BB0D805EB430383F8C1
:104050002500ABE7062AA9D9073A12F00301A5D13A
:104060000A221846019312F051FB019B1B78002B8A
:1040700008BFFF2095F82330C0B20B2B9FBF05EB84
:104080004302013382F8260085F823308EE700983A
:1040900088E54FF0000B0DF10C0819220021404675
:1040A000D6F820A05F4610F009FDECE54FF0000BBC
:1040B0001922002103A8376AD84610F0FFFCDA461F
:1040C00006E700BF14A30108014B186A704700BF40
:1040D000FC0700200022024B1B6A9A701A7070477E
:1040E000FC07002007B501228DF807000DF107013C
:1040F00002480DF0F1FF03B05DF804FBA4070020B7
:1041000008B5642006F0CEFFFFF71CFDF9E70000BC
:1041100007B5074B4FF4FA72019302230549009348
:104120000548002306F04AFC03B05DF804FB00BF1D
:10413000200800202490010801410008002103E02C
:104140000A4B5B584350043109480A4B42189A42C3
:10415000F6D3094A02E0002342F8043B074B9A4297
:10416000F9D300F00DF8FCF74BFC704728E3010889
:1041700000000020E4030020E80300201850002085
:10418000314B82B01A6842F480721A6099682F4AE3
:104190000A409A601A6822F0885222F001121A60CE
:1041A0001A6822F480221A609A6822F47D029A60CA
:1041B0000022DA6001921B6813F4007318BF012318
:1041C0000193019B012B37D14FF48051204B1A688A
:1041D000A3F5806322F00102C3F80024D3F8002481
:1041E00022F00202C3F80024D3F8002422F00402D3
:1041F000C3F800245A6A42F080525A62154A11608C
:104200005168C906FCD49A689A609A689A609A685C
:104210009A605A6822F460425A605A6842F44042F6
:104220005A609A6822F003029A609A689A60064A75
:10423000936813F00C0FFBD14FF00062064B9A60AD
:10424000064ADA6002B07047003802400CC0FF88AE
:10425000003C02400070004000ED00E00003FA0561
:1042600070B5064688B02D4801F0BEFB2C4B1A688D
:104270000092009A91073AD501214FF4007001F0A5
:104280000DFE012001F0FEFB264A536843F4003383
:104290005360A2F5374253681B07FCD50024012563
:1042A00002A801F0DBFB02A91C4806948DF81C5003
:1042B000ADF80C4001F0ACFB2A4606233146174806
:1042C00001F0ECFB2946154801F0D3FB022113480D
:1042D00001F076FC114801F065FC134D01940F4C80
:1042E0000221204601F066FC58B108B070BD1A6882
:1042F00042F001021A60009A9207BDD41A68009237
:10430000F9E7019B01330193019BB3F5805FE7DB84
:1043100038212846FFF76CFAE2E700BF002401408D
:10432000003802400027014017A3010808B500200B
:1043300001F0A8FB0021074801F09BFB00214FF48E
:10434000007001F0ABFD044A136823F00103136011
:1043500008BD00BF002401400038024013B5072308
:1043600001220146114801F099FB02210F4801F09A
:1043700027FC0E4801F016FC00230D4C019302218E
:104380000A4801F017FC28B1084802B0BDE8104007
:1043900001F00DBC019B01330193019BB3F5805FDC
:1043A000EDDB4C212046FFF723FAE8E7002401402B
:1043B00017A3010870B506460825FFF751FF002432
:1043C0003046FFF7CBFF013D0444F9D1FFF7AEFFC4
:1043D000C4F3CF0070BD000008B51120FFF7EAFF5D
:1043E0000FF002FE014608480FF00AFF0FF0E4F953
:1043F00003A3D3E900230FF037FA0FF0EFFC08BD59
:104400002FDD24068195F33F00F07F450F4A536A64
:1044100043F0805353620E4B1A465968C906FCD4C8
:104420001B68022823F4C05306D143F4C053136021
:104430005368DB06FCD47047012802D143F4805353
:10444000F5E70028F3D143F40063F0E700380240B9
:104450000070004010B50C4B5A68D206FCD41C68A2
:1044600014F4C05F0BD114F480500AD114F400642A
:1044700004D106482A21FFF7BBF9204610BD0220CF
:10448000FCE70120FAE700BF007000405DA30108CF
:1044900038B50546012001F0A3FB022D01BF144AE7
:1044A000136843F001031360124B1A6842F48072E0
:1044B0001A601A689205FCD55A6822F4604242F4E8
:1044C00040425A6000229A600A4B9C6814F00C0427
:1044D000FBD14FF480721A60074B084A28461A60D5
:1044E000FFF794FF2046BDE8384001F06DBB00BFE8
:1044F000003C02400038024014000020D0FE3F0083
:104500000C4B5A6B900513D45A6A42F080525A628F
:10451000094A116841F480711160596B41F480714E
:104520005963596B8905FCD5136823F480731360B4
:10453000704700BF0038024000700040054B5A6BC6
:10454000910706D45A6B42F001025A635A6B9207E4
:10455000FCD5704700380240094B5A6A42F02002ED
:104560005A629A6942F020029A619A6922F0200206
:104570009A610022A3F509331A801A855A6270479E
:10458000003802401521002202384143064B1A85AB
:10459000D962012199825A621A8219801A8AD20735
:1045A000FCD500221A80704700140040002349F611
:1045B000FE7282B00193019B934201DD02B070470D
:1045C000019B01330193F6E7002340F6FE7282B0AF
:1045D0000193019B934201DD02B07047019B0133BF
:1045E0000193F6E7002382B00193019BB3F5CC7FE2
:1045F00001DD02B07047019B0133F5E7D0B101281E
:1046000001D1FFF7EFBF0C4B00211A684FF47A730A
:10461000B2FBF3F2094B013A92B21A85012201383A
:10462000D8629A82596219821A801A8AD207FCD5F6
:1046300000221A80704700BF1400002000140040C0
:1046400000F1774303F57803B3F5804F2DE9F0418E
:1046500006460C4617462DD202F1F73303F608033F
:104660000344B3F5804F25D2FFF7F4FE804610B126
:104670000020FFF7CBFE01F0CBFA01252744361BC3
:10468000A7420AD101F0D4FAB8F1000F02D0404697
:10469000FFF7BCFE2846BDE8F08141F6027001F04C
:1046A000CFFA301914F8011B01F026FB042818BFBB
:1046B0000025E5E70025EDE710B50C4600F1774150
:1046C00001F57801B1F5804F0DD202F1F73303F611
:1046D00008030344B3F5804F05D20146204610F08D
:1046E000C5F9012010BD0020FCE7000008B5114B02
:1046F000984215D003F58063984213D003F5806388
:10470000984211D003F5806398420FD003F50063FF
:1047100098420DD0084B094A1421094810F082F83C
:10472000002008BD0120FCE70220FAE70320F8E79B
:104730000520F6E700000240ECA30108A6A301084B
:1047400005A401080F2808B505D9094B094A3B21E2
:10475000094810F067F8012303FA00F0C043074A44
:1047600051680140516013681840106008BD00BFD7
:104770004EA40108B0A3010805A4010800040140EB
:104780000F292DE9F84F82460D4693461F4605D95D
:104790005A4B5B4A54215B4810F044F84FF0010932
:1047A00009FA05F900F0B8F86FEA0903564E032D2F
:1047B0007268564C02EA03027260326803EA02032E
:1047C000534A3360136A43F0010313622ED80F2259
:1047D000A3684FEA850802FA08F223EA0203A360FD
:1047E0005046FFF783FFA36800FA08F01843A06063
:1047F0001BF0020F18BFB368464A1CBF43EA090307
:10480000B3601BF0040F1EBFF36843EA0903F360B3
:10481000336843EA090333603B01DBB2002D45D125
:1048200082F8063340231360BDE8F88F072D13D8B4
:104830000F22A5F10408E3684FEA880802FA08F29B
:1048400023EA0203E3605046FFF750FFE36800FAF3
:1048500008F01843E060CBE70B2D13D80F22A5F129
:10486000080823694FEA880802FA08F223EA0203DB
:1048700023615046FFF73AFF236900FA08F0184316
:104880002061B5E70F22A5F10C0863694FEA88089B
:1048900002FA08F223EA020363615046FFF726FF9B
:1048A000636900FA08F018436061A1E7012D03D1A4
:1048B00082F807338023B6E7022D04D182F808334B
:1048C0004FF48073AFE7032D04D182F809334FF41E
:1048D0000073A8E7042D04D182F80A334FF48063F3
:1048E000A1E7092D04D882F817334FF400039AE7A3
:1048F00082F828334FF48073536095E75AA4010877
:10490000CBA3010805A401080004014000000140F8
:104910000038024000E100E0144B984205D1144AEF
:10492000D36943F00103D3617047124B984204D11D
:104930000F4AD36943F00203F5E70F4B984204D1C5
:104940000B4AD36943F00403EDE70C4B984204D1C2
:10495000074AD36943F00803E5E7094B9842E3D1DE
:10496000034AD36943F02003DDE700BF00000240A3
:10497000003802400004024000080240000C0240DF
:10498000001402400323490010B584688B4024EAD8
:10499000030484600124022A04FA01F407D0032AE4
:1049A0000DD0012A07D183682343836003E0836825
:1049B0008A401A43826083681C43846010BD826809
:1049C0001343F2E70F29F8B504460F4615461E4675
:1049D00003D940211948FEF70BFF2046FFF79CFF43
:1049E00003237A009340DB432168194021600121B1
:1049F000D4F800C001FA02F04CEA000CB940C4F847
:104A000000C009B266B1A688314389B2A180E168CD
:104A1000012D03EA0103E36006D0022D08D0F8BDA2
:104A2000A68826EA0101F1E7E3680343E360F6E7BD
:104A3000E36805FA02F21A43E260F0E7AAA401086B
:104A40000F2970B505460C46164603D960210E485D
:104A5000FEF7CEFE2846FFF75FFF032361008B4081
:104A6000DB43EA68012E02EA0302EA6005D0022E67
:104A700003D02A6813402B6070BDEA6806FA01F182
:104A80001143E960F5E700BFAAA401080F2910B59A
:104A900005D9074B074A762107480FF0C3FEFFF7F9
:104AA0003BFF4B000321026899401143016010BD98
:104AB0004EA4010866A40108AAA401080F2938B56C
:104AC0000446154605D97C211B4B1C4A1C480FF097
:104AD000A9FE0F2A03D91B4B184A7D21F6E7FFF7E1
:104AE0001BFF07294FF00F0318D8006A8A00934074
:104AF00020EA03032362236A05FA02F21A432262C0
:104B00000322236849008A4023EA02032360022328
:104B1000226803FA01F11143216038BDA1F10802B6
:104B2000406A9200934020EA03036362636A9540FF
:104B30001D436562E4E700BF4EA4010879A40108A3
:104B4000AAA4010897A40108012303FA01F189B27C
:104B500001837047012303FA01F189B24183704751
:104B6000012303FA01F189B20AB10183704741833D
:104B70007047008A084100F0010070470F2938B5DE
:104B800005460C4603D9A9210548FEF731FE2868E1
:104B90006400E04000F00300431E5842584138BD15
:104BA000AAA40108808A0841C04300F001007047B0
:104BB00010B5074C236853B9012005F0F9FA2060BD
:104BC00028B9BDE8104036210248FEF711BE10BDDD
:104BD00024080020F1A4010810B50B4C22681AB972
:104BE0003C210A48FEF704FE206842F2107105F0ED
:104BF00027FC01280CBF0124002403D040210348D6
:104C0000FEF7F6FD204610BD24080020F1A401089F
:104C100010B5074C22681AB94D210648FEF7E8FD89
:104C2000002320681A46BDE81040194605F01CBA5A
:104C300024080020F1A4010810B50446FFF7B8FFCE
:104C4000FFF7CAFF21461022034801F0C9FD0446C0
:104C5000FFF7DEFF204610BD0054004010B5FFF7FF
:104C6000A7FFFFF7B9FF01F073FD0446FFF7D0FF80
:104C7000204610BD08B513460A460146034801F018
:104C8000DFF9003018BF012008BD00BF005400400C
:104C900008B513460A460146034801F0D7FA00302A
:104CA00018BF012008BD00BF0054004008B51346DE
:104CB0000A460146034801F05DFB003018BF0120A1
:104CC00008BD00BF0054004008B513460A4601461F
:104CD000034801F0E1FB003018BF012008BD00BF10
:104CE0000054004008B513460A460146034801F047
:104CF0002DFC003018BF012008BD00BF005400404B
:104D00000123064A83405169194205D05361044B7F
:104D100053F8203003B11847704700BF000401402A
:104D2000280800200F2838B504460D4603D926214F
:104D30000348FEF75DFD034B43F8245038BD00BF28
:104D400037A50108280800200020FFF7D9BF01205F
:104D5000FFF7D6BF0220FFF7D3BF0320FFF7D0BF76
:104D60000420FFF7CDBF08B50920FFF7C9FF0820D1
:104D7000FFF7C6FF0720FFF7C3FF0620FFF7C0FFBE
:104D8000BDE808400520FFF7BBBF08B50F20FFF7BF
:104D9000B7FF0E20FFF7B4FF0D20FFF7B1FF0C2087
:104DA000FFF7AEFF0B20FFF7ABFFBDE808400A207E
:104DB000FFF7A6BFFEE7FEE7FEE7FEE7FEE7FEE73A
:104DC000FEE7FEE7FEE7FEE7FEE7FEE7FEE7FEE7BB
:104DD000FEE7FEE7FEE7FEE7FEE7FEE7FEE7FEE7AB
:104DE000FEE7FEE7FEE7FEE7FEE7FEE7FEE7FEE79B
:104DF000FEE7FEE7FEE7FEE7FEE7FEE7FEE7FEE78B
:104E0000FEE7FEE70A23B0FBF3F203FB120040EAE1
:104E10000210C0B270470000CA22024B5A625322ED
:104E20005A62704700280040014B1860704700BF6D
:104E3000680800204FF400320F4B10B50F4C5A6138
:104E4000E368DB0503D430210D48FEF7D1FCFFF702
:104E5000E3FF4FF40072A36823F48853A360094B67
:104E6000C3F88420FF236362074B1B6813B1BDE8BE
:104E70001040184710BD00BF00040140002800404A
:104E80007DA5010800E100E0680800202DE9FF474A
:104E90009A46364B80461B7891469DF830709DF8B7
:104EA00034602BB9324B334A8C2133480FF0BAFCB3
:104EB000431E1E2B58D80C2956D8A2F5FA63632B33
:104EC00052D8BAF1170F4FD83B2F4DD83B2E4BD8A5
:104ED00002F13000C0B2FFF795FF05460846FFF724
:104EE00091FF000240EA05454046FFF78BFF05436E
:104EF0005046FFF787FF04463846FFF783FF00025E
:104F000040EA04443046FFF77DFF20431B4CFFF787
:104F100083FFE36845F4005543F08003E360E368F2
:104F20005B06FCD565602060E36823F08003E360E6
:104F3000124BDA689206FCD5FF2201A85A628DF85E
:104F400007808DF80810ADF809908DF806A08DF84F
:104F500005708DF8046002F0AAFB094BC3E900015B
:104F6000012004B0BDE8F0870020FAE76C080020BB
:104F70001DCA0108D5A501087DA50108002800402B
:104F80007008002007B50378019343780093837875
:104F9000B0F805200179C078FFF778FF03B05DF81D
:104FA00004FB000038B52B4B04461B781BB9E421E9
:104FB0002948FEF71DFC294AD36823F02003D3605B
:104FC000D3689B06FCD513685268C2F307410809F1
:104FD00000EB800001F00F0101EB4001C9B201F5C7
:104FE000FA61A4F80510C2F30721C1F3001085008F
:104FF000284401F00F0101EB4001D2B22171C2F34C
:10500000011101EB810102F00F0202EB4102E2709B
:10501000C3F30742C2F3011101EB810102F00F0259
:1050200002EB4102A270C3F30722C2F3021101EBAB
:10503000810102F00F0202EB4102DBB26270C3F3A6
:10504000021202EB820203F00F0303EB4203237010
:1050500038BD00BF6C0800207DA501080028004075
:105060001FB501A8FFF79EFF01A802F020FB05B0C5
:105070005DF804FB08B5FFF743FA1B4A136843F4D5
:1050800080731360FFF7C8FE184A536B23F4403354
:1050900043F482035363164BDA6842F08002DA600D
:1050A000DA685106FCD5FF221A611A6942F4FE0241
:1050B0001A619A6822F040029A609A6822F44C526F
:1050C0009A60DA6822F08002DA60094BDA689206A8
:1050D000FCD5FF225A620122064B1A70FFF7C0FF6F
:1050E000054BC3E9000108BD0070004000380240D4
:1050F000002800406C0800207008002008B5094B0B
:105100001B7823B940F21F110748FEF771FBFFF728
:1051100083FE064B9A6822F480729A60FF225A62DC
:1051200008BD00BF6C0800207DA5010800280040D4
:1051300008B5144B1B7833B9134B144A40F22711AE
:1051400013480FF06FFBFFF767FE124BDA6822F48B
:105150008072DA60104A916841F400319160116800
:1051600041F400311160F0210C4A82F829134FF408
:10517000007151609A6842F488529A60FF225A6224
:1051800008BD00BF6C0800201DCA0108E1A5010888
:105190007DA50108002800400004014000E100E076
:1051A000F8B51E46194B17461B7833B9184B194AE8
:1051B0004FF4A37118480FF035FB184CFFF72CFE85
:1051C000A56825F48075A560E56825F48075E5601F
:1051D000FFF718FE05460846FFF714FE000440EAF4
:1051E00005613846FFF70EFE05463046FFF70AFE1A
:1051F000084340EA0520E368DB07FCD5FF23E061B4
:105200006362BDE8F840FFF793BF00BF6C08002061
:105210001DCA0108C3A501087DA50108002800409A
:1052200038B50D46044604F035FC194A136823F0DE
:105230000103136004F04EFC25B1164A536843F095
:105240000603536072B6BFF34F8FBFF36F8F124ADE
:105250000120136823F0030343F4007343F00103B8
:10526000136000F0C9FC0D4B1A6942F004021A6188
:1052700030BF1A69022022F004021A61FFF708F910
:10528000034A136843F00103136004B162B638BDEA
:1052900010E000E0002004E00070004000ED00E0BD
:1052A00062B6704700220E4B10B51A700D4A0E4CB4
:1052B0001388204623F040031B041B0C13800D2190
:1052C0000222FFF7BDFB204602220E21FFF7B8FBAA
:1052D0002046BDE8104002220F21FFF7B1BB00BFFE
:1052E000780800200038004000040240294A38B500
:1052F000136A054643F480531362052226480C4680
:105300001146FFF7DBFB052206212348FFF7D6FBFA
:10531000052207212048FFF7D1FBC5B10222052154
:105320001D48FFF72FFB022206211B48FFF72AFB2F
:10533000022207211848FFF725FB012C1BD144F45A
:1053400051740122154B1C80154B1A7038BD2A462A
:1053500005211148FFF716FB2A4606210E48FFF7E4
:1053600011FB2A4607210C48FFF70CFB012C09D141
:1053700044F45974E5E7022CE1D0032C0CBF03245C
:105380000024DCE7022CF3D0032C14BF00240324F8
:10539000EEE700BF0038024000000240003001404C
:1053A0007908002000220E4B10B51A700D4A0E4CE1
:1053B0001388204623F040031B041B0C1380052197
:1053C0000222FFF73DFB204602220621FFF738FBB1
:1053D0002046BDE8104002220721FFF731BB00BF85
:1053E000790800200030014000000240064B074AC7
:1053F000988111781A461889C00701D40029FAD17A
:105400009089C0B2704700BF003001407908002089
:10541000054AD36823F4E0631B041B0C43F0BF630D
:1054200043F40033D360704700ED00E020220021F8
:10543000114B10B5C3F88420104B114C1A6A20464A
:1054400042F480421A625A6942F480425A615A69AF
:1054500022F480425A610B4A91811A6A092122F48E
:1054600080421A620222FFF7EBFA2046BDE81040A4
:1054700002220A21FFF7E4BA00E100E0003802400E
:10548000000002400038014010B50B4C40F225519D
:10549000204600F0AEFD48B1204600F088FD074BE5
:1054A0001B683BB1BDE81040C0B21847A388044A4E
:1054B000DBB2137010BD00BF003801407C08002033
:1054C000344F002010B504468021084800F08BFDC1
:1054D0000028F9D02146054800F065FD034C402125
:1054E000204600F080FD0028F9D010BD00380140B2
:1054F00010B5441E14F8010F00B910BDFFF7E2FF0C
:10550000F8E7000008B5024800F051FDC0B208BD40
:10551000003801402DE9F0410F4601214FF4C066EB
:10552000804688B0084614461D4600F0A9FC0121BB
:105530004FF4804000F0B2FC3B4B02A93B48CDE960
:10554000026300F0FFFB07220921384800F03CFC11
:1055500007220A21354800F037FC452FCDF810808E
:105560003AD14FF48063ADF81830072C40D10023B6
:10557000ADF81430052D4CD14FF48053ADF81630F2
:105580000023ADF81C300C2304A92948ADF81A30CB
:1055900000F0AEFC274B1A6802B1012240F22551FF
:1055A000234800F008FD0121214800F0F1FCFFF73D
:1055B000A9FF25238DF804309DF838308DF805308B
:1055C0004FF48073ADF80630FFF722FF01A800F01A
:1055D000EFF908B0BDE8F0814F2F02D1ADF81860A7
:1055E000C3E70023072CADF818300DD1592107E08F
:1055F000082C02D14FF48053BAE7092CBAD15421B8
:105600000D48FEF7F5F8B5E7082CB0D0092CB1D15C
:10561000F0E70F2D02D14FF44053AFE7022D0CBF3E
:105620004FF400530023A9E70202000100000240EA
:10563000003801407C080020F6A501080E2307B5BC
:10564000082200934E210123FFF764FF03B05DF8A9
:1056500004FB0000402200210D4B0E48C3F88420BB
:105660000D4B5A6A42F400325A629A6942F400328F
:105670009A619A6922F400329A61084A91815A6AC1
:10568000032122F400325A620222FFF7D9B900BF87
:1056900000E100E000000240003802400044004009
:1056A00008B5024800F083FCC0B208BD00440040C9
:1056B0002DE9F0471F46262388B08DF804300023DB
:1056C0009DF8408089461446ADF8063082469DF824
:1056D00044509DF848608DF80580FFF799FE01A8B9
:1056E00000F066F90121084600F0CAFB01214FF4E1
:1056F000003000F0E1FB65B10821504B5048CDE986
:10570000021302A900F01EFB072203214C4800F0FF
:105710005BFB66B10422494B02A94948CDE902234B
:1057200000F010FB07220221454800F04DFBB9F1C3
:10573000450FCDF810A041D14FF48063072CADF890
:10574000183049D10023ADF81430052F55D14FF44E
:1057500080530024ADF81630ADF81C40002E57D110
:10576000ADF81A6075B1BDF81A3043F00403ADF816
:105770001A30344B1A6802B1012240F225513248E6
:1057800000F019FC04A9304800F0B2FB01212E48BA
:1057900000F0FEFB0DB1FFF783FF26238DF80430E8
:1057A0004FF480738DF80580ADF80630FFF730FEBA
:1057B00001A800F0FDF808B0BDE8F087B9F14F0F7F
:1057C00002D14FF4C063B9E70023072CADF81830BD
:1057D0000ED14FF4827107E0082C02D14FF48053B0
:1057E000B1E7092CB1D1FF211848FEF701F8ACE769
:1057F000082CA7D0092CA8D1F0E70F2F02D14FF425
:105800004053A6E7022F0CBF4FF400530023A0E73C
:105810000823224640F227710B48ADF81A3000F0F9
:10582000CAFB40F22661084800F002FC224640F222
:105830002661054800F0BFFB94E700BF02030001AA
:10584000000002408008002000440040F6A5010846
:10585000F8B505460024134E134F8021134800F07D
:10586000C2FB68B12946114800F09DFB00240F4D92
:105870000C4E0D4F4021284600F0B5FB48B1F8BD55
:105880000134B442E9D94FF4A4713846FDF7B0FFB2
:10589000E3E70134B442EDD940F251113846FDF747
:1058A000A7FFE7E7FFFF0F00F6A50108004400404F
:1058B00008B5064B0246186000B1012240F225519E
:1058C000034800F078FB012008BD00BF80080020DD
:1058D0000044004070B5134C40F22551204600F0C2
:1058E00088FBC0B1104B1D6825B1204600F05FFB5E
:1058F000C0B2A84740F226610A4800F07AFB78B1AE
:1059000040F22661074800F093FB084B1B683BB14F
:10591000BDE870401847A388054ADBB21370E9E779
:1059200070BD00BF004400408008002084080020B3
:10593000344F0020BFF34F8F0449054BCA6802F46F
:10594000E0621343CB60BFF34F8FFEE700ED00E052
:105950000400FA0510B5441EE3B2052B03D90E214D
:105960001148FDF745FFFEF7E9FD45F255520F4B93
:105970001A60DA68D207FCD4052C06D8DFE804F0F8
:10598000030A0C0E101201225A604CF6CC42074B4F
:105990001A6010BD0222F7E70322F5E70422F3E7BD
:1059A0000522F1E70622EFE73DA60108003000409E
:1059B00030B5012403780A4D03F01F029440C278E9
:1059C000590952B1074A2B44D26842781201D2B227
:1059D00083F8002345F8214030BD2031FAE700BFAD
:1059E00000E100E000ED00E008B5084B98420BD163
:1059F00001214FF4007000F06DFABDE8084000216D
:105A00004FF4007000F066BA08BD00BF00240140EA
:105A100043680A7923F0407323F4807343EA022336
:105A20000A6810B513434360D1E9032313438A681E
:105A300084681343084A224013434A7943EA4203E5
:105A400083600A7D036B013A23F0F873D2B243EA14
:105A50000253036310BD00BFFDF7FFC000234FF0EA
:105A60004072036083808360C0E9032301230375D0
:105A70007047836819B143F001038360704723F0D6
:105A80000103FAE7044B5A6818B142F400025A6065
:105A9000704722F40002FAE7002701401D2970B583
:105AA0001BD90725A1F11E06C46D06EB4606B540BD
:105AB00024EA050403FA06F62643C665062A38D802
:105AC0001F24013A036C02EB8202944023EA040390
:105AD00001FA02F21A43026470BD13290DD9072698
