:020000040800F2
:100000000080002059E500084DF20008213000086A
:100010004FF2000851F2000853F2000800000000FF
:100020000000000000000000000000001122000895
:1000300055F2000800000000A1220008E522000897
:1000400057F2000859F200085BF200085DF2000860
:100050005FF2000861F20008E1F10008E7F1000832
:10006000EDF10008F3F10008F9F1000863F200086F
:1000700065F2000867F2000869F200086BF20008F8
:100080006DF200086FF2000871F2000873F20008C8
:1000900075F2000877F2000879F20008FFF1000815
:1000A0007BF200087DF200087FF2000881F2000870
:1000B00083F2000885F2000887F2000889F2000840
:1000C0008BF200088DF200088FF2000891F2000810
:1000D00093F2000851F9000831FB000895F200087E
:1000E00023F20008CDF2000897F2000899F2000808
:1000F0009BF200080000000000000000000000006B
:1001000000000000000000005FF808F110B5054C89
:10011000237833B9044B13B10448AFF300800123B3
:10012000237010BD5005002000000000ACC4010881
:1001300008B5034B1BB103490348AFF3008008BD6A
:100140000000000054050020ACC4010800487047BE
:100150006C05002010B50446C06910B1012108F0FB
:100160005DFD206910B1012108F058FD204610BD49
:100170002DE9FF4104F05AFC002306466FF06307A7
:100180004FF064082B4C04AD05F8013D04F000F875
:10019000304606F039FD231D00932A4623462649A2
:1001A000304604F005FB04F11E032A46234930467D
:1001B000CDE9007804F0BEFA04F120032A46CDE927
:1001C00000781F49304604F0B5FAB4F91E20B4F99E
:1001D00020309A4205DB1B4809F0E2FB01238DF831
:1001E0000F30194FDFF87C80184B2A4618493046EB
:1001F000CDE9007804F0BEFA164B2A46CDE9007826
:100200001549304604F0B6FAD4E909239A4205DBD1
:10021000124809F0C5FB01238DF80F309DF80F300F
:1002200023B10F4809F0BCFB0FF0B2FC04B0BDE8ED
:10023000F08100BF6C050020518101085A8101083E
:10024000638101086C810108C0BDF0FF90050020AA
:100250009981010894050020A3810108AD8101085E
:10026000DC81010840420F00F8B50025C0E9011209
:100270000570C0E90335C0E90555C0E90755456279
:1002800006990446164600F11C0703F0F9F938B93F
:100290003146074809F084FB2021064802F02EFE73
:1002A000069A3946204603F0D5F92046F8BD00BF2E
:1002B000EF8101081A82010830B58DB004F0B6FB59
:1002C000044600F01DFB214607F0DEFC032200235C
:1002D0000392354D354A364902A88DF80830049509
:1002E000CDE90523CDE90733CDE909330B9303F0BD
:1002F000ABFA38B929462F4809F052FB20212E4885
:1003000002F0FCFD2A4A09A902A803F065FA02A935
:10031000204604F031FC02A8FFF71CFF0023274A07
:1003200000930221264B02A8FFF79EFF02A9204658
:1003300004F022FC02A8FFF70DFF0F23214A0093CF
:1003400002211F4B02A8FFF78FFF02A9204604F0ED
:1003500013FC02A8FFF7FEFE40F233331A4A009363
:1003600002211A4B02A8FFF77FFF02A9204604F0E2
:1003700003FC02A8FFF7EEFE42F69053144A0093E6
:100380000221144B02A8FFF76FFF02A9204604F0D8
:10039000F3FB02A8FFF7DEFE00F0B2FA07222146C7
:1003A00007F086FC0DB030BD518101086480010862
:1003B00093800108EF8101081A8201085A8101081F
:1003C000A18001086381010899810108DB8001088F
:1003D000A381010816810108014B1878704700BFFE
:1003E0009C0B002037B504461249406814F0C2FB4C
:1003F00014F086FD05461049A06814F0BBFB14F00C
:100400007FFD64240D4A90FBF4F395FBF2F102FBAF
:100410001152B02504FB1304002CB8BF6442002A1B
:1004200001950094B8BF5242054809F0B9FA03B0EB
:1004300030BD00BF002474490000C84240420F0094
:100440008D82010810B50020002106F00DFB044646
:1004500078B1417980290FD1094B02790168186878
:1004600003F024FE204606F09FFE0821204608F0F7
:10047000D5FB044B187810BD034809F091FAF1E759
:10048000B40600209C0B0020E482010810B5064C45
:10049000204600F069FA2046FFF7A4FF01232370ED
:1004A000024B187810BD00BFA00500209C0B002057
:1004B0001FB510220021684615F063F9684600F068
:1004C00053FA6846FFF78EFF024B187805B05DF8C7
:1004D00004FB00BF9C0B002008B507F0C1F8BDE885
:1004E000084007F007B9000008B5034809F058FABA
:1004F000BDE808400FF04CBB86830108074B10B5E0
:100500001B685B683BB9064B1C7814B9054809F0B9
:1005100047FA204610BD0124FBE700BFB4060020C7
:10052000A0050020CB82010838B5044607F098F8F2
:10053000054607F009FA2080284607F011FA608086
:1005400038BD000013B5124C2368DB0708D404F053
:1005500087FA802201460F4803F0D2FA0123236074
:100560000C4A0D4B1A6007F07BF80C4B43660C48A5
:1005700006F06CFA002302A840F8043DFFF7D4FF10
:10058000084BBDF804209A81074B187802B010BDC3
:100590009805002090060020B4060020416A00085B
:1005A000E9040008A00500209C0B002007B50948BD
:1005B00009F0F6F9002302A840F8043DFFF7B4FF64
:1005C000054BBDF804209A81044B187803B05DF800
:1005D00004FB00BFBB820108A00500209C0B00208B
:1005E0002DE9FF41214F04463B6888465E688EB185
:1005F0001F4D204809F0D4F96B4642462946386819
:1006000003F0D8FA9DF8003025606371207104B0C2
:10061000BDE8F081184D2B78002BF8D0174809F071
:10062000BFF90F221649684608F06FFA69686846F4
:1006300008F0A7FA1349A86814F09CFA14F060FCBB
:1006400001B2684608F090FAB5F90C10684608F057
:100650008BFA684608F084FA0746684608F082FA82
:1006600001232760637120712E70D0E7B40600204B
:10067000B005002049820108A00500206F82010812
:10068000A00600200000C842014B1878704700BF48
:100690009C0B00201FB56123CDE9013101A9039214
:1006A00004F0B6FF05B05DF804FB07B58DF8041043
:1006B00001A98DF805208DF8063005F069F803B022
:1006C0005DF804FB2DE9F04F87B0FFF7F5FDFA2048
:1006D00000F0E0FEFFF74CFD6D4809F061F906F00F
:1006E000BFFF6C4D06462B686B4C13F0010F04D115
:1006F00004F074FF012320602B6006F15001206894
:1007000004F038FE6549206804F036FEFFF71EFD50
:1007100025680268624903A804F016FE03A928466A
:1007200004F06CFE5F4A8DF804005F492068FFF713
:10073000B1FF5E4A8DF805005D492068FFF7AAFF0A
:100740008DF80600206805F0BFFE5A4A8DF80700B4
:1007500059492068FFF79EFF584A8046584920684B
:10076000FFF798FF574A824657492068FFF792FFE4
:10077000564B8146564A5749206806F01FFC564A98
:10078000064656492068FFF785FF554A8346554976
:100790002068FFF77FFF9DF804208DF80300524981
:1007A000206806F057F80746504D20689DF8053040
:1007B0002A7880F828309DF805109DF80630FFF75C
:1007C00074FF9DF807302A789DF806102068FFF71F
:1007D0006CFF474A43469DF8071020681278FFF7E0
:1007E00064FF53462A7841462068FFF75EFFDFF832
:1007F0000C8133462A7851462068FFF756FF33466E
:100800002A7859462068FFF750FF5B4698F8002089
:1008100031462068FFF749FF9DF803302A783146BA
:100820002068FFF742FF334A4B469DF803102068CB
:100830001278FFF73AFF3B462A789DF803102068AC
:10084000FFF733FF5B4698F8002039462068FFF732
:100850002CFF4B469DF8042039462068FFF725FF02
:1008600053462A7849462068FFF71FFF206805F0A5
:1008700045F9214809F094F801224FF4AF7120683E
:1008800005F0D6F8002000F071FB07B0BDE8F08F4E
:100890000A8301089C050020B0060020D904000846
:1008A000278301084505000883970108B104000863
:1008B0002C830108D9030008378301088D04000840
:1008C00043830108AD0500084E830108E1050008D7
:1008D000FD04000855830108450400081D96010821
:1008E0008906000862830108669701089C0B0020B6
:1008F000A00B00209F0B00206C830108620C0020DD
:1009000006F0AEBE13B506F0ABFE044603689B6866
:100910009847204606F0C5FE002401234FF4967246
:100920000B49CDE900340B48234600F01FFA0A4872
:1009300009F036F8094809F033F800F007FC40F2F6
:100940000B11074802F0DAFA204602B010BD00BFD2
:100950009B830108C5060008A4830108B78301082A
:10096000E8830108000000002DE9F04F87B004463D
:1009700006F076FE054600F1480606F071FE0746D1
:1009800000F1440B04F052F8914903F0B1FE0390DA
:1009900004F04CF88F4903F0ABFE804604F046F8B3
:1009A0008D4903F0A5FE824604F040F88B4903F020
:1009B0009FFE7B6C00215B68814658469847002368
:1009C00002211A4686480EF047FA01220221844885
:1009D0000EF010FB7B6C58461B68012198470023E2
:1009E00008211A467E480EF037FA002208217C487A
:1009F0000EF000FB142000F04DFD002300271A46E6
:100A0000022177480EF028FA0022022174480EF0E5
:100A1000F1FA0A2000F03EFDAB6C30461B689847A7
:100A2000322000F037FDAB6C30465B689847AB6C0A
:100A30000097042204A9D3F810B030465023D847B9
:100A4000142000F027FDAB6C00971F69042250238F
:100A500004A93046B8470746AB6C30469B689847B8
:100A600057B9604808F09CFF5F4B63605F4BA36021
:100A7000012007B0BDE8F08F504614F027F8074674
:100A8000484614F023F881460146384614F024FA0B
:100A900008B15748E6E79DF810309DF8110003F0C3
:100AA0003F0300EB032014F011F88246014638465C
:100AB00014F01CFA002867D1C4F804A06168484605
:100AC00014F0F6F908B1C4F80490404613F0FEFFA4
:100AD0008046039813F0FAFF0146404613F040FFAA
:100AE00039468046606813F03BFF0146404614F0EB
:100AF00041F839468046484613F032FF01464046E9
:100B000014F0ECF813F09EFB2DA3D3E9002313F0AF
:100B1000F1FB13F0D1FE606007469DF813009DF8CD
:100B2000123000F0E00000EB0320400913F0CEFF8C
:100B300013F088FB24A3D3E9002313F005FD002262
:100B40002C4B13F0D7FB00222B4B13F01BFA13F0A6
:100B5000B3FE2A49A060804614F0A0F9B0B128483D
:100B600008F01EFF012202211D480EF043FA012267
:100B700008211B480EF03EFA0A2000F08BFCAB6CFB
:100B800030461B68984773E7676097E7404613F065
:100B900059FB00221B4B13F0ADFB13F045FE04463E
:100BA000384613F04FFB0022174B13F0A3FB13F052
:100BB0003BFE22460146154808F0F2FED2E700BF90
:100BC0008C4B55DAE21AB93F0000000000FC9F4050
:100BD0005A8101086381010899810108A3810108F4
:100BE0000000024023840108003C1CC6E1FAC7C291
:100BF000368401080000694000004940000048C2F6
:100C0000708401080000244000408F408584010862
:100C1000064A13681968064B19B94FF0FF321A607B
:100C200070471268D268D2685268F8E7BC060020A4
:100C30006C07002010B5044620B940F2F261084864
:100C400002F05CF96269074B9A4207D1A06A064B31
:100C5000984203D0B0FA80F0400910BD0020FCE7B4
:100C6000CC8401088C07002074070020F8B51B4BCA
:100C70001B4E1C68054630680F46043001F073FABD
:100C8000334640B901203168164EC96A326888403F
:100C900022EA000232606A1C07D137B11968124893
:100CA0000431BDE8F84001F03BBA1A686419546099
:100CB00007D30E4A10681968BDE8F840043101F006
:100CC0003BBA0B4A10681968043101F035FA094B38
:100CD0001A68A24288BF1C60F8BD00BFB40700209C
:100CE000B80600203C0700208C070020C00600202A
:100CF000BC0600206C07002080B5DFF86C80164F22
:100D0000164D174E2B6863B9164B1B68012BF8D98B
:100D10004FF08053C8F80030BFF34F8FBFF36F8F91
:100D2000EEE701F087FAFB68DC68201D01F01BFA92
:100D30003368013B33602B68013B2B6001F09AFA6A
:100D400004F1540015F08AFB206B01F0B5FB20463E
:100D500001F0B2FBD6E700BFA00700202C0700205F
:100D600028070020C406002004ED00E02DE9F84F1C
:100D70004FEA820A804650460D4699460B9E01F086
:100D800099FB0746002800F0B780BC2001F092FBD9
:100D90000446002800F0AD80076325B94FF4587170
:100DA0005C4802F0ABF85246A521206B14F0E9FC38
:100DB000236BAAF1040A9A442AF0070A6B1E04F175
:100DC00034020F3513F8011F02F8011B197809B11D
:100DD000AB42F7D10A9D4FF0000B042D28BF04252C
:100DE000271DE562C4E9135B384684F843B001F07F
:100DF00094F9C5F1050504F1180001F08EF9C4F865
:100E0000B4B0602259462461A561646284F8B8B028
:100E100004F1540014F0B5FC3F4B4A46A3653F4B28
:100E20004146E3653E4B5046236601F0DBF9206006
:100E300006B1346001F0FEF93A4B3B4E1A68DFF818
:100E4000248101321A603268002A58D134601B684C
:100E5000012B25D1354801F055F9354801F052F9FB
:100E6000344801F04FF9DFF80091334801F04AF9B6
:100E7000324D334801F046F9484601F043F928461F
:100E800001F040F92F4801F03DF92F4801F03AF9FF
:100E90002E4801F037F92E4BC3F800902D4B1D6002
:100EA00001252D4A2D491368086801331360E26A51
:100EB000636405FA02F3034314200B601B4B3946AD
:100EC00000FB023001F02CF901F0D4F9D8F8003021
:100ED00063B13368DA6AE36A9A4207D24FF080520C
:100EE0001F4B1A60BFF34F8FBFF36F8F2846BDE8CB
:100EF000F88F384601F0E0FA4FF0FF35F6E7D8F802
:100F00000030002BCCD13368DA6AE36A9A4298BF8A
:100F10003460C5E7CC840108F0C1010810C20108A3
:100F2000D0C1010828070020B8060020C406002010
:100F3000D8060020EC0600200007002054070020FF
:100F40001407002074070020A00700208C07002051
:100F5000BC060020C0060020380700203C07002007
:100F600004ED00E0880700204007002070B504462B
:100F70002A4D01F05FF904B92C68261D304601F0B6
:100F8000F2F860B91421E06A254B41435B5833B94C
:100F90000122244982400B6823EA02030B60A36A02
:100FA0001BB104F1180001F0DEF81F4A1368013389
:100FB00013602B68A34220D131461C4801F0B0F8E1
:100FC0001B4A13680133136001F054F9194B1B6875
:100FD00093B12B68A3420FD1174B1B6823B140F28A
:100FE000B641164801F08AFF4FF08052144B1A6048
:100FF000BFF34F8FBFF36F8F70BD124A04F15400DF
:101000001368013B136015F029FA206B01F054FAC4
:10101000204601F051FAFFF7FBFDD5E7B8060020A6
:10102000C40600203C07002038070020A00700204D
:101030002C0700208807002034070020CC840108FA
:1010400004ED00E028070020F8B5054620B940F27D
:101050004C51174801F052FF164B1B68AB4220D091
:1010600001F0E8F8144B6C691F68144B1E6801F01E
:1010700001F9BC4217D0B44215D0114B9C4208D1A3
:10108000AB6A83B995F8B830012B0CBF022003205E
:10109000F8BD0C4B9C4208D0002C0CBF0420012052
:1010A000F6E70020F4E70220F2E70420F0E700BFB3
:1010B000CC840108B8060020BC060020C006002031
:1010C0008C070020A007002070B5044620B940F22C
:1010D0001C71194801F012FF184D2B68A34229D04A
:1010E00044B301F0A7F82046FFF7A4FDF0B1261D98
:1010F000304601F038F801231149E26A086893404C
:10110000034314200B600F4B314600FB023001F00B
:1011100007F82B68E26ADB6A9A4207D34FF08052E5
:10112000094B1A60BFF34F8FBFF36F8FBDE870405C
:1011300001F0A0B870BD00BFCC840108B806002043
:101140003C070020C406002004ED00E013B5002495
:101150001A4B009401935022234619491948FFF76E
:1011600005FE01281DD100F045FE012819D14FF0E0
:10117000500383F31188BFF36F8FBFF34F8F124B70
:10118000124A1B68543313604FF0FF32104B1A6041
:10119000104B1860104B1C6002B0BDE8104001F00D
:1011A000C9B8013007D140F604010C4802B0BDE8CF
:1011B000104001F0A3BE02B010BD00BF68070020C0
:1011C00006850108F90C0008B80600200803002075
:1011D0006C07002088070020B4070020CC84010899
:1011E000024A136801331360704700BF34070020C0
:1011F000014B1868704700BFB407002008B501F024
:10120000F3F8014B186808BDB40700202DE9F84F2A
:101210003A4B1B68002B6AD1394B1C6801341C60A7
:101220009CB9384D2B681B6823B140F662213648C3
:1012300001F064FE354B2A68196829601A60344A47
:10124000136801331360FFF7E3FC324D4FF0000BDE
:101250002B68314FA34211D93A68304BD16A14221E
:101260004A439A58022A28BF4FF0010B2C4A1268B1
:10127000002A0CBF58460120BDE8F88FDFF884A093
:10128000DFF8A490DAF8002012681AB94FF0FF32A4
:101290002A60E1E7DAF80020D268D66871688C42EB
:1012A00001D22960D8E706F10408404600F05BFF50
:1012B000B16A19B106F1180000F055FF01224FF094
:1012C000140CF06AD9F8003002FA00F11943134BFC
:1012D000C9F800100CFB0030414600F021FF3868CF
:1012E000F16AC26A914228BF4FF0010BCAE70D4A6A
:1012F0004FF0000B136801331360B7E73407002089
:10130000B4070020BC060020CC840108C0060020E1
:10131000700700206C070020B8060020C4060020DB
:10132000B8070020300700203C0700202DE9F843D3
:101330002E4C236823B940F668012D4801F0DEFDEC
:1013400000F078FF2368013B236024682CB100245F
:1013500000F090FF2046BDE8F883264B1B68002B69
:10136000F5D0254D254EDFF8A8801FE0EB6801275A
:10137000DC6804F1040904F1180000F0F4FE4846AA
:1013800000F0F1FE1420E26A316807FA02F30B4321
:1013900000FB02804946336000F0C2FE184BE26A4F
:1013A0001B68DB6A9A4201D3164B1F602B68002B27
:1013B000DCD10CB1FFF72CFC134D2C6844B1012794
:1013C000104EFFF723FF00B13760013CF9D12C60CC
:1013D0000C4B1B68002BBAD04FF080520B4B1A609D
:1013E000BFF34F8FBFF36F8F0124B1E734070020A5
:1013F000CC84010828070020740700203C07002047
:10140000B8060020B80700203007002004ED00E0F7
:10141000C406002038B50C46054620B940F2CA4142
:10142000184801F06BFD24B940F2CB41154801F09A
:1014300065FD154B1B6823B140F2CC41114801F00A
:101440005DFDFFF7CDFE114B2A68186814192CBFFB
:101450000121002182422C600CD961B9FFF766FF9F
:1014600038B94FF080520A4B1A60BFF34F8FBFF369
:101470006F8F38BD09B9A042F0D20021201AFFF7C2
:10148000F5FBEBE7CC84010834070020B40700200B
:1014900004ED00E010B5044640B94FF080520D4B0A
:1014A0001A60BFF34F8FBFF36F8F10BD0A4B1B68DD
:1014B00023B14FF4A461094801F020FDFFF790FE2D
:1014C00000212046FFF7D2FBFFF730FF0028E4D0D1
:1014D000EBE700BF04ED00E034070020CC840108F6
:1014E000244B70B51A68244B12B101221A6070BDEA
:1014F000224E1A6033681B6B1A68B2F1A53F0BD1FC
:101500005A68B2F1A53F07D19A68B2F1A53F03D15D
:10151000DB68B3F1A53F04D030683168343101F0A5
:10152000BDFC174B1C68B4FA84F41423E4B2C4F174
:101530001F046343134DEB5823B940F6883112481A
:1015400001F0DCFC142202FB04F3E91848680833BC
:1015500040682B44984202FB045408BF436848602B
:1015600008BF4B606368094ADB68336033685433F3
:101570001360BCE734070020B8070020B80600203D
:101580003C070020C4060020CC840108080300208A
:1015900070B504462A4E00F04DFE04B93468251D8E
:1015A000284600F0E0FD60B91421E06A254B414374
:1015B0005B5833B90122244982400B6823EA0203B5
:1015C0000B60A36A1BB104F1180000F0CCFD2946A2
:1015D0001E4800F0A5FD94F8B8301D4D012B04BF46
:1015E000002384F8B83000F045FE2A682AB100F0E4
:1015F00021FEFFF70DFB00F03DFE3368A34211D141
:101600002B6883B1134B1B6823B14FF4D961124887
:1016100001F074FC4FF08052104B1A60BFF34F8FF3
:10162000BFF36F8F70BD094A11680D4A126891426D
:1016300001D13360F6E7BDE87040FFF751BF00BF4E
:10164000B8060020C40600203C0700208C070020BC
:101650008807002034070020CC84010804ED00E056
:101660002807002038B50D46044620B940F69F31C2
:10167000074801F043FC074B20461968183100F079
:101680005BFD2846BDE838400121FFF7EFBA00BFF7
:10169000CC840108B806002070B50E4614460546F5
:1016A00020B940F6CA310A4801F028FC094B284607
:1016B0001968183100F034FD002C214608BF30466F
:1016C000BDE8704018BF4FF0FF30FFF7CFBA00BF42
:1016D000CC840108B806002038B5C368DC6824B99A
:1016E00040F6FA31154801F009FC04F118052846C6
:1016F00000F039FD124B1B68E3B9251D284600F0A8
:1017000032FD01230F49E26A086893400343142025
:101710000B6029460C4B00FB023000F001FD0B4B27
:10172000E26A1B68DB6A9A4285BF0120084B0020F1
:10173000186038BD29460748EFE700BFCC84010890
:10174000340700203C070020C4060020B806002013
:10175000B807002074070020034B1B680360034B8D
:101760001B684360704700BF70070020B40700206B
:1017700070B50C46054620B940F66541144801F0A5
:10178000BDFB24B940F66641114801F0B7FB00F0FB
:1017900051FD104B1A682368591C0FD00E482E6853
:1017A00000686968864201D091420ED9521A93426C
:1017B00009D99B1A23602846FFF7CEFF002400F0CA
:1017C00059FD204670BD002323600124F7E700BFC8
:1017D000CC840108B4070020700700200122014BCF
:1017E0001A607047B807002070B50C4616460546CB
:1017F00008B91B4A156805F134026260EA6A052BD4
:1018000022612A6B2560E2616A6CA260EA6C626107
:101810004FF00002A2611BD011490968A9420BD107
:101820002273D6B1296B0A46531A12F8010BA52868
:10183000FAD09B08238470BD032B2373F1D1FFF7EB
:10184000CFFCAB6A0BB102232373FFF76FFDE8E710
:101850002846FFF7F9FB2073E3E72684EBE700BF98
:10186000B806002008B9064B1868026B1346981A90
:1018700013F8011BA529FAD0C0F38F00704700BFF1
:10188000B8060020014B1868704700BFB80600205A
:10189000054B1B6833B1054B1B68002B0CBF0220A6
:1018A000002070470120704788070020340700207F
:1018B0002DE9F0410446002836D0234AC36A116856
:1018C0001746C96A8B4237D2142682691F4D002AF7
:1018D000A8BF3A6806FB0353A2BFD26AC2F1050251
:1018E000826142699A4221D100F10408404600F029
:1018F0003AFC174B48B9E06A4643AA592AB9012174
:101900001A68814022EA01021A603A681968D26AAC
:10191000E262012404FA02F00843186014204146F0
:1019200000FB025000F0FCFB204603E03B68DB6A52
:10193000C3620120BDE8F0811368C06CDC6AA0427C
:101940002CBF00200120F5E7B8060020C4060020C7
:101950003C070020F8B5044608B90020F8BD1F4B2D
:101960001B68834204D040F67A711D4801F0C6FA24
:10197000236D23B940F67B71194801F0BFFA236D3E
:10198000E16AE26C013B91422365E6D0002BE4D191
:10199000251D284600F0E7FB124E134A50B91421CA
:1019A000E76A794373582BB901201368B84023EADA
:1019B00000031360E36CC3F10501A161E36201243C
:1019C000116804FA03F0084310601420294600FB54
:1019D000036000F0A5FB2046C0E700BFB80600206A
:1019E000CC840108C40600203C070020F8B50D4651
:1019F0000446002845D0036D23B940F6C97121483B
:101A000001F07CFAE36C9D4238BF1D46E36AAB42AD
:101A100037D0236D012B34D11B4B1B68A34204D15B
:101A200040F6E471174801F069FA1426A269E36AE6
:101A3000002AE562A4BFC5F10505A561134D6269E1
:101A400006FB03539A421CD1271D384600F08BFB3E
:101A5000E26A0F4C40B95643AB592BB901212368B8
:101A6000914023EA0103236001231420216893405D
:101A70000B432360394600FB0250BDE8F84000F0FC
:101A80004FBBF8BDCC840108B8060020C406002076
:101A90003C070020044B1A681AB119680A6D01321C
:101AA0000A651868704700BFB80600202DE9F041AC
:101AB000214C1E4680460F46154600F0BBFB2368AE
:101AC00093F8B830022B16D001212368D3F8B42044
:101AD00022EA0802C3F8B420236883F8B81056B18C
:101AE0003046FFF7C3F84FF08052144B1A60BFF333
:101AF0004F8FBFF36F8F00F0BDFB00F09BFB1DB15C
:101B00002368D3F8B4302B602368002293F8B830F0
:101B1000022B09BF012500252368D3F8B41004BFA8
:101B2000B943C3F8B410236883F8B82000F0A2FBCF
:101B30002846BDE8F08100BFB806002004ED00E0B3
:101B4000F8B50E4617461D46044620B941F2192144
:101B50002E4801F0D3F900F06DFB15B1D4F8B43084
:101B60002B60022394F8B85084F8B830EDB2042FFB
:101B70001AD8DFE807F00E0309061500D4F8B430D0
:101B80001E43C4F8B46004E0D4F8B4300133C4F8A0
:101B9000B430012D12D0012400F06CFB2046F8BDBA
:101BA000022DEED10024F7E7D4F8B4300133F0D0A1
:101BB00041F24A21154801F0A1F9EAE7261D304615
:101BC00000F0D1FA1420124AE36A11689D400D43D7
:101BD0001560104A314600FB032000F0A1FAA36A09
:101BE00023B141F25921094801F088F90A4BE26A10
:101BF0001B68DB6A9A42CED94FF08052074B1A60BD
:101C0000BFF34F8FBFF36F8FC5E700BFCC840108D0
:101C10003C070020C4060020B806002004ED00E0C8
:101C20002DE9F843DDF820800E4691461D46044616
:101C300020B941F28C21384801F060F900F0D4FB62
:101C4000EFF311874FF0500383F31188BFF36F8FC9
:101C5000BFF34F8F15B1D4F8B4302B60022394F842
:101C6000B85084F8B830EDB2B9F1040F1AD8DFE8F3
:101C700009F00E0309061500D4F8B4301E43C4F869
:101C8000B46004E0D4F8B4300133C4F8B430012DAA
:101C900012D0012087F31188BDE8F883022DEED120
:101CA0000020F7E7D4F8B4300133F0D041F2CF216F
:101CB000194801F023F9EAE7A36A23B141F2DA21D6
:101CC000154801F01BF9154B1B6803BB251D284661
:101CD00000F049FA01231249E26A0868934003437D
:101CE00014200B6029460F4B00FB023000F018FA5D
:101CF0000D4BE26A1B68DB6A9A42CAD90123B8F12C
:101D0000000F01D0C8F80030084A1360C1E704F1A1
:101D100018010748EAE700BFCC8401083407002017
:101D20003C070020C4060020B8060020B8070020A9
:101D30007407002038B5054608B9084B1D68002413
:101D400000F078FA95F8B830022B04BF85F8B84057
:101D5000012400F08FFA204638BD00BFB8060020ED
:101D6000F8B50F4C00F066FA2568ADB90D4F0E4E70
:101D7000384600F0C7F9304600F0C4F90B4B2A464C
:101D80001F600B4B0C210A201E6000F061FC2060DC
:101D900010B1084901F020F8BDE8F84000F06ABA37
:101DA000F0070020C4070020D8070020BC0700204F
:101DB000C00700200B850108914208B54160006111
:101DC0000AD8D21A83699A420DD2084B011D1868AD
:101DD00000F0B2F9002008BD9A4201D2994202D225
:101DE000011D034BF3E70120F5E700BFC00700200A
:101DF000BC07002007B5FFF7B3FF0C4B1B6843B9C6
:101E00000B484FF4897101F079F8002003B05DF8B8
:101E100004FB084BC822019301230749009307489C
:101E20000023FEF7A3FF0028EAD0EFE7F007002029
:101E300010850108F40700204B850108591F000890
:101E40002DE9F04180462C200D4617461E4600F035
:101E500031FB044688B125B94FF4B671084801F04A
:101E60004DF8FFF77DFF069BC4F80080C4E90657D4
:101E700026626362201D00F050F92046BDE8F08123
:101E8000108501082DE9FF410D4690461F46064684
:101E900020B94FF4C3710F4801F030F80E4C2068A0
:101EA00078B1052DCDE9015803960DDCFFF7F0FC64
:101EB000002302280CBF0A9A1A4601A9206800F0E4
:101EC000EBFB04B0BDE8F08100233A4601A900F025
:101ED00099FCF6E710850108F00700202DE9F7438B
:101EE00000271A4DDFF86C802B681A6832B9184A3F
:101EF00011681360296003B0BDE8F083DB68DC681B
:101F00001E6804F10409484600F02DF9636A204672
:101F10009847E369012BE7D1A36933449E4206D277
:101F2000636024614946286800F006F9DCE7002375
:101F30000097324619462046FFF7A4FF0028D3D168
:101F400040F27231404600F0D9FFCDE7BC070020D7
:101F5000C0070020108501082DE9F04F4FF001085F
:101F6000624D89B0DFF898B1DBF80020136843B305
:101F70000024D368D3F80090FFF732F9FFF738F95F
:101F80005B4B82461A681F4690425A4E1CD318601B
:101F9000002C4CD0584B1B681A68B2FA82F25209D6
:101FA000A9EB0A01306800F04FFFFFF7BFF998B9BD
:101FB0004FF08052514B1A60BFF34F8FBFF36F8FBA
:101FC0000AE001249946D7E70393FFF787FF039BB5
:101FD000C3F800A0FFF7AAF9002205A9306800F0B5
:101FE000B5FC0028BED0059B002BF5DB079C636980
:101FF00013B1201D00F0B7F8FFF7FAF83B688146EF
:10200000984201D2FFF76AFF059BC7F80090092BA1
:10201000E2D808FA03F313F4047A57D113F0C70F88
:1020200033D19B06D8D5204600F046FAD4E7814547
:1020300029D8FFF77BF9DBF80030DB68D3F80CB068
:102040000BF1040000F08FF8DBF81C30012B15D1E8
:10205000DBF818104B46524649445846FFF7ACFE91
:1020600060B1009423464A4621465846FFF70AFFCE
:1020700020B94FF4F471284600F040FFDBF824301B
:1020800058469847A8E722468AE7A169069B4A4630
:1020900019442046FFF790FE00289DD0636A204631
:1020A0009847E369012B97D1A2690699CDF800A062
:1020B0000A44534651462046FFF7E4FE00288BD1E0
:1020C00040F20131284600F019FF85E7069BA36125
:1020D00023B94FF44671284600F010FFA1694B4622
:1020E0004A4649442046FFF767FE75E71085010818
:1020F000EC070020F0070020C007002004ED00E0FE
:10210000BC0700204FF0FF3200F108034360C0E934
:1021100002230361002303607047002303617047BB
:1021200043689A684B608A609A6851609960036856
:1021300008610133036070470A6830B5531C0AD147
:1021400003695A684A6091608B605960036808614E
:102150000133036030BD00F108035C6825689542D7
:10216000EFD82346F9E70369D0E901128A60826853
:1021700051605968814208BF5A60002202611A68A2
:10218000013A1A601868704706480068006880F3D2
:10219000088862B661B6BFF34F8FBFF36F8F00DF61
:1021A00000BF000008ED00E0002307B501930B4BD2
:1021B0001B68013303D0CA21094800F09FFE4FF08D
:1021C000500383F31188BFF36F8FBFF34F8F019BD1
:1021D000002BFCD003B05DF804FB00BF040000201E
:1021E000538501084FF0807340F8043C054B21F003
:1021F000010140F8081C40F80C3C40F8202C403805
:10220000704700BFA9210008000000000000000086
:10221000074B19680868B0E8F00F80F30988BFF32E
:102220006F8F4FF0000080F311884EF00D0E704755
:10223000B80600204FF0500383F31188BFF36F8F6F
:10224000BFF34F8F084A13680133012B136009D184
:10225000064B1B6813F0FF0F04D040F275110448C1
:1022600000F04CBE704700BF0400002004ED00E009
:102270005385010810B5074C236823B94FF4BE718C
:10228000054800F03BFE2368013B23600BB983F354
:10229000118810BD040000205385010800000000D3
:1022A000EFF30980BFF36F8F0D4B1A6820E9F00F31
:1022B00010602DE908404FF0500080F31188FFF7BF
:1022C0000FF94FF0000080F31188BDE8084019684D
:1022D0000868B0E8F00F80F30988BFF36F8F70478C
:1022E000B806002008B54FF0500383F31188BFF300
:1022F0006F8FBFF34F8FFEF789FF18B14FF08052F9
:10230000024B1A60002383F3118808BD04ED00E03E
:102310000022054B05491A600A6041F26701044A30
:10232000116007221A60704710E000E018E000E03A
:1023300014E000E013B5264B264C1A78D2B2019275
:10234000FF221A701B78244ADBB28DF803309DF807
:10235000033003F0500313700723002223609DF81D
:102360000310581E090629D402B123602368032BE9
:1023700004D04FF49B71194800F0C0FD2368144A43
:102380001B0203F4E06323600024019BDBB21370A3
:10239000134B1A6842F470021A601A6842F07042D5
:1023A0001A60FFF7B5FF0F4B1C60FFF7EDFEFFF75C
:1023B00097F8FFF7F9FE204602B010BD9DF80330F4
:1023C00001225B00DBB28DF803300346C7E700BF94
:1023D00000E400E0FC070020F80700205385010816
:1023E00020ED00E00400002008B5EFF305830F2B7B
:1023F0000AD90D4A9B5C0D4A12789A4204D940F2E0
:10240000A5210B4800F07AFD0A4B0B4A1B681268A5
:1024100003F4E063934206D9BDE8084040F2B521D9
:10242000034800F06BBD08BDF0E300E0F8070020B2
:10243000538501080CED00E0FC07002070B50D4647
:102440000646FEF7CDFE0D4B0D491C6862198A4207
:1024500007D90C233360FEF769FF4FF0FF342046A5
:1024600070BD1A60074A13685B1B1360064A136845
:102470002B441360FEF75AFFF1E700BF080000206D
:10248000E46700200C0000200008002008B5EFF3EE
:1024900005831BB1C221034800F030FDBDE80840B0
:1024A000FEF79EBEA1850108FEF740BFFEF798BE6D
:1024B000FEF73CBF13F002B913F008B9704710B52E
:1024C0000446FFF7B7FEA46BFFF7D4FEB4FA84F01E
:1024D000400910BD70B51546026C0446866B42B9C2
:1024E00005689DB98068FFF735FAA5600136A663D7
:1024F00070BD6DB9406813F020F96368226C134415
:10250000A2686360934201D3236863600020EDE713
:10251000C06813F012F9236CE2685B4221681A4428
:102520008A42E2603EBFA2689B18E360022DEDD1B3
:102530000EB1013EEAE73046D8E703461A6C10B404
:10254000084662B1D9689C681144A142D96028BF8D
:10255000196810BC28BFD960D96813F0EEB810BC58
:10256000704770B50446FFF765FE94F8455004F1D6
:1025700024066DB2002D14DCFF2384F84530FFF7EC
:1025800079FEFFF757FE94F8445004F110066DB23F
:10259000002D12DCFF2384F84430BDE87040FFF7C3
:1025A00069BE636A002BE7D03046FFF795F808B1A3
:1025B000FFF714F9013D6DB2DCE72369002BE9D088
:1025C0003046FFF789F808B1FFF708F9013D6DB211
:1025D000DEE7000038B50D46044620B940F203118D
:1025E000194800F08BFCFFF725FED4E90F314B436F
:1025F0002268D0185B1A1344A060E3600020FF2318
:10260000A063626084F8443084F8453095B923694A
:1026100063B104F11000FFF75FF838B14FF080525A
:102620000A4B1A60BFF34F8FBFF36F8FFFF722FE85
:10263000012038BD04F11000FFF764FD04F124000F
:10264000FFF760FDF2E700BFFB85010804ED00E045
:10265000F8B50D461746064620B94FF4BB710D4834
:1026600000F04CFC05FB06F05030FFF723FF04465A
:1026700048B155B92060C4E90F6501212046FFF734
:10268000A9FF84F84C702046F8BD00F150030360A8
:10269000F1E700BFFB8501082DE9FF47884601925D
:1026A0001E46044620B940F2F1214B4800F026FCBA
:1026B000B8F1000F06D1236C23B140F2F221464855
:1026C00000F01CFC022E07D1E36B012B04D040F27A
:1026D000F321414800F012FCFFF7DAF830B9019B12
:1026E00023B140F2F6213C4800F008FC0027B9462F
:1026F000DFF8E8A0FFF79EFDA26BE36B9A4201D3DF
:10270000022E19D1324641462046FFF7E3FE636AA6
:102710001BB104F12400FEF7DFFF38B14FF0805207
:102720002E4B1A60BFF34F8FBFF36F8FFFF7A2FDE1
:10273000012004B0BDE8F087019D1DB9FFF79AFDA7
:102740000020F6E717B902A8FFF706F8FFF792FD99
:10275000FEF746FDFFF76EFD94F84430FF2B08BFEF
:1027600084F8449094F84530FF2B08BF84F84590D6
:10277000FFF780FD01A902A8FEF7FAFF28BBFFF7CB
:1027800059FDA26BE36B9A420ED1FFF773FD0199DD
:1027900004F11000FEF766FF2046FFF7E2FEFEF7A9
:1027A000C5FD48B10127A5E7FFF764FD2046FFF707
:1027B000D8FEFEF7BBFDF5E74FF08053CAF80030B6
:1027C000BFF34F8FBFF36F8FECE72046FFF7C9FED3
:1027D000FEF7ACFDB4E700BFFB85010804ED00E0A7
:1027E00010B5024600210120FFF732FF044638B140
:1027F000002383600360C3601A461946FFF74CFF4D
:10280000204610BD2DE9F843894690461F460446F0
:1028100020B940F2C331274800F070FBB9F1000F36
:1028200006D1236C23B14FF47171224800F066FB8E
:10283000022F07D1E36B012B04D040F2C5311D48B4
:1028400000F05CFBFFF7D0FDEFF311864FF0500373
:1028500083F31188BFF36F8FBFF34F8FA26BE36BCE
:102860009A4201D3022F22D194F845503A466DB2D4
:1028700049462046FFF72EFE6B1C13D1636A0BB945
:1028800001200BE004F12400FEF726FF0028F7D01A
:10289000B8F1000FF4D00120C8F8000086F31188C9
:1028A000BDE8F88301356DB284F84550E8E70020B3
:1028B000F4E700BFFB85010870B50D46044620B95A
:1028C0004FF48C61204800F019FB236C23B140F2D7
:1028D00064411D4800F012FB236833B9A36823B19B
:1028E00040F26941184800F009FBFFF77DFDEFF366
:1028F00011864FF0500383F31188BFF36F8FBFF33E
:102900004F8FA26BE36B93421CD994F84530013290
:102910005BB2A2635A1C10D1636A0BB9012009E0B3
:1029200004F12400FEF7D8FE0028F7D0002DF5D0E2
:102930000120286086F3118870BD01335BB284F8F2
:102940004530EBE70020F5E7FB8501082DE9F04372
:1029500085B00F460192044620B94FF4A061424869
:1029600000F0CCFA37B9236C23B140F204513E4851
:1029700000F0C4FAFEF78CFF30B9019B23B140F29E
:102980000951394800F0BAFA0026B046DFF8DC9069
:10299000FFF750FCA56BD5B139462046013DFFF746
:1029A000CCFDA563236963B104F11000FEF794FE2A
:1029B00038B14FF080522D4B1A60BFF34F8FBFF3E9
:1029C0006F8FFFF757FC012005B0BDE8F083019D34
:1029D0001DB9FFF74FFC0020F6E716B902A8FEF775
:1029E000BBFEFFF747FCFEF7FBFBFFF723FC94F869
:1029F0004430FF2B08BF84F8448094F84530FF2B07
:102A000008BF84F84580FFF735FC01A902A8FEF74E
:102A1000AFFEF0B92046FFF752FDA0B1019904F1D5
:102A20002400FEF71FFE2046FFF79BFDFEF77EFC0D
:102A300038B94FF08053C9F80030BFF34F8FBFF360
:102A40006F8F0126A4E72046FFF78BFDFEF76EFC93
:102A5000F7E72046FFF785FDFEF768FC2046FFF705
:102A60002EFD0028EDD0B6E7FB85010804ED00E05F
:102A70002DE9FF410446019120B940F2915152489D
:102A800000F03CFA236C23B140F295514E4800F01F
:102A900035FAFEF7FDFE30B9019B23B140F29A51A1
:102AA000494800F02BFA00252F462E46DFF81C81FE
:102AB000FFF7C0FBA36BE3B1013BA363236813B92A
:102AC000FEF7E8FFA060236963B104F11000FEF790
:102AD00003FE38B14FF080523C4B1A60BFF34F8F6A
:102AE000BFF36F8FFFF7C6FB0125284604B0BDE892
:102AF000F081019B4BB925B140F2E151324800F021
:102B0000FDF9FFF7B7FB0025EFE717B902A8FEF7BD
:102B100023FEFFF7AFFBFEF763FBFFF78BFB94F899
:102B20004430FF2B08BF84F8446094F84530FF2BF5
:102B300008BF84F84560FFF79DFB01A902A8FEF7D6
:102B400017FE40BB2046FFF7BAFCF0B123683BB943
:102B5000FFF770FBA068FEF7ABFE0546FFF78AFBA8
:102B6000019904F12400FEF77DFD2046FFF7F9FCF2
:102B7000FEF7DCFB38B94FF08053C8F80030BFF3E4
:102B80004F8FBFF36F8F012792E72046FFF7E9FCD5
:102B9000FEF7CCFBF7E72046FFF7E3FCFEF7C6FBAA
:102BA0002046FFF78CFC0028EDD0002D9DD0FFF7CC
:102BB00041FB616A19B1236B1968C1F10501A06875
:102BC000FEF714FF9DE700BFFB85010804ED00E060
:102BD0002DE9F04385B00F460192044620B94FF429
:102BE000CD61424800F08AF937B9236C23B140F235
:102BF0006C613E4800F082F9FEF74AFE30B9019B55
:102C000023B140F27161394800F078F90026B046EE
:102C1000DFF8DC90FFF70EFBA36BD3B139462046FB
:102C2000E568FFF78AFC636AE56063B104F124009C
:102C3000FEF752FD38B14FF080522D4B1A60BFF3B2
:102C40004F8FBFF36F8FFFF715FB012005B0BDE875
:102C5000F083019D1DB9FFF70DFB0020F6E716B9C3
:102C600002A8FEF779FDFFF705FBFEF7B9FAFFF7BB
:102C7000E1FA94F84430FF2B08BF84F8448094F8BC
:102C80004530FF2B08BF84F84580FFF7F3FA01A910
:102C900002A8FEF76DFDF0B92046FFF710FCA0B1C9
:102CA000019904F12400FEF7DDFC2046FFF759FCF2
:102CB000FEF73CFB38B94FF08053C9F80030BFF342
:102CC0004F8FBFF36F8F0126A4E72046FFF749FC23
:102CD000FEF72CFBF7E72046FFF743FCFEF726FB49
:102CE0002046FFF7ECFB0028EDD0B6E7FB85010896
:102CF00004ED00E02DE9F84389469046054620B9E9
:102D000040F2FB61204800F0F9F8B9F1000F06D15C
:102D10002B6C23B140F2FC611B4800F0EFF8FFF789
:102D200063FBEFF311874FF0500383F31188BFF378
:102D30006F8FBFF34F8FAC6B1CB395F8446049465F
:102D400076B22846FFF7F9FB013C731CAC6313D144
:102D50002B690BB901200BE005F11000FEF7BCFC5C
:102D60000028F7D0B8F1000FF4D00120C8F8000017
:102D700087F31188BDE8F883013676B285F84460A0
:102D8000E8E72046F4E700BFFB85010810B50446DC
:102D900020B940F28A71054800F0B0F8FFF74AFA0E
:102DA000A46BFFF767FA204610BD00BFFB85010842
:102DB00038B5054620B940F2A471064800F09EF8E7
:102DC000FFF738FAA86BEC6B241AFFF753FA20468A
:102DD00038BD00BFFB850108002330B5064A52F814
:102DE000335002EBC3041DB942F83310606030BDAC
:102DF0000133052BF3D1FAE714170020002310B597
:102E0000074A02EBC3014C68844204D1002042F817
:102E10003300486010BD0133052BF2D1FAE700BF43
:102E20001417002010B5044620B94FF4F861054886
:102E300000F064F82046FFF7E1FF2046BDE81040AF
:102E4000FFF73ABBFB85010870B504460D461646F0
:102E5000FFF7F0F994F84430FF2B04BF002384F807
:102E6000443094F84530FF2B04BF002384F84530EC
:102E7000FFF700FAA36B2BB93246294604F1240070
:102E8000FEF70AFC2046BDE87040FFF76ABB000071
:102E9000014B1860704700BF9408002073B5124CB6
:102EA000064623780D46114A1BB913780BB172B64A
:102EB000FEE70123002113700D48642212F061FC2B
:102EC0002B4600960B4A6421094813F023FB0A4B5A
:102ED0001B6803B198470125054E304606F0A4FD56
:102EE00072B62570F9E700BF7408002008080020BA
:102EF0000A0800204886010894080020F7B5184CFD
:102F0000064623780D46174A1BB913780BB172B6E3
:102F1000FEE70123002113701348642212F031FCF4
:102F20002B460096114A64210F4813F0F3FA104B18
:102F30001B680BB10C4898470E4B1B6803B19847B0
:102F40000125094E0C4F304606F06EFD384606F05E
:102F50006BFD72B6094B257000BF013BFCD1F2E757
:102F600075080020090800200A0800207086010862
:102F700004080020940800207F860108FFFF0F004E
:102F8000F8B5DFF898C003681A4FCCF800304368F2
:102F9000194E3B608368194D3360C368184C2B6031
:102FA000036918492360436982690B60164BC06945
:102FB0001A60164A1060DCF800003868306828682B
:102FC00020681C460968124D1968124E1268642266
:102FD0000021284612F0D5FB23683246642128469A
:102FE00013F098FA284606F01FFD0B4B00BF013B7B
:102FF000FCD1ECE7840800208C0800209008002019
:103000008808002070080020780800207C08002034
:103010000A08002035860108FFFF0F008008002005
:10302000074B1B6803B198471EF0040F0CBFEFF36A
:103030000880EFF309808169004A1047812F00085A
:103040009408002010B1012105F0E8BD704708B1D7
:1030500006F042BD7047806870474068704743681B
:10306000012B08D1D0E90432934204D01878003003
:1030700018BF01207047002070474B6870B5042BC3
:1030800004460E464FF0000304D0C0E900338360CD
:10309000204670BDD1E90425AD1AC0E90033836034
:1030A0002846FFF7D4FFC4E900000544A560D6E92F
:1030B0000453024629468B4205D00AB10E78167099
:1030C00001310132F7E75B1B18446060E0E74268BA
:1030D0000346022A06D1D3E904031B1A032B01D9A4
:1030E00006F057BD002070474368032B06D1D0E996
:1030F00004329A4208BF0023184670470023FBE7BA
:10310000037870B581680446B3B1284A284806F0B0
:1031100047FC6368022B12D12046FFF7D8FF014617
:10312000244806F03DFCE1680B78002B3CD0224897
:10313000BDE8704006F034BC204A2148E7E7032B85
:1031400005D12046FFF7D0FF01461E48E9E7042BD2
:103150000ED100251C4ED4E90431C91A8D4205D286
:10316000595D304606F01CFC0135F4E71748D8E7F6
:10317000012B08D12046FFF772FF1549154B002897
:1031800018BF1946E1E700250F4ED4E904239B1A26
:103190009D4205D2515D304606F002FC0135F4E750
:1031A0000D4806F0FDFBBEE70C48C1E79F80010813
:1031B000238701083787010859870108FA8A01081F
:1031C0002D870108AC880108F7AF01084187010885
:1031D0001D8701081887010847870108F98A010837
:1031E000B1F5705F2DE9F84304460F4602D9174840
:1031F00005F0D4FC066883689B1B994219D9D0F866
:1032000004900846FFF723FF05460346A9EB06088E
:10321000B14505D00BB132781A7001360133F7E7AA
:103220002068FFF70FFF05EB080325603D4463604E
:10323000A56025683DB92846C4E90155FFF702FF9E
:103240002846BDE8F8830120FBE700BF9B86010804
:103250002DE9F0410368561A904682680446D21A56
:1032600096420D4615D93046FFF7F1FE0746034654
:10327000A84505D02A7803B11A7001350133F7E764
:1032800020683E44FFF7DEFEC4E901662760BDE822
:10329000F0814768481EFF1ABE420ED81A469D1993
:1032A000A91A002904DD10F8011F02F8011BF7E735
:1032B000002EA8BF9B196360E9E73D441F44FA1A3A
:1032C000002A04DD10F8012F03F8012BF7E76368EB
:1032D0002E461846B04505D0327800B1027001364E
:1032E0000130F7E7A8EB05084344E4E708B509C84F
:1032F0001B1AC3F57050884202D2104605F04EFCEE
:10330000994238BF1946581805D2B0F5705F28BFEA
:103310004FF4705008BD4FF47050FBE72DE9F843AF
:103320000C46591C204615461F46FFF759FF064616
:1033300080B14FF00003EA1929462046FFF788FFC5
:10334000D4E901539D4208D00DB100232B7063686E
:10335000013363603046BDE8F8831B4A01212046F3
:10336000FFF7C4FF23680746A5EB0309FFF76FFECD
:1033700010EB090F1CBF002300F8093023688046BA
:103380001A460146954205D009B1107808700132FD
:103390000131F7E7D31A01334344104619466568F3
:1033A000954207D019B192F800C081F800C00132EF
:1033B0000131F5E72D1A1D4420684744FFF742FE0E
:1033C000C4E90085A760C5E7D68601082DE9F0416C
:1033D00005460E4661B1D0E90132D21A8A4209D3BC
:1033E00000221E4403B11A700133B342FAD16B605C
:1033F000BDE8F081114AFFF779FF8046FFF727FE0D
:10340000D5E9001407460A460346944205D00BB19D
:103410001078187001320133F7E70023641A3C4436
:10342000264404B123700134B442FAD12868FFF76E
:1034300009FEC5E900744744AF60D9E70A8801086E
:10344000D0E90032D21A914210B503D9891AFFF798
:10345000BDFF10BD3CBF5B184360FAE770B50C467A
:10346000012120461646FFF7BBFE054628B1012183
:103470002046FFF7E5FF23681E70284670BD000058
:10348000426808B5012A06D1BDE808400A4600F1A5
:103490001001FFF7E3BF8168024806F081FA0020BF
:1034A00008BD00BF9987010810B50C1A134605D056
:1034B00001462246184612F04BF90346181910BD72
:1034C0002DE9F0410446A2EB01081646A3682268E4
:1034D00008469B1A98450F4615D94046FFF7B7FD99
:1034E00005460346BE4205D00BB13A781A70013743
:1034F0000133F7E72068FFF7A5FD25604544C4E9DF
:103500000155BDE8F0816568AD1AA84504D831467B
:10351000FFF7CAFF6060F4E70D442946FFF7C4FFD8
:10352000636829461A468E4205D00AB108781070A1
:1035300001310132F7E7751B1D446560E1E770B5A5
:103540000E46D2E900313046C91A1446FFF748FE4C
:10355000054630B1D4E900124FF000033046FFF7C2
:10356000AFFF284670BD000070B5D0E9043100F10E
:1035700010060446C91A3046FFF732FE054640B130
:10358000D4E90712914206D1A168064806F008FA6C
:103590000025284670BD4FF000033046FFF790FF2E
:1035A000F7E700BFF08601082DE9F0418368A2EB40
:1035B00001081746026804469B1A98450E4615D91D
:1035C0004046FFF744FD05460346B74205D0327832
:1035D00003B11A7001360133F7E72068FFF732FDB7
:1035E00025604544C4E90155BDE8F0814568AD1A40
:1035F000A84505D839463046FFF756FF6060F3E727
:103600000D4429463046FFF74FFF636829461A46A6
:103610008F4205D0087802B1107001310132F7E70E
:103620007D1B1D446560DFE737B50D4601A81146D7
:1036300006F0BFFA04212846FFF7D2FD044630B158
:103640004FF0000302AA01A92846FFF7ADFF20466C
:1036500003B030BDFFF7E8BF426808B5022A06D1C3
:10366000BDE808400A4600F11001FFF7DDBF8168A0
:10367000024806F095F9002008BD00BFD187010877
:10368000FFF7EABF2DE9F0410E4600211C46174620
:103690008AB00DF108082022C0E9001181600546BA
:1036A000404612F06EF81E2C94BF22461F22394667
:1036B000404612F042F87368013B032B14D8DFE850
:1036C00003F00230404722462F49384612F0D5FF1A
:1036D00028B122462D49384612F0CFFF40B90122C9
:1036E00029463046FFF7BAFE28460AB0BDE8F08109
:1036F00022462749384612F0C0FF28B12246254904
:10370000384612F0BAFF08B90022E9E700220AA9F8
:1037100041F8242D404613F0D3F8021C18BF0122B3
:10372000DEE700220AA941F8242D404613F0C8F82C
:10373000019B02464345D7D029463046FFF774FF28
:10374000D2E723463A4629463046FFF7E7FDCBE766
:1037500014F00106C8D1640821462846FFF740FD51
:103760000028C1D021462846FFF76AFEB442BBD0EC
:10377000022107EB460006F049FA0028B4DB2B686B
:1037800098550136F2E700BF18870108AB8601089B
:103790001D870108B086010830B51346426885B020
:1037A000032A044600F110050A460FD0014601A87D
:1037B000FFF768FF204601AA2946FFF7C0FE04462E
:1037C0000198FFF73FFC204605B030BD2946FFF7C2
:1037D000A5FD0446F7E70000F0B5044685B01046A5
:1037E00016460F4612F041FF62680346032A16D0C0
:1037F0003246214601A8FFF745FFDDE9011291425B
:103800000BD04FF000033846FFF75AFE0125019810
:10381000FFF718FC284605B0F0BD0025F7E7441C6B
:1038200021463846FFF7DCFC054618B9054806F086
:10383000B7F8EFE74FF00003321931463846FFF78B
:1038400007FDE7E7B68601080A4600F11001FFF719
:10385000C3BFF8B50D461946284616461F46FFF762
:10386000BFFC044630B14FF00003F2193146284640
:10387000FFF79AFE2046F8BD1346426810B5042AA9
:1038800006D1BDE810400A4600F11001FFF7E1BF84
:103890008168024806F084F8002010BD60870108A6
:1038A0002DE9F0410C4690461D46064640B139B11F
:1038B0000849184605F0AEF9074618B9306020608F
:1038C000BDE8F0812A46414611F037FF3760256098
:1038D000F6E700BF93C1010870B5054610460E46D5
:1038E000144612F0C2FE2246034631462846BDE881
:1038F0007040FFF7D5BF000010B50C4631B1044948
:1039000000F016FD231A5842584110BD0846FCE746
:10391000D289010810B500B121B9064806F040F877
:10392000002010BD1AB9044AFFF7D6FFF8E70120BE
:10393000F7E700BF24880108318801082DE9F74323
:1039400005460E4617469846FFF7E4FFC0B10F49FB
:10395000222005F05FF90446A8B13846FFF77BFB4B
:1039600081463846FFF7C0FB12F07FFE4346CDE9A3
:103970000090074A2221204612F0CCFD30602C60D6
:1039800003B0BDE8F0833060F9E700BF93C10108E0
:10399000638801082DE9F8430E46984616F8013B66
:1039A00002F1FF3903704660C0F8089004461546DE
:1039B0003D214A46304611F0A3FE074668BB4B4600
:1039C000182B28BF1823C4F83001A36204F10C059A
:1039D000A26A3146284611F0B0FE0022A66AA31959
:1039E0001A7337B1D4F83021791C04F12C0011F08E
:1039F000A4FE0022D4F83031234483F82C202EB1C9
:103A00002946404600F094FCC4F83401D4E9011280
:103A10000A48BDE8F84306F039B8831B023DED1AA9
:103A2000182B1A46A8BF1822B5F5807F28BF4FF47F
:103A30008075A262C4F83051C8E700BF6B880108E6
:103A400030B504460D46084B9DB00093074A084B1D
:103A5000642103A812F05EFD03AA29462046FFF761
:103A60003BFF1DB030BD00BF5D88010855880108CF
:103A7000408801082DE9F0431646642203F10C0446
:103A80008FB00746884620461849ADF8042012F04A
:103A9000DAFD70B9336B23B1154A322101A812F057
:103AA00039FD01AA41463846FFF716FF0FB0BDE8C1
:103AB000F08320460F4912F0C6FD0446A0B9736B8F
:103AC000002BEED00125DFF83490736B01A81B5D4D
:103AD000C5F1320128444A46013412F01BFD102C76
:103AE00005F10205F1D1DCE7034ADBE7778801083D
:103AF0007C8801088088010888880108F7AF0108E0
:103B0000016000210273C0E901117047F8B5054654
:103B100017460E4639B332B32049182005F06EF827
:103B2000044608B3C0E9006700261D4B00F10807F2
:103B30004361C0E9026606618021384604F0A2FFB5
:103B4000D4E90012384604F0DBFF1449082005F0E0
:103B500055F890B16B68C0E9004603B96860AB687E
:103B600003B15860A860F8BD0E4805F019FF0121A7
:103B70003046BDE8F84005F051B80B4805F010FF9D
:103B80000A4A40F255110A4805F00AFF012120684F
:103B900005F044F818212046EBE700BF93C1010867
:103BA0008081828388B00108158901083189010864
:103BB0006889010870B54468054604B3266806F1B3
:103BC000080004F067FFD6E903239A42C4B216D175
:103BD0006B681BB96A210B48FFF790F968680821E8
:103BE00043686B6005F01AF86B6803B9AB6001219C
:103BF000306805F013F81821304605F00FF820461C
:103C000070BD00BFC488010810B50446006810B13B
:103C1000012105F003F8204610BD7FB50546FFF7EA
:103C20001AFA12F022FD0446861C2846FFF715FA00
:103C3000013803281DD8DFE800F00206080F07341A
:103C4000601C04B070BD0D34FAE72846FFF74CFA4B
:103C500012F00BFD3418F3E701A82946FFF70DFA1F
:103C6000DDE9014301A81B1B06EB4304FFF7CCFF72
:103C7000E6E70B34E4E700002DE9F04786B0814623
:103C8000884614461D46FFF745FE68B12046FFF7FB
:103C9000C4FF4049074604F0BDFF0646C9F80000CE
:103CA00028B93D4805F07CFE06B0BDE8F087204607
:103CB000FFF7D3F90138032864D8DFE800F00214D5
:103CC000253D2046FFF7C7F981462046FFF7C7F993
:103CD000324B334A002814BF18461046CDE90090F5
:103CE0002B46304A0AE02046FFF7B5F981462046C8
:103CF000FFF7EDF92B46CDE900902B4A39463046C7
:103D000012F008FC05463AE0612D20460DD1FFF780
:103D1000A2F905462046FFF7E7F92B46234A009013
:103D20003946304612F0F6FBECE7FFF794F981468E
:103D30002046FFF7D9F9D1E72046FFF78CF92B464B
:103D400000901B4A3946304612F0E4FBDFF86890D9
:103D50002146054603A8FFF790F9DDE9034AA2458D
:103D60000AD0AF4214F8013B06D9791B70194A46B4
:103D700012F0D0FB0235F2E703A8FFF745FFC8F8C1
:103D8000005091E72046FFF766F92B460090094A5C
:103D9000C6E700BF93C1010888B001081887010871
:103DA0001D870108978801089F880108A8880108D5
:103DB000AF880108B5880108F7AF01082DE9F04385
:103DC0000E4607469046D1B04FF49C72002102A8DF
:103DD0001D46589C11F0D5FC31463B46424602A890
:103DE000FFF7D8FD3678622E00F0F98029D83F2EF3
:103DF00054D008D82E2E5BD09DF808107D4805F0D1
:103E0000CFFD7D4A58E0532E00F0A180612EF3D102
:103E10000DF1340979484A4605A905F0C1FD4F98CE
:103E2000002800F0D580FFF718F9032800F0AF80D4
:103E30002846734A2146FFF74FFD724805F0B0FD52
:103E400033E0722E48D00ED8642E3AD0672ED3D1EC
:103E500005A96D4805F0A4FD33464F9A2146284632
:103E6000FFF70AFF21E0732E51D0772EC4D16748A7
:103E700005F096FD0399002900F0BA80644812F01D
:103E8000E2FB0646002840F0B380624805F088FD5A
:103E90003146384600F036FF5F4AA4E05F4805F03F
:103EA0007FFD21462846FFF7CBFD51B0BDE8F083EA
:103EB0005B4805F075FD5B4A21462846FFF70CFD7F
:103EC000F3E70399584805F06BFD02AB3A462146EB
:103ED0002846FFF7CFFDE8E705A9544805F060FD47
:103EE0000399534812F0AFFB20B9384600F03AF975
:103EF000504AE1E74F993846FFF7FEFC08B14E4AB9
:103F0000DAE74F9808B1FFF72FFB7223A5E705A961
:103F10004A480DAA05F044FD4F993846FFF7ECFCDE
:103F20000028ECD14F9810B10DA9FFF78DFC732339
:103F30004F9A21462846FFF79FFE2168404805F02A
:103F40002FFD2868216805F091FD3E4876E705A918
:103F50003D480DAA05F024FD4F993846FFF7CCFCEB
:103F60000028CCD14F9810B10DA9FFF76DFC214668
:103F7000284673234F9AFFF77FFE0121384600F051
:103F8000C1FE324805F00CFD01F024F98DE74F9891
:103F9000FFF7AAF812F069FB08F1010606442C4964
:103FA000304604F037FE074690B14F98FFF79CF873
:103FB000284A03463146CDF80090384612F0AAFA56
:103FC00039464F98FFF740FC0121384604F026FEA1
:103FD00061234F9A21462846FFF7B0FCADE71E4803
:103FE00005F0DEFC1D4A21462846FFF775FCC8E7B0
:103FF00001214EE7D98A0108FB8A01082B8A0108B2
:10400000448A0108508A01089C8901088C8A0108A9
:10401000B48A0108BA8A0108D78A0108768901089A
:10402000808901088A8901088D890108AD89010804
:104030009F800108C0890108C3890108DD89010842
:10404000F6890108F98A0108078A01080C8B010822
:1040500093C10108628A0108678A01088A8A0108F7
:104060002DE9F0410C4680460D4815461E46069F38
:1040700005F096FC04B14DB90A4805F091FC3946AB
:104080003046BDE8F041084AFFF726BC06973346A4
:104090002A4621464046BDE8F041FFF78FBE00BFEB
:1040A000388B01084D8B0108608B01087FB50446F1
:1040B0000D4600680C49164600F000FB78B100F090
:1040C000CFFC03AB00933246294602ABFFF7C8FF93
:1040D000DDE902122046FFF719FD04B070BD034868
:1040E00005F05EFCF9E700BFD2890108F6880108F7
:1040F00010B10C2104F092BD704710B1012104F001
:104100008DBD704730B513460D460446AC4207D00E
:104110001BB194E8070083E807000C330C34F5E783
:10412000184630BD10B5044638B1FCF713F82046E8
:10413000BDE81040282104F071BD10BD70B50446E3
:10414000406AFFF7D5FFD4E90656AE4204D02846B0
:10415000FCF700F82835F8E7A06908B1FFF7E2FF9F
:10416000204670BDF8B5054600242826074FD5E93E
:1041700006031B1ADB107B439C4205D206FB04009E
:10418000FFF7F2F90134F2E7F8BD00BFCDCCCCCC9B
:10419000F8B50446224805F003FC224805F000FC6F
:1041A000D4E90631994218D0C91A1F4EC91071437B
:1041B0001E4805F0F5FB00252827D4E906031B1A45
:1041C000DB1073439D4205D207FB0500FEF798FF05
:1041D0000135F2E7164805F0E3FBD4E90931154E45
:1041E000C91A89107143144805F0DAFB00250C2721
:1041F000D4E909031B1A9B1073439D4205D207FBA8
:10420000050000F0F9FF0135F2E70C4805F0C8FBA6
:104210000B4805F0C5FBBDE8F8400A4805F0C0BBF7
:10422000658C01089D9A0108CDCCCCCC6F8C01081F
:10423000818C0108ABAAAAAABA8C0108F98A0108E4
:10424000CA8C0108C28301082DE9F043002487B01D
:1042500006466846CDE90044029404F071FA6846C7
:1042600004F006FB4FF028082F4F304DD6E9062307
:104270009B1ADB107B439C424ED208FB04F302EBFB
:104280000309D35C002B43D14846FEF7E4FE014608
:10429000684604F0DFFA4846FEF7DFFE042837D808
:1042A000DFE800F03803101A24004846FEF7D7FE76
:1042B0000146684604F084FA50BBC2212846FEF746
:1042C0001DFE25E04846FEF702FF0146684604F061
:1042D0005DFAE8B9C621F1E74846FEF705FF014659
:1042E000684604F0B7FA98B9CA21E7E7494603A837
:1042F000FEF7C3FEDDE903126846521A04F082FAA3
:1043000018B9CF212846FEF7F9FD0398FFF7F5FE0F
:104310000134ABE7D321D1E7684604F0D1FA029823
:1043200007B0BDE8F08300BFCDCCCCCCAF8B01088B
:104330002DE9F04305460E4600244FF028081A4F99
:104340008DB0D5E906239B1ADB107B439C4224D217
:1043500008FB042931461822684612F0A0F94846A5
:10436000FEF779FE182201460DEB020012F097F9D4
:10437000684605F083FC684605F092FC06A805F047
:104380007DFC06A805F08CFC182268460DEB0201A6
:1043900012F073F918B10134D3E74FF00009484621
:1043A0000DB0BDE8F08300BFCDCCCCCC2DE9F04FF3
:1043B00006460F4600244FF00C09DFF86C808DB0E4
:1043C000D6E909535B1B9B1008FB03F39C4224D2E4
:1043D00018223946684612F062F9182209FB04FBDC
:1043E0000DEB020055F80B1012F059F9684605F074
:1043F00045FC684605F054FC06A805F03FFC06A8FD
:1044000005F04EFC182268460DEB020105EB0B0A85
:1044100012F033F918B10134D2E74FF0000A5046D8
:104420000DB0BDE8F08F00BFABAAAAAA10B5144624
:10443000FFF77EFF20B12146BDE81040FFF704BA28
:1044400010BD0000F8B50C46064640F201120021EE
:10445000224811F096F94FF4807221461F4811F05E
:104460006CF91E491E4805F09BFA1E491B4812F0C4
:1044700045F91C490546002012F040F92946074637
:104480003046FFF755FFA0B929463046FFF78EFFAB
:10449000044600B30168144805F082FAA368384660
:1044A000984701242046F8BD3946104805F078FAAF
:1044B000F8E73A4629463046FFF7B8FF0446002899
:1044C000F2D00B4805F06CFA0A4805F069FA30465C
:1044D000FFF75EFEE6E729460748E7E71C0A0020EB
:1044E000E38C0108B3880108E98C0108128D0108EA
:1044F000FE8C0108F98A01082B8D010810B54FF4D4
:10450000807204460649043004F05EFA002805DD96
:104510002046BDE810400249FFF794BF10BD00BF20
:104520001C09002038B514461D46FFF701FF28B1CD
:104530002A462146BDE83840FFF72EB938BD10B5F0
:104540001446FFF7F5FE20B12146BDE81040FFF705
:1045500083B810BD10B51446FFF7EAFE10B121462E
:10456000FEF78EFF002010BD38B514461D46FFF73C
:10457000DFFE28B12A462146BDE83840FFF77CB966
:1045800038BD00002DE9F04700248CB0074603A891
:10459000CDE90344059404F0D3F8214603A8009420
:1045A00004F0EAF90146002834D0214603A804F0BB
:1045B0006CF940F2E7330446009300263546DFF8F5
:1045C000F890009BB34273D9214603A804F08FF9F9
:1045D000824600286CD1182321460DEB030203A864
:1045E00004F016F90444214603A804F08EF980462D
:1045F000B0B10CAA214642F828AD03A804F0A6F8F1
:10460000029A044406A93846FFF799FF00B1013524
:104610000136D6E76A4603A804F03EF90446CCE723
:10462000214603A804F0BBF970B10CAA02F8288D4A
:10463000214603A804F0B4F89DF80820044406A914
:104640003846FFF787FFE1E7214603A804F078F931
:10465000804668B102AB01AA214603A804F0E9F83C
:10466000DDE90123044406A93846FFF75BFFCDE7E7
:10467000214603A804F056F990B10CAB43F8288DFD
:1046800001AA214603A8CDF8048004F0AAF89DF8F9
:1046900008300444019A06A93846FFF765FFB5E7DC
:1046A000039B4846195D01F0E00105F079F9AFE799
:1046B00028460CB0BDE8F087F48B010808B5FFF779
:1046C00037FE18B1BDE80840FEF7C9BC08BD10B5FB
:1046D000044608461146FFF72BFE014620B9C4E9FF
:1046E0000000A060204610BD2046FEF7C6FCF9E79A
:1046F00008B5FFF71DFE18B1BDE80840FEF7E7BC9E
:1047000008BD08B5FFF714FE18B1BDE80840FEF774
:10471000EBBC08BD037810B5044643B1044805F06E
:104720003FF90021204600F0EDFA0023237010BD70
:10473000DF8B01082DE9F0410E46BDF91840174600
:104740009846BDF91C50FFF7D3FF844205DCA84210
:1047500003DCA8F80000BDE8F081012322463B708D
:10476000314606902B46BDE8F041014805F018B9E6
:10477000878B01082DE9F0410E46DDE90645174615
:104780009846FFF7B5FFA04205DBA84203DCC8F856
:104790000000BDE8F081012322463B7031460690BF
:1047A0002B46BDE8F041014805F0FAB8878B0108B7
:1047B00073B51C460E461546FFF7A3FF002302AA59
:1047C00042F8043D2060069904F0D0FE019B33B10D
:1047D00022683146034805F0E3F801232B7002B04C
:1047E00070BD00BF4E8D0108002370B5D1E90025D2
:1047F000AD1A0446C0E9003383600E46284601D056
:1048000005F06AF9C4E900000544A560D6E9005343
:10481000024629468B4205D00AB10E781670013146
:104820000132F7E75B1B18446060204670BD38B565
:1048300004460D460B78103000F8103C4B681031E0
:1048400040F80C3C51F8083C40F8083C51F8043C56
:1048500040F8043CFFF7C8FF05F11C0104F11C00FF
:10486000FFF7C2FF204638BD2DE9F843D0E90054D8
:10487000641B9146A2101F4C06465443B4F5705F6A
:104880000F4602D11C4804F089F9002C14BF2246BF
:104890000122A418A1EB050526D2B4F5705F23D838
:1048A0002CB30C20604305F017F9804618EB050384
:1048B0001CBF99E8070083E8070042463946306884
:1048C000FFF720FC716800F10C023846FFF71AFC74
:1048D00005463068FFF70CFC0C2303FB0484C6E993
:1048E0000085B460BDE8F8834FF47054D9E7A04662
:1048F000DCE700BFABAAAAAAD68601082DE9F043DF
:10490000054685B008460C4617461E4611F0ADFE1A
:10491000172803D982212D48FEF7F0FACDE9014787
:10492000D5E9097803962A4AA8EB0706B410544340
:104930000134B4F5705F02D9264804F02FF9EB6A10
:10494000DB1B9B1053439C4215D94FF00C0909FB0C
:1049500004F91CB1484605F0BFF80446224641461A
:104960003846FFF7CFFB686AFFF7C2FB26446C624C
:104970004C44AE62EC62EA6AD5E9090314491B1A99
:104980009B10121A4B4392104A430133934206D9AB
:10499000114805F005F88C210C48FEF7AFFAD5E96F
:1049A0000A3293420AD023B104AA12E9070083E82D
:1049B00007000C33AB6205B0BDE8F08301AA1946CD
:1049C00005F12400FFF750FFF5E700BFAF8B0108AA
:1049D000ABAAAAAA9B8601086C8B010838B50025F2
:1049E0000346044603F8045B29461846142210F0D7
:1049F000C8FE0A4AC4E906556261C4E90855C4E91B
:104A00000A55C4E90C55802103F0D7FF2046044B1A
:104A1000044A0549FFF772FF204638BD9C08002074
:104A2000654A0008718D01087D8D010810B5084C9C
:104A30002368DB0709D40748FFF7D0FF0123064AA4
:104A40000649044823600FF03AF9024810BD00BF40
:104A500098080020200B0020000000203D410008A5
:104A6000FFF7E4BF08B5FFF7E1FFBDE80840FFF737
:104A70008FBB0022C0E90022826010B50C68046080
:104A80000A6042684C6844604A6082688C6884604E
:104A90008A6010BD70B50E4605461446B54217D063
:104AA0009CB12B7805F1100123706B6804F11000A4
:104AB0006360AB68A360EB68E360FFF7DAFF05F1C2
:104AC0001C0104F11C00FFF7D4FF28342835E5E76A
:104AD000204670BD2DE9F843D0E90064A41BE31023
:104AE000234C05465C43B4F5705F0F46914602D1F6
:104AF000204804F053F8002C14BF23460123E41887
:104B0000A1EB060623D2B4F5705F20D814B3282099
:104B1000604304F0E1FF804618EB060002D04946EE
:104B2000FFF785FE394642462868FFF7B3FF6968FC
:104B300000F128023846FFF7ADFFD5E900690746C6
:104B4000B14509D03046FBF705FB2836F8E74FF4AE
:104B50007054DCE7A046DFE7286808B1FFF7E2FA07
:104B6000282303FB0484C5E90087AC60BDE8F88313
:104B7000CDCCCCCCD68601082DE9F047D0E906573C
:104B800004460E46DFF80C818AB0AF421BD029469E
:104B90006846FFF74CFE6846FEF75DFA81463046F0
:104BA000FEF759FA0146484605F0A9F830B13046FB
:104BB000FEF751FA0146404604F0F2FE6846FBF764
:104BC000C9FA2835E1E7D4E906892E4AA9EB080796
:104BD000FD1055430135B5F5705F02D92A4803F041
:104BE000DDFF236AA3EB0803DB1053439D4220D96A
:104BF0004FF0280A0AFB05FA1DB1504604F06CFF7D
:104C00000546494640462A46FFF744FFD4E906894F
:104C1000C14505D04046FBF79DFA08F12808F7E7A3
:104C2000A06908B1FFF77EFA2F44A5615544E761FA
:104C30002562226AD4E9060312491B1ADB10121AF4
:104C40004B43D2104A430133934206D90F4804F034
:104C5000A7FE77210E48FEF751F9D4E907039842E1
:104C600009D010B13146FFF7E2FDE3692833E36173
:104C70000AB0BDE8F0870146324604F11800FFF79C
:104C800029FFF5E7CDCCCCCC9B860108468C0108EA
:104C9000AF8B0108148C0108002313B502A941F859
:104CA000043D094B0422D3E90140084B20445B68D2
:104CB0009847044628B1064804F072FE204602B028
:104CC00010BD0448F8E700BF700B00205C0B00200B
:104CD000C68F0108DA8F010808B5084804F060FEA5
:104CE000FFF7A4FEFFF73EFA054804F059FEFFF770
:104CF0009DFEBDE80840FFF74BBA00BFF78F0108E3
:104D00000F90010873B505464FF416700C4604F079
:104D1000E3FE064630B9214804F042FE2221204835
:104D2000FEF7ECF84FF416720021304610F029FD22
:104D3000314628464FF41672FFF786FA194D0146A0
:104D400001902CB3184804F02BFED5E901431C4414
:104D5000164DEB681BB101992046083198476B68E6
:104D6000042210492046984704226B680DEB02018B
:104D7000A01898476B68019A314604F108009847DB
:104D80000B4804F00DFE304604F090FE02B070BDFA
:104D9000084804F005FE6C68DAE700BFE0A90108E6
:104DA0007A8E0108700B0020B88E01085C0B002081
:104DB000F28E0108D78E01082DE9F74FFFF736FE76
:104DC0002F4F06462F4804F0EBFDB846DFF8D09091
:104DD000DFF8D0A0FCF70CFA2B4D38602B68AB46FF
:104DE0002A4C002B37D003F56A436033984232D205
:104DF00023782BB9264804F0D3FD264804F0D0FDD3
:104E0000012330462370FFF779FB41F28833524685
:104E10004FF0FF310020FCF749FE0190FCF7E8F964
:104E2000019BC8F8000023B9237813B13046FFF77F
:104E300065FBDAF80030DA0744BFD8F800202A60B2
:104E40009B07C7D50023CBF80030D9F80830002BDA
:104E5000BED09847BCE723786BB100213046FFF7FE
:104E600051FF0D4804F09CFD0C4804F099FDD9F861
:104E7000083003B19847002323702B60C5E700BFBB
:104E8000880B0020368F0108840B00207C0B00204B
:104E90004B8F01086E8F0108918F0108A38F0108C5
:104EA0005C0B0020800B002010B5FFF7BFFD04460F
:104EB0000021FFF727FF2046FFF76AF9BDE8104001
:104EC00003480023012202210068FCF739BE00BF1D
:104ED000580B002010B5FFF7A9FD04460021FFF78D
:104EE00011FF2046BDE81040FFF752B92DE9F74306
:104EF000194E0746884675680AB1B3681D440024F8
:104F0000DFF8609002A941F8084D0422D9F800307A
:104F100028469847326800998A4204D00F4804F026
:104F20003FFD204614E00422D9F800300DEB0201C9
:104F3000A818984701990A4804F032FD019A4245A1
:104F4000EFD8D9F80030394605F1080098470198A4
:104F500003B0BDE8F08300BF700B0020018F010893
:104F60001C8F01085C0B002084B0F0B585B00AAC42
:104F700084E80F000B9B23B940F229117F48FDF70D
:104F8000BDFF0A9B23B94FF495717C48FDF7B6FF2E
:104F90007B4C0AAD0FCD0FC42B682546794C0FAA68
:104FA00007CA45F8103984E8070012B94FF4806346
:104FB000A360236823B940F235117048FDF79EFFC6
:104FC0002368013304D140F237116C48FDF796FF96
:104FD000FFF72CFD06466C4B6C4A6D49FFF78EFCC3
:104FE0006C4B6D4A6D493046FFF788FC6C4B6D4A3F
:104FF0006D493046FFF782FC4FF4167004F06CFDEB
:10500000074680B9694804F0CBFC694804F0C8FC45
:105010003046FFF7A7F800233370FFF73DFE6548E1
:1050200004F0BEFC2CE04FF41672002110F0A9FB36
:10503000D4E901032D68042203A91844A8470028D5
:1050400061D02268039B9A425DD15B4804F0A8FCC2
:1050500001224FF416713846FFF748FF04465748BF
:1050600004F09EFCFFF718FE002C48D0012333709B
:10507000224639463046FFF785FA384604F016FDD9
:1050800033783BBB4FF4167004F026FD044630B96C
:10509000464804F085FC7F213848FDF72FFF4FF488
:1050A00016720021204610F06CFB00224FF416719E
:1050B0002046FFF71BFF074690BB04F0F7FC204695
:1050C00004F0F4FC3E4804F06BFCFFF7AFFC002159
:1050D000FFF718FE3B4BFA22019301233A49009354
:1050E0003A480023FBF742FE20B94FF4A871234849
:1050F000FDF704FF05B0BDE8F04004B07047344848
:1051000004F04EFC347000224FF416713846FFF75D
:10511000EDFE04460028ABD1384604F0C7FC74E726
:105120004FF4167004F0D8FC054630B91F4804F05F
:1051300037FC8E211148FDF7E1FE4FF41672002175
:10514000284610F01EFB4FF4167229463046FFF732
:105150007BF808B92846B0E78742FBD10023E95C19
:10516000E25C9142F6D101339F42F8D1284604F027
:105170009DFC204604F09AFCACE700BF7A8E010843
:105180005C0B0020700B0020D54E0008818D0108BB
:105190008D8D0108D94C0008928D0108AD8D010854
:1051A000A94E0008B58D0108CD8D0108E0A90108C0
:1051B000348E01080F900108D28D0108F68D010888
:1051C000588E0108580B00206F8E0108B94D000859
:1051D0000B8E010810B5064C226922B94FF4AA7152
:1051E0000448FDF78BFE2369BDE81040184700BF57
:1051F0005C0B00207A8E010810B504460168074850
:1052000004F0CEFB616831B10B7823B10448BDE8EE
:10521000104004F0C5BB0348F9E700BF2790010820
:1052200059870108F98A010810B50446C06908B118
:1052300004F03CFC206908B104F038FC606808B157
:1052400004F034FC204610BD10B504460068FDF79C
:10525000E9FD204610BD00001FB50B4654680178DB
:105260000294127801925A68009242681B680248C0
:1052700004F096FB04B010BD2C900108CB2101482E
:10528000FDF73CBE4A900108FE2307B502A901F8CC
:10529000043D054B1868002300681A46FDF7B2FA72
:1052A00003B05DF804FB00BF980B0020D0B51F468B
:1052B0007423C0E9003100230446836008201646A9
:1052C00003F08AFCC0E90067A0602046D0BD000062
:1052D0002DE9D043DDE9066799467223C0E9003124
:1052E00000239642836077EB09030446904603DA75
:1052F0002B210748FDF702FE102003F06DFCC0E9EA
:105300000089C0E90267A0602046BDE8D08300BFE5
:1053100082900108036837B5632B04460D4601D01F
:10532000FFF7ACFF002302AA42F8043DA16828461B
:1053300004F01CF9019B1BB138210248FDF7DEFD8A
:1053400003B030BD8290010870B563230025C0E929
:105350000031044685601A20164603F03DFC1A22EF
:10536000294610F00EFA3146A0602046FFF7D2FF22
:10537000204670BD81647047C16470472DE9F843D1
:10538000D0E90173884600254FF00C09DB1B0A4E5B
:105390009B105E43ECB2B4420BD209FB047241464F
:1053A000506811F050F901350028F3D12046BDE8CE
:1053B000F8834FF0FF30FAE7ABAAAAAA2DE9F84329
:1053C000D0E90473884600254FF00C09DB1B0A4E18
:1053D0009B105E43ECB2B4420BD209FB047241460F
:1053E000506811F030F901350028F3D12046BDE8AE
:1053F000F8834FF0FF30FAE7ABAAAAAA2DE9F041F3
:105400000E4649680446FFF7B9FFC0B2FF2803D033
:105410007C212948FDF772FDD4E90123274F9B1A0F
:105420009B107B437E2B03D97F212348FDF766FD2C
:10543000D4E901120C25E068531A9B10121A7B4321
:1054400092107A430133934205FB03F80ED841448E
:10545000A160D4E9013496E80700E31A04E90700E3
:1054600016489B1058430138BDE8F081404604F0CF
:1054700033FB054618B969211148FDF73FFDD4E912
:1054800001C30027A3EB0C039A100C4B5343002BD2
:1054900009DD05EB070E0CEB070207CA013B8EE89E
:1054A00007000C37F3E7604604F000FB65604544F5
:1054B000C4E90255CDE700BF82900108ABAAAAAAB1
:1054C000BD9101081FB56E23CDE90131002301A96B
:1054D0000393FFF793FF05B05DF804FBFF2270B55F
:1054E000002380F828204FF000424FF0FF31C0E940
:1054F0000D23C2636FF07F42C0E910120522C0E99C
:105500000033C0E91423C0E902330022C0E90433A8
:10551000C0E90633C0E908330363C0E91233836589
:105520004FF000431E4DC0E918232A68044612F0CC
:10553000010213D101211B4E084632607160FDF754
:1055400087F8306018B950211748FDF7D7FC0123C0
:10555000164A174913482B600EF0B1FB154B1A6819
:105560000AB9104A1A6014492046FFF7ABFF134BE3
:10557000134918702046FFF7A5FF124B1249187007
:105580002046FFF79FFF114B114918702046FFF787
:1055900099FFFE220F4B18700F4B20461A7070BDFA
:1055A000940B0020180C0020FE9101080000002040
:1055B00049520008980B00202E920108A00B0020F1
:1055C000369201089E0B00203E9201089C0B0020A1
:1055D000439201089F0B00209D0B002010B5084C42
:1055E0002368DB0709D40748FFF778FF0123064A41
:1055F0000649044823600EF062FB024810BD00BF5C
:10560000900B0020B00B0020000000202952000861
:105610002DE9F0410E4649680446FFF7CFFEC0B2BF
:10562000FF2803D087212948FDF768FCD4E904232B
:10563000274F9B1A9B107B437E2B03D98A2123483B
:10564000FDF75CFCD4E904120C25A069531A9B10E9
:10565000121A7B4392107A430133934205FB03F8FD
:105660000ED841446161D4E9043496E80700E31A96
:1056700004E9070016489B1058430138BDE8F08143
:10568000404604F029FA054618B969211148FDF78A
:1056900035FCD4E904C30027A3EB0C039A100C4B90
:1056A0005343002B09DD05EB070E0CEB070207CA7D
:1056B000013B8EE807000C37F3E7604604F0F6F98B
:1056C00025614544C4E90555CDE700BF8290010836
:1056D000ABAAAAAABD91010838B5D0E901239B1A4B
:1056E000074A9B105343CDB29D42044603D3A621E3
:1056F0000448FDF703FC0C20636800FB053038BD4F
:10570000ABAAAAAA8290010838B5CCB211490546C5
:105710000B6813F0010307D10F4A702013720123A5
:1057200010600E480B605060FF2C10D0D5E90423A8
:105730009B1A0B4A9B1053439C4203D3B221094846
:10574000FDF7DCFB0C23286903FB040038BD02488D
:10575000FCE700BF8C0B0020A40B0020BA900108CE
:10576000ABAAAAAA8290010810B5D0E90730C9B245
:10577000D2B2834209D01C788C4204D15C78944226
:1057800001D1987810BD0333F3E74FF0FF30F9E70C
:105790002DE9F041D0E904239B1A4F4A9B10534353
:1057A0000D4609780446994203D393214B48FDF7EF
:1057B000A5FBD4E901239B1A474A9B105343697800
:1057C000994203D394214548FDF798FBD4E904237B
:1057D0009B1A414A9B105343A978994205D3FE294D
:1057E00003D095213D48FDF789FB6A78297820464A
:1057F000FFF7BAFFC3B2FF2B064629D0297820460F
:10580000FFF782FF697807462046FFF765FF3146BC
:1058100080462046FFF778FF414602463846FFF7AC
:105820001BFD29782046FFF76FFF69780646204662
:10583000FFF752FFA97807462046FFF765FF394674
:1058400002463046FFF708FD9C212448FDF756FB31
:10585000D4E90723204F9B1A7B437E2B03D99F213A
:105860001E48FDF74BFBD4E90762616A931B7B433B
:10587000521A57430133BB4203EB43080AD846444C
:1058800026622A88236A23F8032CAA7803F8012CBD
:10589000BDE8F081404604F01FF9064618B96921B9
:1058A0000F48FDF72BFBD4E90702131A0A4A5A43A3
:1058B0000023002A0ADDC118B1F800C0F71826F845
:1058C00003C08978013AB9700333F2E704F0EEF8C7
:1058D000E66146446662D3E7ABAAAAAA82900108B1
:1058E000BD91010813B5FF24084A02AB106803F804
:1058F000044D0A4600681946FDF728F8012814BF30
:1059000020469DF8040002B010BD00BF980B002097
:1059100038B5816800681D46144604F08FF90346C7
:10592000201845EBE37138BD08682DE9F041722875
:105930001F461FD074280FD0632820D1886803F039
:10594000D5FE002871F1000304460D460EDADD2174
:105950000D48FDF7D3FA09E08B68D3E90045B5F1AE
:10596000004F08BF002C01D0A4187D4120462946D5
:10597000BDE8F0818868BDE8F041FFF7C9BF0024A9
:105980004FF00045F2E700BF829001082DE9F04199
:105990000F4606460024FFB2FFF7B6FED6E90758C9
:1059A000454511D02B78BB420CD169783046FFF7C2
:1059B00093FE0368692B05D183681B6803B1984780
:1059C0000134E4B20335EBE72046BDE8F0812DE970
:1059D000F34180460F460025FFF796FED8F81C409D
:1059E000D8F8206003340336FFB2A6421BD023460A
:1059F00033F8032D9B78ADF804208DF8063014F8A9
:105A0000033C9F420DD19DF805104046FFF764FE10
:105A10000368692B05D183685B6803B1984701353A
:105A2000EDB20334E1E7284602B0BDE8F0810000A2
:105A3000836C73B504460D46164623B94FF48E7138
:105A40000B48FDF75BFACDE9006423462A46094975
:105A50000948FBF78BF9012807D04FF491710448EE
:105A600002B0BDE87040FDF749BA02B070BD00BF9A
:105A700082900108B2910108B560000838B590F82D
:105A800047300446032B0D4604D940F23511064831
:105A9000FDF734FA94F847305A1C84F847201C4428
:105AA00084F8425038BD00BF8290010810B590F8CC
:105AB0004730044623B94FF49D710648FDF71EFA9E
:105AC00094F84730013BDBB284F847301C4494F82B
:105AD000420010BD82900108CBB2FE2B10B50446E7
