:020000040800F2
:1000000000800020DD76000821770008917200084A
:100010002177000821770008217700080000000000
:1000200000000000000000000000000041CD0008BA
:100030002177000800000000D1CD000815CE00088F
:100040002177000821770008217700082177000830
:100050002177000821770008355100085551000824
:100060006D5100086F510008715100082177000898
:100070002177000821770008217700082177000800
:1000800021770008217700082177000821770008F0
:10009000217700082177000821770008895100089E
:1000A00021770008217700082177000821770008D0
:1000B00021770008217700082177000821770008C0
:1000C00021770008217700082177000821770008B0
:1000D00021770008C1960008B99A00082177000826
:1000E000E551000889900008217700082177000871
:1000F0002177000800000000000000000000000060
:1001000000000000000000005FF808F170470000E8
:10011000816801480AF0E0BB308F0108816801481E
:100120000AF0DABB638F010810B5044681680B48FA
:100130000AF0D2FB2069002103681B6898472369F5
:1001400002205B6898472069002103685B68984734
:1001500023690220BDE81040DB6A18473A8F010886
:10016000816801480AF0B8BB548F01080B4B13B5E6
:100170001A68B2F5007F04D21A68511C1960084B46
:100180009854084B1C680EF041F900230246009376
:10019000072120460FF006F802B010BDC805002068
:1001A000C8030020CC05002010B50446282115F016
:1001B0003FFA204610BD000070B5154C2368092B8E
:1001C0001FD92268134D023A2946134815F0B3F996
:1001D00006462068023828440AF0B3FC86420146ED
:1001E00010D10E4E30680DF0EFFC22680023294636
:1001F00030680DF035FD10B909480AF06DFB002399
:10020000236070BD324607480AF066FBF7E700BF7F
:10021000C8050020C803002000000020D0050020F1
:10022000E48E0108128F01081E4B70B543601E4B0F
:100230001E4E83601E4B00F114050360C0E90312DB
:1002400004460FCE0FC5336886B02B600122002113
:100250004FF400700DF076FC164B186018B942216F
:10026000154806F099FF154B0A2100930023144806
:100270001A460EF075FF134B41F22101186001235D
:10028000CDE900334FF6FF7303A81A4615F000F9C5
:100290000D4A03AB03CB106020461B8851601381CD
:1002A00006B070BD738F01087D8F0108D08E0108E4
:1002B000988F0108D0050020E2900108B9010008DC
:1002C000838F0108CC050020000000200148006851
:1002D0000DF058BDD005002010B50446C068074990
:1002E0000368DB689847E06804F1140103681B6841
:1002F00098470022024B1A6010BD00BF6D01000834
:10030000C8050020C06810B50368084C5B689847B2
:1003100001220221204608F073FD0122032120461C
:1003200008F06EFD0022024B1A6010BD0000024072
:10033000C8050020C160704708B503480AF0CCFA30
:10034000BDE8084009F0D6BBC590010809F0D2BB52
:1003500010B50446806910B1012115F069F9E06813
:1003600010B1012115F064F9204610BD70B583600D
:100370000023C0E90012C0E903334361C0E906333A
:10038000036204990446154600F1180613F0A4FE12
:1003900038B9294606480AF09FFA2021054806F098
:1003A000FBFE049A3146204613F066FE204670BDDF
:1003B000E3900108E290010830B5274B9FB0D3E9E4
:1003C000001214331B6881EA02045C400094234845
:1003D0000AF082FA14F0AEFA054621460EA80FF094
:1003E000B3FF0EA804F03AFF0EA928460FF0D6FE80
:1003F0001B4B05AC1B4A009303211B4B2046FFF708
:10040000B5FF2146284614F049FB2046FFF7A0FF20
:10041000164B174A00930321164B2046FFF7A6FF01
:100420002146284614F03AFB2046FFF791FF284664
:10043000114B124A124914F0EFF9124B0593124B6B
:100440000693124B0793124B009394E80700052381
:1004500014F0F8FC1FB030BD5000F81FB08F010839
:10046000FD8F01080B900108D38F010874900108DB
:1004700068900108149001084D0300089B90010842
:10048000BF900108798A0008018A00083903000832
:100490000000080860B1037813F0700204D0402A0D
:1004A00005D003F00F00704743685868704701207B
:1004B0007047704710B5044610B904480AF00CFAAA
:1004C000D4E90001BDE810400AF06CBAA994010813
:1004D00010B926480AF000BA0178406801F07002AD
:1004E000402A01F00F030ED004D8A2B102682048C0
:1004F0000AF0F2B9502A20D0602AF7D1012B0CD192
:1005000001781C4805E01C491C4B002818BF1946FF
:100510001B480AF0E1B9FFF7CDBF022B02D10188D9
:100520001848F6E7042B02D101881748F1E7082B99
:1005300001680CBF15481648EBE7012B03D190F971
:1005400000101448E5E7022B03D1B0F9001012485F
:10055000DFE7042B03D1B0F900101048D9E7082BCE
:1005600001680CBF0E480F48D3E700BFA9940108EB
:100570008D940108129401080C9401080794010855
:10058000439101081E9401082B9401083894010836
:1005900046940108529401085D9401086994010889
:1005A00075940108829401082DE9F04F89B0322238
:1005B000002103AD9E4802F0CCFD32229C49284622
:1005C00014F0C9FF95E807009A4B9B4C1B6884E820
:1005D0000700102B08D80021204614F0E1FF974BAC
:1005E000187809B0BDE8F08F0022CDE90522944AC1
:1005F000103B03920493DDE904329A4223D2284649
:1006000002F03DF920B90121284602F040F9F2E755
:10061000284601F065FE0446284602F025F950B34D
:1006200088480AF059F9DDE90432069986480AF04B
:1006300053F986480AF050F9DDE904130398C91A02
:1006400018440AF0AFF982480AF046F97A4814F0E3
:10065000B2FF0446784814F0B0FF014620460AF085
:10066000A1F9754814F0A9FF014610B9724814F0B9
:1006700097FF784BB4E778480AF02EF9636877481B
:1006800019780AF029F9A368754819780AF024F94D
:100690002369744819880AF01FF973480AF01CF995
:1006A0002068FFF707FFE36870481B6819680AF0C5
:1006B00013F9E3681B681A6840F201739A4242D149
:1006C0006B480AF009F9E3686A4F5B68DFF8C0819C
:1006D0001E69DFF8C091002E35D033682BB1384643
:1006E0000AF0FAF83068FFF7E5FE73682BB15A6834
:1006F0001978127840460AF0EFF8B36813B148460B
:100700000AF0EAF8F36823B11A785B4811460AF058
:10071000E3F8336923B193F9001058480AF0DCF884
:10072000736933B1564819780AF0D6F87069FFF743
:10073000CFFEB3692BB153480AF0CEF8B069FFF78A
:10074000B9FEF669C7E7E3681A68116840F20172FA
:10075000914269D15B68DFF840A100934A4B364F64
:100760005A68D3F80080DFF834B10192019A434609
:10077000424559D0186801F0D8FE064650460AF0A6
:10078000ABF83046FFF796FED6E90012384614F073
:10079000EDFE009B08F10408D3F81090B9F1000FAA
:1007A0003AD0D9F800307BB1D3F804E072689645AE
:1007B0000AD1002296450ADD18683168805C895CA0
:1007C000884201D10132F5E7D9F81C90E6E72F48BD
:1007D0000AF082F8D9F81400FFF77AFED9F814006D
:1007E000FFF758FEC1B2384614F0DAFED9F81410FB
:1007F0000B7813F0700F09D14B68D3E9001238461B
:1008000014F0B4FE304601F043FEAFE70846FFF7B0
:1008100041FE02464968F2E758460AF05DF849464B
:10082000384614F0BDFEEDE7204601F041FDE2E65A
:1008300090080020FC070020F0070020010A00209B
:10084000F805002089910108B1910108CE910108B5
:1008500011930108030A0020DB910108E9910108C6
:10086000FA9101080E9201081B9201082E920108CC
:100870004092010855920108869201089892010859
:10088000A7920108B9920108E4050020DD92010851
:100890005F92010878920108C8920108F692010857
:1008A0002DE9F04387B008F007FD4B4B6D46D3E9C7
:1008B0000089B9F1004F08BFB8F1000F0BD0B0EBC1
:1008C000080661EB09074FF00009DFF83881B045F1
:1008D00079EB07025BDAC3E9000103AC3F4809F09A
:1008E000FBFF14223E49204614F035FE07F054FF6A
:1008F000074615F09FF800210646204614F050FEEA
:100900000221204614F04CFE0021204614F048FE3F
:100910000021204614F044FE3249384603F04EFFD1
:1009200004F09CF801B2204614F04CFE31462046FB
:1009300014F048FE94E8070085E80700284614F004
:100940003CFE044638B3284809F0C6FF14F00CF802
:10095000264913F025FE0023ADF80C3010B1012319
:100960008DF80D30284614F026FE0446284614F073
:1009700024FE039B02462146012006F0BBF92846CF
:1009800014F01DFE1A4B187807B0BDE8F083284616
:1009900014F0DCFDD2E7174814F00FFEB8B115488B
:1009A00014F00BFE0146144809F096FF1148ADF80B
:1009B0000C4014F000FE04460E4814F0FEFD039BAC
:1009C00002462146022006F095F90A48D8E70B486E
:1009D00009F082FF0A4BD6E710000020759301084A
:1009E0000009002000007A4494930108B59301089F
:1009F000020A0020F0070020C2930108EC930108CE
:100A0000030A002008510100024B186803681B69A3
:100A1000184700BFC808002010B1042114F008BE18
:100A2000704710B1012114F003BE704710B50446A1
:100A30000068FFF7F1FF204610BD07B58DF80410E0
:100A400001A98DF805208DF8063005F09FFA03B056
:100A50005DF804FB10B50C4C04F004FF2368DB07C1
:100A60000FD400F1380300F18C0200F17C0107483B
:100A700006F0E8FC0123064A06490448236002F018
:100A800039FB024810BD00BFD80500202C0800200B
:100A900084500020B304000810B50B4C04F0E2FEB3
:100AA0002368DB070DD400F1380200F17C01074810
:100AB000FFF7BAFB0123064A06490448236002F007
:100AC00019FB024810BD00BFD40500200408002017
:100AD000845000200D010008F8B5184809F0FCFE0C
:100AE000FFF7DAFF0546FFF7F7FB41F288334FF4D3
:100AF000007213492846FFF7E9FB124C2060284694
:100B0000FFF700FC23682BB90F4809F0E5FE0F4BF7
:100B10001878F8BD0E4809F0DFFE0025084F0D4E8D
:100B200023689D4205D2795D304609F0D5FE013536
:100B3000F6E7094809F0D0FE084BE9E721930108E0
:100B4000F0050020FC07002035930108010A002071
:100B50005D93010870930108E1900108030A0020E9
:100B60002DE9F04F87B00DF10B020DF10A01C048DD
:100B700009F0B2FE0CF000FB04460CF003FB21462A
:100B80000246BC4809F0A8FE04F06CFE04460CF0D6
:100B9000F3FA05460CF0F6FA29460246B54809F084
:100BA0009BFE204604F010FFB34809F095FEFFF7C6
:100BB00051FF06F07FFC002800F0AA81FFF74AFFF2
:100BC0000146204615F0FEFAAC4809F085FEFFF715
:100BD00063FF0146204615F0F5FA204615F0ACFA01
:100BE000204615F0BFFAA64809F076FE0CF0C4FACC
:100BF00004460CF0C7FA214602469E4809F06CFEF6
:100C0000FFF7DAFB0CF0B8FA04460CF0BBFA214609
:100C10000246984809F060FE9A4809F05DFEFA2005
:100C20000DF046FD13F0A0FE13F0AEFA964809F061
:100C300053FE0CF0A1FA04460CF0A4FA2146024639
:100C40008C4809F049FE914809F046FE13F08CFEED
:100C50008F4C904B904D23602B680646DB0705D4E4
:100C600004F000FE8D4B186001232B608C4B8D4DE2
:100C700063608D4BA3608D4B23618D4BE3608D4B87
:100C800063612B688C4C13F0010F04D105F0AAF8B6
:100C9000012320602B6020687D4904F051FF8749C3
:100CA0003046256813F09FFC8549024603A804F0EE
:100CB00029FF03A9284604F0B3FF256806228DF812
:100CC000070000237F4903A804F0E8FE03A9284693
:100CD00004F0A6FF7C4B03A903937C4B206804938C
:100CE00005F09AF87A4D7B4B804603A92068039360
:100CF000049505F091F8784B834603A92068CDE967
:100D0000033505F089F8754D754B824603A92068B7
:100D10000393049505F080F8724B074603A92068F9
:100D2000CDE9033505F078F86F4B8DF80500039396
:100D3000002303A92068049305F06EF86B4B8DF82F
:100D40000600206803A980F844800393684B694D2E
:100D5000049305F061F80646206806F071F8DFF8A4
:100D6000A8915B462A7841462068DFF8A081FFF70A
:100D700064FE9DF805302A7859462068FFF75DFE2D
:100D800099F8003098F8002059462068FFF755FE82
:100D900099F800302A789DF805102068FFF74DFE7D
:100DA00099F8003098F800209DF805102068FFF7AA
:100DB00044FE53462A7899F800102068FFF73DFE5C
:100DC0003B462A7851462068FFF737FE3B4698F8A5
:100DD000002051462068FFF730FE33462A78394616
:100DE0002068FFF72AFE334698F80020394620682D
:100DF000FFF723FE404F414A3B7831462068127886
:100E0000FFF71BFE33462A7839782068FFF715FE76
:100E10009DF806302A7831462068FFF70EFE5346CB
:100E20009DF807209DF806102068FFF706FE206851
:100E300005F054FA324809F04FFD24680CF09CF993
:100E400005460CF09FF9294602460A4809F044FD80
:100E50002C4809F041FD01224FF49671204605F01F
:100E600017FA00200DF098F907B0BDE8F08F00BF29
:100E7000AF940108D4940108F39401082395010864
:100E800037950108489501085F950108719501089B
:100E9000CC080020B9920008E0050020C808002016
:100EA000090A0008DC050020F9930008899300086E
:100EB000559300087D900008C40800200B9001089D
:100EC0008E950108979501089F9501083D1100082E
:100ED000D90A0008A4950108B0950108A9050008E1
:100EE000B5950108BE950108CE950108D495010875
:100EF000A1080008030A00209D0A0020020A002021
:100F0000DD950108F79501089C0A0020010A0020E0
:100F1000014809F0E1FC57E6089501087FB501207A
:100F200002F0FCF8029003F07DFE384809F0D4FC92
:100F3000374809F0D1FC374809F0CEFC364A37492A
:100F4000374809F0C9FC3749374809F0C5FC37482C
:100F500009F0C2FC364B374A1B6837490093374BC0
:100F600012681B68364802F05FFA3549354809F0C7
:100F7000B3FC03A808F042F903A809F00DFC06AC85
:100F80000146314809F0A8FC54F8101D2F4809F01B
:100F9000A3FC21462E4809F09FFC0CF01DF80446E6
:100FA0000CF01AF801252146002400F5705229485A
:100FB00009F092FC06F01EF823464FF4967226497B
:100FC000CDE9005425480CF0F9FF0CF0D5F80646A1
:100FD0000CF0D8F831460246214809F07DFC4FF06C
:100FE000FF31284604F0A6F94FF4FA7007F0E6FC4A
:100FF0004FF0FF31204604F09DF91A4809F06CFCCF
:10100000194809F069FC0DF0B3F9FEE729960108CB
:101010005796010861960108949601089F96010869
:10102000AA960108BA960108C1960108CC96010853
:101030006400F81F5000F81FEC9601085400F81FD8
:10104000E4080020FE960108099701081B97010893
:1010500028970108369701084F970108610B00088F
:10106000D4940108589701086B9701082DE9F843BB
:10107000D0E90034E41AA410B4F5705F06460F46B8
:10108000914602D1244814F0A9FA002C14BF22463C
:101090000122A418A1EB03081AD2B4F5705F17D887
:1010A000CCB1A00009F0AAFC054615EB080F18BF4B
:1010B000D9F80030306818BF45F808302A46034692
:1010C0009F420AD00AB11968116004320433F7E76D
:1010D0004FF47054E5E72546E7E73B1A043303EB8A
:1010E000050E3A46F4467168914209D0BCF1000FF2
:1010F00002D01368CCF800300CF1040C0432F3E792
:10110000CF1B774405EB8404FFF786FCC6E9005744
:10111000B460BDE8F88300BF0F9601080A46D0E925
:101120000113994210B5044605D009B112680A604E
:101130000431616010BDFFF799FFFBE72DE9F04F27
:10114000684887B009F0C8FB13F00EFC664913F03D
:101150004AFA054602F088F9002800F09F80441CF6
:10116000B4F5705F02D9614814F038FA204609F0EE
:1011700045FC06460020FFF754FC002E49D13046BE
:10118000FFF74FFC38215A4806F006F8002301AA61
:1011900058493046CDE90333059302F097F90546E7
:1011A000DFF84C81534F002D59D0284602F05CF9EE
:1011B000002848D0441C204609F020FC029018B9B1
:1011C0004421404605F0E8FF22462946029801F0F6
:1011D000B5FFDDE9035BABEB05094FEAA904013478
:1011E000B4F5705FBFD8059B5B1BB4EBA30F24D98C
:1011F0004FEA840A1CB1504609F000FC04462B4615
:1012000021469B4510D009B11A680A6004310433A5
:10121000F7E7334628462C44A042B7D0027803B102
:101220001A7001300133F7E70398FFF7F5FB04EB81
:1012300009030394544404930594039850B9CDE9E9
:101240000400FFF7E9FB01AA3946002002F03EF94D
:101250000546A8E702A903A8FFF760FFF3E72846C1
:10126000039F049C0395CDE90455FFF7D5FB304659
:10127000FFF7D7FB204809F02FFB3D46DFF88C80B5
:101280001E4EA5420DD055F8041B4046039109F0AF
:1012900023FB03A93046FFF741FFF2E70446074668
:1012A000E8E7FFF7D7FB06F005F9B0B1144809F0FD
:1012B00013FBFFF7F1FB0446FFF7CCFB06F009F93F
:1012C00001462046FFF736F80E4B38461C78FFF7EC
:1012D000A3FB204607B0BDE8F08F0B4809F0FCFAED
:1012E000F2E700BF0E910108689001082191010802
:1012F000E29001083191010833910108E4050020D2
:1013000047910108030A00206E91010841910108EC
:1013100010B50446642114F08BF9204610BD00007E
:10132000FF2208B5074B08481A700023074AC0E996
:1013300000338360064901F0DDFEBDE80840054842
:1013400014F004B900080020E405002084500020B7
:101350002D0A0008F007002008B5102009F04EFB08
:101360001022002101F0F5FE08BD10B5044680B141
:10137000006801F08DF8606801F08AF8A06801F05B
:1013800087F8E06801F066FD2046BDE8104009F0EE
:101390001FBB10BD38B50446FFF7DEFF05462046EB
:1013A00001F067FA702806D00123E3602846FFF7B2
:1013B000DCFF002528E0204601F036FA0428F3D1AE
:1013C000204601F072F82860204601F04DFA00280E
:1013D000ECD1204601F069F86860204601F044FA3B
:1013E0000028E3D1204601F060F8A860204601F013
:1013F0003BFA0028DAD1204601F0D3FDE860204610
:1014000001F032FA0028D1D1284638BD10B5044683
:10141000012009F0F3FA047010BD70B5044601F024
:101420003AFA30B9204601F024FA402803D00123CB
:10143000E360002070BD204601F0F6F90128054662
:10144000F5D1204601F01BFA06462946204636B162
:1014500001F01DFAFF20BDE87040FFF7D7BF01F093
:1014600016FA3046F7E708B109F0B2BA704708B586
:10147000042009F0C3FA0023036008BD10B5044638
:1014800038B1006801F004F82046BDE8104009F0CA
:101490009FBA10BD38B50446FFF7E9FF0546204660
:1014A00001F0E7F9702806D00123E3602846FFF732
:1014B000E5FF00250DE0204601F0B6F90128F3D143
:1014C000204600F0F2FF2860204601F0CDF9002808
:1014D000ECD1284638BD08B5042009F08FFA002366
:1014E000036008BD10B5044638B1006800F0D0FFB5
:1014F0002046BDE8104009F06BBA10BD38B504466F
:10150000FFF7E9FF0546204601F0B3F9702806D041
:101510000123E3602846FFF7E5FF00250DE02046A4
:1015200001F082F90128F3D1204600F0BEFF2860C7
:10153000204601F099F90028ECD1284638BD10B5B5
:10154000044698B1006800F0A3FF606800F0A0FFB7
:10155000206900F09DFFA06800F09AFFE06800F0AD
:1015600097FF2046BDE8104009F032BA10BD38B5EB
:101570000446142009F042FA14220021054601F025
:10158000E8FD204601F075F9702806D00123E360DC
:101590002846FFF7D4FF002531E0204601F044F94A
:1015A0000528F3D1204600F080FF2860204601F096
:1015B0005BF90028ECD1204600F077FF68602046F8
:1015C00001F052F90028E3D1204600F06EFFA86038
:1015D000204601F049F90028DAD1204600F065FFE5
:1015E000E860204601F040F90028D1D1204600F003
:1015F0005CFF2861204601F037F90028C8D1284651
:1016000038BD08B51C2009F0F9F91C22002101F0B1
:10161000A0FD08BD10B50446C8B1006800F038FF51
:10162000606800F035FFA06800F032FFE06801F06C
:1016300089F9206900F0E6FC606900F029FFA069E3
:1016400001F080F92046BDE8104009F0C1B910BD95
:1016500038B50446FFF7D5FF0546204601F009F9E5
:10166000702806D00123E3602846FFF7D3FF00254A
:1016700043E0204601F0D8F80728F3D1204600F0D7
:1016800014FF2860204601F0EFF80028ECD1204636
:1016900000F00BFF6860204601F0E6F80028E3D177
:1016A000204600F002FFA860204601F0DDF8002887
:1016B000DAD1204601F055F9E860204601F0D4F86F
:1016C0000028D1D1204600F0A7FC2861204601F077
:1016D000CBF80028C8D1204600F0E7FE686120461C
:1016E00001F0C2F80028BFD1204601F03AF9A86104
:1016F000204601F0B9F80028B6D1284638BD08B513
:10170000142009F07BF91422002101F022FD08BD0C
:1017100010B5044698B1006800F0BAFE606800F0A9
:10172000B7FEA06800F0B4FEE06801F065F920693A
:1017300000F0AEFE2046BDE8104009F049B910BDEA
:1017400038B50446FFF7DBFF0546204601F091F867
:10175000702806D00123E3602846FFF7D9FF002553
:1017600031E0204601F060F80528F3D1204600F072
:101770009CFE2860204601F077F80028ECD1204636
:1017800000F093FE6860204601F06EF80028E3D177
:10179000204600F08AFEA860204601F065F8002887
:1017A000DAD1204601F044F9E860204601F05CF807
:1017B0000028D1D1204600F078FE2861204601F0B3
:1017C00053F80028C8D1284638BD08B50C2009F0C8
:1017D00015F9002202604260826008BD10B504461F
:1017E00068B1006800F054FE606801F005F9A06877
:1017F00001F030FB2046BDE8104009F0E9B810BD0B
:1018000038B50446FFF7E1FF0546204601F031F800
:10181000702806D00123E3602846FFF7DFFF00258C
:101820001FE0204601F000F80328F3D1204600F025
:101830003CFE2860204601F017F80028ECD1204635
:1018400001F0F6F86860204601F00EF80028E3D1B8
:10185000204601F0A6FBA860204601F005F800280C
:10186000DAD1284638BD08B5242009F0C7F824226B
:10187000002101F06EFC08BD10B50446F8B1006807
:1018800000F006FE606801F05DF8A06800F0E5FD7C
:10189000E06801F0B1F8206901F054F8606900F0E7
:1018A000DCFDA06900F0DCFAE06900F0F1FD206ADF
:1018B00000F0EEFD2046BDE8104009F089B810BDEB
:1018C00038B50446FFF7CFFF0546204600F0D1FFAC
:1018D000702807D001232846E360FFF7CDFF0025DD
:1018E000284638BD204600F09FFF0928F2D1204647
:1018F00000F0DBFD2860204600F0B6FF0028E9D1AB
:10190000204601F02EF86860204600F0ADFF002868
:10191000E0D104226021204600F056FDA860204658
:1019200000F0A2FF0028D5D1204601F081F8E86040
:10193000204600F099FF0028CCD1204601F011F894
:101940002861204600F090FF0028C3D108226021C2
:10195000204600F039FD6861204600F085FF002830
:10196000B8D10F4A0F49204600F0A3FAA8612046DB
:1019700000F07AFF0028ADD1204600F096FDE86126
:10198000204600F071FF0028A4D1204600F08DFD14
:101990002862204600F068FF0028A1D09AE700BF27
:1019A000CD2D00088D2E000808B5242009F026F85A
:1019B0002422002101F0CDFB08BD70B5044638B3E8
:1019C000006800F065FD606800F062FDA06800F04E
:1019D0005FFDE068FFF747FD206900F0B3FF606935
:1019E00000F0B0FFA06901F007F8E56945B1D5E95D
:1019F000000600F04DFD284608F0EAFF3546F5E701
:101A0000206A01F027FA2046BDE8704008F0E0BFE8
:101A100070BD2DE9F8430446FFF7C6FF0546204692
:101A200000F027FF702806D00123E3602846FFF767
:101A3000C4FF002550E0204600F0F6FE0928F3D14F
:101A4000204600F032FD2860204600F00DFF0028FF
:101A5000ECD1204600F029FD6860204600F004FF2C
:101A60000028E3D1204600F020FDA860204600F0C9
:101A7000FBFE0028DAD12046FFF7CFFCE8602046C5
:101A800000F0F2FE0028D1D1204600F06AFF286164
:101A9000204600F0E9FE0028C8D1204600F061FF92
:101AA0006861204600F0E0FE0028BFD1204600F02B
:101AB000BFFFA861204600F0D7FE0028B6D120461F
:101AC00000F0E9FE58B1204601F06BFA286220468A
:101AD00000F0CAFE0028A9D12846BDE8F8832046B8
:101AE00000F0C7FE70289FD1204600F09DFE4FF009
:101AF00000080746C146002FE5DD082008F07EFFFC
:101B00000646C0F80090C0F80490204600F0CDFCD6
:101B10003060204600F0A8FE002887D1EB691BB991
:101B2000EE61013FB046E6E7C8F80460F9E710B59A
:101B3000044668B1006800F0ABFC606800F08DFC02
:101B4000A06800F08AFC2046BDE8104008F040BFC5
:101B500010BD10B5044680B1006800F0F3FE606867
:101B600000F07BFCA06800F07BF9E06800F090FCDE
:101B70002046BDE8104008F02BBF10BD10B504464C
:101B800050B1006801F060FA606800F081FC204606
:101B9000BDE8104008F01CBF10BD08B5202008F0BB
:101BA0002DFF2022002101F0D4FA08BD10B5044613
:101BB000E0B1006800F06CFC606800F0C3FEA06853
:101BC00000F04BFCE06800F017FF206900F048F9D6
:101BD000606900F045F9A06900F05AFCE06900F086
:101BE00057FC2046BDE8104008F0F2BE10BD0000D2
:101BF00038B50446FFF7D1FF0546204600F039FE10
:101C0000702807D001232846E360FFF7CFFF0025A7
:101C1000284638BD204600F007FE0828F2D12046AD
:101C200000F043FC2860204600F01EFE0028E9D1A9
:101C3000204600F096FE6860204600F015FE002861
:101C4000E0D104226021204600F0BEFBA8602046BF
:101C500000F00AFE0028D5D1204600F0E9FEE86039
:101C6000204600F001FE0028CCD1144A1449204639
:101C700000F01FF92861204600F0F6FD0028C1D1D0
:101C8000104A1149204600F014F96861204600F01E
:101C9000EBFD0028B6D1204600F007FCA8612046E5
:101CA00000F0E2FD0028ADD1204600F0FEFBE86127
:101CB000204600F0D9FD0028AAD0A3E72F1B00087A
:101CC000DF1C0008531B0008611D000808B50C202C
:101CD00008F094FE002202604260826008BD38B5C0
:101CE0000446FFF7F3FF0546204600F0C2FD7028CA
:101CF00007D001232846E360FFF719FF0025284697
:101D000038BD204600F090FD0328F2D1204600F0B7
:101D1000CCFB2860204600F0A7FD0028E9D1012275
:101D20006021204600F050FB6860204600F09CFDDA
:101D30000028DED101225021204600F045FBA8609A
:101D4000204600F091FD0028D9D0D2E708B5102038
:101D500008F054FE1022002101F0FBF908BD00003C
:101D600038B50446FFF7F2FF0546204600F081FD36
:101D7000702807D001232846E360FFF7EAFE00251C
:101D8000284638BD204600F04FFD0428F2D12046F9
:101D900000F0E7FD2860204600F066FD0028E9D14C
:101DA00008226021204600F00FFB6860204600F00A
:101DB0005BFD0028DED10A4A0A49204600F079F886
:101DC000A860204600F050FD0028D3D1204600F046
:101DD0006CFBE860204600F047FD0028D0D0C9E742
:101DE0007D1B0008F91D000808B5082008F006FE54
:101DF00000220260426008BD38B50446FFF7F4FFD8
:101E00000546204600F035FD702807D001232846FE
:101E1000E360FFF7B3FE0025284638BD204600F0FA
:101E200003FD0228F2D1204601F024F92860204663
:101E300000F01AFD0028E9D1204600F036FB68606A
:101E4000204600F011FD0028E6D0DFE710B504467B
:101E50000C2008F0D3FD002202604260846010BDB7
:101E600038B5044688B938BD50F82500A3689847AE
:101E70000135D4E900039D42F6DB08B108F0A8FD66
:101E80002046BDE8384008F0A3BD0025F1E738B58D
:101E900004460D464168013141608900006801F047
:101EA00077FA6368206003F18043013B40F82350D8
:101EB00038BD2DE9F84305468846164600F0D9FCA2
:101EC00070281AD13046FFF7C1FF0446284600F0BB
:101ED000ABFC00260746BE4202DB2046BDE8F88385
:101EE0002846C0478146284600F0BEFC28B949462E
:101EF0002046FFF7CCFF0136EDE701232046EB60DB
:101F0000FFF7AEFF0024E8E708B5202008F076FDD3
:101F10002022002101F01DF908BD38B5044600F06B
:101F2000A8FC702804D001230025E360284638BDB2
:101F3000204600F079FC0728F5D1FFF7E5FF0546BC
:101F4000204600F0B2FA2860204600F08DFC002800
:101F5000E9D1204600F0BDFC6860204600F084FC1A
:101F60000028E0D1204600F0FCFCA860204600F0EC
:101F70007BFC0028D7D101226021204600F024FA02
:101F8000E860204600F070FC0028CCD101225021EE
:101F9000204600F019FA2861204600F065FC002870
:101FA000C1D1204601F066F86861204600F05CFC73
:101FB0000028B8D1204600F078FAA861204600F049
:101FC00053FC0028B2D0AEE710B50446C8B1006893
:101FD00000F05EFA606800F070FCA06800F0B2FCEF
:101FE000E06800F03AFA206900F037FA606901F021
:101FF0002BF8A06900F04CFA2046BDE8104008F02C
:10200000E7BC10BD10B530B1C469FFF7DDFF14B1F6
:102010002046E469F9E710BDF8B5054600F03BFC41
:10202000044608B1002406E0284600F022FC70288F
:1020300003D00123EB602046F8BD284600F0F4FBF6
:10204000061EEFDD2846FFF768FF0446284600F02D
:102050000BFC70B92746013E002EECD02846FFF756
:102060005CFFF861284600F0FFFB10B9FF69013EF4
:10207000F2E701232046EB60FFF7C4FFD2E7000040
:1020800038B50546082008F0B9FC00230446036073
:102090004360284600F0EDFB702806D00123EB607A
:1020A000204608F095FC002459E0284600F0BCFBCF
:1020B0000228F3D104226021284600F085F920602F
:1020C000284600F0D1FB0028EAD123681968B1F551
:1020D000806F52D01DD8B1F5007F46D00AD8B1F537
:1020E000807F38D040F2011399423AD02F4801F056
:1020F000DFF834E0B1F5407F3FD040F20133994240
:1021000037D040F201239942F0D12846FFF7F6F983
:1021100024E0B1F5C06F3CD00ED8B1F5A06F30D03F
:1021200040F20153994230D040F201439942DDD14F
:102130002846FFF7C5FB11E040F2017399422CD00D
:102140004FF6017399422CD0B1F5E06FCED12846FD
:10215000FFF70DFA02E0284600F033FA60602046EF
:1021600038BD284600F0AAFAF8E72846FFF792F9AA
:10217000F4E72846FFF73CFDF0E72846FFF749FC67
:10218000ECE72846FFF7DCFAE8E72846FFF738FBDC
:10219000E4E7284600F003FBE0E72846FFF758FA9B
:1021A000DCE72846FFF7F6F8D8E700BFD19701082B
:1021B00010B50446002875D003681A68B2F5806F20
:1021C00054D01ED8B2F5007F4CD00BD8B2F5807F2A
:1021D00039D040F201139A4240D03349334801F0DC
:1021E00067F833E0B2F5407F40D040F201339A42C5
:1021F00040D040F201239A42EFD14068FFF772F9D4
:1022000024E0B2F5C06F41D00ED8B2F5A06F35D042
:1022100040F201539A4235D040F201439A42DCD158
:102220004068FFF729FB11E040F201739A4231D078
:102230004FF601739A4231D0B2F5E06FCDD14068CC
:10224000FFF77DF902E0406800F09DF9206800F09A
:1022500004F92046BDE8104008F0BABB406800F021
:1022600012FAF3E74068FFF709F9EFE76068FFF754
:10227000A4FBEBE74068FFF799FCE7E74068FFF74E
:1022800047FAE3E74068FFF7A9FADFE7406800F0A4
:102290006EFADBE74068FFF7BDF9D7E74068FFF764
:1022A00064F8D3E710BD00BF9C970108B2970108FE
:1022B00010B5044698B1006800F0EAF8606800F0D4
:1022C000CCF8A06800F0C9F8E068FFF771FF20695A
:1022D00000F0C3F82046BDE8104008F079BB10BDFF
:1022E00038B50446142008F089FB14220021054665
:1022F00000F02FFF204600F0BCFA702806D0012322
:10230000E3602846FFF7D4FF00253FE0204600F0B9
:102310008BFA0628F3D1204600F0C7F82860204643
:1023200000F0A2FA0028ECD101226021204600F042
:102330004BF86860204600F097FA0028E1D10122AE
:102340006021204600F040F8A860204600F08CFA9A
:102350000028D6D12046FFF793FEE860204600F023
:1023600083FA0028CDD102226021204600F02CF80B
:102370002861204600F078FA0028C2D1204600F0FB
:102380007EFA18B90121204600F081FA284638BDAE
:10239000B0B5CB1D23F0070300AFADEB030D0A462C
:1023A00004460D460146684600F0C8FE0023013C85
:1023B0000DEB0502AB4201DBBD46B0BD0133594216
:1023C000515C04F8011FF5E72DE9F84305460C467A
:1023D000174600F060FA064638B9284600F049FA78
:1023E000A042814603D00123EB6000242FE0284661
:1023F00000F01AFAB0F10008F5DBB845F3DC384616
:1024000008F0FCFA31463A46044600F0A2FE28469F
:1024100000F035FAB9F1500F08BFC0F3C0162846D6
:1024200000F031FAA7EB0809A144014642464846AC
:1024300000F084FE1EB12346FF224B450AD13946E7
:102440002046FFF7A5FF4146284600F020FA204627
:10245000BDE8F88303F8012BEFE708B108F0B8BA3C
:10246000704770B5064608200D4608F0C7FA0023ED
:102470009D4204460360436008DD284608F0BEFA2A
:102480002A462060314600F059FE6560204670BD46
:1024900010B5044640B1006808B108F099FA20462A
:1024A000BDE8104008F094BA10BD70B5044600F0C5
:1024B000F2F928B9204600F0DCF918B10123E360F5
:1024C00000250FE0204600F0AFF9061EF6DB20469F
:1024D00000F0D9F93146FFF7C4FF314605462046E2
:1024E00000F0D5F9284670BD03463038C0B209283F
:1024F0000DD9A3F16102052A02D8573BD8B2704723
:10250000A3F14102052A01D8373BF7E700207047C5
:1025100010B504460078FFF7E7FF01466078FFF743
:10252000E3FF40EA0110C0B210BD2DE9F84300AF4F
:10253000044600F099FFC3071AD44510EB1D23F0A1
:102540000703ADEB030DE8460DF1FF3604EB45093B
:102550004C4506D129464046FFF783FFBD46BDE8FE
:10256000F8832046FFF7D4FF023406F8010FEFE7A7
:102570000020F3E708B51C2008F040FA1C220021D7
:1025800000F0E7FD08BD10B50446C8B10068FFF7CC
:102590007FFF6068FFF77CFFA068FFF779FFE068C6
:1025A000FFF776FF2069FFF773FF6069FFF770FFA1
:1025B000A069FFF752FF2046BDE8104008F008BAB6
:1025C00010BD38B50446FFF7D5FF0546204600F09C
:1025D00050F9702806D00123E3602846FFF7D3FFA7
:1025E000002545E0204600F01FF90728F3D12046DA
:1025F000FFF75BFF2860204600F036F90028ECD199
:102600002046FFF752FF6860204600F02DF90028B1
:10261000E3D12046FFF749FFA860204600F024F9E7
:102620000028DAD12046FFF740FFE860204600F09E
:102630001BF90028D1D12046FFF737FF286120463B
:1026400000F012F90028C8D12046FFF72EFF68617C
:10265000204600F009F90028BFD101226021204660
:10266000FFF7B2FEA861204600F0FEF80028B4D1C2
:10267000284638BD08B5182008F0C0F918220021F6
:1026800000F067FD08BD10B50446B0B10068FFF763
:10269000FFFE6068FFF7FCFEA068FFF7F9FEE06848
:1026A000FFF7F6FE206900F04DF96069FFF7D5FEEF
:1026B0002046BDE8104008F08BB910BD38B504467F
:1026C000FFF7D8FF0546204600F0D3F8702806D063
:1026D0000123E3602846FFF7D6FF00253CE02046B3
:1026E00000F0A2F80628F3D12046FFF7DEFE2860AE
:1026F000204600F0B9F80028ECD12046FFF7D5FEBF
:102700006860204600F0B0F80028E3D12046FFF7CB
:10271000CCFEA860204600F0A7F80028DAD12046B9
:10272000FFF7C3FEE860204600F09EF80028D1D1F4
:10273000204600F016F92861204600F095F80028A0
:10274000C8D1012260212046FFF73EFE6861204685
:1027500000F08AF80028BDD1284638BD08B51420FD
:1027600008F04CF91422002100F0F3FC08BD10B56C
:10277000044698B10068FFF78BFE6068FFF788FE9B
:10278000A068FFF785FEE06800F036F9206900F0E8
:1027900061FB2046BDE8104008F01AB910BD38B5FD
:1027A0000446FFF7DBFF0546204600F062F870287C
:1027B00006D00123E3602846FFF7D9FF002531E06A
:1027C000204600F031F80528F3D12046FFF76DFED2
:1027D0002860204600F048F80028ECD12046FFF79A
:1027E00064FE6860204600F03FF80028E3D12046F0
:1027F000FFF75BFEA860204600F036F80028DAD12B
:10280000204600F015F9E860204600F02DF8002879
:10281000D1D1204600F0C5FB2861204600F024F805
:102820000028C8D1284638BDF0B583680568002265
:10283000EB5C466803F07003703B18BF4FF0FF334A
:102840008168B14201F1010402D38460D018F0BD67
:10285000695C01F00F07090647EA0212F5D58460AA
:10286000002BEDD0013BEBE7C068003018BF012022
:10287000704702688368D05C00F07000704702689F
:102880008368D05C70470268806810447047836832
:10289000194481607047826803689B5C012B03BF09
:1028A0000132826018460020704708B5082008F001
:1028B000A5F800220260426008BD10B5044638B198
:1028C0004068FFF7CAFD2046BDE8104008F080B818
:1028D00010BDF8B50646FFF7DEFF20BB3046FFF718
:1028E000C8FF05463046FFF7CAFF0746FFF7DDFF82
:1028F000602D057004464FF0010517D0F5600BE020
:102900006D00AF42FCDC2A4660213046FFF75CFDDB
:10291000237860601D4325703046FFF7A5FF18B18E
:102920002046FFF7CAFF00242046F8BD07F00F0736
:10293000013FE6E708B5082008F060F800220260D1
:10294000426008BD10B5044650B10068FFF785FD30
:102950006068FFF782FD2046BDE8104008F038B8F7
:1029600010BD38B50446FFF796FF60B9FFF7E2FFE8
:1029700005462046FFF77DFF702806D00123E3605F
:102980002846FFF7DFFF00251AE02046FFF74CFF3F
:102990000228F3D1012260212046FFF715FD2860AF
:1029A0002046FFF761FF0028EAD10422602120467B
:1029B000FFF70AFD68602046FFF756FF0028DFD1C9
:1029C000284638BD08B5082008F018F80022026033
:1029D000426008BD38B504460D460168013101600A
:1029E0008900406800F0D4FC2368606003F18043F4
:1029F000013B40F8235038BD38B50446B8B14368B0
:102A000013B10368002B10DC2046BDE8384007F006
:102A1000DFBF50F82500FFF73BFD0135D4E900305A
:102A2000AB42F6DC07F0D4FFEEE70025F6E738BD51
:102A3000F8B50546FFF72FFF48B9FFF7C3FF044677
:102A40002846FFF716FF702803D00123EB6000240F
:102A500005E02846FFF7E8FE0646002E01DC20468A
:102A6000F8BD2846FFF721FD07462846FFF7FCFE84
:102A700030B91FB139462046FFF7ACFF013EECE705
:102A800001232046EB60FFF7B7FFE0E708B5102011
:102A900007F0B4FF1022002100F05BFB08BD38B541
:102AA00004460D46C1680131C1608900806800F0AC
:102AB0006FFCE368A06003F18043013B40F82350C2
:102AC00038BD08B5082007F099FF00220260426077
:102AD00008BD08B55C2007F091FF5C22002100F0E2
:102AE00038FB08BD10B50446002849D00068FFF740
:102AF000CFFC6068FFF726FFA068FFF7AEFCE06838
:102B0000FFF7ABFC2069FFF7A8FC6069FFF7A5FCA5
:102B1000A069FFF7A2FCE069FFF79FFC206AFFF7BE
:102B20009CFC606AFFF799FCA06AFFF796FCE06ADC
:102B3000FFF793FC206BFFF7ABFC606BFFF78DFC9E
:102B4000A06BFFF78AFCE06BFFF787FC206CFFF7B8
:102B500084FC606CFFF781FCA06CFFF77EFCE06CEE
:102B6000FFF77BFC206DFFF778FC606DFFF775FCCD
:102B7000A06DFFF78DFC2046BDE8104007F028BF90
:102B800010BD38B50446FFF786FE60B9FFF7A1FF18
:102B900005462046FFF76DFE702806D00123E3604E
:102BA0002846FFF79FFF002505E12046FFF73CFE82
:102BB0001728F3D12046FFF778FC28602046FFF75E
:102BC00053FE0028ECD12046FFF7CBFE686020467C
:102BD000FFF74AFE0028E3D1082260212046FFF7D4
:102BE000F3FBA8602046FFF73FFE0028D8D1012262
:102BF00060212046FFF7E8FBE8602046FFF734FE3F
:102C00000028CDD1012250212046FFF7DDFB2861AD
:102C10002046FFF729FE0028C2D108225021204675
:102C2000FFF7D2FB68612046FFF71EFE0028B7D1F0
:102C3000012260212046FFF7C7FBA8612046FFF76D
:102C400013FE0028ACD1012250212046FFF7BCFB27
:102C5000E8612046FFF708FE0028A1D10822502194
:102C60002046FFF7B1FB28622046FFF7FDFD002854
:102C700096D1012260212046FFF7A6FB686220461C
:102C8000FFF7F2FD00288BD1012250212046FFF7EB
:102C90009BFBA8622046FFF7E7FD002880D10822B1
:102CA00050212046FFF790FBE8622046FFF7DCFD4D
:102CB00000287FF475AF2046FFF7F7FB2863204616
:102CC000FFF7D2FD00287FF46BAF01226021204680
:102CD000FFF77AFB68632046FFF7C6FD00287FF404
:102CE0005FAF012250212046FFF76EFBA86320460C
:102CF000FFF7BAFD00287FF453AF08225021204689
:102D0000FFF762FBE8632046FFF7AEFD00287FF483
:102D100047AF012260212046FFF756FB286420467A
:102D2000FFF7A2FD00287FF43BAF0122502120468F
:102D3000FFF74AFB68642046FFF796FD00287FF402
:102D40002FAF082250212046FFF73EFBA864204603
:102D5000FFF78AFD00287FF423AF0122602120467F
:102D6000FFF732FBE8642046FFF77EFD00287FF482
:102D700017AF012250212046FFF726FB2865204689
:102D8000FFF772FD00287FF40BAF08225021204688
:102D9000FFF71AFB68652046FFF766FD00287FF401
:102DA000FFAE2046FFF781FBA8652046FFF75CFDDC
:102DB00000287FF4F5AE284638BD08B5142007F08A
:102DC0001DFE1422002100F0C4F908BD10B5044610
:102DD00098B10068FFF75CFB6068FFF73EFBA068F6
:102DE000FFF73BFBE06800F02FF92069FFF750FB8D
:102DF0002046BDE8104007F0EBBD10BD10B50446FD
:102E000038B3D0E90030FBB11B78013B032B16D857
:102E1000DFE803F0020C0F1200F016F92068FFF74C
:102E20001CFB2046BDE8104007F0D2BDFFF7CEFFE7
:102E3000F4E7FFF757FEF1E7FFF784FDEEE7002820
:102E4000ECD007F0C5FDE9E70028EAD007F0C0FDA7
:102E5000E7E710BD38B50446B8B10068FFF718FBC6
:102E60006068FFF7CBFF0025D4E902039D4206DB33
:102E700007F0AEFD2046BDE8384007F0A9BD50F888
:102E80002500FFF7E7FF0135EEE738BD38B504460A
:102E9000FFF701FD60B9FFF790FF05462046FFF7F9
:102EA000E8FC702806D00123E3602846FFF78EFF78
:102EB000002535E02046FFF7B7FC0528F3D1204672
:102EC000FFF7F3FA28602046FFF7CEFC0028ECD18C
:102ED000012260212046FFF777FA68602046FFF75D
:102EE000C3FC0028E1D1012250212046FFF76CFAF3
:102EF000A8602046FFF7B8FC0028D6D1204600F095
:102F0000B9F8E8602046FFF7AFFC0028CDD1204695
:102F1000FFF7CBFA28612046FFF7A6FC0028C4D1B2
:102F2000284638BD38B50546FFF7B5FC60B9FFF750
:102F3000C8FD04462846FFF79CFC702806D00123F4
:102F4000EB602046FFF75AFF00241CE02846FFF7FD
:102F50006BFC0228F3D1012260212846FFF734FAE6
:102F600020602846FFF780FC0028EAD123681B7800
:102F7000013B032BE3D8DFE803F002080C102846DE
:102F800000F078F86060204638BD2846FFF77EFFE5
:102F9000F8E72846FFF7F5FDF4E72846FFF7E1FCE0
:102FA000F0E7F8B50446FFF776FC60B9FFF76EFD71
:102FB00005462046FFF75DFC702806D00123E3603C
:102FC0002846FFF747FF002525E02046FFF72CFCA9
:102FD0000328F3D12046FFF768FA28602046FFF760
:102FE00043FC0028ECD12046FFF79CFF6860204698
:102FF000FFF73AFC0028E3D12046FFF74CFC50B91C
:103000002046FFF736FC7028D8D12046FFF70CFC8D
:103010000646002E01DC2846F8BD2046FFF7C1FF1A
:1030200007462046FFF720FC0028C9D11FB13946CA
:103030002846FFF734FD013EEBE708B5082007F00E
:10304000DDFC0023036008BD10B5044688B1237879
:10305000406823B1402B09D0FFF7FFF901E0FFF7EB
:1030600017FA2046BDE8104007F0B2BCFEF7FBF9A6
:10307000F7E710BDF8B50546FFF70DFC38BB28464D
:10308000FFF7F7FB06462846FFF7F9FB0746FFF771
:10309000D4FFF1B2402E044601701BD003DC5EB1B8
:1030A0000123EB600CE0502E01D0602EF8D107F028
:1030B0000F070126013F12E02846FFF7F6F960608E
:1030C0002846FFF7D1FB18B12046FFF7BDFF0024CB
:1030D0002046F8BD2846FEF7A0F9F0E77600B74293
:1030E000FCDC32462846FFF76FF9237860601E4308
:1030F0002670E5E70B460146184600F001B80000CF
:1031000010B5054C13462CB10A4601460220AFF318
:10311000008010BD2046FCE700000000024B014685
:10312000186800F06BB800BF18000020024B014681
:10313000186800F017B800BF1800002010B5431E33
:103140000A44914200D110BD11F8014B03F8014F20
:10315000F7E703460244934200D1704703F8011B8E
:10316000F9E7000038B50546002943D051F8043C82
:103170000C1F002BB8BFE41800F05CFC1E4A13685B
:10318000104633B9636014602846BDE8384000F04B
:1031900052BCA3420BD921686218934201BF1A683E
:1031A0005B685218226063600460EDE713465A685A
:1031B0000AB1A242FAD919685818A0420BD1206866
:1031C0000144581882421960DED1106852680144E7
:1031D00019605A60D8E702D90C232B60D4E7206825
:1031E00021188A4201BF1168526809182160626083
:1031F0005C60C9E738BD00BF1409002070B5CD1C64
:1032000025F0030508350C2D38BF0C25002D06468A
:1032100001DBA94203D90C233360002070BD00F00C
:1032200009FC214A1468214691B9204C23681BB936
:10323000304600F0B5F820602946304600F0B0F87E
:10324000431C24D10C233046336000F0F4FBE4E748
:103250000B685B1B18D40B2B0FD90B60CC18CD500F
:10326000304600F0E8FB04F10B00231D20F00700BE
:10327000C31AD3D05A42E250D0E74B688C4216BFF3
:10328000636013600C46EBE70C464968CCE7C41C4E
:1032900024F00304A04205D0211A304600F080F843
:1032A0000130CFD02560DBE7140900201809002089
:1032B0000FB40A4B13B51C6824B1A36913B9204697
:1032C00000F0CAFA05AB049AA1682046019300F009
:1032D00051FD02B0BDE8104004B070471800002056
:1032E00038B50D4B05461C68A36B7BB91820FFF75A
:1032F00015FF0A4A0A4BA063C0E90023094B0122CB
:1033000083600B2383810023C0E904230022A36B85
:103310001D615A6138BD00BF180000200E33CDABCF
:1033200034126DE6ECDE050038B5134B1C68A36B58
:103330007BB91820FFF7F2FE104A114BA063C0E9D9
:103340000023104B012283600B2383810023C0E9FB
:103350000423A16B0C480A694B6950430B4C04FBD6
:103360000300A2FB04230344541C43F10005C1E9FC
:10337000044525F0004038BD180000200E33CDABC9
:1033800034126DE6ECDE05002DF451582D7F954C7E
:10339000024B0A460146186800F04EBB1800002098
:1033A00038B50023054C05460846236001F09EFB16
:1033B000431C02D1236803B12B6038BDD0500020DC
:1033C0000CB430B5174B0C1E9DB01D6808DA8B236A
:1033D0004FF0FF302B601DB0BDE8304002B07047A9
:1033E0004FF40273ADF814300CBF234604F1FF33E1
:1033F000049307934FF6FF7302900690ADF81630D2
:10340000209A21AB02A92846019300F095FB431CAA
:10341000BCBF8B232B60002CDDD00022029B1A70D6
:10342000D9E700BF180000200EB46FF0004100B5CE
:103430009CB01DAB02900690079104910848094981
:1034400053F8042B0591006802A9019300F074FB66
:103450000022029B1A701CB05DF804EB03B07047A9
:10346000180000200802FFFF034613F8012B002A72
:10347000FBD1181A01387047F0B518B9106808B9AF
:10348000F0BD204604460F4614F8015B17F8016BA7
:103490001EB96DB915602846F2E7B542F6D1002B8A
:1034A000EFD114600370EBE72B460DE026B91C4604
:1034B00023460F4613F8015B17F8016BB542F5D1AF
:1034C000002DF1D0002121701360D9E70123FFF70F
:1034D000D3BF0000F8B50E461446054618B18369FF
:1034E0000BB900F0B9F9214B9C422AD16C68A36951
:1034F000A360A3891A072ED5236963B323692068C3
:10350000F6B2C01A63693746834204DC2146284676
:1035100000F038F928BBA3680130013BA3602368A1
:103520005A1C22601E706369834204D0A389DB07A2
:1035300019D50A2E17D12146284600F023F990B15B
:103540000FE00B4B9C4201D1AC68D0E7094B9C4289
:1035500008BFEC68CBE72146284600F01FF800289A
:10356000CCD04FF0FF373846F8BD00BF2098010897
:10357000409801080098010838B5054608461146EC
:103580000022054C22601A4601F0BEFA431C02D10B
:10359000236803B12B6038BDD0500020324B70B58A
:1035A0001D6806460C4625B1AB6913B9284600F0E4
:1035B00053F92E4B9C420FD16C68B4F90C309AB27F
:1035C00015072CD4D00611D40922326043F04003F1
:1035D000A3814FF0FF303EE0254B9C4201D1AC6807
:1035E000EBE7244B9C4208BFEC68E6E7510712D595
:1035F000616B41B104F14403994202D03046FFF7B8
:10360000B1FD00236363A38923F02403A381002376
:10361000636023692360A38943F00803A3812369BE
:103620004BB9A38903F42073B3F5007F03D021467F
:10363000304600F0BFF9A28912F001030CD000233C
:10364000A36063695B42A361236953B9B4F90C3089
:1036500013F08000BAD170BD920758BF6369A360B0
:10366000F2E70020F7E700BF1800002020980108CB
:1036700040980108009801088A892DE9F041054623
:1036800010070C4658D44B68002B05DC0B6C002B44
:1036900002DC0020BDE8F081E66A002EF9D00023AC
:1036A00012F480522F68216A2B6032D0606DA3899A
:1036B0005A0705D56368C01A636B0BB1236CC01A37
:1036C00000230246E66A216A2846B047431CA389C4
:1036D00006D129681D2948D8294ACA40D60744D5A9
:1036E000002262602269D904226004D5421C01D103
:1036F0002B6803B96065616B2F600029C9D004F1A4
:103700004403994202D02846FFF72CFD0020606355
:10371000C0E701232846B047411CC8D12B68002BC5
:10372000C5D01D2B01D0162B01D12F60B1E7A38985
:1037300043F04003A381ADE70F69002FA9D09307A1
:1037400018BF00230E6808BF4B69A6EB07080F607F
:103750008B60B8F1000F9CDD43463A46216A28464B
:10376000A66AB047002806DCA38943F04003A38182
:103770004FF0FF308EE70744A8EB0008E9E700BFF1
:103780000100402038B50B6905460C46DBB118B185
:1037900083690BB900F060F80C4B9C4209D16C684E
:1037A000B4F90C307BB121462846BDE83840FFF71C
:1037B00063BF074B9C4201D1AC68F1E7054B9C42CB
:1037C00008BFEC68ECE7002038BD00BF2098010876
:1037D0004098010800980108002310B50446C0E98C
:1037E0000033836081814366C281C0E90433836111
:1037F000194608225C30FFF7ACFC054B246263627B
:10380000044BA362044BE362044B236310BD00BF6F
:10381000D1420008F74200082F4300085343000834
:10382000014900F085B800BF8537000870B56825EC
:103830004A1E55430E4605F17401FFF7DFFC0446AE
:1038400040B10021C0E900160C30A06005F168020B
:10385000FFF77FFC204670BD836910B5044633BB7B
:10386000C0E912330365124B124A1B688262984208
:1038700004BF0123836100F01FF86060204600F060
:103880001BF8A060204600F017F80022E060042139
:103890006068FFF7A1FF01220921A068FFF79CFFE4
:1038A00002221221E068FFF797FF0123A36110BDF8
:1038B0006098010821380008F8B51B4B07461E68C0
:1038C000B36913B93046FFF7C7FF4836D6E901346C
:1038D000013B03D5336833B13668F7E7B4F90C50D0
:1038E0006DB16834F4E704213846FFF79FFF30607C
:1038F0000028F1D10C2304463B602046F8BD0B4B59
:103900006566C4E90055A560C4E90335C4E90555F9
:103910000822294604F15C00FFF71BFCC4E90D55A1
:10392000C4E91255E9E700BF609801080100FFFFF4
:103930002DE9F84380468946002600F1480414B971
:103940003046BDE8F883D4E90175013F01D524680C
:10395000F5E7AB89012B07D9B5F90E30013303D058
:1039600029464046C84706436835EEE770B50E461F
:10397000B1F90E1096B0002914461D4607DA00234F
:103980002B60B3891A0610D44FF480630EE06A46A8
:1039900000F0F4FC0028F2DB019A02F47042A2F578
:1039A00000535A425A412A60EEE740230020236028
:1039B00016B070BD8B8973B59D0706460C4607D5BA
:1039C00004F14703236023610123636102B070BDEA
:1039D00001AB6A46FFF7CAFF009905463046FFF77C
:1039E0000DFC48B9B4F90C309A05EFD423F0030369
:1039F00043F00203A381E3E70D4BB362A389206088
:103A000043F08003A381009B20616361019B5BB154
:103A1000B4F90E10304600F0C3FC28B1A38923F09E
:103A2000030343F00103A381A3891D43A581CDE7CF
:103A30002138000870477047F8B5074614460E460F
:103A400021B9BDE8F8401146FFF7D8BB22B9FFF70E
:103A500089FB25462846F8BD00F0EBFCA0420FD2BA
:103A600021463846FFF7CAFB05460028F2D031460A
:103A70002246FFF763FB31463846FFF773FBE9E761
:103A80003546E7E72DE9F0478E6882469E420C46B0
:103A90009046994637D88A8912F4906F31D0022324
:103AA000256809696F1A656905EB450595FBF3F50E
:103AB00009F101033B449D4238BF1D46530530D5F3
:103AC0002946FFF79BFB064650B90C234FF0FF3009
:103AD000CAF80030A38943F04003A381BDE8F08712
:103AE0003A462169FFF72AFBA38923F4906343F048
:103AF0008003A38126613E4426604E466561ED1B2E
:103B0000A5604E4500D94E4632464146206800F039
:103B100077FCA36800209B1BA36023681E442660DB
:103B2000DCE72A46FFF788FF06460028E2D1216934
:103B30005046FFF717FBC8E72DE9F04F9DB0039300
:103B40008B8980461D060C4616460FD50B696BB94E
:103B50004021FFF753FB2060206128B90C23C8F8EF
:103B600000304FF0FF30C7E040236361002309932A
:103B700020238DF8293030234FF0010B8DF82A30A7
:103B800037463D4615F8013B0BB1252B3ED1B7EB2F
:103B9000060A0BD05346324621464046FFF772FFD5
:103BA000013000F0A480099B534409933B78002B1B
:103BB00000F09D8000234FF0FF32CDE905230493F0
:103BC00007938DF853301A932F46052217F8011BDF
:103BD0004F4800F007FC049BD0B9D90644BF20220F
:103BE0008DF853201A0744BF2B228DF853202A78D2
:103BF0002A2A15D02F4600200A25079A394611F89F
:103C0000013B303B092B4DD9B8B10FE02F46B8E747
:103C10003F4A3D46801A0BFA00F018430490D3E760
:103C2000039A111D12680391002A01DB079204E038
:103C3000524243F00203079204933B782E2B0CD19F
:103C40007B782A2B33D1039B02371A1D1B68039202
:103C5000002BB8BF4FF0FF3305932E4D0322397868
:103C6000284600F0BFFB38B14023401B03FA00F0A8
:103C7000049B0137034304933978062226487E1CAF
:103C80008DF8281000F0AEFB002838D0234B13BB72
:103C9000039B073323F0070308330393099B4B442B
:103CA00009936DE705FB023201200F46A6E70023CA
:103CB0000A25194601370593384610F8012B303A8A
:103CC000092A03D9002BC8D00591C6E705FB0121BD
:103CD00001230746F0E703AB00932246104B04A9EB
:103CE0004046AFF30080B0F1FF3F8146D6D1A389B3
:103CF0005B063FF536AF09981DB0BDE8F08F03AB0A
:103D000000932246064B04A9404600F0BDF9EAE7BD
:103D1000649801086A9801086E9801080000000084
:103D2000853A0008936810B4013B002B936007DAD2
:103D30009469A34201DB0A2902D110BCFFF7CABB78
:103D40001368581C10601970084610BC7047F8B50D
:103D500006460F461446D518AC4201D1002007E0B4
:103D60003A4614F8011B3046FFF7DCFF431CF3D141
:103D7000F8BD00002DE9F04F9DB00C4617460393A7
:103D8000064618B183690BB9FFF766FD7B4B9C4271
:103D900057D17468A38918075DD52369002B5AD0C1
:103DA0000023099320238DF8293030234FF0010B95
:103DB0008DF82A30B846454615F8013B0BB1252B46
:103DC00054D1B8EB070A0BD053463A462146304649
:103DD000FFF7BDFF013000F0C280099B53440993F7
:103DE00098F80030002B00F0BA8000234FF0FF322B
:103DF000CDE90523049307938DF853301A93A84611
:103E0000052218F8011B5E4800F0ECFA049B78BB11
:103E1000D90644BF20228DF853201A0744BF2B2215
:103E20008DF853202A782A2A2AD0A84600200A256D
:103E3000079A414611F8013B303B092B69D960B321
:103E400024E0504B9C4201D1B468A3E74E4B9C4206
:103E500008BFF4689EE721463046FFF79FFB002825
:103E60009ED04FF0FF301DB0BDE8F08FA846A2E70E
:103E7000434A4546801A0BFA00F018430490BEE707
:103E8000039A111D12680391002A01DB079204E0D6
:103E9000524243F002030792049398F800302E2B0D
:103EA0000ED198F801302A2B38D1039B08F1020873
:103EB0001A1D1B680392002BB8BF4FF0FF33059308
:103EC000324D032298F80010284600F08BFA40B1DA
:103ED0004023401B03FA00F0049B08F10108034350
:103EE000049398F800100622294808F101078DF87C
:103EF000281000F077FA002837D0264B1BBB039B15
:103F0000073323F0070308330393099B4B440993BA
:103F100050E705FB0232012088468AE700230A2584
:103F2000194608F101080593404610F8012B303A74
:103F3000092A03D9002BC3D00591C1E705FB012154
:103F400001238046F0E703AB00932246124B04A9FD
:103F50003046AFF30080B0F1FF3F8146D5D1A38951
:103F60005B063FF57EAF09987DE703AB00932246E1
:103F7000094B04A9304600F087F8ECE720980108C7
:103F80006498010840980108009801086A9801089F
:103F90006E980108000000004F3D00082DE9F04731
:103FA00091461F468A680B6906469342B8BF13467E
:103FB000C9F8003091F843200C46DDF8208012B19A
:103FC0000133C9F800302368990642BFD9F80030A0
:103FD0000233C9F80030256815F0060507D104F151
:103FE000190AE368D9F800209B1AAB4229DC94F83F
:103FF00043302268003318BF012392062ED404F107
:10400000430239463046C047013021D02368E56875
:1040100003F00603042B18BF0025D9F800204FF049
:10402000000908BFAD1AA368226908BF25EAE57533
:104030009342C4BF9B1AED181A344D451AD1002083
:1040400008E00123524639463046C047013003D1CB
:104050004FF0FF30BDE8F0870135C2E73020E118AE
:1040600081F843005A1C94F845102244023382F828
:104070004310C4E70123224639463046C047013089
:10408000E6D009F10109D8E72DE9F04301F1430C2D
:104090000C46097E85B06E291746064698460C9A4E
:1040A00000F0B38022D8632936D00AD8002900F066
:1040B000B980582900F0838004F1420584F8421049
:1040C00032E0642901D06929F6D120681368050619
:1040D00003F104012AD51B681160002B03DA2D229D
:1040E0005B4284F843206F480A2239E0732900F0CC
:1040F0009D8008D86F2920D07029DDD1236843F036
:104100002003236003E0752917D07829D4D17823C0
:10411000654884F8453055E0136804F14205191DDF
:104120001B68116084F8423001238CE01B6810F09A
:10413000400F116018BF1BB2CFE713682568181D28
:104140001060280601D51B6802E06806FBD51B88B5
:104150006F2914BF0A2208225248002184F8431014
:104160006568002DA560C0F29580216821F00401EA
:104170002160002B3DD1002D40F08E806546082A3D
:104180000BD12368DB0708D5236962689A42DEBF3A
:10419000302305F8013C05F1FF35ACEB0503236145
:1041A000CDF800803B4603AA21463046FFF7F6FED5
:1041B00001304DD14FF0FF3005B0BDE8F0833948F4
:1041C00084F84510136821681D1D1B6815600A06D8
:1041D0000BD5CA0744BF41F0200121601BB92268FA
:1041E00022F0200222601022B7E74D0648BF9BB2A2
:1041F000EFE76546B3FBF2F102FB1133C35C05F850
:10420000013D0B460029F5D1B9E713682568181D53
:104210006169106028061B6801D5196002E06A0612
:10422000FBD51980002365462361B9E71368191D82
:1042300011601D6862680021284600F0D3F808B1BB
:10424000401B606063682361002384F84330A7E764
:1042500023692A4639463046C0470130AAD0236830
:104260009B0713D4E068039B9842B8BF1846A3E7A6
:1042700001234A4639463046C04701309AD00135BD
:10428000E368039A9B1AAB42F2DCEBE7002504F1EA
:104290001909F5E7002BACD1037804F1420584F845
:1042A00042306CE7759801088698010838B50546D4
:1042B000084611460022054C22601A4600F00EFC0A
:1042C000431C02D1236803B12B6038BDD0500020BD
:1042D00010B50C46B1F90E10FFF7E8FF0028ABBF90
:1042E000636DA3891B1823F48053ACBF6365A3815E
:1042F00010BD002070472DE9F0411F468B8905460F
:10430000DB050C46164605D502230022B1F90E1036
:1043100000F056F8A389324623F48053A381B4F900
:104320000E103B462846BDE8F041FFF725B910B511
:104330000C46B1F90E1000F043F8431CA38915BFD9
:10434000606523F4805343F48053A38118BFA38195
:1043500010BDB1F90E1000F001B8000038B500230F
:10436000054C05460846236000F098FB431C02D12B
:10437000236803B12B6038BDD050002038B500232E
:10438000064C054608461146236000F08FFB431C8F
:1043900002D1236803B12B6038BD00BFD05000208C
:1043A00038B50023054C05460846236000F086FB1F
:1043B000431C02D1236803B12B6038BDD0500020CC
:1043C00038B50546084611460022054C22601A46BB
:1043D00000F07CFB431C02D1236803B12B6038BD85
:1043E000D050002010B5C9B202449042034601D11A
:1043F000002303E01C7801308C42F6D1184610BD32
:10440000884210B501EB020307D8421E99420AD038
:1044100011F8014B02F8014FF8E78342F5D98118F2
:10442000D21AD34200D110BD13F8014D01F8014D4D
:10443000F7E751F8043C181F002BBCBF0B58C018FD
:104440007047000081F0004102E000BF83F00043AC
:1044500030B54FEA41044FEA430594EA050F08BF1F
:1044600090EA020F1FBF54EA000C55EA020C7FEAE3
:10447000645C7FEA655C00F0E2804FEA5454D4EB60
:104480005555B8BF6D420CDD2C4480EA020281EA2A
:10449000030382EA000083EA010180EA020281EA62
:1044A0000303362D88BF30BD11F0004F4FEA0131B4
:1044B0004FF4801C4CEA113102D0404261EB4101C3
:1044C00013F0004F4FEA03334CEA133302D0524249
:1044D00063EB430394EA050F00F0A780A4F1010405
:1044E000D5F1200E0DDB02FA0EFC22FA05F280183F
:1044F00041F1000103FA0EF2801843FA05F3594125
:104500000EE0A5F120050EF1200E012A03FA0EFCA3
:1045100028BF4CF0020C43FA05F3C01851EBE371CD
:1045200001F0004507D54FF0000EDCF1000C7EEBEA
:1045300000006EEB0101B1F5801F1BD3B1F5001F28
:104540000CD349085FEA30004FEA3C0C04F1010447
:104550004FEA445212F5800F80F09A80BCF1004F70
:1045600008BF5FEA500C50F1000041EB045141EAF2
:10457000050130BD5FEA4C0C404141EB010111F4F3
:10458000801FA4F10104E9D191F0000F04BF01469E
:104590000020B1FA81F308BF2033A3F10B03B3F17C
:1045A00020020CDA0C3208DD02F1140CC2F10C020C
:1045B00001FA0CF021FA02F10CE002F11402D8BF6A
:1045C000C2F1200C01FA02F120FA0CFCDCBF41EA36
:1045D0000C019040E41AA2BF01EB0451294330BD05
:1045E0006FEA04041F3C1CDA0C340EDC04F11404E2
:1045F000C4F1200220FA04F001FA02F340EA0300B9
:1046000021FA04F345EA030130BDC4F10C04C4F1FE
:10461000200220FA02F001FA04F340EA03002946DE
:1046200030BD21FA04F0294630BD94F0000F83F428
:10463000801306BF81F480110134013D4EE77FEA0B
:10464000645C18BF7FEA655C29D094EA050F08BF57
:1046500090EA020F05D054EA000C04BF1946104638
:1046600030BD91EA030F1EBF0021002030BD5FEA7C
:10467000545C05D14000494128BF41F0004130BDA4
:1046800014F580043CBF01F5801130BD01F00045F8
:1046900045F0FE4141F470014FF0000030BD7FEA6B
:1046A000645C1ABF194610467FEA655C1CBF0B4666
:1046B000024650EA013406BF52EA033591EA030F7D
:1046C00041F4002130BD00BF90F0000F04BF002175
:1046D000704730B54FF4806404F132044FF00005A8
:1046E0004FF0000150E700BF90F0000F04BF002121
:1046F000704730B54FF4806404F1320410F0004587
:1047000048BF40424FF000013EE700BF42004FEA81
:10471000E2014FEA31014FEA02701FBF12F07F43FE
:1047200093F07F4F81F06051704732F07F4208BFB5
:10473000704793F07F4F04BF41F40021704730B5BC
:104740004FF4607401F0004521F000411CE700BF08
:1047500050EA010208BF704730B54FF000050AE08B
:1047600050EA010208BF704730B511F0004502D58C
:10477000404261EB41014FF4806404F132045FEA8E
:10478000915C3FF4D8AE4FF003025FEADC0C18BF37
:1047900003325FEADC0C18BF033202EBDC02C2F129
:1047A000200300FA03FC20FA02F001FA03FE40EABB
:1047B0000E0021FA02F11444BDE600BF4FF0FF0CD9
:1047C0001CEAD0521EBF1CEAD15392EA0C0F93EAA6
:1047D0000C0F6FD01A4480EA010C400218BF5FEA48
:1047E00041211ED04FF0006343EA501043EA5111BB
:1047F000A0FB01310CF00040B1F5000F3EBF4900B5
:1048000041EAD3715B0040EA010062F17F02FD2AB8
:104810001DD8B3F1004F40EBC25008BF20F001009B
:10482000704790F0000F0CF0004C08BF49024CEAB2
:10483000502040EA51207F3AC2BFD2F1FF0340EA44
:10484000C250704740F400004FF00003013A5DDCB5
:1048500012F1190FDCBF00F000407047C2F10002F6
:10486000410021FA02F1C2F1200200FA02FC5FEAE3
:10487000310040F1000053EA4C0308BF20EADC702D
:10488000704792F0000F00F0004C02BF400010F49F
:10489000000F013AF9D040EA0C0093F0000F01F04C
:1048A000004C02BF490011F4000F013BF9D041EA6E
:1048B0000C018FE70CEAD15392EA0C0F18BF93EA70
:1048C0000C0F0AD030F0004C18BF31F0004CD8D19A
:1048D00080EA010000F00040704790F0000F17BF21
:1048E00090F0004F084691F0000F91F0004F14D067
:1048F00092EA0C0F01D142020FD193EA0C0F03D1BF
:104900004B0218BF084608D180EA010000F00040C1
:1049100040F0FE4040F40000704740F0FE4040F49C
:10492000400070474FF0FF0C1CEAD0521EBF1CEA3B
:10493000D15392EA0C0F93EA0C0F69D0A2EB030259
:1049400080EA010C49024FEA402037D04FF08053F3
:1049500043EA111143EA10130CF000408B4238BFB8
:104960005B0042F17D024FF4000C8B4224BF5B1AC6
:1049700040EA0C00B3EB510F24BFA3EB510340EA14
:104980005C00B3EB910F24BFA3EB910340EA9C00C2
:10499000B3EBD10F24BFA3EBD10340EADC001B0132
:1049A00018BF5FEA1C1CE0D1FD2A3FF650AF8B42D6
:1049B00040EBC25008BF20F0010070470CF0004CE3
:1049C0004CEA50207F32C2BFD2F1FF0340EAC2500E
:1049D000704740F400004FF00003013A37E792F0CF
:1049E000000F00F0004C02BF400010F4000F013A2D
:1049F000F9D040EA0C0093F0000F01F0004C02BF28
:104A0000490011F4000F013BF9D041EA0C0195E790
:104A10000CEAD15392EA0C0F08D142027FF47DAF29
:104A200093EA0C0F7FF470AF084676E793EA0C0F19
:104A300004D14B023FF44CAF08466EE730F0004C17
:104A400018BF31F0004CCAD130F000427FF45CAFA7
:104A500031F000437FF43CAF5FE700BF42000ED26D
:104A6000B2F1FE4F0BD34FF09E03B3EB126209D4A9
:104A70004FEA002343F0004323FA02F070474FF05F
:104A80000000704712F1610F01D1420202D14FF0D4
:104A9000FF3070474FF00000704700BF5822024BB4
:104AA0004FF0FF301A607047D05000205822024B60
:104AB0004FF0FF301A607047D05000205822024B50
:104AC00000201A60704700BFD05000205822024BCF
:104AD0004FF0FF301A607047D05000205822024B30
:104AE0004FF0FF301A607047D0500020044A05494B
:104AF0001368002B08BF0B46184410601846704717
:104B00001C090020A85100205822024B4FF0FF3012
:104B10001A607047D0500020002310B504461A4692
:104B20000D21094804F02EF934B92246BDE81040A1
:104B30000D21054804F0F4B9012CF6D0BDE8104071
:104B40000F21024802F028BB00080240E290010851
:104B5000002310B504461A460C21094804F012F946
:104B600034B92246BDE810400C21054804F0D8B9FC
:104B7000012CF6D0BDE810401C21024802F00CBB0D
:104B800000000240E29001080146014805F082BFA2
:104B9000220900200146014805F07CBF2C090020B5
:104BA0000146014805F082BF220900200146014864
:104BB00005F07CBF2C09002038B505460024A5422D
:104BC00000DC38BD03F0EEFE0134F8E7012108B542
:104BD000084600F0AFFBBDE80840032004F09ABF90
:104BE00010B5084C0B21204604F08EF900230B2150
:104BF0001A46204604F0C6F803F0C6FE0122024B16
:104C00001A7010BD000002402A09002008B504F007
:104C100035FEBDE8084002220148114604F0F0B814
:104C2000000002402DE9F0410220AAB003F010FE7E
:104C300003F072FE0AF0CEFD02220021B84804F013
:104C4000DFF80122B648114604F0DAF80122022109
:104C5000B34804F0D5F802220321B14804F0D0F89B
:104C600000220421AE4804F0CBF802220821AC480F
:104C700004F0C6F801220921A94804F0C1F8012274
:104C80000A21A74804F0BCF802220B21A44804F032
:104C9000B7F80020FFF75CFF00220F21A04804F0C6
:104CA000AFF8012200219F4804F0AAF80022022157
:104CB0009C4804F0A5F8002203219A4804F0A0F8CB
:104CC00002220621974804F09BF80022082195480B
:104CD00004F096F800220921924804F091F801228C
:104CE0000C21904804F08CF802220D218D4804F02C
:104CF00087F802220E218B4804F082F802220F214D
:104D0000884804F07DF80020FFF706FF03F02EFE30
:104D10000023ADF8183001238DF81A3006980AF0F8
:104D2000B5FC03F023FE0AF003FD04F0CFFA7E4841
:104D300002F0FCF94FF4E13004F094FD7B4B1A686B
:104D40000AB97B4A1A607B4B1A680AB9784A1A601A
:104D5000794805F0C1FD794805F0BEFD78497948EC
:104D600005F0BAFD00F0A6FA30B9774805F0B4FDB9
:104D7000A721764802F010FA03F006FE07A800F01B
:104D80006DFA18B9AD21714802F006FA9DF82300BA
:104D90009DF81E3004909DF822009DF81D20039080
:104DA0009DF821009DF81C1002909DF82000684D90
:104DB00001909DF81F00674E0090674805F08CFD3C
:104DC000664B674A1693674B1A9515932AAB43F8BF
:104DD000442D93E80300644C8DE803001796189463
:104DE00015AB0FCB10F0B6FD002800F02A815F480C
:104DF00005F072FD00224A48114604F001F80F2325
:104E000002220021464803F09BFE10F03DFD584B66
:104E1000CDE920451D93574B574C1B93574B1C9383
:104E2000574BCDE91E361FAB93E807008DE807000E
:104E30001BAB0FCB10F09EFC012220700F213848D5
:104E400003F0DEFF2378002B00F000814D4805F0D1
:104E500043FD10F067FC4C4C4C4B6561E3604C4BE0
:104E6000DFF8708123614B4BA3604B4B63604B4B6E
:104E700023604B4BA3614B4BE36104F110030FCB59
:104E80008DE80F0094E80F0010F080FE10F0D2FDC6
:104E90000146454805F020FD0BF070F822AC60B9E2
:104EA000424BCDE925552493414BCDF8888023937F
:104EB000009594E80F000BF067F83E4B0027239312
:104EC0003D4B012622933D4B09A924933C4B2046A0
:104ED00025933C4B01ACCDE926353B4B28933B4B0E
:104EE00029930423CDE909378DF8296006F0F4FAF7
:104EF00006F0E6FAFEF7F4F91022394611A8FEF79B
:104F000028F9334BCDE90B55CDE90D8303238DF8FB
:104F10004960109310AD0FCD0FC42B6823605BE088
:104F20000000024000040240CD4B0008AC0B002002
:104F300029970008B00B0020A3980108B498010835
:104F4000A0860100C4980108DA980108E2900108DF
:104F5000D9A80008698F0008EB980108DB52000807
:104F6000B94B0008C1520008A18F00081B99010825
:104F70003D900008059000082009002021900008BD
:104F8000B55200082C99010888510020BD890008FD
:104F90004589000879530008B9530008A553000853
:104FA00065CD0008A5CD000874990108D1A90008B5
:104FB000FDA90008B5F600087DF500088DF400088D
:104FC00025F4000839F40008AD4B0008954B0008A3
:104FD000A14B0008B9920008224B00930BAB0FCBFA
:104FE0000BF0FAF903F0D8FB1F490446FFF7E6FB84
:104FF00013F020FC01461D4805F06EFC4FF0804187
:10500000204613F0EFFB50B3194F174E194C03F025
:10501000C3FB3946054613F0F9FBD8B9314628469B
:10502000FFF7CCFB13F006FC0146204605F054FCCC
:105030004FF0FF3000F084F94FF47A7003F0BEFCBB
:10504000E5E7C9210C4802F0A7F8E0E60B4805F0B7
:1050500043FC00E74FF0FF31002000F06BF92AB06D
:10506000BDE8F081894B000800007A448799010867
:105070000000204094990108E29001085A99010823
:1050800010B5044618B1BDE81040FFF7A9BD0222D3
:105090000B21034803F0B4FE024B1C7010BD00BF8F
:1050A000000002402A09002010B50BF07FFA002012
:1050B000FFF7E6FF194C0AF03BFB01220C211848D0
:1050C00003F09EFE04F01AFA00F04AF900F04CF9E1
:1050D00003F08CFF134805F0FFFB04F0C3FA03F064
:1050E00045FC204601220D2103F08AFE01222046C4
:1050F0000E2103F085FE0021084604F0BDF900F002
:10510000D9F800F039F94FF4E13004F0ABFB0AF0C4
:1051100035FABDE8104004F0EFB900BF00000240CE
:105120000004024097980108014B1860704700BFC7
:1051300044090020054B5A69D20705D501225A615E
:10514000034B1B6803B11847704700BF00040140C0
:1051500034090020044B5A69920703D502225A6190
:1051600007F04EBB704700BF000401407047704716
:10517000044B5A69D20603D510225A6107F05ABD72
:10518000704700BF0004014010B5134C6369180656
:1051900003D58023636107F0F7FC6369990603D5A3
:1051A0002023636107F034FD6369DA0506D54FF407
:1051B00080736361094B1B6803B1984763699B0562
:1051C00008D54FF400736361054B1B6813B1BDE84C
:1051D0001040184710BD00BF0004014044090020E2
:1051E0004809002010B5194C63695B0504D54FF4DC
:1051F0008063636107F0D8FB6369180504D54FF439
:105200000063636107F08AFC6369D90406D54FF433
:10521000805363610E4B1B6803B1984763699A041E
:1052200006D54FF4005363610A4B1B6803B19847DE
:1052300063691B0408D54FF400436361064B1B6888
:1052400013B1BDE81040184710BD00BF0004014075
:10525000380900203C0900204009002073B5134E96
:10526000054603F081FE3478B4B9F82302A800F8AB
:10527000013DA022012103F0D3FE20B903F090FEEE
:10528000204602B070BDA0220821094803F0D6FED6
:105290000028F3D00123337003F082FE044A012476
:1052A00013682B6053686B60EAE700BF5409002065
:1052B0004C090020014803F087BE00BFA086010012
:1052C00007B58DF804108DF805200221024601A8CB
:1052D00003F098FE03B05DF804FB37B500230546E4
:1052E00002A8144600F8011D137001212A4603F09C
:1052F00097FE20B12A460121204603F09FFE03B00D
:1053000030BD000038B50A4C05460121204603F0A7
:10531000FBFD002320461A46012103F033FD85F0F2
:1053200001022046BDE83840012103F0F9BD00BF6D
:1053300000000240CB0701D5FFF7E4BF7047000033
:1053400008B5C30709D50121044803F0F2FD00B1F7
:105350000120BDE80840FFF7D5BF08BD00000240AE
:105360000020FFF7CFBF000001220321014803F016
:1053700047BD00BF00040240012310B5084C1A4687
:105380002046032103F0FEFC2046032103F0BCFD70
:1053900003222046BDE81040114603F0D3BC00BFF5
:1053A00000040240021C18BF01220321014803F03F
:1053B000B7BD00BF000402400321014803F0B9BD9E
:1053C0000004024010B50C4611B1012908D010BDEF
:1053D000044805F081FA2046BDE81040FFF79CBB69
:1053E0000148F6E7AF990108D199010810B50C46BC
:1053F00011B1012908D010BD044805F06DFA20460E
:10540000BDE81040FFF7A4BB0148F6E7F499010896
:10541000169A01084FF48062028202870F4A0260E6
:105420000F4A42600F4A82600F4AC2600F4A4261CF
:105430000F4A82610F4A02620F4A42620F4A826239
:105440000F4AC2610F4AC2620F4A02630F4A4263A7
:105450000F4AC2630F4A0264704700BF449A0108B2
:10546000F15500083D5600082D5600085556000815
:105470005B56000871560008A1560008B95600088E
:10548000C9560008CD5600081957000809570008EA
:105490003157000837570008FFF70CBF03F064BD11
:1054A00003F07EBD10B50446084611461A4603F0C7
:1054B000A9FD08B90123237110BD10B504460846A3
:1054C00011461A4603F0ACFD08B90123237110BD43
:1054D00010B50446084611461A4603F0AFFD08B958
:1054E0000123237110BD0000F0B500F1080785B05D
:1054F000054638460C4610F0F1FE00282FD12A4808
:1055000005F0EAF9A27C617C284805F0E5F96868B5
:10551000002103681B6898476868002103685B687E
:1055200098476B6802205B6898476B680220DB6ACB
:1055300098476368012B1DD0022B1DD0002B0CBF98
:105540004E210021A368CBB1012B0CBF0922002200
:10555000E368032B15D8DFE803F01320222464212D
:10556000384610F0A7FE0028CCD13721104801F0B2
:1055700013FEC7E74521E5E74F21E3E70822E7E708
:105580000526A37C20680293637C0193237C00930F
:10559000334604F0A1F905B0F0BD0126F1E70F266E
:1055A000EFE70226EDE700BF6C9A0108859A010833
:1055B000E290010810B50446FFF728FB04F108004B
:1055C000BDE8104010F08DBE084604F03FBA084612
:1055D00004F06CBA10B50446044BC0E90031012157
:1055E000083010F089FE204610BD00BFAC9A0108BB
:1055F000042817D8DFE800F00309100E120000237A
:1056000003211A46084803F0BDBB002203210648C7
:1056100003F0F6BB0222F9E70122F7E70321024873
:1056200003F014BC704700BF000002400246032193
:10563000014803F075BC00BF0000024008B503211B
:10564000034803F076FC003018BF012008BD00BFFE
:1056500000000240032003F02FB808B5FFF7FAFF5F
:1056600013F01AF84FF06A51FFF7A8F808BD0000D0
:10567000032812D8DFE800F002080F0D00230821EC
:105680001A46064803F07EBB00220821034803F0B7
:10569000B7BB0222F9E70122F7E77047000002409A
:1056A00008B50821034803F044FC003018BF01206E
:1056B00008BD00BF0000024002460821014803F077
:1056C0002FBC00BF00000240FFF72EBD042817D8F2
:1056D000DFE800F00309100E1200002302211A4631
:1056E000084803F04FBB00220221064803F088BBA4
:1056F0000222F9E70122F7E70221024803F0A6BBE4
:10570000704700BF0000024002460221014803F03A
:1057100007BC00BF0000024008B50221034803F0A7
:1057200008FC003018BF012008BD00BF0000024087
:10573000022002F0C1BF08B5FFF7FAFF12F0ACFF7C
:105740004FF06A51FFF73AF808BD000010B5044663
:10575000024B036010F092FD204610BDC49A010870
:1057600010B50446054B843040F8843C044B40F8A7
:10577000083CFFF7EBFF204610BD00BFB49B0108BB
:10578000AC9A010810B50446FFF7E0FF2046082157
:105790000FF04EFF204610BD10B50446FFF7E0FFA6
:1057A000204694210FF044FF204610BD38B50A4C26
:1057B0000D462046012103F0A7FB002320461A4690
:1057C000012103F0DFFA85F001022046BDE83840F0
:1057D000012103F0A5BB00BF00000240084603F012
:1057E000EDB80000012373B50093002304460025A3
:1057F0001A46134910F08AFC124B04F13806236054
:1058000084F82C503046FFF705FE314604F17C0049
:10581000FFF7E0FE0C4B84F89050C4F88C300B4836
:1058200005F05AF820460A4BA3610A4BE3610A4B84
:1058300063620A4B23620A4BA36202B070BD00BFD1
:105840008E9B0108B49B0108549A01089A9B010899
:10585000B9920008F993000889930008559300084D
:105860007D90000810B5084C2368DB0709D4074871
:10587000FFF7B8FF0123064A064904482360FDF7F5
:1058800039FC024810BD00BF580900205C09002007
:105890008450002061570008F8B590F82C30044679
:1058A0000E4613BB02F078FF134905463046FEF75B
:1058B00085FF12F0BFFF104907462846FEF77EFF1E
:1058C00012F0B8FF3A4601460C4805F005F831469B
:1058D000284612F087FF48B1094804F0FDFF012077
:1058E000FFF7CEFB012384F82C30F8BD0548BDE856
:1058F000F84004F0F1BF00BF00007A44CC9A0108E0
:10590000009B0108199B010838B504460B4804F1B7
:10591000380504F0E1FF28460021FFF753FD002180
:105920002846FFF763FD204610F02CFCFFF7BCFB78
:105930002046BDE8384010F035BC00BF6A9B010826
:105940002DE9F0410026044600F12D05D2B0C0F843
:105950002D6019496E6090F82C70FFF79DFF31465D
:1059600004F13800FFF742FD01A810F09BF89DF804
:105970000430012B17D1DDF805301048C4F82D3064
:10598000DDF809300E4E6B6004F0A6FF04F1350817
:10599000454505D015F8011B304604F09DFFF7E79B
:1059A000084804F099FF3846FFF76AFB84F82C702A
:1059B00052B0BDE8F08100BF00004040319B0108BB
:1059C00070930108E190010870B504460B4804F09B
:1059D00083FF04F138052046FFF7B2FF0021284677
:1059E000FFF7F0FCE36B0120984728460021FFF702
:1059F000FDFC636E0120BDE870401847589B01080C
:105A0000436830B55568002B18BF6124D1E90031D7
:105A100008BF7024002D14BF61257025006812682E
:105A200085B0CDE90152009102462146024804F0BA
:105A300053FF05B030BD00BFCC9B010810B5044634
:105A4000C06908B104F0C4FF206908B104F0C0FFC8
:105A5000606808B104F0BCFF204610BD10B50446D4
:105A6000006807F0B5FF204610BD0000FE2307B513
:105A700002A901F8043D054B1868002300681A4686
:105A800007F028FD03B05DF804FB00BFFC0900200F
:105A9000C121014801F080BBE2900108D0B51F464A
:105AA0007423C0E9003100230446836008201646B1
:105AB0000FF0B2FDC0E90067A0602046D0BD000035
:105AC000036837B5632B05460C4601D0FFF7E0FFAE
:105AD0000023A96802AA42F8043D0831204604F0D8
