:020000040800F2
:100000000080002069E40008E9F000087537000866
:10001000EBF00008EDF00008EFF000080000000031
:10002000000000000000000000000000112800088F
:10003000F1F0000800000000A1280008E5280008F1
:10004000F3F00008F5F00008F7F00008F9F00008F8
:10005000FBF00008FDF000087DF0000883F00008C8
:1000600089F000088FF0000895F00008FFF0000804
:1000700001F1000803F1000805F1000807F100088C
:1000800009F100080BF100080DF100080FF100085C
:1000900011F1000813F1000815F100089BF00008A9
:1000A00017F1000819F100081BF100081DF1000804
:1000B0001FF1000821F1000823F1000825F10008D4
:1000C00027F1000829F100082BF100082DF10008A4
:1000D0002FF10008BDF700084DFC000831F10008C1
:1000E000BFF0000869F1000833F1000835F100089D
:1000F00037F10008000000000000000000000000D0
:1001000000000000000000005FF808F110B5054C89
:10011000237833B9044B13B10448AFF300800123B3
:10012000237010BDE803002000000000DCE501089A
:1001300008B5034B1BB103490348AFF3008008BD6A
:1001400000000000EC030020DCE5010808B50348CE
:1001500009F0FAFCBDE808400FF0A8BDBF82010815
:100160000FF0A4BD10B50446C06910B1012108F01C
:1001700017FE206910B1012108F012FE204610BDC3
:10018000F8B50025C0E901120570C0E90335C0E9E2
:100190000555C0E90755456206990446164600F123
:1001A0001C0703F0BFFE38B93146074809F0CCFC04
:1001B0002021064803F062FA069A3946204603F0E9
:1001C00081FE2046F8BD00BFDD82010808830108DA
:1001D000F8B50025C0E901120570C0E90335C0E992
:1001E0000555C0E90755456206990446164600F1D3
:1001F0001C0703F0EFFD38B93146074809F0A4FCAD
:100200002021064803F03AFA069A3946204603F0C0
:10021000CBFD2046F8BD00BFDD8201080883010840
:1002200070B56A4B9EB0D3E9001214331B6881EAA3
:1002300002045C400094664809F086FC21460EA842
:100240000AF03EFC07F0E4F9024652F8480F0EAB04
:10025000516804AC03C304F0B9FA05460EA90AF0CC
:1002600001FB5C4B5C4A009303215C4B2046FFF78B
:1002700087FF2146284604F04FFB2046FFF772FF18
:10028000574B584A00930321574B2046FFF778FFFE
:100290002146284604F040FB2046FFF763FF4FF459
:1002A0001653524A00930221514B2046FFF790FF0C
:1002B0002146284604F030FB2046FFF753FF082371
:1002C0004C4A009302214C4B2046FFF781FF214608
:1002D000284604F021FB2046FFF744FF474B484ADD
:1002E00000930321474B2046FFF74AFF214628464B
:1002F00004F012FB2046FFF735FF434B434A0093BF
:100300000321434B2046FFF73BFF2146284604F0DC
:1003100003FB2046FFF726FF3E4B3F4A0093032195
:100320003E4B2046FFF72CFF2146284604F0F4FA06
:100330002046FFF717FF3A4B3A4A009303213A4B06
:100340002046FFF71DFF2146284604F0E5FA204627
:10035000FFF708FF00230121344E354A20468DF86F
:10036000103005910696CDE90723CDE90933CDE993
:100370000B330D9303F042FC38B931462D4809F098
:10038000E3FB20212C4803F079F901220BA9204638
:1003900003F022FC2146284604F0BEFA2046FFF76F
:1003A000E1FE2846254B264A264904F081F9264BD2
:1003B0000493264B0593264B0693264B009394E813
:1003C0000700052304F05EFC1EB070BD5000F81F4E
:1003D0006C80010876990108A48001088F800108CB
:1003E000C4800108B5800108AB800108D6800108EF
:1003F000C8800108F6800108E18001083FAC0108CF
:100400004581010807810108758101087A81010889
:1004100054810108DB810108D0810108878101082E
:100420004782010838820108E981010854820108E5
:1004300064820108DD820108088301086101000867
:1004400095820108B9820108E9E9000871E900080C
:100450004D010008000008087047000010B5FFF7C4
:10046000DFFEFA2001F032FB04F0CAF903F0D6FDFA
:100470001C2008F087FC04464FF4007108F0F0FAE5
:10048000064B1C6000F046FD01224FF4FA7105F0A6
:1004900011F9BDE81040002001F092B830040020AE
:1004A00007F0B6B838B50C4C2368DB0712D407F058
:1004B000AFF8054607F0ACF805F1200100F1300275
:1004C000064807F0EBFF0123054A0649034823606D
:1004D00013F0D3FC014838BD04040020340400208C
:1004E000000000205904000810B5074C2368DB0702
:1004F00008D4FFF7D7FF00F12001044806F0B6FB4F
:1005000001232360014810BD08040020600400207E
:1005100013B507F07DF8036804469B689847FFF71A
:10052000C1FF0146204606F037FF0D4B4FF496728F
:10053000019301230B4900930B48002300F052FF65
:10054000204607F077F8094809F0FEFA084809F054
:10055000FBFAC8200EF0EAF901F01EF9FEE700BF31
:100560000C040020498301085D040008528301083F
:100570006583010810B504462C2108F011FC2046C3
:1005800010BD0000002200204FF00041034BC3E9E2
:1005900000011A815A81DA76704700BF10040020EA
:1005A00003463038C0B209280DD9A3F14102052A0B
:1005B00002D8373BD8B27047A3F16102052A01D8AF
:1005C000573BF7E7FF2070472DE9F047254CC2B0B5
:1005D000236806465A681B689A4205D1224809F0EA
:1005E000B3FA42B0BDE8F087FFF77EFF012106F0C5
:1005F0007FFBDFF87C9023681C4FDFF87880D3E91D
:10060000005A554528D055F8044B4846217909F041
:100610009BFA2179206809F0FDFA384609F094FA2E
:10062000FFF762FFFA2322790093216803AB06F0FB
:1006300051FE04460146404609F086FA214603A8C9
:1006400009F0E8FA384609F07FFA336822469B68D9
:1006500003A930469847D4E7FFF746FF002106F08C
:1006600047FBBEE780040020EE840108FCA30108DC
:1006700015850108288501082DE9F04FFDB00446D5
:1006800004F0BEF8444903F05DFF10B9434809F097
:100690005BFAFFF705FF836B38301B68984794F8C7
:1006A0000490D4F800A0CDE9020149463C4809F085
:1006B0004BFA4946504609F0ADFA3A4809F044FA77
:1006C00005F012FFDDE90223053805AF5FFA80FB74
:1006D000384609F059FB0446FFF706FF012106F0F2
:1006E00007FB4FF00008C8450AD208F101061AF8C6
:1006F0000880F6B2B8F1000F11D12B4809F024FAA6
:10070000FFF7F2FE002106F0F3FA052C04D9224689
:100710003946042006F0ECF87DB0BDE8F08FA9EB77
:100720000602D2B2904504D94146204809F00CFA9D
:10073000E6E7FFF7D9FEFA23424600930AEB0601EB
:100740003DAB06F0C7FD05460146194809F0FCF926
:10075000B044AB455FFA88F804D8FA21154809F08F
:10076000F3F9C0E7ABEB04039D420ADB22463946AE
:10077000042006F0BDF8DDE90223384609F004FB49
:100780000446661CF6B23D552A463DA9B819AC1977
:1007900014F0B2FFE4B2A6E7548201089683010880
:1007A000EC830108FCA30108FC8301082F840108E5
:1007B000758401088384010810B504460A4809F0CD
:1007C000C3F9617904290BD12046FFF755FF204674
:1007D00005F086FF2046BDE81040082108F0E0BA89
:1007E000024809F0B1F9F2E7B2840108C8840108AF
:1007F000F8B504460E46D0E9002180688B1A9B109C
:100800000133091AB3EBA10F4FEA83070CD83A441E
:1008100062606FF04043216862683068521A03EBEF
:10082000A20341F82300F8BD384609F019FA05463D
:1008300018B96921094802F021FFD4E900128A425F
:1008400003D0521A284614F062FF206809F0F2F92A
:1008500025603D44C4E90155DBE700BF7B86010804
:100860002DE9F04F0546C5B00C2008F08BFA0024A6
:10087000474FC0E90044846038604649284603F089
:1008800084FE4FF00109A0462546DFF824A1009020
:10089000009B13F80860B9F1000F0BD12C2E00D08B
:1008A00066B908F101013C4809F04EF9882150462B
:1008B00002F0E4FE2C2E65D0002E48D03046FFF723
:1008C0006FFEFF28834608F1010808D131463348FE
:1008D000424609F039F9A121504602F0CFFEFF2D22
:1008E00006D12F4809F030F9A521504602F0C6FE86
:1008F000B9F1000F05D04FEA0B14E4B24FF0000934
:10090000C6E744EA0B04E4B26B1C04AA54554FF04A
:100910000109DDB2BCE73B68224859681B68224EDA
:10092000C91A891009F010F93B68204FD3E9004833
:1009300044452AD054F8045B384609F005F9286884
:10094000297909F067F9304609F0FEF8F0E7002D43
:10095000E1D0284608F020FA04A92A46019014F0B4
:10096000CBFE0820D7F800B008F00CFA019B057107
:100970000360039003A95846FFF73AFF002ECAD040
:10098000002585E7002D83D0E3E745B0BDE8F08F73
:10099000800400203882010837850108CD850108D0
:1009A0000E8601083F860108FCA301087386010832
:1009B0007C85010808B505F073FE02280CBF024BC8
:1009C000024B187808BD00BF940400209504002055
:1009D0002DE9F043224BB9B0D3E90023684609F072
:1009E000D3F9044605F080FD1E4F0538DFF88090EE
:1009F0005FFA80F8386803685B68984710B3386816
:100A000003681B6998478045024608D2014648465C
:100A100009F09AF8386803685B699847EAE7231891
:100A200098450FD338ABC5B2661C38681C4404F82F
:100A3000E05C0368F6B2DB680DEB0601AC19984781
:100A4000E4B2D7E7052C09D922466946032005F010
:100A50004FFF054B187839B0BDE8F083034BF9E739
:100A600010040020300400201046002074450020AF
:100A7000D888010808B50020002105F03DFD08B127
:100A8000FFF79AFE014B187808BD00BF784500209B
:100A90002DE9F0432E4B2F4DD3E90089B9F1004FDA
:100AA00008BFB8F1000F85B0D5E900672C460BD020
:100AB000B6EB080067EB09014FF00009DFF8AC80E6
:100AC000804579EB01023DDA234D2448C3E90067F4
:100AD00009F03AF80F222946684608F0D9F80021B3
:100AE000684608F0FFF80421684608F0FBF800218A
:100AF000684608F0F7F80021684608F0F3F8B4F902
:100B00000A10684608F0FBF82189684608F00FF9DA
:100B100055E90323684608F0FEF803F057FE104934
:100B200003F033FD60B10178684608F0DBF86846F1
:100B300008F0E3F8E0760B4B187805B0BDE8F083D9
:100B40003021F1E7084808F0FFFF0023EB76F2E7D9
:100B500018000020100400201C0400201789010840
:100B60003689010878450020448901089050010029
:100B700010B5124C206803689B699847FFF790FCFA
:100B8000836B38301B6898470D4BC3E9000108F0B0
:100B90005BFF01460B4808F0D7FFFFF7A5FC0121DA
:100BA00006F0A6F82068FFF70FFDFFF79DFC002177
:100BB00006F09EF8044B187810BD00BF30040020EA
:100BC00010040020BB8601087845002010B5FFF70F
:100BD00067FC06F085FE054C2081FFF761FC06F0FE
:100BE0008BFE034B6081187810BD00BF10040020FD
:100BF0007845002038B500224FF000430025144C02
:100C0000C4E9002325816581E576FFF749FC06F0FC
:100C100067FE2081FFF744FC06F06EFE60810D4CFC
:100C20000D4808F091FFFFF75FFC012106F060F826
:100C30002068FFF7C9FCFFF757FC294606F058F873
:100C4000206803689B699847044B187838BD00BF3B
:100C50001004002030040020CF86010878450020D1
:100C60002DE9F04186B003F0CBFD0546624808F05F
:100C70006BFF6249284603F07FFC614C61492060AC
:100C8000284603F079FC082803D0092801D007285A
:100C900066D1A0605C49284603F077FC0646014611
:100CA0005A4815F00FFC002862D10523E36058492B
:100CB000284603F06AFC06460146564815F002FC39
:100CC000002872D1452363600E234FF0010823747E
:100CD00084F8118084F81280FFF706FC0746484E1E
:100CE00001AC0FCE0FC4D6F800C001AEC4F800C0EE
:100CF00007F10C040FCE0FC44749C4F800C02846C2
:100D000003F043FC04460146444815F0DBFB002891
:100D100061D178602846FFF7A3FD4149284603F0DA
:100D200034FC0378044603F0FD03412B01D14378E2
:100D300033B13C4808F008FF5B213B4802F09EFCC1
:100D40003A48217808F000FF2378432B0CBF02209B
:100D5000002005F09FFC364B187806B0BDE8F08106
:100D6000344808F0F1FE28212F4802F087FC91E773
:100D70003146314815F0A6FB08B90A2396E73146FB
:100D80002E4815F09FFB08B90F238FE731462C48FA
:100D900015F098FB08B9142388E72A4808F0D4FE18
:100DA0003521214802F06AFC81E73146264815F0DA
:100DB00089FB08B94F2386E73146244815F082FBAA
:100DC00008B94E237FE7224808F0BEFE40211648AE
:100DD00002F054FC78E721461E4815F073FB10B969
:100DE000C7F8048096E71C4808F0AEFE51210E4873
:100DF00002F044FC8EE700BF08870108D680010896
:100E000004000020F680010845810108AF87010831
:100E10007A810108FE870108B5800108C4800108B5
:100E2000A48001087F8801085C870108AC8801085C
:100E300078450020228701083FAC0108B3870108EC
:100E400087AC0108B787010803880108758101088C
:100E500007880108AF8001084588010808B5FFF739
:100E60001FFB06F063FA014B187808BD7845002097
:100E700008B506F0CDFBBDE8084006F003BC000055
:100E800038B50020002105F04FFB10B10F4B18784A
:100E900038BD0020002105F0E5FB054608B10C4BEC
:100EA000F5E70C4CE27E32B104F10C01012005F0B3
:100EB0001FFDE576F3E7084B186803685B68984701
:100EC00008B1064BE3E7064BE1E700BF11460020FF
:100ED0001046002010040020300400207745002038
:100EE000744500201FB56123CDE9013101A90392AA
:100EF00004F094F905B05DF804FB07B58DF8041013
:100F000001A98DF805208DF8063004F04DFA03B0E4
:100F10005DF804FB2DE9F04FAF4889B008F014FEEE
:100F200003F06EFCAD4C07462368AD4D13F0010F86
:100F300004D106F06DFB012328602360A94EAA4C62
:100F4000336813F0010F04D104F04EF9012320603F
:100F5000336029682068383104F012F82068A3490A
:100F600004F010F8A2493846256803F00EFBA149A9
:100F7000024605A803F0EEFF05A9284604F044F850
:100F800000256E269C4B8DF80C0005A9206805965F
:100F90000693079504F038F8984B05A91870984BFC
:100FA0002068CDE90635059604F02EF89549964A55
:100FB000087096492068FFF795FF954A8DF80E0056
:100FC00094492068FFF78EFF934A82469349206830
:100FD000FFF788FF8146206805F038F9904A80467F
:100FE00090492068FFF77EFF8F4A8DF808008F49EF
:100FF0002068FFF777FF8E4A8DF809008D49206839
:10100000FFF770FF8C4A8DF80F008C492068FFF7BE
:1010100069FF8B4A06468B492068FFF763FF8A49C0
:101020008346206805F094F9884A8DF807008849BE
:101030002068FFF757FF874A8DF80A008649206825
:10104000FFF750FF70230746059305A8834B014621
:10105000206806938DF81C5004F0E0F880498DF864
:101060000D00206805F066F99DF80E508DF80B0014
:101070002068534680F828507A4D9DF80E102A7843
:10108000FFF73BFF4B462A7851462068FFF735FFB4
:1010900043462A7849462068FFF72FFF9DF809301C
:1010A0002A7841462068FFF728FFDFF8C4819DF8C1
:1010B0000F302A789DF809102068FFF71EFFDFF82F
:1010C000B4A133462A789DF80F102068FFF715FF6A
:1010D0005B4698F8002031462068FFF70EFF9DF828
:1010E00007309AF8002031462068FFF706FF5E4A75
:1010F000DFF884919DF80A30314620681278FFF7B6
:10110000FCFE3B4699F8002031462068FFF7F5FECB
:101110009DF807309AF800209DF80A102068FFF724
:10112000ECFE3B4699F800209DF80A102068FFF776
:10113000E4FE33462A7859462068FFF7DEFE5B4618
:1011400098F800209DF807102068FFF7D6FE334678
:1011500099F800209DF807102068FFF7CEFE274A77
:101160009DF80D30394620681278FFF7C6FE2549F4
:101170009DF80B300A7820683946FFF7BEFE9DF8CF
:1011800008309DF80C209DF80B102068FFF7B5FE85
:101190005B4698F800209DF80B102068FFF7ADFE25
:1011A0009DF808309DF80C209DF80D102068FFF781
:1011B000A4FE9DF809302A789DF808102068FFF7F2
:1011C0009CFE206804F008FB284808F0BDFC20685D
:1011D00009B0BDE8F08F00BF6989010888040020CC
:1011E00090040020840400208C040020710E00086C
:1011F000D0810108868901089289010895040020A0
:101200009C890108940400205D0E0008C69C01081A
:10121000610C0008A7890108F50B0008B3890108D3
:10122000CD0B0008BF890108710B0008C4890108B3
:10123000910A0008C9890108810E0008D4890108B3
:10124000750A0008DD890108EC890108D109000848
:10125000F9890108B5090008058A01082F9C0108D1
:101260003A9C010878450020774500200F8A010844
:10127000114600201046002074450020FF23024A3A
:101280001370024A137070479504002094040020E4
:10129000064A13681968064B19B94FF0FF321A60F5
:1012A00070471268D268D2685268F8E79C04002040
:1012B0004C05002010B5044620B940F2F261084800
:1012C00002F0DCF96269074B9A4207D1A06A064B2B
:1012D000984203D0B0FA80F0400910BD0020FCE72E
:1012E000298A01086C05002054050020F8B51B4B25
:1012F0001B4E1C68054630680F46043001F037FA73
:10130000334640B901203168164EC96A32688840B8
:1013100022EA000232606A1C07D137B1196812480C
:101320000431BDE8F84001F0FFB91A68641954604F
:1013300007D30E4A10681968BDE8F840043101F07F
:10134000FFB90B4A10681968043101F0F9F9094B2B
:101350001A68A24288BF1C60F8BD00BF9405002037
:10136000980400201C0500206C050020A00400202B
:101370009C0400204C05002080B5DFF86480144FE9
:10138000144C154E236863B9144B1B68012BF8D914
:101390004FF08053C8F80030BFF34F8FBFF36F8F0B
:1013A000EEE701F047FAFB68DD68281D01F0DFF980
:1013B0003368013B33602368013B236001F05AFA34
:1013C000286B01F003FC284601F000FCDAE700BFBF
:1013D000800500200C05002008050020A404002042
:1013E00004ED00E02DE9F84F4FEA820A80465046AE
:1013F0000D4699460B9E01F057FB0746002800F06A
:10140000AB805C2001F050FB0446002800F0A18076
:10141000076325B94FF45871564802F02FF9524628
:10142000A521206B14F08CF9236BAAF1040A9A44CD
:101430002AF0070A6B1E04F134020F3513F8011F5E
:1014400002F8011B197809B1AB42F7D10A9D4FF0A0
:10145000000B042D28BF0425271DE562C4E9135B9A
:10146000384684F843B001F05CF9C5F1050504F194
:10147000180001F056F9C4F854B02461A561646203
:1014800084F858B04A464146504601F0AFF9206012
:1014900006B1346001F0CEF9374B384E1A68DFF8E8
:1014A000188101321A603268002A58D134601B68F2
:1014B000012B25D1324801F029F9324801F026F9F3
:1014C000314801F023F9DFF8F490304801F01EF9BB
:1014D0002F4D304801F01AF9484601F017F9284617
:1014E00001F014F92C4801F011F92C4801F00EF923
:1014F0002B4801F00BF92B4BC3F800902A4B1D60D1
:1015000001252A4A2A491368086801331360E26AF0
:10151000636405FA02F3034314200B60184B394649
:1015200000FB023001F000F901F0A4F9D8F8003016
:1015300063B13368DA6AE36A9A4207D24FF08052A5
:101540001C4B1A60BFF34F8FBFF36F8F2846BDE867
:10155000F88F384601F03AFB4FF0FF35F6E7D8F840
:101560000030002BCCD13368DA6AE36A9A4298BF24
:101570003460C5E7298A0108080500209804002086
:10158000A4040020B8040020CC040020E0040020C3
:1015900034050020F40400205405002080050020BC
:1015A0006C0500209C040020A004002018050020E9
:1015B0001C05002004ED00E0680500202005002047
:1015C00070B50446284D01F035F904B92C68261D84
:1015D000304601F0CCF860B91421E06A234B414356
:1015E0005B5833B90122224982400B6823EA020387
:1015F0000B60A36A1BB104F1180001F0B8F81D4A92
:101600001368013313602B68A34220D131461A4876
:1016100001F08AF8194A13680133136001F02AF9BE
:10162000174B1B6893B12B68A3420FD1154B1B6856
:1016300023B140F2B641144802F020F84FF0805236
:10164000124B1A60BFF34F8FBFF36F8F70BD104AFC
:10165000206B1368013B136001F0B8FA204601F0DB
:10166000B5FAFFF715FED9E798040020A40400207E
:101670001C05002018050020800500200C05002016
:101680006805002014050020298A010804ED00E007
:1016900008050020F8B5054620B940F24C5117481E
:1016A00001F0ECFF164B1B68AB4220D001F0C2F8F2
:1016B000144B6C691F68144B1E6801F0DBF8BC42C8
:1016C00017D0B44215D0114B9C4208D1AB6A83B9F4
:1016D00095F85830012B0CBF02200320F8BD0C4BAD
:1016E0009C4208D0002C0CBF04200120F6E700200B
:1016F000F4E70220F2E70420F0E700BF298A01089E
:10170000980400209C040020A00400206C05002008
:101710008005002070B5044620B940F21C711948BC
:1017200001F0ACFF184D2B68A34229D044B301F05F
:1017300081F82046FFF7BEFDF0B1261D304601F0CE
:1017400016F801231149E26A086893400343142004
:101750000B600F4B314600FB023000F0E5FF2B68B9
:10176000E26ADB6A9A4207D34FF08052094B1A6053
:10177000BFF34F8FBFF36F8FBDE8704001F07AB8B1
:1017800070BD00BF298A0108980400201C050020B4
:10179000A404002004ED00E013B50024174B0094CE
:1017A00001935022234616491648FFF71BFE0128D5
:1017B00018D100F023FE012814D14FF0500383F319
:1017C0001188BFF36F8FBFF34F8F4FF0FF320E4B77
:1017D0001A600E4B18600E4B1C6002B0BDE8104042
:1017E00001F0A8B8013007D140F60401094802B061
:1017F000BDE8104001F042BF02B010BD4805002016
:10180000758A0108791300084C050020680500203E
:1018100094050020298A0108024A136801331360E5
:10182000704700BF14050020014B1868704700BFC7
:101830009405002008B501F0D7F8014B186808BDE1
:10184000940500202DE9F84F3A4B1B68002B6AD114
:10185000394B1C6801341C609CB9384D2B681B68DF
:1018600023B140F66221364801F008FF354B2A6863
:10187000196829601A60344A136801331360FFF74E
:1018800007FD324D4FF0000B2B68314FA34211D9A9
:101890003A68304BD16A14224A439A58022A28BF28
:1018A0004FF0010B2C4A1268002A0CBF5846012049
:1018B000BDE8F88FDFF884A0DFF8A490DAF8002004
:1018C00012681AB94FF0FF322A60E1E7DAF8002017
:1018D000D268D66871688C4201D22960D8E706F1D7
:1018E0000408404600F043FFB16A19B106F1180040
:1018F00000F03DFF01224FF0140CF06AD9F80030DF
:1019000002FA00F11943134BC9F800100CFB003028
:10191000414600F009FF3868F16AC26A914228BF67
:101920004FF0010BCAE70D4A4FF0000B136801336B
:101930001360B7E714050020940500209C040020E4
:10194000298A0108A0040020500500204C05002031
:1019500098040020A4040020980500201005002011
:101960001C0500202DE9F8432E4C236823B940F6CE
:1019700068012D4801F082FE00F05CFF2368013B06
:10198000236024682CB1002400F074FF2046BDE8D9
:10199000F883264B1B68002BF5D0254D254EDFF82C
:1019A000A8801FE0EB680127DC6804F1040904F15A
:1019B000180000F0DCFE484600F0D9FE1420E26A70
:1019C000316807FA02F30B4300FB0280494633609B
:1019D00000F0AAFE184BE26A1B68DB6A9A4201D348
:1019E000164B1F602B68002BDCD10CB1FFF750FCAD
:1019F000134D2C6844B10127104EFFF723FF00B1AF
:101A00003760013CF9D12C600C4B1B68002BBAD01D
:101A10004FF080520B4B1A60BFF34F8FBFF36F8FA5
:101A20000124B1E714050020298A010808050020D7
:101A3000540500201C050020980400209805002073
:101A40001005002004ED00E0A404002038B50C4689
:101A5000054620B940F2CA41184801F00FFE24B9EA
:101A600040F2CB41154801F009FE154B1B6823B12C
:101A700040F2CC41114801F001FEFFF7CDFE114BC1
:101A80002A68186814192CBF0121002182422C6099
:101A90000CD961B9FFF766FF38B94FF080520A4B95
:101AA0001A60BFF34F8FBFF36F8F38BD09B9A042E3
:101AB000F0D20021201AFFF719FCEBE7298A010870
:101AC000140500209405002004ED00E010B5044644
:101AD00040B94FF080520D4B1A60BFF34F8FBFF3E8
:101AE0006F8F10BD0A4B1B6823B14FF4A4610948E6
:101AF00001F0C4FDFFF790FE00212046FFF7F6FB42
:101B0000FFF730FF0028E4D0EBE700BF04ED00E072
:101B100014050020298A0108224B70B51A68224B4F
:101B200012B101221A6070BD204E1A6033681B6B1F
:101B30001A68B2F1A53F0BD15A68B2F1A53F07D19F
:101B40009A68B2F1A53F03D1DB68B3F1A53F04D099
:101B500030683168343101F061FD154B1C68B4FA0E
:101B600084F41423E4B2C4F11F046343114DEB5811
:101B700023B940F68831104801F080FD142202FBA1
:101B800004F3E9184868083340682B44984202FB84
:101B9000045408BF4368486008BF4B606368DB6853
:101BA0003360C0E714050020980500209804002049
:101BB0001C050020A4040020298A010870B50446F1
:101BC0002A4E00F037FE04B93468251D284600F07F
:101BD000CEFD60B91421E06A254B41435B5833B90F
:101BE0000122244982400B6823EA02030B60A36AA6
:101BF0001BB104F1180000F0BAFD29461E4800F0A0
:101C000093FD94F858301D4D012B04BF002384F838
:101C1000583000F02FFE2A682AB100F00BFEFFF7C3
:101C200037FB00F027FE3368A34211D12B6883B144
:101C3000134B1B6823B14FF4D961124801F01EFD0C
:101C40004FF08052104B1A60BFF34F8FBFF36F8F6E
:101C500070BD094A11680D4A1268914201D1336082
:101C6000F6E7BDE87040FFF757BF00BF98040020BB
:101C7000A40400201C0500206C050020680500203D
:101C800014050020298A010804ED00E00805002061
:101C900038B50D46044620B940F69F31074801F09B
:101CA000EDFC074B20461968183100F049FD284625
:101CB000BDE838400121FFF719BB00BF298A0108A0
:101CC0009804002070B50E461446054620B940F62B
:101CD000CA310A4801F0D2FC094B2846196818316C
:101CE00000F022FD002C214608BF3046BDE87040C0
:101CF00018BF4FF0FF30FFF7F9BA00BF298A01087B
:101D00009804002038B5C368DC6824B940F6FA317D
:101D1000154801F0B3FC04F11805284600F027FD32
:101D2000124B1B68E3B9251D284600F020FD012356
:101D30000F49E26A08689340034314200B60294668
:101D40000C4B00FB023000F0EFFC0B4BE26A1B680F
:101D5000DB6A9A4285BF0120084B0020186038BD1D
:101D600029460748EFE700BF298A0108140500202B
:101D70001C050020A40400209804002098050020E1
:101D800054050020034B1B680360034B1B68436032
:101D9000704700BF500500209405002070B50C4628
:101DA000054620B940F66541144801F067FC24B9A6
:101DB00040F66641114801F061FC00F03BFD104B1C
:101DC0001A682368591C0FD00E482E68006869688D
:101DD000864201D091420ED9521A934209D99B1AD8
:101DE00023602846FFF7CEFF002400F043FD204685
:101DF00070BD002323600124F7E700BF298A010892
:101E000094050020500500200122014B1A60704704
:101E10009805002070B50C461646054608B91B4AC1
:101E2000156805F134026260EA6A052B22612A6BAB
:101E30002560E2616A6CA260EA6C62614FF00002A8
:101E4000A2611BD011490968A9420BD12273D6B1F6
:101E5000296B0A46531A12F8010BA528FAD09B08E1
:101E6000238470BD032B2373F1D1FFF7D5FCAB6A3C
:101E70000BB102232373FFF775FDE8E72846FFF750
:101E800009FC2073E3E72684EBE700BF98040020F9
:101E900008B9064B1868026B1346981A13F8011B11
:101EA000A529FAD0C0F38F00704700BF9804002026
:101EB000014B1868704700BF98040020054B1B6851
:101EC00033B1054B1B68002B0CBF0220002070476C
:101ED0000120704768050020140500202DE9F0411D
:101EE0000446002836D0234AC36A11681746C96AD7
:101EF0008B4237D2142682691F4D002AA8BF3A6848
:101F000006FB0353A2BFD26AC2F105028261426995
:101F10009A4221D100F10408404600F028FC174BFA
:101F200048B9E06A4643AA592AB901211A68814092
:101F300022EA01021A603A681968D26AE262012450
:101F400004FA02F0084318601420414600FB0250D6
:101F500000F0EAFB204603E03B68DB6AC362012035
:101F6000BDE8F0811368C06CDC6AA0422CBF002081
:101F70000120F5E798040020A40400201C0500209F
:101F8000F8B5044608B90020F8BD1F4B1B68834212
:101F900004D040F67A711D4801F070FB236D23B91F
:101FA00040F67B71194801F069FB236DE16AE26C30
:101FB000013B91422365E6D0002BE4D1251D284644
:101FC00000F0D5FB124E134A50B91421E76A794349
:101FD00073582BB901201368B84023EA000313603B
:101FE000E36CC3F10501A161E3620124116804FA05
:101FF00003F0084310601420294600FB036000F042
:1020000093FB2046C0E700BF98040020298A0108FE
:10201000A40400201C050020F8B50D460446002845
:1020200045D0036D23B940F6C971214801F026FB64
:10203000E36C9D4238BF1D46E36AAB4237D0236D47
:10204000012B34D11B4B1B68A34204D140F6E47131
:10205000174801F013FB1426A269E36A002AE5621F
:10206000A4BFC5F10505A561134D626906FB0353C5
:102070009A421CD1271D384600F079FBE26A0F4CCA
:1020800040B95643AB592BB901212368914023EA4B
:102090000103236001231420216893400B43236034
:1020A000394600FB0250BDE8F84000F03DBBF8BDEA
:1020B000298A010898040020A40400201C0500209F
:1020C000044B1A681AB119680A6D01320A6518685A
:1020D000704700BF980400202DE9F0411E4C1E46B9
:1020E00080460F46154600F0A5FB236893F858304C
:1020F000022B14D0012123685A6D22EA08025A6586
:10210000236883F8581056B13046FFF7EFF84FF0C8
:102110008052124B1A60BFF34F8FBFF36F8F00F0E6
:10212000A9FB00F087FB15B123685B6D2B6023686A
:10213000002293F85830022B09BF0125002523689F
:10214000596D04BFB9435965236883F8582000F0DE
:1021500091FB2846BDE8F0819804002004ED00E0E2
:10216000F8B50E4617461D46044620B941F219211E
:102170002B4801F083FA00F05DFB0DB1636D2B601D
:10218000022394F8585084F85830EDB2042F16D832
:10219000DFE807F00A0307051100636D1E4366655B
:1021A00002E0636D01336365012D11D0012400F05D
:1021B00061FB2046F8BD022DF1D10024F7E7636DE5
:1021C0000133F1D041F24A21154801F057FAEBE70B
:1021D000261D304600F0CBFA1420124AE36A11683B
:1021E0009D400D431560104A314600FB032000F06E
:1021F0009BFAA36A23B141F25921094801F03EFA42
:102200000A4BE26A1B68DB6A9A42CFD94FF08052D0
:10221000074B1A60BFF34F8FBFF36F8FC6E700BF46
:10222000298A01081C050020A4040020980400202D
:1022300004ED00E02DE9F843DDF820800E469146DC
:102240001D46044620B941F28C21354801F016FAAA
:1022500000F0CAFBEFF311874FF0500383F31188AE
:10226000BFF36F8FBFF34F8F0DB1636D2B600223F0
:1022700094F8585084F85830EDB2B9F1040F16D8DC
:10228000DFE809F00A0307051100636D1E43666568
:1022900002E0636D01336365012D11D0012087F3E6
:1022A0001188BDE8F883022DF1D10020F7E7636DB6
:1022B0000133F1D041F2CF21194801F0DFF9EBE70A
:1022C000A36A23B141F2DA21154801F0D7F9154B81
:1022D0001B6803BB251D284600F049FA012312495B
:1022E000E26A08689340034314200B6029460F4BB1
:1022F00000FB023000F018FA0D4BE26A1B68DB6A43
:102300009A42CBD90123B8F1000F01D0C8F80030B0
:10231000084A1360C2E704F118010748EAE700BF62
:10232000298A0108140500201C050020A4040020AF
:1023300098040020980500205405002038B5054673
:1023400008B9084B1D68002400F074FA95F858305D
:10235000022B04BF85F85840012400F08BFA204678
:1023600038BD00BF98040020F8B50F4C00F062FAA9
:102370002568ADB90D4F0E4E384600F0C7F930460E
:1023800000F0C4F90B4B2A461F600B4B0C210A20AE
:102390001E6000F01DFD206010B1084901F0DCF85E
:1023A000BDE8F84000F066BAD0050020A405002082
:1023B000B80500209C050020A00500207A8A0108AD
:1023C000914208B5416000610AD8D21A83699A42E5
:1023D0000DD2084B011D186800F0B2F9002008BDAD
:1023E0009A4201D2994202D2011D034BF3E7012028
:1023F000F5E700BFA00500209C05002007B5FFF70A
:10240000B3FF0C4B1B6843B90B484FF4897101F0C3
:1024100035F9002003B05DF804FB084BC822019396
:1024200001230749009307480023FEF7DBFF00283C
:10243000EAD0EFE7D00500207F8A0108D40500200C
:10244000CC8A0108612500082DE9F04180462C2046
:102450000D4617461E4600F027FB044688B125B9F5
:102460004FF4B671084801F009F9FFF77DFF069BAC
:10247000C4F80080C4E9065726626362201D00F09C
:1024800050F92046BDE8F0817F8A01082DE9FF411F
:102490000D4690461F46064620B94FF4C3710F48BB
:1024A00001F0ECF80E4C206878B1052DCDE901580B
:1024B00003960DDCFFF702FD002302280CBF0A9AE9
:1024C0001A4601A9206800F0A7FC04B0BDE8F0811D
:1024D00000233A4601A900F055FDF6E77F8A01087E
:1024E000D00500202DE9F74300271A4DDFF86C8056
:1024F0002B681A6832B9184A11681360296003B052
:10250000BDE8F083DB68DC681E6804F10409484616
:1025100000F02DF9636A20469847E369012BE7D163
:10252000A36933449E4206D2636024614946286809
:1025300000F006F9DCE700230097324619462046F2
:10254000FFF7A4FF0028D3D140F27231404601F0DA
:1025500095F8CDE79C050020A00500207F8A0108A2
:102560002DE9F04F4FF00108624D89B0DFF898B1C6
:10257000DBF80020136843B30024D368D3F800903D
:10258000FFF74AF9FFF750F95B4B82461A681F467E
:1025900090425A4E1CD31860002C4CD0584B1B68EC
:1025A0001A68B2FA82F25209A9EB0A01306801F006
:1025B0000BF8FFF7D7F998B94FF08052514B1A60DA
:1025C000BFF34F8FBFF36F8F0AE001249946D7E71F
:1025D0000393FFF787FF039BC3F800A0FFF7C2F93F
:1025E000002205A9306800F071FD0028BED0059BCF
:1025F000002BF5DB079C636913B1201D00F0B7F8D1
:10260000FFF712F93B688146984201D2FFF76AFF53
:10261000059BC7F80090092BE2D808FA03F313F4DE
:10262000047A57D113F0C70F33D19B06D8D5204673
:1026300000F0CCFAD4E7814529D8FFF793F9DBF80D
:102640000030DB68D3F80CB00BF1040000F08FF819
:10265000DBF81C30012B15D1DBF818104B46524625
:1026600049445846FFF7ACFE60B1009423464A4601
:1026700021465846FFF70AFF20B94FF4F471284667
:1026800000F0FCFFDBF8243058469847A8E72246C4
:102690008AE7A169069B4A4619442046FFF790FE47
:1026A00000289DD0636A20469847E369012B97D1A3
:1026B000A2690699CDF800A00A4453465146204627
:1026C000FFF7E4FE00288BD140F20131284600F0EC
:1026D000D5FF85E7069BA36123B94FF446712846D1
:1026E00000F0CCFFA1694B464A4649442046FFF71B
:1026F00067FE75E77F8A0108CC050020D005002021
:10270000A005002004ED00E09C0500204FF0FF3202
:1027100000F108034360C0E9022303610023036062
:10272000704700230361704743689A684B608A6072
:102730009A685160996003680861013303607047CB
:102740000A6830B5531C0AD103695A684A6091601F
:102750008B605960036808610133036030BD00F18C
:1027600008035C6825689542EFD82346F9E70369BA
:10277000D0E901128A60826851605968814208BFBD
:102780005A60002202611A68013A1A60186870479C
:1027900006480068006880F3088862B661B6BFF337
:1027A0004F8FBFF36F8F00DF00BF000008ED00E028
:1027B000002307B501930B4B1B68013303D0CA21DB
:1027C000094800F05BFF4FF0500383F31188BFF31B
:1027D0006F8FBFF34F8F019B002BFCD003B05DF8D0
:1027E00004FB00BF20000020D48A01084FF0807352
:1027F00040F8043C054B21F0010140F8081C40F86A
:102800000C3C40F8202C4038704700BFB12700082E
:10281000074B19680868B0E8F00F80F30988BFF328
:102820006F8F4FF0000080F311884EF00D0E70474F
:10283000980400204FF0500383F31188BFF36F8F8B
:10284000BFF34F8F084A13680133012B136009D17E
:10285000064B1B6813F0FF0F04D040F275110448BB
:1028600000F00CBF704700BF2000002004ED00E026
:10287000D48A010810B5074C236823B94FF4BE7100
:10288000054800F0FBFE2368013B23600BB983F38E
:10289000118810BD20000020D48A0108000000002B
:1028A000EFF30980BFF36F8F0D4B1A6820E9F00F2B
:1028B00010602DE908404FF0500080F31188FFF7B9
:1028C0002BF94FF0000080F31188BDE8084019682B
:1028D0000868B0E8F00F80F30988BFF36F8F704786
:1028E0009804002008B54FF0500383F31188BFF31C
:1028F0006F8FBFF34F8FFEF7A5FF18B14FF08052D7
:10290000024B1A60002383F3118808BD04ED00E038
:102910000022054B05491A600A6041F26701044A2A
:10292000116007221A60704710E000E018E000E034
:1029300014E000E013B5264B264C1A78D2B201926F
:10294000FF221A701B78244ADBB28DF803309DF801
:10295000033003F0500313700723002223609DF817
:102960000310581E090629D402B123602368032BE3
:1029700004D04FF49B71194800F080FE2368144A7C
:102980001B0203F4E06323600024019BDBB213709D
:10299000134B1A6842F470021A601A6842F07042CF
:1029A0001A60FFF7B5FF0F4B1C60FFF7F1FEFFF752
:1029B000B3F8FFF7FDFE204602B010BD9DF80330CE
:1029C00001225B00DBB28DF803300346C7E700BF8E
:1029D00000E400E0DC050020D8050020D48A0108CE
:1029E00020ED00E02000002008B5EFF305830F2B59
:1029F0000AD90D4A9B5C0D4A12789A4204D940F2DA
:102A0000A5210B4800F03AFE0A4B0B4A1B681268DE
:102A100003F4E063934206D9BDE8084040F2B521D3
:102A2000034800F02BBE08BDF0E300E0D80500200D
:102A3000D48A01080CED00E0DC05002010B50F4B36
:102A40001A68824218D35C681919884201BF41682C
:102A5000184609195960446801198A4207D1084982
:102A600009688A421FBF516812680919416098427B
:102A7000026018BF186010BD1346E1E7F041002066
:102A8000E005002038B5064B064D1C68246804B9E3
:102A900038BD6307FAD07721284600F0EFFDF5E74F
:102AA000F0410020348B01082DE9F8430746FEF77A
:102AB000B3FE3F493F4D0B680BBB3F4A3F4E5007AB
:102AC0001DBFD01D20F0070002F570534FF4705366
:102AD0001CBF02461B1A00201344083B23F00703C7
:102AE00070603260C3E90000981A0B60C2E90030E0
:102AF000334B1860334B18604FF000432B602B684A
:102B00001F4252D1002F41D007F1080462071CBFB9
:102B100024F007040834002C47D02A4B1A68984642
:102B2000A24242D3254B1E687268A24202D230688C
:102B3000002837D10968B14237D01F683168121BAD
:102B4000102A07F10807196010D906EB040919F0DB
:102B5000070F03D0D5211C4800F090FD736848464C
:102B60001B1BC9F804307460FFF768FF14497268D2
:102B7000D8F8003008689B1A8342C8F8003038BF84
:102B80000B602B681343736000233360FEF7EAFE8B
:102B90007B0704D040F215110B4800F06FFD38465A
:102BA000BDE8F88333460646BEE70027EEE700BFE0
:102BB000E0050020E4410020E4050020F041002071
:102BC000EC410020E8410020348B010838B5044670
:102BD00070B3184D50F8041C2A68114204D140F219
:102BE0002911154800F04AFD54F8083C23B14FF470
:102BF0009571114800F042FD54F8043C2A681342D4
:102C000016D054F8081C99B923EA020344F8043C8E
:102C1000FEF702FE094A54F8043C1168A4F10800CA
:102C20000B441360FFF70AFFBDE83840FEF79ABE79
:102C300038BD00BFE4410020348B0108E84100208A
:102C400010B50446FFF7F6FDA46BFFF713FEB4FAC8
:102C500084F0400910BD70B51546026C0446866BC1
:102C600042B905689DB98068FFF78AF9A560013609
:102C7000A66370BD6DB9406812F03EFD6368226CBA
:102C80001344A2686360934201D323686360002009
:102C9000EDE7C06812F030FD236CE2685B4221680A
:102CA0001A448A42E2603EBFA2689B18E360022D8C
:102CB000EDD10EB1013EEAE73046D8E703461A6C83
:102CC00010B4084662B1D9689C681144A142D96029
:102CD00028BF196810BC28BFD960D96812F00CBD94
:102CE00010BC704770B50446FFF7A4FD94F845503A
:102CF00004F124066DB2002D14DCFF2384F8453066
:102D0000FFF7B8FDFFF796FD94F8445004F1100664
:102D10006DB2002D12DCFF2384F84430BDE8704012
:102D2000FFF7A8BD636A002BE7D03046FEF7EAFF45
:102D300008B1FFF769F8013D6DB2DCE72369002BAC
:102D4000E9D03046FEF7DEFF08B1FFF75DF8013D40
:102D50006DB2DEE738B50D46044620B940F20311E6
:102D6000194800F08BFCFFF765FDD4E90F314B43A8
:102D70002268D0185B1A1344A060E3600020FF2390
:102D8000A063626084F8443084F8453095B92369C3
:102D900063B104F11000FEF7B5FF38B14FF0805277
:102DA0000A4B1A60BFF34F8FBFF36F8FFFF762FDBF
:102DB000012038BD04F11000FFF7A8FC04F1240045
:102DC000FFF7A4FCF2E700BF928B010804ED00E0DE
:102DD000F8B50D461746064620B94FF4BB710D48AD
:102DE00000F04CFC05FB06F05030FFF75DFE04469A
:102DF00048B155B92060C4E90F6501212046FFF7AD
:102E0000A9FF84F84C702046F8BD00F15003036020
:102E1000F1E700BF928B01082DE9FF478846019238
:102E20001E46044620B940F2F1214B4800F026FC32
:102E3000B8F1000F06D1236C23B140F2F2214648CD
:102E400000F01CFC022E07D1E36B012B04D040F2F2
:102E5000F321414800F012FCFFF730F830B9019B34
:102E600023B140F2F6213C4800F008FC0027B946A7
:102E7000DFF8E8A0FFF7DEFCA26BE36B9A4201D318
:102E8000022E19D1324641462046FFF7E4FE636A1E
:102E90001BB104F12400FEF735FF38B14FF080522A
:102EA0002E4B1A60BFF34F8FBFF36F8FFFF7E2FC1B
:102EB000012004B0BDE8F087019D1DB9FFF7DAFCE1
:102EC0000020F6E717B902A8FEF75CFFFFF7D2FC77
:102ED000FEF7A2FCFFF7AEFC94F84430FF2B08BFCE
:102EE00084F8449094F84530FF2B08BF84F845904F
:102EF000FFF7C0FC01A902A8FEF750FF28BBFFF7AF
:102F000099FCA26BE36B9A420ED1FFF7B3FC0199D7
:102F100004F11000FEF7BCFE2046FFF7E3FEFEF7CB
:102F200021FD48B10127A5E7FFF7A4FC2046FFF7E4
:102F3000D9FEFEF717FDF5E74FF08053CAF80030D1
:102F4000BFF34F8FBFF36F8FECE72046FFF7CAFE4A
:102F5000FEF708FDB4E700BF928B010804ED00E026
:102F600010B5024600210120FFF732FF044638B1B8
:102F7000002383600360C3601A461946FFF74CFFC5
:102F8000204610BD2DE9F843894690461F46044669
:102F900020B940F2C331274800F070FBB9F1000FAF
:102FA00006D1236C23B14FF47171224800F066FB07
:102FB000022F07D1E36B012B04D040F2C5311D482D
:102FC00000F05CFBFFF710FDEFF311864FF05003AC
:102FD00083F31188BFF36F8FBFF34F8FA26BE36B47
:102FE0009A4201D3022F22D194F845503A466DB24D
:102FF00049462046FFF72FFE6B1C13D1636A0BB9BD
:1030000001200BE004F12400FEF77CFE0028F7D03D
:10301000B8F1000FF4D00120C8F8000086F3118841
:10302000BDE8F88301356DB284F84550E8E700202B
:10303000F4E700BF928B010870B50D46044620B935
:103040004FF48C61204800F019FB236C23B140F24F
:1030500064411D4800F012FB236833B9A36823B113
:1030600040F26941184800F009FBFFF7BDFCEFF39F
:1030700011864FF0500383F31188BFF36F8FBFF3B6
:103080004F8FA26BE36B93421CD994F84530013209
:103090005BB2A2635A1C10D1636A0BB9012009E02C
:1030A00004F12400FEF72EFE0028F7D0002DF5D005
:1030B0000120286086F3118870BD01335BB284F86B
:1030C0004530EBE70020F5E7928B01082DE9F0434E
:1030D00085B00F460192044620B94FF4A0614248E2
:1030E00000F0CCFA37B9236C23B140F204513E48CA
:1030F00000F0C4FAFEF7E2FE30B9019B23B140F2C2
:103100000951394800F0BAFA0026B046DFF8DC90E1
:10311000FFF790FBA56BD5B139462046013DFFF77F
:10312000CDFDA563236963B104F11000FEF7EAFD4C
:1031300038B14FF080522D4B1A60BFF34F8FBFF361
:103140006F8FFFF797FB012005B0BDE8F083019D6D
:103150001DB9FFF78FFB0020F6E716B902A8FEF7AE
:1031600011FEFFF787FBFEF757FBFFF763FB94F8B1
:103170004430FF2B08BF84F8448094F84530FF2B7F
:1031800008BF84F84580FFF775FB01A902A8FEF788
:1031900005FEF0B92046FFF753FDA0B1019904F1F7
:1031A0002400FEF775FD2046FFF79CFDFEF7DAFBD5
:1031B00038B94FF08053C9F80030BFF34F8FBFF3D9
:1031C0006F8F0126A4E72046FFF78CFDFEF7CAFBB0
:1031D000F7E72046FFF786FDFEF7C4FB2046FFF722
:1031E0002FFD0028EDD0B6E7928B010804ED00E03A
:1031F0002DE9FF410446019120B940F29151524816
:1032000000F03CFA236C23B140F295514E4800F097
:1032100035FAFEF753FE30B9019B23B140F29A51C3
:10322000494800F02BFA00252F462E46DFF81C8176
:10323000FFF700FBA36BE3B1013BA363236813B962
:10324000FEF73EFFA060236963B104F11000FEF7B2
:1032500059FD38B14FF080523C4B1A60BFF34F8F8D
:10326000BFF36F8FFFF706FB0125284604B0BDE8CA
:10327000F081019B4BB925B140F2E151324800F099
:10328000FDF9FFF7F7FA0025EFE717B902A8FEF7F7
:1032900079FDFFF7EFFAFEF7BFFAFFF7CBFA94F8E4
:1032A0004430FF2B08BF84F8446094F84530FF2B6E
:1032B00008BF84F84560FFF7DDFA01A902A8FEF710
:1032C0006DFD40BB2046FFF7BBFCF0B123683BB966
:1032D000FFF7B0FAA068FEF701FE0546FFF7CAFA4D
:1032E000019904F12400FEF7D3FC2046FFF7FAFC15
:1032F000FEF738FB38B94FF08053C8F80030BFF301
:103300004F8FBFF36F8F012792E72046FFF7EAFC4C
:10331000FEF728FBF7E72046FFF7E4FCFEF722FB69
:103320002046FFF78DFC0028EDD0002D9DD0FFF743
:1033300081FA616A19B1236B1968C1F10501A068AE
:10334000FEF76AFE9DE700BF928B010804ED00E0E6
:103350002DE9F04385B00F460192044620B94FF4A1
:10336000CD61424800F08AF937B9236C23B140F2AD
:103370006C613E4800F082F9FEF7A0FD30B9019B78
:1033800023B140F27161394800F078F90026B04667
:10339000DFF8DC90FFF74EFAA36BD3B13946204635
:1033A000E568FFF78BFC636AE56063B104F1240014
:1033B000FEF7A8FC38B14FF080522D4B1A60BFF3D6
:1033C0004F8FBFF36F8FFFF755FA012005B0BDE8AF
:1033D000F083019D1DB9FFF74DFA0020F6E716B9FD
:1033E00002A8FEF7CFFCFFF745FAFEF715FAFFF744
:1033F00021FA94F84430FF2B08BF84F8448094F8F5
:103400004530FF2B08BF84F84580FFF733FA01A948
:1034100002A8FEF7C3FCF0B92046FFF711FCA0B1EB
:10342000019904F12400FEF733FC2046FFF75AFC13
:10343000FEF798FA38B94FF08053C9F80030BFF35F
:103440004F8FBFF36F8F0126A4E72046FFF74AFC9A
:10345000FEF788FAF7E72046FFF744FCFEF782FA0A
:103460002046FFF7EDFB0028EDD0B6E7928B010870
:1034700004ED00E02DE9F84389469046054620B961
:1034800040F2FB61204800F0F9F8B9F1000F06D1D5
:103490002B6C23B140F2FC611B4800F0EFF8FFF702
:1034A000A3FAEFF311874FF0500383F31188BFF3B2
:1034B0006F8FBFF34F8FAC6B1CB395F844604946D8
:1034C00076B22846FFF7FAFB013C731CAC6313D1BC
:1034D0002B690BB901200BE005F11000FEF712FC7F
:1034E0000028F7D0B8F1000FF4D00120C8F8000090
:1034F00087F31188BDE8F883013676B285F8446019
:10350000E8E72046F4E700BF928B010810B50446B7
:1035100020B940F28A71054800F0B0F8FFF78AF947
:10352000A46BFFF7A7F9204610BD00BF928B0108DE
:1035300038B5054620B940F2A471064800F09EF85F
:10354000FFF778F9A86BEC6B241AFFF793F9204684
:1035500038BD00BF928B0108002330B5064A52F8EF
:10356000335002EBC3041DB942F83310606030BD24
:103570000133052BF3D1FAE7784E0020002310B574
:10358000074A02EBC3014C68844204D1002042F890
:103590003300486010BD0133052BF2D1FAE700BFBC
:1035A000784E002010B5044620B94FF4F861054864
:1035B00000F064F82046FFF7E1FF2046BDE8104028
:1035C000FFF704BB928B010870B504460D46164602
:1035D000FFF730F994F84430FF2B04BF002384F840
:1035E000443094F84530FF2B04BF002384F8453065
:1035F000FFF740F9A36B2BB93246294604F12400AA
:10360000FEF760FB2046BDE87040FFF76BBB000093
:10361000014B1860704700BF8442002073B5124C04
:10362000064623780D46114A1BB913780BB172B6C2
:10363000FEE70123002113700D48642212F080F888
:103640002B4600960B4A6421094812F0E7FE0A4B0C
:103650001B6803B198470125054E304606F0B8FABD
:1036600072B62570F9E700BF64420020F8410020DF
:10367000FA410020F18B01088442002073B5134CFD
:10368000064623780D46124A1BB913780BB172B661
:10369000FEE70123002113700E48642212F050F857
:1036A0002B4600960C4A64210A4812F0B7FE0B4BD9
:1036B0001B6803B19847074806F08AFA084806F0E5
:1036C00087FA72B601232370FEE700BF654200202F
:1036D000F9410020FA410020198C010884420020A1
:1036E000288C01080368DFF888C080B5CCF800306A
:1036F000164F4368164E3B608368164D3360C368AF
:1037000015492B600369154A0B604369144C13601B
:103710008369C0692360134B1860DCF800003868C7
:1037200030682868096810481268002122686422FD
:103730001B6812F005F823680C4A64210A4812F04D
:103740006DFE094806F044FAFEE700BF744200200F
:103750007C4200208042002078420020604200200D
:10376000684200206C420020FA410020DE8B0108F4
:1037700070420020074B1B6803B198471EF0040FEE
:103780000CBFEFF30880EFF309808169004A10470E
:10379000E53600088442002010B1012105F000BB8D
:1037A000704708B106F05CBA70478068704740689F
:1037B00070474368012B08D1D0E90432934204D00A
:1037C0001878003018BF01207047002070474B6800
:1037D00070B5042B04460E464FF0000304D0C0E938
:1037E00000338360204670BDD1E90425AD1AC0E9DD
:1037F000003383602846FFF7D4FFC4E90000054486
:10380000A560D6E90453024629468B4205D00AB189
:103810000E78167001310132F7E75B1B18446060C7
:10382000E0E742680346022A06D1D3E904031B1AE3
:10383000032B01D906F08BBA002070474368032B95
:1038400006D1D0E904329A4208BF002318467047D7
:103850000023FBE7037870B581680446B3B1284ABA
:10386000284806F071F96368022B12D12046FFF751
:10387000D8FF0146244806F067F9E1680B78002B71
:103880003CD02248BDE8704006F05EB9204A21488D
:10389000E7E7032B05D12046FFF7D0FF01461E487E
:1038A000E9E7042B0ED100251C4ED4E90431C91AD6
:1038B0008D4205D2595D304606F046F90135F4E7F0
:1038C0001748D8E7012B08D12046FFF772FF1549AA
:1038D000154B002818BF1946E1E700250F4ED4E923
:1038E00004239B1A9D4205D2515D304606F02CF907
:1038F0000135F4E70D4806F027F9BEE70C48C1E7AB
:10390000E7810108AC8C0108C08C0108E58C010836
:10391000FDA30108B68C0108CA8C01088FC10108FB
:10392000CD8C0108A68C0108A18C0108D38C01085C
:10393000FCA30108B1F5705F2DE9F84304460F467A
:1039400002D9174805F000FA066883689B1B994264
:1039500019D9D0F804900846FFF723FF054603461F
:10396000A9EB0608B14505D00BB132781A700136C3
:103970000133F7E72068FFF70FFF05EB0803256029
:103980003D446360A56025683DB92846C4E90155FA
:10399000FFF702FF2846BDE8F8830120FBE700BFE0
:1039A000448C01082DE9F0410368561A904682685C
:1039B0000446D21A96420D4615D93046FFF7F1FE5D
:1039C00007460346A84505D02A7803B11A70013589
:1039D0000133F7E720683E44FFF7DEFEC4E90166E5
:1039E0002760BDE8F0814768481EFF1ABE420ED826
:1039F0001A469D19A91A002904DD10F8011F02F8C2
:103A0000011BF7E7002EA8BF9B196360E9E73D445F
:103A10001F44FA1A002A04DD10F8012F03F8012BC5
:103A2000F7E763682E461846B04505D0327800B1F6
:103A3000027001360130F7E7A8EB05084344E4E7DC
:103A400008B509C81B1AC3F57050884202D2104647
:103A500005F07AF9994238BF1946581805D2B0F5E1
:103A6000705F28BF4FF4705008BD4FF47050FBE7F3
:103A70002DE9F8430C46591C204615461F46FFF712
:103A800059FF064680B14FF00003EA192946204647
:103A9000FFF788FFD4E901539D4208D00DB1002300
:103AA0002B706368013363603046BDE8F8831B4ABE
:103AB00001212046FFF7C4FF23680746A5EB030951
:103AC000FFF76FFE10EB090F1CBF002300F8093051
:103AD000236880461A460146954205D009B1107800
:103AE000087001320131F7E7D31A0133434410461D
:103AF00019466568954207D019B192F800C081F85F
:103B000000C001320131F5E72D1A1D4420684744F9
:103B1000FFF742FEC4E90085A760C5E75F8C010896
:103B20001346426810B5032A06D1BDE810400A4684
:103B300000F11001FFF79CBF8168024806F004F80D
:103B4000002010BDEC8C01082DE9F04105460E4621
:103B500061B1D0E90132D21A8A4209D300221E444F
:103B600003B11A700133B342FAD16B60BDE8F08142
:103B7000114AFFF765FF8046FFF713FED5E90014F1
:103B800007460A460346944205D00BB110781870D8
:103B900001320133F7E70023641A3C44264404B1A0
:103BA00023700134B442FAD12868FFF7F5FDC5E966
:103BB00000744744AF60D9E7D08D0108D0E90032E6
:103BC000D21A914210B503D9891AFFF7BDFF10BD73
:103BD0003CBF5B184360FAE770B50C4601212046F4
:103BE0001646FFF7A7FE054628B101212046FFF73C
:103BF000E5FF23681E70284670BD0000426808B5C6
:103C0000012A06D1BDE808400A4600F11001FFF77D
:103C1000E3BF8168024805F097FF002008BD00BFA0
:103C20005F8D010810B50C1A134605D001462246D7
:103C3000184611F06CFD0346181910BD2DE9F0412E
:103C40000446A2EB01081646A368226808469B1AA0
:103C500098450F4615D94046FFF7A3FD0546034694
:103C6000BE4205D00BB13A781A7001370133F7E73D
:103C70002068FFF791FD25604544C4E90155BDE882
:103C8000F0816568AD1AA84504D83146FFF7CAFF30
:103C90006060F4E70D442946FFF7C4FF63682946D6
:103CA0001A468E4205D00AB10878107001310132EF
:103CB000F7E7751B1D446560E1E7000070B5D0E9CA
:103CC000043100F110060446C91A3046FFF732FEEF
:103CD000054640B1D4E90712914206D1A1680648D1
:103CE00005F032FF0025284670BD4FF00003304636
:103CF000FFF7A4FFF7E700BF798C01082DE9F04139
:103D00008368A2EB01081746026804469B1A98458F
:103D10000E4615D94046FFF744FD05460346B74217
:103D200005D0327803B11A7001360133F7E7206805
:103D3000FFF732FD25604544C4E90155BDE8F08137
:103D40004568AD1AA84505D839463046FFF76AFFE1
:103D50006060F3E70D4429463046FFF763FF636870
:103D600029461A468F4205D0087802B110700131F9
:103D70000132F7E77D1B1D446560DFE737B50D466F
:103D800001A8114605F0F7FF04212846FFF7D2FDF0
:103D9000044630B14FF0000302AA01A92846FFF7FC
:103DA000ADFF204603B030BDFFF7E8BF426808B55D
:103DB000022A06D1BDE808400A4600F11001FFF7CB
:103DC000DDBF8168024805F0BFFE002008BD00BFCE
:103DD000978D0108FFF7EABFF7B50E460446104677
:103DE000154612F081FB00237268C4E90033013AE2
:103DF000A360032A12D8DFE802F0022B3B412D49D1
:103E0000284612F05FFB20B12B49284612F05AFBDE
:103E100038B9012221463046FFF7DEFE204603B0C6
:103E2000F0BD2649284612F04DFB20B12449284612
:103E300012F048FB08B90022ECE7002202A941F881
:103E4000042D284612F07CFC021C18BF0122E1E779
:103E500002A941F8043D0022284612F071FC019BA2
:103E60000246AB42DAD021463046FFF787FFD5E75E
:103E70002A462146304600F025F8CFE710F001062B
:103E8000CCD1470839462046FFF754FD0028C5D05D
:103E900039462046FFF792FEB742BFD0022105EB1C
:103EA000460005F03CFF0028B8DB23689855013632
:103EB000F2E700BFA18C0108548C0108A68C010810
:103EC000598C0108F0B5436885B0032B0D461646A2
:103ED00015D0014601A8FFF77FFFDDE901129142ED
:103EE0000BD04FF000032846FFF7A8FE01240198ED
:103EF000FFF752FC204605B0F0BD0024F7E710465E
:103F000012F0F2FA471C39462846FFF713FD044623
:103F10000028EFD04FF00003F21931462846FFF792
:103F200041FDE7E70A4600F11001FFF7CBBFF8B506
:103F30000D461946284616461F46FFF7FBFC044669
:103F400030B14FF00003F21931462846FFF7D6FE94
:103F50002046F8BD1346426810B5042A06D1BDE8D4
:103F600010400A4600F11001FFF7E1BF81680248E6
:103F700005F0EAFD002010BD268D010810B10C21CE
:103F800004F00EBF704710B1012104F009BF704763
:103F900030B513460D460446AC4207D01BB194E839
:103FA000070083E807000C330C34F5E7184630BDF2
:103FB00010B5044638B1FCF7D5F82046BDE81040EE
:103FC000282104F0EDBE10BD70B50446006AFFF76D
:103FD000D5FFD4E90556AE4204D02846FCF7C2F816
:103FE0002835F8E7606908B1FFF7E2FF204670BDA9
:103FF000F8B5054600242826074FD5E905031B1A06
:10400000DB107B439C4205D206FB0400FFF756FE03
:104010000134F2E7F8BD00BFCDCCCCCCF8B50446F6
:10402000224805F091FD224805F08EFDD4E90531C6
:10403000994218D0C91A1F4EC91071431E4805F085
:1040400083FD00252827D4E905031B1ADB107343E1
:104050009D4205D207FB0500FFF7FCFB0135F2E7A7
:10406000164805F071FDD4E90831154EC91A8910BA
:104070007143144805F068FD00250C27D4E90803B6
:104080001B1A9B1073439D4205D207FB050000F0ED
:10409000D5FE0135F2E70C4805F056FD0B4805F05A
:1040A00053FDBDE8F8400A4805F04EBDB88E010842
:1040B00078A20108CDCCCCCCC28E0108D48E0108E8
:1040C000ABAAAAAA0D8F0108FCA301081D8F010845
:1040D000708301082DE9F043002487B00646684646
:1040E000CDE90044029404F00FFB684604F0A4FB01
:1040F0004FF028082F4F304DD6E905239B1ADB10CF
:104100007B439C424ED208FB04F302EB0309D35CD1
:10411000002B43D14846FFF748FB0146684604F0B0
:104120007DFB4846FFF743FB042837D8DFE800F063
:104130003803101A24004846FFF73BFB0146684647
:1041400004F022FB50BBC1212846FFF797FA25E077
:104150004846FFF766FB0146684604F0FBFAE8B9FB
:10416000C521F1E74846FFF769FB0146684604F0C0
:1041700055FB98B9C921E7E7494603A8FFF727FB94
:10418000DDE903126846521A04F020FB18B9CE216B
:104190002846FFF773FA0398FFF7F5FE0134ABE703
:1041A000D221D1E7684604F06FFB029807B0BDE862
:1041B000F08300BFCDCCCCCC058E01082DE9F043B7
:1041C00005460E4600244FF028081A4F8DB0D5E959
:1041D00005239B1ADB107B439C4224D208FB042955
:1041E00031461822684612F099F94846FFF7DDFA81
:1041F000182201460DEB020012F090F9684605F016
:10420000DFFD684605F0EEFD06A805F0D9FD06A81D
:1042100005F0E8FD182268460DEB020112F06CF97A
:1042200018B10134D3E74FF0000948460DB0BDE89E
:10423000F08300BFCDCCCCCC2DE9F04F06460F4625
:1042400000244FF00C09DFF86C808DB0D6E90853DC
:104250005B1B9B1008FB03F39C4224D218223946B7
:10426000684612F05BF9182209FB04FB0DEB020013
:1042700055F80B1012F052F9684605F0A1FD68469A
:1042800005F0B0FD06A805F09BFD06A805F0AAFD07
:10429000182268460DEB020105EB0B0A12F02CF90F
:1042A00018B10134D2E74FF0000A50460DB0BDE816
:1042B000F08F00BFABAAAAAA10B51446FFF77EFF85
:1042C00020B12146BDE81040FFF72CBE10BD000014
:1042D000F8B50C46064640F201120021224811F0C2
:1042E0002FFA4FF4807221461F4811F005FA1E493B
:1042F0001E4805F029FC1E491B4812F03FF91C49D5
:104300000546002012F03AF9294607463046FFF7E5
:1043100055FFA0B929463046FFF78EFF044600B38B
:104320000168144805F010FCA3683846984701243A
:104330002046F8BD3946104805F006FCF8E73A4635
:1043400029463046FFF7B8FF04460028F2D00B4854
:1043500005F0FAFB0A4805F0F7FB3046FFF75EFE72
:10436000E6E729460748E7E70C44002002930108E6
:10437000368F0108388F0108618F01084D8F0108C1
:10438000FCA301087A8F010810B54FF4807206492A
:10439000044604F0FDFA002805DD2046BDE8104083
:1043A0000149FFF795BF10BD0C43002038B51446F6
:1043B0001D46FFF703FF28B12A462146BDE83840D5
:1043C000FFF7AEBB38BD10B51446FFF7F7FE20B1BE
:1043D0002146BDE81040FFF7E9BC10BD10B51446FA
:1043E000FFF7ECFE10B12146FFF708FC002010BDDE
:1043F00038B514461D46FFF7E1FE28B12A4621468E
:10440000BDE83840FFF7A6BD38BD00002DE9F047F4
:1044100000248CB0074603A8CDE90344059404F0BA
:1044200073F9214603A8009404F08AFA0146002893
:1044300034D0214603A804F00CFA40F2E7330446D6
:10444000009300263546DFF8F890009BB34273D9FD
:10445000214603A804F02FFA824600286CD11823C5
:1044600021460DEB030203A804F0B6F904442146EB
:1044700003A804F02EFA8046B0B10CAA214642F8F7
:1044800028AD03A804F046F9029A044406A9384668
:10449000FFF799FF00B101350136D6E76A4603A858
:1044A00004F0DEF90446CCE7214603A804F05BFAE9
:1044B00070B10CAA02F8288D214603A804F054F923
:1044C0009DF80820044406A93846FFF787FFE1E776
:1044D000214603A804F018FA804668B102AB01AA8D
:1044E000214603A804F089F9DDE90123044406A963
:1044F0003846FFF75BFFCDE7214603A804F0F6F945
:1045000090B10CAB43F8288D01AA214603A8CDF841
:10451000048004F04AF99DF808300444019A06A981
:104520003846FFF765FFB5E7039B4846195D01F084
:10453000E00105F009FBAFE728460CB0BDE8F087C5
:10454000478E010808B5FFF739FE18B1BDE80840ED
:10455000FFF72FB908BD10B5044608461146FFF70E
:104560002DFE014620B9C4E90000A060204610BD20
:104570002046FFF72CF9F9E708B5FFF71FFE18B141
:10458000BDE80840FFF74DB908BD08B5FFF716FEB6
:1045900018B1BDE80840FFF751B908BD002370B558
:1045A000D1E90025AD1A0446C0E9003383600E4608
:1045B000284601D005F054FBC4E900000544A5607D
:1045C000D6E90053024629468B4205D00AB10E783F
:1045D000167001310132F7E75B1B1844606020461A
:1045E00070BD38B504460D460B78103000F8103C0D
:1045F0004B68103140F80C3C51F8083C40F8083C3E
:1046000051F8043C40F8043CFFF7C8FF05F11C01D9
:1046100004F11C00FFF7C2FF204638BD2DE9F84326
:10462000D0E90054641B9146A2101F4C0646544327
:10463000B4F5705F0F4602D11C4804F085FB002CD6
:1046400014BF22460122A418A1EB050526D2B4F519
:10465000705F23D82CB30C20604305F001FB80462B
:1046600018EB05031CBF99E8070083E807004246E2
:1046700039463068FFF78CFC716800F10C0238464F
:10468000FFF786FC05463068FFF778FC0C2303FB38
:104690000484C6E90085B460BDE8F8834FF4705423
:1046A000D9E7A046DCE700BFABAAAAAA5F8C010845
:1046B0002DE9F043054685B008460C4617461E46D0
:1046C00011F012FF172803D981212D48FEF7D6FFDC
:1046D000CDE90147D5E9087803962A4AA8EB0706F1
:1046E000B41054430134B4F5705F02D9264804F085
:1046F0002BFBAB6ADB1B9B1053439C4215D94FF03D
:104700000C0909FB04F91CB1484605F0A9FA044656
:10471000224641463846FFF73BFC286AFFF72EFC4D
:1047200026442C624C446E62AC62AA6AD5E9080346
:1047300014491B1A9B10121A4B4392104A4301331F
:10474000934206D9114805F0FFF98B210C48FEF77A
:1047500095FFD5E9093293420AD023B104AA12E9A0
:10476000070083E807000C336B6205B0BDE8F083F7
:1047700001AA194605F12000FFF750FFF5E700BF39
:10478000058E0108ABAAAAAA448C0108EA8D01088B
:10479000002310B50446C0E90533C0E90733C0E97A
:1047A0000933064B8021036104F0EBF82046044BEB
:1047B000044A0549FFF77CFF204610BD8C420020CB
:1047C000054800089D8F0108A98F010810B5084C05
:1047D0002368DB0709D40748FFF7DAFF0123064AFD
:1047E0000649044823600FF048FB024810BD00BF93
:1047F000884200201045002000000020C93F00082A
:10480000FFF7E4BF08B5FFF7E1FFBDE80840FFF799
:1048100005BC0022C0E90022826010B50C6804606B
:104820000A6042684C6844604A6082688C688460B0
:104830008A6010BD70B50E4605461446B54217D0C5
:104840009CB12B7805F1100123706B6804F1100006
:104850006360AB68A360EB68E360FFF7DAFF05F124
:104860001C0104F11C00FFF7D4FF28342835E5E7CC
:10487000204670BD2DE9F843D0E90064A41BE31085
:10488000234C05465C43B4F5705F0F46914602D158
:10489000204804F059FA002C14BF23460123E418E1
:1048A000A1EB060623D2B4F5705F20D814B32820FC
:1048B000604305F0D5F9804618EB060002D0494662
:1048C000FFF78FFE394642462868FFF7B3FF696855
:1048D00000F128023846FFF7ADFFD5E90069074629
:1048E000B14509D03046FBF73DFC2836F8E74FF4D8
:1048F0007054DCE7A046DFE7286808B1FFF758FBF3
:10490000282303FB0484C5E90087AC60BDE8F88375
:10491000CDCCCCCC5F8C01082DE9F047D0E9055710
:1049200004460E46DFF80C818AB0AF421BD0294600
:104930006846FFF756FE6846FEF737FF8146304669
:10494000FEF733FF0146484605F07BFA30B13046AA
:10495000FEF72BFF0146404605F0F6F86846FBF7E8
:1049600001FC2835E1E7D4E905892E4AA9EB0807BF
:10497000FD1055430135B5F5705F02D92A4804F0A2
:10498000E3F9E369A3EB0803DB1053439D4220D90D
:104990004FF0280A0AFB05FA1DB1504605F060F9F0
:1049A0000546494640462A46FFF744FFD4E90589B3
:1049B000C14505D04046FBF7D5FB08F12808F7E7CD
:1049C000606908B1FFF7F4FA2F4465615544A761A7
:1049D000E561E269D4E9050312491B1ADB10121ADA
:1049E0004B43D2104A430133934206D90F4805F096
:1049F000ABF876210E48FEF741FED4E90603984253
:104A000009D010B13146FFF7ECFDA3692833A3614B
:104A10000AB0BDE8F0870146324604F11400FFF702
:104A200029FFF5E7CDCCCCCC448C0108998E010848
:104A3000058E0108678E010808B5084805F084F85E
:104A4000FFF7C4FEFFF7D4FA054805F07DF8FFF73D
:104A5000BDFEBDE80840FFF7E1BA00BF8391010841
:104A60009B910108F7B505464FF4007005F0F8F882
:104A7000044618B928211848FEF700FE4FF40072CA
:104A80000021204610F05CFE4FF4007221462846BB
:104A9000FFF720FB114D124E02AF47F8040D0146FF
:104AA000104805F051F87368294604226868984751
:104AB00004226868736839461044984768687368C8
:104AC000019A214608309847074805F03DF82046EE
:104AD00005F0B0F803B0F0BD449001084C4500204B
:104AE0004045002094900108AF9001082DE9F74F50
:104AF000FFF76CFE2E4F06462E4805F025F8B84607
:104B0000DFF8CC90DFF8CCA0FCF78EFE2A4D3860A1
:104B10002B68AB46294C002B37D003F56A43603332
:104B2000984232D223782BB9254805F00DF8254854
:104B300005F00AF8012330462370FFF725FC41F207
:104B4000883352464FF0FF310020FDF7C5FA01903F
:104B5000FCF76AFE019BC8F8000023B9237813B163
:104B60003046FFF711FCDAF80030DA0744BFD8F816
:104B700000202A609B07C7D50023CBF80030D9F866
:104B80000830002BBED09847BCE7237863B130468D
:104B9000FFF768FF0C4804F0D7FF0C4804F0D4FF7F
:104BA000D9F8083003B19847002323702B60C6E77B
:104BB00060450020F39001085C450020544500202A
:104BC000089101082B9101084E910108609101089C
:104BD000404500205845002010B5FFF7F7FD04467A
:104BE000FFF740FF2046FFF719FABDE810400348E1
:104BF0000023012202210068FDF7B2BA3C450020E3
:104C000010B5FFF7E3FD0446FFF72CFF2046BDE893
:104C10001040FFF703BA00002DE9F3410024154DC1
:104C2000154E884602A941F8084D0422074633680C
:104C3000686898472A6800998A4204D00F4804F0AF
:104C400083FF204613E0042268680DEB0201104444
:104C50003368984701990A4804F076FF019A424563
:104C6000EFD868683368394608309847019802B031
:104C7000BDE8F0814C45002040450020BE90010871
:104C8000D990010882B0F0B587B003AC84E8070082
:104C90000D93049B1BB9F1215648FEF7EFFC039BD3
:104CA0001BB9F2215348FEF7E9FC94E80700524B88
:104CB00083E80700514B0DAA92E8030083E8030044
:104CC000FFF784FD06464E4B4E4A4F49FFF7F0FC76
:104CD0004E4B4F4A4F493046FFF7EAFC4E4B4F4A86
:104CE0004F493046FFF7E4FC4FF4007004F0B8FF82
:104CF000044670B14FF40072002110F021FD4FF412
:104D000000712046FFF788FF024660B9204604F094
:104D100091FF444804F018FF3046FFF769F9424814
:104D200004F012FF06E021463046FFF76FFB2046F5
:104D300004F080FF4FF4007004F092FF05464FF43A
:104D40000072002110F0FCFC4FF400712846FFF7C0
:104D500063FF0746F8B904F06DFF284604F06AFFC8
:104D6000324804F0F1FEFFF731FDFFF77BFE304BD8
:104D7000FA22019301232F4900932F480023FCF7C7
:104D800031FB90BB4FF486711A4807B0BDE8F04084
:104D900002B0FEF773BC4FF4007004F061FF0446EC
:104DA00018B968211348FEF769FC4FF4007200211E
:104DB000204610F0C5FC4FF4007221463046FFF744
:104DC00089F908B92046C6E78742FBD10023E15C98
:104DD000EA5C9142F6D101339F42F8D1204604F0BB
:104DE00029FF284604F026FFC1E707B0BDE8F040E0
:104DF00002B0704744900108404500204C45002017
:104E0000014C0008AD8F0108B98F0108394A00082C
:104E1000BE8F0108D98F0108D94B0008E18F010826
:104E2000F98F0108FE8F01089B910108229001086B
:104E30003C45002039900108ED4A000810B50446B1
:104E40000168074804F080FE616831B10B7823B136
:104E50000448BDE8104004F077BE0348F9E700BFFE
:104E6000B3910108E58C0108FCA301081FB50B46AE
:104E7000546801780294127801925A68009242684C
:104E80001B68024804F060FE04B010BDB891010830
:104E900010B50446C06908B104F0CCFE206908B121
:104EA00004F0C8FE606808B104F0C4FE204610BDDE
:104EB00010B504460068FEF775FB204610BD0000E3
:104EC000FE2307B502A901F8043D054B186800232D
:104ED00000681A46FEF756F803B05DF804FB00BF01
:104EE00070450020CA210148FEF7C8BBD6910108D1
:104EF000D0B51F467423C0E9003100230446836007
:104F00000820164603F03EFFC0E90067A060204677
:104F1000D0BD0000036837B5632B05460C4601D0B1
:104F2000FFF7E0FF002302AA42F8043DA9682046EB
:104F300004F0F0FB019A3AB12146044804F004FE63
:104F400038210348FEF79AFB03B030BD20920108D8
:104F50004D92010870B563230025C0E90031044675
:104F600085601A20164603F00DFF1A22294610F01C
:104F7000E7FB3146A0602046FFF7CCFF204670BD1E
:104F800081647047C16470472DE9F843D0E901732B
:104F9000884600254FF00C09DB1B0A4E9B105E4330
:104FA000ECB2B4420BD209FB04724146506811F0D6
:104FB00089FA01350028F3D12046BDE8F8834FF087
:104FC000FF30FAE7ABAAAAAA2DE9F843D0E90473A7
:104FD000884600254FF00C09DB1B0A4E9B105E43F0
:104FE000ECB2B4420BD209FB04724146506811F096
:104FF00069FA01350028F3D12046BDE8F8834FF067
:10500000FF30FAE7ABAAAAAA2DE9F0410E4649689B
:105010000446FFF7B9FFC0B2FF2807D071682B48DC
:1050200004F092FD7C212A48FEF728FBD4E90123F5
:10503000284F9B1A9B107B437E2B03D97F2124484A
:10504000FEF71CFBD4E901120C25E068531A9B10F3
:10505000121A7B4392107A430133934205FB03F803
:105060000ED84144A160D4E9013496E80700E31A60
:1050700004E9070017489B1058430138BDE8F08148
:10508000404604F0EDFD054618B969211248FEF7C7
:10509000F5FAD4E901C30027A3EB0C039A100D4BDA
:1050A0005343002B09DD05EB070E0CEB070207CA83
:1050B000013B8EE807000C37F3E7604604F0BAFDC9
:1050C00065604544C4E90255CDE700BF88970108F3
:1050D0004D920108ABAAAAAA7B8601081FB56E23D0
:1050E000CDE90131002301A90393FFF78DFF05B03E
:1050F0005DF804FBFF2270B5002380F828204FF0F4
:1051000000424FF0FF31C0E90D23C2636FF07F42D0
:10511000C0E910120522254DC0E914232A6804466F
:1051200012F00102C0E90033C0E90233C0E90433E0
:10513000C0E90633C0E908330363C0E9123312D172
:1051400001211B4E08463260FDF742FE306018B95F
:1051500011211848FEF792FA0123174A17491448FB
:105160002B600EF08AFE164B1A680AB9104A1A60B4
:1051700014492046FFF7B2FF134B1449187020461C
:10518000FFF7ACFF124B134918702046FFF7A6FF3C
:10519000114B124918702046FFF7A0FFFE22104B5A
:1051A0001870104B20461A7070BD00BF6C4500206F
:1051B000E04500209A98010800000020B14E000848
:1051C00070450020DC98010878450020E49801082B
:1051D00076450020EC98010874450020F1980108FC
:1051E000774500207545002010B5084C2368DB0783
:1051F00009D40748FFF77EFF0123064A0649044801
:1052000023600EF03AFE024810BD00BF6845002042
:105210008845002000000020914E00082DE9F04153
:105220000E4649680446FFF7CFFEC0B2FF2807D0FC
:1052300071682B4804F088FC87212A48FEF71EFA83
:10524000D4E90423284F9B1A9B107B437E2B03D960
:105250008A212448FEF712FAD4E904120C25A06929
:10526000531A9B10121A7B4392107A4301339342D4
:1052700005FB03F80ED841446161D4E9043496E893
:105280000700E31A04E9070017489B105843013848
:10529000BDE8F081404604F0E3FC054618B96921F9
:1052A0001248FEF7EBF9D4E904C30027A3EB0C0383
:1052B0009A100D4B5343002B09DD05EB070E0CEB49
:1052C000070207CA013B8EE807000C37F3E7604688
:1052D00004F0B0FC25614544C4E90555CDE700BFA5
:1052E000A89701084D920108ABAAAAAA7B860108DB
:1052F00038B5D0E901239B1A074A9B105343CDB21E
:105300009D42044603D3A6210448FEF7B7F90C20BA
:10531000636800FB053038BDABAAAAAA4D9201080C
:1053200038B5CCB2114905460B6813F0010307D11B
:105330000F4A70201372012310600E480B605060FA
:10534000FF2C10D0D5E904239B1A0B4A9B10534322
:105350009C4203D3B2210948FEF790F90C23286937
:1053600003FB040038BD0248FCE700BF6445002091
:105370007C450020D5920108ABAAAAAA4D9201084B
:1053800010B5D0E90730C9B2D2B2834209D01C7837
:105390008C4204D15C78944201D1987810BD0333DB
:1053A000F3E74FF0FF30F9E72DE9F041D0E90423AE
:1053B0009B1A514A9B1053430D4609780446994263
:1053C00003D393214D48FEF759F9D4E901239B1AE1
:1053D000494A9B1053436978994203D39421474823
:1053E000FEF74CF9D4E904239B1A434A9B1053431C
:1053F000A978994205D3FE2903D095213F48FEF7AD
:105400003DF96A7829782046FFF7BAFFC3B2FF2B2F
:1054100006462CD03A4804F097FB29782046FFF73F
:105420007FFF697807462046FFF762FF31468046D6
:105430002046FFF775FF414602463846FFF716FD46
:1054400029782046FFF76CFF697806462046FFF76B
:105450004FFFA97807462046FFF762FF394602460C
:105460003046FFF703FD9C212448FEF707F9D4E9F5
:105470000723214F9B1A7B437E2B03D99F211F4873
:10548000FEF7FCF8D4E90762616A931B7B43521A6A
:1054900057430133BB4203EB43080AD84644266214
:1054A0002A88236A23F8032CAA7803F8012CBDE884
:1054B000F081404604F0D4FB064618B96921114832
:1054C000FEF7DCF8D4E90702131A0B4A5A4300230B
:1054D000002A0ADDC118B1F800C0F71826F803C089
:1054E0008978013AB9700333F2E704F0A3FBE6616F
:1054F00046446662D3E700BFABAAAAAA4D92010850
:10550000BA9201087B86010813B5FF24084A02AB52
:10551000106803F8044D0A4600681946FDF7D6FDE9
:10552000012814BF20469DF8040002B010BD00BF42
:105530007045002038B5816800681D46144604F0A7
:1055400032FC0346201845EBE37138BD08682DE9AD
:10555000F04172281F4622D0742812D0632823D12C
:10556000886804F097F9002871F1000304460D469D
:1055700011DA0F4804F0E8FADD210E48FEF77EF854
:1055800009E08B68D3E90045B5F1004F08BF002C56
:1055900001D0A4187D4120462946BDE8F0818868E5
:1055A000BDE8F041FFF7C6BF00244FF00045F2E729
:1055B000DC9301084D9201082DE9F0470F4606469D
:1055C000FFF7AEFE0024DFF85C9042680178FFB27E
:1055D000124804F0B9FAD6E90758454516D02B7899
:1055E000BB4211D169783046FFF782FE0168692914
:1055F0000AD1D0E9012A484604F0A6FADAF80030C8
:1056000003B198470134E4B20335E6E72146044884
:1056100004F09AFA2046BDE8F08700BF0294010822
:105620004B940108299401082DE9F3470746884661
:10563000FFF776FE0025426801781B4804F084FAE3
:10564000FC693E6ADFF86890033403365FFA88F835
:10565000A64220D0234633F8032D9B78ADF80420D2
:105660008DF8063014F8033C984512D19DF80510CA
:105670003846FFF73DFE016869290AD1D0E9012AC1
:10568000484604F061FADAF8043003B1984701356E
:10569000EDB20334DCE72946044804F055FA284605
:1056A00002B0BDE8F08700BF69940108B694010814
:1056B00092940108836C73B504460D46164623B9CF
:1056C0004FF48C710D48FDF7D9FF0D49CDE9006409
:1056D00023462A460B48FBF785FE012801460AD0DF
:1056E000094804F031FA4FF48F71044802B0BDE864
:1056F0007040FDF7C3BF02B070BD00BF4D920108FE
:1057000056970108195F00086197010838B590F8AD
:1057100047300446032B0D4604D940F231110648A8
:10572000FDF7ACFF94F847305A1C84F847201C441E
:1057300084F8425038BD00BF4D92010810B590F872
:105740004730044623B94FF49B710648FDF796FF96
:1057500094F84730013BDBB284F847301C4494F89E
:10576000420010BD4D920108CBB2FE2B37B5054665
:1057700005D1104803B0BDE8304004F0E5B9FFF7AB
:10578000CFFD016804466D290DD1017A2846FFF747
:10579000C7FD436800930368D4E90012064804F08B
:1057A000D3F903B030BD4268044803B0BDE83040CF
:1057B00004F0CAB9469801084E980108BC95010842
:1057C00008B5FFF795FDBDE80840D0E90012014893
:1057D00004F0BAB9C89701082DE9F74F04462A48E2
:1057E00004F0B2F94FF00008284FDFF8B0A0DFF85E
:1057F000B090D4E90431C91A891079435FFA88F668
:10580000B14232D9504604F09FF920463146FFF7A5
:10581000ABFF94F82830DFF88CB0B3420CBF1C48C3
:10582000484604F091F9D4E907531A4AAB4219D01B
:105830002978B14214D110460193009204F084F902
:1058400069782046FFF7BCFF584604F07DF9A97837
:105850002046FFF789FF484604F076F9DDE900238A
:105860000335E3E708F10108C3E7D4E907239B1AEE
:10587000D4E90102121A92107B437A43064803B01E
:10588000BDE8F04F04F060B9D0970108ABAAAAAA0E
:10589000E8970108F497010805980108DF970108C7
:1058A000FCA30108019801082DE9F041042290F8B9
:1058B00047100546104804F047F90024DFF84480FB
:1058C0000E4E95F84730A34210DD2B1993F8421085
:1058D0002846FFF725FD476814B1404604F034F927
:1058E0003946304604F030F90134EAE70448BDE8AF
:1058F000F04104F029B900BF39980108CA8C0108A9
:10590000439801084198010800232DE9F74FC0E9A9
:10591000043388461946D8E907594FF00043044636
:10592000C0E90213C0E90013FF208A469B46D2B2A9
:10593000207401924D45D4E900671FD02B78019A5D
:10594000934219D169784046FFF7D2FCDDE90C2378
:1059500001464046FFF7FAFD594508BF50450BD0B8
:105960005F4508BF564503D0B04271EB070303DA29
:105970006B78C4E9000123740335DBE7B7F1004F0E
:1059800008BF002E08D0DDE90C23B21A67EB030331
:1059900016461F46C4E90267204603B0BDE8F08FF3
:1059A000F8B50D460E4B896806464B434FF47A71A5
:1059B000B3FBF1F1FFF7A8FD0446C7B2B06C036872
:1059C0001B689847C6E90E0104F03EF801460548F9
:1059D00004F0BAF8FF2F0CBF287C2046F8BD00BFAA
:1059E00040420F0097920108F0B5C36C87B004469F
:1059F0000D464BB9224804F0A7F82946204607B0C7
:105A0000BDE8F040FFF7CCBF806C1E4903681B69FE
:105A10009847A06C03689B689847D5E9002303A8C2
:105A200003F0AAFFA06C9DF80C70066800979DF823
:105A30000E209DF80F109DF80D307668B047A06CD1
:105A40000368DB689847E36C9847A06C03689B6821
:105A50009847A06C03681B689847C4E90E0103F0DF
:105A6000F3FF0146084804F06FF800212046FFF7D5
:105A70004BFDC0B2FE2808BF287C07B0F0BD00BFB8
:105A80005C980108C14E00087A9801082DE9F84F8A
:105A90001646D1E90023B3F1004F08BF002A05469E
:105AA0000C4677D0DFF82CA1DFF82C813E4FD4E9EB
:105AB0000201012871F100030DDA50EA010302D05E
:105AC0003A4804F041F83A4804F03EF894F810904F
:105AD0004846BDE8F88FD6B1384604F035F821467F
