:020000040800F2
:1000000000800020BD4C0008B5590008C12600083A
:10001000B7590008B9590008BB5900080000000092
:1000200000000000000000000000000041A60008E1
:10003000BD59000800000000D1A6000815A700085F
:10004000BF590008C1590008C3590008C559000824
:10005000C7590008C9590008495900084F590008F4
:10006000555900085B59000861590008CB59000830
:10007000CD590008CF590008D1590008D3590008BC
:10008000D5590008D7590008D9590008DB5900088C
:10009000DD590008DF590008E159000867590008D8
:1000A000E3590008E5590008E7590008E959000834
:1000B000EB590008ED590008EF590008F159000804
:1000C000F3590008F5590008F7590008F9590008D4
:1000D000FB5900089161000871630008FD59000890
:1000E0008B590008355A0008FF590008015A0008CA
:1000F000035A00080000000000000000000000009B
:1001000000000000000000005FF808F110B5054C89
:10011000237833B9044B13B10448AFF300800123B3
:10012000237010BDE80500200000000078F80108E9
:1001300008B5034B1BB103490348AFF3008008BD6A
:1001400000000000EC05002078F8010810B5044616
:10015000C06910B1012114F007FD206910B101211F
:1001600014F002FD204610BD30B585B013F04AFDF5
:10017000002304468DF80F3013F0F4F8204603F006
:1001800099FF2149204604F0E1FC10B901238DF8C4
:100190000F30002302221D49CDE9003220461C4BBE
:1001A0000DF10F0213F0B0FB0A233221194DCDE9F6
:1001B00000310DF10F02184B1849204613F0A4FB33
:1001C0002B1F0DF10F0216492046009513F0DCFBA2
:1001D000A5F1200300930DF10F02A5F124031149AD
:1001E000204613F0D1FB1049204613F051FB9DF837
:1001F0000F30287733B10D4808F00AF969210C480F
:1002000002F0CCF905B030BD0400002028B301088D
:1002100052000020380000205300002036B30108AF
:1002200045B3010850B301085BB3010868B3010886
:10023000B1E50108F8B50025C0E901120570C0E973
:100240000335C0E90555C0E90755456206990446DE
:10025000164600F11C0712F0EBFB38B9314607488F
:1002600008F0D6F82021064802F098F9069A394697
:10027000204612F0A5FB2046F8BD00BF7BB3010865
:10028000B1E50108F8B50025C0E901120570C0E923
:100290000335C0E90555C0E907554562069904468E
:1002A000164600F11C0712F0DFFA38B9314607484C
:1002B00008F0AEF82021064802F070F9069A394697
:1002C000204612F0BBFA2046F8BD00BF7BB3010800
:1002D000B1E5010870B58CB013F094FC0446384DBC
:1002E00000F0EAFB214601F05FFB204604F080FCB1
:1002F000344B354A0095032102A8FFF79BFF02A962
:10030000204613F025FD02A8FFF720FF00950025E9
:100310002E4B2F4A032102A8FFF78CFF02A920468B
:1003200013F016FD02A8FFF711FF2A4B2A4A0221FB
:10033000009502A8FFF7A6FF02A9204613F008FDCA
:1003400002A8FFF703FF3223244A00930221244B23
:1003500002A8FFF797FF02A9204613F0F9FC02A8B4
:10036000FFF7F4FE01211F4E1F4B02A88DF8085025
:1003700003910496CDE90535CDE90755CDE9095539
:100380000B9512F071F938B93146184808F040F869
:100390002021174802F002F9012209A902A812F04F
:1003A00051F902A9204613F0D3FC02A8FFF7CEFEB4
:1003B00000F082FB0122214601F00AFB0CB070BD67
:1003C0003EB2010808B2010850B301084BB201085F
:1003D00045B301088FB2010828B3010836B30108FC
:1003E000E2B201085BB301080AB301087BB301085C
:1003F000B1E5010810B50020002103F09FFD04467F
:1004000028B9124808F004F8114B187810BD41794A
:10041000104807F0FDFF6179802905D0842911D0AB
:100420000D4807F0F5FF05E00C4B227921681868AC
:1004300012F026FF204604F0D7F80821204614F0D9
:1004400093FBE1E70122064B1A76F3E7C6B50108F4
:1004500080090020CEB50108D7B501082C06002080
:100460005800002038B500F097FF0546084807F00F
:10047000CFFF284601F059F8064917F09FFB17F007
:1004800089FD054C6085284601F014F9208538BDAA
:100490006FB7010800007A4458000020054B30B4C3
:1004A0001C6823689D681346AC460A4601462046F0
:1004B00030BC604724060020054B30B41C6823681C
:1004C0005D681346AC460A460146204630BC60478C
:1004D00024060020034B01461B681A68184612695F
:1004E000104700BF2406002008B5034807F090FF1E
:1004F000BDE8084005F06CBF8EB70108064B1B68CD
:100500005B6833B9054B187A08B15B7A13B100F018
:1005100065BD0120704700BF2C0600205800002058
:1005200070B5144C237E0BB3637EFBB901251248D2
:1005300007F06EFF03F00BFA04F07EFA022104F0DC
:1005400089FA04F079FA012104F084FAD4E900234D
:100550006576C4E9082316F0ECFB064630B9074877
:1005600007F056FF84F82C5025726672044B1878F9
:1005700070BD00BF580000205CB501087DB50108C2
:1005800080090020F7B5194F04463B680E465B68AA
:100590008BB1174D174807F03BFF0DF107033246AB
:1005A0002946386812F0FAFB9DF807302560637120
:1005B000207103B0F0BD104D2B7A7BB16B7A6BB913
:1005C0000E4807F025FFD5E90023C5E904230123E0
:1005D000314620466B7200F0CBFCEAE7084807F092
:1005E00017FF3146204600F01BFDE2E72C060020F5
:1005F000640700209CB4010858000020C2B4010820
:10060000DFB401082DE9F8434FF00047002680468B
:10061000894603F081FB144BD3E90045BD4208BF76
:10062000B44205D014EB080045EB0901C3E9000111
:10063000D3E90445BD4208BFB44205D014EB08001D
:1006400045EB0901C3E90401D3E90801B1F1004F09
:1006500008BF002805D018EB000449EB0105C3E9E9
:100660000845BDE8F88300BF58000020D0B500F071
:1006700093FE036D50301B689847254CC4E9000178
:1006800007F046FE0146234807F0C2FEFFF7EAFEE8
:10069000D4E90423B3F1004F08BF002A2DD0D4E9D8
:1006A00000671D4807F05AFD864277EB0103ACBF97
:1006B00001230023237200236372D4E90823B3F1DA
:1006C000004F08BF002A1AD0D4E90067134807F08A
:1006D00045FD864277EB0103ACBF012300230022D6
:1006E000627684F82C20227A237662B14BB10C48D2
:1006F00007F08EFE0B4B1878D0BD0123DAE70123FB
:10070000EDE70948F4E70BB10848F1E70848EFE7DF
:1007100058000020FAB4010818000020380000201A
:1007200010B50108800900202AB501083BB5010871
:100730004AB50108F8B53F4D16F07AF8D5E9082317
:10074000B3F1004F08BF002A2C4611D1D5E9002390
:10075000C5E90823384B93F8503033B1374807F0D8
:1007600057FE01232B76364B4DE0364807F050FEFE
:1007700000F012FE036D50301B689847D4E9002347
:10078000461C41F10007B3F1004F08BF002A3CD1DD
:100790002D4807F03DFE01232372D4E90023B3F175
:1007A000004F08BF002A38D1284807F031FE012346
:1007B0002376237A13B1637A002B36D0237E0BB1D4
:1007C000637E93B300F0E8FD036D50301B689847DB
:1007D00002460B4604461E480D4607F0BFFC07F0D4
:1007E00097FD01461B4807F013FE2B4622461A4888
:1007F00007F0B4FC07F08CFD0146184807F008FE2E
:1008000001F0FCFD164B1878F8BD114807F0A6FC66
:10081000864277EB0103C0DBBAE70F4807F09EFC86
:10082000864277EB0103C4DBBEE70E4807F0F0FD1C
:1008300099E700BF580000200400002054B60108CA
:10084000830900207AB60108A5B60108D9B60108C7
:10085000180000200BB70108380000202CB7010851
:10086000800900204DB701081FB56123CDE9013192
:1008700001A9039202F028F905B05DF804FB07B561
:100880008DF8041001A98DF805208DF8063002F0CE
:10089000D9F903B05DF804FB2DE9F04F87B0FFF7FD
:1008A00019FDFA200BF064F9FFF75EFC00F074FD0F
:1008B000674B684D4365684807F0AAFD2B68674C95
:1008C00013F0010F06D100F067FD01F0B5F8012328
:1008D00020602B60624D26682A6B624903A801F0F4
:1008E00091FF03A9304601F0E7FF26682A698DF8D9
:1008F00005005D4903A801F085FF03A9304601F01A
:10090000DBFF5A4A8DF8060059492068FFF7ACFF13
:100910008DF80700206803F039F8564A8246564998
:100920002068FFF7A1FF554A064655492068FFF7A2
:100930009BFF544B8346544A5449206803F05EFDA4
:10094000534A804653492068FFF78EFF524A8DF87C
:10095000040052492068FFF787FF9DF80530814663
:100960008DF80C309DF8063003AA8DF80D304C49F7
:100970000223206803F04CF907464A4D20689DF891
:1009800007302A7880F828309DF807105346FFF783
:1009900076FF454A3346514620681278FFF76FFFCD
:1009A000DFF810A143462A7831462068FFF767FF39
:1009B00043462A789DF804102068FFF760FF9DF8F1
:1009C00004309AF8002041462068FFF758FF4B4654
:1009D0002A7841462068FFF752FF344A3346494699
:1009E00020681278FFF74BFF3B462A78494620687B
:1009F000FFF745FF9DF804309AF80020394620683B
:100A0000FFF73DFF5B469DF8052039462068FFF75C
:100A100036FF5B469DF8062039462068FFF72FFF1A
:100A200033462A7859462068FFF729FF206802F0EC
:100A3000C5FA1F4807F0ECFC01224FF4167120683C
:100A400002F056FA00200AF0F9FD07B0BDE8F08F79
:100A5000050600080C060020F7B50108280600204E
:100A60000400002045B3010850B30108490B0008F9
:100A70007FC101082105000814B601086D060008B1
:100A80001CB6010885050008FD04000823B601080E
:100A9000F5030008AEC001083507000830B60108AC
:100AA00062C1010880090020840900208309002018
:100AB0003AB601084E0A002000F06EBC13B500F0F3
:100AC0006BFC044603689B68984723682046DB68F4
:100AD00001219847236820461B694FF4FA71984713
:100AE00023682046DB6800219847002401234FF447
:100AF00096720B49CDE900340A4823460AF09EFC61
:100B0000094807F085FC094807F082FC0AF086FED8
:100B100040F2F311064801F041FD204602B010BD3D
:100B2000A3B7010899080008ACB70108BFB70108CE
:100B3000B1E5010810B50446006810B1012114F0B8
:100B400013F8204610BD00002DE9F04FB44C97B0CB
:100B50002368DB0708D413F06FF880220146B14800
:100B600012F0C2F801232360AE4AAF4BAF4E1A60B9
:100B700000F012FC34460127AD4BAE4DC366AE48C3
:100B800003F0CEF90FCD0FC40FCD0FC495E80F00C1
:100B9000377284E80F0000F0FFFB036D50301B68D4
:100BA00098470023002233764FF00043A34DC6E957
:100BB00008232B68C6E9000113F0010FA04C04D1F3
:100BC00000F0EAFB683020602F60206803681B6833
:100BD0009847044618B9E0219A4801F0DFFC9A4B87
:100BE0000D939A4B0B939A4B0A939A4B0C939A4BF7
:100BF00007939A4B09939A4B089300F0CDFB02ABF5
:100C000007AA00F1500507CA83E807000CAB93E878
:100C100003008DE803000AAB0CCB2146284603F005
:100C2000D5FE904903F0CCFF03F006FF15F000FE5F
:100C3000FFF718FC00F0B0FB12AA044617468A4BD7
:100C400000F1680503F1100C16461868596808335E
:100C500003C663453246F7D1A36E01211B692846BE
:100C60009847A36E3A469E687B2110232846B047DA
:100C70000EAE10220021304617F0A7FDA36E3246BB
:100C8000D3F804807B2110232846C0471022394620
:100C9000304617F067FDA36EB0FA80FAD3F80C80E7
:100CA000212210237B212846C047A36E3246D3F869
:100CB00004807B2110232846C04700234FEA5A1A9C
:100CC000F25C0133212A18BF4FF0000A102BF7D134
:100CD000A36E00211B6928469847204600F025FC9A
:100CE00016F0FCFA4AA3D3E900238046894616F0A1
:100CF000D3FD002800F0818047A3D3E900234046BC
:100D000049464FF0010516F0BDFD00B90546EDB2AC
:100D100004F15B026B3412F8013F002B6FD1A24249
:100D2000F9D11C46BAF1000F6BD0002D14BFA346B9
:100D30004FF0000BDFF86881DFF868914B4807F04F
:100D400067FB404BBAF1000F14BF4A464246484980
:100D5000484807F05DFB3B4B002D14BF4A46424616
:100D60004549444807F054FB364B002C14BF4A4613
:100D7000424642493F4807F04BFB41494148BBF1DD
:100D8000000F08BF414607F043FB3F4807F040FB18
:100D900012F052FF3D4A0146304612F082FD002318
:100DA0000820CDE91233149307F0CEFB384A00F146
:100DB00008031290149312F8011F00B10170013062
:100DC0008342F8D1DDE90E0212991393121A5B1ACD
:100DD0009A4218D112B117F0C5FCA0B92D4807F0FE
:100DE00017FB2D4B1C783846FFF7A4FE3046FFF763
:100DF000A1FE204617B0BDE8F08F054688E7012424
:100E000090E7D34696E7254BECE700BFAFF30080B1
:100E1000CDCCCCCCCCCC0040333333333333134044
:100E200004060020140600202C0600205800002094
:100E3000153F0008A8B30108E904000808060020CF
:100E400024060020B1E50108118400089D04000873
:100E5000B9040008D504000831E10008D1E0000819
:100E600095E1000804000020D8B30108FDB3010893
:100E70000DB4010812B4010829B401082DB4010809
:100E8000FAB3010834B4010849B4010857B40108A1
:100E9000E7B301085EB401081006002080090020B5
:100EA000F5B30108F0B30108FF22014B1A70704737
:100EB00010060020054B1A68054B93F84F30B2FB23
:100EC000F3F003FB102303B10130704760070020EB
:100ED0000400002030B5CDB003F0AEFD04A903F04E
:100EE000D1FC1E4C002836D04FF496721C4968463F
:100EF00013F09BFD01231B4D8DF80C3095F84E30FF
:100F00007BB10023059A684613F0D6FD95F84E3064
:100F1000022B06D19DF8241068464942C9B213F04D
:100F2000AFFD0CA90B9A684613F08CFD684613F0D0
:100F3000B4FD00220C4B206068461A6013F0ABFD34
:100F40000446684613F0A9FD21460246074813F0FF
:100F500023FD4DB030BD2060FBE700BF60070020DF
:100F600030060020040000205C07002088000020DC
:100F70007FB501260A4604461649684613F055FD1A
:100F800002216846144D8DF80C6013F079FD05219F
:100F9000684613F075FD0C21684613F071FD698DEC
:100FA000684613F095FDB5F92810684613F077FDF3
:100FB00095F82C10684613F063FD684613F06BFD3E
:100FC0000546684613F069FD66712560207104B01E
:100FD00070BD00BF640700205800002038B50E4CDB
:100FE00023683BB915F091FE002801DDFFF772FF81
:100FF000236863B115F09DFE054615F086FE2D1A97
:1010000015F097FE29460246044807F001FA2068C9
:10101000003018BF012038BD600700202BB8010840
:101020002DE9F341364E074696F84E500A463446AF
:101030008DB1022D5CD8334D334C2946204613F038
:101040007DFC96F84E30387164337B71D4E902230D
:101050003D609A4240E0FFF72DFF2C4E33689842E6
:1010600041D994F84F502A4A03FB0525294B19789A
:10107000FFF720FF336894F84F20984294BF002375
:101080005343C91ACCB2944228BF14461CB97321E9
:10109000214801F083FA31684FF00A080131FFF767
:1010A00009FF08FB01085FFA88F3024600931B481A
:1010B000234607F0ADF92146284607F00FFA1848F5
:1010C00007F0A6F9316887F8058001313D603C7171
:1010D0003160FFF7EFFE814202D100220D4B1A6012
:1010E00002B0BDE8F08171210B4801F057FABDE76D
:1010F000A821094802B0BDE8F04101F04FBA00BF95
:101100000400002064070020880000205C07002005
:101110003006002060070020B1E50108F0B70108A3
:10112000B0E501087047000038B50A4C05460121BA
:10113000204604F007FB002320461A46012104F054
:101140003FFA85F001022046BDE83840012104F055
:1011500005BB00BF0000024008B50120FFF7E4FF17
:10116000BDE80840032005F043B90846FFF7DCBF9F
:1011700010B50446702113F0F7FC204610BD05F0B1
:1011800027B90000024B0121186803681B68184743
:1011900050080020021C18BF01220321014804F05E
:1011A000DDBA00BF0004024010B50C460AF04EFF45
:1011B000022808D14FF47A704443B4FBF0F0BDE844
:1011C00010400AF0D5BC2046BDE8104004F014B829
:1011D0000321014804F0CBBA0004024008B50348DB
:1011E00007F016F9BDE8084005F0F2B8C8BB0108E1
:1011F00010B5094C094807F00BF920460B2104F003
:10120000A1FA002320461A460B2104F0D9F9BDE8C3
:10121000104003F0D7BF00BF0000024050BB0108E0
:1012200008B5022003F032FF03F094FF00F0C0FC89
:1012300003F0BAFF00F0CCFE04F01EFD0C4801F0F4
:1012400077F94FF4E13005F087F80A4B1A680AB9CC
:10125000094A1A60094B1A680AB9074A1A6008480D
:1012600007F0D6F8BDE80840064807F0D1B800BF3F
:1012700059110008740B0020F9610008780B002058
:10128000DAB80108F2B801082DE9F347044625460B
:101290004FF01B0A14F032FC264B04F1210945F8EB
:1012A000113B10220021284617F08FFA52460021E8
:1012B000484617F08AFA00231F4A204F6264204AEA
:1012C000C4E90F33A2641F4A84F84C30C4E91423E4
:1012D0001D4AC4E91733A2651C4A84F86430C4E986
:1012E0001A231B4807F094F83B68DFF870800193DD
:1012F000D8F80030174E00933368174A51464846D5
:1013000018F068F93168284607F08EF9D8F800100F
:1013100004F1150007F088F9396804F1190007F0A5
:1013200083F9316804F11D0007F07EF9204602B010
:10133000BDE8F087B4BB010880BC01086400F81F59
:10134000D4BC01082CBD0108F0BC0108B8BC0108E0
:1013500084BB01085000F81F99BB01085400F81F16
:1013600010B5094CFFF75CFF2368DB0709D4074879
:10137000FFF78AFF0123064A06490448236015F057
:10138000EAFC024810BD00BF4808002054080020B5
:10139000000000202511000838B5064D064C2B68CA
:1013A00013F0010F04D1FFF7DBFF012320602B6056
:1013B000206838BD4C080020C408002010B5FFF795
:1013C000EBFFC36E2BB1FFF7E7FFBDE81040C36E24
:1013D0001847BDE8104004F0FBBF000008B50B2122
:1013E000054804F0C9F928B1BDE808400B210248BE
:1013F00004F0D6B908BD00BF0000024008B519B11D
:10140000BDE80840FFF7F4BE044807F001F8BDE866
:10141000084002220B21024804F010B96CBB0108FD
:1014200000000240F8B50446374804F1440506F0D0
:10143000EFFF2846002100F0F3FD0021284600F0D0
:1014400005FE324D204614F063FB0CF041FE0DF01A
:101450001FFB20460021FFF7D1FF0BF0F9FB13F033
:1014600049FE012228460C2104F0E8F804F034FD7E
:1014700023682046DB6804F1580600219847244F72
:101480000021304600F0E6FE04F0E8F9214806F0BD
:10149000BFFF04F04FFE03F087FE384601220D2106
:1014A00004F0CCF8012238460E2104F0C7F80021E0
:1014B000084604F0BDFC04F1480000F05BFE012189
:1014C000304600F0C7FE4FF4E13004F045FF12480B
:1014D00006F09EFF28460C2104F034F9002328462C
:1014E0001A460C2104F06CF80120002104F018FDCC
:1014F00013F012FE0BF0D2FA04F0ECFC2046BDE82B
:10150000F84014F015BB00BF1EBB010800040240E8
:101510000000024042BB010851BD010808B5FFF7B9
:101520003BFFBDE80840FFF77DBF38B50546FFF734
:1015300055FF044628B100212846FFF75FFF03F05E
:1015400041FE03F00DFD05460CB1FFF751FE2846A4
:1015500038BD000070B50C4606461549204616F009
:10156000E9FC20B90021204616F0C6FC70B11149F3
:10157000204616F023FB16F0E7FC01460E4806F065
:1015800047FF40F27F110D4801F008F83046FFF7A1
:1015900025FF054648B93046FFF7C7FF01462046FC
:1015A00016F0C8FC08B1FFF723FE284670BD00BF47
:1015B0003333534000007A4408B90108B1E501080B
:1015C00070B52D4AD6B013680546DB0705D42B4904
:1015D00000F158030B600123136029492846FFF7E7
:1015E000B9FF0646274806F013FF002105F1440025
:1015F00000F02CFD244C254BE360254B2361254B4B
:10160000A360254B6360254B2360254B6361254B0D
:10161000A361254BE36104F110030FCB8DE80F00AC
:1016200094E80F0013F0A6FF002305A8EB632B64DA
:1016300013F02CFF9DF8143005F13C04012B14D15C
:10164000DDF8153005A8EB63DDF819302B6413F0D5
:10165000EDFE164806F0DCFE0821204606F03EFFAF
:10166000BDF91611124806F0D3FE31462846FFF7A1
:10167000C5FE56B070BD00BF4408002050080020D1
:101680000000404073B80108741A0020F9510008A6
:101690008151000885110008D1110008951100083A
:1016A0001184000865A60008A5A6000894B80108E2
:1016B000BAB8010870B507490546FFF74BFF064663
:1016C00013F078FE044631462846FFF797FE204681
:1016D00070BD00BF000040407FB5F82300F1480511
:1016E00004AC0646284604F8013D00F049FD0223FB
:1016F000214600930122A123284600F045FD4FF426
:1017000000430822009306F15C01A1230446284609
:1017100000F064FD0440E4B2284600F033FD2046AA
:1017200004B070BD30B58BB0044604F08FFE0146A6
:10173000514806F06DFE514806F06AFE204600F062
:10174000FDFB00F011FB00F0BBFA4D4806F060FE17
:1017500004F148054B484C4906F05AFE284600F073
:1017600009FD38B9494806F053FE4FF49D714848C9
:1017700000F014FF03F026FD2046FFF7ADFF20B96F
:1017800040F23F11424800F009FF94F8630094F8DA
:101790005E30049094F8620094F85D20039094F811
:1017A000610094F85C10029094F86000019094F845
:1017B0005F000090374806F02BFE284600F082FAC2
:1017C000284600F0E3FA04F1440584F8640004F1CB
:1017D000680000F081FC0021284600F021FC012077
:1017E00000F0D0FD0021284600F030FC012000F080
:1017F000E7FD2046FFF7E4FE00F014FB264806F064
:1018000007FE4FF4FA7016F07DFF054660BB2348D3
:1018100006F0FEFD224806F0FBFD224806F0F8FD2A
:10182000214A2249224806F0F3FD2249224806F0C7
:10183000EFFD224806F0ECFD04F12101204806F0FE
:10184000E7FD2049204806F0E3FD07A804F0ACF9C5
:1018500007A806F033FD01461C4806F0D9FD1148E3
:1018600006F0D6FD0BB030BD194806F0D1FD284674
:1018700016F050FFCEE700BF37B901084DB9010897
:1018800064B9010879B90108A086010094B901087A
:10189000B1E50108AAB90108DFB9010812BA0108C7
:1018A000AFE5010850BA010881BA01088CBA0108F5
:1018B000A0BA0108AFBA0108B6BA0108C1BA010856
:1018C000E1BA0108ECBA0108F2BA01080CBB010840
:1018D00046BA01082DE9FF4100F14805284600F00D
:1018E0004FFC04240226284F013C14F0FF0432D0A0
:1018F000A123012239460096284600F045FC4FF40A
:101900000043804600930422A12302A9284600F048
:1019100065FCB8F1000FE7D00028E5D09DF808304D
:10192000442B1FD19DF809306E2B1BD10DF10A00FD
:1019300006F05DFE013084B221460DF109008DF8FC
:10194000086006F07AFE002303220093A02302A978
:10195000284600F019FC284600F014FC204604B08C
:10196000BDE8F0814FF488430024ADF808306E23C1
:1019700000210DF10B008DF80A3006F05EFE009498
:10198000A0230522E3E700BF48B8010838B50C469C
:10199000113105460CF036FF214651F85C3F2846D0
:1019A0002B604B686B6038BD30B50D469DB004466A
:1019B00001466846FFF7EAFF694628460CF060FCDE
:1019C00004F1110321346B632C631DB030BD0000A2
:1019D00030B508468DB014460F4B104A104912F02E
:1019E00079F800210F4A0A9107920F4A069108924E
:1019F0000E490F4A0F4D09920494059104AA01ACB7
:101A000007CA0B9584E8070007AB00950FCB12F0CF
:101A100097FB0DB030BD00BF7F11000849B8010829
:101A20006DB80108B55200083D52000800000808D2
:101A3000DD110008BD13000838B5054601F02AF88D
:101A4000074B04461A784AB1002205F150011A707A
:101A500000F0EEFE0349204600F0ECFE204638BDC3
:101A60009C0000201D150008024B186803685B6885
:101A7000184700BFD4080020024B186803689B6811
:101A8000184700BFD40800202DE9FF410023154668
:101A90001370022206460D4F04AC386804F8011D8D
:101AA00003680092D3F80C80012233462146C047D8
:101AB00048B14FF4004238682946036800921C6917
:101AC00001223346A04704B0BDE8F081D4080020CD
:101AD00030B585B08DF80D200022074B8DF80C1025
:101AE0001C6803A923680092DD6802220346204691
:101AF000A84705B030BD00BFD408002037B54FF46B
:101B00000045064B1C68236800951D6913460A466C
:101B100001462046A84703B030BD00BFD0080020D2
:101B200037B50025054B1C6823680095DD68134612
:101B30000A4601462046A84703B030BDD008002021
:101B400037B50225054B1C6823680095DD681346F0
:101B50000A4601462046A84703B030BDD008002001
:101B6000024B186803681B68184700BFD0080020A4
:101B7000024B186803685B68184700BFD008002054
:101B8000024B186803689B68184700BFD008002004
:101B90004FF47A735843B0FBF3F009F0E9BF10B586
:101BA0000446FFF7F9FB2146BDE81040FFF792BE5F
:101BB00010B5424C0BF09EF820460222002103F0A3
:101BC0003DFD01222046114603F038FD204601224A
:101BD000022103F033FD20460222032103F02EFDF3
:101BE00020460022042103F029FD2046022208217C
:101BF00003F024FD20460122092103F01FFD2046A9
:101C000001220A2103F01AFD204602220B2103F0D3
:101C100015FD03F0C9FA002320461A460C2103F0F3
:101C2000CFFC204600220C2103F098FD2046002224
:101C300004F580640F2103F001FD204601220021FC
:101C400003F0FCFC20460022022103F0F7FC2046B2
:101C50000022032103F0F2FC20460222062103F0B9
:101C6000EDFC20460022082103F0E8FC204600227B
:101C7000092103F0E3FC204601220C2103F0DEFCE5
:101C8000204602220D2103F0D9FC204602220E211B
:101C900003F0D4FC204602220F2103F0CFFC0023E6
:101CA00004F5806420461A460D2103F089FC204685
:101CB000BDE8104000220D2103F050BD000002409D
:101CC00003F0DABF1D4B00B51A6889B0D2075FBFB9
:101CD0001B4A106001221A601A4B1B4A04931B4BCB
:101CE00005931B4B03931B4B02931B4B079308ABB2
:101CF00043F8082D93E803008DE8030002AB0FCBF7
:101D000013F0E8FA90B1154806F082FB002214485F
:101D1000114603F093FC0F2302220021104803F028
:101D20002DFB09B05DF804EB13F06EBA6A210D4883
:101D300009B05DF804EB00F031BC00BFCC08002016
:101D4000D4080020691A0008911B0008791A0008BD
:101D5000891A0008D11A00081184000864BC01081F
:101D600000000240B1E50108002307B5ADF80430DA
:101D700001238DF8063001980AF018FF03F014FAD9
:101D800003B05DF804EB0AF063BF0000194B10B517
:101D90001A688CB0D2075FBF174A106001221A6020
:101DA000164B0793164B0593164B0693164B089349
:101DB000164B0993164B0A93164B0B930CAB13E976
:101DC00007008DE8070005AB0FCB12F069FF044652
:101DD00001220F21104803F031FC3CB10F4806F0FE
:101DE00017FB12F03BFF20460CB010BD0C4806F06C
:101DF0000FFBF8E7C8080020D0080020FD1A0008F3
:101E0000211B0008411B0008611B0008711B000812
:101E1000811B00081184000800000240E6BB010895
:101E200019BC01082DE9F04FA5B00BF07FFA68B995
:101E3000384B394A1C93394B1E92CDE91F33384A2F
:101E400000931D921CAB0FCB0BF08AFA354B00248C
:101E50001593354B4FF001081493344B4FF00309A1
:101E60001693334B2D4D1793324B2D4F189304235C
:101E7000294E06A914A8CDE9063419951A971B9680
:101E80008DF81D8006F0A8FF06F09AFF06F01CFCF6
:101E9000214614221FA80994CDF8209016F095FC35
:101EA000EE460DF1900C4CF8186DBCE80F00CDE932
:101EB0001C57AEE80F009CE803008EE803000DF10C
:101EC000200A0DF1700B9BE80C009AE803000CF05F
:101ED0004BF8104ACDE90B441092174A0D94CDF8F7
:101EE00028908DF82E800AAB02ACCDE911761392C2
:101EF000CDE90E550FCB84E80F0012AB93E8030039
:101F00008DE803000EAB0FCB0CF0C4FC25B0BDE890
:101F1000F08F00BF655C00081D8500081184000873
:101F200049850008D5CB00089DCA0008ADC9000846
:101F300045C9000859C900089F1B00082DE9F04752
:101F4000044603F00DF81E49054615F037FE15F05E
:101F5000FBFF01461B4806F05BFA4FF08041284624
:101F600015F0CAFF48B30025DFF86090DFF8508015
:101F7000154E02F0F5FF4946074615F0D1FFA8B906
:101F80004146384615F01AFE15F0DEFF0146304690
:101F900006F03EFA236885F001052046DB682946F5
:101FA00098474FF47A7003F027F9E2E72368204658
:101FB000BDE8F047DB6800211847BDE8F08700BFA7
:101FC00000007A4437BC010849BC010800002040E9
:101FD00008B50D49012003F0A5FC0C490B2003F0C6
:101FE000A1FC0B490A2003F09DFC0A49042003F0E0
:101FF00099FC0949072003F095FCBDE80840074912
:10200000052003F08FBC00BFE9A000085DA4000814
:10201000ADA20008A5A50008DDA4000871A5000870
:10202000002310B50C461A460D21074803F0C8FAE4
:1020300014B1012C00D010BD2246BDE810400D2186
:10204000014803F08BBB00BF00080240002310B51D
:102050000C461A460C21074803F0B2FA14B1012CC1
:1020600000D010BD2246BDE810400C21014803F00D
:1020700075BB00BF0000024012F062BF0846114667
:102080001A4612F0FBBF084611461A4612F078BFF6
:10209000084611461A4612F0ADBF00000C2110B1DF
:1020A000024803F04FBB014803F052BB000402405A
:1020B00010B561B1FFF770F9044612F015FF014643
:1020C0002046FFF747FABDE8104013F025B8BDE8F9
:1020D000104013F00FB8000070B588B0FFF75CF93E
:1020E0001D490546FFF736FA0C2106461B4803F04A
:1020F00029FB00230C211A46184803F061FA00213D
:10210000012003F00DFF102200210DEB020016F05C
:102110005CFB134B02AC0293124B0693124B0393DE
:1021200008AB13E903008DE8030094E80F0013F0F7
:102130000BF860B112F004FF01460C4806F068F994
:102140003146284608B0BDE87040FFF757B9084847
:1021500006F05EF9F4E700BF0000404000040240D2
:102160009D200008F9510008D55F000888BC0108CF
:102170009EBC0108014803F05FBB00BFA0860100C0
:1021800003F02ABB03F044BB2DE9F041069F1E4635
:1021900007F00303032B80460C46154603D12F217D
:1021A0000D4800F0FBF92046BC07324629460AD507
:1021B00003F07CFB10B10120BDE8F0810123002079
:1021C00088F80430F8E7FB0702D503F07DFBF1E760
:1021D00003F05EFBEEE700BFB1E501082DE9F04139
:1021E000069C0D46E107804616461F4603D54C2146
:1021F0000D4800F0D3F9A20703D54F210A4800F09B
:10220000CDF923043A46314628460AD503F06AFB45
:1022100010B10120BDE8F0810123002088F80430CE
:10222000F8E703F027FBF3E7B1E5010808B5032160
:10223000034803F09CFA003018BF012008BD00BF1E
:10224000000402400A460248032103F087BA00BF97
:102250000004024008B581B1012303211A460A484F
:1022600003F0AEF90321084803F06CFABDE808401A
:1022700003220548114603F083B90122BDE8084056
:102280000321014803F0DAB90004024003F0EABC7C
:102290001FB501A805F0D4FF01A803F0C3FD05B0E8
:1022A0005DF804FB03F02CBD03F044BD084603F0C9
:1022B000BBBBDFB50023CDE90133ADF80C30012302
:1022C0008DF807308DF808306FF01D038DF8093058
:1022D0000723044601A88DF80A3005F0D6FF2368CD
:1022E00006461B6820460F469847864277EB010357
:1022F000B4BF0120002004B0D0BD70B50646194619
:1023000010461D4614460BF065F8736823B120464D
:102310002946BDE87040184770BD00002DE9FF4711
:1023200014461D46824603F09DFC80468946261AC7
:1023300022462B4601A865EB010705F081FF4046C8
:10234000494605F0E5FF29468046204605F0E0FFB6
:1023500039460446304605F0F1FF22460346414621
:10236000074806F055F801A803F00EFC20B13246EC
:102370003B465046FFF7C1FF04B0BDE8F08700BF01
:10238000FCBC0108042817D8DFE800F00309100E90
:102390001200002303211A46084803F011B9002255
:1023A0000321064803F04AB90222F9E70122F7E7C0
:1023B0000321024803F068B9704700BF00000240E3
:1023C000042817D8DFE800F00309100E12000023DC
:1023D00002211A46084803F0F3B8002202210648F9
:1023E00003F02CB90222F9E70122F7E702210248A3
:1023F00003F04AB9704700BF000002402DE9F047E2
:1024000041488AB006F004F809F068FA24250790DC
:1024100007993E4805F0FCFF0798684306F094F8DA
:1024200004463B4805F0F4FF94B107990DEB050213
:10243000204609F0B3FD0023DFF8F0A0354F0790E8
:102440000893089A079B9A421DD3204606F066F827
:1024500008F04CFA044608F057FA214602462E4886
:1024600005F0D6FF2D4B2E4819889A888B1A05F057
:10247000CFFF2C4B1B6803B198472B4805F0C8FFD2
:102480000AB0BDE8F087089B05FB03431B7B042BC8
:1024900098BF1AF80320099B88BF3F22642B83BF93
:1024A0006420B3FBF0F30899002382BF05FB0141D0
:1024B0008969B1FBF3F308990898DDF820C0DDF8CD
:1024C00020E0DDF82080DDF8209005FB004005FBD2
:1024D0000949D9F81C6005FB0141CDE9033605FB2C
:1024E00008439B69029305FB0E439B68019305FB20
:1024F0000C431B8C009303694968384605F088FF3C
:10250000089B013308939CE74DBD010859BD0108A4
:1025100064BD010899BD0108CBBD0108CA1900209E
:10252000EABD010850090020E4B7010848BD0108D0
:10253000014B1860704700BF6C09002073B5124C46
:10254000064623780D46114A1BB913780BB172B6B3
:10255000FEE70123002113700D48642216F035F9BF
:102560002B4600960B4A6421094817F033F80A4BB2
:102570001B6803B198470125054E304605F08CFFD6
:1025800072B62570F9E700BF48090020DC0800207A
:10259000DE08002021BE01086C090020F7B5184CA8
:1025A000064623780D46174A1BB913780BB172B64D
:1025B000FEE70123002113701348642216F005F989
:1025C0002B460096114A64210F4817F003F8104B70
:1025D0001B680BB10C4898470E4B1B6803B198471A
:1025E0000125094E0C4F304605F056FF384605F0E0
:1025F00053FF72B6094B257000BF013BFCD1F2E7D7
:1026000049090020DD080020DE08002049BE01083D
:10261000D80800206C09002058BE0108FFFF0F00F9
:10262000F8B5DFF898C003681A4FCCF8003043685B
:10263000194E3B608368194D3360C368184C2B609A
:10264000036918492360436982690B60164BC069AE
:102650001A60164A1060DCF8000038683068286894
:1026600020681C460968124D1968124E12686422CF
:102670000021284616F0A9F823683246642128462E
:1026800016F0A8FF284605F007FF0B4B00BF013BE3
:10269000FCD1ECE75C0900206409002068090020F7
:1026A00060090020440900204C0900205409002042
:1026B000DE0800200EBE0108FFFF0F0058090020B1
:1026C000074B1B6803B198471EF0040F0CBFEFF3D4
:1026D0000880EFF309808169004A1047212600082D
:1026E0006C09002010B50446C06908B105F016FF5A
:1026F000206908B105F012FF606808B105F00EFF0F
:10270000204610BD10B50446006808F0B3FD204611
:1027100010BD00001FB50B46546801780294127872
:1027200001925A68009242681B68024805F070FEE8
:1027300004B010BD74BE0108CB210148FFF72EBFC5
:10274000B1E50108FE2307B502A901F8043D054BD8
:102750001868002300681A4608F07CFA03B05DF898
:1027600004FB00BF7C090020D0B51F467423C0E9DC
:1027700000310023044683600820164612F0D2F987
:10278000C0E90067A0602046D0BD00002DE9D0431D
:10279000DDE9066799467223C0E9003100239642BD
:1027A000836077EB09030446904603DA2B21074840
:1027B000FFF7F4FE102012F0B5F9C0E90089C0E976
:1027C0000267A0602046BDE8D08300BFB1E50108E4
:1027D000036837B5632B04460D4601D0FFF7ACFF05
:1027E000002302AA42F8043DA168284605F0F6FB42
:1027F000019B1BB138210248FFF7D0FE03B030BD6A
:10280000B1E5010870B563230025C0E90031044635
:1028100085601A20164612F085F91A22294615F00D
:10282000D4FF3146A0602046FFF7D2FF204670BD9E
:1028300081647047C16470472DE9F843D0E90173A2
:10284000884600254FF00C09DB1B0A4E9B105E43A7
:10285000ECB2B4420BD209FB04724146506816F048
:1028600052FF01350028F3D12046BDE8F8834FF030
:10287000FF30FAE7ABAAAAAA2DE9F843D0E904731E
:10288000884600254FF00C09DB1B0A4E9B105E4367
:10289000ECB2B4420BD209FB04724146506816F008
:1028A00032FF01350028F3D12046BDE8F8834FF010
:1028B000FF30FAE7ABAAAAAA2DE9F0410E46496813
:1028C0000446FFF7B9FFC0B2FF2803D07C21294896
:1028D000FFF764FED4E90123274F9B1A9B107B432B
:1028E0007E2B03D97F212348FFF758FED4E901123C
:1028F0000C25E068531A9B10121A7B4392107A43FE
:102900000133934205FB03F80ED84144A160D4E99A
:10291000013496E80700E31A04E9070016489B1003
:1029200058430138BDE8F081404605F00DFE0546EC
:1029300018B969210F48FFF731FED4E901C3002718
:10294000A3EB0C039A100C4B5343002B09DD05EB52
:10295000070E0CEB070207CA013B8EE807000C3795
:10296000F3E7604605F0DAFD65604544C4E90255C9
:10297000CDE700BFB1E50108ABAAAAAA1FB56E2337
:10298000CDE90131002301A90393FFF795FF05B0BD
:102990005DF804FBFF2270B5002380F828204FF07B
:1029A00000424FF0FF31C0E90D23C2636FF07F4258
:1029B000C0E910120522C0E90033C0E91423C0E9C0
:1029C00002330022C0E90433C0E90633C0E908330A
:1029D0000363C0E9123383654FF000431E4DC0E925
:1029E00018232A68044612F0010213D101211B4E5C
:1029F00008463260716008F053F8306018B9512110
:102A00001748FFF7CBFD0123164A174913482B60DF
:102A100014F0A1F9154B1A680AB9104A1A60144942
:102A20002046FFF7ABFF134B134918702046FFF702
:102A3000A5FF124B124918702046FFF79FFF114B5C
:102A4000114918702046FFF799FFFE220F4B1870AE
:102A50000F4B20461A7070BD78090020000A002034
:102A6000B1E5010800000020052700087C090020CE
:102A7000E6BF010884090020EEBF0108820900209A
:102A8000F6BF010880090020FBBF01088309002070
:102A90008109002010B5084C2368DB0709D40748DA
:102AA000FFF778FF0123064A06490448236014F023
:102AB00052F9024810BD00BF740900209809002097
:102AC00000000020E52600082DE9F0410E46496887
:102AD0000446FFF7D1FEC0B2FF2803D08721294862
:102AE000FFF75CFDD4E90423274F9B1A9B107B431F
:102AF0007E2B03D98A212348FFF750FDD4E9041225
:102B00000C25A069531A9B10121A7B4392107A432A
:102B10000133934205FB03F80ED841446161D4E9C7
:102B2000043496E80700E31A04E9070016489B10EE
:102B300058430138BDE8F081404605F005FD0546E3
:102B400018B969210F48FFF729FDD4E904C300270C
:102B5000A3EB0C039A100C4B5343002B09DD05EB40
:102B6000070E0CEB070207CA013B8EE807000C3783
:102B7000F3E7604605F0D2FC25614544C4E90555FC
:102B8000CDE700BFB1E50108ABAAAAAA38B5D0E9E4
:102B900001239B1A074A9B105343CDB29D42044622
:102BA00003D3A6210448FFF7F9FC0C20636800FB5F
:102BB000053038BDABAAAAAAB1E5010838B5CCB238
:102BC000114905460B6813F0010307D10F4A702025
:102BD0001372012310600E480B605060FF2C10D060
:102BE000D5E904239B1A0B4A9B1053439C4203D301
:102BF000B2210948FFF7D2FC0C23286903FB04002B
:102C000038BD0248FCE700BF700900208809002099
:102C100092BE0108ABAAAAAAB1E5010810B5D0E995
:102C20000730C9B2D2B2834209D01C788C4204D199
:102C30005C78944201D1987810BD0333F3E74FF0EC
:102C4000FF30F9E72DE9F041D0E904239B1A4F4A00
:102C50009B1053430D4609780446994203D39321B0
:102C60004B48FFF79BFCD4E901239B1A474A9B1072
:102C700053436978994203D394214548FFF78EFC6A
:102C8000D4E904239B1A414A9B105343A9789942E3
:102C900005D3FE2903D095213D48FFF77FFC6A78D4
:102CA00029782046FFF7BAFFC3B2FF2B064629D08A
:102CB00029782046FFF782FF697807462046FFF70C
:102CC00065FF314680462046FFF778FF41460246C1
:102CD0003846FFF71FFD29782046FFF76FFF697818
:102CE00006462046FFF752FFA97807462046FFF721
:102CF00065FF394602463046FFF70CFD9C2124480B
:102D0000FFF74CFCD4E90723204F9B1A7B437E2B13
:102D100003D99F211E48FFF741FCD4E90762616A8D
:102D2000931B7B43521A57430133BB4203EB4308C7
:102D30000AD8464426622A88236A23F8032CAA78F4
:102D400003F8012CBDE8F081404605F0FDFB064686
:102D500018B969210E48FFF721FCD4E90702131ABC
:102D60000A4A5A430023002A0ADDC118B1F800C0FC
:102D7000F71826F803C08978013AB9700333F2E7EF
:102D800005F0CCFBE66146446662D3E7ABAAAAAA8B
:102D9000B1E50108FF2337B58DF804300A4B0D4625
:102DA0001C6823681BB929210848FFF7F7FB2A464E
:102DB00001A9206807F0F2FF012814BF4FF0FF308F
:102DC0009DF8040003B030BD7C090020B1E5010886
:102DD00038B5816800681D46144605F067FC034657
:102DE000201845EBE37138BD08682DE9F0417228E1
:102DF0001F461FD074280FD0632820D1886805F0A3
:102E0000ADF9002871F1000304460D460EDADD210C
:102E10000D48FFF7C3FB09E08B68D3E90045B5F126
:102E2000004F08BF002C01D0A4187D412046294640
:102E3000BDE8F0818868BDE8F041FFF7C9BF002414
:102E40004FF00045F2E700BFB1E501082DE9F04180
:102E50000F4606460024FFB2FFF7B0FED6E907583A
:102E6000454511D02B78BB420CD169783046FFF72D
:102E70008DFE0368692B05D183681B6803B19847F1
:102E80000134E4B20335EBE72046BDE8F0812DE9DB
:102E9000F34180460F460025FFF790FED8F81C400E
:102EA000D8F8206003340336FFB2A6421BD0234675
:102EB00033F8032D9B78ADF804208DF8063014F814
:102EC000033C9F420DD19DF805104046FFF75EFE82
:102ED0000368692B05D183685B6803B198470135A6
:102EE000EDB20334E1E7284602B0BDE8F08100000E
:102EF000836C73B504460D46164623B94FF48E71A4
:102F00000B48FFF74BFBCDE9006423462A460949ED
:102F1000094808F093FA012807D04FF4917104484A
:102F200002B0BDE87040FFF739BB02B070BD00BF12
:102F3000B1E50108C8BF01087935000838B590F837
:102F400047300446032B0D4604D940F2351106489C
:102F5000FFF724FB94F847305A1C84F847201C44A0
:102F600084F8425038BD00BFB1E5010810B590F8B3
:102F70004730044623B94FF49D710648FFF70EFB16
:102F800094F84730013BDBB284F847301C4494F896
:102F9000420010BDB1E50108CBB2FE2B10B50446CE
:102FA0000AD0FFF70BFE03686D2B05D1017A20468E
:102FB000BDE81040FFF702BE10BD00002DE9F84348
:102FC00004460026114FD4E904239B1A9B107B432F
:102FD0005FFA86F8434516D941462046FFF7DCFFE5
:102FE000D4E90759A9450CD02B78434507D1697816
:102FF0002046FFF7CBFDA9782046FFF7CDFF03352C
:10300000F0E70136DFE7BDE8F88300BFABAAAAAA64
:1030100038B50546002495F84730A34207DD2B1943
:1030200093F842102846FFF7C9FD0134F3E738BD95
:1030300000232DE9F74FC0E9083388461946D8E93F
:1030400007594FF000430446C0E90613C0E90013D6
:10305000C0E90213C0E90413FF208A469B46D2B29E
:1030600084F8200001924D45D4E9006720D02B78E8
:10307000019A93421AD169784046FFF787FDDDE94E
:103080000C2301464046FFF7AFFE594508BF5045A7
:103090000CD05F4508BF564503D0B04271EB070323
:1030A00004DA6B78C4E9000184F820300335DAE7EC
:1030B000B7F1004F08BF002E08D0DDE90C23B21A8B
:1030C00067EB030316461F46C4E90467204603B0B6
:1030D000BDE8F08FF8B50D460B4B896906464B43AA
:1030E0004FF47A71B3FBF1F1FFF754FE0446C7B217
:1030F000B06C03681B689847FF2FC6E90E010CBF30
:1031000095F820002046F8BD40420F0038B5C36C4A
:1031100004460D461BB9BDE83840FFF7DBBF806CA5
:10312000174903685B699847A06C0368DB68984798
:10313000D5E9020105F0ECF80146124805F068F9FE
:10314000A06C03689968D5E902238847A06C0368DE
:103150001B699847E36C9847A06C0368DB68984745
:10316000A06C03681B689847C4E90E010021204643
:10317000FFF710FEC0B2FE2808BF95F8200038BD4A
:1031800045270008D3BF0108F8B5D1E90667B7F1B4
:10319000004F08BF002E05460C4608D11AB1BDE805
:1031A000F840FFF797BFBDE8F840FFF7AFBF012E2B
:1031B00077F1000302DA91F82000F8BD92B12146C0
:1031C0002846FFF787FF94F82030C0B28342F4D13D
:1031D000D5E90E67D4E90023964277EB0303B8BF25
:1031E000FF20EAE7D0E91423964277EB0303E6DBFE
:1031F000FFF78CFFE7E700002DE9F04F8DB00446A4
:103200000D46FFF7DBFC03688046702B04D04FF4BB
:10321000A0716B48FFF7C2F9A06C03681B68984760
:103220002A46C4E90C01CDE90001214602A8FFF7B6
:10323000FFFE29462046FFF709FE9DF82830064686
:10324000FF2B05D120B940F24B115D48FFF7A6F9DD
:10325000D4E90C0105F05CF801465A4805F0D8F8AD
:103260003146594805F0D4F89DF82810FF297ED141
:1032700000224FF00043CDE90623DDE90223CDE92A
:103280000423DDE90623CDE90823A36D13B3984792
:10329000DDE90223D4E91801B3F1004F08BF002A89
:1032A00009D0DDE9062310F10B0641F10007964233
:1032B00077EB03030EDAD4E90C23161843EB01076E
:1032C000CDE90801CDE9046705F038F801463F482B
:1032D00005F09EF84FF0000A4FF0004BDFF8F89031
:1032E00098F8082002A92046FFF74EFFA36D064676
:1032F00003B19847F3B2FF2B5AD1DDE90223D4E999
:103300000E01161A63EB010739463046CDE9042356
:10331000CDE90667CDE9086705F010F80146484693
:1033200005F076F8A36D002BDAD0DDE90223D4E9AD
:1033300018015B4508BF524509D0DDE9062310F1AD
:103340000B0641F10007964277EB0303C8DAD4E994
:103350000E23161843EB0107CDE90801CDE90467F8
:1033600004F0ECFF0146194805F052F8B8E7204692
:10337000FFF70CFCD0E90067DDE9020104F0C8FFAB
:103380003A4603463146124805F042F8D4E90C2388
:10339000DDE90201801A61EB03010F460646CDE923
:1033A000066704F0CBFF01460A4805F031F864E7F0
:1033B00029462046FFF76BFD30460DB0BDE8F08F83
:1033C000B1E50108A0BE0108BFBE01081CBF01088D
:1033D000DABE0108FEBE010834BF010870B504461C
:1033E0000D46FFF7EBFB03686D2B11D0702B09D056
:1033F000612B14D1836894F8411094F84000BDE823
:103400007040184729462046BDE87040FFF7F4BEDB
:10341000034840F22F11FFF7C1F84FF0FF3070BDA5
:10342000B1E501082DE9F04790F828300446FF2B5C
:1034300004D14FF4E5714A48FFF7B0F894F828102A
:103440002046FFF7BBFB42680178464804F0E0FFE6
:1034500094F82830DFF81C8184F8463094F8461040
:103460002046FFF7ABFB036805466D2B204694F81A
:1034700046100BD1FFF762FD297A204684F84610EA
:10348000FFF79CFB2046FFF7C3FDE7E7FFF7A6FF2A
:10349000C3B2FF2B06460BD140F2DF113048FFF7D5
:1034A0007DF840F2DF11304B304A314814F04CFFC8
:1034B000024694F846102046FFF7B0FBC5B2FF2D38
:1034C00009D140F2E5112648FFF768F8264B274A54
:1034D00040F2E511E9E794F84610FE2D204621D18F
:1034E000FFF744FD074601462046FFF767FB3246DB
:1034F00039462046FFF792FBC5B2FF2D0DD131466C
:103500002046FFF743FB40F2F1111548FFF746F85C
:10351000154B164A40F2F111C7E72046FFF778FD38
:103520003946DAE7FFF74AFB314607462046FFF700
:103530002DFB294681462046FFF740FB8246404648
:1035400004F066FF524649463846FFF7E3F894F820
:10355000463084F8416084F8403084F846507DE776
:10356000B1E501085CBF01087ABF010803C001088A
:1035700080BF0108B8BF010808B505F0AFF8FFF734
:1035800089FAFFF74FFFD0B51F461646FFF7FEFA40
:1035900003688468742B01D0FFF7CEF8C4E9006794
:1035A000D0BD0000836C10B5044623B94FF42771D9
:1035B0000248FEF7F3FFA06C10BD00BFB1E50108A3
:1035C000FF23054A1370054A1370054A1370054A14
:1035D0001370054A13707047840900208209002087
:1035E000800900208309002081090020014B187800
:1035F000704700BF8009002010B50446006807F03E
:1036000039FE204610BD00002DE9F3480BF086FA84
:103610004FF6FF71344A13888B421CBF013313806D
:10362000FFF738FAFFF7BEFF03681B6898472F4B78
:1036300083465A788C46D2B92D4A1289BAB12D4C9C
:1036400030CCB5F1004F08BF002C0ED0844275EB92
:103650000C010CDABBEB0406274C6CEB050754435A
:10366000E517A64277EB050201DB01225A70002222
:10367000ADF804208DF806205A782AB101228DF881
:1036800004201C4AC2E900BC1A781C4B92B10122EA
:103690008DF805201A701A4A1A491B48019B1278A6
:1036A000097800680BF0A4FAD8B1184B187802B06A
:1036B000BDE8F0881A700E4B9B89002BEBD04AF6C0
:1036C000C0025A43124CD31730CCBBEB04006CEB56
:1036D0000501904271EB0303A4BF01238DF805306F
:1036E000D9E70C4BE2E700BF500A00202C0A00206B
:1036F000380A0020B000002080510100350A002067
:103700002F0A00202E0A0020280A0020800900200D
:10371000A000002082090020104B1B8913B9104B18
:10372000187870470F4BD3E90023B3F1004F08BF5F
:10373000002AF4D10C4A13780133DBB2012B137049
:10374000EDD80023094A1370094A1370094A13601F
:10375000094A137001235370084BE1E7380A00202F
:1037600080090020A8000020640A00202F0A002001
:103770002E0A0020280A00202C0A0020830900209D
:103780001FB57023CDE90131002301A98DF80C305C
:10379000FFF79AF905B05DF804FB00002DE9F04F42
:1037A0004A4B85B01A780446002A40F08B800127E6
:1037B00047491F70FFF7E2F8464B4749187020460B
:1037C000FFF7DCF8DFF868A144498AF800002046DA
:1037D000FFF7D4F8DFF85C910A22002389F8000093
:1037E0003F4901A8FEF7C0FF01A92046FFF764F892
:1037F0003C4E3D4930702046FFF7C0F83B4B3C49FA
:1038000018702046FFF7BAF83A4B3B49187020462B
:10381000FFF7B4F8394B3A4918702046FFF7AEF875
:10382000384B394A187039492046FDF71DF8DFF842
:1038300008B1374A8BF8000036492046FDF714F8E6
:10384000354905462046FFF79BFF70230193334B14
:10385000804601A9204602938DF80C70FFF734F9D9
:1038600007462F4A2B4612789BF800102046FDF79A
:1038700006F843469AF8002029462046FCF7FFFF49
:103880003B4699F8002029462046FCF7F8FF2B46D6
:10389000327841462046FCF7F2FF2B463278394613
:1038A0002046FCF7ECFF1F4A2B461278294620469B
:1038B000FCF7E5FF1C4B1D4A1B7812782946204671
:1038C000FCF7DDFF05B0BDE8F08F00BF650A002002
:1038D0007BC00108300A002085C0010890C00108A3
:1038E0009CC00108110A0020A9C001084E0A00204E
:1038F000B7C001084D0A0020C3C00108520A0020C9
:10390000D0C00108530A002009360008DEC00108B3
:1039100029470008E8C00108FCC001080FC10108E0
:1039200080090020830900208109002084090020EB
:10393000340A0020100A0020320A002008B50BF0DB
:10394000CBF818B1BDE808400BF0E8B808BD08B5E1
:103950000BF0C2F818B9BDE808400BF099B808BDE3
:1039600030B5044685B00D46FFF718FF6D22064BB3
:1039700001A91B782046CDE901258DF80C30FFF711
:10398000A3F805B030BD00BF320A00202DE9F84F82
:10399000424B434D1A68044612F0010F01BFFF224B
:1039A0002A7001221A602B78FF2B73D1FFF7F6FEE5
:1039B0003C4A3D492046FCF757FF3C4A28703C49A9
:1039C0002046FCF751FF3B4F3B4A38703B492046AD
:1039D000FCF74AFF3A4E3B4930702046FFF7C0FFE4
:1039E000394982462046FFF7CBFE384983462046B8
:1039F000FFF7C6FE8146364A3B7812782978204682
:103A0000FCF73DFF334ADFF8E080337812782978FD
:103A10002046FCF734FF337898F8002039782046A8
:103A2000FCF72DFF2B7898F8002031782046FCF722
:103A300026FF294A5B46127839782046FCF71FFF9B
:103A400026493B780A7820465946FCF718FF244A55
:103A50004B46127839782046FCF711FF1F493B7816
:103A60000A7820464946FCF70AFF1A4A534612785C
:103A700031782046FCF703FF337898F80020514650
:103A80002046FCF7FCFE174A2B7812783178204646
:103A9000FCF7F5FE2878BDE8F88F00BF0C0A00207F
:103AA000670A0020994100087AC10108A93D000871
:103AB00084C10108310A0020193700088EC10108AD
:103AC000330A002098C10108A4C10108B2C101084D
:103AD000300A002083090020340A0020110A002047
:103AE00082090020800900208409002038B504469E
:103AF0000D46FFF753FE034A29462046FCF7B4FE65
:103B000038BD00BFAD3F0008344B2DE9F04F5A8956
:103B10000023044689B0CDE900230391002300224D
:103B20002F4905A8FEF732FE05A92046FEF7C4FE80
:103B30002C4982462046FFF723FE2B498346204628
:103B4000FFF7D4FF294A804629492046FCF78CFE1E
:103B5000284A054628492046FCF786FE0646274F98
:103B6000DFF8A8903B7899F8002029462046FCF71A
:103B700086FE234A5B46294620461278FCF77FFEE4
:103B8000204A4346294620461278FCF778FE334601
:103B9000524659462046FCF772FE3346524641468D
:103BA0002046FCF76CFE184A3B78414620461278C6
:103BB000FCF765FE3B7899F8002031462046FCF77B
:103BC0005EFE6D230593039B05A9204606938DF8A1
:103BD0001C50FEF779FF09B0BDE8F08F380A0020CD
:103BE000C1C10108CEC10108DEC10108A54200081B
:103BF000EFC10108ED350008FEC101088109002070
:103C0000520A0020530A00204E0A0020800900209A
:103C10002DE9F04F044687B008460E4615469A46F1
:103C200015F083FD00F106090746484610F096FF9F
:103C30004946334607F107092F4A804615F0CAFC6A
:103C4000484610F08BFF0837494633462B4A8346D7
:103C500015F0C0FC384610F081FF33463946284A3B
:103C6000814615F0B7FC274A41462046FCF7FCFD8B
:103C7000594680462046FFF783FD49468346204645
:103C8000FFF734FF8146204A5B46127841462046C2
:103C9000FCF7F5FD1D4A4B46127841462046FCF7DD
:103CA000EEFD1B4F1B4A3B78127849462046013DEA
:103CB000FCF7E5FD05EB0A030193019B9D420ED045
:103CC00015F801AF3B78524659462046FCF7D7FD20
:103CD0003B78524649462046FCF7D1FDEDE76D237F
:103CE00003A92046CDE903368DF81480FEF7ECFEDB
:103CF00007B0BDE8F08F00BF5FC1010867C10108D0
:103D000070C10108C9420008520A0020530A00206D
:103D1000810900204E0A00202DE970484FF000452F
:103D20000024164E83468C46D6E90001A94208BFFE
:103D3000A04205D010EB0B0241EB0C03C6E90023B7
:103D40000F4ED6E90001A94208BFA04205D010EBF2
:103D50000B0241EB0C03C6E900230A4BD3E90045F3
:103D6000B5F1004F08BF002C05D01BEB04004CEB55
:103D70000501C3E90001BDE8708800BFA80000206C
:103D8000B0000020A000002070B50D460446FEF7EC
:103D900081FE044922462B46BDE870400978FFF7B2
:103DA000F2BB00BF110A0020F8B5454D2B682F4625
:103DB00001332B600AF0B2FE0AF0DEFE44F620600A
:103DC0000AF0C2FE41780646042908D03D4804F0B6
:103DD0001FFB304604F0A2FB0120002147E00478DD
:103DE000466804F09BFB012C4AD12B68042B0CD9AC
:103DF0000FF022FF037843B14FF47A7007F0B8FE5A
:103E000040F295113048FEF7C9FB3B681E22013B8A
:103E1000DBB21E2B28BF1E23A3F12005C3F1200413
:103E200002FA05F122FA04F4002521434FF4E1449B
:103E300002FA03F08D4208BF84421CD3002908BF58
:103E4000B0F5616F04460D4615D2B0F5167F71F1DD
:103E5000000313DA3C2871F10003ACBF11460A21BC
:103E6000002004F023FC0346201845EBE371FFF724
:103E70008BFF164B0BE04FF41671F1E73C21EFE797
:103E8000032C06D130460021FFF77EFF104B187837
:103E9000F8BD74B92C600AF0FBFDFEF7FBFDFFF7DF
:103EA00081FB03681B6898470A4BC3E900010A4B72
:103EB000EDE70A48214604F0ABFA0A208DE700BF7F
:103EC000600A002028C00108B1E50108820900202D
:103ED000340A0020A00000208409002049C0010805
:103EE000054B1870054B1A700022054B1960054BE5
:103EF0001A705A70704700BF2F0A00202E0A002047
:103F0000280A00202C0A0020027901684079FFF776
:103F1000E7BF00000122014B1A7070474C0A0020D5
:103F2000014B1860704700BF180A002008B50AF05E
:103F300009FFC0B2DE2828BFDE2008BD002337B548
:103F40004FF47A7401930B4B60431D68B0FBF4F49B
:103F50002B681BB929210848FEF720FB224601A93E
:103F6000286806F01BFF012814BF0020019803B049
:103F700030BD00BF140A0020B1E501084FF47A7388
:103F800037B5002403FB00F2074802A9056841F891
:103F9000044DB2FBF3F2286807F042F8012814BF81
:103FA0002046019803B030BD140A00202DE9F04FDF
:103FB00099B0FEF76FFD90F8463004460393002653
:103FC000FFF7BCFC4FF00009214DDFF89080A06C9A
:103FD0000EAF03681B6898479DF80C20CDE90001DF
:103FE00021460EA8FFF724F80FCFDDE912AB0DF143
:103FF000100CACE80F000FCFACE80F003B688CF85A
:104000000030DDE90E23B3F1004F08BF002A03D0D2
:10401000D04579EB0B0313DAAA46B34601274FF4D8
:104020007A73AAFB030103FB0B11FFF7A7FF48B14B
:104030000122084B5A72084B187819B0BDE8F08F6E
:104040000027ECE7002FC2D19DF83000F5E700BF54
:10405000805101001C0A00204E0A002085510100F9
:1040600010B500200021FFF789FF10B1084B187828
:1040700010BD084C2368984720B9074B1B780BB933
:10408000064BF4E7637A0BB1054BF0E7054BEEE71F
:104090004E0A00201C0A0020540A0020800900203B
:1040A0008409002083090020022818BF00200AF09C
:1040B00041BF00002DE9FF412C4B05461F78002F22
:1040C00051D1012204AE06F8017D1A700AF0B4F94C
:1040D00007230C22264CCDE9003226493246231D07
:1040E00028460FF011FC0E2363710D232249284648
:1040F000A3714FF47A7827610FF0CAFB04F108032B
:10410000607032461D492846CDE900780FF01CFC4E
:1041100042F210733246CDE90073194904F10A03E3
:1041200028460FF011FC174928460FF0B1FB04F1A7
:104130000C03A070324614492846CDE900780FF0F0
:1041400003FC124928460FF0A3FB9DF80F30E070E6
:1041500033B10F4804F05CF95C210E48FEF71EFAFB
:104160002069FFF7A1FF04B0BDE8F081660A0020D6
:10417000380A002023C1010826C101082AC101080C
:1041800033C1010889E401083CC1010847C10108A5
:104190004CC10108B1E5010870B5294BC0B21B78CC
:1041A000984206D10FF048FD0FF09EFB254B187882
:1041B00070BD254C0FF040FDFFF77CFF94F9050022
:1041C0000CF058FC0AF0D2FD20790CF021FC0AF02A
:1041D000C3FD1E4DA0790AF0D1FD60780AF0A4FE5F
:1041E0002A6812F0010213D10421194E08463260E8
:1041F000716006F055FC306018B951211548FEF782
:10420000CDF90123144A154911482B6012F0A3FD82
:10421000134B1A680AB90E4A1A60FEF73BFCFFF707
:10422000C1F903681B68984701220E4BC3E90001DE
:104230000D4B5A72E3780BB10C4BB8E70C4BB6E759
:10424000330A002084090020380A0020080A0020D0
:10425000580A0020B1E5010800000020F9350008E7
:10426000140A0020A00000201C0A0020300A0020B0
:1042700083090020034B93F82F30022B0CBF022040
:10428000002070474001002008B5FFF7F3FF022827
:104290000CBF024B024B187808BD00BF530A002028
:1042A000520A0020054B5B8913B9054B18787047FB
:1042B000044B5B7A002BF8D1FFF7E6BF380A0020E9
:1042C000800900201C0A0020FFF7DEBF01232DE932
:1042D000F3483E4C63723E4B1B7863B10AF0D4FA4C
:1042E00048B93C4D2A6822B940F23B313A48FEF7C2
:1042F00055F92B68984700200021FFF73FFE10B1C9
:10430000364B187813E02368984798B10AF028FFD5
:10431000012871F1000306460F4633DBFEF7BAFBB6
:1043200032463B46217AFFF72EF9FFF7ADFF02B088
:10433000BDE8F0882A4B1B78002BE7D10AF0A4FADD
:104340000028E3D1274DAB89C3B1FEF7A3FBFFF7EC
:1043500029F903681B689847AB89234A234D5A43C0
:10436000D5E90067861B61EB0707D317B242BB4153
:1043700004DA40F266311848FEF710F90023637240
:104380001B4BBEE72368984770B100236468009315
:10439000ADF80430FFF7CAFD01466846A0476846FD
:1043A000FFF7B2FD134BACE70D4B1B784BB1124B33
:1043B0001B88022BE4D8002211461046FFF790FD1F
:1043C000F0E70AF061FA0028F1D1BBE71C0A0020EF
:1043D0004C0A0020180A0020B1E501084E0A00200E
:1043E000540A0020380A002080510100A00000205B
:1043F000800900204D0A0020500A00202DE9F04FCE
:104400000446574D87B0C5E90023019100230A22D5
:10441000544903A8FEF7A8F903A92046FEF74CFA71
:10442000514A8146287251492046FCF71DFA504AEC
:10443000054650492046FCF717FA4F4907462046E3
:10444000FFF78EFA4D498DF802002046FFF798F9E4
:104450004B498DF803002046FFF748FB4949824647
:104460002046FFF751FB8346474EDFF8388133780B
:1044700098F8002039462046FCF701FA434A337881
:10448000394620461278FCF7FAF9414A5B4639462C
:1044900020461278FCF7F3F93E492B460A7820466D
:1044A0003946FCF7ECF9394A2B4659462046127832
:1044B000FCF7E5F9337898F8002059462046FCF7D8
:1044C000DEF9337898F8002029462046FCF7D7F922
:1044D0002E4A3378294620461278FCF7D0F92E4A26
:1044E0009DF80230294620461278FCF7C8F9294980
:1044F0002B460A7820469DF80210FCF7C0F9274A9F
:104500009DF80330294620461278FCF7B8F92B466F
:104510004A469DF803102046FCF7B1F9204A53465D
:10452000294620461278FCF7AAF92B464A465146FE
:104530002046FCF7A4F9337898F80020514620462D
:10454000FCF79DF96D230393019B03A92046049377
:104550008DF81470FEF7B8FA07B0BDE8F08F00BF11
:104560001C0A00200DC20108CD4200081DC201082E
:10457000614000082BC2010838C2010885C001084B
:1045800090C0010844C20108810900208009002070
:1045900083090020840900204D0A0020520A0020CF
:1045A000530A00204E0A0020F8B51D460023417131
:1045B000BDF8181004460360C180174602B115B952
:1045C00023712046F8BD0749284610F0C9FA06466F
:1045D00010B920712660F4E72A46394614F0D1F864
:1045E0002571F7E727F3010810B50446006808B104
:1045F00010F0B8FA204610BD2DE9FF4142F21070CC
:104600000AF0A2FA0546002875D00778032F03D1D7
:1046100040680021FFF7B8FB384ED5F8A04033685A
:1046200023B940F2C3113648FDF7B8FF002C56D02D
:104630000022344B1A80D4E91C23134318D0324B88
:10464000D3F8008007F03CF901463048C047FEF738
:1046500021FAFEF7A7FF03685968D4E91C238847AD
:10466000D4E91C232A49C1E900232A49C1E90023CE
:10467000FEF710FAFEF796FF03681B689847264B73
:10468000264AC3E90001237AC3F3C0031370637F92
:104690002BB3237F1BB32249082010F055FA804624
:1046A00030B16289237F617F0092A26EFFF77CFFA9
:1046B000CDF80C80B8F1000F11D0002330681A46F5
:1046C00003A9006806F010FA012808D0039C34B151
:1046D0002046FFF789FF0821204610F045FA2B7A83
:1046E00013B100220F4B1A7028460BF083FF384697
:1046F00004B0BDE8F0810127F9E700BF140A0020EB
:10470000B1E50108500A0020400100206EC00108F8
:10471000A8000020B0000020A0000020540A0020C3
:1047200027F30108350A0020002310B5114C84F846
:1047300034300AF0D1F908B10AF0F0F9FFF75CFF64
:10474000012809D903280AD00B4840F2C321FDF7FC
:1047500025FF4FF0FF3001E0084B187810BDFFF740
:1047600089FD022809BF0123054B84F83430054B2D
:10477000F3E700BF40010020B1E5010884090020F3
:10478000340A0020100A0020FF2300210D4A137074
:104790000D4A13700D4A13700D4A13700D4A1370B1
:1047A0000D4A13700D4A13700D4A13700D4A1370A1
:1047B0000D4A13700D4A13700D4AC2E900111372AD
:1047C000704700BF320A0020310A0020330A00205F
:1047D0004E0A00204D0A0020530A0020520A0020F1
:1047E000300A0020340A0020100A0020110A00209C
:1047F0001C0A002010B1012110F0B6B9704710B5A5
:104800000446006BFFF7F6FF606A10B1042110F058
:10481000ABF9A06910B1042110F0A6F9204610BD33
:104820007FB500240E4601A82146CDE9014403943A
:1048300012F048FA051E04DA29460F4803F0E8FD95
:104840000EE001A9304612F0A7F808B1F36953B998
:1048500029460A4803F0DCFD284612F009FA002434
:10486000204604B070BD284612F002FA0446002823
:10487000F6D129460248E1E72CC4010853C40108D7
:1048800089C40108F8B506460F460024094D39468B
:104890003046FFF7C5FF50B90134E4B20F2CF6D90A
:1048A00011F0C6FF31212846FDF778FEEFE7012021
:1048B000F8BD00BFB1E501082DE970430646406927
:1048C00088B003680C461B6898471C2280468946BE
:1048D00001A8002113F079FFE3886079ADF8183062
:1048E00009F032FBB8F1010F8DF81D0079F10003DA
:1048F0002079A8BFCDF8088003F026FE054628B32E
:104900002279216813F03DFF607909F025FB4128E9
:104910008DF81E0005D042281BD0114803F078FD09
:1049200011E02179284611F055FD0446024629463A
:1049300006F1180011F020F980B1002301AA2146E8
:10494000284612F06FF8284603F0E8FD08B0BDE8ED
:1049500070832179284611F058FDE6E70148DDE72C
:10496000F1C301080FC4010882B073B50D461646A5
:10497000002110220446079313F027FF00216561F0
:104980002174282204F118000E4D13F01EFF04F1CB
:1049900040030BAA07CA83E807002A781AB96821DE
:1049A0000948FDF7FBFD00232B700A9B304600935E
:1049B00007AB0ECB11F058FF204602B0BDE87040A7
:1049C00002B07047B8000020B1E5010882B070B5B0
:1049D000144C86B00E460AA981E80C0023680546EF
:1049E000DB0716D403AB0EAA07CA83E807000BAB9C
:1049F00093E807000A9B8DE80700324629460A48DB
:104A0000FFF7B2FF0123094A09490748236012F062
:104A1000A2F90548074B186006B0BDE8704002B027
:104A2000704700BF680A0020700A002000000020C4
:104A3000FF4700086C0A002010B5044C22681AB920
:104A400075210348FDF7AAFD206810BD6C0A0020FF
:104A5000B1E501082DE9F84F037C04468A461BB9ED
:104A60007A213248FDF79AFD606903681B68984710
:104A7000BAF1020F804689460CD1002763222688AE
:104A80002B4D56EA070310D12946BDE8F84F2948B7
:104A900003F0BEBCBAF1010F04D16688002773226F
:104AA000254DEEE72D22254DEEE7236C5046984725
:104AB0003046394603F042FC29460246204803F0BE
:104AC000A7FC18EB060A1F4E49EB070B6069036849
:104AD0001B689847504571EB0B03074688461CDA64
:104AE000BAEB07006BEB080103F028FC29460246ED
:104AF000304603F08DFC636C4FF47A70984707469C
:104B00000028E3D001462046FFF7D6FE386803F0C0
:104B100005FD384603F002FDD8E7A36C9847294607
:104B2000BDE8F84F084803F073BC00BFB1E50108C9
:104B3000B4C40108BDC40108BAC401081FF60108C5
:104B4000F7C4010833C501085FC501082DE9FF411D
:104B5000002748F6A04805460C4604AE06F8017D3D
:104B60000B463246CDE9007810490EF0EDFEA31C4D
:104B700032462846CDE900780D490EF0E5FE0D4994
:104B800028460EF0A8FE0C49606028460EF0A3FEF1
:104B90000A49A06028460EF09EFEE0609DF80F00D6
:104BA00080F0010004B0BDE8F08100BF4FC20108F1
:104BB0005BC2010867C201086FC2010879C201081F
:104BC00070B505460C460FC985E80F0005F11806BB
:104BD0006168304611F052FAA168304611F0C8FA07
:104BE000E168304611F03AFB01232B7470BD0000E0
:104BF0004FF4967330B504468DB0254A00930221D8
:104C0000244B02A8FBF73EFB02A920460FF0A0F8B8
:104C100002A8FBF79BFA00231F4A009302211F4BB7
:104C200002A8FBF72FFB1E4D02A920460FF090F8BB
:104C300002A8FBF78BFA1B4B1B4A0095032102A825
:104C4000FBF7F8FA02A920460FF082F802A8FBF75A
:104C50007DFA164B164A0095032102A8FBF7EAFAE3
:104C600002A920460FF074F802A8FBF76FFA114B67
:104C7000114A0095032102A8FBF7DCFA02A920469D
:104C80000FF066F802A8FBF761FA0DB030BD00BF67
:104C90004FC2010883C201085BC20108C3C20108F8
:104CA000B1E5010803C3010867C2010849C301084F
:104CB0006FC2010899C3010879C20108002103E00D
:104CC0000A4B5B584350043109480A4B42189A4238
:104CD000F6D3094A02E0002342F8043B074B9A420C
:104CE000F9D300F00DF8FBF7E9FE704784F80108EE
:104CF00000000020E8050020E8050020981A0020A8
:104D0000314B82B01A6842F480721A6099682F4A57
:104D10000A409A601A6822F0885222F001121A6042
:104D20001A6822F480221A609A6822F47D029A603E
:104D30000022DA6001921B6813F4007318BF01238C
:104D40000193019B012B37D14FF48051204B1A68FE
:104D5000A3F5806322F00102C3F80024D3F80024F5
:104D600022F00202C3F80024D3F8002422F0040247
:104D7000C3F800245A6A42F080525A62154A116000
:104D80005168C906FCD49A689A609A689A609A68D1
:104D90009A605A6822F460425A605A6842F440426B
:104DA0005A609A6822F003029A609A689A60064AEA
:104DB000936813F00C0FFBD14FF00062064B9A6022
:104DC000064ADA6002B07047003802400CC0FF8823
:104DD000003C02400070004000ED00E00003FA05D6
:104DE00070B5064688B02E4801F0A6FB2D4B1A6818
:104DF0000092009A91073CD501214FF4007001F018
:104E0000F5FD012001F0E8FB274A536843F4003325
:104E10005360A2F5374253681B07FCD500240125D7
:104E200002A801F0C3FB02A91D488DF80D400694AD
:104E30008DF81C508DF80C4001F092FB2A46062399
:104E40003146174801F0D4FB2946154801F0BAFB5A
:104E50000221134801F05EFC114801F04DFC134D96
:104E600001940F4C0221204601F04EFC58B108B0CD
:104E700070BD1A6842F001021A60009A9207BBD412
:104E80001A680092F9E7019B01330193019BB3F586
:104E9000805FE7DB38212846FDF780FBE2E700BFB3
:104EA000002401400038024000270140B1E501081C
:104EB00008B5002001F090FB0021074801F082FBBB
:104EC00000214FF4007001F091FD044A136823F0B3
:104ED0000103136008BD00BF0024014000380240F8
:104EE00013B5072301220146114801F081FB02217D
:104EF0000F4801F00FFC0E4801F0FEFB00230D4CA3
:104F0000019302210A4801F0FFFB28B1084802B0D2
:104F1000BDE8104001F0F5BB019B01330193019BFB
:104F2000B3F5805FEDDB4C212046FDF737FBE8E76A
:104F300000240140B1E5010870B506460825FFF7D9
:104F40004FFF00243046FFF7CBFF013D0444F9D169
:104F5000FFF7AEFFC4F3CF0070BD000000000000FB
:104F600008B51120FFF7E8FF12F0D0FD0146084810
:104F700012F0D8FE12F0B2F903A3D3E9002312F025
:104F800005FA12F0BDFC08BD2FDD24068195F33F24
:104F900000F07F450F4A536A43F0805353620E4B33
:104FA0001A465968C906FCD41B68022823F4C0536A
:104FB00006D143F4C05313605368DB06FCD470473A
:104FC000012802D143F48053F5E70028F3D143F4DC
:104FD0000063F0E7003802400070004010B50C4B51
:104FE0005A68D206FCD41C6814F4C05F0BD114F4C8
:104FF00080500AD114F4006404D106482A21FDF738
:10500000CDFA204610BD0220FCE70120FAE700BFE0
:1050100000700040B1E5010838B50546012001F0F7
:1050200089FB022D01BF154A136843F00103136089
:10503000134B1A6842F480321A601A689203FCD546
:1050400042F690529A6099689142FCD19A6842F077
:1050500002029A600A4B9C6814F00804FBD14FF4DA
:1050600080321A60074B084A28461A60FFF792FF01
:105070002046BDE8384001F051BB00BF003C024073
:1050800000380240BC00002000093D0038B505464C
:10509000012001F04FFB022D01BF144A136843F0B9
:1050A00001031360124B1A6842F480721A601A6886
:1050B0009205FCD55A6822F4604242F440425A609C
:1050C00000229A600A4B9C6814F00C04FBD14FF448
:1050D00080721A60074B084A28461A60FFF75AFF89
:1050E0002046BDE8384001F019BB00BF003C02403B
:1050F00000380240BC000020D0FE3F000C4B5A6B31
:10510000900513D45A6A42F080525A62094A1168D3
:1051100041F480711160596B41F480715963596B8E
:105120008905FCD5136823F480731360704700BFB2
:105130000038024000700040054B5A6B910706D4BE
:105140005A6B42F001025A635A6B9207FCD57047C2
:1051500000380240094B5A6A42F020025A629A69AA
:1051600042F020029A619A6922F020029A6100229C
:10517000A3F509331A801A855A6270470038024035
:1051800015210238002248430121064B1A85D862B6
:1051900099825A621A8219801A8AD207FCD5002293
:1051A0001A80704700140040002349F6FE7282B056
:1051B0000193019B934201DD02B07047019B0133D3
:1051C0000193F6E7002340F6FE7282B00193019B43
:1051D000934201DD02B07047019B01330193F6E772
:1051E000002382B00193019BB3F5CC7F01DD02B0B7
:1051F0007047019B0133F5E7D0B1012801D1FFF7DA
:10520000EFBF0C4B00211A684FF47A73B2FBF3F234
:10521000094B013A92B21A8501220138D8629A826A
:10522000596219821A801A8AD207FCD500221A8084
:10523000704700BFBC0000200014004000F177431D
:1052400003F57803B3F5804F2DE9F04106460C468F
:1052500017462DD202F1F73303F608030344B3F5E2
:10526000804F25D2FFF7BAFE804610B10020FFF72D
:1052700091FE01F077FA01252744361BA7420AD197
:1052800001F080FAB8F1000F02D04046FFF782FE2D
:105290002846BDE8F08141F6027001F07BFA301932
:1052A00014F8011B01F0D2FA042818BF0025E5E725
:1052B0000025EDE710B50C4600F1774101F57801C6
:1052C000B1F5804F0DD202F1F73303F60803034422
:1052D000B3F5804F05D20146204613F052FA012063
:1052E00010BD0020FCE7000008B5114B984215D016
:1052F00003F58063984213D003F58063984211D080
:1053000003F5806398420FD003F5006398420DD0F7
:10531000084B094A1421094813F016F8002008BD6B
:105320000120FCE70220FAE70320F8E70520F6E772
:1053300000000240C7C5010881C50108E0C5010899
:105340000F2808B505D9094B094A3B21094812F035
:10535000FBFF012303FA00F0C043074A51680140F4
:10536000516013681840106008BD00BF1FC60108D7
:105370008BC50108E0C50108000401400F292DE993
:10538000F84F82460D4693461F4605D95A4B5B4A55
:1053900054215B4812F0D8FF4FF0010909FA05F9D2
:1053A00000F0B8F86FEA0903564E032D7268564CA8
:1053B00002EA03027260326803EA0203534A33606E
:1053C000136A43F0010313622ED80F22A3684FEA39
:1053D000850802FA08F223EA0203A3605046FFF7A9
:1053E00083FFA36800FA08F01843A0601BF0020FC7
:1053F00018BFB368464A1CBF43EA0903B3601BF0F9
:10540000040F1EBFF36843EA0903F360336843EAFD
:10541000090333603B01DBB2002D45D182F806332E
:1054200040231360BDE8F88F072D13D80F22A5F194
:105430000408E3684FEA880802FA08F223EA020344
:10544000E3605046FFF750FFE36800FA08F01843A6
:10545000E060CBE70B2D13D80F22A5F108082369D4
:105460004FEA880802FA08F223EA02032361504651
:10547000FFF73AFF236900FA08F018432061B5E707
:105480000F22A5F10C0863694FEA880802FA08F2B6
:1054900023EA020363615046FFF726FF636900FABF
:1054A00008F018436061A1E7012D03D182F80733AA
:1054B0008023B6E7022D04D182F808334FF48073BD
:1054C000AFE7032D04D182F809334FF40073A8E746
:1054D000042D04D182F80A334FF48063A1E7092D2B
:1054E00004D882F817334FF400039AE782F8283380
:1054F0004FF48073536095E72BC60108A6C50108D9
:10550000E0C50108000401400000014000380240ED
:1055100000E100E0144B984205D1144AD36943F0EE
:105520000103D3617047124B984204D10F4AD369EB
:1055300043F00203F5E70F4B984204D10B4AD369BD
:1055400043F00403EDE70C4B984204D1074AD369BA
:1055500043F00803E5E7094B9842E3D1034AD369D6
:1055600043F02003DDE700BF0000024000380240A6
:105570000004024000080240000C024000140240F7
:105580000323490010B584688B4024EA0304846037
:105590000124022A04FA01F407D0032A0DD0012ABB
:1055A00007D183682343836003E083688A401A43FA
:1055B000826083681C43846010BD82681343F2E7F5
:1055C0000F29F8B504460F4615461E4603D94B2150
:1055D0001948FCF7E3FF2046FFF79CFF03237A00FE
:1055E0009340DB432168194021600121D4F800C0B9
:1055F00001FA02F04CEA000CB940C4F800C009B24C
:1056000066B1A688314389B2A180E168012D03EA21
:105610000103E36006D0022D08D0F8BDA68826EA73
:105620000101F1E7E3680343E360F6E7E36805FAA5
:1056300002F21A43E260F0E7B1E501080F2970B504
:1056400005460C46164603D96B210E48FCF7A6FF0B
:105650002846FFF75FFF032361008B40DB43EA68C6
:10566000012E02EA0302EA6005D0022E03D02A6866
:1056700013402B6070BDEA6806FA01F11143E9603E
:10568000F5E700BFB1E501080F2910B505D9074BB3
:10569000074A8121074812F057FEFFF73BFF4B00F6
:1056A0000321026899401143016010BD1FC6010823
:1056B00037C601087BC601080F2938B504461546D0
:1056C00005D987211B4B1C4A1C4812F03DFE0F2AAE
:1056D00003D91B4B184A8821F6E7FFF71BFF072960
:1056E0004FF00F0318D8006A8A00934020EA0303A2
:1056F0002362236A05FA02F21A4322620322236814
:1057000049008A4023EA020323600223226803FA45
:1057100001F11143216038BDA1F10802406A9200F5
:10572000934020EA03036362636A95401D43656208
:10573000E4E700BF1FC601084AC601087BC601088E
:1057400068C60108012303FA01F189B20183704799
:10575000012303FA01F189B241837047012303FA5F
:1057600001F189B20AB10183704741837047008A11
:10577000084100F0010070470F2938B505460C4676
:1057800003D9B4210548FCF709FF28686400E0400C
:1057900000F00300431E5842584138BDB1E50108EE
:1057A000808A084100F001007047000010B5084CE5
:1057B00023681BB9012005F03BFA206023682BB950
:1057C000BDE8104036210348FCF7E8BE10BD00BF1D
:1057D000BC0A0020B1E5010810B50B4C22681AB9CB
:1057E0003C210A48FCF7DAFE206842F2107105F00D
:1057F00067FB01280CBF0124002403D0402103488B
:10580000FCF7CCFE204610BDBC0A0020B1E5010823
:1058100010B5074C22681AB951210648FCF7BEFEA4
:10582000002320681A46BDE81040194605F05CB90F
:10583000BC0A0020B1E5010810B50446FFF7B6FF29
:10584000FFF7CAFF21461022034801F0AFFD0446CE
:10585000FFF7DEFF204610BD0054004010B5FFF7F3
:10586000A5FFFFF7B9FF01F059FD0446FFF7D0FF90
:10587000204610BD08B513460A460146034801F00C
:105880008DF9003018BF012008BD00BF0054004052
:1058900008B513460A460146034801F07FFA003076
:1058A00018BF012008BD00BF0054004008B51346D2
:1058B0000A460146034801F04DFB003018BF0120A5
:1058C00008BD00BF0054004008B513460A46014613
:1058D000034801F0CFFB003018BF012008BD00BF16
:1058E0000054004008B513460A460146034801F03B
:1058F00019FC003018BF012008BD00BF0054004053
:105900000123064A83405169194205D05361044B73
:1059100053F8203003B11847704700BF000401401E
:10592000C00A00200F2838B504460D4603D92621A9
:105930000348FCF733FE034B43F8245038BD00BF47
:10594000B1E50108C00A00200020FFF7D9BF0120FF
:10595000FFF7D6BF0220FFF7D3BF0320FFF7D0BF6A
:105960000420FFF7CDBF08B50920FFF7C9FF0820C5
:10597000FFF7C6FF0720FFF7C3FF0620FFF7C0FFB2
:10598000BDE808400520FFF7BBBF08B50F20FFF7B3
:10599000B7FF0E20FFF7B4FF0D20FFF7B1FF0C207B
:1059A000FFF7AEFF0B20FFF7ABFFBDE808400A2072
:1059B000FFF7A6BFFEE7FEE7FEE7FEE7FEE7FEE72E
:1059C000FEE7FEE7FEE7FEE7FEE7FEE7FEE7FEE7AF
:1059D000FEE7FEE7FEE7FEE7FEE7FEE7FEE7FEE79F
:1059E000FEE7FEE7FEE7FEE7FEE7FEE7FEE7FEE78F
:1059F000FEE7FEE7FEE7FEE7FEE7FEE7FEE7FEE77F
:105A0000FEE7FEE70A23B0FBF3F203FB120040EAD5
:105A10000210C0B270470000CA22024B5A625322E1
:105A20005A62704700280040014B1860704700BF61
:105A3000000B00204FF400320F4B10B50F4C5A6191
:105A4000E368DB0503D430210D48FCF7A7FDFFF721
:105A5000E3FF4FF40072A36823F48853A360094B5B
:105A6000C3F88420FF236362074B1B6813B1BDE8B2
:105A70001040184710BD00BF00040140002800403E
:105A8000B1E5010800E100E0000B00202DE9F04F36
:105A90009846374B85B01B78824691469DF8387002
:105AA0009DF83C602BB9334B334A8C21334812F0BC
:105AB0004BFC431E1E2B59D80C2957D8A2F5FA636C
:105AC000632B53D8B8F1170F50D83B2F4ED83B2E2D
:105AD0004CD802F13000C0B2FFF794FF834608466D
