:020000040800F2
:10000000008000205D4B0008E15700081D23000818
:10001000E3570008E5570008E75700080000000014
:1000200000000000000000000000000041A30008E4
:10003000E957000800000000D1A3000815A400083B
:10004000EB570008ED570008EF570008F15700087C
:10005000F3570008F5570008755700087B5700084C
:1000600081570008875700088D570008F757000888
:10007000F9570008FB570008FD570008FF57000814
:1000800001580008035800080558000807580008E0
:10009000095800080B5800080D580008935700082D
:1000A0000F58000811580008135800081558000888
:1000B00017580008195800081B5800081D58000858
:1000C0001F58000821580008235800082558000828
:1000D00027580008995F000879610008295800082E
:1000E000B7570008615800082B5800082D58000821
:1000F0002F58000800000000000000000000000071
:1001000000000000000000005FF808F110B5054C89
:10011000237833B9044B13B10448AFF300800123B3
:10012000237010BD78040020000000002CF40108AA
:1001300008B5034B1BB103490348AFF3008008BD6A
:10014000000000007C0400202CF4010808B501F038
:10015000B7F8BDE8084001F0E9B808B501F0B0F81B
:1001600008BD08B501F0ACF8503008BD0048704734
:100170004D01000808B501F0A3F8643008BD10B5C2
:1001800001F09EF8044603680121DB689847236864
:1001900020461B694FF4FA71984723682046BDE852
:1001A0001040DB680021184708B501F089F8BDE868
:1001B000084001F037B908B501F082F8BDE8084001
:1001C00001F0F4B910B5044601F07AF80146204672
:1001D00001F050FB204610BD08B5034807F0CAFFE8
:1001E000BDE8084005F0F8BFC7AA010805F0F4BF54
:1001F00010B50446C06910B1012113F041FF206918
:1002000010B1012113F03CFF204610BDF8B50025C8
:10021000C0E901120570C0E90335C0E90555C0E920
:100220000755456206990446164600F11C0711F071
:10023000A3FE38B93146074807F09CFF2021064845
:1002400001F0EEFF069A3946204611F07FFE204667
:10025000F8BD00BFE5AA010810AB0108F8B50025FC
:10026000C0E901120570C0E90335C0E90555C0E9D0
:100270000755456206990446164600F11C0711F021
:1002800029FF38B93146074807F074FF2021064896
:1002900001F0C6FF069A3946204611F0E5FE2046D9
:1002A000F8BD00BFE5AA010810AB01082DE9F04137
:1002B00000259DF81860C0E901120570C0E90335FA
:1002C000C0E90555C0E90755456231460446174661
:1002D00000F11C0811F064FD38B93946074807F0F1
:1002E00049FF2021064801F09BFF32464146204647
:1002F00011F044FD2046BDE8F08100BFE5AA0108E9
:1003000010AB010870B5AEB012F032FF0546002602
:1003100012A808ACFFF756FF12A928460DF0ECFD15
:10032000674B684A009602212046FFF76FFF21467F
:10033000284612F0C3FF2046FFF75AFF3223624AD5
:1003400000930221614B2046FFF760FF21462846BB
:1003500012F0B4FF2046FFF74BFF5D4B5D4A1B6870
:100360000321009320465C4BFFF778FF2146284687
:1003700012F0A4FF2046FFF73BFF3C23574A0093AF
:100380000221574B2046FFF741FF2146284612F035
:1003900095FF2046FFF72CFF524B534A0096012150
:1003A0002046FFF783FF2146284612F087FF2046AC
:1003B000FFF71EFF4D4B4E4A009602212046FFF7E5
:1003C00025FF2146284612F079FF2046FFF710FF4F
:1003D000484B494A009601212046FFF767FF214616
:1003E000284612F06BFF2046FFF702FF434B444ABA
:1003F000009602212046FFF709FF2146284612F009
:100400005DFF2046FFF7F4FE4FF416733D4A00935C
:1004100002213D4B2046FFF7F9FE2146284612F007
:100420004DFF2046FFF7E4FE384B394A1B68032195
:1004300000932046374BFFF711FF2146284612F064
:100440003DFF2046FFF7D4FE334B344A1B6803219F
:1004500000932046324BFFF701FF2146284612F059
:100460002DFF2046FFF7C4FE2E4B2F4A0093032199
:100470002E4B2046FFF7F2FE2146284612F01EFFC3
:100480002046FFF7B5FE2846294B2A4A2A4912F092
:10049000DDFD0121294B2A4A08932A4BCDE905129B
:1004A0000993294B07960A9305AB93E807008DE85B
:1004B00007000B9694E80F0013F0F8F82EB070BD0B
:1004C00020A7010851A7010887A701085FA7010815
:1004D00004000020DAA7010896A7010825A8010852
:1004E000E5A7010831A8010870A8010883A8010840
:1004F000C3A80108CFA80108FAA8010807A90108A4
:100500004FA9010882A9010860A90108080000207C
:10051000D9A9010893A901080C00002031AA0108FB
:10052000E1A901082FDE010893AA01083BAA0108EE
:10053000ED0100089DAA0108C1AA0108E1500008C8
:100540000000080869500008D901000810B5084CDF
:1005500022681AB99021074801F062FE064B1A681A
:100560002368B2FBF3F003FB102303B1013010BD8D
:100570008807002081AD010884070020F8B5FFF747
:10058000F0FD03681B6898470E4B1B78B3B90E4B00
:10059000D3E90023B3F1004F08BF002A10D0002791
:1005A0000A4E841A61EB0305A64277EB050407DBCC
:1005B000904271EB0303B4BF012300231846F8BD3A
:1005C0000123FBE7A0060020280000204351010082
:1005D00038B502F036FF03F099FF022103F0A4FFC3
:1005E00004460D4603F084FB012C75F100030ADB81
:1005F00002F068F805492B462246097802F007FD0B
:10060000034B187838BD034BFBE700BFAC07002055
:10061000DF080020DC080020F8B54FF00047002676
:10062000174C15F0C7FBD4E90023BB4208BFB24208
:1006300023D002F047F830CC1249621C45F1000388
:10064000097802F0F2FCB94208BFB04204460D46F8
:1006500013D0FFF786FD03681B689847A04271EB33
:1006600005030ADB2946204607F004FD014606483B
:1006700007F080FD054B1878F8BD054BFBE700BF80
:1006800030000020A40700200EAC0108DF08002085
:10069000DC08002010B50020002103F071F90446A9
:1006A00028B90F4807F066FD0E4B187810BD417948
:1006B0000D4807F05FFD617980290DD10B4B227940
:1006C0002168186812F0F4F8204603F0BDFC0821F8
:1006D000204613F0D5FCE7E7054807F04BFDF3E7AC
:1006E00069AC0108DC08002071AC0108A8070020F3
:1006F0007AAC010810B5FFF757FD0B49044616F018
:1007000085FD16F06FFF094B1880FFF754FD084B6D
:10071000084A18804FF0804120460EF0DFFABDE80D
:1007200010400EF005BB00BF00007A443A000020E4
:1007300038000020CDCC4C4008B5084807F01AFD21
:10074000FFF70FFD03681B689847054BC3E90001DD
:10075000FFF7D0FF034B187808BD00BF3CAC010881
:1007600030000020DC0800202DE9F0434C4C93B011
:100770002368DB0708D412F015FD802201464948A2
:1007800011F002FE01232360474B464A474D1A6091
:100790002B68474C13F0010F04D1FFF7EBFC01234A
:1007A00020602B60206803681B689847054620B9C5
:1007B00040F20B113F4801F033FD3F4B0D933F4B8F
:1007C0000B933F4B0A933F4B0C933F4B07933F4B8D
:1007D00009933F4B089312F0E5FC00233D49044682
:1007E0000E9312F06DFB3C498146204612F082FBCD
:1007F0003A498046204612F07DFB3949074620469B
:1008000012F078FB0646FFF7ACFC844602AB07AA61
:1008100007CA83E807000CAB93E803008DE80300E8
:100820000AAB60460CCB294603F03AFE0546CDE9FB
:100830000F878DF83890119612AB13E90F0085E8F9
:100840000F0001232B7403F061FE054615F0B2FA88
:100850002449204612F057FB05F528750146284625
:1008600014F0BAFE2049204612F04DFB01462846FE
:1008700014F02CFF1D49204612F045FB0146284686
:1008800014F09AFF1A49204612F01AFB0DF0C6F92F
:10089000FFF730FF174B187813B0BDE8F08300BFA7
:1008A000940400208C070020A80700209804002052
:1008B0009C07002081AD010875810008F908000837
:1008C0001509000831090008F1DD000891DD000874
:1008D00055DE0008FAA8010825A80108C3A80108E8
:1008E00082A90108D9A9010831AA010893AA01081F
:1008F00070A80108DC080020054B30B41C68236890
:100900009D681346AC460A460146204630BC604707
:100910009C070020054B30B41C6823685D681346B3
:10092000AC460A460146204630BC60479C07002082
:10093000034B01461B681A6818461269104700BF2E
:100940009C07002038B502F07CFD03F0DFFD01219B
:1009500003F0EAFD04460D4603F0CAF9012C75F1D7
:1009600000030ADB01F0AEFE09492B462246097856
:1009700002F04DFB074B187838BD15F002FD28B981
:10098000054807F0F7FB0122044B1A70044BF2E70D
:10099000AC070020DF080020B5AB0108A00600204E
:1009A000DC0800207FB52E4B1B685B6813B101206B
:1009B00004B070BDFFF7E2FD0028F8D1294C26688D
:1009C000002E39D115F0C9FC002833DD03F09EFD5F
:1009D00003F0A6FC0546002840D04FF400722249DF
:1009E000684613F0B0FA01238DF80C301F4B1B78CA
:1009F000012B04D16A683346684613F0EAFAD5E958
:100A00000721684613F0ACFA684613F0D4FA206068
:100A1000284615F083FA0022154B68461A6013F039
:100A2000C8FA0546684613F0C6FA29460246114838
:100A300013F040FA236863B115F0A3FC054615F0E6
:100A40008CFC2D1A15F09DFC294602460A4807F039
:100A500091FB2068003018BF0120A9E72060E9E77A
:100A6000A807002084070020A00400207F070020A2
:100A700080070020100000204CAC01081FB5612346
:100A8000CDE9013101A9039201F036FE05B05DF810
:100A900004FB07B58DF8041001A98DF805208DF829
:100AA000063001F0E9FE03B05DF804FB2DE9F04FDC
:100AB00087B0FFF752FB044614F0B2FA204614F058
:100AC000C5FAFFF71FFCFA200AF050FF12F06AFB8C
:100AD000044611F05FFF204603F002F8A3492046C8
:100AE00012F008FA012800F230810025A04B18709E
:100AF000A049204612F0FEF9A0F10A03282B00F2CB
:100B000029819D4B1860002D40F027819B4D9C480A
:100B100007F030FB2B689B4C13F0010F04D101F060
:100B2000D1FD012320602B602568FFF71AFB0146E9
:100B3000284601F099FC2568FFF718FB0146284676
:100B400001F094FC12F02EFB8F49256812F0DBF9BE
:100B50008E49024603A801F071FC03A9284601F062
:100B6000C7FC8B4B2568187000220023894903A815
:100B700001F016FC03A9284601F0BAFC864A874911
:100B80001070874A2068FFF779FF8DF8070020680A
:100B900002F076FC834A824683492068FFF76EFFA5
:100BA0004FF000097025814B064603A92068049385
:100BB00003958DF8149001F09FFD7D4A8DF8050096
:100BC0007C492068FFF75AFF7B4B804603A92068C9
:100BD000049303958DF8149001F08EFD774A8DF8FB
:100BE000060077492068FFF749FF764B8346764A2F
:100BF0007649206803F032F9754A0746754920683E
:100C0000FFF73CFF744A8DF8020074492068FFF733
:100C100035FF5F4B8DF803001A787149206802F0A8
:100C200071FD9DF807508DF804002068534680F848
:100C300028506C4D9DF807102A78FFF72AFF6A4A62
:100C40005146DFF8BCA1334620681278FFF721FF38
:100C50009DF805309AF8002031462068FFF719FF0B
:100C60004D4933460A7820689DF80510FFF711FFBB
:100C700043462A7831462068FFF70BFF9DF806307F
:100C80009AF8002041462068FFF703FF4249434697
:100C90000A7820689DF80610FFF7FBFE3B462A788D
:100CA00041462068DFF85C81FFF7F3FE3B462A7877
:100CB0009DF802102068FFF7ECFE9DF8023098F8CE
:100CC000002039462068FFF7E4FE9DF803302A78BB
:100CD00039462068FFF7DDFE5B469AF800209DF854
:100CE00003102068FFF7D5FE9DF804302A789DF8A0
:100CF00003102068FFF7CDFE9DF8023098F8002021
:100D00009DF804102068FFF7C4FE214A5B469DF859
:100D1000041020681278FFF7BCFE33462A78594643
:100D20002068FFF7B6FE206801F04EFF2F4807F05D
:100D300021FA01224FF49671206801F0DFFE484647
:100D40000AF096FB07B0BDE8F08F294807F012FAC9
:100D50000125CDE6274807F00DFA274807F00AFAE3
:100D60004FF4EB71254801F05BFACFE651A701087B
:100D70007F07002087A70108880700209C04002027
:100D8000F3AC0108A0070020DAA7010810AD0108A4
:100D9000A407002015AD0108AC07002024B7010806
:100DA00069070008D10500081FAD010829AD010839
:100DB0004509000834AD01083EAD010839070008B7
:100DC00049AD0108990F0008A509000850AD0108B8
:100DD00095060008AEB50108190600085DAD0108CA
:100DE000F9B60108DC080020E008002067AD010822
:100DF0009AAC0108BDAC0108E0AC010881AD010866
:100E0000DF0800209109002030B5012585B00A4691
:100E100004461949684613F096F8022168468DF891
:100E20000C5013F0BBF80321684613F0B7F8062105
:100E3000684613F0B3F8114B6846198813F0D5F8DB
:100E40000F4B6846B3F9001013F0B7F80D4B197843
:100E500011B1002229461A70684613F09FF86846BF
:100E600013F0A7F80546684613F0A5F8012325609E
:100E70006371207105B030BDA10600203A0000204A
:100E800038000020A00600202DE9F743384B8046AB
:100E90001D780A4645B1012D59D0D521354803B0FA
:100EA000BDE8F04301F0BCB9FFF750FB324C334FC3
:100EB0002368984246D93D68314A05FB0325314BEA
:100EC0001E68FFF743FB2268904292BF00233B68F5
:100ED0005343F61A3B689E4228BF1E461EB9B521F1
:100EE000244801F09DF90A27236803FB0777FFF7E1
:100EF0002DFB2168074401F10109FFF727FBFBB235
:100F000002460093494633461F4807F033F93146FD
:100F1000284607F095F91D4807F02CF9236888F852
:100F200005700133C8F8005088F804602360FFF7AB
:100F30000DFB2368984202D10022124B1A6003B0C5
:100F4000BDE8F083B3210B4801F06AF9B7E7104D13
:100F5000104C2946204612F07FFF652388F80400D4
:100F600088F80530D4E90223C8F800509A42E2E735
:100F70007F07002081AD010880070020880700203E
:100F8000A004002084070020D3AB01082EDE010856
:100F9000A106002010000020F7B5194F04463B6859
:100FA0000D465B688BB1174E174807F0E3F80DF15B
:100FB00007032A463146386811F036FA9DF80730A3
:100FC00026606371207103B0F0BDFFF7D7FA78B1E6
:100FD0000E4807F0CFF8FFF7C4F803681B6898477E
:100FE0000B4BC3E9000129462046FFF70DFFEAE756
:100FF000084807F0BFF829462046FFF745FFE2E71B
:10100000A8070020A106002057AB01087DAB01080E
:10101000280000209AAB010813B5FFF79EF803687B
:1010200000249B689847FFF7AAF801234FF49672B3
:101030000B49CDE900340B4823460AF02BF90A4846
:1010400007F098F8094807F095F80AF0FDFA40F221
:101050000221074801F0E4F8204602B010BD00BFAD
:10106000C5AD0108AD0A0008CEAD0108E1AD01082B
:1010700081AD0108FF23024A1370024A13707047C2
:10108000AC070020A40700207047000038B50A4CC8
:1010900005460121204604F06BFA002320461A463B
:1010A000012104F0A3F985F001022046BDE8384093
:1010B000012104F069BA00BF0000024008B5012018
:1010C000FFF7E4FFBDE80840032005F095B80846A7
:1010D000FFF7DCBF10B50446682112F0D1FF2046AF
:1010E00010BD0000024B0121186803681B681847F7
:1010F000BC070020021C18BF01220321014804F094
:1011000043BA00BF0004024010B50C460AF016FEB8
:10111000022808D14FF47A704443B4FBF0F0BDE8E4
:1011200010400AF023BC2046BDE8104003F07ABF0F
:101130000321014804F031BA0004024010B5094C03
:10114000094807F017F820460B2104F011FA002394
:1011500020461A460B2104F049F9BDE8104003F07F
:1011600047BF00BF000002401FB1010808B50220C0
:1011700003F0A2FE03F004FF00F02EFC03F02AFFB0
:1011800000F03CFE04F08EFC0C4801F013F84FF424
:10119000E13004F0E5FF0A4B1A680AB9094A1A60FF
:1011A000094B1A680AB9074A1A60084806F0E2FFB4
:1011B000BDE80840064806F0DDBF00BFBD100008CE
:1011C0005C0D002001600008600D00207AAE01086F
:1011D00092AE0108F7B5044613F018FF22461F4BE4
:1011E0001F4E42F83C3B0023E36353601D4A84F8E2
:1011F0004C3062641C4AC4E91633A2641B4A84F86A
:10120000603022651A4B1B4A636662651A4806F015
:10121000B1FF3368194F01933B68194D00932B6858
:10122000184A1B2104F1210017F09CFB296804F1E6
:10123000110007F0F7F8396804F1150007F0F2F82B
:10124000316804F1190007F0EDF8296804F11D0078
:1012500007F0E8F8204603B0F0BD00BF84B10108F4
:101260006400F81F70B2010804B3010834B3010828
:10127000A8B2010820B3010853B101085400F81FB7
:101280005000F81F68B1010810B5094CFFF76EFF58
:101290002368DB0709D40748FFF79CFF0123064AB0
:1012A00006490448236015F07EF8024810BD00BFCF
:1012B000B4070020C00700200000002089100008AB
:1012C00038B5064D064C2B6813F0010F04D1FFF71B
:1012D000DBFF012320602B60206838BDB8070020A9
:1012E0002808002008B50B21054804F05BF928B157
:1012F000BDE808400B21024804F068B908BD00BFF2
:101300000000024008B519B1BDE80840FFF716BF5C
:10131000044806F02FFFBDE8084002220B210248D6
:1013200004F0A2B83BB1010800000240F8B5044641
:10133000374804F1440506F01DFF2846002100F05F
:1013400085FD0021284600F097FD324D204613F020
:101350008DFE0CF01DFD0DF0C3F920460021FFF7B6
:10136000D1FF0BF0DBFA13F051F9012228460C21D2
:1013700004F07AF804F0B4FC23682046DB6804F13A
:10138000540600219847244F0021304600F078FE93
:1013900004F07AF9214806F0EDFE04F0CFFD03F0E9
:1013A00019FE384601220D2104F05EF8012238466C
:1013B0000E2104F059F80021084604F04FFC04F116
:1013C000480000F0EDFD0121304600F059FE4FF4D9
:1013D000E13004F0C5FE124806F0CCFE28460C2190
:1013E00004F0C6F8002328461A460C2103F0FEFF3D
:1013F0000120002104F098FC13F01AF90BF0B4F965
:1014000004F06CFC2046BDE8F84013F03FBE00BF7E
:10141000EDB00108000402400000024011B10108D3
:1014200059B0010838B50546FFF75CFF044628B1FE
:1014300000212846FFF766FF03F0DAFD03F0E0FC29
:1014400005460CB1FFF77AFE284638BD70B50C464C
:1014500006461549204616F095F820B90021204689
:1014600016F072F870B11149204615F0CFFE16F053
:1014700093F801460E4806F07DFE4FF4BB710D480F
:1014800000F0CEFE3046FFF72DFF054648B9304646
:10149000FFF7C8FF0146204616F074F808B1FFF7C1
:1014A0004DFE284670BD00BF3333534000007A44E0
:1014B000A8AE0108D7AE010870B52D4AD6B01368A2
:1014C0000546DB0705D42B4900F154030B600123CB
:1014D000136029492846FFF7B9FF0646274806F05A
:1014E00049FE002105F1440000F0C6FC244C254BC8
:1014F000E360254B2361254BA360254B6360254B9F
:101500002360254B6361254BA361254BE36104F107
:1015100010030FCB8DE80F0094E80F0013F0B2FA20
:10152000002305A8EB632B6413F038FA9DF8143000
:1015300005F13C04012B14D1DDF8153005A8EB634F
:10154000DDF819302B6413F0F9F9164806F012FE95
:101550000821204606F074FEBDF91611124806F067
:1015600009FE31462846FFF7CDFE56B070BD00BFDC
:10157000B0070020BC0700200000404013AE010867
:10158000CC56002025500008AD4F0008E51000089B
:1015900031110008F51000087581000865A30008E6
:1015A000A5A3000834AE01085AAE010870B507497A
:1015B0000546FFF74BFF064613F088F9044631460F
:1015C0002846FFF79FFE204670BD00BF0000404048
:1015D0007FB5F82300F1480504AC0646284604F818
:1015E000013D00F0E3FC0223214600930122A123E8
:1015F000284600F0DFFC4FF400430822009306F178
:101600005801A1230446284600F0FEFC0440E4B241
:10161000284600F0CDFC204604B070BD30B58BB03C
:10162000044604F017FE01464F4806F0A3FD4F485C
:1016300006F0A0FD204600F097FB00F0A9FA00F0AC
:1016400053FA4B4806F096FD04F1480549484A49CB
:1016500006F090FD284600F0A3FC38B9474806F094
:1016600089FD40F23311464800F0DAFD03F0C0FC7A
:101670002046FFF7ADFF20B94FF49C71404800F0C1
:10168000CFFD94F85F0094F85A30049094F85E000F
:1016900094F85920039094F85D0094F85810029043
:1016A00094F85C00019094F85B000090354806F0D7
:1016B00061FD284600F01AFA284600F07BFA04F192
:1016C000440584F8600004F1640000F01BFC002174
:1016D000284600F0BBFB012000F030FD0021284629
:1016E00000F0CAFB012000F047FD2046FFF7E4FEB2
:1016F00000F0ACFA244806F03DFD4FF4FA7016F005
:101700005FFA054640BB214806F034FD204806F04C
:1017100031FD204806F02EFD1F4A2049204806F0E2
:1017200029FD2049204806F025FD204806F022FD2D
:1017300004F121011E4806F01DFD07A804F04AF936
:1017400007A806F06DFC01461A4806F013FD114883
:1017500006F010FD0BB030BD174806F00BFD284613
:1017600016F036FAD2E700BF17AF01082DAF010817
:1017700044AF010859AF0108A086010074AF010809
:10178000D7AE01088AAF0108BFAF0108F2AF010868
:101790002DDE010830B0010861B001086CB001080D
:1017A0008EB001089EB00108A5B00108B0B00108D4
:1017B000D0B00108DBB0010826B001082DE9FF41D7
:1017C00000F14805284600F0F1FB04240226284FCA
:1017D000013C14F0FF0433D0A123012239460096C6
:1017E000284600F0E7FB4FF40043804600930422B4
:1017F000A12302A9284600F007FCB8F1000F01D18F
:101800000028E5D09DF80830442B20D19DF8093000
:101810006E2B1CD10DF10A0006F0F6FD02230130FB
:1018200084B221460DF109008DF8083006F00DFE56
:10183000002303220093A02302A9284600F0BAFB4C
:10184000284600F0B5FB204604B0BDE8F0814FF417
:1018500088430024ADF808306E2300210DF10B0001
:101860008DF80A3006F0F1FD0094A0230522E3E78D
:1018700012AE010838B50C46113105460CF002FED7
:10188000214651F8583F28462B604B686B6038BDA5
:10189000024B186803685B68184700BF38080020CF
:1018A000024B186803689B68184700BF380800207F
:1018B0002DE9FF41002315461370022206460D4F05
:1018C00004AC386804F8011D03680092D3F80C805A
:1018D000012233462146C04748B14FF400423868E0
:1018E0002946036800921C6901223346A04704B0D0
:1018F000BDE8F0813808002030B585B08DF80D20A6
:101900000022074B8DF80C101C6803A92368009275
:10191000DD68022203462046A84705B030BD00BF5F
:101920003808002037B54FF40045064B1C68236883
:1019300000951D6913460A4601462046A84703B094
:1019400030BD00BF3408002037B50025054B1C68AA
:1019500023680095DD6813460A4601462046A847DD
:1019600003B030BD3408002037B50225054B1C6894
:1019700023680095DD6813460A4601462046A847BD
:1019800003B030BD34080020024B186803681B68A0
:10199000184700BF34080020024B186803685B68D2
:1019A000184700BF34080020024B186803689B6882
:1019B000184700BF340800204FF47A735843B0FB37
:1019C000F3F009F0D3BF10B50446FFF779FC2146C8
:1019D000BDE81040FFF7F2BE10B5424C0AF0F0FF30
:1019E00020460222002103F03FFD0122204611463D
:1019F00003F03AFD20460122022103F035FD204686
:101A00000222032103F030FD20460022042103F0CE
:101A10002BFD20460222082103F026FD204601224C
:101A2000092103F021FD204601220A2103F01CFDBB
:101A3000204602220B2103F017FD03F0CBFA00230E
:101A400020461A460C2103F0D1FC204600220C212E
:101A500003F09AFD2046002204F580640F2103F074
:101A600003FD20460122002103F0FEFC2046002257
:101A7000022103F0F9FC20460022032103F0F4FCCC
:101A800020460222062103F0EFFC20460022082116
:101A900003F0EAFC20460022092103F0E5FC204681
:101AA00001220C2103F0E0FC204602220D2103F06C
:101AB000DBFC204602220E2103F0D6FC2046022247
:101AC0000F2103F0D1FC002304F5806420461A4660
:101AD0000D2103F08BFC2046BDE8104000220D21B3
:101AE00003F052BD0000024003F0DCBF1D4B00B507
:101AF0001A6889B0D2075FBF1B4A106001221A60C2
:101B00001A4B1B4A04931B4B05931B4B03931B4B14
:101B100002931B4B079308AB43F8082D93E803008F
:101B20008DE8030002AB0FCB12F060FE90B11548B8
:101B300006F020FB00221448114603F095FC0F2309
:101B400002220021104803F02FFB09B05DF804EBDE
:101B500012F0E6BD69210D4809B05DF804EB00F014
:101B60005FBB00BF30080020380800209118000833
:101B7000B9190008A1180008B1180008F9180008E0
:101B80007581000816B201080000024027B2010862
:101B9000002307B5ADF8043001238DF80630019815
:101BA0000AF06AFE03F016FA03B05DF804EB0AF0DF
:101BB000B5BE0000194B10B51A688CB0D2075FBFD4
:101BC000174A106001221A60164B0793164B0593B3
:101BD000164B0693164B0893164B0993164B0A9314
:101BE000164B0B930CAB13E907008DE8070005AB10
:101BF0000FCB12F0E1FA044601220F21104803F046
:101C000033FC3CB10F4806F0B5FA12F0B3FA2046A7
:101C10000CB010BD0C4806F0ADFAF8E72C08002017
:101C2000340800202519000849190008691900081E
:101C30008919000899190008A91900087581000878
:101C40000000024098B10108CBB101082DE9F04F26
:101C5000A9B00BF0A9F9DFF80C9168B9384B394AF3
:101C6000CDE923332292384A0093CDF88090219217
:101C700020AB0FCB0BF09EF9344B00251993344B5E
:101C80004FF0010A1893334B4FF003081A93324B6D
:101C90002B4C1B93314B2C4F1C930423294E09A929
:101CA00018A8CDE909351D941E971F968DF829A017
:101CB00006F048FF06F03AFF16F0ECFD2946142224
:101CC00023A80C95CDF82C8015F0DDFFEE460DF124
:101CD000A00C4CF8186DBCE80F00CDE92047AEE829
:101CE0000F009CE803008EE803000DF1800B0BA9A8
:101CF0009BE80C0003C90BF097FF294610220EA8A1
:101D000015F0C1FF164BCDE91244CDF834808DF8A3
:101D10003EA002AC0DADCDE915761793CDF85090ED
:101D20000FCD0FC42B68236016AB93E803008DE83A
:101D3000030012AB0FCB0CF0CFFB29B0BDE8F08F46
:101D40007581000881820008AD820008A1C80008E2
:101D500069C7000879C6000811C6000825C6000832
:101D6000C7190008915A00082DE9F047044603F00E
:101D700047F81E49054615F049FA15F00DFC0146D5
:101D80001B4806F0F7F94FF08041284615F0DCFBC0
:101D900048B30025DFF86090DFF85080154E03F05F
:101DA0002FF84946074615F0E3FBA8B941463846E7
:101DB00015F02CFA15F0F0FB0146304606F0DAF982
:101DC000236885F001052046DB68294698474FF4D3
:101DD0007A7003F027F9E2E723682046BDE8F04770
:101DE000DB6800211847BDE8F08700BF00007A4497
:101DF000E9B10108FBB101080000204008B50D4918
:101E0000012003F0A5FC0C490B2003F0A1FC0B49B9
:101E10000A2003F09DFC0A49042003F099FC0949BB
:101E2000072003F095FCBDE808400749052003F0B2
:101E30008FBC00BF419E000889A10008F99F0008DF
:101E4000A9A20008FDA1000885A20008002310B582
:101E50000C461A460D21074803F0C8FA14B1012CAC
:101E600000D010BD2246BDE810400D21014803F00E
:101E70008BBB00BF00080240002310B50C461A4679
:101E80000C21074803F0B2FA14B1012C00D010BDA8
:101E90002246BDE810400C21014803F075BB00BF8D
:101EA0000000024012F0D8BA084611461A4612F055
:101EB00071BB084611461A4612F0EEBA08461146A2
:101EC0001A4612F023BB00000C2110B1024803F0A7
:101ED0004FBB014803F052BB0004024010B561B192
:101EE000FFF7EEF9044612F08BFA01462046FFF7A1
:101EF000ADFABDE8104012F09BBBBDE8104012F0F7
:101F000085BB000070B588B0FFF7DAF91D490546BA
:101F1000FFF79CFA0C2106461B4803F029FB00231F
:101F20000C211A46184803F061FA0021012003F041
:101F3000FBFE102200210DEB020015F0A4FE134B56
:101F400002AC0293124B0693124B039308AB13E9B6
:101F500003008DE8030094E80F0012F081FB60B1EC
:101F600012F07AFA01460C4806F004F93146284688
:101F700008B0BDE87040FFF7C5B9084806F0FAF8A8
:101F8000F4E700BF0000404000040240C91E000802
:101F900025500008DD5D000878B201088EB2010806
:101FA000014803F05FBB00BFA086010003F02ABB1D
:101FB00003F044BB2DE9F041069F1E4607F00303E2
:101FC000032B80460C46154603D12F210D4800F007
:101FD00027F92046BC07324629460AD503F07CFB88
:101FE00010B10120BDE8F0810123002088F8043001
:101FF000F8E7FB0702D503F07DFBF1E703F05EFB9A
:10200000EEE700BFBCB201082DE9F041069C0D4689
:10201000E107804616461F4603D54C210D4800F0C7
:10202000FFF8A20703D54F210A4800F0F9F823046E
:102030003A46314628460AD503F06AFB10B1012022
:10204000BDE8F0810123002088F80430F8E703F0B0
:1020500027FBF3E7BCB2010808B50321034803F0EE
:102060009CFA003018BF012008BD00BF00040240E8
:102070000A460248032103F087BA00BF0004024069
:1020800008B581B1012303211A460A4803F0AEF9CD
:102090000321084803F06CFABDE808400322054814
:1020A000114603F083B90122BDE80840032101482D
:1020B00003F0DAB90004024003F0EABC1FB501A83E
:1020C00005F070FF01A803F075FC05B05DF804FB96
:1020D0001FB501A805F066FF01A803F0B9FD05B022
:1020E0005DF804FB03F022BD03F03ABD084603F09F
:1020F000B1BBDFB50023CDE90133ADF80C300123CE
:102100008DF807308DF808306FF01D038DF8093019
:102110000723044601A88DF80A3005F068FF2368FC
:1021200006461B6820460F469847864277EB010318
:10213000B4BF0120002004B0D0BD0000042817D88F
:10214000DFE800F00309100E1200002303211A46F5
:10215000084803F04BB900220321064803F084B974
:102160000222F9E70122F7E70321024803F0A2B9AE
:10217000704700BF00000240042817D8DFE800F0D5
:102180000309100E1200002302211A46084803F02A
:102190002DB900220221064803F066B90222F9E7B0
:1021A0000122F7E70221024803F084B9704700BF1B
:1021B00000000240014B1860704700BFC8080020B3
:1021C00073B5124C064623780D46114A1BB9137895
:1021D0000BB172B6FEE70123002113700D48642293
:1021E00015F051FD2B4600960B4A6421094816F064
:1021F000B9FB0A4B1B6803B198470125054E3046D1
:1022000005F0FCFF72B62570F9E700BFA8080020B2
:102210003C0800203E08002063B30108C8080020E5
:10222000F7B5144C064623780D46134A1BB91378AC
:102230000BB172B6FEE70123002113700F48642230
:1022400015F021FD2B4600960D4A64210B4816F02F
:1022500089FB0C4B1B6803B198470125074F0A4EB9
:10226000384605F0CBFF304605F0C8FF72B6257042
:10227000F6E700BFA90800203D0800203E08002026
:102280008BB30108C80800209AB301080368DFF87F
:1022900088C080B5CCF80030164F4368164E3B60BE
:1022A0008368164D3360C36815492B600369154A6E
:1022B0000B604369144C13608369C0692360134B3E
:1022C0001860DCF800003868306828680968104831
:1022D00012680021226864221B6815F0D4FC236870
:1022E0000C4A64210A4816F03DFB094805F086FFB8
:1022F000FEE700BFB8080020C0080020C408002086
:10230000BC080020A4080020AC080020B008002071
:102310003E08002050B30108B4080020074B1B689A
:1023200003B198471EF0040F0CBFEFF30880EFF3E2
:1023300009808169004A10478D220008C8080020E2
:1023400010B50446C06908B105F09AFF206908B1CC
:1023500005F096FF606808B105F092FF204610BDB9
:1023600010B50446006808F0B5FE204610BD000018
:10237000C9210148FFF754BFB6B30108FE2307B5D2
:1023800002A901F8043D054B1868002300681A46AD
:1023900008F090FB03B05DF804FB00BFD8080020F4
:1023A000D0B51F467423C0E9003100230446836082
:1023B0000820164611F044FEC0E90067A0602046E0
:1023C000D0BD00002DE9D043DDE9066799467223B0
:1023D000C0E9003100239642836077EB090304468D
:1023E000904603DA2B210748FFF71AFF102011F05F
:1023F00027FEC0E90089C0E90267A0602046BDE869
:10240000D08300BFF8B30108036837B5632B0446D7
:102410000D4601D0FFF7ACFF002302AA42F8043DAD
:10242000A168284605F08CFC019B1BB138210248AD
:10243000FFF7F6FE03B030BDF8B3010870B56323B3
:102440000025C0E90031044685601A20164611F0C7
:10245000F7FD1A22294615F016FC3146A0602046E9
:10246000FFF7D2FF204670BD81647047C16470479A
:102470002DE9F843D0E90173884600254FF00C0997
:10248000DB1B0A4E9B105E43ECB2B4420BD209FB3D
:1024900004724146506816F0B9FA01350028F3D1AC
:1024A0002046BDE8F8834FF0FF30FAE7ABAAAAAAAE
:1024B0002DE9F843D0E90473884600254FF00C0954
:1024C000DB1B0A4E9B105E43ECB2B4420BD209FBFD
:1024D00004724146506816F099FA01350028F3D18C
:1024E0002046BDE8F8834FF0FF30FAE7ABAAAAAA6E
:1024F0002DE9F0410E4649680446FFF7B9FFC0B226
:10250000FF2803D07C212948FFF78AFED4E9012364
:10251000274F9B1A9B107B437E2B03D97F21234897
:10252000FFF77EFED4E901120C25E068531A9B10D8
:10253000121A7B4392107A430133934205FB03F84E
:102540000ED84144A160D4E9013496E80700E31AAB
:1025500004E9070016489B1058430138BDE8F08194
:10256000404605F0A3FE054618B969211148FFF75A
:1025700057FED4E901C30027A3EB0C039A100C4BC0
:102580005343002B09DD05EB070E0CEB070207CACE
:10259000013B8EE807000C37F3E7604605F070FE5C
:1025A00065604544C4E90255CDE700BFF8B30108B2
:1025B000ABAAAAAA59B401081FB56E23CDE901310F
:1025C000002301A90393FFF793FF05B05DF804FB17
:1025D000FF2270B5002380F828204FF000424FF012
:1025E000FF31C0E90D23C2636FF07F42C0E91012D2
:1025F0000522254DC0E914232A68044612F0010281
:10260000C0E90033C0E90233C0E90433C0E906334E
:10261000C0E908330363C0E9123313D101211B4E13
:1026200008463260716008F06BF9306018B9122109
:102630001748FFF7F5FD0123164A174913482B6089
:1026400013F0B1FE154B1A680AB9104A1A60144902
:102650002046FFF7B1FF134B134918702046FFF7D0
:10266000ABFF124B124918702046FFF7A5FF114B24
:10267000114918702046FFF79FFFFE220F4B18707C
:102680000F4B20461A7070BDD40800204809002066
:1026900091B401080000002061230008D808002040
:1026A000CBB40108E0080020D3B40108DE08002004
:1026B000DBB40108DC080020E0B40108DF080020DA
:1026C000DD08002010B5084C2368DB0709D4074853
:1026D000FFF77EFF0123064A06490448236013F0F2
:1026E00062FE024810BD00BFD0080020F0080020A4
:1026F00000000020412300082DE9F0410E46496802
:102700000446FFF7D5FEC0B2FF2803D08721294831
:10271000FFF786FDD4E90423274F9B1A9B107B43C8
:102720007E2B03D98A212348FFF77AFDD4E90412CE
:102730000C25A069531A9B10121A7B4392107A43FE
:102740000133934205FB03F80ED841446161D4E99B
:10275000043496E80700E31A04E9070016489B10C2
:1027600058430138BDE8F081404605F09FFD05461D
:1027700018B969211148FFF753FDD4E904C30027B4
:10278000A3EB0C039A100C4B5343002B09DD05EB14
:10279000070E0CEB070207CA013B8EE807000C3757
:1027A000F3E7604605F06CFD25614544C4E9055535
:1027B000CDE700BFF8B30108ABAAAAAA59B4010833
:1027C00038B5D0E901239B1A074A9B105343CDB279
:1027D0009D42044603D3A6210448FFF721FD0C20A7
:1027E000636800FB053038BDABAAAAAAF8B301089C
:1027F00038B5CCB2114905460B6813F0010307D177
:102800000F4A70201372012310600E480B60506055
:10281000FF2C10D0D5E904239B1A0B4A9B1053437D
:102820009C4203D3B2210948FFF7FAFC0C23286924
:1028300003FB040038BD0248FCE700BFCC080020C1
:10284000E40800203AB40108ABAAAAAAF8B3010828
:1028500010B5D0E90730C9B2D2B2834209D01C7892
:102860008C4204D15C78944201D1987810BD033336
:10287000F3E74FF0FF30F9E72DE9F041D0E9042309
:102880009B1A484A9B1053430D46097804469942C7
:1028900003D393214448FFF7C3FCD4E901239B1AD7
:1028A000404A9B1053436978994203D394213E4890
:1028B000FFF7B6FCD4E904239B1A3A4A9B10534312
:1028C000A978994205D3FE2903D095213648FFF710
:1028D000A7FC6A7829782046FFF7BAFFC3B2FF2B1E
:1028E00006461BD029782046FFF782FF69782046EC
:1028F000FFF766FF31462046FFF77AFF297820462A
:10290000FFF776FF69782046FFF75AFFA97820463F
:10291000FFF76EFF9C212448FFF782FCD4E90723D0
:10292000204F9B1A7B437E2B03D99F211E48FFF724
:1029300077FCD4E90762616A931B7B43521A5743C1
:102940000133BB4203EB43080AD8464426622A8877
:10295000236A23F8032CAA7803F8012CBDE8F08140
:10296000404605F0A3FC064618B969210F48FFF759
:1029700057FCD4E90702131A0A4A5A430023002AD3
:102980000ADDC118B1F800C0F71826F803C089782D
:10299000013AB9700333F2E705F072FCE661464490
:1029A0006662D3E7ABAAAAAAF8B3010859B4010832
:1029B00013B5FF24084A02AB106803F8044D0A4619
:1029C0000068194608F01AF9012814BF20469DF83E
:1029D000040002B010BD00BFD808002038B58168DF
:1029E00000681D46144605F035FD0346201845EBEA
:1029F000E37138BD08682DE9F04172281F461FD0E9
:102A000074280FD0632820D1886805F059FA00286F
:102A100071F1000304460D460EDADD210D48FFF783
:102A2000FFFB09E08B68D3E90045B5F1004F08BF13
:102A3000002C01D0A4187D4120462946BDE8F08134
:102A40008868BDE8F041FFF7C9BF00244FF000459A
:102A5000F2E700BFF8B301082DE9F0410F46064642
:102A60000024FFB2FFF7C4FED6E90758454511D050
:102A70002B78BB420CD169783046FFF7A1FE036882
:102A8000692B05D183681B6803B198470134E4B210
:102A90000335EBE72046BDE8F0812DE9F3418046A0
:102AA0000F460025FFF7A4FED8F81C40D8F8206098
:102AB00003340336FFB2A6421BD0234633F8032D5E
:102AC0009B78ADF804208DF8063014F8033C9F4243
:102AD0000DD19DF805104046FFF772FE0368692B83
:102AE00005D183685B6803B198470135EDB20334C3
:102AF000E1E7284602B0BDE8F0810000836C73B5C1
:102B000004460D46164623B94FF48C710B48FFF767
:102B100087FBCDE9006423462A460949094808F0A5
:102B2000B9FB012807D04FF48F71044802B0BDE80B
:102B30007040FFF775BB02B070BD00BFF8B301086D
:102B40004EB401080530000838B590F84730044607
:102B5000032B0D4604D940F231110648FFF760FB04
:102B600094F847305A1C84F847201C4484F842509B
:102B700038BD00BFF8B3010810B590F847300446DF
:102B800023B94FF49B710648FFF74AFB94F847308E
:102B9000013BDBB284F847301C4494F8420010BD7E
:102BA000F8B30108CBB2FE2B10B504460AD0FFF7EC
:102BB0001FFE03686D2B05D1017A2046BDE8104049
:102BC000FFF716BE10BD00002DE9F84304460026AD
:102BD000114FD4E904239B1A9B107B435FFA86F8BC
:102BE000434516D941462046FFF7DCFFD4E9075993
:102BF000A9450CD02B78434507D169782046FFF7CB
:102C0000DFFDA9782046FFF7CDFF0335F0E7013659
:102C1000DFE7BDE8F88300BFABAAAAAA38B505462E
:102C2000002495F84730A34207DD2B1993F8421092
:102C30002846FFF7DDFD0134F3E738BD00232DE919
:102C4000F74FC0E9043388461946D8E907594FF0D1
:102C500000430446C0E90213C0E90013FF208A467E
:102C60009B46D2B2207401924D45D4E900671FD033
:102C70002B78019A934219D169784046FFF7A0FD5D
:102C8000DDE90C2301464046FFF7B4FE594508BF75
:102C900050450BD05F4508BF564503D0B04271EB9D
:102CA000070303DA6B78C4E9000123740335DBE71B
:102CB000B7F1004F08BF002E08D0DDE90C23B21A8F
:102CC00067EB030316461F46C4E90267204603B0BC
:102CD000BDE8F08FF8B50D460B4B896806464B43AF
:102CE0004FF47A71B3FBF1F1FFF762FE0446C7B20D
:102CF000B06C03681B689847FF2FC6E90E010CBF34
:102D0000287C2046F8BD00BF40420F0038B5C36C98
:102D100004460D461BB9BDE83840FFF7DBBF806CA9
:102D2000134903685B699847A06C0368DB689847A0
:102D3000A06C03689968D5E900238847A06C0368F4
:102D40001B699847E36C9847A06C0368DB68984759
:102D5000A06C03681B689847C4E90E010021204657
:102D6000FFF726FEC0B2FE2808BF287C38BD00BF92
:102D70007D230008F8B5D1E90067B7F1004F08BF1F
:102D8000002E05460C4608D11AB1BDE8F840FFF701
:102D9000A1BFBDE8F840FFF7B9BFD1E90267012E36
:102DA00077F1000301DA087CF8BD8AB12146284694
:102DB000FFF790FF237CC0B28342F5D1D5E90E67BF
:102DC000D4E90023964277EB0303B8BFFF20EBE77B
:102DD000D0E91423964277EB0303E7DBFFF796FF76
:102DE000E8E700002DE9F04188B004460D46FFF702
:102DF000FFFC03680646702B04D04FF49E712548F3
:102E0000FFF70EFAA06C03681B6898472A46C4E9CE
:102E10000C01CDE90001214602A8FFF70FFF29466A
:102E20002046FFF719FE9DF81830FF2B05D120B979
:102E300040F247111748FFF7F3F99DF81810FF29E2
:102E400010D100224FF00043CDE90423327A02A9C9
:102E50002046FFF78FFFC3B2FF2B074611D1D4E9FD
:102E60000E0104E02046FFF7ABFCD4E90C01DDE9DC
:102E70000223121A63EB010317469846CDE9047842
:102E8000E4E729462046FFF708FE384608B0BDE8CB
:102E9000F08100BFF8B3010870B504460D46FFF796
:102EA000A7FC03686D2B11D0702B09D0612B14D1B6
:102EB000836894F8411094F84000BDE870401847CA
:102EC00029462046BDE87040FFF78CBF034840F21A
:102ED0002B11FFF7A5F94FF0FF3070BDF8B30108D3
:102EE000F8B590F828300446FF2B04D14FF4D67182
:102EF0004148FFF795F994F828102046FFF778FC31
:102F000094F8283084F8463094F846102046FFF7AD
:102F10006FFC036805466D2B204694F846100BD1D4
:102F2000FFF712FE297A204684F84610FFF760FC6E
:102F30002046FFF773FEE7E7FFF7AEFFC3B2FF2BB4
:102F400006460BD140F2C1112B48FFF769F940F258
:102F5000C1112A4B2A4A284814F01EFD024694F853
:102F600046102046FFF774FCC5B2FF2D09D140F290
:102F7000C7112148FFF754F9204B214A40F2C711ED
:102F8000E9E794F84610FE2D204621D1FFF7F4FD25
:102F9000074601462046FFF72BFC324639462046BD
:102FA000FFF756FCC5B2FF2D0DD131462046FFF785
:102FB00007FC40F2D3111048FFF732F90F4B104ACB
:102FC00040F2D311C7E72046FFF728FE3946DAE77B
:102FD000FFF70EFC31462046FFF7F2FB294620465C
:102FE000FFF706FC94F8463084F8416084F84030DE
:102FF00084F8465088E700BFF8B3010848B40108D8
:10300000E8B4010808B5FFF75DFBFFF769FFD0B52D
:103010001F461646FFF7D4FB03688468742B01D063
:10302000FFF7A6F9C4E90067D0BDD0B5044616463F
:103030001F46FFF7C5FB32463B4601462046BDE82A
:10304000D040FFF7D7BC0000836C10B5044623B90D
:103050004FF41F710248FFF7E3F8A06C10BD00BFEA
:10306000F8B30108FF23054A1370054A1370054A97
:103070001370054A1370054A13707047E00800206A
:10308000DE080020DC080020DF080020DD0800202A
:10309000014B1878704700BFDC08002010B50446CB
:1030A000006808F017F8204610BD00002DE9FF4821
:1030B0000BF05CFB4FF6FF712B4A13888B421CBF51
:1030C00001331380FFF7FEFAFFF7BEFF03681B68AA
:1030D0009847264B5A78EAB9254AD288D2B1254C6E
:1030E000D4E900BCBCF1004F08BFBBF1000F0FD00A
:1030F00083457CEB01040DDA1F4CB0EB0B0604FB9F
:1031000002F461EB0C07E517A64277EB050201DB41
:1031100001225A700022ADF80C205A782AB10122FF
:103120008DF80C20134AC2E900011B78134CBBB187
:10313000012513488DF80D5005F01CF82570114B32
:1031400011481A78114B1978002300930068039BEB
:103150000BF04EFC30B10E4B187804B0BDE8F0888F
:103160002370ECE70B4BF7E792090020740900206D
:103170008009002050000020805101007D090020BE
:1031800059B5010877090020700900207609002050
:10319000DC080020DE08002008B5184BDB8813B9D6
:1031A000174B187808BD174BD3E90023B3F1004F34
:1031B00008BF002AF4D1144A13780133DBB2032B81
:1031C0001370EDD8012B0BD90A21002005F042F92C
:1031D0000E4B58434FF47A73B0FBF3F008F0C6FB84
:1031E00000230B4A13700B4A13700B4A13600B4AEF
:1031F0001370012353700A4BD3E700BF80090020EE
:10320000DC08002048000020A809002040420F00F0
:103210007709002076090020700900207409002039
:10322000DF08002008B500231A4607F043FC431EC0
:103230005842584108BD000007B50B78012B0FD04C
:1032400004D3022B10D003B05DF804FB002302A9C5
:1032500041F8043D064B1B681868FFF7E3FFF2E7EF
:1032600002A94FF0FF33F3E7014B04311B68F3E78A
:10327000600900201FB57023CDE90131002301A9A9
:103280008DF80C30FFF738FA05B05DF804FB00004C
:103290002DE9F04F4A4B85B01A780446002A40F0D9
:1032A0008B80012747491F70FFF786F9464B474936
:1032B00018702046FFF780F9DFF868A144498AF8C2
:1032C00000002046FFF778F9DFF85C910A2200231E
:1032D00089F800003F4901A8FFF762F801A92046DC
:1032E000FFF706F93C4E3D4930702046FFF764F980
:1032F0003B4B3C4918702046FFF75EF93A4B3B497F
:1033000018702046FFF758F9394B3A491870204693
:10331000FFF752F9384B394A187039492046FDF702
:10332000ADFBDFF808B1374A8BF80000364920467C
:10333000FDF7A4FB354905462046FFF79BFF7023A8
:103340000193334B804601A9204602938DF80C70FF
:10335000FFF7D2F907462F4A2B4612789BF8001048
:103360002046FDF796FB43469AF800202946204662
:10337000FDF78FFB3B4699F8002029462046FDF7D4
:1033800088FB2B46327841462046FDF782FB2B46D0
:10339000327839462046FDF77CFB1F4A2B461278CF
:1033A00029462046FDF775FB1C4B1D4A1B781278F9
:1033B00029462046FDF76DFB05B0BDE8F08F00BF44
:1033C000A90900207BB501087809002085B501080E
:1033D00090B501089CB5010859090020A9B501085C
:1033E00091090020B7B5010890090020C3B5010874
:1033F00094090020D0B5010895090020AD300008DF
:10340000DEB50108AD410008E8B50108FCB50108CA
:103410000FB60108DC080020DF080020DD080020CE
:10342000E00800207C090020580900207A090020CB
:1034300008B50BF079F918B1BDE808400BF096B962
:1034400008BD08B50BF070F918B9BDE808400BF0DD
:1034500047B908BD30B5044685B00D46FFF718FFE3
:103460006D22064B01A91B782046CDE901258DF878
:103470000C30FFF741F905B030BD00BF7A090020DC
:103480002DE9F84F424B434D1A68044612F0010FE4
:1034900001BFFF222A7001221A602B78FF2B73D103
:1034A000FFF7F6FE3C4A3D492046FDF7E7FA3C4A65
:1034B00028703C492046FDF7E1FA3B4F3B4A387003
:1034C0003B492046FDF7DAFA3A4E3B493070204638
:1034D000FFF7C0FF394982462046FFF7CBFE384947
:1034E00083462046FFF7C6FE8146364A3B7812786F
:1034F00029782046FDF7CDFA334ADFF8E0803378AB
:10350000127829782046FDF7C4FA337898F800201D
:1035100039782046FDF7BDFA2B7898F800203178ED
:103520002046FDF7B6FA294A5B46127839782046DC
:10353000FDF7AFFA26493B780A7820465946FDF751
:10354000A8FA244A4B46127839782046FDF7A1FAAA
:103550001F493B780A7820464946FDF79AFA1A4AED
:103560005346127831782046FDF793FA337898F86D
:10357000002051462046FDF78CFA174A2B78127826
:1035800031782046FDF785FA2878BDE8F88F00BF2E
:1035900054090020AB0900201D3C00081FB701089A
:1035A000C937000829B701087909002099310008B6
:1035B00033B701087B0900203DB7010849B701086E
:1035C00057B7010878090020DF0800207C09002097
:1035D00059090020DE080020DC080020E008002057
:1035E00038B504460D46FFF753FE034A29462046E8
:1035F000FDF744FA38BD00BFE1390008344B2DE92E
:10360000F04F1A890023044689B0CDE900230391C5
:10361000002300222F4905A8FEF7D4FE05A9204665
:10362000FEF766FF2C4982462046FFF723FE2B4912
:1036300083462046FFF7D4FF294A80462949204681
:10364000FDF71CFA284A054628492046FDF716FAD8
:103650000646274FDFF8A8903B7899F800202946C6
:103660002046FDF716FA234A5B4629462046127883
:10367000FDF70FFA204A4346294620461278FDF707
:1036800008FA3346524659462046FDF702FA3346B9
:10369000524641462046FDF7FCF9184A3B78414620
:1036A00020461278FDF7F5F93B7899F8002031466D
:1036B0002046FDF7EEF96D230593039B05A92046EF
:1036C00006938DF81C50FFF717F809B0BDE8F08F8E
:1036D0008009002066B7010873B7010883B70108A5
:1036E0003D3D000894B7010891300008A3B70108D8
:1036F000DD08002094090020950900209109002090
:10370000DC0800202DE9FF4790468A461E4A1F49E3
:103710000446FDF7B3F91E4905462046FFF7AAFD0A
:103720001C4981462046FFF75BFF06461A4A4B4676
:10373000294620461278FDF7ACF9184A184F33464F
:10374000294620461278FDF7A4F93B7842464946BF
:103750002046FDF79EF93B78424631462046FDF76C
:1037600098F9104A3B78127831462046FDF791F9D6
:103770006D2301A92046CDE9013A8DF80C50FEF7E2
:10378000BBFF04B0BDE8F087613D0008F4B6010856
:10379000FEB601080EB70108940900209509002023
:1037A000DD0800209109002070B50D460446FEF7A3
:1037B00089FF044922462B46BDE870400978FFF78F
:1037C00026BC00BF59090020F7B5504C2668A6B9A1
:1037D000082010F035FC054606600120324668607E
:1037E000042107F08DF8286018B912214848FEF727
:1037F00017FD484825600AF0CFFF474D474F2B681B
:1038000001332B600AF0B2FF3B781BB901233B70F8
:103810000AF0D8FF002302A941F8043D2368404A7A
:10382000186807F0EBF9012804D04FF4C7713D4840
:10383000FEF7F6FC019E731C42D12B68042B0CD9B9
:103840000FF0B0FC037843B14FF47A7008F08EF8B3
:1038500040F299113348FEF7E3FC00233B702B68DC
:103860001E22013BDBB21E2B28BF1E2302FA03F3EC
:103870002D4A93421DD8B3F5616F1C464FF00005E9
:1038800019D2B3F5167F75F1000317DA3C2C75F1E8
:103890000003ACBF1E210A21002004F0DBFD03461B
:1038A000201845EBE371FFF77FFF204B187803B03A
:1038B000F0BD00251C4C4FF41671EDE73C21EBE701
:1038C0002EB130460021FFF76FFF194BEEE72E6057
:1038D0000AF006FFFEF7F6FEFFF7B6FB03681B686B
:1038E0009847144BC3E9000123686BB130460AF0D6
:1038F00053FF256835B1286807F0ECFB08212846FE
:1039000010F0BEFB002323600B4BCFE760090020C3
:1039100091B4010839320008A4090020A009002050
:10392000A08601000DB5010800A30200DE080020FA
:103930007C09002040000020E0080020054B1870A2
:10394000054B1A700022054B1960054B1A705A700E
:10395000704700BF77090020760900207009002019
:1039600074090020027901684079FFF7E7BF08B5C4
:103970000BF036F8C0B2DE2828BFDE2008BD0000FC
:103980004FF47A7337B5002403FB00F2074802A90D
:10399000056841F8044DB2FBF3F2286807F02EF9F0
:1039A000012814BF2046019803B030BD5C090020F7
:1039B0004FF47A7337B5002403FB00F2074802A9DD
:1039C000056841F8044DB2FBF3F2286807F058FA95
:1039D000012814BF2046019803B030BD5C090020C7
:1039E0002DE9F04F91B0FEF76DFE90F84630044699
:1039F00003930026FFF71CFD4FF000091F4DDFF871
:103A00008880A06C0AAF03681B6898479DF80C205B
:103A1000CDE9000121460AA8FFF710F90FCFDDE933
:103A20000CAB0DF1100CACE80F003B688CF80030CB
:103A3000DDE90A23B3F1004F08BF002A03D0D045C7
:103A400079EB0B0313DAAA46B34601274FF47A73D6
:103A5000AAFB030103FB0B11FFF7AAFF48B10122E8
:103A6000074B5A72074B187811B0BDE8F08F00274A
:103A7000ECE7002FC5D19DF82000F5E7805101004B
:103A800064090020910900208551010010B5002033
:103A90000021FFF78DFF10B1084B187810BD084CBE
:103AA0002368984720B9074B1B780BB9064BF4E7FE
:103AB000637A0BB1054BF0E7054BEEE79109002067
:103AC0006409002096090020DC080020E00800209E
:103AD000DF080020022818BF00200BF02FB90000DB
:103AE000F8B53B4B05461E78002E6FD101271F709D
:103AF0000AF00EFB374928460FF0FCF9C31F052BCF
:103B0000354C42D820710E233449284663710FF09A
:103B1000FAF93349074614F079FF00283AD1E060FA
:103B2000304928460FF0CCF92F49607028460FF035
:103B3000E1F9B0F57A7F3AD8E0802C4928460FF0B9
:103B4000D9F942F21073984236D820812849284684
:103B50000FF0B6F92749A07028460FF0CBF9B0F561
:103B60007A7F2ED26081244928460FF0A9F9E070AF
:103B700036B1224804F0FEFA71212148FEF750FBCD
:103B8000E068BDE8F840FFF7A5BF1E4804F0F2FA70
:103B90003E46B8E71C49384614F038FF10B90223F6
:103BA000E360BDE7194804F0E5FA0126B8E71848D4
:103BB00004F0E0FA0126C0E7164804F0DBFA01261B
:103BC000C4E7154804F0D6FA0126CCE7F8BD00BFDB
:103BD000AA09002023B60108800900203CB601088C
:103BE000DFB601085FB6010863B601088AB60108AE
:103BF00041DD0108B2B60108DCB60108E1B60108F2
:103C00000DB5010826B60108A5CE010843B6010886
:103C10006CB6010893B60108BDB6010870B5234B18
:103C2000C0B21B78984206D10FF0BCFA0FF074F9BD
:103C30001F4B187870BD1F4D0FF0B4FAFFF750FFFF
:103C400095F905000CF034FC0AF06CFF28790CF0B3
:103C5000FDFB0AF05BFF68780BF03AF8164B1A6828
:103C60001C4612F0010213D10421144E08463260A2
:103C7000716006F045FE306018B912211048FEF759
:103C8000CFFA01230F4A10490C48236012F08BFB36
:103C90000E4B1A680AB9094A1A600D480BF054F81D
:103CA000EB780BB10B4BC4E70B4BC2E77B09002051
:103CB000E008002080090020500900209809002019
:103CC00091B40108000000209D3000085C0900202C
:103CD0004541000878090020DF080020034B93F8D5
:103CE0003230022B0CBF022000207047D800002089
:103CF00008B5FFF7F3FF30B90AF016FD18B9BDE8B3
:103D000008400AF0EDBCFFF7E9FF022806D10AF0EF
:103D10000BFD18B1BDE808400AF028BD08BD000041
:103D200008B5FFF7DBFF02280CBF024B024B1878E7
:103D300008BD00BF9509002094090020054B1B8990
:103D400013B9054B18787047044B5B7A002BF8D1F8
:103D5000FFF7E6BF80090020DC080020640900208E
:103D6000FFF7DEBF01232DE9F348324C002000218C
:103D70006372FFF71DFE10B12F4B187816E0236811
:103D8000984710B92D4B1B788BB30AF0E3FF01283D
:103D900071F1000306460F460BDBFEF793FC32463B
:103DA0003B46217AFFF733F9FFF7BAFF02B0BDE8CF
:103DB000F08823689847024670B100236468009336
:103DC000ADF80430FFF7D3FD01466846A0476846CA
:103DD000FFF7C8FD1A4BD0E7184B1B783BB1194BC6
:103DE0001B88022B23D80146FFF7A8FDF2E7164DEA
:103DF0006B89D3B1EB78C3B1FEF764FCFFF724F90C
:103E000003681B6898476B89104A114D5A43D5E9DE
:103E10000067861B61EB0707D317B242BB4104DA88
:103E200040F24A310B48FEF7FBF9002363720A4B5C
:103E3000A3E700BF64090020910900209609002033
:103E40009009002092090020800900208051010083
:103E5000400000200DB50108DC0800202DE9F04FDE
:103E60000446574D87B0C5E90023019100230A227B
:103E7000544903A8FEF794FA03A92046FEF738FB3D
:103E8000514A8146287251492046FCF7F7FD504AB5
:103E9000054650492046FCF7F1FD4F4907462046AC
:103EA000FFF7D8FA4D498DF802002046FFF7E2F9F6
:103EB0004B498DF803002046FFF792FB49498246A3
:103EC0002046FFF79BFB8346474EDFF83881337867
:103ED00098F8002039462046FCF7DBFD434A33784A
:103EE000394620461278FCF7D4FD414A5B463946F4
:103EF00020461278FCF7CDFD3E492B460A78204635
:103F00003946FCF7C6FD394A2B46594620461278F9
:103F1000FCF7BFFD337898F8002059462046FCF79F
:103F2000B8FD337898F8002029462046FCF7B1FD0B
:103F30002E4A3378294620461278FCF7AAFD2E4AED
:103F40009DF80230294620461278FCF7A2FD294947
:103F50002B460A7820469DF80210FCF79AFD274A66
:103F60009DF80330294620461278FCF792FD2B4637
:103F70004A469DF803102046FCF78BFD204A534625
:103F8000294620461278FCF784FD2B464A465146C6
:103F90002046FCF77EFD337898F8002051462046F5
:103FA000FCF777FD6D230393019B03A9204604933F
:103FB0008DF81470FEF7A0FB07B0BDE8F08F00BFCE
:103FC00064090020B2B70108653D0008C2B70108C6
:103FD0008D3A0008D0B70108DDB7010885B50108A2
:103FE00090B50108E9B70108DD080020DC080020D1
:103FF000DF080020E008002090090020940900203C
:104000009509002091090020F8B51D460023417153
:10401000BDF8181004460360C180174602B115B9F7
:1040200023712046F8BD0749284610F025F80646BA
:1040300010B920712660F4E72A46394613F0FFFDD7
:104040002571F7E7DCEE010810B50446006808B1F9
:1040500010F014F8204610BD70B5304E86B03268AE
:10406000044622B94FF4E6712D48FEF7D9F8002C2A
:1040700051D000222B4B1A80D4E91C23134316D0B5
:10408000294B1D6807F028FB01462848A847D4E9BA
:104090001C2303A803F086FFD4E91C23244903A8AA
:1040A000C1E900232349C1E9002301F083FCFEF7A5
:1040B00009FBFEF7C9FF03681B6898471E4B1F4AA0
:1040C000C3E90001237AC3F3C0031370637F13B302
:1040D000237F03B31A4908200FF0C4FF054630B10F
:1040E0006289237F617F0092A26EFFF78DFF0395A7
:1040F0008DB1002330681A4603A9006806F024FC3D
:10410000012808D0039C34B12046FFF79DFF082109
:1041100020460FF0B5FF06B070BD00BF5C0900205F
:104120000DB5010892090020D80000206EB50108E5
:104130004800002050000020400000209609002088
:10414000DCEE010810B50446FFF786FF24B12046D7
:10415000BDE810400CF016BD10BD000038B542F2AD
:1041600010700AF01FFB0446D0B10578022D13D160
:1041700040680021FFF718FBD4F89800FFF76CFFA8
:10418000237A13B10022084B1A7020460BF058FA1C
:10419000032D06D1284638BD032DEDD10020E8E7D8
:1041A0000125FFF7A5FDF5E77D090020002310B5E7
:1041B000134C84F836300AF0B7FA08B10AF0D6FA90
:1041C000FFF7CCFF032812D8DFE800F00202070552
:1041D0000C4B187810BD0C4BFBE7FFF77FFD022856
:1041E00009BF0123094B84F83630094BF1E7094830
:1041F00040F2BB21FEF714F84FF0FF30EAE700BFB2
:10420000D8000020E0080020DF0800207C09002002
:10421000580900200DB50108FF2300210D4A137035
:104220000D4A13700D4A13700D4A13700D4A137026
:104230000D4A13700D4A13700D4A13700D4A137016
:104240000D4A13700D4A13700D4AC2E90011137222
:10425000704700BF7A090020790900207B090020FF
:104260009109002090090020950900209409002060
:10427000780900207C0900205809002059090020F5
:104280006409002010B50446D0F8B80210B101212D
:104290000FF0F6FED4F8AC0210B104210FF0F0FEDE
:1042A000D4F8A00210B104210FF0EAFE204610BDA0
:1042B0007FB5002401A82146CDE90144039412F002
:1042C00029F8051E06DA2946124803F053FF204656
:1042D00004B070BD01A811F07DFE044608B1C369A9
:1042E00043B929460C4803F045FF284611F0E8FF82
:1042F0000024ECE7284611F0E3FF06460028E6D14B
:104300002946064803F036FF204611F007FE3446E2
:10431000DDE700BF2FB8010856B801088CB80108C6
:1043200070B506460024084D3046FFF7C1FF50B96E
:104330000134E4B20F2CF7D911F03CFD34212846AA
:10434000FDF76EFFF0E770BDB7B801082DE9F04347
:10435000804640698DB003680C461B6898471C2254
:1043600006460F4605A8002113F08DFCE38860790E
:10437000ADF8283009F042FC012E8DF82D0077F1C0
:1043800000032079A8BF069603F090FF0546A8B366
:104390002279216813F053FC607909F037FC412839
:1043A0008DF82E0005D042282BD0194803F0E2FEEC
:1043B00021E02179284611F0BBFA0446024629463D
:1043C00008F5287010F086FE00B30DF10C090023EB
:1043D00022462946484611F023FECDE9006708F140
:1043E000180099E8060000F0D8FA002305AA214633
:1043F000284611F035FE284603F042FF0DB0BDE817
:10440000F0832179284611F0E7FAD6E70148CDE795
:10441000F4B7010812B8010882B0F7B504460025C8
:104420000F46164600211022099313F02CFC04F1CC
:1044300018031846294625744FF42272676113F059
:1044400022FC29464FF4207213F01DFC2946C4F8C3
:10445000985284F89C52282204F528700E4D13F0CF
:1044600012FC04F532730DAA07CA83E807002A7804
:104470001AB96F210948FDF7D3FE00232B700C9B5E
:104480003046009309AB0ECB11F0B0FC204603B0D0
:10449000BDE8F04002B0704758000020B7B80108EE
:1044A00082B070B5144C86B00E460AA981E80C00A3
:1044B00023680546DB0716D403AB0EAA07CA83E8B8
:1044C00007000BAB93E807000A9B8DE80700324614
:1044D00029460A48FFF7A0FF0123094A094907486E
:1044E000236011F060FF0548074B186006B0BDE877
:1044F000704002B0704700BFAC090020B80900202E
:104500000000002085420008B009002010B5044CCE
:1045100022681AB97C210348FDF782FE206810BD8D
:10452000B0090020B7B801082DE9F04F06468BB05E
:104530008A46FFF7EBFF337C06901BB985219A482A
:10454000FDF76EFED6E9015496F800B0D6F80C904F
:10455000BBF1000F06D02DB124B1944803F00AFE40
:104560004FF0000B706903681B689847BAF1020F9F
:10457000CDE9040111D12B46EC17CDE902348C4F63
:10458000DDE90234234313D139468A4803F0F2FDB2
:10459000002000210BB0BDE8F08FBAF1010F05D16A
:1045A0002246E317CDE90223834FE9E7834FEBE788
:1045B000069B504603F11808D6F8C8329847804940
:1045C000D1E9002313438A4633D1404600F06AFA0A
:1045D000404600F018FA7B4B1870002800F0CB80A2
:1045E0004046079300F0EDF9BBF1000F00F0C780E3
:1045F000079B1B78002B40F0C280DDE9020103F02D
:104600004FFDDDE9024524196D41294682462046C9
:1046100003F046FD5246034639466B4803F0AAFDB7
:10462000DDE9042312196B411D461446644BC3E9AE
:104630000045022099FBF0F94B46DC17CDE9023426
:10464000706903681B6898475D4B0446D3E9009A7C
:10465000484571EB0A030D4674DAB9EB04006AEBC6
:10466000050103F01DFD39460246584803F082FD5E
:10467000D6F8CC324FF47A7098478146C0B10146E3
:104680000698FFF763FED9F8000003F0F9FD4846ED
:1046900003F0F6FDBBF1000F0AD0404600F02CFA03
:1046A000484B1B7823B101224948114603F062FDB3
:1046B00009AB0093DDE90223A21A65EB0303404630
:1046C00000F0BCF981468A4659EA0A0316D0099BD4
:1046D000A3B12946204603F0CDFC01463D4803F036
:1046E00049FD5146484603F0C5FCA9EB04020146CA
:1046F000394803F03FFD099800F0FEF8BBF1000FC8
:104700009ED0304B1B78002B9AD159EA0A0319D05E
:10471000DDE90223DDE90201B9EB02026AEB0303E2
:1047200000196941904271EB030389DAB9EB040087
:104730006AEB0501DDE90234C31A61EB0404184693
:10474000214627E7404600F0B6F9011E05DD234863
:1047500003F010FD404600F034F9D6F8D032984707
:1047600039461F4803F006FD002215491046C1E9ED
:10477000002211460EE7BBF1000F7FF43EAFDDE9EA
:10478000020103F08DFC39460246164803F0F2FCA4
:10479000DDE90445DDE9022312196B4114461D468B
:1047A000CAE9004545E700BFB7B8010804B90108E8
:1047B000FBB801084DB9010801B90108D7F101089A
:1047C000980C0020900C002086B9010812BA01084C
:1047D0003EBA010865BA010874BA010890BA010826
:1047E000C2BA0108D6B9010837B5034668460024A5
:1047F000002580E806000021C3E90045C3E904451F
:1048000003F11804197203C884E80500184603B0C0
:1048100030BD00002DE9D848D0E904BC1F465BEA52
:104820000C03044616460DD0D0E90023134309D1EA
:10483000B6EB0B0067EB0C01C4E90001014604482C
:1048400003F098FC0123C4E904672372BDE8D8880B
:10485000E4BA010810B504460EF0A4FC04490EF0B9
:1048600049FB002801DDC11710BDD4E90001FBE7B9
:104870004FA901082DE9F843994604469046FFF7F1
:10488000E9FF06460F4656EA070323D004F1100558
:10489000D5E9004554EA050318D0B8EB040069EBEC
:1048A0000501002871F1000310DB3B46324612F08F
:1048B000B9FE10F1010808FB07F341F1000906FBFE
:1048C0000933A8FB0601194424184D412046294606
:1048D000BDE8F88304460D46F8E708B5D0E904239F
:1048E000134307D0FFF7B6FF50EA010314BF0120BE
:1048F000002008BD0020FCE773B50446856900F17F
:104900001001D1E9000103F0B5FB06462046FFF790
:10491000A1FF237A3246009329460346024803F05A
:1049200029FC02B070BD00BFFBBA0108F0B58BB026
:104930006C460646034684E806009DF8042000F510
:104940002075AB42184607D01F7F974202D19F695E
:104950008F4209D02033F4E7D6F88032132B05D9E3
:104960000123002086F884320BB0F0BD94E80600E5
:1049700002A8FFF739FFD6F880C202AC06EB4C174D
:104980003D460FCC0FC594E80F0085E80F000CF1F1
:104990000103C6F880323846E6E737B5DDE906455B
:1049A0006B4683E8060093E80600FFF7BFFF30B1CF
:1049B00022462B4603B0BDE83040FFF72BBF03B0C3
:1049C00030BD2DE9F043074606464FF0000889B098
:1049D00000F52079B14510D034466D4618220021EB
:1049E000684613F050F90FCD0FC4CDE90688203684
:1049F00095E80F0084E80F00ECE7002387F8843285
:104A000009B0BDE8F08338B5D0F8803293B10446E0
:104A100000F52075A5420FD0A3690BB92034F9E742
:104A2000D4E90423134305D02046FFF713FF50EACF
:104A30000103F3D1012038BD0020FCE72DE9F04748
:104A400098460023089D91462B6090F8843203BB62
:104A500004460026002700F5207A54451BD0A369A0
:104A6000ABB1237A9BB943464A462046FFF702FF83
:104A700050EA010313D056EA070303D0B04271EBAA
:104A8000070304DA2B6803B12C6006460F46203476
:104A9000E3E71646474630463946BDE8F087064606
:104AA0000F46F8E7002300F52072824202D003721D
:104AB0002030FAE7704700F52072034600209A4242
:104AC00006D0996911B1197A01B901302033F6E79E
:104AD000704770B50446002500F52076B44208D032
:104AE000A36923B12046FFF7F8FE00B10135203459
:104AF000F4E7284670BD000073B50446144803F07F
:104B000039FB144803F036FB2046FFF77CFF0646CE
:104B10002046FFF7D0FFD4F88022151A2046FFF771
:104B2000D8FFD4F880322A460093314603460A481B
:104B300003F020FB04F52075AC4206D0A36913B145
:104B40002046FFF7D9FE2034F6E702B070BD00BF63
:104B50002ABB010850B001083BBB0108002103E05B
:104B60000A4B5B584350043109480A4B42189A4299
:104B7000F6D3094A02E0002342F8043B074B9A426D
:104B8000F9D300F00DF8FCF747FA704738F4010844
:104B9000000000207804002078040020F056002057
:104BA000314B82B01A6842F480721A6099682F4AB9
:104BB0000A409A601A6822F0885222F001121A60A4
:104BC0001A6822F480221A609A6822F47D029A60A0
:104BD0000022DA6001921B6813F4007318BF0123EE
:104BE0000193019B012B37D14FF48051204B1A6860
:104BF000A3F5806322F00102C3F80024D3F8002457
:104C000022F00202C3F80024D3F8002422F00402A8
:104C1000C3F800245A6A42F080525A62154A116061
:104C20005168C906FCD49A689A609A689A609A6832
:104C30009A605A6822F460425A605A6842F44042CC
:104C40005A609A6822F003029A609A689A60064A4B
:104C5000936813F00C0FFBD14FF00062064B9A6083
:104C6000064ADA6002B07047003802400CC0FF8884
:104C7000003C02400070004000ED00E00003FA0537
:104C800070B5064688B02E4801F046FB2D4B1A68D9
:104C90000092009A91073CD501214FF4007001F079
:104CA00095FD012001F088FB274A536843F4003347
:104CB0005360A2F5374253681B07FCD50024012539
:104CC00002A801F063FB02A91D488DF80D4006946F
:104CD0008DF81C508DF80C4001F032FB2A4606235B
:104CE0003146174801F074FB2946154801F05AFB7C
:104CF0000221134801F0FEFB114801F0EDFB134DBA
:104D000001940F4C0221204601F0EEFB58B108B08F
:104D100070BD1A6842F001021A60009A9207BBD473
:104D20001A680092F9E7019B01330193019BB3F5E7
:104D3000805FE7DB38212846FDF772FAE2E700BF23
:104D40000024014000380240002701406FBB0108E9
:104D500008B5002001F030FB0021074801F022FBDC
:104D600000214FF4007001F031FD044A136823F074
:104D70000103136008BD00BF002401400038024059
:104D800013B5072301220146114801F021FB02213E
:104D90000F4801F0AFFB0E4801F09EFB00230D4CC5
:104DA000019302210A4801F09FFB28B1084802B094
:104DB000BDE8104001F095BB019B01330193019BBD
:104DC000B3F5805FEDDB4C212046FDF729FAE8E7DB
:104DD000002401406FBB010870B506460825FFF7A7
:104DE0004FFF00243046FFF7CBFF013D0444F9D1CB
:104DF000FFF7AEFFC4F3CF0070BD0000000000005D
:104E000008B51120FFF7E8FF12F0A8F9014608489D
:104E100012F0B0FA11F08AFD03A3D3E9002311F0D8
:104E2000DDFD12F095F808BD2FDD24068195F33FD6
:104E300000F07F450F4A536A43F0805353620E4B94
:104E40001A465968C906FCD41B68022823F4C053CB
:104E500006D143F4C05313605368DB06FCD470479B
:104E6000012802D143F48053F5E70028F3D143F43D
:104E70000063F0E7003802400070004010B50C4BB2
:104E80005A68D206FCD41C6814F4C05F0BD114F429
:104E900080500AD114F4006404D106482A21FDF799
:104EA000BFF9204610BD0220FCE70120FAE700BF51
:104EB00000700040B5BB010838B50546012001F07F
:104EC00029FB022D01BF144A136843F0010313604C
:104ED000124B1A6842F480721A601A689205FCD567
:104EE0005A6822F4604242F440425A6000229A60BA
:104EF0000A4B9C6814F00C04FBD14FF480721A60CA
:104F0000074B084A28461A60FFF794FF2046BDE881
:104F1000384001F0F3BA00BF003C024000380240C4
:104F20005C000020D0FE3F000C4B5A6B900513D460
:104F30005A6A42F080525A62094A116841F48071FB
:104F40001160596B41F480715963596B8905FCD527
:104F5000136823F480731360704700BF0038024069
:104F600000700040054B5A6B910706D45A6B42F013
:104F700001025A635A6B9207FCD570470038024011
:104F8000094B5A6A42F020025A629A6942F02002A2
:104F90009A619A6922F020029A610022A3F50933EE
:104FA0001A801A855A62704700380240152102386B
:104FB000002248430121064B1A85D86299825A6221
:104FC0001A8219801A8AD207FCD500221A807047EB
:104FD00000140040002349F6FE7282B00193019B49
:104FE000934201DD02B07047019B01330193F6E764
:104FF000002340F6FE7282B00193019B934201DDD3
:1050000002B07047019B01330193F6E7002382B0A1
:105010000193019BB3F5CC7F01DD02B07047019B8A
:105020000133F5E7D0B1012801D1FFF7EFBF0C4BF9
:1050300000211A684FF47A73B2FBF3F2094B013A7C
:1050400092B21A8501220138D8629A825962198275
:105050001A801A8AD207FCD500221A80704700BF36
:105060005C0000200014004000F1774303F5780352
:10507000B3F5804F2DE9F04106460C4617462DD278
:1050800002F1F73303F608030344B3F5804F25D24A
:10509000FFF7F4FE804610B10020FFF7CBFE01F0D1
:1050A00051FA01252744361BA7420AD101F05AFACA
:1050B000B8F1000F02D04046FFF7BCFE2846BDE81D
:1050C000F08141F6027001F055FA301914F8011B15
:1050D00001F0ACFA042818BF0025E5E70025EDE74C
:1050E00010B50C4600F1774101F57801B1F5804F1C
:1050F0000DD202F1F73303F608030344B3F5804FF2
:1051000005D20146204612F09AFD012010BD002074
:10511000FCE7000008B5114B984215D003F58063F9
:10512000984213D003F58063984211D003F5806351
:1051300098420FD003F5006398420DD0084B094AFE
:105140001421094812F028FC002008BD0120FCE7CA
:105150000220FAE70320F8E70520F6E70000024006
:1051600044BC0108FEBB01085DBC01080F2808B55E
:1051700005D9094B094A3B21094812F00DFC0123CE
:1051800003FA00F0C043074A5168014051601368B8
:105190001840106008BD00BFA6BC010808BC01088B
:1051A0005DBC0108000401400F292DE9F84F82463B
:1051B0000D4693461F4605D95A4B5B4A54215B481E
:1051C00012F0EAFB4FF0010909FA05F900F0B8F80E
:1051D0006FEA0903564E032D7268564C02EA030229
:1051E0007260326803EA0203534A3360136A43F081
:1051F000010313622ED80F22A3684FEA850802FA32
:1052000008F223EA0203A3605046FFF783FFA36876
:1052100000FA08F01843A0601BF0020F18BFB36833
:10522000464A1CBF43EA0903B3601BF0040F1EBFCC
:10523000F36843EA0903F360336843EA0903336020
:105240003B01DBB2002D45D182F8063340231360C9
:10525000BDE8F88F072D13D80F22A5F10408E368E5
:105260004FEA880802FA08F223EA0203E360504694
:10527000FFF750FFE36800FA08F01843E060CBE75F
:105280000B2D13D80F22A5F1080823694FEA8808CF
:1052900002FA08F223EA020323615046FFF73AFFBD
:1052A000236900FA08F018432061B5E70F22A5F141
:1052B0000C0863694FEA880802FA08F223EA02033D
:1052C00063615046FFF726FF636900FA08F0184350
:1052D0006061A1E7012D03D182F807338023B6E78F
:1052E000022D04D182F808334FF48073AFE7032D09
:1052F00004D182F809334FF40073A8E7042D04D1D8
:1053000082F80A334FF48063A1E7092D04D882F8AC
:1053100017334FF400039AE782F828334FF4807371
:10532000536095E7B2BC010823BC01085DBC0108CD
:1053300000040140000001400038024000E100E0AC
:10534000144B984205D1144AD36943F00103D36149
:105350007047124B984204D10F4AD36943F00203BD
:10536000F5E70F4B984204D10B4AD36943F004038D
:10537000EDE70C4B984204D1074AD36943F0080388
:10538000E5E7094B9842E3D1034AD36943F0200390
:10539000DDE700BF00000240003802400004024088
:1053A00000080240000C02400014024003234900A0
:1053B00010B584688B4024EA030484600124022A27
:1053C00004FA01F407D0032A0DD0012A07D183681B
:1053D0002343836003E083688A401A4382608368C2
:1053E0001C43846010BD82681343F2E70F29F8B5AF
:1053F00004460F4615461E4603D940211948FCF7BE
:105400000FFF2046FFF79CFF03237A009340DB4306
:105410002168194021600121D4F800C001FA02F08E
:105420004CEA000CB940C4F800C009B266B1A688C5
:10543000314389B2A180E168012D03EA0103E360F1
:1054400006D0022D08D0F8BDA68826EA0101F1E7B2
:10545000E3680343E360F6E7E36805FA02F21A4300
:10546000E260F0E702BD01080F2970B505460C4661
:10547000164603D960210E48FCF7D2FE2846FFF7F6
:105480005FFF032361008B40DB43EA68012E02EAE1
:105490000302EA6005D0022E03D02A6813402B6075
:1054A00070BDEA6806FA01F11143E960F5E700BF53
:1054B00002BD01080F2910B505D9074B074A76210F
:1054C000074812F069FAFFF73BFF4B00032102681F
:1054D00099401143016010BDA6BC0108BEBC010883
:1054E00002BD01080F2938B50446154605D97C21AF
:1054F0001B4B1C4A1C4812F04FFA0F2A03D91B4BB6
:10550000184A7D21F6E7FFF71BFF07294FF00F032D
:1055100018D8006A8A00934020EA03032362236AB2
:1055200005FA02F21A4322620322236849008A40E4
:1055300023EA020323600223226803FA01F11143E4
:10554000216038BDA1F10802406A9200934020EA30
:1055500003036362636A95401D436562E4E700BF2D
:10556000A6BC0108D1BC010802BD0108EFBC0108BE
:10557000012303FA01F189B201837047012303FA81
:1055800001F189B241837047012303FA01F189B225
:105590000AB10183704741837047008A084100F0D7
:1055A000010070470F2938B505460C4603D9A921DB
:1055B0000548FCF735FE28686400E04000F0030071
:1055C000431E5842584138BD02BD0108808A084137
:1055D000C04300F00100704710B5084C23681BB9A8
:1055E000012005F055FA206023682BB9BDE8104072
:1055F00036210348FCF714BE10BD00BFA00C0020EC
:1056000049BD010810B50B4C22681AB93C210A4863
:10561000FCF706FE206842F2107105F081FB0128BC
:105620000CBF0124002403D040210348FCF7F8FDFF
:10563000204610BDA00C002049BD010810B5074C44
:1056400022681AB94D210648FCF7EAFD00232068BC
:105650001A46BDE81040194605F076B9A00C0020A6
:1056600049BD010810B50446FFF7B6FFFFF7CAFFB2
:1056700021461022034801F04BFD0446FFF7DEFFF0
:10568000204610BD0054004010B5FFF7A5FFFFF7FE
:10569000B9FF01F0F5FC0446FFF7D0FF204610BD2E
:1056A00008B513460A460146034801F067F9003081
:1056B00018BF012008BD00BF0054004008B51346C4
:1056C0000A460146034801F05FFA003018BF012086
:1056D00008BD00BF0054004008B513460A46014605
:1056E000034801F0E3FA003018BF012008BD00BFF5
:1056F0000054004008B513460A460146034801F02D
:1057000065FB003018BF012008BD00BF00540040F9
:1057100008B513460A460146034801F0AFFB0030C6
:1057200018BF012008BD00BF005400400123064AF5
:1057300083405169194205D05361044B53F820301E
:1057400003B11847704700BF00040140A40C0020BB
:105750000F2838B504460D4603D926210348FCF727
:105760005FFD034B43F8245038BD00BF8FBD0108D7
:10577000A40C00200020FFF7D9BF0120FFF7D6BFFF
:105780000220FFF7D3BF0320FFF7D0BF0420FFF7AD
:10579000CDBF08B50920FFF7C9FF0820FFF7C6FFF6
:1057A0000720FFF7C3FF0620FFF7C0FFBDE8084052
:1057B0000520FFF7BBBF08B50F20FFF7B7FF0E208E
:1057C000FFF7B4FF0D20FFF7B1FF0C20FFF7AEFF8E
:1057D0000B20FFF7ABFFBDE808400A20FFF7A6BF8C
:1057E000FEE7FEE7FEE7FEE7FEE7FEE7FEE7FEE791
:1057F000FEE7FEE7FEE7FEE7FEE7FEE7FEE7FEE781
:10580000FEE7FEE7FEE7FEE7FEE7FEE7FEE7FEE770
:10581000FEE7FEE7FEE7FEE7FEE7FEE7FEE7FEE760
:10582000FEE7FEE7FEE7FEE7FEE7FEE7FEE7FEE750
:105830000A23B0FBF3F203FB120040EA0210C0B2ED
:1058400070470000CA22024B5A6253225A627047C4
:1058500000280040014B1860704700BFE40C002096
:105860004FF400320F4B10B50F4C5A61E368DB0563
:1058700003D430210D48FCF7D3FCFFF7E3FF4FF4CE
:105880000072A36823F48853A360094BC3F88420F3
:10589000FF236362074B1B6813B1BDE81040184734
:1058A00010BD00BF0004014000280040D5BD010824
:1058B00000E100E0E40C00202DE9F04F9846374B62
:1058C00085B01B78824691469DF838709DF83C6003
:1058D0002BB9334B334A8C21334812F05DF8431E09
:1058E0001E2B59D80C2957D8A2F5FA63632B53D82D
:1058F000B8F1170F50D83B2F4ED83B2E4CD802F1A1
:105900003000C0B2FFF794FF83460846FFF790FFD0
:1059100004465046FFF78CFF40F400554046FFF721
:1059200087FF45EA0B4545EA042504463846FFF75C
:105930007FFF000240EA04443046FFF779FF20432E
:105940001A4CFFF77FFFE36843F08003E360E368EE
:105950005B06FCD565602060E36823F08003E360AC
:10596000124BDA689206FCD5FF2204A85A6200F8AE
:105970000C6D8DF807A08DF80810ADF809908DF822
:1059800006808DF8057002F032FB094BC3E9000177
:10599000012005B0BDE8F08F0020FAE7E80C0020F8
:1059A0004EBE01081BBE0108D5BD010800280040FD
:1059B000F00C002037B50578C4788378B0F805205E
:1059C00001790195407800902046FFF775FF03B0FC
:1059D00030BD000038B52B4B04461B781BB9E421C1
:1059E0002948FCF71DFC294AD36823F02003D36023
:1059F000D3689B06FCD513685268C2F307410809B7
:105A000000EB800001F00F0101EB4001C9B201F58C
:105A1000FA61A4F80510C2F30721C1F30010850054
:105A2000284401F00F0101EB4001D2B22171C2F311
:105A3000011101EB810102F00F0202EB4102E27061
:105A4000C3F30742C2F3011101EB810102F00F021F
:105A500002EB4102A270C3F30722C2F3021101EB71
:105A6000810102F00F0202EB4102DBB26270C3F36C
:105A7000021202EB820203F00F0303EB42032370D6
:105A800038BD00BFE80C0020D5BD0108002800404B
:105A90001FB501A8FFF79EFF01A802F0A8FA05B004
:105AA0005DF804FB08B5FFF73FFA1B4A136843F49F
:105AB00080731360FFF7C6FE184A536B23F440331C
:105AC00043F482035363164BDA6842F08002DA60D3
:105AD000DA685106FCD5FF221A611A6942F4FE0207
