:020000040800F2
:1000000000800020A5690008E9730008D91C0008D9
:10001000EB730008ED730008EF73000800000000A8
:1000200000000000000000000000000091BD00087A
:10003000F17300080000000021BE000865BE000842
:10004000F3730008F5730008F7730008F9730008EC
:10005000FB730008FD7300087D73000883730008BC
:10006000897300088F73000895730008FF730008F8
:100070000174000803740008057400080774000880
:10008000097400080B7400080D7400080F74000850
:100090001174000813740008157400089B7300089D
:1000A00017740008197400081B7400081D740008F8
:1000B0001F740008217400082374000825740008C8
:1000C00027740008297400082B7400082D74000898
:1000D0002F740008A17B0008817D0008317400089E
:1000E000BF73000869740008337400083574000891
:1000F000377400080000000000000000000000004D
:1001000000000000000000005FF808F110B5054C89
:10011000237833B9044B13B10448AFF300800123B3
:10012000237010BD580400200000000084DD010889
:1001300008B5034B1BB103490348AFF3008008BD6A
:10014000000000005C04002084DD010808B501F017
:10015000DBF9BDE8084001F08DB808B501F0D4F92D
:1001600008BD08B501F0D0F93C3008BD0048704723
:100170004D01000808B501F0C7F9483008BD7047C7
:1001800008B501F0C1F9BDE8084001F071B8000000
:10019000004870470080FFFF10B5044601F0B4F935
:1001A0000146204601F0D8F8204610BD08B50348A6
:1001B00009F0E6FCBDE8084007F012BEA39501086F
:1001C00007F00EBE10B50446C06910B1012106F05B
:1001D000E7FB206910B1012106F0E2FB204610BDCB
:1001E000F8B50025C0E901120570C0E90335C0E982
:1001F0000555C0E90755456206990446164600F1C3
:100200001C0702F099F838B93146074809F0B8FCE4
:100210002021064801F0DCFC069A3946204602F00F
:1002200075F82046F8BD00BFC1950108EC9501089E
:10023000F8B50025C0E901120570C0E90335C0E931
:100240000555C0E90755456206990446164600F172
:100250001C0702F055F938B93146074809F090FCFF
:100260002021064801F0B4FC069A3946204602F0E7
:100270000FF92046F8BD00BFC1950108EC950108B3
:100280002DE9F04100259DF81860C0E901120570C4
:10029000C0E90335C0E90555C0E907554562314657
:1002A0000446174600F11C0801F046FF38B93946EC
:1002B000074809F065FC2021064801F089FC324618
:1002C0004146204601F026FF2046BDE8F08100BFF0
:1002D000C1950108EC95010870B5AEB003F07AF94C
:1002E0000546002612A808ACFFF756FF12A92846BB
:1002F0000FF08AF9674B684A009602212046FFF703
:100300006FFF2146284603F00BFA2046FFF75AFFFD
:100310003223624A00930221614B2046FFF760FFBF
:100320002146284603F0FCF92046FFF74BFF5D4BC2
:100330005D4A1B680321009320465C4BFFF778FF62
:100340002146284603F0ECF92046FFF73BFF3C230B
:10035000574A00930221574B2046FFF741FF2146A1
:10036000284603F0DDF92046FFF72CFF524B534A95
:10037000009601212046FFF783FF2146284603F01F
:10038000CFF92046FFF71EFF4D4B4E4A0096022143
:100390002046FFF725FF2146284603F0C1F92046F5
:1003A000FFF710FF484B494A009601212046FFF70E
:1003B00067FF2146284603F0B3F92046FFF702FF06
:1003C000434B444A009602212046FFF709FF21468D
:1003D000284603F0A5F92046FFF7F4FE4FF4167304
:1003E0003D4A009302213D4B2046FFF7F9FE21468E
:1003F000284603F095F92046FFF7E4FE384B394ACA
:100400001B68032100932046374BFFF711FF21465D
:10041000284603F085F92046FFF7D4FE334B344AD3
:100420001B68032100932046324BFFF701FF214652
:10043000284603F075F92046FFF7C4FE2E4B2F4ADD
:10044000009303212E4B2046FFF7F2FE214628465B
:1004500003F066F92046FFF7B5FE2846294B2A4AE5
:100460002A4903F025F80121294B2A4A08932A4BEF
:10047000CDE905120993294B07960A9305AB93E83A
:1004800007008DE807000B9694E80F0003F040FB8F
:100490002EB070BDFC9101082D92010863920108F5
:1004A0003B92010804000020B692010872920108F4
:1004B00001930108C19201080D9301084C930108B2
:1004C0005F9301089F930108AB930108D69301083D
:1004D000E39301082B9401085E9401083C94010801
:1004E00008000020B59401086F9401080C0000205A
:1004F0000D950108BD940108F6A101086F9501084A
:1005000017950108C1010008799501089D9501081A
:100510004D6D000800000808D56C0008AD0100080A
:1005200010B5084C22681AB99021074801F050FB19
:10053000064B1A682368B2FBF3F003FB102303B1E8
:10054000013010BD6807002065980108640700208D
:10055000F8B5FFF706FE03681B6898470E4B1B783B
:10056000B3B90E4BD3E90023B3F1004F08BF002A03
:1005700010D000270A4E841A61EB0305A64277EBE0
:10058000050407DB904271EB0303B4BF0123002392
:100590001846F8BD0123FBE7800600202800002054
:1005A0004351010038B504F0E6FC05F04FFD02218F
:1005B00005F05AFD04460D4605F038F9012C75F199
:1005C00000030ADB03F0B4FD05492B4622460978F7
:1005D00004F0B7FA034B187838BD034BFBE700BFB4
:1005E0008C070020A70B0020A40B0020F8B54FF0CB
:1005F00000470026184C13F09DFB01F017FAD4E9D0
:100600000023BB4208BFB24223D003F091FD30CC9F
:100610001249621C45F10003097804F0A0FAB942BE
:1006200008BFB04204460D4613D0FFF79AFD036899
:100630001B689847A04271EB05030ADB2946204658
:1006400009F01EFA0146064809F09AFA054B187897
:10065000F8BD054BFBE700BF3000002084070020F9
:10066000F2960108A70B0020A40B002010B5002073
:10067000002104F01FFF044628B90F4809F080FA52
:100680000E4B187810BD41790D4809F079FA61795F
:1006900080290DD10B4B22792168186802F03AFBB2
:1006A000204605F06FFA0821204606F079F9E7E7C1
:1006B000054809F065FAF3E74D970108A40B0020FF
:1006C00055970108880700205E97010810B5CCB047
:1006D00005F0BCFC04A905F0BFFB184C58B34FF45F
:1006E00000721749684606F0BEF801238DF80C30F9
:1006F000144B1B78012B04D1059A0023684606F0A1
:10070000F9F80CA90B9A684606F0BAF8684606F0A4
:10071000E2F800220C4B206068461A6006F0D9F817
:100720000446684606F0D7F821460246074806F018
:1007300051F84CB010BD2060FBE700BF64070020FB
:10074000800400205F0700206007002010000020C8
:1007500010B5FFF715FD0B49044615F033FB15F0F6
:10076000F7FC094B1880FFF713FD084B084A188067
:100770004FF0804120460FF039FEBDE810400FF0E9
:100780005FBE00BF00007A443A000020380000201D
:10079000CDCC4C4008B5084809F0F2F9FFF7E1FC70
:1007A00003681B689847054BC3E90001FFF7D0FFBA
:1007B000034B187808BD00BF2097010830000020C7
:1007C000A40B002070B54A4C94B02368DB0708D412
:1007D00002F01AFF80220146464801F0EDFF012396
:1007E0002360454B434A454D1A602B68444C13F037
:1007F000010F04D1FFF7BEFC012320602B602068AD
:1008000003681B689847054620B940F20B113D4824
:1008100001F0DEF93C4B0C933C4B0A933C4B0993A3
:100820003C4B0B933C4B06933C4B08933C4B079340
:1008300002F0EAFE04461C2200210DA815F0D9FFA3
:100840003849204602F06EFD37498DF834002046C5
:1008500002F082FD3549ADF83600204602F07CFDFD
:100860003349ADF83800204602F076FD1090FFF7CE
:1008700078FC064602AB06AA07CA83E807000BAB62
:1008800093E803008DE8030009AB0CCB2946304602
:1008900005F0A6FB0DA905F049FD05F0D7FB0546BF
:1008A00013F048FA2349204602F05FFD05F52C7548
:1008B0000146284612F064FE1F49204602F055FD0D
:1008C0000146284612F0D6FE1C49204602F04DFD96
:1008D0000146284612F044FF1949204602F022FD45
:1008E00014F060FAFFF734FF164B187814B070BD9F
:1008F000740400206C070020880700207804002082
:100900007C07002065980108819B000849090008C0
:100910006509000881090008794F0108194F01088D
:10092000DD4F0108D6930108019301089F93010848
:100930005E940108B59401080D9501086F950108B2
:100940004C930108A40B0020054B30B41C682368AD
:100950009D681346AC460A460146204630BC6047B7
:100960007C070020054B30B41C6823685D68134683
:10097000AC460A460146204630BC60477C07002052
:10098000034B01461B681A6818461269104700BFDE
:100990007C07002038B504F0EEFA05F057FB012182
:1009A00005F062FB04460D4604F040FF012C75F192
:1009B00000030ADB03F0BCFB09492B4622460978F9
:1009C00004F0BFF8074B187838BD13F034FC28B991
:1009D000054809F0D5F80122044B1A70044BF2E7E0
:1009E0008C070020A70B00209996010880060020A4
:1009F000A40B002038B5134B1B685B680BB10120BA
:100A000038BDFFF7A5FD0028F9D10F4C23683BB98D
:100A100013F0FDFB002801DDFFF758FE236863B1EA
:100A200013F009FC054613F0F2FB2D1A13F003FC3A
:100A300029460246054809F0A3F82068003018BF8F
:100A40000120DDE7880700206407002030970108B7
:100A50001FB56123CDE9013101A9039203F082FBA7
:100A600005B05DF804FB07B58DF8041001A98DF8F9
:100A700005208DF8063003F035FC03B05DF804FB6B
:100A80002DE9F04F87B0FFF768FB044605F02EFE16
:100A9000204605F041FEFFF71FFCFA200CF0A0FCF9
:100AA00002F0B2FD044602F0A7F9204604F0B6FDBC
:100AB000A349204602F050FC012800F230810025B5
:100AC000A04B1870A049204602F046FCA0F10A0392
:100AD000282B00F229819D4B1860002D40F02781C2
:100AE0009B4D9C4809F04CF82B689B4C13F0010F70
:100AF00004D103F01DFB012320602B602568FFF764
:100B000030FB0146284603F0DFF92568FFF72EFB8E
:100B10000146284603F0DAF902F076FD8F49256890
:100B200002F023FC8E49024603A803F0B7F903A99B
:100B3000284603F00DFA8B4B25681870002200231D
:100B4000894903A803F05CF903A9284603F000FAD9
:100B5000864A87491070874A2068FFF779FF8DF829
:100B60000700206804F026FA834A824683492068F9
:100B7000FFF76EFF4FF000097025814B064603A971
:100B80002068049303958DF8149003F0EBFA7D4AE6
:100B90008DF805007C492068FFF75AFF7B4B8046A3
:100BA00003A92068049303958DF8149003F0DAFAF2
:100BB000774A8DF8060077492068FFF749FF764BA2
:100BC0008346764A7649206804F0E6FE754A074671
:100BD00075492068FFF73CFF744A8DF8020074499C
:100BE0002068FFF735FF5F4B8DF803001A787149D5
:100BF000206804F021FB9DF807508DF80400206860
:100C0000534680F828506C4D9DF807102A78FFF75E
:100C10002AFF6A4A5146DFF8BCA1334620681278A1
:100C2000FFF721FF9DF805309AF800203146206833
:100C3000FFF719FF4D4933460A7820689DF80510E3
:100C4000FFF711FF43462A7831462068FFF70BFF74
:100C50009DF806309AF8002041462068FFF703FF10
:100C6000424943460A7820689DF80610FFF7FBFECC
:100C70003B462A7841462068DFF85C81FFF7F3FEA7
:100C80003B462A789DF802102068FFF7ECFE9DF89D
:100C9000023098F8002039462068FFF7E4FE9DF8FE
:100CA00003302A7839462068FFF7DDFE5B469AF864
:100CB00000209DF803102068FFF7D5FE9DF8043052
:100CC0002A789DF803102068FFF7CDFE9DF80230CA
:100CD00098F800209DF804102068FFF7C4FE214A10
:100CE0005B469DF8041020681278FFF7BCFE33467F
:100CF0002A7859462068FFF7B6FE206803F09AFC70
:100D00002F4808F03DFF01224FF49671206803F050
:100D10002BFC48460CF0E0F807B0BDE8F08F2948FE
:100D200008F02EFF0125CDE6274808F029FF2748C7
:100D300008F026FF40F2D711254800F049FFCFE622
:100D40002D9201085F0700206392010868070020C8
:100D50007C040020D797010880070020B692010884
:100D6000F497010884070020F99701088C070020F8
:100D7000A4AA0108C5070008A505000803980108F2
:100D80000D98010895090008189801082298010893
:100D9000950700082D9801086D0F0008F509000857
:100DA000349801086D0600082EA90108ED05000819
:100DB0004198010879AA0108A40B0020A80B002083
:100DC0004B9801087E970108A1970108C497010874
:100DD00065980108A70B0020690C002030B501259B
:100DE00085B00A4604461949684605F03CFD0221D3
:100DF00068468DF80C5005F061FD0321684605F04A
:100E00005DFD0A21684605F059FD114B68461988B9
:100E100005F07CFD0F4B6846B3F9001005F05DFD51
:100E20000D4B197811B1002229461A70684605F059
:100E300045FD684605F04DFD0546684605F04BFD4D
:100E4000012325606371207105B030BD810600204B
:100E50003A00002038000020800600202DE9F743EA
:100E6000384B80461D780A4645B1012D59D0D52111
:100E7000354803B0BDE8F04300F0AABEFFF750FBD1
:100E8000324C334F2368984246D93D68314A05FBBE
:100E90000325314B1E68FFF743FB2268904292BF47
:100EA00000233B685343F61A3B689E4228BF1E4608
:100EB0001EB9B521244800F08BFE0A27236803FBE6
:100EC0000777FFF72DFB2168074401F10109FFF7C0
:100ED00027FBFBB202460093494633461F4808F001
:100EE0004FFE3146284608F0B1FE1D4808F048FE86
:100EF000236888F805700133C8F8005088F804604A
:100F00002360FFF70DFB2368984202D10022124BA9
:100F10001A6003B0BDE8F083B3210B4800F058FE1F
:100F2000B7E7104D104C2946204605F025FC6523F7
:100F300088F8040088F80530D4E90223C8F8005086
:100F40009A42E2E75F0700206598010860070020E9
:100F5000680700208004002064070020B79601087D
:100F6000F5A101088106002010000020F7B5194FF7
:100F700004463B680D465B688BB1174E174808F076
:100F8000FFFD0DF107032A463146386801F06EFC7B
:100F90009DF8073026606371207103B0F0BDFFF744
:100FA000D7FA78B10E4808F0EBFDFFF7DAF80368DE
:100FB0001B6898470B4BC3E9000129462046FFF701
:100FC0000DFFEAE7084808F0DBFD29462046FFF759
:100FD00045FFE2E788070020810600203B960108D4
:100FE00061960108280000207E96010813B5FFF7DE
:100FF000B4F8036800249B689847FFF7C0F8012302
:101000004FF496720B49CDE900340B4823460BF0A0
:1010100075FE0A4808F0B4FD094808F0B1FD0CF06F
:1010200047F840F20321074800F0D2FD204602B005
:1010300010BD00BFB1980108810A0008BA980108E4
:10104000CD98010865980108FF23024A1370024AEF
:10105000137070478C07002084070020704710B57C
:101060000446542105F09CFC204610BD81F001028D
:101070000148032106F0A6B80000024010B50C4656
:101080000CF016FC022808D14FF47A704443B4FBEC
:10109000F0F0BDE810400CF0A3B92046BDE81040C8
:1010A00005F0F6BD7FB5F82300F1400504AC064617
:1010B000284604F8013D00F021FC0223214600935C
:1010C0000122A023284600F01DFC4FF40043082213
:1010D000009306F14C01A0230446284600F03CFC96
:1010E0000440E4B2284600F00BFC204604B070BD7A
:1010F00010B50446434B8AB01968434808F040FDD8
:1011000000F0F2FA4148424908F03AFD04F140008B
:1011100000F0EEFB30B93F4808F032FD70213E4848
:1011200000F056FD05F09AFD2046FFF7BBFF18B909
:101130007521394800F04CFD94F8530094F84E3076
:1011400094F84D2094F84C10049094F852000390B9
:1011500094F85100029094F85000019094F84F00D8
:1011600000902E4808F00CFD04F1480000F07CFBD4
:1011700000F0CEFA2A4808F003FD4FF4FA7015F09B
:10118000D5FA0446002836D1264808F0F9FC26484E
:1011900008F0F6FC254808F0F3FC254A25492648C6
:1011A00008F0EEFC2549264808F0EAFC254808F03E
:1011B000E7FC254B254A1B6825490093254B1268FF
:1011C0001B68254816F0B8F92349244808F0D8FCD4
:1011D0002349244808F0D4FC07A806F0FFF907A823
:1011E00008F024FC0146204808F0CAFC0F4808F02B
:1011F000C7FC0AB010BD1D4808F0C2FC204615F01F
:101200009DFAC4E73C000020FF98010815990108E9
:10121000A086010030990108469901088C990108BF
:10122000C1990108EF990108F4A101082D9A01085C
:101230005E9A0108699A01088F9A01089F9A01082D
:10124000A99A0108B49A01086400F81F5000F81F19
:10125000D49A01085400F81F98070020E69A010864
:10126000F19A0108F79A0108119B0108239A0108D5
:101270000020704770B50446324E334808F080FCB9
:10128000204605F059FA13F047FE0EF0B1FD0DF0BF
:10129000FFF80DF069FE012230460C2105F01AFF1F
:1012A00006F022FB23680021DB68284D2046984782
:1012B00005F0EEFF264808F063FC06F043FC05F05D
:1012C000BFFC284601220D2105F004FF284601221B
:1012D0000E2105F0FFFE01222846032105F0FAFE4B
:1012E0000021084606F0BEFA002328461A460321CC
:1012F00005F0B2FE0321284605F05EFF04F1400030
:1013000000F0F6FA4FF4E13006F02EFD114808F037
:1013100037FC30460C2105F049FF002330461A46C1
:101320000C2105F099FE0021084606F001FB0DF0A6
:101330002DFE0CF0D3FF06F0D5FA2046BDE8704034
:1013400005F00ABA00040240239B01080000024095
:10135000479B01088C9C010838B50C4611310546A5
:101360000EF018FC214651F84C3F28462B604B6884
:101370006B6038BD2DE9FF4100F14005284600F0C3
:10138000BDFA04240226284F013C14F0FF0433D098
:10139000A123012239460096284600F0B3FA4FF403
:1013A0000043804600930422A12302A9284600F0AE
:1013B000D3FAB8F1000F01D10028E5D09DF808302C
:1013C000442B20D19DF809306E2B1CD10DF10A0061
:1013D00008F0C1FC0223013084B221460DF109005E
:1013E0008DF8083008F0DFFC002303220093A023CF
:1013F00002A9284600F086FA284600F081FA204625
:1014000004B0BDE8F0814FF488430024ADF8083003
:101410006E2300210DF10B008DF80A3008F0C3FC9B
:101420000094A0230522E3E7FE980108F7B50446DF
:1014300005F052F91A4B1B4A23601B4B1B4EE3630A
:101440001B4BA264236400231A4884F84430C4E987
:10145000133308F095FB3368174F01933B68174D22
:1014600000932B68164A1B2104F1210016F030F876
:10147000296804F1110008F08DFC396804F11500A9
:1014800008F088FC316804F1190008F083FC296831
:1014900004F11D0008F07EFC204603B0F0BD00BF43
:1014A000749B0108EC9B0108689C01086400F81F0C
:1014B0004C9C0108559B01085400F81F5000F81F70
:1014C000D49A010810B506F0C9FC0A4C0A4B186002
:1014D00000F0D6F82368DB0709D40848FFF7A6FF19
:1014E0000123074A07490548236013F087FD034895
:1014F00010BD00BF900700203C000020B407002072
:10150000000000205D10000838B5064D064C2B6821
:1015100013F0010F04D1FFF7D5FF012320602B60EA
:10152000206838BD9407002008080020032006F03A
:1015300067BC10B50446FFF7E7FF2146BDE8104041
:10154000FFF718BF38B5384D0CF0F4FF28460222DB
:10155000002105F0BFFD28460222012105F0BAFD59
:10156000002328461A46032105F076FD284602226C
:10157000082105F0AFFD284602220B2105F0AAFD47
:10158000284602220C2105F0A5FD284602220D2145
:1015900005F0A0FD284602220E2105F09BFD2846FD
:1015A00002220F2105F096FD0222204C1146204612
:1015B00005F090FD20460222032105F08BFD204618
:1015C0000022062105F086FD20460222082105F0B2
:1015D00081FD20460222092105F07CFD20460222E1
:1015E0000C2105F077FD204602220D2105F072FD49
:1015F0000F2328460222082105F00CFC2046012278
:101600000C2105F067FD204602220D2105F062FD48
:10161000204602220E2105F05DFD2046BDE838403F
:1016200002220F2105F056BD0000024000040240D6
:1016300008B50D49012005F08FFE0C490B2005F07F
:101640008BFE0B490A2005F087FE0A49042005F0AD
:1016500083FE0949072005F07FFEBDE808400749E1
:10166000052005F079BE00BF99B80008E1BB00086D
:1016700051BA000801BD000855BC0008DDBC0008D7
:1016800008B5022005F062FA05F0C4FAFFF75AFF28
:1016900005F0D6FAFFF7CCFF06F008F80C4800F08A
:1016A00061FA4FF4E13006F05FFB0A4B1A680AB9A1
:1016B000094A1A60094B1A680AB9074A1A600848A9
:1016C00008F05EFABDE80840064808F059BA00BFC5
:1016D0002D15000844100020097C00084810002047
:1016E0008C9B0108A49B0108002307B5ADF80430CA
:1016F0008DF8063001238DF8053001980CF076FE48
:1017000005F09EFA03B05DF804EB0CF0C1BE0000DA
:101710002DE9F04FA9B00DF003FADFF80891384C2D
:1017200060B9384BCDE923442293374BCDF88090F4
:101730002193009420AB0FCB0DF0F8F9334B00252B
:101740001993334B4FF003081893324B2E4F1A93D3
:10175000314B2C4E1B93314B09A9CDE91C3404238A
:1017600018A8CDE909351E971F9608F015FF08F057
:1017700007FF15F045FE2946142223A80C95CDF845
:101780002C8015F036F8EE460DF1A00C4CF8186DD3
:10179000BCE80F00CDE92047AEE80F009CE803004D
:1017A0008EE803000DF12C0A0DF1800B9BE80C0074
:1017B0009AE8030013F0FCFA294610220EA815F04F
:1017C00018F8174BCDE9124417930123CDF8348054
:1017D0008DF83E3002AC0DAD0FCDCDE91576CDF8CC
:1017E00050900FC42B68236016AB93E803008DE87C
:1017F000030012AB0FCB0EF0F7F929B0BDE8F08F64
:10180000819B00088D9C0008B99C000815E4000825
:10181000DDE20008EDE1000885E1000899E100083B
:1018200033150008997600080DF0C4BA0846114631
:101830001A460DF05DBB084611461A460DF0DABA9D
:10184000084611461A460DF00FBB09B10DF09EBBBC
:101850000DF08ABB0C2110B1024805F0A7BC01486D
:1018600005F0AABC0004024000B50C2189B019485B
:1018700005F09CFC00230C211A46164805F0ECFBF1
:101880000021084606F054F800220592124A02ABE5
:101890000292124A0692124A0392124A04924FF49A
:1018A0000042079208AA12E903008DE803000FCB5B
:1018B0000DF084FB40B10DF07DFA01460A4809B0F5
:1018C0005DF804EB08F05CB9084809B05DF804EB7A
:1018D00008F056B90004024055180008916C000841
:1018E000E5790008819B0008BA9B0108D09B01089C
:1018F000014805F0BBBC00BFA086010005F086BC16
:1019000005F0A0BC2DE9F041069F1E4607F0030339
:10191000032B80460C46154603D119210D4800F0D3
:1019200057F92046BC07324629460AD505F0D8FCAF
:1019300010B10120BDE8F0810123002088F80430B7
:10194000F8E7FB0702D505F0D9FCF1E705F0BAFC92
:10195000EEE700BF009C01082DE9F041069C0D4612
:10196000E107804616461F4603D536210D4800F094
:101970002FF9A20703D539210A4800F029F92304D9
:101980003A46314628460AD505F0C6FC10B101207A
:10199000BDE8F0810123002088F80430F8E705F065
:1019A00083FCF3E7009C010805F076BE1FB501A893
:1019B00007F0FEFF01A805F04FFF05B05DF804FB3E
:1019C00005F0B8BE05F0D0BE084605F047BDDFB54E
:1019D0000023CDE90133ADF80C3001238DF8073039
:1019E0008DF808306FF01D038DF809300723044689
:1019F00001A88DF80A3008F000F8236806461B6835
:101A000020460F469847864277EB0103B4BF01207A
:101A1000002004B0D0BD1FB501A807F0C9FF01A880
:101A200005F0CCFD05B05DF804FB00002DE9F047A2
:101A300042488AB008F0A4F80BF088FB24250790F0
:101A400007993F4808F09CF80798684308F034F974
:101A500004463C4808F094F894B107990DEB050250
:101A600020460BF0CDFE0023DFF8F4A0364F0790A0
:101A70000893089A079B9A421DD3204608F006F95E
:101A80000AF09EFB04460AF0A1FB214602462F48BD
:101A900008F076F82E4B2F4819889A888B1A08F090
:101AA0006FF82D4B1B6803B198472C4808F068F875
:101AB0000AB0BDE8F087089B05FB03431B7B013B95
:101AC000DBB2032B98BF1AF80320099B88BF3F2283
:101AD000642B83BF6420B3FBF0F30899002382BF1B
:101AE00005FB01418969B1FBF3F308990898DDF81A
:101AF00020C0DDF820E0DDF82080DDF8209005FB37
:101B0000004005FB0949D9F81C6005FB0141CDE9FE
:101B1000033605FB08439B69029305FB0E439B6854
:101B2000019305FB0C431B8C0093036949683846FD
:101B300008F026F8089B013308939AE7889C01086F
:101B4000949C01089F9C0108D49C0108069D0108F3
:101B5000EE550020259D010884080020F298010818
:101B6000849C0108014B1860704700BFA00800204A
:101B700073B5124C064623780D46114A1BB91378EB
:101B80000BB172B6FEE70123002113700D486422E9
:101B900014F02FFE2B4600960B4A6421094815F0DD
:101BA00097FC0A4B1B6803B198470125054E304648
:101BB00008F02AF872B62570F9E700BF7C0800200B
:101BC00010080020120800205C9D0108A0080020D9
:101BD000F7B5164C064623780D46154A1BB91378FF
:101BE0000BB172B6FEE70123002113701148642285
:101BF00014F0FFFD2B4600960F4A64210D4815F0A6
:101C000067FC0E4B1B680BB10A4898470C4B1B68CE
:101C100003B198470125074F0A4E384607F0F4FFF5
:101C2000304607F0F1FF72B62570F6E77D08002018
:101C30001108002012080020849D01080C080020D3
:101C4000A0080020939D01080368DFF888C080B5D4
:101C5000CCF80030164F4368164E3B608368164D33
:101C60003360C36815492B600369154A0B604369EB
:101C7000144C13608369C0692360134B1860DCF84F
:101C80000000386830682868096810481268002128
:101C9000226864221B6814F0ACFD23680C4A64219E
:101CA0000A4815F015FC094807F0AEFFFEE700BF33
:101CB00090080020980800209C080020940800202C
:101CC00078080020800800208808002012080020E2
:101CD000499D01088C080020074B1B6803B19847F9
:101CE0001EF0040F0CBFEFF30880EFF30980816949
:101CF000004A1047491C0008A008002010B101212B
:101D000004F04EBE704708B107F0D6BF7047806838
:101D10007047406870474368012B08D1D0E904320E
:101D2000934204D01878003018BF0120704700207B
:101D300070474B6870B5042B04460E464FF0000305
:101D400004D0C0E900338360204670BDD1E904258A
:101D5000AD1AC0E9003383602846FFF7D4FFC4E919
:101D600000000544A560D6E90453024629468B428B
:101D700005D00AB10E78167001310132F7E75B1B0E
:101D800018446060E0E742680346022A06D1D3E9BE
:101D900004031B1A032B01D907F0EDBF0020704785
:101DA0004368032B06D1D0E904329A4208BF0023CE
:101DB000184670470023FBE7037870B58168044636
:101DC000B3B1284A284807F0DBFE6368022B12D122
:101DD0002046FFF7D8FF0146244807F0D1FEE1680E
:101DE0000B78002B3CD02248BDE8704007F0C8BEFD
:101DF000204A2148E7E7032B05D12046FFF7D0FF13
:101E000001461E48E9E7042B0ED100251C4ED4E9FB
:101E10000431C91A8D4205D2595D304607F0B0FE33
:101E20000135F4E71748D8E7012B08D12046FFF722
:101E300072FF1549154B002818BF1946E1E7002528
:101E40000F4ED4E904239B1A9D4205D2515D3046C2
:101E500007F096FE0135F4E70D4807F091FEBEE766
:101E60000C48C1E739960108379E01084B9E0108CE
:101E7000729E0108F6A10108419E0108AA9F01086F
:101E8000559E01085A9E0108319E01082C9E0108AA
:101E9000609E0108F5A10108B1F5705F2DE9F843D6
:101EA00004460F4602D9174804F03CFD06688368D3
:101EB0009B1B994219D9D0F804900846FFF723FFDD
:101EC00005460346A9EB0608B14505D00BB13278AB
:101ED0001A7001360133F7E72068FFF70FFF05EBB3
:101EE000080325603D446360A56025683DB9284628
:101EF000C4E90155FFF702FF2846BDE8F883012039
:101F0000FBE700BFAF9D01082DE9F0410368561AB9
:101F1000904682680446D21A96420D4615D930463C
:101F2000FFF7F1FE07460346A84505D02A7803B11E
:101F30001A7001350133F7E720683E44FFF7DEFEF3
:101F4000C4E901662760BDE8F0814768481EFF1AB2
:101F5000BE420ED81A469D19A91A002904DD10F8B0
:101F6000011F02F8011BF7E7002EA8BF9B19636051
:101F7000E9E73D441F44FA1A002A04DD10F8012F56
:101F800003F8012BF7E763682E461846B04505D0E5
:101F9000327800B1027001360130F7E7A8EB05088E
:101FA0004344E4E708B509C81B1AC3F570508842DA
:101FB00002D2104604F0B6FC994238BF19465818B0
:101FC00005D2B0F5705F28BF4FF4705008BD4FF4D4
:101FD0007050FBE72DE9F8430C46591C2046154686
:101FE0001F46FFF759FF064680B14FF00003EA197C
:101FF00029462046FFF788FFD4E901539D4208D0C7
:102000000DB100232B706368013363603046BDE877
:10201000F8831B4A01212046FFF7C4FF23680746C7
:10202000A5EB0309FFF76FFE10EB090F1CBF0023A0
:1020300000F80930236880461A460146954205D0CB
:1020400009B11078087001320131F7E7D31A013372
:102050004344104619466568954207D019B192F875
:1020600000C081F800C001320131F5E72D1A1D448E
:1020700020684744FFF742FEC4E90085A760C5E732
:10208000EA9D01082DE9F04105460E4661B1D0E90F
:102090000132D21A8A4209D300221E4403B11A70B7
:1020A0000133B342FAD16B60BDE8F081114AFFF70A
:1020B00079FF8046FFF727FED5E9001407460A4658
:1020C0000346944205D00BB11078187001320133E9
:1020D000F7E70023641A3C44264404B1237001341A
:1020E000B442FAD12868FFF709FEC5E900744744F5
:1020F000AF60D9E7239F0108D0E90032D21A91429C
:1021000010B503D9891AFFF7BDFF10BD3CBF5B189E
:102110004360FAE770B50C46012120461646FFF7EA
:10212000BBFE054628B101212046FFF7E5FF2368E5
:102130001E70284670BD0000426808B5012A06D10D
:10214000BDE808400A4600F11001FFF7E3BF8168CF
:10215000024807F015FD002008BD00BFB29E01082F
:1021600010B50C1A134605D001462246184614F045
:1021700027FB0346181910BD2DE9F0410446A2EBD8
:1021800001081646A368226808469B1A98450F4620
:1021900015D94046FFF7B7FD05460346BE4205D0B8
:1021A0000BB13A781A7001370133F7E72068FFF76F
:1021B000A5FD25604544C4E90155BDE8F081656889
:1021C000AD1AA84504D83146FFF7CAFF6060F4E7AE
:1021D0000D442946FFF7C4FF636829461A468E421C
:1021E00005D00AB10878107001310132F7E7751B8C
:1021F0001D446560E1E770B50E46D2E90031304616
:10220000C91A1446FFF748FE054630B1D4E900125A
:102210004FF000033046FFF7AFFF284670BD0000C7
:1022200070B5D0E9043100F110060446C91A3046F1
:10223000FFF732FE054640B1D4E90712914206D1BC
:10224000A168064807F09CFC0025284670BD4FF0A9
:1022500000033046FFF790FFF7E700BF049E010838
:102260002DE9F0418368A2EB010817460268044695
:102270009B1A98450E4615D94046FFF744FD054682
:102280000346B74205D0327803B11A7001360133E4
:10229000F7E72068FFF732FD25604544C4E90155A2
:1022A000BDE8F0814568AD1AA84505D839463046E5
:1022B000FFF756FF6060F3E70D4429463046FFF70D
:1022C0004FFF636829461A468F4205D0087802B14D
:1022D000107001310132F7E77D1B1D446560DFE7B7
:1022E00037B50D4601A8114607F062FD04212846C6
:1022F000FFF7D2FD044630B14FF0000302AA01A956
:102300002846FFF7ADFF204603B030BDFFF7E8BF1A
:10231000426808B5022A06D1BDE808400A4600F125
:102320001001FFF7DDBF8168024807F029FC00209B
:1023300008BD00BFEA9E0108FFF7EABF2DE9F041A2
:102340000E4600211C4617468AB00DF108082022CF
:10235000C0E9001181600546404614F04AFA1E2C7F
:1023600094BF22461F223946404614F01EFA736875
:10237000013B032B14D8DFE803F00230404722462C
:102380002F49384615F012F928B122462D49384612
:1023900015F00CF940B9012229463046FFF7BAFE84
:1023A00028460AB0BDE8F08122462749384615F094
:1023B000FDF828B122462549384615F0F7F808B946
:1023C0000022E9E700220AA941F8242D404615F031
:1023D00013FA021C18BF0122DEE700220AA941F805
:1023E000242D404615F008FA019B02464345D7D0FC
:1023F00029463046FFF774FFD2E723463A4629467E
:102400003046FFF7E7FDCBE714F00106C8D16408BA
:1024100021462846FFF740FD0028C1D02146284626
:10242000FFF76AFEB442BBD0022107EB460007F07B
:10243000DBFC0028B4DB2B6898550136F2E700BFBF
:102440002C9E0108BF9D0108319E0108C49D010812
:1024500030B51346426885B0032A044600F11005E2
:102460000A460FD0014601A8FFF768FF204601AADF
:102470002946FFF7C0FE04460198FFF73FFC2046BF
:1024800005B030BD2946FFF7A5FD0446F7E700007B
:10249000F0B5044685B0104616460F4615F07EF896
:1024A00062680346032A16D03246214601A8FFF788
:1024B00045FFDDE9011291420BD04FF00003384691
:1024C000FFF75AFE01250198FFF718FC284605B0D2
:1024D000F0BD0025F7E7441C21463846FFF7DCFC39
:1024E000054618B9054807F04BFBEFE74FF000032E
:1024F000321931463846FFF707FDE7E7CA9D010864
:102500000A4600F11001FFF7C3BFF8B50D461946A2
:10251000284616461F46FFF7BFFC044630B14FF071
:102520000003F21931462846FFF79AFE2046F8BD0F
:102530001346426810B5042A06D1BDE810400A4689
:1025400000F11001FFF7E1BF8168024807F018FBB6
:10255000002010BD799E01082DE9F0410C469046FF
:102560001D46064640B139B10849184604F014FA30
:10257000074618B930602060BDE8F0812A46414620
:1025800014F013F937602560F6E700BF35D801086D
:1025900070B5054610460E46144614F0FFFF22465D
:1025A000034631462846BDE87040FFF7D5BF00001E
:1025B00010B50C4631B1044900F0EEFC231A584224
:1025C000584110BD0846FCE7F6A0010810B500B15F
:1025D00021B9064807F0D4FA002010BD1AB9044A00
:1025E000FFF7D6FFF8E70120F7E700BF3D9F01089E
:1025F0004A9F01082DE9F74305460E4617469846BF
:10260000FFF7E4FFC0B10F49222004F0C5F90446EA
:10261000A8B13846FFF77BFB81463846FFF7C0FB81
:1026200014F0BCFF4346CDE90090074A2221204622
:1026300014F04EFF30602C6003B0BDE8F0833060D2
:10264000F9E700BF35D80108619F01082DE9F8437B
:102650000E46984616F8013B02F1FF3903704660BA
:10266000C0F80890044615463D214A46304614F00D
:102670007FF8074668BB4B46182B28BF1823C4F8C1
:102680003001A36204F10C05A26A3146284614F019
:102690008CF80022A66AA3191A7337B1D4F8302136
:1026A000791C04F12C0014F080F80022D4F83031A9
:1026B000234483F82C202EB12946404600F06CFCC0
:1026C000C4F83401D4E901120A48BDE8F84307F020
:1026D000CDBA831B023DED1A182B1A46A8BF18224B
:1026E000B5F5807F28BF4FF48075A262C4F83051E1
:1026F000C8E700BF699F010830B504460D46084B86
:102700009DB00093074A084B642103A814F0E0FE33
:1027100003AA29462046FFF73BFF1DB030BD00BF8E
:102720005E9A0108599F0108699A01082DE9F04352
:102730001646642203F10C048FB0074688462046F3
:102740001849ADF8042014F017FF70B9336B23B1AA
:10275000154A322101A814F0BBFE01AA41463846B1
:10276000FFF716FF0FB0BDE8F08320460F4914F0C5
:1027700003FF0446A0B9736B002BEED00125DFF8F0
:102780003490736B01A81B5DC5F1320128444A46A1
:10279000013414F09DFE102C05F10205F1D1DCE7A7
:1027A000034ADBE7759F01087A9F01087E9F0108B5
:1027B000869F0108559E0108016000210273C0E94F
:1027C00001117047F8B5054617460E4639B332B3C6
:1027D0002049182004F0D6F8044608B3C0E9006781
:1027E00000261D4B00F108074361C0E9026606613F
:1027F0008021384603F0F3FFD4E90012384604F094
:102800002DF81449082004F0BDF890B16B68C0E9B8
:10281000004603B96860AB6803B15860A860F8BDB2
:102820000E4807F0ADF901213046BDE8F84004F04C
:10283000B7B80B4807F0A4F90A4A40F245110A4814
:1028400007F09EF90121206804F0AAF8182120461B
:10285000EBE700BF35D801088081828325A00108FD
:102860002AA0010846A001088FA0010870B544689D
:10287000054604B3266806F1080003F0B9FFD6E95F
:1028800003239A42C4B216D16B681BB96A210B4864
:10289000FFF79EF96868082143686B6004F080F8D0
:1028A0006B6803B9AB600121306804F079F8182136
:1028B000304604F075F8204670BD00BFC29F010885
:1028C00010B50446006810B1012104F069F82046F3
:1028D00010BD7FB50546FFF71AFA14F05FFE0446F7
:1028E000861C2846FFF715FA013803281DD8DFE8B3
:1028F00000F00206080F0734601C04B070BD0D34F0
:10290000FAE72846FFF74CFA14F048FE3418F3E7CC
:1029100001A82946FFF70DFADDE9014301A81B1BB9
:1029200006EB4304FFF7CCFFE6E70B34E4E70000D7
:102930002DE9F04786B08146884614461D46FFF7CC
:1029400045FE68B12046FFF7C4FF4049074604F042
:1029500023F80646C9F8000028B93D4807F010F9E9
:1029600006B0BDE8F0872046FFF7D3F90138032809
:1029700064D8DFE800F00214253D2046FFF7C7F9D0
:1029800081462046FFF7C7F9324B334A002814BF6F
:1029900018461046CDE900902B46304A0AE0204602
:1029A000FFF7B5F981462046FFF7EDF92B46CDE953
:1029B00000902B4A3946304614F08AFD05463AE02D
:1029C000612D20460DD1FFF7A2F905462046FFF7FD
:1029D000E7F92B46234A00903946304614F078FD3B
:1029E000ECE7FFF794F981462046FFF7D9F9D1E7E4
:1029F0002046FFF78CF92B4600901B4A394630469B
:102A000014F066FDDFF868902146054603A8FFF73D
:102A100090F9DDE9034AA2450AD0AF4214F8013B20
:102A200006D9791B70194A4614F052FD0235F2E7B7
:102A300003A8FFF745FFC8F8005091E72046FFF7CD
:102A400066F92B460090094AC6E700BF35D8010851
:102A500025A001082C9E0108319E0108959F0108C0
:102A60009D9F0108A69F0108AD9F0108B39F010823
:102A7000559E01082DE9F0430E4607469046D1B019
:102A80004FF49C72002102A81D46589C13F0B1FE21
:102A900031463B46424602A8FFF7D8FD3678642E01
:102AA0005AD01CD83F2E44D008D82E2E4BD09DF89B
:102AB00008106C4807F064F86B4A48E0612E00F09B
:102AC0009180622EF3D1694807F05AF8684807F000
:102AD00057F840F229116748FFF77AF830E0722E74
:102AE00045D00CD8672EE2D105A9634807F048F815
:102AF00033464F9A21462846FFF71AFF20E0732EEF
:102B000050D0772ED3D15D4807F03AF803990029C9
:102B100000F0A6805A4814F02FFD0446002840F02B
:102B20009F80584807F02CF82146384600F0BEFE3A
:102B3000CCE7554807F024F821462846FFF7DCFD8E
:102B400051B0BDE8F083514807F01AF8504A2146C9
:102B50002846FFF71DFDF3E703994E4807F010F8EC
:102B600002AB3A4621462846FFF7E0FDE8E705A913
:102B7000494807F005F80399484814F0FDFC20B9CE
:102B8000384600F023F9464AE1E74F993846FFF707
:102B90000FFD08B1434ADAE74F9808B1FFF740FB51
:102BA0007223A6E705A940480DAA06F0E9FF4F9950
:102BB0003846FFF7FDFC0028ECD14F9810B10DA965
:102BC000FFF79EFC73234F9A21462846FFF7B0FE7D
:102BD0002168364806F0D4FF2868216807F036F8E7
:102BE000334812E00DF1340932484A4605A906F08F
:102BF000C7FF4F9868B3FFF78CF8032808D0284622
:102C00002D4A2146FFF7C4FC2C4806F0B9FF97E790
:102C10004F98FFF7C5F814F0C1FC08F1010606440F
:102C20002749304603F0B8FE074690B14F98FFF7AA
:102C3000B7F8244A03463146CDF80090384614F0E0
:102C400047FC39464F98FFF75BFC0121384603F0FB
:102C5000A7FE61234F9A21462846FFF7CBFCB7E732
:102C6000012162E7D5A10108F7A1010867A10108C8
:102C700008A2010846A00108C0A001088AA1010815
:102C8000B2A10108B8A101089DA00108A7A00108F0
:102C9000F49A0108B1A00108D1A0010839960108F1
:102CA000E4A00108E7A0010801A101081AA1010898
:102CB000F5A101082BA1010844A1010850A10108B8
:102CC00035D8010862A101082DE9F0410C46804683
:102CD0000D4815461E46069F06F052FF04B14DB939
:102CE0000A4806F04DFF39463046BDE8F041084A33
:102CF000FFF74EBC069733462A4621464046BDE8BC
:102D0000F041FFF7B7BE00BF34A2010849A2010895
:102D10005CA201087FB504460D4600680C491646C2
:102D200000F000FB78B100F06FFC03AB009332467B
:102D3000294602ABFFF7C8FFDDE902122046FFF784
:102D400041FD04B070BD034806F01AFFF9E700BF6B
:102D5000F6A0010806A0010810B10C2103F020BE66
:102D6000704710B1012103F01BBE704730B5134608
:102D70000D460446AC4207D01BB194E8070083E837
:102D800007000C330C34F5E7184630BD10B5044687
:102D900038B1FDF717FA2046BDE81040282103F0AE
:102DA000FFBD10BD70B50446406AFFF7D5FFD4E9FA
:102DB0000656AE4204D02846FDF704FA2835F8E757
:102DC000A06908B1FFF7E2FF204670BDF8B50546DF
:102DD00000242826074FD5E906031B1ADB107B4386
:102DE0009C4205D206FB0400FFF71AFA0134F2E711
:102DF000F8BD00BFCDCCCCCCF8B50446224806F0D7
:102E0000BFFE224806F0BCFED4E90631994218D034
:102E1000C91A1F4EC91071431E4806F0B1FE0025A5
:102E20002827D4E906031B1ADB1073439D4205D201
:102E300007FB0500FEF7C0FF0135F2E7164806F074
:102E40009FFED4E90931154EC91A891071431448FF
:102E500006F096FE00250C27D4E909031B1A9B10E7
:102E600073439D4205D207FB050000F081FF013549
:102E7000F2E70C4806F084FE0B4806F081FEBDE840
:102E8000F8400A4806F07CBE4BA30108399A0108B5
:102E9000CDCCCCCC55A3010867A30108ABAAAAAA44
:102EA000A0A30108F5A10108B0A30108D898010862
:102EB0002DE9F043002487B006466846CDE900447A
:102EC00002940CF0C7F968460CF05CFA4FF0280841
:102ED0002F4F304DD6E906239B1ADB107B439C42D3
:102EE0004ED208FB04F302EB0309D35C002B43D161
:102EF0004846FEF70CFF014668460CF035FA484696
:102F0000FEF707FF042837D8DFE800F03803101A6F
:102F100024004846FEF7FFFE014668460CF0DAF949
:102F200050BBC2212846FEF753FE25E04846FEF777
:102F30002AFF014668460CF0B3F9E8B9C621F1E76B
:102F40004846FEF72DFF014668460CF00DFA98B989
:102F5000CA21E7E7494603A8FEF7EBFEDDE90312C5
:102F60006846521A0CF0D8F918B9CF212846FEF756
:102F70002FFE0398FFF7F5FE0134ABE7D321D1E72D
:102F800068460CF027FA029807B0BDE8F08300BF4E
:102F9000CDCCCCCC83A201082DE9F04305460E46EA
:102FA00000244FF028081A4F8DB0D5E906239B1A4C
:102FB000DB107B439C4224D208FB042931461822B3
:102FC000684614F005FB4846FEF7A1FE18220146AC
:102FD0000DEB020014F0FCFA684606F02AFF684682
:102FE00006F039FF06A806F024FF06A806F033FF16
:102FF000182268460DEB020114F0D8FA18B101341A
:10300000D3E74FF0000948460DB0BDE8F08300BF9C
:10301000CDCCCCCC2DE9F04F06460F4600244FF026
:103020000C09DFF86C808DB0D6E909535B1B9B104F
:1030300008FB03F39C4224D218223946684614F058
:10304000C7FA182209FB04FB0DEB020055F80B1020
:1030500014F0BEFA684606F0ECFE684606F0FBFE89
:1030600006A806F0E6FE06A806F0F5FE1822684659
:103070000DEB020105EB0B0A14F098FA18B10134BC
:10308000D2E74FF0000A50460DB0BDE8F08F00BF08
:10309000ABAAAAAA10B51446FFF77EFF20B12146BD
:1030A000BDE81040FFF72CBA10BD0000F8B50C4683
:1030B000064640F201120021224813F09AFB4FF419
:1030C000807221461F4813F070FB1E491E4806F00F
:1030D00057FD1E491B4814F0ABFA1C490546002059
:1030E00014F0A6FA294607463046FFF755FFA0B967
:1030F00029463046FFF78EFF044600B301681448A6
:1031000006F03EFDA3683846984701242046F8BDE6
:103110003946104806F034FDF8E73A46294630466D
:10312000FFF7B8FF04460028F2D00B4806F028FD50
:103130000A4806F025FD3046FFF75EFEE6E7294621
:103140000748E7E7280A0020C9A30108B19F010842
:10315000CFA30108F8A30108E4A30108F5A1010821
:1031600011A4010810B54FF48072044606490430DA
:103170000CF0B4F9002805DD2046BDE810400249F6
:10318000FFF794BF10BD00BF2809002038B51446D2
:103190001D46FFF701FF28B12A462146BDE8384009
:1031A000FFF756B938BD10B51446FFF7F5FE20B14C
:1031B0002146BDE81040FFF7ABB810BD10B514466E
:1031C000FFF7EAFE10B12146FEF7B6FF002010BD62
:1031D00038B514461D46FFF7DFFE28B12A462146C2
:1031E000BDE83840FFF7A4B938BD00002DE9F0472D
:1031F00000248CB0074603A8CDE9034405940CF0E5
:1032000029F8214603A800940CF040F90146002853
:1032100034D0214603A80CF0C2F840F2E73304464C
:10322000009300263546DFF8F890009BB34273D92F
:10323000214603A80CF0E5F8824600286CD118233B
:1032400021460DEB030203A80CF06CF80444214660
:1032500003A80CF0E4F88046B0B10CAA214642F86D
:1032600028AD03A80BF0FCFF029A044406A93846D7
:10327000FFF799FF00B101350136D6E76A4603A88A
:103280000CF094F80446CCE7214603A80CF011F9A1
:1032900070B10CAA02F8288D214603A80CF00AF898
:1032A0009DF80820044406A93846FFF787FFE1E7A8
:1032B000214603A80CF0CEF8804668B102AB01AA03
:1032C000214603A80CF03FF8DDE90123044406A9D8
:1032D0003846FFF75BFFCDE7214603A80CF0ACF8BA
:1032E00090B10CAB43F8288D01AA214603A8CDF874
:1032F00004800CF000F89DF808300444019A06A9F7
:103300003846FFF765FFB5E7039B4846195D01F0B6
:10331000E00106F035FCAFE728460CB0BDE8F087C9
:10332000DAA2010808B5FFF737FE18B1BDE808407A
:10333000FEF7F1BC08BD10B5044608461146FFF77C
:103340002BFE014620B9C4E90000A060204610BD54
:103350002046FEF7EEFCF9E708B5FFF71DFE18B1B1
:10336000BDE80840FEF70FBD08BD08B5FFF714FE25
:1033700018B1BDE80840FEF713BD08BD037810B5CD
:10338000044643B1044806F0FBFB0021204600F050
:103390008DFA0023237010BDC5A20108002370B56B
:1033A000D1E90025AD1A0446C0E9003383600E461A
:1033B000284601D006F080FCC4E900000544A56061
:1033C000D6E90053024629468B4205D00AB10E7851
:1033D000167001310132F7E75B1B1844606020462C
:1033E00070BD38B504460D460B78103000F8103C1F
:1033F0004B68103140F80C3C51F8083C40F8083C50
:1034000051F8043C40F8043CFFF7C8FF05F11C01EB
:1034100004F11C00FFF7C2FF204638BD2DE9F84338
:10342000D0E90054641B9146A2101F4C0646544339
:10343000B4F5705F0F4602D11C4803F073FA002CFC
:1034400014BF22460122A418A1EB050526D2B4F52B
:10345000705F23D82CB30C20604306F02DFC80460F
:1034600018EB05031CBF99E8070083E807004246F4
:1034700039463068FFF77AFC716800F10C02384673
:10348000FFF774FC05463068FFF766FC0C2303FB6E
:103490000484C6E90085B460BDE8F8834FF4705435
:1034A000D9E7A046DCE700BFABAAAAAAEA9D0108BB
:1034B0002DE9F043054685B008460C4617461E46E2
:1034C00014F06CF8172803D982212D48FEF780FBF1
:1034D000CDE90147D5E9097803962A4AA8EB070602
:1034E000B41054430134B4F5705F02D9264803F098
:1034F00019FAEB6ADB1B9B1053439C4215D94FF022
:103500000C0909FB04F91CB1484606F0D5FB04463A
:10351000224641463846FFF729FC686AFFF71CFC43
:1035200026446C624C44AE62EC62EA6AD5E9090357
:1035300014491B1A9B10121A4B4392104A43013331
:10354000934206D9114806F01BFB8C210C48FEF76C
:103550003FFBD5E90A3293420AD023B104AA12E90B
:10356000070083E807000C33AB6205B0BDE8F083C9
:1035700001AA194605F12400FFF750FFF5E700BF47
:1035800083A20108ABAAAAAAAF9D010868A20108FC
:10359000002310B504460370C0E90633C0E90833C0
:1035A000C0E90A33C0E90C33064B80214361043083
:1035B0000BF08DFF2046044B044A0549FFF778FFC6
:1035C000204610BDA80800200D36000834A40108CC
:1035D00040A4010810B5084C2368DB0709D407484C
:1035E000FFF7D6FF0123064A06490448236011F07D
:1035F00005FD024810BD00BFA40800202C0B0020D0
:1036000000000020A52D0008FFF7E4BF08B5FFF774
:10361000E1FFBDE80840FFF7EFBB0022C0E9002250
:10362000826010B50C6804600A6042684C684460AF
:103630004A6082688C6884608A6010BD70B50E46EE
:1036400005461446B54217D09CB12B7805F1100100
:1036500023706B6804F110006360AB68A360EB68D3
:10366000E360FFF7DAFF05F11C0104F11C00FFF72E
:10367000D4FF28342835E5E7204670BD2DE9F8430E
:10368000D0E90064A41BE310234C05465C43B4F569
:10369000705F0F46914602D1204803F043F9002C99
:1036A00014BF23460123E418A1EB060623D2B4F588
:1036B000705F20D814B32820604306F0FDFA8046DE
:1036C00018EB060002D04946FFF78BFE394642460A
:1036D0002868FFF7B3FF696800F128023846FFF752
:1036E000ADFFD5E900690746B14509D03046FCF782
:1036F00069FD2836F8E74FF47054DCE7A046DFE7B1
:10370000286808B1FFF742FB282303FB0484C5E9BE
:103710000087AC60BDE8F883CDCCCCCCEA9D010835
:103720002DE9F047D0E9065704460E46DFF80C8134
:103730008AB0AF421BD029466846FFF752FE684662
:10374000FEF7E5FA81463046FEF7E1FA01464846C3
:1037500006F0B0FB30B13046FEF7D9FA01464046DC
:1037600006F00EFA6846FCF72DFD2835E1E7D4E9AE
:1037700006892E4AA9EB0807FD1055430135B5F51A
:10378000705F02D92A4803F0CDF8236AA3EB08033F
:10379000DB1053439D4220D94FF0280A0AFB05FA5B
:1037A0001DB1504606F088FA0546494640462A466D
:1037B000FFF744FFD4E90689C14505D04046FCF730
:1037C00001FD08F12808F7E7A06908B1FFF7DEFA64
:1037D0002F44A5615544E7612562226AD4E90603B6
:1037E00012491B1ADB10121A4B43D2104A43013301
:1037F000934206D90F4806F0C3F977210E48FEF729
:10380000E7F9D4E90703984209D010B13146FFF730
:10381000E8FDE3692833E3610AB0BDE8F0870146BB
:10382000324604F11800FFF729FFF5E7CDCCCCCCE8
:10383000AF9D01082CA3010883A20108FAA2010888
:10384000002313B502A941F8043D094B0422D3E932
:103850000140084B20445B689847044628B106485D
:1038600006F08EF9204602B010BD0448F8E700BF0C
:10387000780B0020680B00209BA60108AFA601086A
:1038800008B5084806F07CF9FFF7A4FEFFF79EFA9A
:10389000054806F075F9FFF79DFEBDE80840FFF703
:1038A000ABBA00BFCCA60108E4A6010873B5054673
:1038B0004FF416700C4606F0FFF9064630B9214861
:1038C00006F05EF922212048FEF782F94FF41672C5
:1038D0000021304612F08DFF314628464FF4167213
:1038E000FFF7E6FA194D014601902CB3184806F08F
:1038F00047F9D5E901431C44164DEB681BB101990A
:103900002046083198476B680422104920469847A2
:1039100004226B680DEB0201A01898476B68019AAE
:10392000314604F1080098470B4806F029F9304663
:1039300006F0ACF902B070BD084806F021F96C68D9
:10394000DAE700BFD2C101083DA50108780B0020CD
:103950008DA50108680B0020C7A50108ACA50108CA
:103960002DE9F74FFFF736FE2F4F06462F4806F09A
:1039700007F9B846DFF8D090DFF8D0A009F0E0FBF7
:103980002B4D38602B68AB462A4C002B37D003F503
:103990006A436033984232D223782BB9264806F026
:1039A000EFF8264806F0ECF8012330462370FFF7C5
:1039B000D9FB41F2883352464FF0FF3100200AF024
:1039C00085F8019009F0BCFB019BC8F8000023B901
:1039D000237813B13046FFF7C5FBDAF80030DA0779
:1039E00044BFD8F800202A609B07C7D50023CBF836
:1039F0000030D9F80830002BBED09847BCE72378B8
:103A00006BB100213046FFF751FF0D4806F0B8F8C2
:103A10000C4806F0B5F8D9F8083003B198470023F0
:103A200023702B60C5E700BF900B00200BA6010898
:103A30008C0B0020840B002020A6010843A601085F
:103A400066A6010878A60108680B0020880B0020F4
:103A500010B5FFF7BFFD04460021FFF727FF204602
:103A6000FFF7CAF9BDE810400348002301220221F4
:103A700000680AF06FB800BF640B002010B5FFF7B4
:103A8000A9FD04460021FFF711FF2046BDE81040C4
:103A9000FFF7B2B92DE9F743194E07468846756816
:103AA0000AB1B3681D440024DFF8609002A941F810
:103AB000084D0422D9F8003028469847326800990A
:103AC0008A4204D00F4806F05BF8204614E0042236
:103AD000D9F800300DEB0201A818984701990A485F
:103AE00006F04EF8019A4245EFD8D9F80030394631
:103AF00005F108009847019803B0BDE8F08300BFC6
:103B0000780B0020D6A50108F1A50108680B00205C
:103B1000F0B589B002AC84E80F00039B23B940F2F2
:103B200029117D48FEF754F8029B23B94FF4957193
:103B30007948FEF74DF894E80F00784D784C85E809
:103B40000F000EAB93E8070084E8070012B94FF4AA
:103B50008063A360236823B940F235116E48FEF7F5
:103B600037F82368013304D140F237116A48FEF771
:103B70002FF8FFF72FFD06466A4B6B4A6B49FFF79C
:103B800097FC6B4B6B4A6C493046FFF791FC6B4BD3
:103B90006B4A6C493046FFF78BFC4FF4167006F009
:103BA0008BF8074680B9684805F0EAFF674805F0DA
:103BB000E7FF3046FFF70AF900233370FFF740FEB6
:103BC000634805F0DDFF2CE04FF41672002112F07F
:103BD00010FED4E901032D68042207A91844A84760
:103BE00000285ED02268079B9A425AD1594805F0B6
:103BF000C7FF01224FF416713846FFF74BFF04460A
:103C0000554805F0BDFFFFF71BFE002C45D00123F2
:103C10003370224639463046FFF7E8FA384606F058
:103C200035F833783BBB4FF4167006F045F8044680
:103C300030B9454805F0A4FF7F213748FDF7C8FF9C
:103C40004FF416720021204612F0D3FD00224FF4EB
:103C500016712046FFF71EFF074678BB06F016F8E0
:103C6000204606F013F83D4805F08AFFFFF7B2FC46
:103C70000021FFF71BFE3A4BFA2201930123394939
:103C800000933948002309F039F820B94FF4A8719E
:103C90002148FDF79DFF09B0F0BD344805F070FFE5
:103CA000347000224FF416713846FFF7F3FE0446D5
:103CB0000028AED1384605F0E9FF77E74FF41670DB
:103CC00005F0FAFF054630B91F4805F059FF8E216F
:103CD0001148FDF77DFF4FF416720021284612F0BF
:103CE00088FD4FF4167229463046FFF7E1F808B90F
:103CF0002846B3E78742FBD10023E95CE25C9142AE
:103D0000F6D101339F42F8D1284605F0BFFF204687
:103D100005F0BCFFAFE700BF3DA50108680B002020
:103D2000780B00207D3A000844A4010850A4010843
:103D30008138000855A4010870A40108513A000810
:103D400078A4010890A40108D2C10108F7A40108D1
:103D5000E4A6010895A40108B9A401081BA501085F
:103D6000640B002032A5010861390008CEA40108C7
:103D700010B504460168074805F002FF616831B1DB
:103D80000B7823B10448BDE8104005F0F9BE0348A4
:103D9000F9E700BFFCA60108729E0108F5A1010821
:103DA00010B50446C06908B105F070FF206908B17C
:103DB00005F06CFF606808B105F068FF204610BD93
:103DC00010B50446006808F0B9FE204610BD00009A
:103DD000CB210148FDF7FCBE01A70108FE2307B572
:103DE00002A901F8043D054B1868002300681A4633
:103DF00008F094FB03B05DF804FB00BFA00B0020AB
:103E0000D0B51F467423C0E9003100230446836007
:103E10000820164602F0A4FDC0E90067A060204615
:103E2000D0BD00002DE9D043DDE906679946722335
:103E3000C0E9003100239642836077EB0903044612
:103E4000904603DA2B210748FDF7C2FE102002F04E
:103E500087FDC0E90089C0E90267A0602046BDE88F
:103E6000D08300BF4BA70108036837B5632B044616
:103E70000D4601D0FFF7ACFF002302AA42F8043D33
:103E8000A168284605F062FC019B1BB1382102485D
:103E9000FDF79EFE03B030BD4BA7010870B563234C
:103EA0000025C0E90031044685601A20164602F05C
:103EB00057FD1A22294612F09CFC3146A06020468C
:103EC000FFF7D2FF204670BD81647047C164704720
:103ED0002DE9F843D0E90173884600254FF00C091D
:103EE000DB1B0A4E9B105E43ECB2B4420BD209FBC3
:103EF00004724146506813F03FFB01350028F3D1AE
:103F00002046BDE8F8834FF0FF30FAE7ABAAAAAA33
:103F10002DE9F843D0E90473884600254FF00C09D9
:103F2000DB1B0A4E9B105E43ECB2B4420BD209FB82
:103F300004724146506813F01FFB01350028F3D18D
:103F40002046BDE8F8834FF0FF30FAE7ABAAAAAAF3
:103F50002DE9F0410E4649680446FFF7B9FFC0B2AB
:103F6000FF2803D07C212948FDF732FED4E9012344
:103F7000274F9B1A9B107B437E2B03D97F2123481D
:103F8000FDF726FED4E901120C25E068531A9B10B8
:103F9000121A7B4392107A430133934205FB03F8D4
:103FA0000ED84144A160D4E9013496E80700E31A31
:103FB00004E9070016489B1058430138BDE8F0811A
:103FC000404605F079FE054618B969211148FDF70C
:103FD000FFFDD4E901C30027A3EB0C039A100C4B9F
:103FE0005343002B09DD05EB070E0CEB070207CA54
:103FF000013B8EE807000C37F3E7604605F046FE0C
:1040000065604544C4E90255CDE700BF4BA70108F0
:10401000ABAAAAAAAEA701081FB56E23CDE901314C
:10402000002301A90393FFF793FF05B05DF804FB9C
:10403000FF2270B5002380F828204FF000424FF097
:10404000FF31C0E90D23C2636FF07F42C0E9101257
:104050000522C0E90033C0E91423C0E9023300227D
:10406000C0E90433C0E90633C0E908330363C0E99B
:10407000123383654FF000431E4DC0E918232A68B0
:10408000044612F0010213D101211B4E0846326092
:10409000716008F069F9306018B912211748FDF70E
:1040A00097FD0123164A174913482B6010F0A6FF0D
:1040B000154B1A680AB9104A1A6014492046FFF7CE
:1040C000ABFF134B134918702046FFF7A5FF124BA7
:1040D000124918702046FFF79FFF114B11491870C5
:1040E0002046FFF799FFFE220F4B18700F4B20461A
:1040F0001A7070BD9C0B0020200C002001A8010844
:1041000000000020C13D0008A00B002043A80108CA
:10411000A80B00204BA80108A60B002053A80108FB
:10412000A40B002058A80108A70B0020A50B002015
:1041300010B5084C2368DB0709D40748FFF778FF60
:104140000123064A06490448236010F057FF02483D
:1041500010BD00BF980B0020B80B0020000000200D
:10416000A13D00082DE9F0410E4649680446FFF7DD
:10417000CFFEC0B2FF2803D087212948FDF728FDD4
:10418000D4E90423274F9B1A9B107B437E2B03D932
:104190008A212348FDF71CFDD4E904120C25A069EF
:1041A000531A9B10121A7B4392107A4301339342A5
:1041B00005FB03F80ED841446161D4E9043496E864
:1041C0000700E31A04E9070016489B10584301381A
:1041D000BDE8F081404605F06FFD054618B969213C
:1041E0001148FDF7F5FCD4E904C30027A3EB0C0349
:1041F0009A100C4B5343002B09DD05EB070E0CEB1B
:10420000070207CA013B8EE807000C37F3E7604658
:1042100005F03CFD25614544C4E90555CDE700BFE7
:104220004BA70108ABAAAAAAAEA7010838B5D0E9E6
:1042300001239B1A074A9B105343CDB29D4204466B
:1042400003D3A6210448FDF7C3FC0C20636800FBE0
:10425000053038BDABAAAAAA4BA7010838B5CCB225
:10426000114905460B6813F0010307D10F4A70206E
:104270001372012310600E480B605060FF2C10D0A9
:10428000D5E904239B1A0B4A9B1053439C4203D34A
:10429000B2210948FDF79CFC0C23286903FB0400AC
:1042A00038BD0248FCE700BF940B0020AC0B002097
:1042B00095A70108ABAAAAAA4BA7010810B5D0E997
:1042C0000730C9B2D2B2834209D01C788C4204D1E3
:1042D0005C78944201D1987810BD0333F3E74FF036
:1042E000FF30F9E72DE9F041D0E904239B1A484A51
:1042F0009B1053430D4609780446994203D39321FA
:104300004448FDF765FCD4E901239B1A404A9B1001
:1043100053436978994203D394213E48FDF758FCF2
:10432000D4E904239B1A3A4A9B105343A978994233
:1043300005D3FE2903D095213648FDF749FC6A785C
:1043400029782046FFF7BAFFC3B2FF2B06461BD0E1
:1043500029782046FFF782FF69782046FFF766FF3D
:1043600031462046FFF77AFF29782046FFF776FF8F
:1043700069782046FFF75AFFA9782046FFF76EFFBD
:104380009C212448FDF724FCD4E90723204F9B1AE5
:104390007B437E2B03D99F211E48FDF719FCD4E9EE
:1043A0000762616A931B7B43521A57430133BB4236
:1043B00003EB43080AD8464426622A88236A23F876
:1043C000032CAA7803F8012CBDE8F081404605F0E3
:1043D00073FC064618B969210F48FDF7F9FBD4E9CB
:1043E0000702131A0A4A5A430023002A0ADDC11899
:1043F000B1F800C0F71826F803C08978013AB970FF
:104400000333F2E705F042FCE66146446662D3E717
:10441000ABAAAAAA4BA70108AEA7010813B5FF24AF
:10442000084A02AB106803F8044D0A4600681946B2
:1044300008F018F9012814BF20469DF8040002B0C6
:1044400010BD00BFA00B002038B5816800681D4674
:10445000144605F0E1FC0346201845EBE37138BD36
:1044600008682DE9F04172281F461FD074280FD02C
:10447000632820D1886805F029FA002871F100032B
:1044800004460D460EDADD210D48FDF7A1FB09E0DB
:104490008B68D3E90045B5F1004F08BF002C01D06F
:1044A000A4187D4120462946BDE8F0818868BDE812
:1044B000F041FFF7C9BF00244FF00045F2E700BF0D
:1044C0004BA701082DE9F0410F4606460024FFB234
:1044D000FFF7C4FED6E90758454511D02B78BB42FB
:1044E0000CD169783046FFF7A1FE0368692B05D12E
:1044F00083681B6803B198470134E4B20335EBE7E6
:104500002046BDE8F0812DE9F34180460F460025A5
:10451000FFF7A4FED8F81C40D8F820600334033617
:10452000FFB2A6421BD0234633F8032D9B78ADF88B
:1045300004208DF8063014F8033C9F420DD19DF8FD
:1045400005104046FFF772FE0368692B05D18368AA
:104550005B6803B198470135EDB20334E1E72846C3
:1045600002B0BDE8F0810000836C73B504460D46CF
:10457000164623B94FF48C710B48FDF729FBCDE9A2
:10458000006423462A460949094808F0B7FB012878
:1045900007D04FF48F71044802B0BDE87040FDF7BA
:1045A00017BB02B070BD00BF4BA70108A3A701084D
:1045B000394B000838B590F847300446032B0D46B8
:1045C00004D940F231110648FDF702FB94F8473058
:1045D0005A1C84F847201C4484F8425038BD00BF60
:1045E0004BA7010810B590F84730044623B94FF4A3
:1045F0009B710648FDF7ECFA94F84730013BDBB2BB
:1046000084F847301C4494F8420010BD4BA70108C1
:10461000CBB2FE2B10B504460AD0FFF71FFE03688D
:104620006D2B05D1017A2046BDE81040FFF716BE7C
:1046300010BD00002DE9F84304460026114FD4E9CF
:1046400004239B1A9B107B435FFA86F8434516D9D7
:1046500041462046FFF7DCFFD4E90759A9450CD0B5
:104660002B78434507D169782046FFF7DFFDA9780D
:104670002046FFF7CDFF0335F0E70136DFE7BDE861
:10468000F88300BFABAAAAAA38B50546002495F85E
:104690004730A34207DD2B1993F842102846FFF755
:1046A000DDFD0134F3E738BD00232DE9F74FC0E904
:1046B000083388461946D8E907594FF000430446A5
:1046C000C0E90613C0E90013C0E90213C0E90413EE
:1046D000FF208A469B46D2B284F8200001924D45C5
:1046E000D4E9006720D02B78019A93421AD16978D7
:1046F0004046FFF79BFDDDE90C2301464046FFF7EE
:10470000AFFE594508BF50450CD05F4508BF564520
:1047100003D0B04271EB070304DA6B78C4E90001FF
:1047200084F820300335DAE7B7F1004F08BF002ED8
:1047300008D0DDE90C23B21A67EB030316461F46C7
:10474000C4E90467204603B0BDE8F08FF8B50D4614
:104750000B4B896906464B434FF47A71B3FBF1F179
:10476000FFF75CFE0446C7B2B06C03681B6898474D
:10477000FF2FC6E90E010CBF95F820002046F8BDBA
:1047800040420F0038B5C36C04460D461BB9BDE866
:104790003840FFF7DBBF806C174903685B699847B7
:1047A000A06C0368DB689847D5E9020105F068F959
:1047B0000146124805F0E4F9A06C03689968D5E950
:1047C00002238847A06C03681B699847E36C9847ED
:1047D000A06C0368DB689847A06C03681B68984767
:1047E000C4E90E0100212046FFF718FEC0B2FE28E2
:1047F00008BF95F8200038BDDD3D0008EEA7010890
:10480000F8B5D1E90667B7F1004F08BF002E05469D
:104810000C4608D11AB1BDE8F840FFF797BFBDE8D4
:10482000F840FFF7AFBF012E77F1000302DA91F8ED
:104830002000F8BD92B121462846FFF787FF94F883
:104840002030C0B28342F4D1D5E90E67D4E9002309
:10485000964277EB0303B8BFFF20EAE7D0E91423C1
:10486000964277EB0303E6DBFFF78CFFE7E70000F8
:104870002DE9F04F8FB004460D46FFF7EFFC0368BB
:104880000646702B04D04FF49E714F48FDF7A0F9F7
:10489000A06C03681B6898472A46C4E90C01CDE95F
:1048A0000001214604A8FFF7FFFE29462046FFF736
:1048B00009FE9DF83030FF2B05D120B940F2471199
:1048C0004148FDF785F99DF83010FF2965D1002298
:1048D0004FF00043CDE90823DDE90423CDE90623A9
:1048E000DDE90823CDE90A23A36DEBB19847DDE9A3
:1048F0000423D4E91889B3F1004F08BF002A09D076
:10490000DDE9082318F10B0049F10001904271EB39
:10491000030309DAD4E90C2312EB080043EB090185
:10492000CDE90A89CDE90601327A04A92046FFF7CC
:1049300067FFA36D074603B19847FBB2FF2B3BD13E
:10494000DDE90401D4E90EABA36DB0EB0A0861EB1D
:104950000B09CDE90889CDE90601CDE90A89002BCB
:10496000E2D0D4E91823B1F1004F08BF0028CDE907
:10497000022307D012F10B0043F10001404571EB17
:104980000903D1DADDE90223CDE90A2312EB0A0299
:1049900043EB0B03CDE90623C6E72046FFF746FCB1
:1049A000D4E90C01DDE90423121A63EB0103174675
:1049B0009846CDE908788FE729462046FFF7A3FD02
:1049C00038460FB0BDE8F08F4BA7010870B504461C
:1049D0000D46FFF743FC03686D2B11D0702B09D0F7
:1049E000612B14D1836894F8411094F84000BDE81D
:1049F0007040184729462046BDE87040FFF738BF91
:104A0000034840F22B11FDF7E3F84FF0FF3070BD83
:104A10004BA70108F8B590F828300446FF2B04D1C5
:104A20004FF4E3714148FDF7D3F894F8281020467D
:104A3000FFF714FC94F8283084F8463094F84610B8
:104A40002046FFF70BFC036805466D2B204694F8C3
:104A500046100BD1FFF7AEFD297A204684F84610A8
:104A6000FFF7FCFB2046FFF70FFEE7E7FFF7AEFF7F
:104A7000C3B2FF2B06460BD140F2DB112B48FDF7EA
:104A8000A7F840F2DB112A4B2A4A284811F03AFDD8
:104A9000024694F846102046FFF710FCC5B2FF2DE1
:104AA00009D140F2E1112148FDF792F8204B214A4B
:104AB00040F2E111E9E794F84610FE2D204621D19D
:104AC000FFF790FD074601462046FFF7C7FB324639
:104AD00039462046FFF7F2FBC5B2FF2D0DD1314616
:104AE0002046FFF7A3FB40F2ED111048FDF770F8E8
:104AF0000F4B104A40F2ED11C7E72046FFF7C4FD07
:104B00003946DAE7FFF7AAFB31462046FFF78EFB6E
:104B100029462046FFF7A2FB94F8463084F841600E
:104B200084F8403084F8465088E700BF4BA701085E
:104B3000319E010860A8010808B5FFF7F9FAFFF7F0
:104B400069FFD0B51F461646FFF770FB03688468FF
:104B5000742B01D0FFF73CF9C4E90067D0BDD0B594
:104B6000044616461F46FFF761FB32463B460146A8
:104B70002046BDE8D040FFF773BC0000836C10B541
:104B8000044623B940F297210248FDF721F8A06CB2
:104B900010BD00BF4BA70108FF23054A1370054A4B
:104BA0001370054A1370054A1370054A1370704755
:104BB000A80B0020A60B0020A40B0020A70B0020B0
:104BC000A50B0020014B1878704700BFA40B0020F4
:104BD00010B50446006807F0B1FF204610BD000084
:104BE0002DE9FF480BF04AF94FF6FF712B4A138865
:104BF0008B421CBF01331380FFF79AFAFFF7BEFF09
:104C000003681B689847264B5A78EAB9254AD28828
:104C1000D2B1254CD4E900BCBCF1004F08BFBBF1B8
:104C2000000F0FD083457CEB01040DDA1F4CB0EB75
:104C30000B0604FB02F461EB0C07E517A64277EBC9
:104C4000050201DB01225A700022ADF80C205A78CF
:104C50002AB101228DF80C20134AC2E900011B7809
:104C6000134CBBB1012513488DF80D5004F088FF9B
:104C70002570114B11481A78114B197800230093B5
:104C80000068039B0BF03CFA30B10E4B187804B06F
:104C9000BDE8F0882370ECE70B4BF7E76A0C0020C7
:104CA0004C0C0020580C00205000002080510100C6
:104CB000550C0020D9A801084F0C0020480C0020FA
:104CC0004E0C0020A40B0020A60B002008B5184BAA
:104CD000DB8813B9174B187808BD174BD3E90023AD
:104CE000B3F1004F08BF002AF4D1144A13780133FE
:104CF000DBB2032B1370EDD8012B0BD90A21002056
:104D000005F08AF80E4B58434FF47A73B0FBF3F07A
:104D100008F066FB00230B4A13700B4A13700B4A12
:104D200013600B4A1370012353700A4BD3E700BF83
:104D3000580C0020A40B002048000020800C00200C
:104D400040420F004F0C00204E0C0020480C002069
:104D50004C0C0020A70B002008B500231A4607F0D2
:104D6000DDFB431E5842584108BD000007B50B78D3
:104D7000012B0FD004D3022B10D003B05DF804FB3D
:104D8000002302A941F8043D064B1B681868FFF791
:104D9000E3FFF2E702A94FF0FF33F3E7014B0431E1
:104DA0001B68F3E7380C00201FB57023CDE90131F3
:104DB000002301A98DF80C30FFF7D4F905B05DF898
:104DC00004FB00002DE9F04F4A4B85B01A780446E9
:104DD000002A40F08B80012747491F70FFF71CF91C
:104DE000464B474918702046FFF716F9DFF868A1CF
:104DF00044498AF800002046FFF70EF9DFF85C917D
:104E00000A22002389F800003F4901A8FEF7F8FFB5
:104E100001A92046FFF79CF83C4E3D4930702046E2
:104E2000FFF7FAF83B4B3C4918702046FFF7F4F8BF
:104E30003A4B3B4918702046FFF7EEF8394B3A4998
:104E400018702046FFF7E8F8384B394A187039498E
:104E50002046FBF7FDFDDFF808B1374A8BF800006C
:104E600036492046FBF7F4FD354905462046FFF755
:104E70009BFF70230193334B804601A92046029388
:104E80008DF80C70FFF76EF907462F4A2B46127803
:104E90009BF800102046FBF7E6FD43469AF80020F9
:104EA00029462046FBF7DFFD3B4699F800202946BE
:104EB0002046FBF7D8FD2B46327841462046FBF7CB
:104EC000D2FD2B46327839462046FBF7CCFD1F4AEF
:104ED0002B46127829462046FBF7C5FD1C4B1D4A80
:104EE0001B78127829462046FBF7BDFD05B0BDE8CA
:104EF000F08F00BF810C0020FBA80108500C00209F
:104F000005A9010810A901081CA90108310C0020FD
:104F100029A90108690C002037A90108680C0020A4
:104F200043A901086C0C002050A901086D0C002059
:104F3000E14B00085EA90108E95C000868A90108C6
:104F40007CA901088FA90108A40B0020A70B002051
:104F5000A50B0020A80B0020540C0020300C0020D2
:104F6000520C002008B50AF067FF18B1BDE80840F0
:104F70000AF084BF08BD08B50AF05EFF18B9BDE8A5
:104F800008400AF035BF08BD30B5044685B00D466F
:104F9000FFF718FF6D22064B01A91B782046CDE9CB
:104FA00001258DF80C30FFF7DDF805B030BD00BFEE
:104FB000520C00202DE9F84F424B434D1A6804462D
:104FC00012F0010F01BFFF222A7001221A602B7814
:104FD000FF2B73D1FFF7F6FE3C4A3D492046FBF715
:104FE00037FD3C4A28703C492046FBF731FD3B4FDA
:104FF0003B4A38703B492046FBF72AFD3A4E3B4975
:1050000030702046FFF7C0FF394982462046FFF73F
:10501000CBFE384983462046FFF7C6FE8146364A16
:105020003B78127829782046FBF71DFD334ADFF8DC
:10503000E0803378127829782046FBF714FD337826
:1050400098F8002039782046FBF70DFD2B7898F86A
:10505000002031782046FBF706FD294A5B4612788E
:1050600039782046FBF7FFFC26493B780A78204632
:105070005946FBF7F8FC244A4B461278397820460B
:10508000FBF7F1FC1F493B780A7820464946FBF7BD
:10509000EAFC1A4A5346127831782046FBF7E3FCC3
:1050A000337898F8002051462046FBF7DCFC174A7D
:1050B0002B78127831782046FBF7D5FC2878BDE8AC
:1050C000F88F00BF2C0C0020830C002059570008DB
:1050D0009FAA0108FD520008A9AA0108510C00204E
:1050E000CD4C0008B3AA0108530C0020BDAA01084A
:1050F000C9AA0108D7AA0108500C0020A70B00205C
:10510000540C0020310C0020A60B0020A40B002022
:10511000A80B002038B504460D46FFF753FE034A9E
:1051200029462046FBF794FC38BD00BF1555000802
:10513000344B2DE9F04F1A890023044689B0CDE99C
:1051400000230391002300222F4905A8FEF76AFEE1
:1051500005A92046FEF7FCFE2C4982462046FFF7B3
:1051600023FE2B4983462046FFF7D4FF294A804679
:1051700029492046FBF76CFC284A05462849204669
:10518000FBF766FC0646274FDFF8A8903B7899F8B6
:10519000002029462046FBF766FC234A5B46294649
:1051A00020461278FBF75FFC204A434629462046FA
:1051B0001278FBF758FC3346524659462046FBF717
:1051C00052FC3346524641462046FBF74CFC184AF7
:1051D0003B78414620461278FBF745FC3B7899F82E
:1051E000002031462046FBF73EFC6D230593039BD0
:1051F00005A9204606938DF81C50FEF7B3FF09B0B1
:10520000BDE8F08F580C0020E6AA0108F3AA0108B7
:1052100003AB01087958000814AB0108C54B00081E
:1052200023AB0108A50B00206C0C00206D0C0020A6
:10523000690C0020A40B00202DE9FF4790468A4608
:105240001E4A1F490446FBF703FC1E49054620463B
:10525000FFF7AAFD1C4981462046FFF75BFF064683
:105260001A4A4B46294620461278FBF7FCFB184A9F
:10527000184F3346294620461278FBF7F4FB3B785B
:10528000424649462046FBF7EEFB3B784246314614
:105290002046FBF7E8FB104A3B781278314620465F
:1052A000FBF7E1FB6D2301A92046CDE9013A8DF81A
:1052B0000C50FEF757FF04B0BDE8F0879D5800087A
:1052C00074AA01087EAA01088EAA01086C0C0020AD
:1052D0006D0C0020A50B0020690C002070B50D4658
:1052E0000446FEF725FF044922462B46BDE87040E0
:1052F0000978FFF726BC00BF310C0020F7B5504CF1
:105300002668A6B9082001F02BFB0546066001209F
:1053100032466860042107F027F8286018B9122186
:105320004848FCF755FC484825600AF0BDFD474D4C
:10533000474F2B6801332B600AF0A0FD3B781BB967
:1053400001233B700AF0C6FD002302A941F8043D89
:105350002368404A186807F085F9012804D04FF403
:10536000C7713D48FCF734FC019E731C42D12B6889
:10537000042B0CD9FEF748F9037843B14FF47A7047
:1053800008F02EF840F299113348FCF721FC002375
:105390003B702B681E22013BDBB21E2B28BF1E2355
:1053A00002FA03F32D4A93421DD8B3F5616F1C46F0
:1053B0004FF0000519D2B3F5167F75F1000317DA27
:1053C0003C2C75F10003ACBF1E210A21002004F023
:1053D00023FD0346201845EBE371FFF77FFF204BC9
:1053E000187803B0F0BD00251C4C4FF41671EDE7A2
:1053F0003C21EBE72EB130460021FFF76FFF194B40
:10540000EEE72E600AF0F4FCFEF792FEFFF7B6FB23
:1054100003681B689847144BC3E9000123686BB10C
:1054200030460AF041FD256835B1286807F086FB53
:105430000821284601F0B4FA002323600B4BCFE784
:10544000380C002001A801086D4D00087C0C0020DC
:10545000780C0020A086010085A8010800A30200A6
:10546000A60B0020540C002040000020A80B0020B8
:10547000054B1870054B1A700022054B1960054B3F
:105480001A705A70704700BF4F0C00204E0C00205D
:10549000480C00204C0C0020027901684079FFF78D
:1054A000E7BF08B50AF024FEC0B2DE2828BFDE2020
:1054B00008BD00004FF47A7337B5002403FB00F2F7
:1054C000074802A9056841F8044DB2FBF3F22868C9
:1054D00007F0C8F8012814BF2046019803B030BD7A
:1054E000340C00204FF47A7337B5002403FB00F22C
:1054F000074802A9056841F8044DB2FBF3F2286899
:1055000007F0F2F9012814BF2046019803B030BD1E
:10551000340C00202DE9F04F99B0FEF709FE90F809
:105520004630044603930026FFF71CFD4FF00009A8
:10553000214DDFF89080A06C0EAF03681B68984780
:105540009DF80C20CDE9000121460EA8FFF7ACF82C
:105550000FCFDDE912AB0DF1100CACE80F000FCF4F
:10556000ACE80F003B688CF80030DDE90E23B3F1A6
:10557000004F08BF002A03D0D04579EB0B0313DAA4
:10558000AA46B34601274FF47A73AAFB030103FB33
:105590000B11FFF7A7FF48B10122084B5A72084BC5
:1055A000187819B0BDE8F08F0027ECE7002FC2D1C2
:1055B0009DF83000F5E700BF805101003C0C002051
:1055C000690C00208551010010B500200021FFF773
:1055D00089FF10B1084B187810BD084C2368984714
:1055E00020B9074B1B780BB9064BF4E7637A0BB174
:1055F000054BF0E7054BEEE7690C00203C0C002062
:105600006E0C0020A40B0020A80B0020A70B00208C
:10561000022818BF00200AF019BF0000F8B53B4B64
:1056200005461E78002E6FD101271F700AF0F8F88A
:1056300037492846FDF790FEC31F052B354C42D84D
:1056400020710E23344928466371FDF78EFE3349DD
:10565000074611F091FF00283AD1E0603049284612
:10566000FDF760FE2F4960702846FDF775FEB0F526
:105670007A7F3AD8E0802C492846FDF76DFE42F249
:105680001073984236D8208128492846FDF74AFEF3
:105690002749A0702846FDF75FFEB0F57A7F2ED22D
:1056A000608124492846FDF73DFEE07036B122486E
:1056B00004F066FA71212148FCF78AFAE068BDE837
:1056C000F840FFF7A5BF1E4804F05AFA3E46B8E777
:1056D0001C49384611F050FF10B90223E360BDE7C2
:1056E000194804F04DFA0126B8E7184804F048FAC2
:1056F0000126C0E7164804F043FA0126C4E715481E
:1057000004F03EFA0126CCE7F8BD00BF820C002071
:10571000A3A90108580C0020BCA901085FAA010830
:10572000DFA90108E3A901080AAA0108F6A00108F7
:1057300032AA01085CAA010861AA010885A801082B
:10574000A6A9010824C00108C3A90108ECA9010801
:1057500013AA01083DAA010870B5234BC0B21B78FB
:10576000984206D1FDF750FFFDF708FE1F4B187851
:1057700070BD1F4DFDF748FFFFF750FF95F905007D
:105780000CF01EFA0AF056FD28790CF0E7F90AF041
:1057900045FD68780AF024FE164B1A681C4612F084
:1057A000010213D10421144E08463260716006F0E4
:1057B000DBFD306018B912211048FCF709FA01230B
:1057C0000F4A10490C4823600FF018FC0E4B1A6862
:1057D0000AB9094A1A600D480AF03EFEEB780BB18F
:1057E0000B4BC4E70B4BC2E7530C0020A80B002067
:1057F000580C0020280C0020700C002001A8010883
:1058000000000020D14B0008340C0020815C00080F
:10581000500C0020A70B0020034B93F83230022BD2
:105820000CBF022000207047D800002008B5FFF709
:10583000F3FF30B90AF000FB18B9BDE808400AF0E0
:10584000D7BAFFF7E9FF022806D10AF0F5FA18B136
:10585000BDE808400AF012BB08BD000008B5FFF71C
:10586000DBFF02280CBF024B024B187808BD00BFBB
:105870006D0C00206C0C0020054B1B8913B9054BE7
:1058800018787047044B5B7A002BF8D1FFF7E6BF1E
:10589000580C0020A40B00203C0C0020FFF7DEBFBA
:1058A00001232DE9F348324C002000216372FFF7F9
:1058B00019FE10B12F4B187816E02368984710B9DD
:1058C0002D4B1B788BB30AF0CDFD012871F100033D
:1058D00006460F460BDBFEF72BFC32463B46217A91
:1058E000FFF72FF9FFF7BAFF02B0BDE8F088236891
:1058F0009847024670B1002364680093ADF8043005
:10590000FFF7CFFD01466846A0476846FFF7C4FD94
:105910001A4BD0E7184B1B783BB1194B1B88022B55
:1059200023D80146FFF7A4FDF2E7164D6B89D3B1EA
:10593000EB78C3B1FEF7FCFBFFF720F903681B68A7
:1059400098476B89104A114D5A43D5E90067861B69
:1059500061EB0707D317B242BB4104DA40F24A3188
:105960000B48FCF735F9002363720A4BA3E700BF2D
:105970003C0C0020690C00206E0C0020680C0020FC
:105980006A0C0020580C00208051010040000020CB
:1059900085A80108A40B00202DE9F04F0446574DBF
:1059A00087B0C5E90023019100230A22544903A8C6
:1059B000FEF726FA03A92046FEF7CAFA514A8146A5
:1059C000287251492046FBF743F8504A0546504992
:1059D0002046FBF73DF84F4907462046FFF7D4FA2B
:1059E0004D498DF802002046FFF7DEF94B498DF84E
:1059F00003002046FFF78EFB494982462046FFF709
:105A000097FB8346474EDFF83881337898F80020BB
:105A100039462046FBF727F8434A33783946204673
:105A20001278FBF720F8414A5B4639462046127847
:105A3000FBF719F83E492B460A7820463946FBF712
:105A400012F8394A2B46594620461278FBF70BF8D4
:105A5000337898F8002059462046FBF704F833784D
:105A600098F8002029462046FAF7FDFF2E4A3378A1
:105A7000294620461278FAF7F6FF2E4A9DF80230A2
:105A8000294620461278FAF7EEFF29492B460A7874
:105A900020469DF80210FAF7E6FF274A9DF80330EA
:105AA000294620461278FAF7DEFF2B464A469DF833
:105AB00003102046FAF7D7FF204A534629462046CE
:105AC0001278FAF7D0FF2B464A4651462046FAF79D
:105AD000CAFF337898F8002051462046FAF7C3FFF2
