:020000040800F2
:1000000000800020AD4C0008315900080D23000885
:10001000335900083559000837590008000000001E
:1000200000000000000000000000000021A4000803
:100030003959000800000000B1A40008F5A4000828
:100040003B5900083D5900083F5900084159000834
:100050004359000845590008C5580008CB58000806
:10006000D1580008D7580008DD5800084759000843
:10007000495900084B5900084D5900084F590008CC
:10008000515900085359000855590008575900089C
:10009000595900085B5900085D590008E3580008E9
:1000A0005F59000861590008635900086559000844
:1000B00067590008695900086B5900086D59000814
:1000C0006F590008715900087359000875590008E4
:1000D00077590008E9600008C962000879590008EA
:1000E00007590008B15900087B5900087D590008DC
:1000F0007F59000800000000000000000000000020
:1001000000000000000000005FF808F110B5054C89
:10011000237833B9044B13B10448AFF300800123B3
:10012000237010BD780400200000000034F901089D
:1001300008B5034B1BB103490348AFF3008008BD6A
:10014000000000007C04002034F9010808B501F02B
:10015000AFF8BDE8084001F0E1B808B501F0A8F833
:1001600008BD08B501F0A4F8503008BD004870473C
:100170004D01000808B501F09BF8643008BD10B5CA
:1001800001F096F8044603680121DB68984723686C
:1001900020461B694FF4FA71984723682046BDE852
:1001A0001040DB680021184708B501F081F8BDE870
:1001B000084001F02FB908B501F07AF8BDE8084011
:1001C00001F0ECB910B5044601F072F80146204682
:1001D00001F048FB204610BD08B5034808F072F84E
:1001E000BDE8084006F0A0B843AC010806F09CB892
:1001F00010B50446C06910B1012113F079FF2069E0
:1002000010B1012113F074FF204610BDF8B5002590
:10021000C0E901120570C0E90335C0E90555C0E920
:100220000755456206990446164600F11C0711F071
:10023000EFFE38B93146074808F044F82021064857
:1002400001F0E6FF069A3946204611F0CBFE204623
:10025000F8BD00BF61AC01088CAC0108F8B5002501
:10026000C0E901120570C0E90335C0E90555C0E9D0
:100270000755456206990446164600F11C0711F021
:1002800075FF38B93146074808F01CF820210648A8
:1002900001F0BEFF069A3946204611F031FF204694
:1002A000F8BD00BF61AC01088CAC01082DE9F0413C
:1002B00000259DF81860C0E901120570C0E90335FA
:1002C000C0E90555C0E90755456231460446174661
:1002D00000F11C0811F0B0FD38B93946074807F0A5
:1002E000F1FF2021064801F093FF324641462046A7
:1002F00011F090FD2046BDE8F08100BF61AC01081F
:100300008CAC010870B5AAB012F07EFF054600263D
:100310000EA804ACFFF756FF0EA928460DF038FED4
:10032000634B644A009602212046FFF76FFF214687
:10033000284613F00FF82046FFF75AFF32235E4A93
:10034000009302215D4B2046FFF760FF21462846BF
:1003500013F000F82046FFF74BFF594B594A1B6832
:10036000032100932046584BFFF778FF214628468B
:1003700012F0F0FF2046FFF73BFF3C23534A009367
:100380000221534B2046FFF741FF2146284612F039
:10039000E1FF2046FFF72CFF4E4B4F4A009601210C
:1003A0002046FFF783FF2146284612F0D3FF204660
:1003B000FFF71EFF494B4A4A009602212046FFF7ED
:1003C00025FF2146284612F0C5FF2046FFF710FF03
:1003D000444B454A009601212046FFF767FF21461E
:1003E000284612F0B7FF2046FFF702FF3F4B404A76
:1003F000009602212046FFF709FF2146284612F009
:10040000A9FF2046FFF7F4FE4FF41673394A009314
:100410000221394B2046FFF7F9FE2146284612F00B
:1004200099FF2046FFF7E4FE344B354A1B68032151
:1004300000932046334BFFF711FF2146284612F068
:1004400089FF2046FFF7D4FE2F4B304A1B6803215B
:10045000009320462E4BFFF701FF2146284612F05D
:1004600079FF2046FFF7C4FE2A4B2B4A0093032155
:100470002A4B2046FFF7F2FE2146284612F06AFF7B
:100480002046FFF7B5FE2846254B264A264912F09E
:1004900029FE264B0493264B0593264B0693264BA9
:1004A000009394E80700012313F046F92AB070BDC9
:1004B0009CA80108CDA8010803A90108DBA8010830
:1004C0000400002056A9010812A90108A1A90108E9
:1004D00061A90108ADA90108ECA90108FFA901085B
:1004E0003FAA01084BAA010876AA010883AA0108BD
:1004F000CBAA0108FEAA0108DCAA01080800002016
:1005000055AB01080FAB01080C000020ADAB010892
:100510005DAB01084BE301080FAC0108B7AB010864
:10052000ED01000819AC01083DAC0108315200088A
:10053000B9510008D90100080000080810B5084C9E
:1005400022681AB99021074801F062FE064B1A682A
:100550002368B2FBF3F003FB102303B1013010BD9D
:100560008807002006AF010884070020F8B5FFF7D0
:10057000F8FD03681B6898470E4B1B78B3B90E4B08
:10058000D3E90023B3F1004F08BF002A10D00027A1
:100590000A4E841A61EB0305A64277EB050407DBDC
:1005A000904271EB0303B4BF012300231846F8BD4A
:1005B0000123FBE7A0060020280000204351010092
:1005C00038B502F0B4FF04F043F8022104F04EF80D
:1005D00004460D4603F026FC012C75F100030ADBEE
:1005E00002F07AF805492B462246097802F06FFDA1
:1005F000034B187838BD034BFBE700BFAC07002066
:10060000DF080020DC080020F8B54FF00047002686
:10061000174C15F00BFCD4E90023BB4208BFB242D3
:1006200023D002F059F830CC1249621C45F1000386
:10063000097802F05AFDB94208BFB04204460D469F
:1006400013D0FFF78EFD03681B689847A04271EB3B
:1006500005030ADB2946204607F0B4FD014606489B
:1006600007F030FE054B1878F8BD054BFBE700BFDF
:1006700030000020A40700208AAD0108DF08002018
:10068000DC08002010B50020002103F019FA044610
:1006900028B90F4807F016FE0E4B187810BD4179A7
:1006A0000D4807F00FFE617980290DD10B4B22799F
:1006B0002168186812F048F9204603F049FD082126
:1006C000204613F015FDE7E7054807F0FBFDF3E7CB
:1006D000E5AD0108DC080020EDAD0108A807002009
:1006E000F6AD010810B5FFF75FFD0B49044616F0A3
:1006F000C9FD16F0B3FF094B1880FFF75CFD084BEE
:10070000084A18804FF0804120460EF033FBBDE8C8
:1007100010400EF059BB00BF00007A443A000020A0
:1007200038000020CDCC4C4008B5084807F0CAFD81
:10073000FFF717FD03681B689847054BC3E90001E5
:10074000FFF7D0FF034B187808BD00BFB8AD010814
:1007500030000020DC0800202DE9F0434C4C93B021
:100760002368DB0708D412F069FD8022014649485E
:1007700011F056FE01232360474B464A474D1A604D
:100780002B68474C13F0010F04D1FFF7F3FC012352
:1007900020602B60206803681B689847054620B9D5
:1007A00040F20B113F4801F033FD3F4B0D933F4B9F
:1007B0000B933F4B0A933F4B0C933F4B07933F4B9D
:1007C00009933F4B089312F039FD00233D4904463D
:1007D0000E9312F0C1FB3C498146204612F0D6FB35
:1007E0003A498046204612F0D1FB39490746204657
:1007F00012F0CCFB0646FFF7B4FC844602AB07AA16
:1008000007CA83E807000CAB93E803008DE80300F8
:100810000AAB60460CCB294603F0E4FE0546CDE961
:100820000F878DF83890119612AB13E90F0085E809
:100830000F0001232B7403F00BFF054615F0F6FAA9
:100840002449204612F0ABFB05F5287501462846E1
:1008500014F0FEFE2049204612F0A1FB0146284676
:1008600014F070FF1D49204612F099FB01462846FE
:1008700014F0DEFF1A49204612F06EFB0DF01AFA52
:10088000FFF730FF174B187813B0BDE8F08300BFB7
:10089000940400208C070020A80700209804002062
:1008A0009C07002006AF0108C5820008E90800087F
:1008B000050900082109000889DE000829DE000872
:1008C000EDDE000876AA0108A1A901083FAA0108E7
:1008D000FEAA010855AB0108ADAB01080FAC010839
:1008E000ECA90108DC080020054B30B41C68236823
:1008F0009D681346AC460A460146204630BC604718
:100900009C070020054B30B41C6823685D681346C3
:10091000AC460A460146204630BC60479C07002092
:10092000034B01461B681A6818461269104700BF3E
:100930009C07002038B502F0FAFD03F089FE012182
:1009400003F094FE04460D4603F06CFA012C75F199
:1009500000030ADB01F0C0FE09492B462246097854
:1009600002F0B5FB074B187838BD15F046FD28B9E5
:10097000054807F0A7FC0122044B1A70044BF2E76C
:10098000AC070020DF08002031AD0108A0060020E0
:10099000DC0800207FB52E4B1B685B6813B101207B
:1009A00004B070BDFFF7E2FD0028F8D1294C26689D
:1009B000002E39D115F00DFD002833DD03F048FE7F
:1009C00003F050FD0546002840D04FF40072224944
:1009D000684613F0F0FA01238DF80C301F4B1B789A
:1009E000012B04D16A683346684613F02AFBD5E927
:1009F0000721684613F0ECFA684613F014FB2060F8
:100A0000284615F0C7FA0022154B68461A6013F005
:100A100008FB0546684613F006FB294602461148C6
:100A200013F080FA236863B115F0E7FC054615F072
:100A3000D0FC2D1A15F0E1FC294602460A4807F0C1
:100A400041FC2068003018BF0120A9E72060E9E7D9
:100A5000A807002084070020A00400207F070020B2
:100A60008007002010000020C8AD01081FB56123D9
:100A7000CDE9013101A9039201F048FE05B05DF80E
:100A800004FB07B58DF8041001A98DF805208DF839
:100A9000063001F0FBFE03B05DF804FB2DE9F04FDA
:100AA00087B0FFF75AFB044614F0F2FA204614F020
:100AB00005FBFFF727FCFA200AF0D0FF12F0BEFB7F
:100AC000044611F0B3FF204603F0A4F8A3492046E2
:100AD00012F05CFA012800F230810025A04B18705A
:100AE000A049204612F052FAA0F10A03282B00F286
:100AF00029819D4B1860002D40F027819B4D9C481B
:100B000007F0E0FB2B689B4C13F0010F04D101F0C0
:100B1000E3FD012320602B602568FFF722FB0146DF
:100B2000284601F0ABFC2568FFF720FB014628466C
:100B300001F0A6FC12F082FB8F49256812F02FFA13
:100B40008E49024603A801F083FC03A9284601F060
:100B5000D9FC8B4B2568187000220023894903A813
:100B600001F028FC03A9284601F0CCFC864A8749FD
:100B70001070874A2068FFF779FF8DF8070020681A
:100B800002F0F4FC834A824683492068FFF76EFF37
:100B90004FF000097025814B064603A92068049395
:100BA00003958DF8149001F0B1FD7D4A8DF8050094
:100BB0007C492068FFF75AFF7B4B804603A92068D9
:100BC000049303958DF8149001F0A0FD774A8DF8F9
:100BD000060077492068FFF749FF764B8346764A3F
:100BE0007649206803F0EAF9754A07467549206896
:100BF000FFF73CFF744A8DF8020074492068FFF744
:100C000035FF5F4B8DF803001A787149206802F0B8
:100C1000EFFD9DF807508DF804002068534680F8DA
:100C200028506C4D9DF807102A78FFF72AFF6A4A72
:100C30005146DFF8BCA1334620681278FFF721FF48
:100C40009DF805309AF8002031462068FFF719FF1B
:100C50004D4933460A7820689DF80510FFF711FFCB
:100C600043462A7831462068FFF70BFF9DF806308F
:100C70009AF8002041462068FFF703FF42494346A7
:100C80000A7820689DF80610FFF7FBFE3B462A789D
:100C900041462068DFF85C81FFF7F3FE3B462A7887
:100CA0009DF802102068FFF7ECFE9DF8023098F8DE
:100CB000002039462068FFF7E4FE9DF803302A78CB
:100CC00039462068FFF7DDFE5B469AF800209DF864
:100CD00003102068FFF7D5FE9DF804302A789DF8B0
:100CE00003102068FFF7CDFE9DF8023098F8002031
:100CF0009DF804102068FFF7C4FE214A5B469DF86A
:100D0000041020681278FFF7BCFE33462A78594653
:100D10002068FFF7B6FE206801F06EFF2F4807F04D
:100D2000D1FA01224FF49671206801F0FFFE484687
:100D30000AF00EFC07B0BDE8F08F294807F0C2FAB0
:100D40000125CDE6274807F0BDFA274807F0BAFA93
:100D50004FF4EB71254801F05BFACFE6CDA801080E
:100D60007F07002003A90108880700209C040020B9
:100D70006FAE0108A007002056A901088CAE01083B
:100D8000A407002091AE0108AC0700205DBC01085B
:100D900059070008C10500089BAE0108A5AE01086F
:100DA00035090008B0AE0108BAAE010829070008ED
:100DB000C5AE0108890F000895090008CCAE0108EE
:100DC00085060008D9AE010809060008E2AE010850
:100DD00032BC0108DC080020E0080020ECAE01086D
:100DE00016AE010839AE01085CAE010806AF010875
:100DF000DF0800209109002030B5012585B00A46A2
:100E000004461949684613F0D6F8022168468DF861
:100E10000C5013F0FBF80321684613F0F7F8042197
:100E2000684613F0F3F8114B6846198813F015F96A
:100E30000F4B6846B3F9001013F0F7F80D4B197813
:100E400011B1002229461A70684613F0DFF868468F
:100E500013F0E7F80546684613F0E5F8012325602E
:100E60006371207105B030BDA10600203A0000205A
:100E700038000020A00600202DE9F743384B8046BB
:100E80001D780A4645B1012D59D0D521354803B00A
:100E9000BDE8F04301F0BCB9FFF750FB324C334FD3
:100EA0002368984246D93D68314A05FB0325314BFA
:100EB0001E68FFF743FB2268904292BF00233B6805
:100EC0005343F61A3B689E4228BF1E461EB9B52101
:100ED000244801F09DF90A27236803FB0777FFF7F1
:100EE0002DFB2168074401F10109FFF727FBFBB245
:100EF00002460093494633461F4807F0E3F931465E
:100F0000284607F045FA1D4807F0DCF9236888F801
:100F100005700133C8F8005088F804602360FFF7BB
:100F20000DFB2368984202D10022124B1A6003B0D5
:100F3000BDE8F083B3210B4801F06AF9B7E7104D23
:100F4000104C2946204612F0BFFF652388F80400A4
:100F500088F80530D4E90223C8F800509A42E2E745
:100F60007F07002006AF01088007002088070020C7
:100F7000A0040020840700204FAD01084AE30108C7
:100F8000A106002010000020F7B5194F04463B6869
:100F90000D465B688BB1174E174807F093F90DF1BA
:100FA00007032A463146386811F08AFA9DF807305F
:100FB00026606371207103B0F0BDFFF7D7FA78B1F6
:100FC0000E4807F07FF9FFF7CCF803681B689847D5
:100FD0000B4BC3E9000129462046FFF70DFFEAE766
:100FE000084807F06FF929462046FFF745FFE2E77A
:100FF000A8070020A1060020D3AC0108F9AC010825
:101000002800002016AD010813B5FFF7A6F8036805
:1010100000249B689847FFF7B2F801234FF49672BB
:101020000B49CDE900340B4823460AF0A3F90A48DE
:1010300007F048F9094807F045F90AF075FB40F256
:101040000221074801F0E4F8204602B010BD00BFBD
:101050004AAF01089D0A000853AF010866AF0108B6
:1010600006AF0108FF23024A1370024A137070474B
:10107000AC070020A40700207047000038B50A4CD8
:1010800005460121204604F01BFB002320461A469A
:10109000012104F053FA85F001022046BDE83840F2
:1010A000012104F019BB00BF0000024008B5012077
:1010B000FFF7E4FFBDE80840032005F045B9084606
:1010C000FFF7DCBF10B50446682113F011F8204685
:1010D00010BD0000024B0121186803681B68184707
:1010E000BC070020021C18BF01220321014804F0A4
:1010F000F3BA00BF0004024010B50C460AF096FE99
:10110000022808D14FF47A704443B4FBF0F0BDE8F4
:1011100010400AF0A3BC2046BDE8104004F02AB8F5
:101120000321014804F0E1BA0004024010B5094C63
:10113000094807F0C7F820460B2104F0C1FA002344
:1011400020461A460B2104F0F9F9BDE8104003F0DF
:10115000F7BF00BF00000240A4B2010808B502209A
:1011600003F052FF03F0B4FF00F02EFC03F0DAFFAF
:1011700000F03CFE04F03EFD0C4801F013F84FF483
:10118000E13005F095F80A4B1A680AB9094A1A6065
:10119000094B1A680AB9074A1A60084807F092F81A
:1011A000BDE80840064807F08DB800BFAD10000844
:1011B0005C0D002051610008600D0020FFAF0108A8
:1011C00017B00108F7B5044613F058FF22461F4B2D
:1011D0001F4E42F83C3B0023E36353601D4A84F8F2
:1011E0004C3062641C4AC4E91633A2641B4A84F87A
:1011F000603022651A4B1B4A636662651A4807F025
:1012000061F83368194F01933B68194D00932B68BF
:10121000184A1B2104F1210017F0E0FB296804F1B2
:10122000110007F0A7F9396804F1150007F0A2F9D9
:10123000316804F1190007F09DF9296804F11D00D7
:1012400007F098F9204603B0F0BD00BF08B30108CD
:101250006400F81FF4B3010888B40108B8B40108A9
:101260002CB40108A4B40108D8B201085400F81F36
:101270005000F81FEDB2010810B5094CFFF76EFFE2
:101280002368DB0709D40748FFF79CFF0123064AC0
:1012900006490448236015F0C2F8024810BD00BF9B
:1012A000B4070020C00700200000002079100008CB
:1012B00038B5064D064C2B6813F0010F04D1FFF72B
:1012C000DBFF012320602B60206838BDB8070020B9
:1012D0002808002008B50B21054804F00BFA28B1B6
:1012E000BDE808400B21024804F018BA08BD00BF51
:1012F0000000024008B519B1BDE80840FFF716BF6D
:10130000044806F0DFFFBDE8084002220B21024836
:1013100004F052B9C0B2010800000240F8B504461A
:10132000374804F1440506F0CDFF2846002100F0BF
:1013300085FD0021284600F097FD324D204613F030
:10134000CDFE0CF071FD0DF017FA20460021FFF7DD
:10135000D1FF0BF05BFB13F091F9012228460C2121
:1013600004F02AF904F064FD23682046DB6804F1E8
:10137000540600219847244F0021304600F078FEA3
:1013800004F02AFA214806F09DFF04F07FFE03F0E6
:10139000C9FE384601220D2104F00EF9012238461B
:1013A0000E2104F009F90021084604F0FFFC04F1C5
:1013B000480000F0EDFD0121304600F059FE4FF4E9
:1013C000E13004F075FF124806F07CFF28460C213E
:1013D00004F076F9002328461A460C2104F0AEF8F2
:1013E0000120002104F048FD13F05AF90BF034FA03
:1013F00004F01CFD2046BDE8F84013F07FBE00BF9E
:1014000072B20108000402400000024096B20108D6
:10141000DEB1010838B50546FFF75CFF044628B188
:1014200000212846FFF766FF03F08AFE03F090FDD7
:1014300005460CB1FFF77AFE284638BD70B50C465C
:1014400006461549204616F0D9F820B90021204655
:1014500016F0B6F870B11149204615F013FF16F0DA
:10146000D7F801460E4806F02DFF4FF4BB710D482A
:1014700000F0CEFE3046FFF72DFF054648B9304656
:10148000FFF7C8FF0146204616F0B8F808B1FFF78D
:101490004DFE284670BD00BF3333534000007A44F0
:1014A0002DB001085CB0010870B52D4AD6B01368A4
:1014B0000546DB0705D42B4900F154030B600123DB
:1014C000136029492846FFF7B9FF0646274806F06A
:1014D000F9FE002105F1440000F0C6FC244C254B28
:1014E000E360254B2361254BA360254B6360254BAF
:1014F0002360254B6361254BA361254BE36104F118
:1015000010030FCB8DE80F0094E80F0013F0F2FAF0
:10151000002305A8EB632B6413F078FA9DF81430D0
:1015200005F13C04012B14D1DDF8153005A8EB635F
:10153000DDF819302B6413F039FA164806F0C2FEB4
:101540000821204606F024FFBDF91611124806F0C6
:10155000B9FE31462846FFF7CDFE56B070BD00BF3C
:10156000B0070020BC0700200000404098AF0108F1
:101570002C55002075510008FD500008D5100008BA
:1015800021110008E5100008C582000845A40008E4
:1015900085A40008B9AF0108DFAF010870B507499D
:1015A0000546FFF74BFF064613F0C8F904463146DF
:1015B0002846FFF79FFE204670BD00BF0000404058
:1015C0007FB5F82300F1480504AC0646284604F828
:1015D000013D00F0E3FC0223214600930122A123F8
:1015E000284600F0DFFC4FF400430822009306F188
:1015F0005801A1230446284600F0FEFC0440E4B252
:10160000284600F0CDFC204604B070BD30B58BB04C
:10161000044604F0C7FE01464F4806F053FE4F480B
:1016200006F050FE204600F097FB00F0A9FA00F00B
:1016300053FA4B4806F046FE04F1480549484A492A
:1016400006F040FE284600F0A3FC38B9474806F0F3
:1016500039FE40F23311464800F0DAFD03F070FD28
:101660002046FFF7ADFF20B94FF49C71404800F0D1
:10167000CFFD94F85F0094F85A30049094F85E001F
:1016800094F85920039094F85D0094F85810029053
:1016900094F85C00019094F85B000090354806F0E7
:1016A00011FE284600F01AFA284600F07BFA04F1F1
:1016B000440584F8600004F1640000F01BFC002184
:1016C000284600F0BBFB012000F030FD0021284639
:1016D00000F0CAFB012000F047FD2046FFF7E4FEC2
:1016E00000F0ACFA244806F0EDFD4FF4FA7016F065
:1016F000A3FA054640BB214806F0E4FD204806F069
:10170000E1FD204806F0DEFD1F4A2049204806F092
:10171000D9FD2049204806F0D5FD204806F0D2FD2D
:1017200004F121011E4806F0CDFD07A804F0FAF9E6
:1017300007A806F01DFD01461A4806F0C3FD114832
:1017400006F0C0FD0BB030BD174806F0BBFD2846C3
:1017500016F07AFAD2E700BF9CB00108B2B00108D7
:10176000C9B00108DEB00108A0860100F9B0010887
:101770005CB001080FB1010844B1010877B101085C
:1017800049E30108B5B10108E6B10108F1B101086A
:1017900013B2010823B201082AB2010835B20108C8
:1017A00055B2010860B20108ABB101082DE9FF4153
:1017B00000F14805284600F0F1FB04240226284FDA
:1017C000013C14F0FF0433D0A123012239460096D6
:1017D000284600F0E7FB4FF40043804600930422C4
:1017E000A12302A9284600F007FCB8F1000F01D19F
:1017F0000028E5D09DF80830442B20D19DF8093011
:101800006E2B1CD10DF10A0006F0A6FE022301305A
:1018100084B221460DF109008DF8083006F0BDFEB6
:10182000002303220093A02302A9284600F0BAFB5C
:10183000284600F0B5FB204604B0BDE8F0814FF427
:1018400088430024ADF808306E2300210DF10B0011
:101850008DF80A3006F0A1FE0094A0230522E3E7EC
:1018600097AF010838B50C46113105460CF056FE0D
:10187000214651F8583F28462B604B686B6038BDB5
:10188000024B186803685B68184700BF38080020DF
:10189000024B186803689B68184700BF380800208F
:1018A0002DE9FF41002315461370022206460D4F15
:1018B00004AC386804F8011D03680092D3F80C806A
:1018C000012233462146C04748B14FF400423868F0
:1018D0002946036800921C6901223346A04704B0E0
:1018E000BDE8F0813808002030B585B08DF80D20B6
:1018F0000022074B8DF80C101C6803A92368009286
:10190000DD68022203462046A84705B030BD00BF6F
:101910003808002037B54FF40045064B1C68236893
:1019200000951D6913460A4601462046A84703B0A4
:1019300030BD00BF3408002037B50025054B1C68BA
:1019400023680095DD6813460A4601462046A847ED
:1019500003B030BD3408002037B50225054B1C68A4
:1019600023680095DD6813460A4601462046A847CD
:1019700003B030BD34080020024B186803681B68B0
:10198000184700BF34080020024B186803685B68E2
:10199000184700BF34080020024B186803689B6892
:1019A000184700BF340800204FF47A735843B0FB47
:1019B000F3F00AF053B810B50446FFF779FC21465E
:1019C000BDE81040FFF7F2BE10B5424C0BF070F8C6
:1019D00020460222002103F0EFFD0122204611469D
:1019E00003F0EAFD20460122022103F0E5FD204636
:1019F0000222032103F0E0FD20460022042103F02F
:101A0000DBFD20460222082103F0D6FD20460122FC
:101A1000092103F0D1FD204601220A2103F0CCFD6B
:101A2000204602220B2103F0C7FD03F07BFB0023BD
:101A300020461A460C2103F081FD204600220C218D
:101A400003F04AFE2046002204F580640F2103F0D3
:101A5000B3FD20460122002103F0AEFD2046002206
:101A6000022103F0A9FD20460022032103F0A4FD7A
:101A700020460222062103F09FFD20460022082175
:101A800003F09AFD20460022092103F095FD20462F
:101A900001220C2103F090FD204602220D2103F0CB
:101AA0008BFD204602220E2103F086FD20460222F5
:101AB0000F2103F081FD002304F5806420461A46BF
:101AC0000D2103F03BFD2046BDE8104000220D2112
:101AD00003F002BE0000024004F08CB81D4B00B5BC
:101AE0001A6889B0D2075FBF1B4A106001221A60D2
:101AF0001A4B1B4A04931B4B05931B4B03931B4B25
:101B000002931B4B079308AB43F8082D93E803009F
:101B10008DE8030002AB0FCB12F0A0FE90B1154888
:101B200006F0D0FB00221448114603F045FD0F23B8
:101B300002220021104803F0DFFB09B05DF804EB3E
:101B400012F026BE69210D4809B05DF804EB00F0E3
:101B50005FBB00BF30080020380800208118000853
:101B6000A919000891180008A1180008E918000830
:101B7000C58200089AB3010800000240ABB3010817
:101B8000002307B5ADF8043001238DF80630019825
:101B90000AF0EAFE03F0C6FA03B05DF804EB0AF0BF
:101BA00035BF0000194B10B51A688CB0D2075FBF63
:101BB000174A106001221A60164B0793164B0593C3
:101BC000164B0693164B0893164B0993164B0A9324
:101BD000164B0B930CAB13E907008DE8070005AB20
:101BE0000FCB12F021FB044601220F21104803F015
:101BF000E3FC3CB10F4806F065FB12F0F3FA204617
:101C00000CB010BD0C4806F05DFBF8E72C08002076
:101C1000340800201519000839190008591900085E
:101C2000791900088919000899190008C582000867
:101C3000000002401CB301084FB301082DE9F04F2A
:101C4000A9B00BF029FADFF80C9168B9384B394A82
:101C5000CDE923332292384A0093CDF88090219227
:101C600020AB0FCB0BF01EFA344B00251993344BED
:101C70004FF0010A1893334B4FF003081A93324B7D
:101C80002B4C1B93314B2C4F1C930423294E09A939
:101C900018A8CDE909351D941E971F968DF829A027
:101CA00006F0F8FF06F0EAFF16F030FE294614228F
:101CB00023A80C95CDF82C8016F021F8EE460DF1F6
:101CC000A00C4CF8186DBCE80F00CDE92047AEE839
:101CD0000F009CE803008EE803000DF1800B0BA9B8
:101CE0009BE80C0003C90BF0EBFF294610220EA85D
:101CF00016F005F8164BCDE91244CDF834808DF876
:101D00003EA002AC0DADCDE915761793CDF85090FD
:101D10000FCD0FC42B68236016AB93E803008DE84A
:101D2000030012AB0FCB0CF023FC29B0BDE8F08F01
:101D3000C5820008D1830008FD83000891C900080E
:101D400059C8000869C7000801C7000815C700087E
:101D5000B7190008E15B00082DE9F047044603F0DD
:101D6000F7F81E49054615F08DFA15F051FC0146AD
:101D70001B4806F0A7FA4FF08041284615F020FCDA
:101D800048B30025DFF86090DFF85080154E03F06F
:101D9000DFF84946074615F027FCA8B94146384602
:101DA00015F070FA15F034FC0146304606F08AFA58
:101DB000236885F001052046DB68294698474FF4E3
:101DC0007A7003F0D7F9E2E723682046BDE8F047D0
:101DD000DB6800211847BDE8F08700BF00007A44A7
:101DE0006DB301087FB301080000204008B50D491C
:101DF000012003F055FD0C490B2003F051FD0B4968
:101E00000A2003F04DFD0A49042003F049FD094969
:101E1000072003F045FDBDE808400749052003F011
:101E20003FBD00BF699F000885A2000811A10008FE
:101E30009DA30008F1A2000879A30008002310B5B3
:101E40000C461A460D21074803F078FB14B1012C0B
:101E500000D010BD2246BDE810400D21014803F01E
:101E60003BBC00BF00080240002310B50C461A46D8
:101E70000C21074803F062FB14B1012C00D010BD07
:101E80002246BDE810400C21014803F025BC00BFEC
:101E90000000024012F018BB084611461A4612F024
:101EA000B1BB084611461A4612F02EBB0846114631
:101EB0001A4612F063BB00000C2110B1024803F077
:101EC000FFBB014803F002BC0004024010B561B141
:101ED000FFF7EEF9044612F0CBFA01462046FFF771
:101EE000ADFABDE8104012F0DBBBBDE8104012F0C7
:101EF000C5BB000070B588B0FFF7DAF91D4905468B
:101F0000FFF79CFA0C2106461B4803F0D9FB00237F
:101F10000C211A46184803F011FB0021012003F0A0
:101F2000ABFF102200210DEB020015F0E8FE134B71
:101F300002AC0293124B0693124B039308AB13E9C6
:101F400003008DE8030094E80F0012F0C1FB60B1BC
:101F500012F0BAFA01460C4806F0B4F931462846A8
:101F600008B0BDE87040FFF7C5B9084806F0AAF907
:101F7000F4E700BF0000404000040240B91E000822
:101F8000755100082D5F0008FCB3010812B4010868
:101F9000014803F00FBC00BFA086010003F0DABBCC
:101FA00003F0F4BB2DE9F041069F1E4607F0030342
:101FB000032B80460C46154603D12F210D4800F017
:101FC00027F92046BC07324629460AD503F02CFCE7
:101FD00010B10120BDE8F0810123002088F8043011
:101FE000F8E7FB0702D503F02DFCF1E703F00EFC48
:101FF000EEE700BF40B401082DE9F041069C0D4614
:10200000E107804616461F4603D54C210D4800F0D7
:10201000FFF8A20703D54F210A4800F0F9F823047E
:102020003A46314628460AD503F01AFC10B1012081
:10203000BDE8F0810123002088F80430F8E703F0C0
:10204000D7FBF3E740B4010808B50321034803F0C8
:102050004CFB003018BF012008BD00BF0004024047
:102060000A460248032103F037BB00BF00040240C8
:1020700008B581B1012303211A460A4803F05EFA2C
:102080000321084803F01CFBBDE808400322054873
:10209000114603F033BA0122BDE80840032101488C
:1020A00003F08ABA0004024003F09ABD1FB501A8EC
:1020B00006F020F801A803F025FD05B05DF804FB4B
:1020C0001FB501A806F016F801A803F069FE05B0D7
:1020D0005DF804FB03F0D2BD03F0EABD084603F04F
:1020E00061BCDFB50023CDE90133ADF80C3001232D
:1020F0008DF807308DF808306FF01D038DF809302A
:102100000723044601A88DF80A3006F018F8236862
:1021100006461B6820460F469847864277EB010328
:10212000B4BF0120002004B0D0BD0000042817D89F
:10213000DFE800F00309100E1200002303211A4605
:10214000084803F0FBB900220321064803F034BA23
:102150000222F9E70122F7E70321024803F052BA0D
:10216000704700BF00000240042817D8DFE800F0E5
:102170000309100E1200002302211A46084803F03A
:10218000DDB900220221064803F016BA0222F9E75F
:102190000122F7E70221024803F034BA704700BF7A
:1021A00000000240014B1860704700BFC8080020C3
:1021B00073B5124C064623780D46114A1BB91378A5
:1021C0000BB172B6FEE70123002113700D486422A3
:1021D00015F095FD2B4600960B4A6421094816F030
:1021E000FDFB0A4B1B6803B198470125054E30469D
:1021F00006F0ACF872B62570F9E700BFA808002019
:102200003C0800203E080020E7B40108C808002070
:10221000F7B5144C064623780D46134A1BB91378BC
:102220000BB172B6FEE70123002113700F48642240
:1022300015F065FD2B4600960D4A64210B4816F0FB
:10224000CDFB0C4B1B6803B198470125074F0A4E85
:10225000384606F07BF8304606F078F872B62570FE
:10226000F6E700BFA90800203D0800203E08002036
:102270000FB50108C80800201EB501080368DFF883
:1022800088C080B5CCF80030164F4368164E3B60CE
:102290008368164D3360C36815492B600369154A7E
:1022A0000B604369144C13608369C0692360134B4E
:1022B0001860DCF800003868306828680968104841
:1022C00012680021226864221B6815F018FD23683B
:1022D0000C4A64210A4816F081FB094806F036F8DA
:1022E000FEE700BFB8080020C0080020C408002096
:1022F000BC080020A4080020AC080020B008002082
:102300003E080020D4B40108B4080020074B1B6825
:1023100003B198471EF0040F0CBFEFF30880EFF3F2
:1023200009808169004A10477D220008C808002002
:1023300010B50446C06908B106F04AF8206908B132
:1023400006F046F8606808B106F042F8204610BD75
:1023500010B50446006808F02DFF204610BD0000AF
:102360001FB50B46546801780294127801925A689E
:10237000009242681B68024805F0A4FF04B010BD3B
:102380003AB50108C9210148FFF742BF58B5010815
:10239000FE2307B502A901F8043D054B1868002388
:1023A00000681A4608F0F6FB03B05DF804FB00BFB6
:1023B000D8080020D0B51F467423C0E9003100239F
:1023C000044683600820164611F072FEC0E90067DB
:1023D000A0602046D0BD00002DE9D043DDE90667AE
:1023E00099467223C0E9003100239642836077EB5F
:1023F00009030446904603DA2B210748FFF708FF3C
:10240000102011F055FEC0E90089C0E90267A06004
:102410002046BDE8D08300BF9AB50108036837B5F0
:10242000632B04460D4601D0FFF7ACFF002302AA40
:1024300042F8043DA168284605F02AFD019B1BB126
:1024400038210248FFF7E4FE03B030BD9AB5010819
:1024500070B563230025C0E90031044685601A2069
:10246000164611F025FE1A22294615F048FC314681
:10247000A0602046FFF7D2FF204670BD8164704700
:10248000C16470472DE9F843D0E9017388460025FF
:102490004FF00C09DB1B0A4E9B105E43ECB2B442BA
:1024A0000BD209FB04724146506816F0EBFA013575
:1024B0000028F3D12046BDE8F8834FF0FF30FAE75B
:1024C000ABAAAAAA2DE9F843D0E9047388460025EF
:1024D0004FF00C09DB1B0A4E9B105E43ECB2B4427A
:1024E0000BD209FB04724146506816F0CBFA013555
:1024F0000028F3D12046BDE8F8834FF0FF30FAE71B
:10250000ABAAAAAA2DE9F0410E4649680446FFF796
:10251000B9FFC0B2FF2803D07C212948FFF778FE1D
:10252000D4E90123274F9B1A9B107B437E2B03D9B1
:102530007F212348FFF76CFED4E901120C25E068E7
:10254000531A9B10121A7B4392107A430133934221
:1025500005FB03F80ED84144A160D4E9013496E8A4
:102560000700E31A04E9070016489B105843013896
:10257000BDE8F081404605F041FF054618B96921E4
:102580001148FFF745FED4E901C30027A3EB0C0374
:102590009A100C4B5343002B09DD05EB070E0CEB97
:1025A000070207CA013B8EE807000C37F3E76046D5
:1025B00005F00EFF65604544C4E90255CDE700BF54
:1025C0009AB50108ABAAAAAAAFB601081FB56E2337
:1025D000CDE90131002301A90393FFF793FF05B073
:1025E0005DF804FBFF2270B5002380F828204FF02F
:1025F00000424FF0FF31C0E90D23C2636FF07F420C
:10260000C0E910120522254DC0E914232A680446AA
:1026100012F00102C0E90033C0E90233C0E904331B
:10262000C0E90633C0E908330363C0E9123313D1AC
:1026300001211B4E08463260716008F0D1F930600C
:1026400018B912211748FFF7E3FD0123164A17496D
:1026500013482B6013F0E3FE154B1A680AB9104AB1
:102660001A6014492046FFF7B1FF134B1349187045
:102670002046FFF7ABFF124B124918702046FFF7B8
:10268000A5FF114B114918702046FFF79FFFFE224E
:102690000F4B18700F4B20461A7070BDD4080020E5
:1026A00048090020E7B60108000000205123000877
:1026B000D808002021B70108E008002029B7010848
:1026C000DE08002031B70108DC08002036B7010819
:1026D000DF080020DD08002010B5084C2368DB0768
:1026E00009D40748FFF77EFF0123064A064904483C
:1026F000236013F094FE024810BD00BFD0080020F4
:10270000F008002000000020312300082DE9F041EE
:102710000E4649680446FFF7D5FEC0B2FF2803D035
:1027200087212948FFF774FDD4E90423274F9B1A1A
:102730009B107B437E2B03D98A212348FFF768FD3A
:10274000D4E904120C25A069531A9B10121A7B437A
:1027500092107A430133934205FB03F80ED84144AB
:102760006161D4E9043496E80700E31A04E907003C
:1027700016489B1058430138BDE8F081404605F0EB
:102780003DFE054618B969211148FFF741FDD4E91E
:1027900004C30027A3EB0C039A100C4B5343002BEC
:1027A00009DD05EB070E0CEB070207CA013B8EE8BB
:1027B00007000C37F3E7604605F00AFE2561454443
:1027C000C4E90555CDE700BF9AB50108ABAAAAAA8E
:1027D000AFB6010838B5D0E901239B1A074A9B1010
:1027E0005343CDB29D42044603D3A6210448FFF7CC
:1027F0000FFD0C20636800FB053038BDABAAAAAA08
:102800009AB5010838B5CCB2114905460B6813F0EA
:10281000010307D10F4A70201372012310600E4884
:102820000B605060FF2C10D0D5E904239B1A0B4A93
:102830009B1053439C4203D3B2210948FFF7E8FCA5
:102840000C23286903FB040038BD0248FCE700BFE5
:10285000CC080020E4080020DCB50108ABAAAAAA35
:102860009AB5010810B5D0E90730C9B2D2B2834297
:1028700009D01C788C4204D15C78944201D19878BC
:1028800010BD0333F3E74FF0FF30F9E72DE9F041D6
:10289000D0E904239B1A4F4A9B1053430D460978F5
:1028A0000446994203D393214B48FFF7B1FCD4E986
:1028B00001239B1A474A9B1053436978994203D3DB
:1028C00094214548FFF7A4FCD4E904239B1A414A0C
:1028D0009B105343A978994205D3FE2903D0952133
:1028E0003D48FFF795FC6A7829782046FFF7BAFF44
:1028F000C3B2FF2B064629D029782046FFF782FF76
:10290000697807462046FFF765FF31468046204636
:10291000FFF778FF414602463846FFF721FD297848
:102920002046FFF76FFF697806462046FFF752FF03
:10293000A97807462046FFF765FF3946024630462C
:10294000FFF70EFD9C212448FFF762FCD4E9072322
:10295000204F9B1A7B437E2B03D99F211E48FFF7F4
:1029600057FCD4E90762616A931B7B43521A5743B1
:102970000133BB4203EB43080AD8464426622A8847
:10298000236A23F8032CAA7803F8012CBDE8F08110
:10299000404605F033FD064618B969210F48FFF798
:1029A00037FCD4E90702131A0A4A5A430023002AC3
:1029B0000ADDC118B1F800C0F71826F803C08978FD
:1029C000013AB9700333F2E705F002FDE6614644CF
:1029D0006662D3E7ABAAAAAA9AB50108AFB6010806
:1029E00013B5FF24084A02AB106803F8044D0A46E9
:1029F0000068194608F072F9012814BF20469DF8B6
:102A0000040002B010BD00BFD808002038B58168AE
:102A100000681D46144605F0C5FD0346201845EB29
:102A2000E37138BD08682DE9F04172281F461FD0B8
:102A300074280FD0632820D1886805F0E9FA0028AF
:102A400071F1000304460D460EDADD210D48FFF753
:102A5000DFFB09E08B68D3E90045B5F1004F08BF03
:102A6000002C01D0A4187D4120462946BDE8F08104
:102A70008868BDE8F041FFF7C9BF00244FF000456A
:102A8000F2E700BF9AB501082DE9F0410F4606466E
:102A90000024FFB2FFF7B6FED6E90758454511D02E
:102AA0002B78BB420CD169783046FFF793FE036860
:102AB000692B05D183681B6803B198470134E4B2E0
:102AC0000335EBE72046BDE8F0812DE9F341804670
:102AD0000F460025FFF796FED8F81C40D8F8206076
:102AE00003340336FFB2A6421BD0234633F8032D2E
:102AF0009B78ADF804208DF8063014F8033C9F4213
:102B00000DD19DF805104046FFF764FE0368692B60
:102B100005D183685B6803B198470135EDB2033492
:102B2000E1E7284602B0BDE8F0810000836C73B590
:102B300004460D46164623B94FF48C710B48FFF737
:102B400067FBCDE9006423462A460949094808F095
:102B500011FC012807D04FF48F71044802B0BDE882
:102B60007040FFF755BB02B070BD00BF9AB50108B9
:102B7000A4B60108C530000838B590F847300446BF
:102B8000032B0D4604D940F231110648FFF740FBF4
:102B900094F847305A1C84F847201C4484F842506B
:102BA00038BD00BF9AB5010810B590F8473004460B
:102BB00023B94FF49B710648FFF72AFB94F847307E
:102BC000013BDBB284F847301C4494F8420010BD4E
:102BD0009AB50108CBB2FE2B10B504460AD0FFF718
:102BE00011FE03686D2B05D1017A2046BDE8104027
:102BF000FFF708BE10BD00002DE9F843044600268B
:102C0000114FD4E904239B1A9B107B435FFA86F88B
:102C1000434516D941462046FFF7DCFFD4E9075962
:102C2000A9450CD02B78434507D169782046FFF79A
:102C3000D1FDA9782046FFF7CDFF0335F0E7013637
:102C4000DFE7BDE8F88300BFABAAAAAA38B50546FE
:102C5000002495F84730A34207DD2B1993F8421062
:102C60002846FFF7CFFD0134F3E738BD00232DE9F7
:102C7000F74FC0E9043388461946D8E907594FF0A1
:102C800000430446C0E90213C0E90013FF208A464E
:102C90009B46D2B2207401924D45D4E900671FD003
:102CA0002B78019A934219D169784046FFF792FD3B
:102CB000DDE90C2301464046FFF7B4FE594508BF45
:102CC00050450BD05F4508BF564503D0B04271EB6D
:102CD000070303DA6B78C4E9000123740335DBE7EB
:102CE000B7F1004F08BF002E08D0DDE90C23B21A5F
:102CF00067EB030316461F46C4E90267204603B08C
:102D0000BDE8F08FF8B50D460B4B896806464B437E
:102D10004FF47A71B3FBF1F1FFF762FE0446C7B2DC
:102D2000B06C03681B689847FF2FC6E90E010CBF03
:102D3000287C2046F8BD00BF40420F0038B5C36C68
:102D400004460D461BB9BDE83840FFF7DBBF806C79
:102D5000134903685B699847A06C0368DB68984770
:102D6000A06C03689968D5E900238847A06C0368C4
:102D70001B699847E36C9847A06C0368DB68984729
:102D8000A06C03681B689847C4E90E010021204627
:102D9000FFF726FEC0B2FE2808BF287C38BD00BF62
:102DA00091230008F8B5D1E90067B7F1004F08BFDB
:102DB000002E05460C4608D11AB1BDE8F840FFF7D1
:102DC000A1BFBDE8F840FFF7B9BFD1E90267012E06
:102DD00077F1000301DA087CF8BD8AB12146284664
:102DE000FFF790FF237CC0B28342F5D1D5E90E678F
:102DF000D4E90023964277EB0303B8BFFF20EBE74B
:102E0000D0E91423964277EB0303E7DBFFF796FF45
:102E1000E8E700002DE9F04389B004460D46FFF7CE
:102E2000F1FC03680646702B04D04FF49E713C48B9
:102E3000FFF7EEF9A06C03681B6898472A46C4E9BF
:102E40000C01CDE90001214602A8FFF70FFF29463A
:102E50002046FFF719FE9DF818300746FF2B05D1D5
:102E600020B940F247112E48FFF7D2F9D4E90C01FE
:102E700005F0A8F901462B4805F024FA39462A48FE
:102E800005F020FA9DF81810FF2920D100224FF0FC
:102E90000043CDE90423254F327A02A92046FFF7EB
:102EA00081FFC3B2FF2B804632D1D4E90E23DDE986
:102EB0000201801A61EB030189468046CDE904894D
:102EC00005F096F90146384605F0FCF9E4E720469E
:102ED000FFF780FCD0E90078DDE9020105F072F926
:102EE000424603463946124805F0ECF9D4E90C2372
:102EF000DDE90201801A61EB030188460746CDE94E
:102F0000047805F075F901460A4805F0DBF9C2E7D7
:102F100029462046FFF7D9FD404609B0BDE8F083B9
:102F20009AB50108EAB5010809B6010866B60108B4
:102F300024B6010848B6010870B504460D46FFF7EF
:102F400061FC03686D2B11D0702B09D0612B14D15B
:102F5000836894F8411094F84000BDE87040184729
:102F600029462046BDE87040FFF754BF034840F2B1
:102F70002B11FFF74DF94FF0FF3070BD9AB50108E6
:102F80002DE9F04790F828300446FF2B04D14FF488
:102F9000D6714848FFF73CF994F828102046FFF70F
:102FA00031FC94F82830DFF8188184F8463094F822
:102FB00046102046FFF726FC036805466D2B204689
:102FC00094F846100BD1FFF7D7FD297A204684F8F4
:102FD0004610FFF717FC2046FFF738FEE7E7FFF73C
:102FE000ABFFC3B2FF2B06460BD140F2C1113148F3
:102FF000FFF70EF940F2C1112F4B304A2D4814F063
:1030000007FD024694F846102046FFF72BFCC5B298
:10301000FF2D09D140F2C7112648FFF7F9F8264BDA
:10302000264A40F2C711E9E794F84610FE2D2046E3
:1030300021D1FFF7B9FD074601462046FFF7E2FB25
:10304000324639462046FFF70DFCC5B2FF2D0DD1A3
:1030500031462046FFF7BEFB40F2D3111548FFF77B
:10306000D7F8154B154A40F2D311C7E72046FFF7B2
:10307000EDFD3946DAE7FFF7C5FB31460746204646
:10308000FFF7A8FB294681462046FFF7BBFB824697
:10309000404605F017F9524649463846FFF760F9B1
:1030A00094F8463084F8416084F8403084F8465003
:1030B0007DE700BF9AB501088EB601083EB701084A
:1030C00094B6010808B5FFF707FBFFF759FFD0B525
:1030D0001F461646FFF77EFB03688468742B01D0F9
:1030E000FFF750F9C4E90067D0BDD0B504461646D5
:1030F0001F46FFF76FFB32463B4601462046BDE8C0
:10310000D040FFF78FBC0000836C10B5044623B994
:103110004FF41F710248FFF77BF8A06C10BD00BF91
:103120009AB50108FF23054A1370054A1370054A32
:103130001370054A1370054A13707047E0080020A9
:10314000DE080020DC080020DF080020DD08002069
:10315000014B1878704700BFDC08002010B504460A
:10316000006808F027F8204610BD00002DE9FF4850
:103170000BF048FB4FF6FF712E4A2F4C13888B4201
:103180001CBF01331380FFF7A7FAFFF7BDFF0368E9
:103190001B689847637806460F4603BB274BDB88BE
:1031A000EBB1274AD2E900BCBCF1004F08BFBBF12C
:1031B000000F0FD083457CEB010210DA214AB0EBFF
:1031C0000B0002FB03F261EB0C01D317904271EB91
:1031D000030304DB1C4805F075F80123637000232A
:1031E000ADF80C3063782BB101238DF80C30144B03
:1031F000C3E900672378154CBBB1012514488DF84D
:103200000D5005F05FF82570124B13481A78134BD8
:103210001978002300930068039B0BF035FC30B154
:103220000F4B187804B0BDE8F0882370ECE70D4B25
:10323000F7E700BF920900207409002080090020F0
:1032400050000020805101007BB801087D0900205A
:10325000A4B8010877090020700900207609002031
:10326000DC080020DE0800201D4B10B5DB882BB9E0
:103270001C4805F027F81C4B187810BD1B4BD3E9F0
:103280000023B3F1004F08BF002A01D01848F0E72F
:10329000184C23780133DBB2032B237001D9164875
:1032A000E7E7012B0BD90A21002005F07BF9134B2E
:1032B00058434FF47A73B0FBF3F008F0CFFB21785A
:1032C0000F4804F0FFFF00230E4A13700E4A1370DC
:1032D0000E4A13600E4A1370012353700D4BCBE757
:1032E00080090020B9B80108DC080020480000204F
:1032F000D5B80108A8090020EFB8010840420F0026
:1033000006B901087709002076090020700900201D
:1033100074090020DF08002008B500231A4607F0D2
:1033200039FC431E5842584108BD000007B50B78D0
:10333000012B12D005D3022B13D00C4804F0C2FF8E
:1033400008E0002302A941F8043D094B1B681868F6
:10335000FFF7E2FF03B05DF804FB02A94FF0FF3373
:10336000F1E7034B04311B68F1E700BF6CB90108BA
:10337000600900201FB57023CDE90131002301A9A8
:103380008DF80C30FFF7C2F905B05DF804FB0000C2
:103390002DE9F04F474B85B01A780446002A40F0DB
:1033A0008580012744491F70FFF710F9434B4449BA
:1033B00018702046FFF70AF9DFF854A141498AF84E
:1033C00000002046FFF702F9DFF848910A220023A7
:1033D00089F800003C4901A8FEF7ECFF01A920464E
:1033E000FFF790F8394E3A4930702046FFF7EEF873
:1033F000384B394918702046FFF7E8F8374B384901
:1034000018702046FFF7E2F8364B374A18703749F4
:103410002046FDF72BFBDFF800B1354A8BF80000A2
:1034200034492046FDF722FB334905462046FFF785
:10343000A1FF70230193314B804601A920460293DE
:103440008DF80C70FFF762F907462D4A2B4612786B
:103450009BF800102046FDF714FB43469AF8002025
:1034600029462046FDF70DFB3B4699F800202946EA
:103470002046FDF706FB2B46327841462046FDF7F5
:1034800000FB2B46327839462046FDF7FAFA1D4AF2
:103490002B46127829462046FDF7F3FA1A4B1B4AB1
:1034A0001B78127829462046FDF7EBFA05B0BDE8F7
:1034B000F08F00BFA9090020C2BA010878090020D6
:1034C000CCBA0108D7BA0108E3BA010859090020AB
:1034D000F0BA010890090020FCBA01089409002004
:1034E00009BB0108950900206D31000817BB0108D0
:1034F000E942000821BB010835BB010848BB0108AF
:10350000DC080020DF080020DD080020E0080020A3
:103510007C090020580900207A09002008B50BF02A
:103520004FF918B1BDE808400BF06CB908BD08B5FB
:103530000BF046F918B9BDE808400BF01DB908BDFD
:1035400030B5044685B00D46FFF722FF6D22064BCD
:1035500001A91B782046CDE901258DF80C30FFF735
:10356000D5F805B030BD00BF7A0900202DE9F84F2D
:10357000424B434D1A68044612F0010F01BFFF226F
:103580002A7001221A602B78FF2B73D1FFF700FFFE
:103590003C4A3D492046FDF769FA3C4A28703C49BF
:1035A0002046FDF763FA3B4F3B4A38703B492046C3
:1035B000FDF75CFA3A4E3B4930702046FFF7C0FFFA
:1035C000394982462046FFF7D5FE384983462046D2
:1035D000FFF7D0FE8146364A3B781278297820469C
:1035E000FDF74FFA334ADFF8E08033781278297814
:1035F0002046FDF746FA337898F8002039782046BF
:10360000FDF73FFA2B7898F8002031782046FDF737
:1036100038FA294A5B46127839782046FDF731FAA4
:1036200026493B780A7820465946FDF72AFA244A6B
:103630004B46127839782046FDF723FA1F493B782C
:103640000A7820464946FDF71CFA1A4A5346127872
:1036500031782046FDF715FA337898F80020514666
:103660002046FDF70EFA174A2B781278317820465B
:10367000FDF707FA2878BDE8F88F00BF540900204D
:10368000AB090020513D000858BC0108B5380008BE
:1036900062BC010879090020693200086CBC01088D
:1036A0007B09002076BC010882BC010890BC01089F
:1036B00078090020DF0800207C090020590900203B
:1036C000DE080020DC080020E008002038B50446B1
:1036D0000D46FFF75DFE034A29462046FDF7C6F971
:1036E00038BD00BF213B0008344B2DE9F04F1A894B
:1036F0000023044689B0CDE9002303910023002272
:103700002F4905A8FEF768FE05A92046FEF7FAFE38
:103710002C4982462046FFF72DFE2B498346204642
:10372000FFF7D4FF294A804629492046FDF79EF934
:10373000284A054628492046FDF798F90646274FAE
:10374000DFF8A8903B7899F8002029462046FDF73D
:1037500098F9234A5B46294620461278FDF791F9ED
:10376000204A4346294620461278FDF78AF9334617
:10377000524659462046FDF784F9334652464146A3
:103780002046FDF77EF9184A3B78414620461278DC
:10379000FDF777F93B7899F8002031462046FDF790
:1037A00070F96D230593039B05A9204606938DF8B8
:1037B0001C50FEF7ABFF09B0BDE8F08F8009002078
:1037C0009FBC0108ACBC0108BCBC0108713E0008EC
:1037D000CDBC010851310008DCBC0108DD08002027
:1037E000940900209509002091090020DC080020A0
:1037F0002DE9FF4790468A461E4A1F490446FDF7B9
:1038000035F91E4905462046FFF7B4FD1C4981469F
:103810002046FFF75BFF06461A4A4B4629462046DC
:103820001278FDF72EF9184A184F334629462046DC
:103830001278FDF726F93B78424649462046FDF7C7
:1038400020F93B78424631462046FDF71AF9104AE6
:103850003B78127831462046FDF713F96D2301A914
:103860002046CDE9013A8DF80C50FEF74FFF04B029
:10387000BDE8F087953E00082DBC010837BC010863
:1038800047BC01089409002095090020DD080020AC
:103890009109002070B50D460446FEF71DFF04494E
:1038A00022462B46BDE870400978FFF710BC00BFE8
:1038B00059090020F7B55E4C2668A6B9082010F01B
:1038C000F7FB05460660012032466860042107F0D8
:1038D00087F8286018B912215648FEF799FC564817
:1038E00025600AF0A5FF554D554F2968554801310F
:1038F000296004F0E7FC0AF085FF3B781BB901233F
:103900003B700AF0ABFF002302A941F8043D236895
:103910004D4A186807F0E2F9012807D04B4804F037
:10392000D1FC40F28D114A48FEF772FC019E731CD7
:1039300051D1484804F0C6FC2B68042B0FD90FF076
:103940007DFC03785BB1444804F0BCFC4FF47A7012
:1039500008F084F84FF4CC713D48FEF759FC002381
:103960003B702B681E22013BDBB21E2B28BF1E239F
:1039700002FA03F3394A934226D8B3F5616F1E4623
:103980004FF0000722D2B3F5167F77F1000320DA5B
:103990003C2E77F10003ACBF1E210A21002004F069
:1039A00001FE341847EBE0752946204604F020FC60
:1039B00001462B4804F086FC20462946FFF76AFFA3
:1039C000284B187803B0F0BD0027244E4FF4167131
:1039D000E4E73C21E2E74EB13146234804F072FCB3
:1039E00001980021FFF756FF204BEAE720482E60A0
:1039F00004F068FC0AF0C0FEFEF76EFEFFF784FBE1
:103A000003681B6898471B4BC3E9000123686BB12F
:103A100030460AF00DFF256835B1286807F0CAFB6B
:103A20000821284610F064FB00232360124BC8E7EE
:103A300060090020E7B601082D330008A409002022
:103A4000A009002063B70108A086010076B701082D
:103A500090B70108DCB70108F3B7010800A3020022
:103A600040B80108DE08002056B801087C09002093
:103A70006BB8010840000020E0080020054B1870DA
:103A8000054B1A700022054B1960054B1A705A70CD
:103A9000704700BF770900207609002070090020D8
:103AA00074090020027901684079FFF7E7BF08B583
:103AB0000AF0E2FFC0B2DE2828BFDE2008BD000009
:103AC0004FF47A7337B5002403FB00F2074802A9CC
:103AD000056841F8044DB2FBF3F2286807F0FEF8E0
:103AE000012814BF2046019803B030BD5C090020B6
:103AF0004FF47A7337B5002403FB00F2074802A99C
:103B0000056841F8044DB2FBF3F2286807F028FA83
:103B1000012814BF2046019803B030BD5C09002085
:103B20002DE9F04F8FB0FEF7D7FD4FF000090646A4
:103B300090F846B0FFF7F2FCDFF8C4A0DFF8C480CD
:103B4000B06C02AD036808AC1B6898475A46CDE9D3
:103B50000001314608A8FFF789F80FCC0FC5DDE951
:103B600008012368B1F1004F08BF00282B70DDE980
:103B70000A4516D11C4804F0A5FB002501271B4C63
:103B80004FF47A73A4FB030103FB0511FFF7B0FFA9
:103B900010B30122164B5A72164B18780FB0BDE8BD
:103BA000F08F04F00FFB29460746204604F020FB67
:103BB00039460246504604F085FBA04579EB0503E3
:103BC00008DA0021094804F013FB01460A4804F012
:103BD00079FBD2E70027D3E71FB1084804F072FB56
:103BE000AEE79DF81800D9E7F4B90108805101004B
:103BF00064090020910900202EBA010847BA010883
:103C00000CBA010885510100022818BF00200BF0F2
:103C1000E1B80000F8B53B4B05461E78002E6FD189
:103C200001271F700AF0C0FA374928460FF0AEF995
:103C3000C31F052B354C42D820710E23344928462A
:103C400063710FF0ACF93349074614F01BFF0028ED
:103C50003AD1E060304928460FF07EF92F49607074
:103C600028460FF093F9B0F57A7F3AD8E0802C49D6
:103C700028460FF08BF942F21073984236D8208113
:103C8000284928460FF068F92749A07028460FF008
:103C90007DF9B0F57A7F2ED26081244928460FF055
:103CA0005BF9E07036B1224804F00CFB7121214829
:103CB000FEF7AEFAE068BDE8F840FFF7A5BF1E4882
:103CC00004F000FB3E46B8E71C49384614F0DAFE23
:103CD00010B90223E360BDE7194804F0F3FA0126A6
:103CE000B8E7184804F0EEFA0126C0E7164804F0D9
:103CF000E9FA0126C4E7154804F0E4FA0126CCE706
:103D0000F8BD00BFAA0900205CBB010880090020A3
:103D100075BB010818BC010898BB01089CBB0108D1
:103D2000C3BB01085DE20108EBBB010815BC01083B
:103D30001ABC010890B701085FBB0108C2D3010893
:103D40007CBB0108A5BB0108CCBB0108F6BB010880
:103D500070B5234BC0B21B78984206D10FF06EFAB3
:103D60000FF026F91F4B187870BD1F4D0FF066FA43
:103D7000FFF750FF95F905000CF0E6FB0AF01EFF77
:103D800028790CF0AFFB0AF00DFF68780AF0ECFF21
:103D9000164B1A681C4612F0010213D10421144E6E
:103DA00008463260716006F01BFE306018B91221BF
:103DB0001048FEF72DFA01230F4A10490C482360E2
:103DC00012F02DFB0E4B1A680AB9094A1A600D4809
:103DD0000BF006F8EB780BB10B4BC4E70B4BC2E7CB
:103DE0007B090020E0080020800900205009002005
:103DF00098090020E7B60108000000205D310008A6
:103E00005C0900206D42000878090020DF080020CE
:103E1000034B93F83230022B0CBF02200020704776
:103E2000D800002008B5FFF7F3FF30B90AF0C8FC4E
:103E300018B9BDE808400AF09FBCFFF7E9FF022867
:103E400006D10AF0BDFC18B1BDE808400AF0DABCA2
:103E500008BD000008B5FFF7DBFF02280CBF024BCE
:103E6000024B187808BD00BF950900209409002076
:103E7000054B1B8913B9054B18787047044B5B7AC7
:103E8000002BF8D1FFF7E6BF80090020DC080020F6
:103E900064090020FFF7DEBF01232DE9F348394C08
:103EA000002000216372FFF723FE10B1364B187813
:103EB0001AE02368984718B9344B1B78002B3CD084
:103EC0000AF094FF012871F1000306460F460EDB4D
:103ED0002F4804F0F7F9FEF7FFFB32463B46217A04
:103EE000FFF7F5F8FFF7B6FF02B0BDE8F0882368EA
:103EF0009847054688B1274804F0E4F90023646830
:103F00000093ADF80430FFF7D2FD01466846A047A4
:103F10006846FFF7C7FD204BC9E71C4B1B7863B110
:103F20001E4804F0CFF91E4B1B88022B28D82A46C6
:103F300029462846FFF7A2FDEDE71A4D6B89EBB144
:103F4000EB78DBB1FEF7C8FBFFF7DEF803681B6810
:103F500098476B89144A154D5A43D5E90067861B6B
:103F600061EB0707D317B242BB4107DA104804F0F0
:103F7000A9F940F249310F48FEF74AF9002363726C
:103F80000D4B94E764090020910900209609002058
:103F90009AB90108ABB9010890090020BDB9010820
:103FA000920900208009002080510100400000207B
:103FB000D4B9010890B70108DC0800202DE9F04FC2
:103FC0000446444D87B0C5E90023019100230A222D
:103FD000414903A8FEF7EEF903A92046FEF792FA3D
:103FE0003E4A824628723E492046FCF73FFD3D4945
:103FF00005462046FFF7A4FA3B498DF8030020460A
:10400000FFF7B8F9394983462046FFF75FFB384987
:1040100080462046FFF768FB0746364A364EDFF8F3
:10402000EC902B46014612782046FCF72AFD3378A7
:1040300099F8002039462046FCF723FD337899F89B
:10404000002029462046FCF71CFD2A4A33782946E1
:1040500020461278FCF715FD284A9DF803302946C2
:1040600020461278FCF70DFD254A2B469DF80310DB
:1040700020461278FCF705FD224A5B462946204679
:104080001278FCF7FEFC2B46524659462046FCF7B8
:10409000F8FC1D4A4346294620461278FCF7F1FCFD
:1040A0002B46524641462046FCF7EBFC337899F804
:1040B000002041462046FCF7E4FC6D230393019B5E
:1040C00003A9204604938DF81470FEF71FFB07B078
:1040D000BDE8F08F64090020EBBC0108993E0008A0
:1040E000FBBC010809BD0108CCBA0108D7BA010818
:1040F00015BD0108DC080020DD0800209009002023
:10410000E008002094090020950900209109002072
:10411000F8B51D4600234171BDF818100446036030
:10412000C180174602B115B923712046F8BD074971
:1041300028460FF0D9FF064610B920712660F4E733
:104140002A46394613F0B7FD2571F7E70BF401084D
:1041500010B50446006808B10FF0C8FF204610BD36
:1041600070B5364E86B03268044622B940F2CB11A3
:104170003348FEF74DF8002C5DD00022314B1A80F9
:10418000D4E91C2313431FD02F4B1D6807F014FBE9
:1041900001462E48A847D4E91C0104F013F8226F09
:1041A00001462B4804F08EF8D4E91C2303A803F041
:1041B000A1FFD4E91C23274903A8C1E9002326490C
:1041C000C1E9002301F09EFCFEF786FAFEF79CFF92
:1041D00003681B689847214B214AC3E90001237AF1
:1041E000C3F3C0031370637F2BB3237F1BB31D493D
:1041F00008200FF06FFF054630B16289237F617F91
:104200000092A26EFFF784FF0395A5B100233068EA
:104210001A4603A9006806F007FC01280BD01248D3
:1042200004F050F8039C34B12046FFF791FF0821B9
:1042300020460FF05DFF06B070BD00BF5C09002096
:1042400090B7010892090020D80000205DBA01084B
:104250006ABA0108480000205000002040000020F9
:10426000960900200BF4010897BA010810B504461E
:10427000FFF776FF24B12046BDE810400CF0CEBC1D
:1042800010BD000038B542F210700AF0D7FA0446AB
:10429000124804F017F8ECB12578022D16D16068A9
:1042A0000021FFF7F7FAD4F89800FFF759FF237AB7
:1042B0002BB10B4804F006F800220A4B1A70204676
:1042C0000BF00AFA032D06D1284638BD032DEAD19A
:1042D0000020E5E70125FFF7A5FDF5E721B9010875
:1042E0003FB901087D090020002310B5144C84F863
:1042F00036300AF065FA08B10AF084FAFFF7C2FF17
:10430000032815D8DFE800F005020A080D4803F07D
:10431000D9FF0D4B187810BD0C4BFBE7FFF778FD6C
:10432000022809BF01230A4B84F83630094BF1E714
:10433000094840F2BA21FDF76BFF4FF0FF30EAE782
:10434000D800002052B90108E0080020DF08002052
:104350007C0900205809002090B70108FF230021A4
:104360000D4A13700D4A13700D4A13700D4A1370E5
:104370000D4A13700D4A13700D4A13700D4A1370D5
:104380000D4A13700D4A13700D4A13700D4AC2E99D
:1043900000111372704700BF7A09002079090020CC
:1043A0007B09002091090020900900209509002038
:1043B00094090020780900207C0900205809002079
:1043C000590900206409002010B50446D0F8B8024D
:1043D00010B101210FF08CFED4F8AC0210B1042111
:1043E0000FF086FED4F8A00210B104210FF080FE79
:1043F000204610BD7FB5002401A82146CDE9014427
:10440000039411F0C3FF051E06DA2946124803F093
:1044100059FF204604B070BD01A811F017FE0446F4
:1044200008B1C36943B929460C4803F04BFF28463D
:1044300011F082FF0024ECE7284611F07DFF0646CC
:104440000028E6D12946064803F03CFF204611F03B
:10445000A1FD3446DDE700BF5BBD010882BD010858
:10446000B8BD010870B506460024084D3046FFF778
:10447000C1FF50B90134E4B20F2CF7D911F0D6FCCA
:1044800034212846FDF7C4FEF0E770BDE3BD010806
:104490002DE9F043804640698DB003680C461B68E7
:1044A00098471C2206460F4605A8002113F027FC5A
:1044B000E3886079ADF8283009F0ECFB012E8DF827
:1044C0002D0077F100032079A8BF069603F096FF30
:1044D0000546A8B32279216813F0EDFB607909F055
:1044E000E1FB41288DF82E0005D042282BD0194839
:1044F00003F0E8FE21E02179284611F055FA044640
:104500000246294608F5287010F01CFE00B30DF194
:104510000C09002322462946484611F0BDFDCDE98D
:10452000006708F1180099E8060000F0D8FA0023A7
:1045300005AA2146284611F0CFFD284603F048FF82
:104540000DB0BDE8F0832179284611F081FAD6E755
:104550000148CDE720BD01083EBD010882B0F7B596
:10456000044600250F46164600211022099313F039
:10457000C6FB04F118031846294625744FF422722D
:10458000676113F0BCFB29464FF4207213F0B7FBB0
:104590002946C4F8985284F89C52282204F52870C1
:1045A0000E4D13F0ACFB04F532730DAA07CA83E875
:1045B00007002A781AB96F210948FDF729FE002360
:1045C0002B700C9B3046009309AB0ECB11F04AFCCC
:1045D000204603B0BDE8F04002B07047580000200C
:1045E000E3BD010882B070B5144C86B00E460AA92E
:1045F00081E80C0023680546DB0716D403AB0EAA3E
:1046000007CA83E807000BAB93E807000A9B8DE815
:104610000700324629460A48FFF7A0FF0123094A4E
:1046200009490748236011F0FAFE0548074B186056
:1046300006B0BDE8704002B0704700BFAC09002072
:10464000B809002000000020C9430008B00900207C
:1046500010B5044C22681AB97C210348FDF7D8FD37
:10466000206810BDB0090020E3BD01082DE9F04F1E
:1046700006468BB08A46FFF7EBFF337C06901BB9EA
:1046800085219A48FDF7C4FDD6E9015496F800B09B
:10469000D6F80C90BBF1000F06D02DB124B1944890
:1046A00003F010FE4FF0000B706903681B68984719
:1046B000BAF1020FCDE9040111D12B46EC17CDE977
:1046C00002348C4FDDE90234234313D139468A4842
:1046D00003F0F8FD002000210BB0BDE8F08FBAF127
:1046E000010F05D12246E317CDE90223834FE9E705
:1046F000834FEBE7069B504603F11808D6F8C83203
:1047000098478049D1E9002313438A4633D1404674
:1047100000F070FA404600F018FA7B4B1870002841
:1047200000F0CB804046079300F0EDF9BBF1000F9D
:1047300000F0C780079B1B78002B40F0C280DDE9AA
:10474000020103F055FDDDE9024524196D412946BA
:104750008246204603F04CFD5246034639466B48DC
:1047600003F0B0FDDDE9042312196B411D46144628
:10477000644BC3E90045022099FBF0F94B46DC1776
:10478000CDE90234706903681B6898475D4B0446A5
:10479000D3E9009A484571EB0A030D4674DAB9EB88
:1047A00004006AEB050103F023FD39460246584830
:1047B00003F088FDD6F8CC324FF47A7098478146E2
:1047C000C0B101460698FFF763FED9F8000003F078
:1047D000FFFD484603F0FCFDBBF1000F0AD0404648
:1047E00000F032FA484B1B7823B1012249481146A8
:1047F00003F068FD09AB0093DDE90223A21A65EB23
:104800000303404600F0BCF981468A4659EA0A0390
:1048100016D0099BA3B12946204603F0D3FC0146DC
:104820003D4803F04FFD5146484603F0CBFCA9EB51
:1048300004020146394803F045FD099800F0FEF8EE
:10484000BBF1000F9ED0304B1B78002B9AD159EA58
:104850000A0319D0DDE90223DDE90201B9EB020206
:104860006AEB030300196941904271EB030389DA93
:10487000B9EB04006AEB0501DDE90234C31A61EB10
:1048800004041846214627E7404600F0BCF9011E03
:1048900005DD234803F016FD404600F034F9D6F854
:1048A000D032984739461F4803F00CFD00221549C5
:1048B0001046C1E9002211460EE7BBF1000F7FF45C
:1048C0003EAFDDE9020103F093FC3946024616488B
:1048D00003F0F8FCDDE90445DDE9022312196B4120
:1048E00014461D46CAE9004545E700BFE3BD01087F
:1048F00030BE010827BE010879BE01082DBE01089F
:1049000003F70108980C0020900C0020B2BE0108AB
:104910003EBF01086ABF010891BF0108A0BF01089E
:10492000BCBF0108EEBF010802BF010837B503464E
:1049300068460024002580E806000021C3E9004500
:10494000C3E9044503F11804197203C884E805009B
:10495000184603B030BD00002DE9D848D0E904BCAA
:104960001F465BEA0C03044616460DD0D0E900232F
:10497000134309D1B6EB0B0067EB0C01C4E900014E
:104980000146044803F09EFC0123C4E90467237236
:10499000BDE8D88810C0010810B504460EF04EFCE2
:1049A00004490EF0F3FA002801DDC11710BDD4E967
:1049B0000001FBE7CBAA01082DE9F843994604461C
:1049C0009046FFF7E9FF06460F4656EA070323D055
:1049D00004F11005D5E9004554EA050318D0B8EBF9
:1049E000040069EB0501002871F1000310DB3B4670
:1049F000324612F053FE10F1010808FB07F341F1B3
:104A0000000906FB0933A8FB0601194424184D418F
:104A100020462946BDE8F88304460D46F8E708B568
:104A2000D0E90423134307D0FFF7B6FF50EA010390
:104A300014BF0120002008BD0020FCE773B5044628
:104A4000856900F11001D1E9000103F0BBFB0646C6
:104A50002046FFF7A1FF237A3246009329460346FA
:104A6000024803F02FFC02B070BD00BF27C0010850
:104A7000F0B58BB06C460646034684E806009DF808
:104A8000042000F52075AB42184607D01F7F9742DF
:104A900002D19F698F4209D02033F4E7D6F88032E3
:104AA000132B05D90123002086F884320BB0F0BD0A
:104AB00094E8060002A8FFF739FFD6F880C202ACDE
:104AC00006EB4C173D460FCC0FC594E80F0085E868
:104AD0000F000CF10103C6F880323846E6E737B51F
:104AE000DDE906456B4683E8060093E80600FFF71C
:104AF000BFFF30B122462B4603B0BDE83040FFF780
:104B00002BBF03B030BD2DE9F043074606464FF0FA
:104B1000000889B000F52079B14510D034466D46C3
:104B200018220021684613F0EAF80FCD0FC4CDE932
:104B30000688203695E80F0084E80F00ECE7002394
:104B400087F8843209B0BDE8F08338B5D0F88032F8
:104B500093B1044600F52075A5420FD0A3690BB9A7
:104B60002034F9E7D4E90423134305D02046FFF7A6
:104B700013FF50EA0103F3D1012038BD0020FCE708
:104B80002DE9F04799460023089D90462B6090F848
:104B900084324BB11421164803F094FB46464F462D
:104BA00030463946BDE8F08704460026002700F568
:104BB000207A5445F4D0A369ABB1237A9BB94B4614
:104BC00042462046FFF7F8FE50EA01030DD056EAB0
:104BD000070303D0B04271EB070304DA2B6803B17B
:104BE0002C6006460F462034E3E706460F46D7E71B
:104BF00056C00108002300F52072824202D00372E1
:104C00002030FAE7704700F52072034600209A42F0
:104C100006D0996911B1197A01B901302033F6E74C
:104C2000704770B50446002500F52076B44208D0E0
:104C3000A36923B12046FFF7F2FE00B1013520340D
:104C4000F4E7284670BD000073B50446144803F02D
:104C500039FB144803F036FB2046FFF776FF064683
:104C60002046FFF7D0FFD4F88022151A2046FFF720
:104C7000D8FFD4F880322A460093314603460A48CA
:104C800003F020FB04F52075AC4206D0A36913B1F4
:104C90002046FFF7D3FE2034F6E702B070BD00BF18
:104CA00083C00108D5B1010894C00108002103E0C8
:104CB0000A4B5B584350043109480A4B42189A4248
:104CC000F6D3094A02E0002342F8043B074B9A421C
:104CD000F9D300F00DF8FCF797F9704740F9010897
:104CE00000000020780400207804002050550020A7
:104CF000314B82B01A6842F480721A6099682F4A68
:104D00000A409A601A6822F0885222F001121A6052
:104D10001A6822F480221A609A6822F47D029A604E
:104D20000022DA6001921B6813F4007318BF01239C
:104D30000193019B012B37D14FF48051204B1A680E
:104D4000A3F5806322F00102C3F80024D3F8002405
:104D500022F00202C3F80024D3F8002422F0040257
:104D6000C3F800245A6A42F080525A62154A116010
:104D70005168C906FCD49A689A609A689A609A68E1
:104D80009A605A6822F460425A605A6842F440427B
:104D90005A609A6822F003029A609A689A60064AFA
:104DA000936813F00C0FFBD14FF00062064B9A6032
:104DB000064ADA6002B07047003802400CC0FF8833
:104DC000003C02400070004000ED00E00003FA05E6
:104DD00070B5064688B02E4801F046FB2D4B1A6888
:104DE0000092009A91073CD501214FF4007001F028
:104DF00095FD012001F088FB274A536843F40033F6
:104E00005360A2F5374253681B07FCD500240125E7
:104E100002A801F063FB02A91D488DF80D4006941D
:104E20008DF81C508DF80C4001F032FB2A46062309
:104E30003146174801F074FB2946154801F05AFB2A
:104E40000221134801F0FEFB114801F0EDFB134D68
:104E500001940F4C0221204601F0EEFB58B108B03E
:104E600070BD1A6842F001021A60009A9207BBD422
:104E70001A680092F9E7019B01330193019BB3F596
:104E8000805FE7DB38212846FDF7C2F9E2E700BF83
:104E9000002401400038024000270140C8C001083A
:104EA00008B5002001F030FB0021074801F022FB8B
:104EB00000214FF4007001F031FD044A136823F023
:104EC0000103136008BD00BF002401400038024008
:104ED00013B5072301220146114801F021FB0221ED
:104EE0000F4801F0AFFB0E4801F09EFB00230D4C74
:104EF000019302210A4801F09FFB28B1084802B043
:104F0000BDE8104001F095BB019B01330193019B6B
:104F1000B3F5805FEDDB4C212046FDF779F9E8E73A
:104F200000240140C8C0010870B506460825FFF7F7
:104F30004FFF00243046FFF7CBFF013D0444F9D179
:104F4000FFF7AEFFC4F3CF0070BD0000000000000B
:104F500008B51120FFF7E8FF12F03CF901460848B8
:104F600012F044FA11F01EFD03A3D3E9002311F05F
:104F700071FD12F029F808BD2FDD24068195F33F5D
:104F800000F07F450F4A536A43F0805353620E4B43
:104F90001A465968C906FCD41B68022823F4C0537A
:104FA00006D143F4C05313605368DB06FCD470474A
:104FB000012802D143F48053F5E70028F3D143F4EC
:104FC0000063F0E7003802400070004010B50C4B61
:104FD0005A68D206FCD41C6814F4C05F0BD114F4D8
:104FE00080500AD114F4006404D106482A21FDF748
:104FF0000FF9204610BD0220FCE70120FAE700BFB0
:10500000007000400EC1010838B50546012001F0CE
:1050100029FB022D01BF144A136843F001031360FA
:10502000124B1A6842F480721A601A689205FCD515
:105030005A6822F4604242F440425A6000229A6068
:105040000A4B9C6814F00C04FBD14FF480721A6078
:10505000074B084A28461A60FFF794FF2046BDE830
:10506000384001F0F3BA00BF003C02400038024073
:105070005C000020D0FE3F000C4B5A6B900513D40F
:105080005A6A42F080525A62094A116841F48071AA
:105090001160596B41F480715963596B8905FCD5D6
:1050A000136823F480731360704700BF0038024018
:1050B00000700040054B5A6B910706D45A6B42F0C2
:1050C00001025A635A6B9207FCD5704700380240C0
:1050D000094B5A6A42F020025A629A6942F0200251
:1050E0009A619A6922F020029A610022A3F509339D
:1050F0001A801A855A62704700380240152102381A
:10510000002248430121064B1A85D86299825A62CF
:105110001A8219801A8AD207FCD500221A80704799
:1051200000140040002349F6FE7282B00193019BF7
:10513000934201DD02B07047019B01330193F6E712
:10514000002340F6FE7282B00193019B934201DD81
:1051500002B07047019B01330193F6E7002382B050
:105160000193019BB3F5CC7F01DD02B07047019B39
:105170000133F5E7D0B1012801D1FFF7EFBF0C4BA8
:1051800000211A684FF47A73B2FBF3F2094B013A2B
:1051900092B21A8501220138D8629A825962198224
:1051A0001A801A8AD207FCD500221A80704700BFE5
:1051B0005C0000200014004000F1774303F5780301
:1051C000B3F5804F2DE9F04106460C4617462DD227
:1051D00002F1F73303F608030344B3F5804F25D2F9
:1051E000FFF7F4FE804610B10020FFF7CBFE01F080
:1051F00051FA01252744361BA7420AD101F05AFA79
:10520000B8F1000F02D04046FFF7BCFE2846BDE8CB
:10521000F08141F6027001F055FA301914F8011BC3
:1052200001F0ACFA042818BF0025E5E70025EDE7FA
:1052300010B50C4600F1774101F57801B1F5804FCA
:105240000DD202F1F73303F608030344B3F5804FA0
:1052500005D20146204612F02EFD012010BD00208F
:10526000FCE7000008B5114B984215D003F58063A8
:10527000984213D003F58063984211D003F5806300
:1052800098420FD003F5006398420DD0084B094AAD
:105290001421094812F0BCFB002008BD0120FCE7E6
:1052A0000220FAE70320F8E70520F6E700000240B5
:1052B0009DC1010857C10108B6C101080F2808B5F2
:1052C00005D9094B094A3B21094812F0A1FB0123EA
:1052D00003FA00F0C043074A516801405160136867
:1052E0001840106008BD00BFFFC1010861C101087E
:1052F000B6C10108000401400F292DE9F84F82468C
:105300000D4693461F4605D95A4B5B4A54215B48CC
:1053100012F07EFB4FF0010909FA05F900F0B8F828
:105320006FEA0903564E032D7268564C02EA0302D7
:105330007260326803EA0203534A3360136A43F02F
:10534000010313622ED80F22A3684FEA850802FAE0
:1053500008F223EA0203A3605046FFF783FFA36825
:1053600000FA08F01843A0601BF0020F18BFB368E2
:10537000464A1CBF43EA0903B3601BF0040F1EBF7B
:10538000F36843EA0903F360336843EA09033360CF
:105390003B01DBB2002D45D182F806334023136078
:1053A000BDE8F88F072D13D80F22A5F10408E36894
:1053B0004FEA880802FA08F223EA0203E360504643
:1053C000FFF750FFE36800FA08F01843E060CBE70E
:1053D0000B2D13D80F22A5F1080823694FEA88087E
:1053E00002FA08F223EA020323615046FFF73AFF6C
:1053F000236900FA08F018432061B5E70F22A5F1F0
:105400000C0863694FEA880802FA08F223EA0203EB
:1054100063615046FFF726FF636900FA08F01843FE
:105420006061A1E7012D03D182F807338023B6E73D
:10543000022D04D182F808334FF48073AFE7032DB7
:1054400004D182F809334FF40073A8E7042D04D186
:1054500082F80A334FF48063A1E7092D04D882F85B
:1054600017334FF400039AE782F828334FF4807320
:10547000536095E70BC201087CC10108B6C1010861
:1054800000040140000001400038024000E100E05B
:10549000144B984205D1144AD36943F00103D361F8
:1054A0007047124B984204D10F4AD36943F002036C
:1054B000F5E70F4B984204D10B4AD36943F004033C
:1054C000EDE70C4B984204D1074AD36943F0080337
:1054D000E5E7094B9842E3D1034AD36943F020033F
:1054E000DDE700BF00000240003802400004024037
:1054F00000080240000C024000140240032349004F
:1055000010B584688B4024EA030484600124022AD5
:1055100004FA01F407D0032A0DD0012A07D18368C9
:105520002343836003E083688A401A438260836870
:105530001C43846010BD82681343F2E70F29F8B55D
:1055400004460F4615461E4603D940211948FCF76C
:105550005FFE2046FFF79CFF03237A009340DB4366
:105560002168194021600121D4F800C001FA02F03D
:105570004CEA000CB940C4F800C009B266B1A68874
:10558000314389B2A180E168012D03EA0103E360A0
:1055900006D0022D08D0F8BDA68826EA0101F1E761
:1055A000E3680343E360F6E7E36805FA02F21A43AF
:1055B000E260F0E75BC201080F2970B505460C46B2
:1055C000164603D960210E48FCF722FE2846FFF755
:1055D0005FFF032361008B40DB43EA68012E02EA90
:1055E0000302EA6005D0022E03D02A6813402B6024
:1055F00070BDEA6806FA01F11143E960F5E700BF02
:105600005BC201080F2910B505D9074B074A76215F
:10561000074812F0FDF9FFF73BFF4B00032102683A
:1056200099401143016010BDFFC1010817C2010874
:105630005BC201080F2938B50446154605D97C21FF
:105640001B4B1C4A1C4812F0E3F90F2A03D91B4BD1
:10565000184A7D21F6E7FFF71BFF07294FF00F03DC
:1056600018D8006A8A00934020EA03032362236A61
:1056700005FA02F21A4322620322236849008A4093
:1056800023EA020323600223226803FA01F1114393
:10569000216038BDA1F10802406A9200934020EADF
:1056A00003036362636A95401D436562E4E700BFDC
:1056B000FFC101082AC201085BC2010848C20108F3
:1056C000012303FA01F189B201837047012303FA30
:1056D00001F189B241837047012303FA01F189B2D4
:1056E0000AB10183704741837047008A084100F086
:1056F000010070470F2938B505460C4603D9A9218A
:105700000548FCF785FD28686400E04000F00300D0
:10571000431E5842584138BD5BC20108808A084187
:10572000C04300F00100704710B5084C23681BB956
:10573000012005F01DFA206023682BB9BDE8104058
:1057400036210348FCF764BD10BD00BFA00C00204B
:10575000A2C2010810B50B4C22681AB93C210A48B4
:10576000FCF756FD206842F2107105F049FB012854
:105770000CBF0124002403D040210348FCF748FD5E
:10578000204610BDA00C0020A2C2010810B5074C95
:1057900022681AB94D210648FCF73AFD002320681B
:1057A0001A46BDE81040194605F03EB9A00C00208D
:1057B000A2C2010810B50446FFF7B6FFFFF7CAFF03
:1057C00021461022034801F04BFD0446FFF7DEFF9F
:1057D000204610BD0054004010B5FFF7A5FFFFF7AD
:1057E000B9FF01F0F5FC0446FFF7D0FF204610BDDD
:1057F00008B513460A460146034801F067F9003030
:1058000018BF012008BD00BF0054004008B5134672
:105810000A460146034801F05FFA003018BF012034
:1058200008BD00BF0054004008B513460A460146B3
:10583000034801F0E3FA003018BF012008BD00BFA3
:105840000054004008B513460A460146034801F0DB
:1058500065FB003018BF012008BD00BF00540040A8
:1058600008B513460A460146034801F0AFFB003075
:1058700018BF012008BD00BF005400400123064AA4
:1058800083405169194205D05361044B53F82030CD
:1058900003B11847704700BF00040140A40C00206A
:1058A0000F2838B504460D4603D926210348FCF7D6
:1058B000AFFC034B43F8245038BD00BFE8C20108D9
:1058C000A40C00200020FFF7D9BF0120FFF7D6BFAE
:1058D0000220FFF7D3BF0320FFF7D0BF0420FFF75C
:1058E000CDBF08B50920FFF7C9FF0820FFF7C6FFA5
:1058F0000720FFF7C3FF0620FFF7C0FFBDE8084001
:105900000520FFF7BBBF08B50F20FFF7B7FF0E203C
:10591000FFF7B4FF0D20FFF7B1FF0C20FFF7AEFF3C
:105920000B20FFF7ABFFBDE808400A20FFF7A6BF3A
:10593000FEE7FEE7FEE7FEE7FEE7FEE7FEE7FEE73F
:10594000FEE7FEE7FEE7FEE7FEE7FEE7FEE7FEE72F
:10595000FEE7FEE7FEE7FEE7FEE7FEE7FEE7FEE71F
:10596000FEE7FEE7FEE7FEE7FEE7FEE7FEE7FEE70F
:10597000FEE7FEE7FEE7FEE7FEE7FEE7FEE7FEE7FF
:105980000A23B0FBF3F203FB120040EA0210C0B29C
:1059900070470000CA22024B5A6253225A62704773
:1059A00000280040014B1860704700BFE40C002045
:1059B0004FF400320F4B10B50F4C5A61E368DB0512
:1059C00003D430210D48FCF723FCFFF7E3FF4FF42D
:1059D0000072A36823F48853A360094BC3F88420A2
:1059E000FF236362074B1B6813B1BDE810401847E3
:1059F00010BD00BF00040140002800402EC3010874
:105A000000E100E0E40C00202DE9F04F9846374B10
:105A100085B01B78824691469DF838709DF83C60B1
:105A20002BB9334B334A8C21334811F0F1FF431E1D
:105A30001E2B59D80C2957D8A2F5FA63632B53D8DB
:105A4000B8F1170F50D83B2F4ED83B2E4CD802F14F
:105A50003000C0B2FFF794FF83460846FFF790FF7F
:105A600004465046FFF78CFF40F400554046FFF7D0
:105A700087FF45EA0B4545EA042504463846FFF70B
:105A80007FFF000240EA04443046FFF779FF2043DD
:105A90001A4CFFF77FFFE36843F08003E360E3689D
:105AA0005B06FCD565602060E36823F08003E3605B
:105AB000124BDA689206FCD5FF2204A85A6200F85D
:105AC0000C6D8DF807A08DF80810ADF809908DF8D1
:105AD00006808DF8057002F032FB094BC3E9000126
