:020000040800F2
:100000000080002065380008DD4400084138000801
:10001000DF440008E1440008E34400080000000059
:10002000000000000000000000000000318F000808
:10003000E544000800000000C18F0008059000089A
:10004000E7440008E9440008EB440008ED440008D8
:10005000EF440008F14400087144000877440008A8
:100060007D4400088344000889440008F3440008E4
:10007000F5440008F7440008F9440008FB44000870
:10008000FD440008FF44000801450008034500083E
:100090000545000807450008094500088F44000889
:1000A0000B4500080D4500080F45000811450008E4
:1000B00013450008154500081745000819450008B4
:1000C0001B4500081D4500081F4500082145000884
:1000D00023450008B14B00087D4D00082545000868
:1000E000B34400085D45000827450008294500087D
:1000F0002B45000800000000000000000000000088
:1001000000000000000000005FF808F110B5054C89
:10011000237833B9044B13B10448AFF300800123B3
:10012000237010BD700200200000000050BA0108CA
:1001300008B5034B1BB103490348AFF3008008BD6A
:10014000000000007402002050BA010808B50348FE
:1001500006F0B6FDBDE8084004F040BE796601082F
:1001600004F03CBE70B515460022C0E901150270CE
:10017000C0E90332C0E90522C0E907224262DDE995
:100180000412044600F11C060FF000FF38B929469E
:10019000074806F095FD2B21064803F0D5FADDE966
:1001A0000423314620460FF0DEFE204670BD00BF1E
:1001B00097660108C266010810B50446C06910B10F
:1001C000012111F0A7F9206910B1012111F0A2F964
:1001D000204610BD2DE9F04100259DF81860C0E9CA
:1001E00001120570C0E90335C0E90555C0E907559E
:1001F000456231460446174600F11C080FF018FD11
:1002000038B93946074806F05BFD2021064803F05F
:100210009BFA3246414620460FF0F8FC2046BDE8E6
:10022000F08100BF97660108C2660108F8B5002595
:10023000C0E901120570C0E90335C0E90555C0E900
:100240000755456206990446164600F11C070FF053
:10025000DFFD38B93146074806F032FD2021064857
:1002600003F072FA069A394620460FF0BAFD20468E
:10027000F8BD00BF97660108C26601082DE9F0418C
:100280008B4B9EB0D3E9001214331B6881EA020441
:100290005C400EAE0094874806F012FD21463046C1
:1002A0000BF058FE00F0D8FD0246334652F8300FEE
:1002B000012751684FF0080803C310F0B9FA05464A
:1002C00004AC7D4B7D4A394600972046FFF782FFFC
:1002D0002146284610F058FB2046FFF76DFFCDE978
:1002E00000681026764B04211A462046FFF73AFF95
:1002F0002146284610F048FB2046FFF75DFF14AB6F
:100300000093704B04211A46CDF804802046FFF775
:1003100029FF2146284610F037FB2046FFF74CFF07
:1003200010AB0093684B01961A4604212046FFF754
:1003300019FF2146284610F027FB2046FFF73CFF17
:1003400016AB624A019600930421614B2046FFF7E9
:1003500009FF2146284610F017FB2046FFF72CFF27
:100360001AAB5C4A019600930421594B2046FFF7D3
:10037000F9FE2146284610F007FB2046FFF71CFF38
:1003800004210FAB544A019100932046504BFFF7D4
:10039000E9FE2146284610F0F7FA2046FFF70CFF49
:1003A0000B234E4A009302214D4B2046FFF73EFFA0
:1003B0002146284610F0E8FA2046FFF7FDFE0E23FE
:1003C0000026484A00930221474B2046FFF72EFFA4
:1003D0002146284610F0D8FA2046FFF7EDFE434BA1
:1003E000434A394600962046FFF7F4FE2146284648
:1003F00010F0CAFA2046FFF7DFFE03233D4F0593B6
:100400003D4B3E4920468DF810600697CDE90736F2
:10041000CDE90966CDE90B660D960FF09FFD38B961
:100420003946374806F04CFC2021364803F08CF959
:10043000324A0BA920460FF061FD2146284610F0F4
:10044000A3FA2046FFF7B8FE00232F4A00930121AC
:100450002E4B2046FFF7BEFE2146284610F094FAA8
:100460002046FFF7A9FE0121294B2A4A0091204688
:10047000FFF7B0FE2146284610F086FA2046FFF727
:100480009BFE2846244B254A254910F045F9254B6B
:100490000493254B0593254B0693254B009394E835
:1004A0000700052310F01EFC1EB0BDE8F08100BF60
:1004B0005000F81F9C640108BF640108D264010861
:1004C000D7640108DE640108E5640108EC640108F2
:1004D000CE640108F4640108FC6401082B6501087E
:1004E00003650108576501082E6501085F6501086D
:1004F00088650108916501089D650108D6650108B8
:1005000097660108C26601080F660108E5650108E3
:100510002066010842660108610100084F66010873
:1005200073660108E13D0008693D00084D010008BF
:100530000000080808B500F081FB00F099FB00F00E
:100540004FFB014B187808BDB804002008B500F037
:1005500083FCBDE8084000F0B5BC07B58DF8041079
:1005600001A98DF805208DF8063001F06BFD03B070
:100570005DF804FB2DE9F04F85B0FFF77FFEFA2010
:1005800009F0F0FF10F06EF90FF05AFD5C4806F02C
:1005900097FB10F067F95B4E054633685A4C13F031
:1005A000010F04D101F068FC01232060336026684C
:1005B00000F052FC00F12801304601F021FB5349C4
:1005C000206801F01FFB5249284626680FF0EDFF16
:1005D0005049024601A801F0FDFA01A9304601F098
:1005E00053FB61274C4B01A902934C4B8346206877
:1005F0000197039301F05AFC494A4A4B02924A4A36
:10060000187001A920680197039201F04FFC474A36
:10061000474E0292474A307001A920680197039221
:1006200001F044FC70220192434A444F029200229E
:1006300001A9387020688DF80C2001F037FCDFF834
:10064000148188F80000206802F092FC3C49824640
:10065000206802F093FB3B49814628460FF082FF59
:10066000304B394D1978F0B120682A7880F828107D
:100670003378FFF772FF31782A780B462068FFF74E
:100680006CFF206801F0FEFE304806F019FB0122E5
:100690004FF4FA71206801F063FE002009F0DCFCE1
:1006A00005B0BDE8F08F2068534680F828102A78FE
:1006B000FFF753FF33782A7851462068FFF74DFF44
:1006C0003B782A7831782068FFF747FF204A4B466D
:1006D000127839782068FFF740FF3B782A7849463E
:1006E0002068FFF73AFF98F800302A7839782068B8
:1006F000FFF733FF33785A4698F80010BEE700BF83
:10070000B56701088C020020D40200204D050008C6
:1007100091650108D26701081E79010835050008B6
:10072000DE670108D802002061080008E3670108BD
:10073000D90200209909000887780108DB0200200F
:10074000EA67010888650108B8040020F36701081A
:10075000B7040020DA0200202DE9F04F85B01F46D3
:10076000904606460D4610F07DF804463A4641464E
:10077000684610F053FE374B6846197810F078FE43
:10078000354920460FF0EEFE814600F065FB3478D7
:1007900000F1110A0CBB05F101082B78A3421CDD06
:1007A0004046514600F0A8F94FEAC40B08F108088A
:1007B00068B3B9F1000F06D00BF1020106222944FB
:1007C000684610F037FE05EB4404B4F902116846A0
:1007D00010F05DFE337801333370B9F1000F0CBFB8
:1007E000022308233478FF1A2B78A34209D96846DC
:1007F00010F04BFEB8420CD329781848091B06F0BC
:100800005FFA684610F041FE05B0BDE8F08F013494
:10081000C3E74FEAC40808F101005146284400F03C
:100820006BF998B9B9F1000F06D008F10201062260
:100830002944684610F0FEFD05EB4403B3F90211AC
:10084000684610F024FE3378013333700134E4B28B
:10085000CAE700BF2204002042660108946701082D
:1008600070B52D4BC0B21B788EB0984203D100F00A
:10087000E5F900F0FDF903F087FF284BC3E900011B
:1008800000F0AEF900F0E8FA04460FF0EBFF24495F
:100890000FF068FE20B904F11101224811F04CF963
:1008A00000F032F900F082F9E36904F11C051B68DD
:1008B000284600219847012203211B4803F054FCDD
:1008C000E36928465B6800219847022216481146D2
:1008D00003F04AFC00230124124D144E8DF803301E
:1008E0002B789DF80320934211D9214601323046DE
:1008F00006F0E6F9322301AA29460DF10300FFF7BD
:100900002BFF014601A806F041FA0134E8E7084B45
:1009100018780EB070BD00BFDA0200201000002071
:100920000F660108E002002000000240FB6601089B
:10093000B80400201FB50A221449684610F06EFD65
:100940000021684610F094FD0321684610F090FDE8
:100950000021684610F08CFD0D4B6846B3F900107D
:1009600010F095FD0B4B6846198810F09CFD684609
:1009700010F089FD0446684610F087FD2146C2B29A
:10098000012002F01FFC04B010BD00BFC702002010
:10099000DC020020DE0200202DE9F843254BC0B226
:1009A0001B78254D984204D1244806F089F900238C
:1009B0002B7023492C78D1E90023B3F1004F08BFF5
:1009C000002A8946DFF89C8009D0D8E900108E1AE9
:1009D00060EB030700231B4AB242BB410DDA2146FC
:1009E000194806F06DF9D8E90023C9E90023FFF79B
:1009F000A1FF164B1878BDE8F883154E3378A34253
:100A000012D931463223134A0B48FFF7A5FE074699
:100A10002A78611C3378104806F052F9FAB20D4971
:100A2000022002F0CFFBE4E721460C4806F048F92B
:100A30000B4BDFE7D9020020C60200202B6701081C
:100A4000080000200851010046670108B704002093
:100A5000E00200209402002058670108776701082F
:100A6000B80400201000002037B500F0F5F901258A
:100A7000044603689B689847114B4FF496720193A4
:100A8000104900230095104809F0F8F92368294619
:100A9000DB68204698474FF4FA7003F043F9236867
:100AA0000021DB6820469847084806F009F9084805
:100AB00006F006F9C82003F035F909F0B9FBFEE7A6
:100AC000900200200D6801087505000816680108ED
:100AD00029680108FF23044A1370044A1370044A6A
:100AE0001370044A13707047D8020020DB02002004
:100AF000D9020020DA02002008B5082212F05CFFBB
:100B0000B0FA80F0400908BD38B5064C25683DB9FB
:100B1000042010F0F1FC40F6E443057043802060AF
:100B2000206838BD240400200378F7B504466BBB69
:100B300002F0E6FF194912F067FA12F051FC85B293
:100B4000284612F00DFA154912F012FB11F0ECFDD7
:100B5000064660880F4612F003FA104912F008FBAF
:100B600011F0E2FD3B46CDE9000132460C4806F0AB
:100B7000A7F86388AB420BD90A4806F0A1F800F049
:100B80006BF9012100F08AF90123237003B0F0BD55
:100B9000054803B0BDE8F04006F092B800007A4482
:100BA000C6680108FC68010815690108037810B5DA
:100BB00004464BB1054806F083F800F04DF90021DA
:100BC00000F06CF90023237010BD00BF2D690108EF
:100BD00008B5FFF799FFBDE80840FFF7E7BF000041
:100BE000002310B5124C2370FFF78EFFFFF79CFF18
:100BF00000F032F9C36901215B681C3098470D4849
:100C000010F0DAFE0B4810F029FF0A4810F0A4FE9D
:100C100050B1084810F0C2FF064810F0F5FF01235C
:100C20002370FFF7D5FF10BD034806F049F8F8E739
:100C300022040020E00200209D68010810B5FFF7A3
:100C4000C7FF02F05DFF074912F0DEF912F0C8FBA2
:100C500084B22146044806F033F8044B20461C8039
:100C600010BD00BF00007A4482680108DE02002047
:100C700010B500F0F1F8C36900215B681C3098479B
:100C8000FFF742FFFFF750FF10F02CFE0446FFF77E
:100C90009FFF2146034806F013F8034B20461C80B3
:100CA00010BD00BF5A680108DC0200207047000038
:100CB00038B50A4C05460121204603F0D9FA002335
:100CC00020461A46012103F011FA85F00102204660
:100CD000BDE83840012103F0D7BA00BF0000024050
:100CE00008B50120FFF7E4FFBDE80840032004F049
:100CF00085B80846FFF7DCBF10B504463C2110F06C
:100D000009FC204610BD084603F00CB8024B012137
:100D1000186803681B68184750040020021C18BF9D
:100D200001220321014803F0AFBA00BF00040240D2
:100D30000321014803F0B1BA0004024010B5094C88
:100D4000094805F0BDFF20460B2103F091FA00236E
:100D500020461A460B2103F0C9F9BDE8104002F005
:100D6000C7BF00BF00000240C06C010808B50220E8
:100D700002F022FF02F084FF00F084FB02F0AAFFE1
:100D800000F064FD03F00AFD0A4802F0A3FC4FF4F2
:100D9000E13003F0E7FF084B1A680AB9074A1A6006
:100DA000074B1A680AB9054A1A600648BDE80840A8
:100DB00005F086BFE10C000888070020194C0008E8
:100DC0008C070020AF69010810B5044611F0CCF97A
:100DD00022460D4B0D4842F8113B0023C4F8113058
:100DE00053600B4A84F82430E2610A4AC4E90C33A8
:100DF0002262094A84F83830A262084AE26205F0A9
:100E00005FFF204610BD00BF146D0108F46C01089F
:100E1000FC6D01084C6E01087C6E0108686E0108CB
:100E200010B5094CFFF7A2FF2368DB0709D4074878
:100E3000FFF7CAFF0123064A06490448236011F060
:100E4000BAF9024810BD00BF2C0400205404002051
:100E500000000020AD0C000838B5064D064C2B688C
:100E600013F0010F04D1FFF7DBFF012320602B609B
:100E7000206838BD300400209004002008B50B2104
:100E8000054803F00FFA28B1BDE808400B210248DD
:100E900003F01CBA08BD00BF0000024008B519B13C
:100EA000BDE80840FFF74ABF044805F009FFBDE868
:100EB000084002220B21024803F056B9DC6C0108FD
:100EC0000000024038B504462A4804F11C0505F02C
:100ED000F7FE2846002100F0E1FC0021284600F042
:100EE000F3FC204611F04AF90BF078F92046002176
:100EF000FFF7D4FF0AF01EFB01220C211E4803F06D
:100F000033F903F063FD23682046DB68002198472E
:100F10001A4D002104F12C0000F05CFD03F032FAC0
:100F2000174805F0CDFE03F015FE02F0D3FE28466B
:100F300001220D2103F018F9012228460E2103F0A9
:100F400013F90021084603F0FFFC04F1200000F033
:100F5000D1FC4FF4E13003F005FF0A4805F0B0FE84
:100F60000AF00EFA03F030FD2046BDE8384011F0DB
:100F700012B900BF8E6C010800040240000002405C
:100F8000B26C01088A97010838B50546FFF776FF6D
:100F9000044628B100212846FFF780FF02F0A8FE92
:100FA00002F0AEFD05460CB1FFF7C8FE284638BD7D
:100FB00070B50C4606461549204612F0E1F920B9F5
:100FC0000021204612F0BEF970B11149204612F0FE
:100FD0001BF812F0DFF901460E4805F071FE40F2F1
:100FE00063110D4802F0B0FB3046FFF747FF05469E
:100FF00048B93046FFF7C8FF0146204612F0C0F955
:1010000008B1FFF79BFE284670BD00BF3333534045
:1010100000007A44C5690108F469010870B52F4AD7
:10102000D6B013680546DB0705D42D4900F12C0323
:101030000B60012313602B492846FFF7B9FF0646D2
:10104000294805F03DFE002105F11C0000F03CFCA4
:10105000264C274BE360274B2361274BA360274B8C
:101060006360274B2360274B6361274BA361274BAA
:10107000E36104F110030FCB8DE80F0094E80F003B
:1010800010F012FD002305A8C5F81130C5F8153081
:1010900010F092FC9DF8143005F11104012B16D1CB
:1010A000DDF8153005A8C5F81130DDF81930C5F8A0
:1010B000153010F051FC164805F002FE08212046BC
:1010C00005F064FEBDF91611124805F0F9FD314630
:1010D0002846FFF7E3FE56B070BD00BF280400208D
:1010E000500400200000404048690108984E00204C
:1010F000253D0008AD3C00080D0D0008310D00082D
:101100001D0D0008C16C0008558F0008958F000860
:10111000696901088F6901087FB5F82300F120058E
:10112000064628468DF80F3000F0EAFB02230DF149
:101130000F0100930122A023284600F0E5FB4FF4A5
:1011400000430822009306F13001A02304462846FC
:1011500000F004FC0440E4B2284600F0D3FB204633
:1011600004B070BD30B504468BB05A4805F0A8FDF8
:10117000204600F021FB00F05FFA00F00BFA564821
:1011800005F09EFD04F120055448554905F098FDF1
:10119000284600F0AFFB38B9524805F091FD40F207
:1011A0002111514802F0D0FA02F0A2FD2046FFF7CB
:1011B000B3FF20B94FF493714B4802F0C5FA94F88D
:1011C00037304A48049394F83630039394F8353016
:1011D000029394F83430019394F83330009394F8E8
:1011E000323094F8312094F8301005F069FD28462B
:1011F00000F0D2F9284600F031FA04F11C0584F819
:1012000038000021284600F049FB012000F032FCA4
:101210000021284600F058FB012000F049FC204640
:10122000FFF7FCFE00F066FA314805F049FD4FF487
:10123000FA7012F0B1FB0446002844D12D4805F0A5
:101240003FFD2D4805F03CFD2C4805F039FD2C48AC
:1012500005F036FD2B4805F033FD2B4805F030FD39
:101260002A4805F02DFD2A4805F02AFD294805F0F9
:1012700027FD294A29492A4805F022FD29492A48FB
:1012800005F01EFD294805F01BFD294B294A1B6866
:1012900029490093294B12681B68294813F07AFAF0
:1012A0002749284805F00CFD07A803F00FFA07A806
:1012B00005F05CFC0146244805F002FD0F4805F0EE
:1012C000FFFC0BB030BD214805F0FAFC204612F0BF
:1012D0006BFBB6E7346A0108466A01085B6A0108DD
:1012E000A0860100766A0108F46901088C6A010889
:1012F000C16A0108EF6A0108BD6C01082D6B010885
:101300005E6B01086D6B01088F6B0108B26B010801
:10131000D66B0108BE6C0108F96B0108FF6B010870
:101320001D6C01082D6C0108346C01083F6C01082C
:101330006400F81F5000F81F5F6C01085400F81F8C
:1013400034040020716C01087C6C0108236B0108D7
:10135000024B186803685B68184700BFA0040020B0
:10136000024B186803689B68184700BFA004002060
:101370000023F0B513701446022205460C4E85B0CA
:1013800030688DF80F1003680092DF6801222B4649
:101390000DF10F01B84748B14FF4004230682146C3
:1013A000036800921E6901222B46B04705B0F0BDCC
:1013B000A004002030B585B08DF80D200022074B29
:1013C0008DF80C101C6803A923680092DD680222C6
:1013D00003462046A84705B030BD00BFA00400204A
:1013E00037B54FF40045064B1C68236800951D690E
:1013F00013460A4601462046A84703B030BD00BF49
:101400009C04002037B50025054B1C682368009517
:10141000DD6813460A4601462046A84703B030BDA2
:101420009C04002037B50225054B1C6823680095F5
:10143000DD6813460A4601462046A84703B030BD82
:101440009C040020024B186803681B68184700BF03
:101450009C040020024B186803685B68184700BFB3
:101460009C040020024B186803689B68184700BF63
:101470009C0400204FF47A735843B0FBF3F009F05A
:1014800071B8000010B5424C0AF0A6F820460222BE
:10149000002102F069FE01222046114602F064FE9E
:1014A00020460122022102F05FFE20460222032193
:1014B00002F05AFE20460022042102F055FE20468A
:1014C0000222082102F050FE20460122092102F0EA
:1014D0004BFE204601220A2102F046FE204602224F
:1014E0000B2102F041FE02F0F5FB002320461A46D4
:1014F0000C2102F0FBFD204600220C2102F0C4FE6C
:101500002046002204F580640F2102F02DFE2046C3
:101510000122002102F028FE20460022022102F0D2
:1015200023FE20460022032102F01EFE2046022256
:10153000062102F019FE20460022082102F014FEC6
:1015400020460022092102F00FFE204601220C2134
:1015500002F00AFE204602220D2102F005FE20467E
:1015600002220E2102F000FE204602220F2102F08C
:10157000FBFD002304F5806420461A460D2102F08D
:10158000B5FD2046BDE8104000220D2102F07CBED2
:101590000000024003F002B91C4B00B51A6889B084
:1015A000D2075FBF1A4A106001221A60194B0493D8
:1015B000194B0593194B0393194B0293194B07933E
:1015C000194B069308AB13E903008DE8030002AB47
:1015D0000FCB10F017F990B1144805F071FB002201
:1015E0001348114602F0C0FD0F23022200211048CB
:1015F00002F05AFC09B05DF804EB10F09DB86921C7
:101600000C4809B05DF804EB02F09EB89804002085
:10161000A004002051130008611300087113000892
:10162000B5130008C16C000875140008A16D01080D
:1016300000000240B26D0108002307B5ADF8043088
:1016400001238DF80630019809F022FF02F042FBD9
:1016500003B05DF804EB09F06DBF0000194B10B545
:101660001A688CB0D2075FBF174A106001221A6057
:10167000164B0793164B0593164B0693164B089380
:10168000164B0993164B0A93164B0B930CAB13E9AD
:1016900007008DE8070005AB0FCB0FF0D7FF04461E
:1016A00001220F21104802F05FFD3CB10F4805F008
:1016B00007FB0FF0A9FF20460CB010BD0C4805F049
:1016C000FFFAF8E7940400209C040020E1130008CE
:1016D00005140008251400084514000855140008D6
:1016E00065140008C16C000800000240286D010864
:1016F0005B6D01082DE9F0479AB00AF037FBDFF87F
:10170000B490244C244E254F12AD50B9CDE9154468
:10171000CDE91376CDF84890009495E80F000AF0D3
:101720002BFB1F4B4FF0000A13931E4B4FF0010889
:1017300012931D4B06A914931C4B284615931C4B62
:10174000CDE91876CDE916340423CDE9063A8DF8B3
:101750001D8006F001F805F0F3FF12F07FFF5146FF
:1017600010220EA812F05EF90323CDE908440D9370
:101770008DF83D8001AC0DAD0FCDCDE90A970FC4BA
:101780002B682360009608AB0FCB0AF029FC1AB037
:10179000BDE8F087C16C0008AD6D0008D96D000888
:1017A000B9B4000881B3000891B2000829B200085A
:1017B0003DB20008894700082DE9F047044602F0D1
:1017C0009FF91E49054611F01FFC11F0E3FD01468B
:1017D0001B4805F075FA4FF08041284611F0B2FD24
:1017E00048B30025DFF86090DFF85080154E02F016
:1017F00087F94946074611F0B9FDA8B94146384670
:1018000011F002FC11F0C6FD0146304605F058FA11
:10181000236885F001052046DB68294698474FF488
:101820007A7002F07FFAE2E723682046BDE8F047CD
:10183000DB6800211847BDE8F08700BF00007A444C
:10184000796D0108866D01080000204008B50D493A
:10185000012002F0FBFD0C490B2002F0F7FD0B49C3
:101860000A2002F0F3FD0A49042002F0EFFD0949C5
:10187000072002F0EBFDBDE808400749052002F013
:10188000E5BD00BF858A0008958D0008218C000801
:10189000AD8E0008018E0008898E0008002310B567
:1018A0000C461A460D21074802F020FC14B1012C09
:1018B00000D010BD2246BDE810400D21014802F0C5
:1018C000E3BC00BF00080240002310B50C461A46D6
:1018D0000C21074802F00AFC14B1012C00D010BD05
:1018E0002246BDE810400C21014802F0CDBC00BFEB
:1018F00000000240014802F033BD00BFA086010095
:1019000002F0FEBC02F018BD2DE9F041069F1E4614
:1019100007F00303032B80460C46154603D119211B
:101920000D4801F011FF2046BC07324629460AD572
:1019300002F050FD10B10120BDE8F081012300202C
:1019400088F80430F8E7FB0702D502F051FDF1E713
:1019500002F032FDEEE700BF046E01082DE9F04110
:10196000069C0D46E107804616461F4603D53621E4
:101970000D4801F0E9FEA20703D539210A4801F01C
:10198000E3FE23043A46314628460AD502F03EFDDE
:1019900010B10120BDE8F0810123002088F8043057
:1019A000F8E702F0FBFCF3E7046E010808B5032139
:1019B000034802F072FC003018BF012008BD00BFD0
:1019C000000402400A460248032102F05DBC00BF49
:1019D0000004024008B581B1012303211A460A48D8
:1019E00002F084FB0321084802F042FCBDE80840F5
:1019F00003220548114602F059BB0122BDE8084008
:101A00000321014802F0B0BB0004024002F0BCBE5A
:101A1000084611461A469DF8003002F055BF02F004
:101A200001BF02F019BF084602F092BDDFB50023E6
:101A3000CDE90133ADF80C3001238DF807308DF876
:101A400008306FF01D038DF809300723044601A804
:101A50008DF80A3005F071F8236806461B682046A9
:101A60000F469847864277EB0103B4BF0120002060
:101A700004B0D0BD042817D8DFE800F00309100E29
:101A80001200002303211A46084802F02FBB00224F
:101A90000321064802F068BB0222F9E70122F7E7BA
:101AA0000321024802F086BB704700BF00000240DD
:101AB000042817D8DFE800F00309100E12000023F5
:101AC00002211A46084802F011BB002202210648F2
:101AD00002F04ABB0222F9E70122F7E7022102489D
:101AE00002F068BB704700BF000002401FB553689A
:101AF0000293137801934B6800930B684268017856
:101B0000024805F0DDF805B05DF804FB946E0108AD
:101B100010B50446C06908B105F048F9206908B15C
:101B200005F044F9606808B105F040F9204610BDA1
:101B300010B50446006808F0C1F8204610BD00004A
:101B4000CA21014801F000BEB26E0108FE2307B5AC
:101B50008DF80430054B01A91868002300681A4667
:101B600007F098FD03B05DF804FB00BFB00400204F
:101B7000D0B51F467423C0E90031002304468360BA
:101B8000082016460FF0B8FCC0E90067A0602046A8
:101B9000D0BD0000036837B5632B05460C4601D065
:101BA000FFF7CEFF002301AAA9682046019304F0A5
:101BB0006DFE019A3AB12146044805F081F83821BA
:101BC000034801F0C1FD03B030BD00BFF46E010851
:101BD000216F010870B563230025C0E90031044678
:101BE00085601A2016460FF087FC1A22294611F04C
:101BF00019FF3146A0602046FFF7CCFF204670BD9C
:101C000081647047C16470472DE9F843D0E90173DE
:101C1000884600254FF00C09DB1B0A4E9B105E43E3
:101C2000ECB2B4420BD209FB04724146506812F088
:101C3000D1FD01350028F3D12046BDE8F8834FF0EF
:101C4000FF30FAE7ABAAAAAA2DE9F843D0E904735A
:101C5000884600254FF00C09DB1B0A4E9B105E43A3
:101C6000ECB2B4420BD209FB04724146506812F048
:101C7000B1FD01350028F3D12046BDE8F8834FF0CF
:101C8000FF30FAE7ABAAAAAA2DE9F0470E46496849
:101C90000446FFF7B9FFC0B2FF2807D071682E488D
:101CA00005F00EF87C212D4801F04EFDD4E901230A
:101CB0002B4F9B1A9B107B437E2B03D97F212748F8
:101CC00001F042FDD4E901120C25E068531A9B1083
:101CD000121A7B4392107A430133934205FB03F8B7
:101CE0000ED84144A160D4E9013496E80700E31A14
:101CF00004E907001A489B1058430138BDE8F087F3
:101D0000404605F069F8054618B96921154801F003
:101D10001BFDD4E901C300274FF00C0AA3EB0C0311
:101D20000F4A9B1002FB03F9A9EB0703002B0ADD06
:101D30000AFB07F305EB030E634493E80700013742
:101D40008EE80700F0E7604605F030F8656045442E
:101D5000C4E90255C7E700BF5A740108216F0108A2
:101D6000ABAAAAAA7A7401081FB56E23CDE9013186
:101D7000002301A90393FFF787FF05B05DF804FB7B
:101D80000023FF2270B54FF00041C0E90033C0E9E5
:101D90000233C0E90433C0E90633C0E9083380F8F0
:101DA0002820044600206FF07F42C4E90C01C4E9FA
:101DB0000E014FF0FF31C4E91233C4E910120023C1
:101DC00005221E4DC4E914232A6812F0010212D123
:101DD00001211B4E0846326007F082FB306018B9C3
:101DE0001121184801F0B0FC0123174A1749144883
:101DF0002B6010F0E0F9164B1A680AB9104A1A6005
:101E000014492046FFF7B0FF134B144918702046C1
:101E1000FFF7AAFF124B134918702046FFF7A4FFE3
:101E2000114B124918702046FFF79EFFFE22104BFF
:101E30001870104B20461A7070BD00BFAC04002013
:101E400020050020A775010800000020311B0008B4
:101E5000B0040020E1750108B8040020E97501080C
:101E6000B6040020F1750108B4040020F6750108DD
:101E7000B7040020B504002010B5084C2368DB0728
:101E800009D40748FFF77CFF0123064A06490448A6
:101E9000236010F090F9024810BD00BFA804002094
:101EA000C804002000000020111B00082DE9F047A5
:101EB0000E4649680446FFF7C7FEC0B2FF2807D0A8
:101EC00071682E4804F0FCFE87212D4801F03CFC8F
:101ED000D4E904232B4F9B1A9B107B437E2B03D901
:101EE0008A21274801F030FCD4E904120C25A069AE
:101EF000531A9B10121A7B4392107A430133934278
:101F000005FB03F80ED841446161D4E9043496E836
:101F10000700E31A04E907001A489B1058430138E8
:101F2000BDE8F087404604F057FF054618B969211F
:101F3000154801F009FCD4E904C300274FF00C0A4E
:101F4000A3EB0C030F4A9B1002FB03F9A9EB070359
:101F5000002B0ADD0AFB07F305EB030E634493E84D
:101F6000070001378EE80700F0E7604604F01EFF27
:101F700025614544C4E90555C7E700BFB2740108AF
:101F8000216F0108ABAAAAAA7A74010838B5D0E972
:101F900001239B1A074A9B105343CDB29D4204462E
:101FA00003D3A621044801F0CFFB0C20636800FB9B
:101FB000053038BDABAAAAAA216F010838B5CCB24A
:101FC000114905460B6813F0010307D10F4A702031
:101FD0001372012310600E480B605060FF2C10D06C
:101FE000D5E904239B1A0B4A9B1053439C4203D30D
:101FF000B221094801F0A8FB0C23286903FB040067
:1020000038BD0248FCE700BFA4040020BC04002047
:10201000A16F0108ABAAAAAA216F010810B5D0E9E7
:102020000730C9B2D2B2834209D01C788C4204D1A5
:102030005C78944201D1987810BD0333F3E74FF0F8
:10204000FF30F9E72DE9F041D0E904239B1A534A08
:102050009B1053430D4609780446994203D39321BC
:102060004F4801F071FBD4E901239B1A4B4A9B10A6
:1020700053436978994203D39421494801F064FBA2
:10208000D4E904239B1A454A9B105343A9789942EB
:1020900005D3FE2903D09521414801F055FB6A780C
:1020A00029782046FFF7BAFFC3B2FF2B06462CD093
:1020B0003C4804F005FE29782046FFF77FFF697849
:1020C00007462046FFF762FF314680462046FFF76D
:1020D00075FF414602463846FFF708FD297820463D
:1020E000FFF76CFF697806462046FFF74FFFA97897
:1020F00007462046FFF762FF394602463046FFF7A3
:10210000F5FC9C21264801F01FFBD4E90723234F4F
:102110009B1A7B437E2B03D99F21214801F014FB9E
:10212000D4E90721606A8B1A7B43091A4F430133B4
:10213000BB4203EB43080AD8424422622A88236A3E
:1021400023F8032CAA7803F8012CBDE8F08140465F
:1021500004F042FE064618B96921134801F0F4FA6A
:10216000D4E907010B1A0D4959430023CA1A002A62
:102170000DDD03EB43028718B7F800E006EB020C15
:1021800026F802E0BA7801338CF80220EEE704F07A
:102190000DFEE6614644C4E90866CFE7ABAAAAAAE9
:1021A000216F0108866F01087A74010813B5FF24B6
:1021B000074B8DF804401B680A46186801A907F010
:1021C0000DFB012814BF20469DF8040002B010BD8D
:1021D000B004002038B5816800681D46144604F03C
:1021E00047FE0346201845EBE37138BD2DE9F04169
:1021F0000E681046722E1F4627D0742E08D0632E0C
:1022000012D000244FF0004520462946BDE8F08159
:102210008B68D3E90023B3F1004F08BF002A19D01F
:10222000841847EB0305EFE7886804F0EFFB00280C
:1022300071F1000304460D46E6DA084804F040FD5B
:10224000DD21074801F080FADEE78868BDE8F0414B
:10225000FFF7C0BF14461D46D6E700BFA8700108AF
:10226000216F01082DE9F0470F460646FFF7A6FE4D
:102270000024DFF85C9042680178FFB2124804F055
:102280001FFDD6E90758454516D02B78BB4211D122
:1022900069783046FFF77AFE016869290AD1D0E9EA
:1022A000012A484604F00CFDDAF8003003B19847E3
:1022B0000134E4B20335E6E72146044804F000FDAA
:1022C0002046BDE8F08700BFCE70010817710108F5
:1022D000F57001082DE9F34707468846FFF76EFEC3
:1022E0000025426801781B4804F0EAFCFC693E6A5C
:1022F000DFF86890033403365FFA88F8A64220D0EE
:10230000234633F8032D9B78ADF804208DF8063072
:1023100014F8033C984512D19DF805103846FFF794
:1023200035FE016869290AD1D0E9012A484604F03E
:10233000C7FCDAF8043003B198470135EDB2033435
:10234000DCE72946044804F0BBFC284602B0BDE89F
:10235000F08700BF35710108827101085E710108C4
:10236000836C73B504460D46164623B94FF48C7141
:102370000D4801F0E9F90D49CDE9006423462A46EC
:102380000B4807F07BFD012801460AD0094804F0FC
:1023900097FC4FF48F71044802B0BDE8704001F023
:1023A000D3B902B070BD00BF216F010828740108C5
:1023B000D12B00083374010838B590F84730044633
:1023C000032B0D4604D940F23111064801F0BCF947
:1023D00094F847305A1C84F847201C4484F8425033
:1023E00038BD00BF216F010810B590F84730044692
:1023F00023B94FF49B71064801F0A6F994F84730D1
:10240000013BDBB284F847301C4494F8420010BD15
:10241000216F0108CBB2FE2B37B5054605D1104818
:1024200003B0BDE8304004F04BBCFFF7C7FD0168C6
:1024300004466D290DD1017A2846FFF7BFFD436898
:1024400000930368D4E90012064804F039FC03B095
:1024500030BD4268044803B0BDE8304004F030BCF1
:10246000537501085B7501088872010808B5FFF70C
:102470008DFDBDE80840D0E90012014804F020BC01
:10248000D27401082DE9F74F04462A4804F018FCDD
:102490004FF00008284FDFF8B0A0DFF8B090D4E983
:1024A0000431C91A891079435FFA88F6B14231D9EB
:1024B000504604F005FC20463146FFF7ABFF94F888
:1024C0002830DFF88CB0B3420CBF1C48484604F0FB
:1024D000F7FBD4E907531A4AAB4218D02978B14226
:1024E00013D11046019304F0EBFB69782046FFF707
:1024F000BDFF584604F0E4FBA9782046FFF78AFFA9
:10250000484604F0DDFB019B0D4A0335E4E708F182
:102510000108C4E7D4E907239B1AD4E90102121A7F
:1025200092107B437A43074803B0BDE8F04F04F0B4
:10253000C7BB00BFDA740108ABAAAAAAF2740108EB
:10254000FE7401080F750108E9740108BE6C0108EA
:102550000B7501082DE9F8430422054690F8471051
:10256000114804F0ADFB0024DFF848900F4F05F14F
:10257000420695F84730A34210DD16F8011B2846A5
:10258000FFF71CFDD0F8048014B1484604F098FB16
:102590004146384604F094FB0134EAE70448BDE8BC
:1025A000F84304F08DBB00BF437501084D75010869
:1025B000507501084B75010800232DE9F04FC0E963
:1025C0000433884619464FF000430446C0E902131D
:1025D000C0E90013FF2085B0CDE90013DDE90E67E7
:1025E00020745FFA82F9D8E907500390039BD4E97D
:1025F00000AB9D4220D02B784B451BD169784046DB
:10260000FFF7C4FC32463B4601464046FFF7EEFD6D
:10261000DDE90023994208BF90420BD09B4508BFDB
:10262000924503D0504571EB0B0303DA6B78C4E994
:10263000000123740335D9E7BBF1004F08BFBAF19D
:10264000000F05D0BAEB06066BEB0707C4E902677B
:10265000204605B0BDE8F08FF8B50D460E4B8968F1
:1026600006464B434FF47A71B3FBF1F1FFF79EFD41
:102670000446C7B2B06C03681B689847C6E90E01F0
:1026800004F09EFA0146054804F01AFBFF2F0CBF28
:10269000287C2046F8BD00BF40420F00636F010850
:1026A00070B5C36C86B004460D464BB9224804F0A1
:1026B00007FB2946204606B0BDE87040FFF7CCBFB7
:1026C000806C1E4903681B699847A06C03689B686F
:1026D0009847D5E9002303A804F00AFAA06C9DF8F6
:1026E0000C20036800929DF80F109DF80E205E6884
:1026F0009DF80D30B047A06C0368DB689847E36C29
:102700009847A06C03689B689847A06C03681B6897
:102710009847C4E90E0104F053FA0146084804F052
:10272000CFFA00212046FFF741FDC0B2FE2808BFC6
:10273000287C06B070BD00BF697501084D1B0008FC
:10274000877501082DE9F84F9046D1E90023B3F1D0
:10275000004F08BF002A05460C4677D0DFF830B19D
:10276000DFF830A1D4E90201012871F100030DDA8C
:1027700050EA010302D03B4804F0A2FA3A4804F0C0
:102780009FFA94F810904846BDE8F88FB8F1000F12
:102790001AD0504604F094FA21462846FFF75CFF11
:1027A0005FFA80F9B9F1FF0F1ED1304804F088FAC2
:1027B00040F20E212E4800F0C7FF2E4B2E4A40F269
:1027C0000F212B4810F0E6FFD5E91423904271EB5E
:1027D000030301DA5846DDE7284804F071FA214680
:1027E0002846FFF75DFFDBE7237C4B452AD1D5E97F
:1027F0000E01D4E90023904271EB030C12DA204859
:1028000004F05EFAD5E90E23D4E90001801A61EBE9
:102810000301C4E9020104F0E9F90146194804F092
:102820004FFA9FE7861A61EB0307022E77F1000348
:10283000A9DB3946304604F0D9F90146124804F0C4
:102840003FFAA0E7114804F03BFA9CE7B8F1000F0B
:1028500003D0BDE8F84FFFF7FFBEBDE8F84FFFF724
:102860001FBF00BFFF7201082473010894730108A1
:10287000216F0108BA730108237601087A730108F1
:10288000C0730108DF730108F273010811740108B5
:102890005C7301083C7301082DE9F04188B00446DF
:1028A0000E46FFF78BFB03680546702B04D04FF4F0
:1028B0009E71344800F048FFA06C03681B6898477D
:1028C0003246C4E90C01CDE90001214602A8FFF718
:1028D00073FE31462046FFF7C5FC9DF818300746C9
:1028E000FF2B0AD148B9297827486A6804F0E8F92B
:1028F00040F24711234800F027FFD4E90C0104F00F
:102900005FF90146214804F0DBF93946204804F01C
:10291000D7F99DF81810FF2915D11E4804F0D0F9F9
:1029200000224FF00043CDE904232A7A02A9204671
:10293000FFF708FF054631462046FFF7CBFC284647
:1029400008B0BDE8F0812046FFF720FBD0E9007811
:10295000DDE9020104F034F94246034639460E48E7
:1029600004F0AEF9D4E90C3202980399C01A61EB75
:102970000201CDE9040104F039F90146074804F0E9
:102980009FF9D2E7216F0108E06F01081370010879
:10299000327001084D700108667001088A700108E4
:1029A00070B504460D46FFF709FB03686D2B11D087
:1029B000702B09D0612B0DD1836894F8411094F8E5
:1029C0004000BDE87040184729462046BDE87040E9
:1029D000FFF762BF40F22B11024800F0B5FE4FF046
:1029E000FF3070BD216F01082DE9F74F044668489C
:1029F00004F066F9674804F063F9674804F060F989
:102A0000644804F05DF994F82830FF2B04D14FF4AA
:102A1000D071624800F098FE94F828102046FFF725
:102A2000CDFA426801785E4804F04AF994F82830FB
:102A3000DFF898B1DFF8589184F8463094F84610E2
:102A40002046FFF7BBFA036880466D2B1BD1416817
:102A5000544804F035F994F846102046FFF7ACFCD2
:102A600098F80810204684F84610FFF7A7FA426845
:102A700001784D4804F024F92046FFF76BFD4846E5
:102A800004F01EF9DAE794F846102046FFF788FFB5
:102A9000C3B2FF2B07460ED1444804F011F940F2AF
:102AA000B5113E4800F050FE40F2B511404B414A8E
:102AB0003A4810F06FFE024694F846102046FFF7A1
:102AC000ADFAC5B2FF2D0CD13B4804F0F9F840F245
:102AD000BB11324800F038FE354B364A40F2BB118C
:102AE000E6E794F84610FE2D204630D1FFF77CFC37
:102AF000014606462046FFF761FAD8F8042098F808
:102B0000001082462D4804F0DBF83A463146204654
:102B1000FFF784FAC5B2FF2D0CD1294804F0D0F894
:102B20004FF4E3711D4800F00FFE214B214A4FF492
:102B3000E371BDE7DAF80410584604F0C1F8204606
:102B4000FFF708FD484604F0BBF83146CBE7FFF736
:102B500035FA394606462046FFF718FA29468046D8
:102B60002046FFF72BFA0190164804F0A9F8164802
:102B700004F0A6F8019A41463046FEF7B7FF94F8F4
:102B8000463084F8417084F8403084F8465055E768
:102B9000BE6C0108A2710108C1710108216F010812
:102BA000E0710108FE7101081D720108347201080C
:102BB000BA730108FE7501085772010871720108A5
:102BC00090720108D9720108EF720108C3720108FE
:102BD00008B5FFF751F9FFF707FF00002DE9F843AB
:102BE0001F461646FFF7D2F9B7F1004F08BF002E77
:102BF000D0E9005884681AD0742D01D0FEF7A0FFE8
:102C0000D4E9000103F0F2FF39468146304603F073
:102C1000EDFF4A46034641460A4804F051F8742D38
:102C200001D0FEF78DFFC4E90067BDE8F883742D7D
:102C300001D0FEF785FFD4E9000103F0D7FF024B76
:102C40000246E8E7AF6F0108D46F0108FF23054A89
:102C50001370054A1370054A1370054A1370054A2C
:102C600013707047B8040020B6040020B40400209C
:102C7000B7040020B504002010B50446006807F032
:102C80001DF8204610BD10B50446006807F016F880
:102C9000204610BD1FB509F0F7FA0023ADF80C303F
:102CA0000E4B5A7812B101228DF80C201B7813B10B
:102CB00001238DF80D300023094A0A490A48009380
:102CC0001278039B0978006809F05EFC20B1074B7D
:102CD000187805B05DF804FB054BF9E748050020BE
:102CE0004B0500204A05002044050020B4040020C4
:102CF000B604002008B500231A4606F0CBFC431E9C
:102D00005842584108BD000007B50B78012B11D07F
:102D10005AB22AB1022B11D00A4803F0D1FF06E0C3
:102D20000192094B01A91B681868FFF7E3FF03B084
:102D30005DF804FB4FF0FF330193F2E7024B0431DF
:102D40001B68F1E71F7801083C0500201FB56123CF
:102D5000CDE9013101A90392FFF7A8F805B05DF8AC
:102D600004FB1FB57023CDE90131002301A98DF8C3
:102D70000C30FFF79BF805B05DF804FB30B5044656
:102D800085B00D4600F010F86D22064B01A91B78A6
:102D90002046CDE901258DF80C30FFF787F805B006
:102DA00030BD00BF4E0500202DE9F04F554B85B0DA
:102DB0001A780446002A40F0A180012652491E706C
:102DC000FEF7D2FF514B524918702046FEF7CCFF58
:102DD000504B514918702046FEF7C6FF4F4900235B
:102DE0000A2208704E4901A8FEF7C2FE01A801465A
:102DF0002046FEF749FF4B4F4B4938702046FEF7FF
:102E0000B3FF4A4D4A4A28704A492046FFF79EFFC1
:102E1000DFF854B1484A8BF8000048492046FFF7D4
:102E200095FF474905462046FFF79BFF70238046E4
:102E3000019301A8434B0146204602938DF80C6094
:102E4000FFF734F8404A824640492046FFF77EFFAC
:102E50003F4E404930702046FFF790FF81463E4884
:102E60002B4602789BF800102046FDF776FB294A96
:102E70004346294612782046FDF76FFB2749534603
:102E80000A7820462946FDF768FB2B463A784146EA
:102E90002046FDF762FB2B463A7851462046FDF767
:102EA0005CFB2E4A2B4629462D4F12782046DFF830
:102EB000BC80FDF752FB29461C4D3B7898F800205A
:102EC0002046FDF74AFB4B462A7831782046FDF72D
:102ED00044FB337898F8002049462046FDF73DFB37
:102EE000204A3B78127831782046FDF736FB1A48A5
:102EF0003B78027831782046FDF72FFB05B0BDE81E
:102F0000F08F00BF42060020787801084C050020B1
:102F1000827801084F0500208D78010830050020D7
:102F20009978010831050020A67801085005002095
:102F3000952C0008B2780108C5330008BC78010858
:102F4000D0780108E378010839340008F7780108DF
:102F50004005002008790108B4040020B7040020CF
:102F6000B5040020510500204E050020B8040020C3
:102F70002DE9F8432B4B04461A682B4E12F0010F33
:102F80004AD1FF22327001221A602046FFF70CFF5F
:102F9000264A27492046FFF7D9FE264A307026499F
:102FA0002046FFF7D3FE254D254928702046FFF720
:102FB000D8FE244981462046FFF7D3FE0746224A21
:102FC0002B78317820461278FDF7C7FA1F4A3378FC
:102FD000297820461278FDF7C0FA1D4ADFF878807C
:102FE0004B46297820461278FDF7B7FA2B7898F8E7
:102FF000002049462046FDF7B0FA164A3B4629789C
:1030000020461278FDF7A9FA2B7898F80020394667
:103010002046FDF7A2FA02E03378FF2BB5D03078D6
:10302000BDE8F8832C05002043060020E9340008A1
:10303000197901087D300008237901084D05002029
:103040002D7901083B7901084C050020B8040020C7
:103050004F050020B60400203105002070B50D4654
:103060000446FEF709FF044922462B46BDE870409E
:103070000978FFF7B3BD00BF31050020F7B5414C1B
:1030800026689EB904200EF037FA324605460660DF
:103090000421012006F024FA286018B911213A48C9
:1030A00000F052FB3948256009F00EF9384F394ECF
:1030B000396839480131396003F002FE09F0E4F85B
:1030C00033781BB90123337009F014F900230193FD
:1030D0002368324A01A9186806F080FB012806D04F
:1030E0002F4803F0EDFDFB212E4800F02DFB019D44
:1030F0006B1C24D12C4803F0E3FD3C681E21013CED
:10310000E4B21E2C28BF1E24002001FA04F4B4F5FA
:10311000E15F307028BF4FF4E15403F0A9FE0025B1
:10312000261845EBE0773146204803F0C9FD3046CC
:103130003946FFF793FF1E4B187803B0F0BD4DB131
:1031400029461C4803F0BCFD01980021FFF786FFCB
:10315000194BF1E719483D6003F0B2FD09F03EF864
:1031600023686BB1284609F0AFF8256835B12868A7
:1031700006F0A4FD042128460EF0CCF900232360BC
:103180000F4BD9E73C050020A7750108092D000861
:10319000600500205C05002078760108A08601000B
:1031A0008B760108A5760108F176010808770108F9
:1031B000B60400201F7701084F050020347701086E
:1031C000B8040020054B1870054B1A700022054BFF
:1031D0001960054B1A705A70704700BF4B050020EC
:1031E0004A05002044050020480500204FF47A736A
:1031F00037B5002403FB00F20749B2FBF3F20D6878
:1032000001A92868019406F02BFC012814BF204670
:10321000019803B030BD00BF380500204FF47A7329
:1032200037B5002403FB00F20749B2FBF3F20D6847
:1032300001A92868019406F0D1FA012814BF20469C
:10324000019803B030BD00BF34050020034B93F854
:103250002A30022B0CBF0220002070479000002073
:1032600070B51D460023044603604171164602B145
:1032700015B92371204670BD28460EF047F92A463D
:103280002060314610F0A6FB2571F3E710B5044627
:10329000006808B10EF03CF9204610BDF7B5184D96
:1032A00004462A6822B94FF49171164800F04CFA8E
:1032B00024B3637F13B3237F03B308200EF01CF9FC
:1032C000237FA26C617F06466789FFF7C9FF002351
:1032D00028681A4601A90068F780019606F024F9CB
:1032E00001280BD0084803F0EBFC019C34B12046C8
:1032F000FFF7CCFF082120460EF00CF903B0F0BD1B
:1033000038050020A57601084D78010810B504465F
:10331000FFF7C4FF24B12046BDE810400BF0DAB837
:1033200010BD00007FB542F2107008F0D3FF0446D4
:103330001F4803F0C5FC002C37D0A06FFFF7AEFF8D
:103340002578022D2DD160680021FFF787FEA36F3D
:10335000F3B1D3E9142313431AD0164B1E6806F0B9
:10336000AFFF01461448B047A36FD3E9140103F03F
:1033700027FCA36F01461A6D104803F0A1FCA36F50
:1033800001A8D3E9142303F0B3FB01A801F08EF9DF
:103390000B4803F095FC204609F05AFE284604B07D
:1033A00070BD032DD3D10020CEE70125F6E700BF85
:1033B0004477010890000020627701086F770108C8
:1033C000A0770108002310B5144C84F82E3008F0C3
:1033D00039FF08B108F058FFFFF7A4FF032815D8FC
:1033E000DFE800F005020A080D4803F069FC0D4B08
:1033F000187810BD0C4BFBE7FFF728FF022809BF28
:1034000001230A4B84F82E30094BF1E709484FF4A9
:10341000FA7100F099F94FF0FF30EAE790000020D0
:1034200005780108B8040020B70400204F050020EB
:1034300030050020A576010870B500200021FFF7B7
:10344000D5FE28B1194803F03BFC194B187870BD24
:1034500000200021FFF7E2FE044620B30279417903
:10346000144803F02DFC2279134BDE2A28BFDE22FC
:103470002168184610F0AEFA034666790F482579A0
:1034800006700F48A17905700E48E27903600E4B73
:10349000204619705A70FFF7F9FE082120460EF0F9
:1034A00039F80A4BD2E70A4BD0E700BFB9770108D9
:1034B00051050020D0770108640500204B0500204D
:1034C0004A05002044050020480500205005002042
:1034D000B404002010B50446006810B101210EF0BC
:1034E00019F8204610BD000070B54F4BC0B21B78D4
:1034F0008AB0984201D14D4B7DE00DF0B3F94C49B3
:1035000004460DF02FF80546002877D0494A214699
:1035100001A80DF030F8484A214604A80DF02BF818
:10352000464A214607A80DF026F8079A0499019803
:1035300009F062F907A8FFF7CDFF04A8FFF7CAFF5B
:1035400001A8FFF7C7FF3E4920460DF025F840B21D
:103550000AF022FE09F0D2F83A4920460DF01CF894
:10356000C0B20AF0E7FD09F0BFF837492046374CF2
:103570000CF0F8FF09F012F9226812F0010212D1E2
:103580000421334E0846326005F0AAFF306018B9B6
:103590001121304800F0D8F801232F4A2F492C4838
:1035A00023600EF008FE2E4B1A680AB9284A1A60EA
:1035B0002C4C226812F0010212D104212A4E084636
:1035C000326005F08DFF306018B91121214800F0FC
:1035D000BBF80123204A2549234823600EF0EBFD68
:1035E000234B1A680AB9204A1A60224809F0ECF8FD
:1035F000002D80D0204B18780AB070BD214601A85C
:103600001E4A0CF0B8FF214604A81D4A0CF0B3FF77
:10361000214607A81B4A0CF0AEFF049A07990198AF
:1036200009F0D8F886E700BF4D050020B804002057
:10363000D2640108DE640108D7640108E56401086A
:10364000576501082B650108D89D01082805002051
:1036500058050020A775010800000020872C0008ED
:10366000380500202405002054050020792C00088E
:10367000340500200D3300084C050020FC640108CF
:10368000F4640108EC640108FF23094A1370094A35
:103690001370094A1370094A1370094A1370094AD2
:1036A0001370094A1370094A1370094A137070475E
:1036B0004E0500204D05002040050020510500204A
:1036C000500500204C0500204F050020300500204B
:1036D00031050020014B1860704700BFD006002064
:1036E00073B5134C064623780D46124A1BB913785E
:1036F0000BB172B6FEE70123002113700E4864225D
:1037000010F090F92B4600960C4A64210A4811F0FB
:103710000DF80B4B1B6803B198470125064E304648
:1037200003F012FB72B6074B2570013BFDD1F6E7A3
:10373000B006002044060020460600205D790108FE
:10374000D0060020FFFF0F0073B5134C0646237808
:103750000D46124A1BB913780BB172B6FEE701236E
:10376000002113700E48642210F05CF92B4600967D
:103770000C4A64210A4810F0D9FF0B4B1B6803B1B7
:103780009847074803F0E0FA084803F0DDFA72B6FC
:1037900001232370FEE700BFB1060020450600208C
:1037A0004606002085790108D0060020947901089A
:1037B0000368DFF888C080B5CCF80030164F436846
:1037C000164E3B608368164D3360C36815492B6005
:1037D0000369154A0B604369144C13608369C0691F
:1037E0002360134B1860DCF80000386830682868E4
:1037F0000968104812680021226864221B6810F0D2
:1038000011F923680C4A64210A4810F08FFF094817
:1038100003F09AFAFEE700BFC0060020C8060020A9
:10382000CC060020C4060020AC060020B406002010
:10383000B8060020460600204A790108BC06002090
:10384000074B1B6803B198471EF0040F0CBFEFF342
:103850000880EFF309808169004A1047B1370008FA
:10386000D0060020002103E00A4B5B58435004318E
:1038700009480A4B42189A42F6D3094A02E000234B
:1038800042F8043B074B9A42F9D300F00DF8FDF7DC
:10389000EBF870475CBA01080000002070020020BD
:1038A00070020020C84E0020314B82B01A6842F4EA
:1038B00080721A6099682F4A0A409A601A6822F04A
:1038C000885222F001121A601A6822F480221A60CB
:1038D0009A6822F47D029A600022DA6001921B68E5
:1038E00013F4007318BF01230193019B012B37D1FF
:1038F0004FF48051204B1A68A3F5806322F0010237
:10390000C3F80024D3F8002422F00202C3F80024F4
:10391000D3F8002422F00402C3F800245A6A42F0CB
:1039200080525A62154A11605168C906FCD49A68DF
:103930009A609A689A609A689A605A6822F460421B
:103940005A605A6842F440425A609A6822F0030270
:103950009A609A689A60064A936813F00C0FFBD13C
:103960004FF00062064B9A60064ADA6002B0704778
:10397000003802400CC0FF88003C0240007000404C
:1039800000ED00E00003FA0570B5064688B02D484A
:1039900001F07EFA2C4B1A680092009A91073AD5F2
:1039A00001214FF4007001F0CDFC012001F0BEFABE
:1039B000264A536843F400335360A2F537425368F4
:1039C0001B07FCD50024012502A801F09BFA02A9DF
:1039D0001C4806948DF81C50ADF80C4001F06CFAB0
:1039E0002A4606233146174801F0ACFA2946154805
:1039F00001F093FA0221134801F036FB114801F05F
:103A000025FB134D01940F4C0221204601F026FBAB
:103A100058B108B070BD1A6842F001021A60009AED
:103A20009207BDD41A680092F9E7019B0133019314
:103A3000019BB3F5805FE7DB38212846FFF784FE62
:103A4000E2E700BF002401400038024000270140A7
:103A5000B079010808B5002001F068FA0021074894
:103A600001F05BFA00214FF4007001F06BFC044A96
:103A7000136823F00103136008BD00BF0024014058
:103A80000038024013B5072301220146114801F016
:103A900059FA02210F4801F0E7FA0E4801F0D6FA70
:103AA00000230D4C019302210A4801F0D7FA28B1F6
:103AB000084802B0BDE8104001F0CDBA019B0133C7
:103AC0000193019BB3F5805FEDDB4C212046FFF7AE
:103AD0003BFEE8E700240140B079010870B50646D6
:103AE0000825FFF751FF00243046FFF7CBFF013DCB
:103AF0000444F9D1FFF7AEFFC4F3CF0070BD00005E
:103B000008B51120FFF7EAFF0FF026FA0146084832
:103B10000FF02EFB0EF008FE03A3D3E900230EF0F6
:103B20005BFE0FF013F908BD2FDD24068195F33FEE
:103B300000F07F450F4A536A43F0805353620E4BA7
:103B40001A465968C906FCD41B68022823F4C053DE
:103B500006D143F4C05313605368DB06FCD47047AE
:103B6000012802D143F48053F5E70028F3D143F450
:103B70000063F0E7003802400070004010B50C4BC5
:103B80005A68D206FCD41C6814F4C05F0BD114F43C
:103B900080500AD114F4006404D106482A21FFF7AA
:103BA000D3FD204610BD0220FCE70120FAE700BF4C
:103BB00000700040F679010838B50546012001F093
:103BC00063FA022D01BF144A136843F00103136026
:103BD000124B1A6842F480721A601A689205FCD57A
:103BE0005A6822F4604242F440425A6000229A60CD
:103BF0000A4B9C6814F00C04FBD14FF480721A60DD
:103C0000074B084A28461A60FFF794FF2046BDE894
:103C1000384001F02DBA00BF003C0240003802409D
:103C200018000020D0FE3F000C4B5A6B900513D4B7
:103C30005A6A42F080525A62094A116841F480710E
:103C40001160596B41F480715963596B8905FCD53A
:103C5000136823F480731360704700BF003802407C
:103C600000700040054B5A6B910706D45A6B42F026
:103C700001025A635A6B9207FCD570470038024024
:103C8000094B5A6A42F020025A629A6942F02002B5
:103C90009A619A6922F020029A610022A3F5093301
:103CA0001A801A855A627047003802401521002296
:103CB00002384143064B1A85D962012199825A6222
:103CC0001A8219801A8AD207FCD500221A807047FE
:103CD00000140040002349F6FE7282B00193019B5C
:103CE000934201DD02B07047019B01330193F6E777
:103CF000002340F6FE7282B00193019B934201DDE6
:103D000002B07047019B01330193F6E7002382B0B4
:103D10000193019BB3F5CC7F01DD02B07047019B9D
:103D20000133F5E7D0B1012801D1FFF7EFBF0C4B0C
:103D300000211A684FF47A73B2FBF3F2094B013A8F
:103D400092B21A8501220138D8629A825962198288
:103D50001A801A8AD207FCD500221A80704700BF49
:103D6000180000200014004000F1774303F57803A9
:103D7000B3F5804F2DE9F04106460C4617462DD28B
:103D800002F1F73303F608030344B3F5804F25D25D
:103D9000FFF7F4FE804610B10020FFF7CBFE01F0E4
:103DA0008BF901252744361BA7420AD101F094F96B
:103DB000B8F1000F02D04046FFF7BCFE2846BDE830
:103DC000F08141F6027001F08FF9301914F8011BEF
:103DD00001F0E6F9042818BF0025E5E70025EDE726
:103DE00010B50C4600F1774101F57801B1F5804F2F
:103DF0000DD202F1F73303F608030344B3F5804F05
:103E000005D2014620460FF0E5FD012010BD00203F
:103E1000FCE7000008B5114B984215D003F580630C
:103E2000984213D003F58063984211D003F5806364
:103E300098420FD003F5006398420DD0084B094A11
:103E4000142109480FF0A6FC002008BD0120FCE762
:103E50000220FAE70320F8E70520F6E70000024019
:103E6000857A01083F7A01089E7A01080F2808B573
:103E700005D9094B094A3B2109480FF08BFC012366
:103E800003FA00F0C043074A5168014051601368CB
:103E90001840106008BD00BFE77A0108497A0108A0
:103EA0009E7A0108000401400F292DE9F84F82464F
:103EB0000D4693461F4605D95A4B5B4A54215B4831
:103EC0000FF068FC4FF0010909FA05F900F0B8F8A5
:103ED0006FEA0903564E032D7268564C02EA03023C
:103EE0007260326803EA0203534A3360136A43F094
:103EF000010313622ED80F22A3684FEA850802FA45
:103F000008F223EA0203A3605046FFF783FFA36889
:103F100000FA08F01843A0601BF0020F18BFB36846
:103F2000464A1CBF43EA0903B3601BF0040F1EBFDF
:103F3000F36843EA0903F360336843EA0903336033
:103F40003B01DBB2002D45D182F8063340231360DC
:103F5000BDE8F88F072D13D80F22A5F10408E368F8
:103F60004FEA880802FA08F223EA0203E3605046A7
:103F7000FFF750FFE36800FA08F01843E060CBE772
:103F80000B2D13D80F22A5F1080823694FEA8808E2
:103F900002FA08F223EA020323615046FFF73AFFD0
:103FA000236900FA08F018432061B5E70F22A5F154
:103FB0000C0863694FEA880802FA08F223EA020350
:103FC00063615046FFF726FF636900FA08F0184363
:103FD0006061A1E7012D03D182F807338023B6E7A2
:103FE000022D04D182F808334FF48073AFE7032D1C
:103FF00004D182F809334FF40073A8E7042D04D1EB
:1040000082F80A334FF48063A1E7092D04D882F8BF
:1040100017334FF400039AE782F828334FF4807384
:10402000536095E7F37A0108647A01089E7A0108E3
:1040300000040140000001400038024000E100E0BF
:10404000144B984205D1144AD36943F00103D3615C
:104050007047124B984204D10F4AD36943F00203D0
:10406000F5E70F4B984204D10B4AD36943F00403A0
:10407000EDE70C4B984204D1074AD36943F008039B
:10408000E5E7094B9842E3D1034AD36943F02003A3
:10409000DDE700BF0000024000380240000402409B
:1040A00000080240000C02400014024003234900B3
:1040B00010B584688B4024EA030484600124022A3A
:1040C00004FA01F407D0032A0DD0012A07D183682E
:1040D0002343836003E083688A401A4382608368D5
:1040E0001C43846010BD82681343F2E70F29F8B5C2
:1040F00004460F4615461E4603D940211948FFF7CE
:1041000023FB2046FFF79CFF03237A009340DB4309
:104110002168194021600121D4F800C001FA02F0A1
:104120004CEA000CB940C4F800C009B266B1A688D8
:10413000314389B2A180E168012D03EA0103E36004
:1041400006D0022D08D0F8BDA68826EA0101F1E7C5
:10415000E3680343E360F6E7E36805FA02F21A4313
:10416000E260F0E7437B01080F2970B505460C4675
:10417000164603D960210E48FFF7E6FA2846FFF7F6
:104180005FFF032361008B40DB43EA68012E02EAF4
:104190000302EA6005D0022E03D02A6813402B6088
:1041A00070BDEA6806FA01F11143E960F5E700BF66
:1041B000437B01080F2910B505D9074B074A762123
:1041C00007480FF0E7FAFFF73BFF4B0003210268B7
:1041D00099401143016010BDE77A0108FF7A010898
:1041E000437B01080F2938B50446154605D97C21C3
:1041F0001B4B1C4A1C480FF0CDFA0F2A03D91B4B4E
:10420000184A7D21F6E7FFF71BFF07294FF00F0340
:1042100018D8006A8A00934020EA03032362236AC5
:1042200005FA02F21A4322620322236849008A40F7
:1042300023EA020323600223226803FA01F11143F7
:10424000216038BDA1F10802406A9200934020EA43
:1042500003036362636A95401D436562E4E700BF40
:10426000E77A0108127B0108437B0108307B0108D3
:10427000012303FA01F189B201837047012303FA94
:1042800001F189B241837047012303FA01F189B238
:104290000AB10183704741837047008A084100F0EA
:1042A000010070470F2938B505460C4603D9A921EE
:1042B0000548FFF749FA28686400E04000F0030071
:1042C000431E5842584138BD437B0108808A08414B
:1042D000C04300F00100704710B5074C236853B984
:1042E000012005F0C5F9206028B9BDE8104036214D
:1042F0000248FFF729BA10BDD40600208A7B0108C6
:1043000010B50B4C22681AB93C210A48FFF71CFA79
:10431000206842F2107105F0F3FA01280CBF012465
:10432000002403D040210348FFF70EFA204610BDB9
:10433000D40600208A7B010810B5074C22681AB900
:104340004D210648FFF700FA002320681A46BDE811
:104350001040194605F0E8B8D40600208A7B010811
:1043600010B50446FFF7B8FFFFF7CAFF2146102239
:10437000034801F07BFC0446FFF7DEFF204610BD3A
:104380000054004010B5FFF7A7FFFFF7B9FF01F099
:1043900025FC0446FFF7D0FF204610BD08B51346A4
:1043A0000A460146034801F091F8003018BF012089
:1043B00008BD00BF0054004008B513460A46014638
:1043C000034801F089F9003018BF012008BD00BF83
:1043D0000054004008B513460A460146034801F060
:1043E0000FFA003018BF012008BD00BF0054004084
:1043F00008B513460A460146034801F093FA003017
:1044000018BF012008BD00BF0054004008B5134686
:104410000A460146034801F0DFFA003018BF0120C8
:1044200008BD00BF005400400123064A8340516983
:10443000194205D05361044B53F8203003B118479B
:10444000704700BF00040140D80600200F2838B58F
:1044500004460D4603D926210348FFF775F9034B9F
:1044600043F8245038BD00BFD07B0108D806002097
:104470000020FFF7D9BF0120FFF7D6BF0220FFF7CA
:10448000D3BF0320FFF7D0BF0420FFF7CDBF08B58F
:104490000920FFF7C9FF0820FFF7C6FF0720FFF735
:1044A000C3FF0620FFF7C0FFBDE808400520FFF767
:1044B000BBBF08B50F20FFF7B7FF0E20FFF7B4FF13
:1044C0000D20FFF7B1FF0C20FFF7AEFF0B20FFF729
:1044D000ABFFBDE808400A20FFF7A6BFFEE7FEE7F6
:1044E000FEE7FEE7FEE7FEE7FEE7FEE7FEE7FEE7A4
:1044F000FEE7FEE7FEE7FEE7FEE7FEE7FEE7FEE794
:10450000FEE7FEE7FEE7FEE7FEE7FEE7FEE7FEE783
:10451000FEE7FEE7FEE7FEE7FEE7FEE7FEE7FEE773
:10452000FEE7FEE7FEE7FEE7FEE7FEE70A23B0FB55
:10453000F3F203FB120040EA0210C0B27047000021
:10454000CA22024B5A6253225A6270470028004026
:10455000014B1860704700BF180700204FF400326D
:104560000F4B10B50F4C5A61E368DB0503D43021C3
:104570000D48FFF7E9F8FFF7E3FF4FF40072A36877
:1045800023F48853A360094BC3F88420FF2363629C
:10459000074B1B6813B1BDE81040184710BD00BFA2
:1045A0000004014000280040167C010800E100E002
:1045B000180700202DE9FF479A46364B80461B78A6
:1045C00091469DF830709DF834602BB9324B334AD8
:1045D0008C2133480FF0DEF8431E1E2B58D80C29CF
:1045E00056D8A2F5FA63632B52D8BAF1170F4FD8F9
:1045F0003B2F4DD83B2E4BD802F13000C0B2FFF715
:1046000095FF05460846FFF791FF000240EA054581
:104610004046FFF78BFF05435046FFF787FF0446F0
:104620003846FFF783FF000240EA04443046FFF7B4
:104630007DFF20431B4CFFF783FFE36845F40055E3
:1046400043F08003E360E3685B06FCD565602060AF
:10465000E36823F08003E360124BDA689206FCD52E
:10466000FF2201A85A628DF807808DF80810ADF876
:1046700009908DF806A08DF805708DF8046002F0A1
:104680005CFA094BC3E90001012004B0BDE8F087E2
:104690000020FAE71C07002045A301086E7C0108F2
:1046A000167C0108002800402007002007B5037889
:1046B0000193437800938378B0F805200179C0789E
:1046C000FFF778FF03B05DF804FB000038B52B4B13
:1046D00004461B781BB9E4212948FFF735F8294A1D
:1046E000D36823F02003D360D3689B06FCD51368FE
:1046F0005268C2F30741080900EB800001F00F0186
:1047000001EB4001C9B201F5FA61A4F80510C2F34A
:104710000721C1F300108500284401F00F0101EBCF
:104720004001D2B22171C2F3011101EB810102F00B
:104730000F0202EB4102E270C3F30742C2F3011120
:1047400001EB810102F00F0202EB4102A270C3F300
:104750000722C2F3021101EB810102F00F0202EB0A
:104760004102DBB26270C3F3021202EB820203F079
:104770000F0303EB4203237038BD00BF1C0700206A
:10478000167C0108002800401FB501A8FFF79EFF16
:1047900001A802F0D2F905B05DF804FB08B5FFF7F7
:1047A00043FA1B4A136843F480731360FFF7C8FE93
:1047B000184A536B23F4403343F482035363164B7C
:1047C000DA6842F08002DA60DA685106FCD5FF222E
:1047D0001A611A6942F4FE021A619A6822F04002D4
:1047E0009A609A6822F44C529A60DA6822F0800249
:1047F000DA60094BDA689206FCD5FF225A62012280
:10480000064B1A70FFF7C0FF054BC3E9000108BD56
:104810000070004000380240002800401C070020C3
:104820002007002008B5094B1B7823B940F21F115F
:104830000748FEF789FFFFF783FE064B9A6822F4CC
:1048400080729A60FF225A6208BD00BF1C070020D8
:10485000167C01080028004008B5144B1B7833B9BA
:10486000134B144A40F2271113480EF093FFFFF741
:1048700067FE124BDA6822F48072DA60104A91689F
:1048800041F400319160116841F400311160F02170
:104890000C4A82F829134FF4007151609A6842F46F
:1048A00088529A60FF225A6208BD00BF1C07002090
:1048B00045A301087A7C0108167C01080028004005
:1048C0000004014000E100E0F8B51E46194B174610
:1048D0001B7833B9184B194A4FF4A37118480EF0DE
:1048E00059FF184CFFF72CFEA56825F48075A560CC
:1048F000E56825F48075E560FFF718FE0546084673
:10490000FFF714FE000440EA05613846FFF70EFE8B
:1049100005463046FFF70AFE084340EA0520E368F3
:10492000DB07FCD5FF23E0616362BDE8F840FFF7D9
:1049300093BF00BF1C07002045A301085C7C010851
:10494000167C01080028004038B50D46044604F0E6
:1049500001FB194A136823F00103136004F01AFBEA
:1049600025B1164A536843F00603536072B6BFF38D
:104970004F8FBFF36F8F124A0120136823F0030398
:1049800043F4007343F00103136000F089FB0D4B07
:104990001A6942F004021A6130BF1A69022022F03B
:1049A00004021A61FFF708F9034A136843F0010390
:1049B000136004B162B638BD10E000E0002004E0EE
:1049C0000070004000ED00E062B6704700220E4B20
:1049D00010B51A700D4A0E4C1388204623F0400380
:1049E0001B041B0C13800D210222FFF7BDFB204688
:1049F00002220E21FFF7B8FB2046BDE8104002223C
:104A00000F21FFF7B1BB00BF28070020003800408E
:104A100000040240294A38B5136A054643F480531E
:104A20001362052226480C461146FFF7DBFB0522E0
:104A300006212348FFF7D6FB052207212048FFF770
:104A4000D1FBC5B1022205211D48FFF72FFB022231
:104A500006211B48FFF72AFB022207211848FFF70F
:104A600025FB012C1BD144F451740122154B1C80F1
:104A7000154B1A7038BD2A4605211148FFF716FB61
:104A80002A4606210E48FFF711FB2A4607210C484B
:104A9000FFF70CFB012C09D144F45974E5E7022C13
:104AA000E1D0032C0CBF03240024DCE7022CF3D05C
:104AB000032C14BF00240324EEE700BF003802409B
:104AC00000000240003001402907002000220E4B68
:104AD00010B51A700D4A0E4C1388204623F040037F
:104AE0001B041B0C138005210222FFF73DFB20460F
:104AF00002220621FFF738FB2046BDE810400222C3
:104B00000721FFF731BB00BF29070020003001401B
:104B100000000240064B074A988111781A4618890E
:104B2000C00701D40029FAD19089C0B2704700BFF4
:104B30000030014029070020054AD36823F4E063D0
:104B40001B041B0C43F0BF6343F40033D360704776
:104B500000ED00E020220021114B10B5C3F88420A5
:104B6000104B114C1A6A204642F480421A625A696C
:104B700042F480425A615A6922F480425A610B4AD7
:104B800091811A6A092122F480421A620222FFF7F7
:104B9000EBFA2046BDE8104002220A21FFF7E4BAF2
:104BA00000E100E00038024000000240003801400F
:104BB00010B50B4C40F22551204600F060FC48B186
:104BC000204600F03AFC074B1B683BB1BDE81040A3
:104BD000C0B21847A388044ADBB2137010BD00BFEF
:104BE000003801402C070020E44D002010B5044699
:104BF0008021084800F03DFC0028F9D021460548F6
:104C000000F017FC034C4021204600F032FC002845
:104C1000F9D010BD0038014010B5441E14F8010F42
:104C200000B910BDFFF7E2FFF8E7000008B5024841
:104C300000F003FCC0B208BD003801402DE9F0418E
:104C40000F4601214FF4C066804688B008461446DE
:104C50001D4600F069FB01214FF4804000F072FB1B
:104C60003B4B02A93B48CDE9026300F0BFFA0722A3
:104C70000921384800F0FCFA07220A21354800F0E3
:104C8000F7FA452FCDF810803AD14FF48063ADF894
:104C90001830072C40D10023ADF81430052D4CD12D
:104CA0004FF48053ADF816300023ADF81C300C23C0
:104CB00004A92948ADF81A3000F060FB274B1A68A8
:104CC00002B1012240F22551234800F0BAFB012134
:104CD000214800F0A3FBFFF7A9FF25238DF804303E
:104CE0009DF838308DF805304FF48073ADF80630FC
:104CF000FFF722FF01A800F0AFF808B0BDE8F0818F
:104D00004F2F02D1ADF81860C3E70023072CADF890
:104D100018300DD1592107E0082C02D14FF48053EF
:104D2000BAE7092CBAD154210D48FEF70DFDB5E7BD
:104D3000082CB0D0092CB1D1F0E70F2D02D14FF4DF
:104D40004053AFE7022D0CBF4FF400530023A9E7F7
:104D50000202000100000240003801402C07002040
:104D60008F7C01080E2307B5082200934E210123F2
:104D7000FFF764FF03B05DF804FB000070B5134C4F
:104D800040F22551204600F07AFBC0B1104B1D685F
:104D900025B1204600F051FBC0B2A84740F2266181
:104DA0000A4800F06CFB78B140F22661074800F039
:104DB00085FB084B1B683BB1BDE870401847A388D2
:104DC000054ADBB21370E9E770BD00BF0044004044
:104DD0003007002034070020E44D0020BFF34F8F40
:104DE0000449054BCA6802F4E0621343CB60BFF389
:104DF0004F8FFEE700ED00E00400FA0510B5441EF9
:104E0000E3B2052B03D90E211148FEF79DFCFEF7F6
:104E100029FF45F255520F4B1A60DA68D207FCD4CD
:104E2000052C06D8DFE804F0030A0C0E101201224C
:104E30005A604CF6CC42074B1A6010BD0222F7E7CD
:104E40000322F5E70422F3E70522F1E70622EFE764
:104E5000D67C01080030004030B5012403780A4DAB
:104E600003F01F029440C278590952B1074A2B44FB
:104E7000D26842781201D2B283F8002345F821406B
:104E800030BD2031FAE700BF00E100E000ED00E0B6
:104E900008B5084B98420BD101214FF4007000F087
:104EA0005FFABDE8084000214FF4007000F058BAE6
:104EB00008BD00BF0024014043680A7923F0407315
:104EC00023F4807343EA02230A6810B51343436056
:104ED000D1E9032313438A6884681343084A2240B4
:104EE00013434A7943EA420383600A7D036B013A24
:104EF00023F0F873D2B243EA0253036310BD00BF3C
:104F0000FDF7FFC000234FF0407203608380836091
:104F1000C0E90323012303757047836819B143F087
:104F200001038360704723F00103FAE7044B5A68DA
:104F300018B142F400025A60704722F40002FAE706
:104F4000002701401D2970B51BD90725A1F11E06B8
:104F5000C46D06EB4606B54024EA050403FA06F6DE
:104F60002643C665062A38D81F24013A036C02EB93
:104F70008202944023EA040301FA02F21A43026413
:104F800070BD13290DD90726A1F11405C46805EBDE
:104F90004505AE4024EA060403FA05F52543C5603D
:104FA000E0E709290DD90726A1F10A04056904EBF8
:104FB0004404A64025EA060503FA04F42C430461E0
:104FC000D0E70726446901EB4105AE4024EA060418
:104FD00003FA05F626434661C4E70C2A0CD81F24C1
:104FE000073AC36B02EB8202944023EA040301FAFE
:104FF00002F21A43C263C3E7122A0CD81F240D3AE7
:10500000836B02EB8202944023EA040301FA02F26A
:105010001A438263B4E7182A0CD81F24133A436B4F
:1050200002EB8202944023EA040301FA02F21A43DB
:105030004263A5E71F24193A036B02EB82029440F6
:1050400023EA040391401943016399E7836843F01D
:10505000804383607047806D80B270470368194257
:1050600014BF012000207047C94301607047000051
:10507000044B1A6818B142F002021A60704722F01D
:105080000202FAE7003C0240044B1A6818B142F0F1
:1050900004021A60704722F00402FAE7003C024062
:1050A000044B1A6818B142F008021A60704722F0E7
:1050B0000802FAE7003C0240044B5A68D20741BF9D
:1050C000034ADA60034ADA60704700BF003C0240DE
:1050D000EFCDAB8905040302024A536843F0010394
:1050E00053607047003C0240014B9861704700BF1D
:1050F000003C0240084B9A69D10709D49A69D2054D
:1051000008D49B6913F4F05F14BF03200420704798
:105110000120704702207047003C0240042313B571
:1051200004468DF80730FFF7E5FF8DF807009DF87E
:105130000730012B0AD11CB905238DF8073007E091
:10514000FFF7D8FF013C8DF80700F0E7002CF3D003
:105150009DF8070002B010BD10B504464FF40040A2
:10516000FFF7DCFF042804BF0023236010BD00000C
:1051700038B504464FF400400D46FFF7CFFF042832
:105180000BD1064A4FF40040536823F480735360F8
:105190002560BDE83840FFF7C1BF38BD003C024084
:1051A00038B504464FF400400D46FFF7B7FF04281A
:1051B0001BD135B125704FF40040BDE83840FFF7F2
:1051C000ADBFFF2324F0030504F003042968E400C5
:1051D00003FA04F421EA04042846FFF7BDFF214640
:1051E0002846BDE83840FFF7C3BF38BD2DE9F0437E
:1051F0000022012703250E6807FA02F333EA0604AA
:1052000031D14FEA420C05FA0CF4E44391F804E082
:10521000D0F800900EFA0CF804EA09090EF1FF3EEE
:1052200048EA0908BEF1010FC0F8008011D8D0F893
:1052300008E004EA0E0E4C7904FA0CF444EA0E0479
:105240008460848824EA03048B7993409BB22343CF
:105250008380C36805FA0CF423EA0404CB7903FACB
:105260000CF32343C3600132102AC5D1BDE8F0839B
:1052700010B50F2401F00703C90800EB8100016A93
:105280009B009C4021EA04010162016A9A400A43A2
:10529000026210BD204B10B59A6802F00C020C2A75
:1052A00030D8DFE802F02F2F2F2F072F2F2F072FB7
:1052B0002F2F2000194B184A036093681849C3F335
:1052C0000313CC5C0368E34043609468C4F3022496
:1052D0000C5D23FA04F484609268C2F3C2228A5CF3
:1052E000D340C36010BD99680E4CC1F383419A68E6
:1052F000615C9B68094BC2F381524B430132B3FBA3
:10530000F2F3D8E74FF400425B68C3F34233013352
:1053100002FA03F3CFE700BF003802400024F40094
:105320001C0000202C000020054B19B1D969014355
:10533000D9617047DA6922EA0002DA61704700BF7A
:1053400000380240054B19B1196A014319627047D0
:105350001A6A22EA00021A62704700BF003802404F
:10536000054B19B159690143596170475A6922EADD
:1053700000025A61704700BF0038024030B50D4648
:105380000446028AEB8892B222F440521A43898979
:1053900002828389288923F4B052AB8822F00C0260
:1053A0000343688985B003431343A381A38A6846F6
:1053B0009BB223F440730B43A382FFF76BFFDDE93D
:1053C0000213154A944208BF19461923A2894B4378
:1053D000296810044CBF49008900B3FBF1F1642532
:1053E000B1FBF5F3A2891801120405FB13130BD5C9
:1053F000DA003232B2FBF5F202F0070242EA0003B1
:105400009BB2238105B030BD1B013233B3FBF5F3F2
:1054100003F00F030343F3E700380140838919B118
:1054200043F400538381704723F400531B041B0C87
:10543000F8E7C1F30801818070478088C0F3080055
:10544000704701F01F0310B5C1F342140121012C74
:1054500001FA03F105D10C3003683AB11943016038
:1054600010BD022C0CBF10301430F5E723EA010107
:10547000F5E70388194214BF01200020704701237B
:10548000C1F3421210B5012A01F01F0403FA04F31C
:105490000DD182891340028892B26BB10123090AAF
:1054A00003FA01F10A4214BF1846002010BD022A77
:1054B0000CBF028A828AEDE71846F7E70123090A42
:1054C0008B40DB439BB20380704700002DE9F34122
:1054D0001F46002304460E46019315461AB90120C3
:1054E00002B0BDE8F08140F6FF7301934FF4003144
:1054F000204600F014FD002852D10121204600F082
:10550000DEFC4FF2FF71204600F0F2FC0121204644
:1055100000F0BFFC40F6FF73DFF8B881019341460D
:10552000204600F0F1FC002841D0394601222046F7
:1055300000F0D0FC40F6FF73614F019339462046DE
:1055400000F0EDFC002838D0012D42D1002120468A
:1055500000F0B5FC03F0FEFC29462046238B00F04A
:10556000A3FC03F017FD40F6FF73564D0193294647
:10557000204600F0D4FC30B3204600F0B6FC30707A
:1055800040F6FF73504D01932946204600F0C7FCBA
:105590000028A4D0019B5A1E0192002BF4D104E0F4
:1055A000019B5A1E0192002BA0D1002098E7019B7D
:1055B0005A1E0192002BB2D1F7E7019B5A1E0192AD
:1055C000002BBBD1F1E7019B5A1E0192002BCED1DB
:1055D000EBE7022D25D103F0BDFC4FF4006120461E
:1055E00000F086FC0021204600F069FC238B03F0CC
:1055F000D1FC40F6FF73354D01932946204600F05B
:105600008EFC40B10121204600F04EFC238A33700D
:10561000238A7370B4E7019B5A1E0192002BECD1D0
:10562000C3E740F6FF77033D238BDFF8A0803544C6
:10563000AE4201972CD1254E3146204600F06FFC3A
:1056400090B30021204600F03AFC03F083FC204692
:1056500000F04BFC01212870204600F025FC03F0EF
:1056600099FC204600F041FC40F6FF73184E68702C
:1056700001933146204600F047FCD8B1204600F0A7
:1056800034FCA8707CE7019B5A1E0192002B8CD041
:105690004146204600F043FC0028F4D0204600F0AC
:1056A00024FC06F8010BC3E7019B5A1E0192002B54
:1056B000C2D17AE7019B5A1E0192002BD9D174E71F
:1056C0000200001040000010100000100400001044
:1056D00040000300010003002DE9F3411D460023B3
:1056E00004460E46019317461AB9012002B0BDE8E0
:1056F000F08140F6FF7301934FF40031204600F033
:105700000EFC002847D10121204600F0C2FB40F6E4
:10571000FF73DFF8E88001934146204600F0F4FB78
:1057200000283FD029460022204600F0D3FB40F657
:10573000FF732E4D01932946204600F0E5FB00281B
:1057400036D03546204615F8011B3E4400F0CBFB11
:1057500040F6FF77DFF89880B542019733D1244DAA
:105760002946204600F0DBFB002838D020460121E6
:1057700000F09AFB40F6FF731E4D1F4C0193294623
:10578000204600F0CCFB0028AFD0019B5A1E0192AE
:10579000002BF4D104E0019B5A1E0192002BABD1E7
:1057A0000020A3E7019B5A1E0192002BB4D1F7E71A
:1057B000019B5A1E0192002BBDD1F1E7019B5A1E9D
:1057C0000192002BECD04146204600F0A8FB0028B7
:1057D000F4D015F8011B204600F085FBBCE7019BC7
:1057E0005A1E0192002BBBD1DAE700BF82000700EE
:1057F00004000010100000100054004001000300DD
:105800002DE9F3411D46002304460E460193174639
:105810001AB9012002B0BDE8F08140F6FF73019390
:105820004FF40031204600F07AFB002838D10121E6
:10583000204600F02EFB40F6FF73DFF8E480019372
:105840004146204600F060FB002843D02946002254
:10585000204600F03FFB40F6FF732D4D0193294693
:10586000204600F051FB00283AD03546204615F876
:10587000011B3E4400F037FB40F6FF77DFF89480D1
:10588000B542019737D1234D2946204600F047FB0A
:105890000028BED1019B5A1E0192002BF4D104E0D6
:1058A000019B5A1E0192002BBAD12046012100F023
:1058B000FBFA40F6FF73184D184C01932946204619
:1058C00000F02DFB20B1019B5A1E0192002BF5D157
:1058D00000209FE7019B5A1E0192002BB0D1E4E704
:1058E000019B5A1E0192002BB9D1DEE7019B5A1E83
:1058F0000192002BD9D04146204600F010FB002831
:10590000F4D015F8011B204600F0EDFAB8E700BF0F
:105910008200070004000010100000100054004036
:105920000100030000232DE9F3410E464FF400313E
:1059300004461746019300F0F2FA18B9002002B0AD
:10594000BDE8F0810FB90120F9E73546204615F88A
:10595000011B3E4400F0C7FA40F6FF77DFF86C8089
:10596000B54201971FD1194D2946204600F0D7FABC
:1059700028B32046012100F097FA40F6FF73144D3A
:10598000144C01932946204600F0C9FA0028DAD0C9
:10599000019B5A1E0192002BF4D1CFE7019B5A1EA6
:1059A0000192002BCAD04146204600F0B8FA0028E8
:1059B000F4D015F8011B204600F095FAD0E7019BC2
:1059C0005A1E0192002BCFD1B8E700BF040000108F
:1059D00010000010005400402DE9F3411F46002341
:1059E00004460E46019315461AB9012002B0BDE8DF
:1059F000F0814FF4003100F092FA08B90020F5E789
:105A00000121204600F05BFA4FF2FF71204600F0C2
:105A10006FFA0121204600F03CFA40F6FF73DFF8F0
:105A2000B88101934146204600F06EFA00283AD032
:105A300039460122204600F04DFA40F6FF73614FCF
:105A400001933946204600F06AFA002831D0012D32
:105A50003BD10021204600F032FA03F07BFA2946C0
:105A60002046238B00F020FA03F094FA40F6FF73EF
:105A7000554D01932946204600F051FAF8B12046D1
:105A800000F033FA307040F6FF73504D0193294611
:105A9000204600F044FA0028A7D0019B5A1E01922C
:105AA000002BF4D1AAE7019B5A1E0192002BB9D119
:105AB000A4E7019B5A1E0192002BC2D19EE7019BD5
:105AC0005A1E0192002BD5D198E7022D29D14FF40F
:105AD0000061204600F00CFA03F03CFA0021204659
