:020000040800F2
:10000000008000203D3E0008354B0008193E0008E6
:10001000374B0008394B00083B4B0008000000003C
:10002000000000000000000000000000119800081F
:100030003D4B000800000000A1980008E59800086A
:100040003F4B0008414B0008434B0008454B00085C
:10005000474B0008494B0008C94A0008CF4A00082E
:10006000D54A0008DB4A0008E14A00084B4B00086B
:100070004D4B00084F4B0008514B0008534B0008F4
:10008000554B0008574B0008594B00085B4B0008C4
:100090005D4B00085F4B0008614B0008E74A000811
:1000A000634B0008654B0008674B0008694B00086C
:1000B0006B4B00086D4B00086F4B0008714B00083C
:1000C000734B0008754B0008774B0008794B00080C
:1000D0007B4B000839520008195400087D4B00087A
:1000E0000B4B0008B54B00087F4B0008814B000804
:1000F000834B00080000000000000000000000002A
:1001000000000000000000005FF808F110B5054C89
:10011000237833B9044B13B10448AFF300800123B3
:10012000237010BD500500200000000014D5010808
:1001300008B5034B1BB103490348AFF3008008BD6A
:10014000000000005405002014D5010808B503483C
:1001500007F0B2F9BDE8084005F08EB9437D01080B
:1001600005F08AB910B50446C06910B1012112F03A
:10017000B7FD206910B1012112F0B2FD204610BD7B
:100180002DE9F04100259DF81860C0E901120570C5
:10019000C0E90335C0E90555C0E907554562314658
:1001A0000446174600F11C0811F032F838B93946F8
:1001B000074807F081F92021064803F09BFD3246ED
:1001C0004146204611F012F82046BDE8F08100BFFC
:1001D000617D01088C7D0108F8B50025C0E9011298
:1001E0000570C0E90335C0E90555C0E9075545620A
:1001F00006990446164600F11C0711F0EDF938B9CE
:100200003146074807F058F92021064803F072FDEF
:10021000069A3946204611F0A7F92046F8BD00BFDE
:10022000617D01088C7D010870B5AEB000F07AFFE9
:10023000044611F041FE3E4A3E4B11681B680546DC
:100240004B40116912A859400CF064FD234600266A
:1002500053F8580F12AA596808AC03C212A92846CD
:100260000CF0B2FA344B354A009601212046FFF7D4
:1002700087FF2146284611F0C5FE2046FFF772FF92
:100280002F4B304A009303212F4B2046FFF7A4FF4A
:100290002146284611F0B6FE2046FFF763FF2B4BA0
:1002A0002B4A009601212046FFF76AFF2146284687
:1002B00011F0A8FE2046FFF755FF0121254B264AE5
:1002C00000912046FFF75CFF2146284611F09AFE78
:1002D0002046FFF747FF214B214A00930321214B82
:1002E0002046FFF779FF2146284611F08BFE204675
:1002F000FFF738FF28461C4B1C4A1D4911F044FDEE
:1003000006211C4B1C4A08931C4BCDE9051209938E
:100310001B4B07960A9305AB93E807008DE807008F
:100320000B9694E80F0012F065F82EB070BD00BF78
:100330005400F81F5000F81FD07B0108F97B01081A
:10034000477C01083B7C0108027C0108567C0108BF
:10035000807C0108917C0108B37C0108D77E0108EC
:100360000B7D0108C07C010861010008197D0108AE
:100370003D7D01083544000800000808BD43000821
:100380004D01000808B500F065FD00F07FFD00F0AC
:1003900025FD014B187808BDFC09002008B500F0C8
:1003A000C1FEBDE8084000F0F3BE07B58DF80410AB
:1003B00001A98DF805208DF8063002F045F803B04C
:1003C0005DF804FB2DE9F04F87B0FFF72DFFFA2011
:1003D0000AF03CFD11F08AFD11F07AF96B4807F044
:1003E0006BF800F05FFB044600F09CFE00F13C015E
:1003F000204600F05BFB11F079FD0146204600F03D
:100400005BFB40B9624807F057F841F288300AF0C8
:100410001DFD05F031F85F4807F04EF811F066FD5C
:100420005D4E054633685D4C13F0010F04D101F0B9
:100430002BFF012320603360266800F073FE00F17B
:100440005001304601F0E6FD5549206801F0E4FD19
:1004500054492846266811F0F4FB5349024603A884
:1004600001F0C2FD03A9304601F018FE61274F4B91
:1004700003A904934E4B834620680397059301F02C
:100480001DFF4C4A4C4B04924C4A187003A920683B
:1004900001930397059201F011FF494A494E0492D6
:1004A000494A307003A920680397059201F006FFBE
:1004B00070220392454A464F0492002203A93870E5
:1004C00020688DF8142001F0F9FEDFF81C8188F80F
:1004D0000000206802F0F2FF3E498246206802F0E8
:1004E000D7FF3D498146284611F088FB019B3B4DD3
:1004F0001978F0B120682A7880F828103378FFF74F
:1005000054FF31782A780B462068FFF74EFF2068A9
:1005100002F0B2F9324806F0CFFF01224FF4FA712F
:10052000206802F017F900200AF00AFA07B0BDE8C7
:10053000F08F2068534680F828102A78FFF735FF9F
:1005400033782A7851462068FFF72FFF3B782A78C6
:1005500031782068FFF729FF224A4B461278397814
:100560002068FFF722FF3B782A7849462068FFF78A
:100570001CFF98F800302A7839782068FFF715FFBB
:1005800033785A4698F80010BEE700BFA67E0108EF
:10059000C27E0108D87E01086C050020B405002049
:1005A0009D0300083B7C0108F57E010802930108C9
:1005B00085030008017F0108B8050020990700089D
:1005C000067F0108B9050020D10800088C910108B8
:1005D000BB0500200D7F0108F97B0108FC09002004
:1005E000167F0108FB090020BA0500202DE9F04321
:1005F00085B0984614469DF830700E46054611F0B9
:1006000075FC214911F0FAFA81463A46414668469E
:1006100012F0D6FA2146684612F0FCFAB9F1000F42
:100620000CBF022308234FF00A08FF1A2A7896F815
:100630004A329A420BD2684612F0F9FAB8422C7844
:100640000BD396F84A121148091B06F035FF68468D
:1006500012F0EDFA05B0BDE8F083B9F1000F07D054
:1006600008FB0461062201F20B11684612F0B4FA8D
:1006700008FB04646846B4F9121112F0DAFA2B7818
:1006800001332B70D2E700BFB37C01087F7E0108E5
:100690002DE9F04F85B01F46904606460D4611F0F5
:1006A00025FC04463A464146684612F089FA374B23
:1006B0006846197812F0AEFA3549204611F09EFAD4
:1006C000814600F02FFD347800F13C0A0CBB05F1A7
:1006D00001082B78A3421CDD4046514600F0B0FAD9
:1006E0004FEAC40B08F1080868B3B9F1000F06D04F
:1006F0000BF1020106222944684612F06DFA05EB5F
:100700004404B4F90211684612F093FA33780133C5
:100710003370B9F1000F14BF082302233478FF1A95
:100720002B78A34209D9684612F081FAB8420CD35B
:1007300029781848091B06F0BFFE684612F077FAC0
:1007400005B0BDE8F08F0134C3E74FEAC40808F1F3
:1007500001005146284400F073FA98B9B9F1000F2E
:1007600006D008F1020106222944684612F034FA44
:1007700005EB4403B3F90211684612F05AFA3378D4
:10078000013333700134E4B2CAE700BF020700202E
:10079000B37C01085E7E010870B52D4BC0B21B789A
:1007A0008EB0834203D100F055FB00F06FFB04F0E4
:1007B00019FB284BC3E9000100F010FB00F0B2FC6C
:1007C000044611F093FB244911F018FA20B904F102
:1007D0003C01224812F094FD2046002100F0C4FCA8
:1007E000636C04F144051B682846002198470122E8
:1007F00003211B4803F0E2FF636C28465B6800217D
:10080000984702221648114603F0D8FF002301241E
:10081000124D144E8DF803302B789DF8032093422F
:1008200011D921460132304606F046FE322301AA94
:1008300029460DF10300FFF72BFF014601A806F042
:10084000A1FE0134E8E7084B18780EB070BD00BF78
:10085000BA05002010000020807C0108C00500209F
:1008600000000240C57D0108FC0900201FB50A22D6
:100870001449684612F0A4F90021684612F0CAF93A
:100880000421684612F0C6F90121684612F0C2F947
:100890000D4B6846B3F9001012F0CBF90B4B6846CC
:1008A000198812F0D3F9684612F0BFF90446684679
:1008B00012F0BDF92146C2B2012002F081FF04B05E
:1008C00010BD00BFA7050020BC050020BE0500200C
:1008D0002DE9F3412E4BC0B21B782E4C984204D127
:1008E0002D4806F0E9FD002323702C4E2C4DD6E94F
:1008F0000001B1F1004F08BF00280CD0D5E900235A
:10090000121A63EB010398460021264817469042CD
:1009100071EB08030EDA2178234806F0CDFDD5E906
:100920000023C6E90023FFF7A1FF204B187802B08F
:10093000BDE8F08111F0DAFA1D4911F05FF91D4EA2
:100940002578337800280CBF03270227AB4218D93B
:1009500000F0A8F8184B01461A7832230D4800938E
:10096000164BFFF743FE80462278691C3378144803
:1009700006F0A2FD5FFA88F21049384602F020FF27
:10098000D3E729460F4806F097FD0F4BCEE700BF8F
:10099000B9050020A6050020F57D0108080000200B
:1009A0001000002008510100107E0108FB09002002
:1009B000B37C0108C0050020020700207405002058
:1009C000227E0108417E0108FC09002037B500F0B5
:1009D000A9FB0125044603689B689847154B4FF413
:1009E00096720193009500231349144809F0BAFE4A
:1009F00023682946DB68204698474FF4FA7003F0D5
:100A0000BBFC23680021DB68204698470C4806F0B1
:100A100053FD0C4806F050FDC82003F0ADFC0AF071
:100A20007BF840F23111084803F064F9002003B06C
:100A300030BD00BF70050020307F0108C5030008ED
:100A4000397F01084C7F01087D7F0108FF23044A9C
:100A50001370044A1370044A1370044A13707047E9
:100A6000B8050020BB050020B9050020BA0500200C
:100A700010B5827986B0437804924279074C03928C
:100A8000027911210292C278019282782046009266
:100A9000034A15F047FA204606B010BD03070020B0
:100AA000C87F010800487047140700200B680360E6
:100AB0004B68436070470000F8B50D460446264970
:100AC000284611F09BF80021074604F1080684F837
:100AD00008114FF48072304614F0B5FB37B1012392
:100AE00084F808312368A3606368E3601B492846E3
:100AF00011F0A7F800270646337853B394F808316D
:100B00001F2B04D9164806F0D7FC0020F8BD3B2166
:100B1000304606F06DFE054694F80801AB1B013027
:100B20000C2B04F8307001D00E48ECE704EBC00049
:100B300032460621013006F0ECFD0628F4D194F887
:100B40000831013384F808312B7803B101352E4682
:100B5000D2E70120DAE700BF807C01080B7D0108A5
:100B60004D8001087880010800224DF6E24170B501
:100B700000F5857300F24A249C4204D01A605A6042
:100B800019810A33F8E700230A2690F808215C1C33
:100B9000DBB29A420DD906FB03F2013300EBC3032B
:100BA000196802F585728150596885186960234675
:100BB000EBE780F84A2270BDF8B50446FFF758FF0E
:100BC00001461A4806F078FC94F80811184806F017
:100BD00073FC0025174F2E4694F808310135B342B7
:100BE00009DD04EBC500FFF743FF314602463846F6
:100BF00006F062FCEFE794F84A120F4806F05CFC3E
:100C000000260E4F04F5857594F84A32B3420CDD88
:100C10002846FFF72DFFB5F9083002463146384621
:100C200006F04AFC01360A35EEE7F8BDDB80010824
:100C300003810108198101082C8101084081010804
:100C400008B506220131013014F0CAFAB0FA80F07A
:100C5000400908BD2DE9F04F06464FF0000BD9B012
:100C600008AD4FF4A0728A462846002114F0EBFA32
:100C70003046FFF779FF5C469AF800205FFA8BF761
:100C8000BA4246D80A232F464FF0000B6343EA18B6
:100C90000192019A97427CD04FF0000AA3EB0B021D
:100CA00005EB0B080AEB070949463846CDE9023245
:100CB00012F058FBDDE9023218B3D8F80000D8F87A
:100CC00004100DF1140CACE80300B8F808100DF195
:100CD000140EACF80010D9F80010C8F80010D9F8BC
:100CE0000410C8F80410B9F80810A8F80810BEE8F5
:100CF00003004AF80700C9F80410BCF80010A9F86E
:100D000008100AF10A0A9245CCD10A370BF10A0BF6
:100D1000BFE70A2396F8082106F5857903FB0293BD
:100D2000002207F180010AEBC70801930AEB410397
:100D300008F101080293019B99450FD041464846AE
:100D40000392FFF77DFF039A28B1029BB3F90220BB
:100D5000A9F80820024609F10A09ECE71F2C15D86A
:100D6000A2B931464046FFF76BFF78B90A23601CF1
:100D70005C43D8F8002029192A51D8F804200AEB3E
:100D800047074A60B7F80221C4B20A810BF1010B90
:100D900072E700214FF00A0C8C4207DD96F84A32C8
:100DA0001F2B06D9611A0C4806F086FB59B0BDE826
:100DB000F08F5A1C86F84A220CFB01520CFB03638D
:100DC000106803F58577C3F80A0150680131C3F84C
:100DD0000E0113893B81DFE7BC80010838B5002391
:100DE000174C237000F09EF9164900F04BFA0546A7
:100DF00000F098F9436C01215B6844309847124831
:100E000012F0C2F9104812F00DFA0F4812F08CF9E6
:100E100090B10D4812F0B6FA0B490C48FFF71AFFD3
:100E20000A48FFF7C9FE0123237000F07BF9294629
:100E3000BDE8384000F098B9054806F03DFBF4E7FE
:100E40000207002067664640C00500201407002006
:100E50002480010810B500F065F9002100F084F944
:100E600003F03EF9064913F0B1FC13F09BFE84B287
:100E70002146044806F020FB034B20461C8010BD91
:100E800000007A4409800108BE05002038B500F052
:100E900049F9436C00215B684430984700F042F9FF
:100EA000094900F0EFF9054612F002F9044600F096
:100EB00039F9294600F058F92146044806F0FCFAB1
:100EC000034B20461C8038BD67664640E17F010821
:100ED000BC0500207047000038B50A4C05460121CA
:100EE000204603F0EFFC002320461A46012103F0C0
:100EF00027FC85F001022046BDE83840012103F0BF
:100F0000EDBC00BF0000024008B50120FFF7E4FF80
:100F1000BDE80840032004F0BFBA0846FFF7DCBF75
:100F200010B50446642111F0DBFE204610BD000020
:100F3000024B0121186803681B6818476C090020E0
:100F4000021C18BF01220321014803F0C7BC00BFE7
:100F50000004024010B50C460AF070F9022808D1CE
:100F60004FF47A704443B4FBF0F0BDE8104009F050
:100F70006DBF2046BDE8104003F0FEB903210148D3
:100F800003F0B5BC0004024010B5094C094806F056
:100F900093FA20460B2103F095FC002320461A46C5
:100FA0000B2103F0CDFBBDE8104003F0CBB900BF2F
:100FB000000002401785010808B5022003F026F959
:100FC00003F088F900F026FC03F0AEF900F012FE01
:100FD00003F012FF0C4802F057FE4FF4E13004F02A
:100FE0000FFA0A4B1A680AB9094A1A60094B1A68BB
:100FF0000AB9074A1A60084806F05EFABDE80840D8
:10100000064806F059BA00BF090F0008240C00205A
:10101000A1520008280C0020C0810108D8810108D5
:101020002DE9F347044625464FF01B0A12F06EFCEB
:10103000244B04F1210945F8113B102200212846D8
:1010400014F001F952460021484614F0FCF8002340
:101050001D4A1E4F62641E4AC4E90F33A2641D4A32
:1010600084F84C3022651C4AC4E91633626584F862
:1010700060301A4806F020FA3B68DFF86C80019374
:10108000D8F80030164E00933368164A5146484649
:1010900014F048FF3168284606F0F9FAD8F8001035
:1010A00004F1150006F0F3FA396804F1190006F0AE
:1010B000EEFA316804F11D0006F0E9FA204602B0AC
:1010C000BDE8F0877C850108688601086400F81F88
:1010D000B886010810870108D48601084B850108ED
:1010E0005000F81F608501085400F81F10B5094C26
:1010F000FFF762FF2368DB0709D40748FFF790FF7B
:101100000123064A06490448236012F029FC0248DC
:1011100010BD00BF640900207009002000000020FD
:10112000D50E000838B5064D064C2B6813F0010F9C
:1011300004D1FFF7DBFF012320602B60206838BD5E
:1011400068090020D409002008B50B21054803F0E8
:10115000D3FB28B1BDE808400B21024803F0E0BBF7
:1011600008BD00BF0000024008B519B1BDE8084045
:10117000FFF70ABF044806F09FF9BDE808400222C5
:101180000B21024803F01ABB33850108000002401E
:1011900070B504462C4804F1440506F08DF9284644
:1011A000002100F04FFD0021284600F061FD20469F
:1011B00012F0B6FB0BF01AFF20460021FFF7D4FF18
:1011C0000AF02CFE01220C21204803F0F7FA03F06C
:1011D00043FF23682046DB6804F15405002198474B
:1011E0001B4E0021284600F0C9FD03F0F7FB19480B
:1011F00006F062F903F0F2FF03F096F830460122A0
:101200000D2103F0DBFA012230460E2103F0D6FA5D
:101210000021084603F0CCFE04F1480000F03EFD3A
:101220000121284600F0AAFD4FF4E13004F0E8F86F
:10123000094806F041F90AF017FD03F00BFF2046BC
:10124000BDE8704012F07CBBE58401080004024058
:1012500000000240098501080AC3010838B50546A7
:10126000FFF772FF044628B100212846FFF77CFFF4
:1012700003F068F802F034FF05460CB1FFF784FE76
:10128000284638BD70B50C4606461549204613F071
:1012900059FC20B90021204613F036FC70B11149E9
:1012A000204613F093FA13F057FC01460E4806F05F
:1012B00003F940F27F110D4802F01CFD3046FFF7A4
:1012C00043FF054648B93046FFF7C8FF01462046B0
:1012D00013F038FC08B1FFF757FE284670BD00BF79
:1012E0003333534000007A44EE8101081D82010827
:1012F00070B52D4AD6B013680546DB0705D42B49D7
:1013000000F154030B600123136029492846FFF7BD
:10131000B9FF0646274806F0CFF8002105F1440042
:1013200000F0A6FC244C254BE360254B2361254BA4
:10133000A360254B6360254B2360254B6361254BE0
:10134000A361254BE36104F110030FCB8DE80F007F
:1013500094E80F0011F08CFF002305A8EB632B64C9
:1013600011F012FF9DF8143005F13C04012B14D14B
:10137000DDF8153005A8EB63DDF819302B6411F0AA
:10138000D3FE164806F098F80821204606F0FAF831
:10139000BDF91611124806F08FF831462846FFF7BE
:1013A000E3FE56B070BD00BF600900206C0900204C
:1013B0000000404059810108705600207943000820
:1013C00001430008310F00087D0F0008410F00089D
:1013D000B974000835980008759800087A810108EA
:1013E000A08101087FB5F82300F1480504AC06464A
:1013F000284604F8013D00F057FC022321460093E3
:101400000122A123284600F053FC4FF40043082298
:10141000009306F15801A1230446284600F072FC0F
:101420000440E4B2284600F041FC204604B070BD00
:1014300030B58BB0044604F05DF80146584806F01C
:101440003BF8584806F038F8204600F089FB00F0D9
:10145000BDFA00F067FA544806F02EF804F148058A
:101460005248534906F028F8284600F017FC38B9CE
:10147000504806F021F84FF49D714F4802F03AFCB5
:1014800002F060FF2046FFF7ADFF20B940F23F11A8
:10149000494802F02FFC94F85F0094F85A30049009
:1014A00094F85E0094F85920039094F85D0094F845
:1014B0005810029094F85C00019094F85B00009042
:1014C0003E4805F0F9FF284600F02EFA284600F0C5
:1014D0008FFA04F14405002184F86000284600F0EA
:1014E000B1FB012000F0D0FC0021284600F0C0FB39
:1014F000012000F0E7FC2046FFF7FAFE00F0C4FAF6
:101500002F4805F0D9FF4FF4FA7013F039FE054665
:1015100000283ED12B4805F0CFFF2B4805F0CCFF2B
:101520002A4805F0C9FF2A4805F0C6FF294805F0FA
:10153000C3FF294805F0C0FF284805F0BDFF284833
:1015400005F0BAFF274805F0B7FF274A2749284882
:1015500005F0B2FF2749284805F0AEFF274805F0FF
:10156000ABFF04F12101264805F0A6FF25492648D6
:1015700005F0A2FF07A803F0D7FB07A805F0F2FECD
:101580000146224805F098FF104805F095FF0BB082
:1015900030BD1F4805F090FF284613F0F9FDBCE769
:1015A0005D820108738201088A8201089F82010816
:1015B000A0860100BA8201081D820108D0820108BC
:1015C0000583010838830108D57E01087683010868
:1015D000A7830108B6830108D8830108FB830108AB
:1015E0001F840108D67E010842840108488401084E
:1015F00066840108768401087D84010888840108D6
:10160000A8840108B3840108B9840108D3840108BF
:101610006C8301082DE9FF4100F14805284600F0E0
:1016200043FB04240226284F013C14F0FF0432D06F
:10163000A123012239460096284600F039FB4FF4D9
:101640000043804600930422A12302A9284600F00B
:1016500059FBB8F1000FE7D00028E5D09DF808301D
:10166000442B1FD19DF809306E2B1BD10DF10A00C0
:1016700005F0FDFF013084B221460DF109008DF81F
:10168000086006F00DF8002303220093A02302A9AE
:10169000284600F00DFB284600F008FB204604B069
:1016A000BDE8F0814FF488430024ADF808306E2384
:1016B00000210DF10B008DF80A3005F0F1FF0094C8
:1016C000A0230522E3E700BF58810108024B1868F8
:1016D00003685B68184700BFE4090020024B1868E4
:1016E00003689B68184700BFE40900202DE9FF410B
:1016F000002315461370022206460D4F04AC3868CD
:1017000004F8011D03680092D3F80C8001223346CF
:101710002146C04748B14FF4004238682946036863
:1017200000921C6901223346A04704B0BDE8F08155
:10173000E409002030B585B08DF80D200022074B5C
:101740008DF80C101C6803A923680092DD68022242
:1017500003462046A84705B030BD00BFE40900207D
:1017600037B54FF40045064B1C68236800951D698A
:1017700013460A4601462046A84703B030BD00BFC5
:10178000E009002037B50025054B1C68236800954B
:10179000DD6813460A4601462046A84703B030BD1F
:1017A000E009002037B50225054B1C682368009529
:1017B000DD6813460A4601462046A84703B030BDFF
:1017C000E0090020024B186803681B68184700BF37
:1017D000E0090020024B186803685B68184700BFE7
:1017E000E0090020024B186803689B68184700BF97
:1017F000E00900204FF47A735843B0FBF3F009F08E
:1018000025BB10B50446FFF78DFC2146BDE810400E
:10181000FFF700BF10B5424C0AF052FB20460222EF
:10182000002102F0CBFF01222046114602F0C6FF44
:1018300020460122022102F0C1FF2046022203219C
:1018400002F0BCFF20460022042102F0B7FF204630
:101850000222082102F0B2FF20460122092102F0F3
:10186000ADFF204601220A2102F0A8FF20460222F5
:101870000B2102F0A3FF02F057FD002320461A4679
:101880000C2102F05DFF204600220C2103F026F817
:101890002046002204F580640F2102F08FFF2046CD
:1018A0000122002102F08AFF20460022022102F0DC
:1018B00085FF20460022032102F080FF20460222FD
:1018C000062102F07BFF20460022082102F076FF6D
:1018D00020460022092102F071FF204601220C213E
:1018E00002F06CFF204602220D2102F067FF204625
:1018F00002220E2102F062FF204602220F2102F096
:101900005DFF002304F5806420461A460D2102F095
:1019100017FF2046BDE8104000220D2102F0DEBF77
:101920000000024003F068BA1D4B00B51A6889B088
:10193000D2075FBF1B4A106001221A601A4B1B4A74
:1019400004931B4B05931B4B03931B4B02931B4BA5
:10195000079308AB43F8082D93E803008DE80300D4
:1019600002AB0FCB11F034FB90B1154805F0A4FD8C
:1019700000221448114602F021FF0F230222002109
:10198000104802F0BBFD09B05DF804EB11F0BABAE3
:1019900069210D4809B05DF804EB02F0ABB900BF56
:1019A000DC090020E4090020CD160008F517000826
:1019B000DD160008ED16000835170008B974000898
:1019C0000E860108000002401F860108002307B5AB
:1019D000ADF8043001238DF8063001980AF0CCF9F7
:1019E00002F0A2FC03B05DF804EB0AF017BA0000A5
:1019F000194B10B51A688CB0D2075FBF174A106038
:101A000001221A60164B0793164B0593164B06934B
:101A1000164B0893164B0993164B0A93164B0B93D0
:101A20000CAB13E907008DE8070005AB0FCB11F0F5
:101A3000F3F9044601220F21104802F0BFFE3CB129
:101A40000F4805F039FD11F0C5F920460CB010BD66
:101A50000C4805F031FDF8E7D8090020E009002026
:101A60006117000885170008A5170008C5170008AA
:101A7000D5170008E5170008B974000800000240F7
:101A800090850108C38501082DE9F0479EB00AF052
:101A9000A9FDDFF8C890284C284E294F16AD50B943
:101AA000CDE91944CDE91776CDF85890009495E822
:101AB0000F000AF0B1FD234B4FF0000A1793224BA1
:101AC0004FF001081693214B09A91893204B284683
:101AD0001993204BCDE91C76CDE91A340423CDE9C6
:101AE000093A8DF8298006F03FFA06F031FA14F031
:101AF000B1F9514610220CA813F0A5FB164BCDE905
:101B00001044159303238DF836800B9302AC0BAD74
:101B10000FCDCDE91376CDF848900FC42B68236024
:101B200014AB93E803008DE8030010AB0FCB0BF070
:101B300049F91EB0BDE8F087B9740008A575000822
:101B4000D1750008A1BD000869BC000879BB000878
:101B500011BB000825BB000803180008E54D00086C
:101B60002DE9F047044602F0BBFA1E49054612F083
:101B70002DFE12F0F1FF01461B4805F09DFC4FF0D1
:101B80008041284612F0C0FF48B30025DFF860907E
:101B9000DFF85080154E02F0A3FA4946074612F0CE
:101BA000C7FFA8B94146384612F010FE12F0D4FF24
:101BB0000146304605F080FC236885F0010520468B
:101BC000DB68294698474FF47A7002F0D5FBE2E7CC
:101BD00023682046BDE8F047DB6800211847BDE8D0
:101BE000F08700BF00007A44E1850108F385010811
:101BF0000000204008B50D49012002F053FF0C49B8
:101C00000B2002F04FFF0B490A2002F04BFF0A495C
:101C1000042002F047FF0949072002F043FFBDE816
:101C200008400749052002F03DBF00BFB9920008F7
:101C30002D9600087D94000875970008AD96000861
:101C400041970008002310B50C461A460D2107489D
:101C500002F076FD14B1012C00D010BD2246BDE883
:101C600010400D21014802F039BE00BF00080240BB
:101C7000002310B50C461A460C21074802F060FDFF
:101C800014B1012C00D010BD2246BDE810400C213B
:101C9000014802F023BE00BF00000240014802F0EC
:101CA0008BBE00BFA086010002F056BE02F070BEDF
:101CB0002DE9F041069F1E4607F00303032B8046E3
:101CC0000C46154603D12F210D4802F013F820468B
:101CD000BC07324629460AD502F0A8FE10B1012001
:101CE000BDE8F0810123002088F80430F8E7FB0705
:101CF00002D502F0A9FEF1E702F08AFEEEE700BF8E
:101D0000708601082DE9F041069C0D46E1078046EA
:101D100016461F4603D54C210D4801F0EBFFA207E4
:101D200003D54F210A4801F0E5FF23043A46314626
:101D300028460AD502F096FE10B10120BDE8F081D8
:101D40000123002088F80430F8E702F053FEF3E79F
:101D50007086010808B50321034802F0C8FD003071
:101D600018BF012008BD00BF000402400A46024817
:101D7000032102F0B3BD00BF0004024008B581B1E9
:101D8000012303211A460A4802F0DAFC032108481D
:101D900002F098FDBDE8084003220548114602F014
:101DA000AFBC0122BDE808400321014802F006BD96
:101DB0000004024003F016B81FB501A805F094FA1C
:101DC00001A803F0EFF805B05DF804FB03F058B884
:101DD00003F070B8084602F0E7BEDFB50023CDE996
:101DE0000133ADF80C3001238DF807308DF8083041
:101DF0006FF01D038DF809300723044601A88DF804
:101E00000A3005F096FA236806461B6820460F46FE
:101E10009847864277EB0103B4BF0120002004B04D
:101E2000D0BD00002DE9F04385B014461D4602F0F8
:101E3000D9FF80468946261A22462B4601A865EB23
:101E4000010705F051FA4046494605F0B5FA294622
:101E50008046204605F0B0FA39460446304605F083
:101E6000C1FA224603464146064805F025FB01A873
:101E700002F04AFF18B1304639460AF017FC05B0A7
:101E8000BDE8F083E0860108042817D8DFE800F0F9
:101E90000309100E1200002303211A46084802F01D
:101EA0004FBC00220321064802F088BC0222F9E759
:101EB0000122F7E70321024802F0A6BC704700BFE9
:101EC00000000240042817D8DFE800F00309100ED4
:101ED0001200002302211A46084802F031BC0022F9
:101EE0000221064802F06ABC0222F9E70122F7E764
:101EF0000221024802F088BC704700BF0000024087
:101F00001FB50B46546801780294127801925A6802
:101F1000009242681B68024805F0CEFA04B010BD7A
:101F20002C87010810B50446C06908B105F03AFBDA
:101F3000206908B105F036FB606808B105F032FB96
:101F4000204610BD10B50446006808F02BFB204663
:101F500010BD0000CB21014801F0CCBE4A8701082A
:101F6000FE2307B502A901F8043D054B18680023BC
:101F700000681A4608F006F803B05DF804FB00BFDD
:101F8000F4090020D0B51F467423C0E900310023B6
:101F9000044683600820164610F082FEC0E9006700
:101FA000A0602046D0BD0000036837B5632B05460E
:101FB0000C4601D0FFF7CEFF002302AA42F8043DF1
:101FC000A968204605F05EF8019A3AB12146044816
:101FD00005F072FA3821034801F08CFE03B030BDE1
:101FE0008C870108B987010870B563230025C0E913
:101FF0000031044685601A20164610F051FE1A2260
:10200000294613F020F93146A0602046FFF7CCFFA7
:10201000204670BD81647047C16470472DE9F84364
:10202000D0E90173884600254FF00C09DB1B0A4EEE
:102030009B105E43ECB2B4420BD209FB04724146E2
:10204000506813F0D0FF01350028F3D12046BDE8D9
:10205000F8834FF0FF30FAE7ABAAAAAA2DE9F843BC
:10206000D0E90473884600254FF00C09DB1B0A4EAB
:102070009B105E43ECB2B4420BD209FB04724146A2
:10208000506813F0B0FF01350028F3D12046BDE8B9
:10209000F8834FF0FF30FAE7ABAAAAAA2DE9F04186
:1020A0000E4649680446FFF7B9FFC0B2FF2807D0C3
:1020B00071682B4805F000FA7C212A4801F01AFECD
:1020C000D4E90123284F9B1A9B107B437E2B03D915
:1020D0007F21244801F00EFED4E901120C25E068AE
:1020E000531A9B10121A7B4392107A430133934286
:1020F00005FB03F80ED84144A160D4E9013496E809
:102100000700E31A04E9070017489B1058430138F9
:10211000BDE8F081404605F05BFA054618B9692133
:10212000124801F0E7FDD4E901C30027A3EB0C033B
:102130009A100D4B5343002B09DD05EB070E0CEBFA
:10214000070207CA013B8EE807000C37F3E7604639
:1021500005F028FA65604544C4E90255CDE700BFA3
:10216000078D0108B9870108ABAAAAAA278D010823
:102170001FB56E23CDE90131002301A90393FFF7B9
:102180008DFF05B05DF804FBFF2270B5002380F8D9
:1021900028204FF000424FF0FF31C0E90D23C26309
:1021A0006FF07F42C0E910120522C0E90033C0E998
:1021B0001423C0E902330022C0E90433C0E9063326
:1021C000C0E908330363C0E9123383654FF000436D
:1021D0001E4DC0E918232A68044612F0010213D1EB
:1021E00001211B4E08463260716007F0F1FD30603E
:1021F00018B95021174801F07DFD0123164A1749EF
:1022000013482B6011F0ACFB154B1A680AB9104A41
:102210001A6014492046FFF7ABFF134B134918709F
:102220002046FFF7A5FF124B124918702046FFF712
:102230009FFF114B114918702046FFF799FFFE22AE
:102240000F4B18700F4B20461A7070BDF00900201C
:10225000780A0020678E010800000020451F000852
:10226000F4090020A18E0108FC090020A98E0108B4
:10227000FA090020B18E0108F8090020B68E010885
:10228000FB090020F909002010B5084C2368DB0782
:1022900009D40748FFF778FF0123064A0649044896
:1022A000236011F05DFB024810BD00BFEC09002067
:1022B000100A002000000020251F00082DE9F04131
:1022C0000E4649680446FFF7C9FEC0B2FF2807D092
:1022D00071682B4805F0F0F887212A4801F00AFDC3
:1022E000D4E90423284F9B1A9B107B437E2B03D9F0
:1022F0008A21244801F0FEFCD4E904120C25A069CF
:10230000531A9B10121A7B4392107A430133934263
:1023100005FB03F80ED841446161D4E9043496E822
:102320000700E31A04E9070017489B1058430138D7
:10233000BDE8F081404605F04BF9054618B9692122
:10234000124801F0D7FCD4E904C30027A3EB0C0327
:102350009A100D4B5343002B09DD05EB070E0CEBD8
:10236000070207CA013B8EE807000C37F3E7604617
:1023700005F018F925614544C4E90555CDE700BFCE
:102380005F8D0108B9870108ABAAAAAA278D0108A9
:1023900038B5D0E901239B1A074A9B105343CDB2AD
:1023A0009D42044603D3A621044801F0A3FC0C205F
:1023B000636800FB053038BDABAAAAAAB98701083B
:1023C00038B5CCB2114905460B6813F0010307D1AB
:1023D0000F4A70201372012310600E480B6050608A
:1023E000FF2C10D0D5E904239B1A0B4A9B105343B2
:1023F0009C4203D3B221094801F07CFC0C232869DC
:1024000003FB040038BD0248FCE700BFE8090020D8
:10241000000A002039880108ABAAAAAAB9870108D6
:1024200010B5D0E90730C9B2D2B2834209D01C78C6
:102430008C4204D15C78944201D1987810BD03336A
:10244000F3E74FF0FF30F9E72DE9F041D0E904233D
:102450009B1A514A9B1053430D46097804469942F2
:1024600003D393214D4801F045FCD4E901239B1A85
:10247000494A9B1053436978994203D394214748B2
:1024800001F038FCD4E904239B1A434A9B105343C0
:10249000A978994205D3FE2903D095213F4801F040
:1024A00029FC6A7829782046FFF7BAFFC3B2FF2BD0
:1024B00006462CD03A4804F0FFFF29782046FFF763
:1024C0007FFF697807462046FFF762FF3146804666
:1024D0002046FFF775FF414602463846FFF710FDDC
:1024E00029782046FFF76CFF697806462046FFF7FB
:1024F0004FFFA97807462046FFF762FF394602469C
:102500003046FFF7FDFC9C21244801F0F3FBD4E9A1
:102510000723214F9B1A7B437E2B03D99F211F4802
:1025200001F0E8FBD4E90762616A931B7B43521A0E
:1025300057430133BB4203EB43080AD846442662A3
:102540002A88236A23F8032CAA7803F8012CBDE813
:10255000F081404605F03CF8064618B9692111485B
:1025600001F0C8FBD4E90702131A0B4A5A430023AF
:10257000002A0ADDC118B1F800C0F71826F803C018
:102580008978013AB9700333F2E705F00BF8E66198
:1025900046446662D3E700BFABAAAAAAB98701087E
:1025A0001E880108278D010813B5FF24084A02ABD5
:1025B000106803F8044D0A460068194607F086FDC6
:1025C000012814BF20469DF8040002B010BD00BFD2
:1025D000F409002038B5816800681D46144605F0EE
:1025E000B2F80346201845EBE37138BD08682DE9C1
:1025F000F04172281F4622D0742812D0632823D1BC
:10260000886804F0FFFD002871F1000304460D46C0
:1026100011DA0F4804F050FFDD210E4801F06AFB8B
:1026200009E08B68D3E90045B5F1004F08BF002CE5
:1026300001D0A4187D4120462946BDE8F081886874
:10264000BDE8F041FFF7C6BF00244FF00045F2E7B8
:1026500080890108B98701082DE9F0470F46064631
:10266000FFF7AEFE0024DFF85C9042680178FFB20D
:10267000124804F021FFD6E90758454516D02B78BB
:10268000BB4211D169783046FFF782FE01686929A3
:102690000AD1D0E9012A484604F00EFFDAF80030EA
:1026A00003B198470134E4B20335E6E72146044814
:1026B00004F002FF2046BDE8F08700BFA6890108AC
:1026C000EF890108CD8901082DE9F34707468846BF
:1026D000FFF776FE0025426801781B4804F0ECFE07
:1026E000FC693E6ADFF86890033403365FFA88F8C5
:1026F000A64220D0234633F8032D9B78ADF8042062
:102700008DF8063014F8033C984512D19DF8051059
:102710003846FFF73DFE016869290AD1D0E9012A50
:10272000484604F0C9FEDAF8043003B19847013591
:10273000EDB20334DCE72946044804F0BDFE284628
:1027400002B0BDE8F08700BF0D8A01085A8A01086F
:10275000368A0108836C73B504460D46164623B9C4
:102760004FF48C710D4801F0C5FA0D49CDE90064B4
:1027700023462A460B4807F0F5FF012801460AD0F8
:10278000094804F099FE4FF48F71044802B0BDE887
:10279000704001F0AFBA02B070BD00BFB987010848
:1027A000D58C010865300008E08C010838B590F838
:1027B00047300446032B0D4604D940F23111064838
:1027C00001F098FA94F847305A1C84F847201C44CA
:1027D00084F8425038BD00BFB987010810B590F8A1
:1027E0004730044623B94FF49B71064801F082FA42
:1027F00094F84730013BDBB284F847301C4494F82E
:10280000420010BDB9870108CBB2FE2B37B5054693
:1028100005D1104803B0BDE8304004F04DBEFFF7CD
:10282000CFFD016804466D290DD1017A2846FFF7D6
:10283000C7FD436800930368D4E90012064804F01A
:102840003BFE03B030BD4268044803B0BDE83040F1
:1028500004F032BE008E0108088E0108668B010864
:1028600008B5FFF795FDBDE80840D0E90012014822
:1028700004F022BE7F8D01082DE9F74F04462A4857
:1028800004F01AFE4FF00008284FDFF8B0A0DFF880
:10289000B090D4E90431C91A891079435FFA88F6F7
:1028A000B14232D9504604F007FE20463146FFF7C8
:1028B000ABFF94F82830DFF88CB0B3420CBF1C4853
:1028C000484604F0F9FDD4E907531A4AAB4219D03F
:1028D0002978B14214D110460193009204F0ECFD26
:1028E00069782046FFF7BCFF584604F0E5FDA9785B
:1028F0002046FFF789FF484604F0DEFDDDE90023AE
:102900000335E3E708F10108C3E7D4E907239B1A7D
:10291000D4E90102121A92107B437A43064803B0AD
:10292000BDE8F04F04F0C8BD878D0108ABAAAAAA84
:102930009F8D0108AB8D0108BC8D0108968D0108A3
:10294000D67E0108B88D01082DE9F041042290F8E7
:1029500047100546104804F0AFFD0024DFF844801E
:102960000E4E95F84730A34210DD2B1993F8421014
:102970002846FFF725FD476814B1404604F09CFD4A
:102980003946304604F098FD0134EAE70448BDE8D2
:10299000F04104F091BD00BFF08D0108FA8D0108EF
:1029A000FD8D0108F88D010800232DE9F74FC0E9DE
:1029B000083388461946D8E907594FF000430446C2
:1029C000C0E90613C0E90013C0E90213C0E904130B
:1029D000FF208A469B46D2B284F8200001924D45E2
:1029E000D4E9006720D02B78019A93421AD16978F4
:1029F0004046FFF7CDFCDDE90C2301464046FFF7DA
:102A0000F5FD594508BF50450CD05F4508BF5645F8
:102A100003D0B04271EB070304DA6B78C4E900011C
:102A200084F820300335DAE7B7F1004F08BF002EF5
:102A300008D0DDE90C23B21A67EB030316461F46E4
:102A4000C4E90467204603B0BDE8F08FF8B50D4631
:102A50000E4B896906464B434FF47A71B3FBF1F193
:102A6000FFF7A2FD0446C7B2B06C03681B68984725
:102A7000C6E90E0104F0A0FC0146054804F01CFD67
:102A8000FF2F0CBF95F820002046F8BD40420F00F4
:102A9000FB87010838B5C36C04460D4643B920488E
:102AA00004F00AFD29462046BDE83840FFF7CEBFB6
:102AB000806C1C4903685B699847A06C0368DB68FD
:102AC0009847D5E9020104F077FC0146164804F066
:102AD000F3FCA06C03689968D5E902238847A06CD1
:102AE00003681B699847E36C9847A06C0368DB6830
:102AF0009847A06C03681B689847C4E90E0104F06E
:102B00005BFC0146094804F0D7FC00212046FFF792
:102B10004BFDC0B2FE2808BF95F8200038BD00BFAD
:102B2000168E0108611F0008348E0108478E0108C7
:102B30002DE97043D1E90689B9F1004F08BFB8F11A
:102B4000000F06460D4608D11AB1BDE87043FFF7E5
:102B50007DBFBDE87043FFF79DBFB8F1010F79F16C
:102B600000030CDA58EA090302D0284804F0A4FC58
:102B7000274804F0A1FC95F82000BDE8708312B34B
:102B8000244804F099FC29463046FFF75FFF95F88A
:102B90002030C4B2A34235D1D6E90E89D5E900234D
:102BA000904579EB03011EDAB2EB080263EB0903EF
:102BB0001946104604F016FC0146174804F07CFC48
:102BC000FF242046D9E7D0E91423904579EB03038D
:102BD00001DA1248D5E7124804F06EFC2946304667
:102BE000FFF758FFD3E7B8EB020069EB03010228B7
:102BF00071F10003E5DB04F0F5FB0146094804F040
:102C00005BFCDEE7084804F057FCDAE7EB8B0108D1
:102C1000108C0108288C0108808C0108488C010860
:102C2000668C01089F8C0108BE8C01082DE9F04FCD
:102C30008DB004468846FFF7C3FB03680546702B3A
:102C400004D04FF49E716F4801F054F8A06C0368F3
:102C50001B6898474246C4E90C01CDE900012146B2
:102C600002A8FFF7A1FE41462046FFF7F5FC9DF8BC
:102C700028300646FF2B0AD148B9297862486A688D
:102C800004F01AFC40F247115E4801F033F8D4E931
:102C90000C0104F091FB01465C4804F00DFC314648
:102CA0005B4804F009FC9DF82810FF2940F0818062
:102CB000584804F001FC00224FF00043CDE9062300
:102CC000DDE90223CDE90423DDE90623CDE908236C
:102CD000A36D13B39847DDE90223D4E91801B3F1DA
:102CE000004F08BF002A09D0DDE9062310F10B06CA
:102CF00041F10007964277EB03030EDAD4E90C2387
:102D0000161843EB0107CDE90801CDE9046704F08B
:102D100069FB0146404804F0CFFB4FF0000A4FF03A
:102D2000004BDFF800912A7A02A92046FFF700FF46
:102D3000A36D064603B19847F3B2FF2B5AD1DDE9E4
:102D40000223D4E90E01161A63EB01073946304617
:102D5000CDE90423CDE90667CDE9086704F042FB1D
:102D60000146484604F0A8FBA36D002BDBD0DDE94B
:102D70000223D4E918015B4508BF524509D0DDE9BB
:102D8000062310F10B0641F10007964277EB03038F
:102D9000C9DAD4E90E23161843EB0107CDE908017F
:102DA000CDE9046704F01EFB01461B4804F084FBD8
:102DB000B9E72046FFF7ECFAD0E90067DDE9020148
:102DC00004F0FAFA3A4603463146144804F074FB1C
:102DD000D4E90C23DDE90201801A61EB03010F46FF
:102DE0000646CDE9066704F0FDFA01460C4804F0FA
:102DF00063FB65E741462046FFF766FC30460DB0B1
:102E0000BDE8F08FB987010878880108AB88010810
:102E1000CA880108E588010840890108FE88010880
:102E2000228901085889010870B504460D46FFF74C
:102E3000C7FA03686D2B11D0702B09D0612B14D108
:102E4000836894F8411094F84000BDE8704018473A
:102E500029462046BDE87040FFF7E8BE034840F22F
:102E60002B1100F047FF4FF0FF3070BDB98701080C
:102E70002DE9F74F04466B4804F01EFB6A4804F046
:102E80001BFB6A4804F018FB674804F015FB94F834
:102E90002830FF2B04D14FF4E371654800F02AFF7E
:102EA00094F828102046FFF78BFA426801786148B1
:102EB00004F002FB94F82830DFF8A4B1DFF8649145
:102EC00084F8463094F846102046FFF779FA0368F4
:102ED00080466D2B1BD14168574804F0EDFA94F8F9
:102EE00046102046FFF762FC98F80810204684F848
:102EF0004610FFF765FA42680178504804F0DCFAA2
:102F00002046FFF721FD484604F0D6FADAE794F8A8
:102F100046102046FFF788FFC3B2FF2B06460ED1AE
:102F2000474804F0C9FA40F2DB11414800F0E2FEE4
:102F300040F2DB11434B444A3D4812F00DF8024683
:102F400094F846102046FFF76BFAC5B2FF2D0CD15E
:102F50003E4804F0B1FA40F2E111354800F0CAFEF3
:102F6000384B394A40F2E111E6E794F84610FE2D5D
:102F7000204636D1FFF732FC014607462046FFF7D0
:102F80001FFAD8F8042098F800108246304804F060
:102F900093FA324639462046FFF742FAC5B2FF2D72
:102FA00012D131462046FFF7F3F9D0E90012294843
:102FB00004F082FA40F2ED111D4800F09BFE214B17
:102FC000214A40F2ED11B7E7DAF80410584604F050
:102FD00073FA2046FFF7B8FC484604F06DFA39460C
:102FE000C5E7FFF7EDF9314607462046FFF7D0F970
:102FF000294680462046FFF7E3F90190164804F081
:103000005BFA164804F058FA019A41463846FEF732
:1030100077FF94F8463084F8416084F8403084F8B3
:1030200046504FE7D67E01087A8A0108998A01083E
:10303000B9870108B88A0108D68A0108F58A01080B
:103040000C8B01082F8B0108BE8E0108358B0108FF
:103050004F8B01086E8B0108C58B0108DB8B0108C3
:10306000AF8B010808B5FFF70FF9FFF701FF00006C
:103070002DE9F8431F461646FFF78AF9B7F1004FCE
:1030800008BF002ED0E9005884681AD0742D01D0F2
:10309000FEF760FFD4E9000104F0A4F93946814647
:1030A000304604F09FF94A46034641460A4804F078
:1030B00003FA742D01D0FEF74DFFC4E90067BDE8A7
:1030C000F883742D01D0FEF745FFD4E9000104F028
:1030D00089F9024B0246E8E7478801086C88010835
:1030E000836C10B5044623B94FF42671024800F0F2
:1030F00001FEA06C10BD00BFB9870108FF23054A7F
:103100001370054A1370054A1370054A1370054A77
:1031100013707047FC090020FA090020F80900200C
:10312000FB090020F909002010B50446006807F0EB
:1031300039FA204610BD00002DE9F34809F0A6FF3A
:103140004FF6FF712D4A2E4C13888B421CBF013362
:103150001380FFF799F8FFF7C3FF03681B689847D0
:10316000637806460F4603BB264BDB88EBB1264A45
:10317000D2E900BCBCF1004F08BFBBF1000F0FD07B
:1031800083457CEB010210DA204AB0EB0B0002FB16
:1031900003F261EB0C01D317904271EB030304DBE4
:1031A0001B4804F089F9012363700023ADF8043053
:1031B00063782BB101238DF80430134BC3E900670A
:1031C0002378144CABB1012513488DF8055004F059
:1031D00073F92570114A12491248019B1278097837
:1031E00000680AF0C5F830B10F4B187802B0BDE89E
:1031F000F0882370EEE70D4BF7E700BFBE0A002012
:10320000A00A0020AC0A0020280000208051010004
:1032100027900108A90A002050900108A30A002065
:10322000A20A00209C0A0020F8090020FA090020C8
:1032300008B5164BDB882BB9154804F03DF9154B42
:10324000187808BD144BD3E90023B3F1004F08BF31
:10325000002A01D01148F0E7114B19780131C9B2A9
:103260000129197001D90F48E7E70F4804F024F944
:1032700000230E4A13700E4A13700E4A13600E4A52
:103280001370012353700D4BDAE700BFAC0A002026
:1032900065900108F80900202000002081900108B5
:1032A000D00A00209B900108B2900108A30A0020D8
:1032B000A20A00209C0A0020A00A0020FB0900208E
:1032C0001FB56123CDE9013101A90392FEF7F6FF95
:1032D00005B05DF804FB1FB57023CDE90131002373
:1032E00001A98DF80C30FEF7E9FF05B05DF804FB8D
:1032F0002DE9F04F4A4B85B01A780446002A40F079
:103300008B80012747491F70FEF732FF464B474924
:1033100018702046FEF72CFFDFF868A144498AF8B0
:1033200000002046FEF724FFDFF85C910A2200230C
:1033300089F800003F4901A8FEF724FE01A92046B4
:10334000FEF7ACFE3C4E3D4930702046FEF710FFC4
:103350003B4B3C4918702046FEF70AFF3A4B3B496D
:1033600018702046FEF704FF394B3A491870204682
:10337000FEF7FEFE384B394A187039492046FFF7F0
:103380009FFFDFF808B1374A8BF800003649204626
:10339000FFF796FF354905462046FFF79CFF70234F
:1033A0000193334B804601A9204602938DF80C709F
:1033B000FEF784FF07462F4A2B4612789BF8001031
:1033C0002046FCF7F2FF43469AF8002029462046A3
:1033D000FCF7EBFF3B4699F8002029462046FCF716
:1033E000E4FF2B46327841462046FCF7DEFF2B46B1
:1033F000327839462046FCF7D8FF1F4A2B46127810
:1034000029462046FCF7D1FF1C4B1D4A1B78127839
:1034100029462046FCF7C9FF05B0BDE8F08F00BF84
:10342000D10A00207D910108A40A0020879101089B
:10343000929101089E910108890A0020AB91010830
:10344000BD0A0020B9910108BC0A0020C5910108FD
:10345000C00A0020D2910108C10A002039310008B9
:10346000E0910108B13B0008EA910108FE910108D2
:1034700011920108F8090020FB090020F909002039
:10348000FC090020A80A0020880A0020A60A0020C3
:1034900030B5044685B00D46FFF72AFF6D22064B76
:1034A00001A91B782046CDE901258DF80C30FEF7E7
:1034B00005FF05B030BD00BFA60A00202DE9F84F7A
:1034C000424B434D1A68044612F0010F01BFFF2220
:1034D0002A7001221A602B78FF2B73D1FFF708FFA7
:1034E0003C4A3D492046FFF7EBFE3C4A28703C49E8
:1034F0002046FFF7E5FE3B4F3B4A38703B492046EC
:10350000FFF7DEFE3A4E3B4930702046FFF7C0FF22
:10351000394982462046FFF7DEFE38498346204679
:10352000FFF7D9FE8146364A3B7812782978204643
:10353000FCF73BFF334ADFF8E080337812782978D4
:103540002046FCF732FF337898F80020397820467F
:10355000FCF72BFF2B7898F8002031782046FCF7F9
:1035600024FF294A5B46127839782046FCF71DFF74
:1035700026493B780A7820465946FCF716FF244A2C
:103580004B46127839782046FCF70FFF1F493B78ED
:103590000A7820464946FCF708FF1A4A5346127833
:1035A00031782046FCF701FF337898F80020514627
:1035B0002046FCF7FAFE174A2B781278317820461D
:1035C000FCF7F3FE2878BDE8F88F00BF840A0020DE
:1035D000D30A002031390008FD9201083D36000869
:1035E00007930108A50A0020313200081193010851
:1035F000A70A00201B9301082793010835930108AF
:10360000A40A0020FB090020A80A0020890A002043
:10361000FA090020F8090020FC09002070B50D46C9
:103620000446FEF731FE044922462B46BDE87040B1
:103630000978FFF71DBD00BF890A0020F8B5524D7B
:10364000524829682F460131296003F035FF09F0FF
:103650001DFD09F04DFD44F6206009F037FD41786D
:103660000646032908D04A4803F026FF304603F0F7
:1036700099FF0120002156E00478466803F092FF8C
:10368000012C5BD1434803F017FF2B68042B0FD9A3
:103690000EF02CFC03785BB13F4803F00DFF4FF4B4
:1036A0007A7007F0D3FB40F29F113C4800F022FBF8
:1036B0003B681E22013BDBB21E2B28BF1E23A3F159
:1036C0002005C3F1200402FA05F122FA04F40025D2
:1036D00021434FF4E14402FA03F08D4208BF8442D3
:1036E00025D3002908BFB0F5616F06460F4620D2EA
:1036F000B0F5167F71F100031EDA3C2871F100036A
:10370000ACBF11460A21002004F01DF8341847EB25
:10371000E0752946204603F065FE0146204803F087
:10372000CBFE20462946FFF779FF1E4B11E02646C7
:103730002F464FF41671E6E73C21E4E7022C0AD14C
:103740003146194803F0B8FE30460021FFF766FF06
:10375000164B1878F8BD8CB915482C6003F0ACFEF8
:1037600009F044FCFEF790FDFFF7BAFC03681B6804
:103770009847104BC3E900010F4BEAE70F48214679
:1037800003F09AFE0A2075E7CC0A0020E38E0108B8
:10379000F68E0108178F01082E8F01087B8F010814
:1037A000C78F0108FA090020DD8F0108A80A002050
:1037B000F28F010818000020FC0900200290010887
:1037C000054B1870054B1A700022054B1960054B0C
:1037D0001A705A70704700BFA30A0020A20A002086
:1037E0009C0A0020A00A0020022818BF002009F02F
:1037F00091BF0000F8B53B4B05461E78002E6FD1F7
:1038000001271F7009F0ECF8374928460EF010FA2E
:10381000C31F052B354C42D820710E23344928464E
:1038200063710EF00EFA3349074612F0DCFB0028F4
:103830003AD1E060304928460EF0E0F92F49607037
:1038400028460EF0F5F9B0F57A7F3AD8E0802C4999
:1038500028460EF0EDF942F21073984236D82081D6
:10386000284928460EF0CAF92749A07028460EF0CC
:10387000DFF9B0F57A7F2ED26081244928460EF018
:10388000BDF9E07036B1224803F016FE71212148DF
:1038900000F030FAE068BDE8F840FFF7A5BF1E4829
:1038A00003F00AFE3E46B8E71C49384612F09BFB7F
:1038B00010B90223E360BDE7194803F0FDFD0126BE
:1038C000B8E7184803F0F8FD0126C0E7164803F0F2
:1038D000F3FD0126C4E7154803F0EEFD0126CCE711
:1038E000F8BD00BFD20A002025920108AC0A0020D2
:1038F0003E920108E89201084CB801086192010863
:1039000088920108B0920108BB920108E592010873
:10391000EA9201087B8F01082892010831A701086B
:10392000459201086A92010891920108C692010825
:1039300070B5224BC0B21B78984206D10EF0D6FA71
:103940000EF088F91E4B187870BD1E4D0EF0CEFAA1
:10395000FFF750FF95F905000BF05AFE09F0ECFD5A
:1039600028790BF023FE09F0DBFD687809F0BCFE36
:10397000154B1A681C4612F0010213D10421134E94
:1039800008463260716006F023FA306018B95021A1
:103990000F4800F0AFF901230E4A0F490B4823608E
:1039A0000FF0DEFF0D4B1A680AB9084A1A60EB786F
:1039B0000BB10B4BC7E70B4BC5E700BFA70A0020B5
:1039C000FC090020AC0A0020800A0020C40A002064
:1039D000678E010800000020293100088C0A0020B1
:1039E000A40A0020FB090020034B93F83230022B7D
:1039F0000CBF022000207047A8000020F8B51D462B
:103A000000234171BDF8181004460360C1801746B9
:103A100002B115B923712046F8BD074928460FF0B9
:103A20005BF9064610B920712660F4E72A4639464C
:103A300011F0E5FB2571F7E714D2010810B5044633
:103A4000006808B10FF04AF9204610BD2DE9FF418A
:103A500042F2107009F03AFB0546464803F02CFD8F
:103A6000002D00F085802F78022F03D16868002197
:103A7000FFF7D4FD404ED5F89840336823B940F2A3
:103A8000CD113E4800F036F9002C62D000223C4BAC
:103A90001A80D4E91C23134321D03A4BD3F8008079
:103AA00007F082F801463848C047D4E91C0103F00A
:103AB00083FC226F0146354803F0FEFCD4E91C2349
:103AC0003349C1E900233349C1E90023FEF7DCFB98
:103AD000FFF706FB03685968D4E91C238847FEF703
:103AE000D3FBFFF7FDFA03681B6898472A4B2B4A64
:103AF000C3E90001237AC3F3C0031370637F43B3A8
:103B0000237F33B3264908200FF0DCF8804630B11C
:103B10006289237F617F0092A26EFFF76FFFCDF86D
:103B20000C80B8F1000F14D0002330681A4603A9A6
:103B3000006806F071F901280BD01A4803F0BCFCAC
:103B4000039C34B12046FFF779FF082120460FF08F
:103B5000C7F82B7A2BB1144803F0AEFC0022134BAC
:103B60001A7028460AF03AFB384604B0BDE8F081E6
:103B70000127F9E7CD9001088C0A00207B8F01080E
:103B8000BE0A0020A8000020EB900108F890010870
:103B9000200000202800002018000020C20A002079
:103BA00014D201082591010850910108A90A0020AA
:103BB000002310B5134C84F8373009F045FA08B1EA
:103BC00009F064FAFFF742FF01280AD00CD302285B
:103BD0000DD00D484FF42E7100F08CF84FF0FF30EF
:103BE00004E00A4803F068FC094B187810BDFFF7A1
:103BF000FBFE022809BF0123064B84F83730064B31
:103C0000F3E700BFA80000207B8F01086391010843
:103C1000FC090020A80A0020880A0020FF230021B8
:103C20000D4A13700D4A13700D4A13700D4A13702C
:103C30000D4A13700D4A13700D4A13700D4A13701C
:103C40000D4A13700D4A13700D4A13700D4AC2E9E4
:103C500000111372704700BFA60A0020A50A0020B9
:103C6000A70A0020BD0A0020BC0A0020C10A0020CB
:103C7000C00A0020A40A0020A80A0020880A002008
:103C8000890A0020900A0020014B1860704700BF8D
:103C9000640B002073B5124C064623780D46114A7A
:103CA0001BB913780BB172B6FEE701230021137024
:103CB0000D48642211F0C7FA2B4600960B4A642186
:103CC000094812F02FF90A4B1B6803B198470125E8
:103CD000054E304603F034FC72B62570F9E700BF9C
:103CE000440B0020D80A0020DA0A0020579301086C
:103CF000640B0020F7B5184C064623780D46174A8A
:103D00001BB913780BB172B6FEE7012300211370C3
:103D10001348642211F097FA2B460096114A642149
:103D20000F4812F0FFF8104B1B680BB10C48984776
:103D30000E4B1B6803B198470125094E0C4F3046C6
:103D400003F0FEFB384603F0FBFB72B6094B25700F
:103D500000BF013BFCD1F2E7450B0020D90A00204F
:103D6000DA0A00207F930108D40A0020640B0020A7
:103D70008E930108FFFF0F00F8B5DFF898C00368C5
:103D80001A4FCCF800304368194E3B608368194DD8
:103D90003360C368184C2B6003691849236043697A
:103DA00082690B60164BC0691A60164A1060DCF815
:103DB000000038683068286820681C460968124D81
:103DC0001968124E126864220021284611F03BFA4D
:103DD000236832466421284612F0A4F8284603F0EE
:103DE000AFFB0B4B00BF013BFCD1ECE7540B0020B9
:103DF0005C0B0020600B0020580B0020400B0020C3
:103E0000480B00204C0B0020DA0A002044930108E4
:103E1000FFFF0F00500B0020074B1B6803B19847B2
:103E20001EF0040F0CBFEFF30880EFF309808169E7
:103E3000004A1047793D0008640B0020002103E090
:103E40000A4B5B584350043109480A4B42189A42C6
:103E5000F6D3094A02E0002342F8043B074B9A429A
:103E6000F9D300F00DF8FCF7B1FD704720D501083B
:103E7000000000205005002050050020945600202E
:103E8000314B82B01A6842F480721A6099682F4AE6
:103E90000A409A601A6822F0885222F001121A60D1
:103EA0001A6822F480221A609A6822F47D029A60CD
:103EB0000022DA6001921B6813F4007318BF01231B
:103EC0000193019B012B37D14FF48051204B1A688D
:103ED000A3F5806322F00102C3F80024D3F8002484
:103EE00022F00202C3F80024D3F8002422F00402D6
:103EF000C3F800245A6A42F080525A62154A11608F
:103F00005168C906FCD49A689A609A689A609A685F
:103F10009A605A6822F460425A605A6842F44042F9
:103F20005A609A6822F003029A609A689A60064A78
:103F3000936813F00C0FFBD14FF00062064B9A60B0
:103F4000064ADA6002B07047003802400CC0FF88B1
:103F5000003C02400070004000ED00E00003FA0564
:103F600070B5064688B02E4801F03AFB2D4B1A6812
:103F70000092009A91073CD501214FF4007001F0A6
:103F800089FD012001F07CFB274A536843F400338C
:103F90005360A2F5374253681B07FCD50024012566
:103FA00002A801F057FB02A91D488DF80D400694A8
:103FB0008DF81C508DF80C4001F026FB2A46062394
:103FC0003146174801F068FB2946154801F04EFBC1
:103FD0000221134801F0F2FB114801F0E1FB134DFF
:103FE00001940F4C0221204601F0E2FB58B108B0C9
:103FF00070BD1A6842F001021A60009A9207BBD4A1
:104000001A680092F9E7019B01330193019BB3F514
:10401000805FE7DB38212846FFF76CFEE2E700BF50
:10402000002401400038024000270140AA93010803
:1040300008B5002001F024FB0021074801F016FB21
:1040400000214FF4007001F025FD044A136823F0AD
:104050000103136008BD00BF002401400038024086
:1040600013B5072301220146114801F015FB022177
:104070000F4801F0A3FB0E4801F092FB00230D4C0A
:10408000019302210A4801F093FB28B1084802B0CD
:10409000BDE8104001F089BB019B01330193019BF6
:1040A000B3F5805FEDDB4C212046FFF723FEE8E708
:1040B00000240140AA93010870B506460825FFF7C1
:1040C0004FFF00243046FFF7CBFF013D0444F9D1F8
:1040D000FFF7AEFFC4F3CF0070BD0000000000008A
:1040E00008B51120FFF7E8FF10F018FB014608485B
:1040F00010F020FC0FF0FAFE03A3D3E900230FF029
:104100004DFF10F005FA08BD2FDD24068195F33F21
:1041100000F07F450F4A536A43F0805353620E4BC1
:104120001A465968C906FCD41B68022823F4C053F8
:1041300006D143F4C05313605368DB06FCD47047C8
:10414000012802D143F48053F5E70028F3D143F46A
:104150000063F0E7003802400070004010B50C4BDF
:104160005A68D206FCD41C6814F4C05F0BD114F456
:1041700080500AD114F4006404D106482A21FFF7C4
:10418000B9FD204610BD0220FCE70120FAE700BF80
:1041900000700040F093010838B50546012001F099
:1041A0001DFB022D01BF154A136843F00103136084
:1041B000134B1A6842F480321A601A689203FCD5D5
:1041C00042F690529A6099689142FCD19A6842F006
:1041D00002029A600A4B9C6814F00804FBD14FF469
:1041E00080321A60074B084A28461A60FFF792FF90
:1041F0002046BDE8384001F0E5BA00BF003C02406F
:10420000003802403000002000093D0038B5054666
:10421000012001F0E3FA022D01BF144A136843F0B4
:1042200001031360124B1A6842F480721A601A6814
:104230009205FCD55A6822F4604242F440425A602A
:1042400000229A600A4B9C6814F00C04FBD14FF4D6
:1042500080721A60074B084A28461A60FFF75AFF17
:104260002046BDE8384001F0ADBA00BF003C024036
:104270000038024030000020D0FE3F000C4B5A6B4B
:10428000900513D45A6A42F080525A62094A116862
:1042900041F480711160596B41F480715963596B1D
:1042A0008905FCD5136823F480731360704700BF41
:1042B0000038024000700040054B5A6B910706D44D
:1042C0005A6B42F001025A635A6B9207FCD5704751
:1042D00000380240094B5A6A42F020025A629A6939
:1042E00042F020029A619A6922F020029A6100222B
:1042F000A3F509331A801A855A62704700380240C4
:1043000015210238002248430121064B1A85D86244
:1043100099825A621A8219801A8AD207FCD5002221
:104320001A80704700140040002349F6FE7282B0E4
:104330000193019B934201DD02B07047019B013361
:104340000193F6E7002340F6FE7282B00193019BD1
:10435000934201DD02B07047019B01330193F6E700
:10436000002382B00193019BB3F5CC7F01DD02B045
:104370007047019B0133F5E7D0B1012801D1FFF768
:10438000EFBF0C4B00211A684FF47A73B2FBF3F2C3
:10439000094B013A92B21A8501220138D8629A82F9
:1043A000596219821A801A8AD207FCD500221A8013
:1043B000704700BF300000200014004000F1774338
:1043C00003F57803B3F5804F2DE9F04106460C461E
:1043D00017462DD202F1F73303F608030344B3F571
:1043E000804F25D2FFF7BAFE804610B10020FFF7BC
:1043F00091FE01F00BFA01252744361BA7420AD192
:1044000001F014FAB8F1000F02D04046FFF782FE27
:104410002846BDE8F08141F6027001F00FFA30192C
:1044200014F8011B01F066FA042818BF0025E5E71F
:104430000025EDE710B50C4600F1774101F5780154
:10444000B1F5804F0DD202F1F73303F608030344B0
:10445000B3F5804F05D20146204610F0D0FE012072
:1044600010BD0020FCE7000008B5114B984215D0A4
:1044700003F58063984213D003F58063984211D00E
:1044800003F5806398420FD003F5006398420DD086
:10449000084B094A1421094810F05EFD002008BDB0
:1044A0000120FCE70220FAE70320F8E70520F6E701
:1044B000000002407F940108399401089894010893
:1044C0000F2808B505D9094B094A3B21094810F0C6
:1044D00043FD012303FA00F0C043074A516801403D
:1044E000516013681840106008BD00BFE1940108D6
:1044F0004394010898940108000401400F292DE914
:10450000F84F82460D4693461F4605D95A4B5B4AE3
:1045100054215B4810F020FD4FF0010909FA05F91C
:1045200000F0B8F86FEA0903564E032D7268564C36
:1045300002EA03027260326803EA0203534A3360FC
:10454000136A43F0010313622ED80F22A3684FEAC7
:10455000850802FA08F223EA0203A3605046FFF737
:1045600083FFA36800FA08F01843A0601BF0020F55
:1045700018BFB368464A1CBF43EA0903B3601BF087
:10458000040F1EBFF36843EA0903F360336843EA8C
:10459000090333603B01DBB2002D45D182F80633BD
:1045A00040231360BDE8F88F072D13D80F22A5F123
:1045B0000408E3684FEA880802FA08F223EA0203D3
:1045C000E3605046FFF750FFE36800FA08F0184335
:1045D000E060CBE70B2D13D80F22A5F10808236963
:1045E0004FEA880802FA08F223EA020323615046E0
:1045F000FFF73AFF236900FA08F018432061B5E796
:104600000F22A5F10C0863694FEA880802FA08F244
:1046100023EA020363615046FFF726FF636900FA4D
:1046200008F018436061A1E7012D03D182F8073338
:104630008023B6E7022D04D182F808334FF480734B
:10464000AFE7032D04D182F809334FF40073A8E7D4
:10465000042D04D182F80A334FF48063A1E7092DB9
:1046600004D882F817334FF400039AE782F828330E
:104670004FF48073536095E7ED9401085E94010850
:1046800098940108000401400000014000380240F5
:1046900000E100E0144B984205D1144AD36943F07D
:1046A0000103D3617047124B984204D10F4AD3697A
:1046B00043F00203F5E70F4B984204D10B4AD3694C
:1046C00043F00403EDE70C4B984204D1074AD36949
:1046D00043F00803E5E7094B9842E3D1034AD36965
:1046E00043F02003DDE700BF000002400038024035
:1046F0000004024000080240000C02400014024086
:104700000323490010B584688B4024EA03048460C5
:104710000124022A04FA01F407D0032A0DD0012A49
:1047200007D183682343836003E083688A401A4388
:10473000826083681C43846010BD82681343F2E783
:104740000F29F8B504460F4615461E4603D94B21DE
:104750001948FFF7CFFA2046FFF79CFF03237A00A2
:104760009340DB432168194021600121D4F800C047
:1047700001FA02F04CEA000CB940C4F800C009B2DA
:1047800066B1A688314389B2A180E168012D03EAB0
:104790000103E36006D0022D08D0F8BDA68826EA02
:1047A0000101F1E7E3680343E360F6E7E36805FA34
:1047B00002F21A43E260F0E73D9501080F2970B557
:1047C00005460C46164603D96B210E48FFF792FAB0
:1047D0002846FFF75FFF032361008B40DB43EA6855
:1047E000012E02EA0302EA6005D0022E03D02A68F5
:1047F00013402B6070BDEA6806FA01F11143E960CD
:10480000F5E700BF3D9501080F2910B505D9074B05
:10481000074A8121074810F09FFBFFF73BFF4B0041
:104820000321026899401143016010BDE194010821
:10483000F99401083D9501080F2938B5044615463D
:1048400005D987211B4B1C4A1C4810F085FB0F2AF9
:1048500003D91B4B184A8821F6E7FFF71BFF0729EE
:104860004FF00F0318D8006A8A00934020EA030330
:104870002362236A05FA02F21A43226203222368A2
:1048800049008A4023EA020323600223226803FAD4
:1048900001F11143216038BDA1F10802406A920084
:1048A000934020EA03036362636A95401D43656297
:1048B000E4E700BFE19401080C9501083D9501086B
:1048C0002A950108012303FA01F189B20183704797
:1048D000012303FA01F189B241837047012303FAEE
:1048E00001F189B20AB10183704741837047008AA0
:1048F000084100F0010070470F2938B505460C4605
:1049000003D9B4210548FFF7F5F928686400E040B1
:1049100000F00300431E5842584138BD3D95010840
:10492000808A084100F001007047000010B5084C73
:1049300023681BB9012005F013FB206023682BB905
:10494000BDE8104036210348FFF7D4B910BD00BFC1
:10495000680B00208495010810B50B4C22681AB929
:104960003C210A48FFF7C6F9206842F2107105F0B1
:104970003FFC01280CBF0124002403D04021034840
:10498000FFF7B8F9204610BD680B00208495010898
:1049900010B5074C22681AB951210648FFF7AAF949
:1049A000002320681A46BDE81040194605F034BAC5
:1049B000680B00208495010810B50446FFF7B6FF88
:1049C000FFF7CAFF21461022034801F043FD0446C9
:1049D000FFF7DEFF204610BD0054004010B5FFF782
:1049E000A5FFFFF7B9FF01F0EDFC0446FFF7D0FF8C
:1049F000204610BD08B513460A460146034801F09B
:104A000021F9003018BF012008BD00BF005400404C
:104A100008B513460A460146034801F013FA003070
:104A200018BF012008BD00BF0054004008B5134660
:104A30000A460146034801F0E1FA003018BF0120A0
:104A400008BD00BF0054004008B513460A460146A1
:104A5000034801F063FB003018BF012008BD00BF10
:104A60000054004008B513460A460146034801F0C9
:104A7000ADFB003018BF012008BD00BF005400404E
:104A80000123064A83405169194205D05361044B02
:104A900053F8203003B11847704700BF00040140AD
:104AA0006C0B00200F2838B504460D4603D926218B
:104AB0000348FFF71FF9034B43F8245038BD00BFEC
:104AC000CA9501086C0B00200020FFF7D9BF012018
:104AD000FFF7D6BF0220FFF7D3BF0320FFF7D0BFF9
:104AE0000420FFF7CDBF08B50920FFF7C9FF082054
:104AF000FFF7C6FF0720FFF7C3FF0620FFF7C0FF41
:104B0000BDE808400520FFF7BBBF08B50F20FFF741
:104B1000B7FF0E20FFF7B4FF0D20FFF7B1FF0C2009
:104B2000FFF7AEFF0B20FFF7ABFFBDE808400A2000
:104B3000FFF7A6BFFEE7FEE7FEE7FEE7FEE7FEE7BC
:104B4000FEE7FEE7FEE7FEE7FEE7FEE7FEE7FEE73D
:104B5000FEE7FEE7FEE7FEE7FEE7FEE7FEE7FEE72D
:104B6000FEE7FEE7FEE7FEE7FEE7FEE7FEE7FEE71D
:104B7000FEE7FEE7FEE7FEE7FEE7FEE7FEE7FEE70D
:104B8000FEE7FEE70A23B0FBF3F203FB120040EA64
:104B90000210C0B270470000CA22024B5A62532270
:104BA0005A62704700280040014B1860704700BFF0
:104BB000AC0B00204FF400320F4B10B50F4C5A6174
:104BC000E368DB0503D430210D48FFF793F8FFF7C6
:104BD000E3FF4FF40072A36823F48853A360094BEA
:104BE000C3F88420FF236362074B1B6813B1BDE841
:104BF0001040184710BD00BF0004014000280040CD
:104C00001096010800E100E0AC0B00202DE9F04F08
:104C10009846374B85B01B78824691469DF8387090
:104C20009DF83C602BB9334B334A8C21334810F04C
:104C300093F9431E1E2B59D80C2957D8A2F5FA63B5
:104C4000632B53D8B8F1170F50D83B2F4ED83B2EBB
:104C50004CD802F13000C0B2FFF794FF83460846FB
:104C6000FFF790FF04465046FFF78CFF40F40055D5
:104C70004046FFF787FF45EA0B4545EA0425044611
:104C80003846FFF77FFF000240EA04443046FFF752
:104C900079FF20431A4CFFF77FFFE36843F080035E
:104CA000E360E3685B06FCD565602060E36823F0A1
:104CB0008003E360124BDA689206FCD5FF2204A859
:104CC0005A6200F80C6D8DF807A08DF80810ADF849
:104CD00009908DF806808DF8057002F02AFB094BCB
:104CE000C3E90001012005B0BDE8F08F0020FAE71C
:104CF000B00B00208996010856960108109601080D
:104D000000280040B80B002037B50578C4788378B8
:104D1000B0F8052001790195407800902046FFF712
:104D200075FF03B030BD000038B52B4B04461B782F
:104D30001BB9E4212948FEF7DDFF294AD36823F097
:104D40002003D360D3689B06FCD513685268C2F376
:104D50000741080900EB800001F00F0101EB400161
:104D6000C9B201F5FA61A4F80510C2F30721C1F335
:104D700000108500284401F00F0101EB4001D2B280
:104D80002171C2F3011101EB810102F00F0202EB6C
:104D90004102E270C3F30742C2F3011101EB81014A
:104DA00002F00F0202EB4102A270C3F30722C2F32A
:104DB000021101EB810102F00F0202EB4102DBB2B2
:104DC0006270C3F3021202EB820203F00F0303EBE3
:104DD0004203237038BD00BFB00B002010960108BD
:104DE000002800401FB501A8FFF79EFF01A802F0B0
:104DF000A0FA05B05DF804FB08B5FFF73FFA1B4ABF
:104E0000136843F480731360FFF7C6FE184A536BB0
:104E100023F4403343F482035363164BDA6842F0C1
:104E20008002DA60DA685106FCD5FF221A611A693D
:104E300042F4FE021A619A6822F040029A609A686F
:104E400022F44C529A60DA6822F08002DA60094B50
:104E5000DA689206FCD5FF225A620122064B1A70CC
:104E6000FFF7C0FF054BC3E9000108BD007000401B
:104E70000038024000280040B00B0020B80B002092
:104E800008B5094B1B7823B940F21F110748FEF7FC
:104E900031FFFFF781FE064B9A6822F480729A6018
:104EA000FF225A6208BD00BFB00B00201096010817
:104EB0000028004008B5144B1B7833B9134B144A33
:104EC00040F22711134810F047F8FFF765FE124B28
:104ED000DA6822F48072DA60104A916841F4003195
:104EE0009160116841F400311160F0210C4A82F8A0
:104EF00029134FF4007151609A6842F488529A6005
:104F0000FF225A6208BD00BFB00B0020899601083D
:104F10006296010810960108002800400004014034
:104F200000E100E0F8B51E46194B17461B7833B96F
:104F3000184B194A4FF4A571184810F00DF8184C89
:104F4000FFF72AFEA56825F48075A560E56825F4BD
:104F50008075E560FFF716FE05460846FFF712FE6E
:104F6000000440EA05613846FFF70CFE054630466E
:104F7000FFF708FE084340EA0520E368DB07FCD59D
:104F8000FF23E0616362BDE8F840FFF793BF00BF15
:104F9000B00B002089960108779601081096010849
:104FA00000280040037842788178C078FFF7BABFC4
:104FB00038B50D46044604F03DFC1F4A136823F043
:104FC0000103136004F056FC25B11C4A536843F0FA
:104FD0000603536072B6BFF34F8FBFF36F8F184A4B
:104FE0000120136823F0030343F4007343F001032B
:104FF000136000F0FFFB134B1A6942F004021A61C0
:1050000030BF1A6922F004021A610F4B0F4A1B6865
:1050100093420AD10220FFF7F9F8074A136843F0D8
:105020000103136004B162B638BD094A9342F4D15A
:105030000220FFF7B1F8F0E710E000E0002004E004
:105040000070004000ED00E030000020D0FE3F0086
:1050500000093D0062B6704700220E4B10B51A7071
:105060000D4A0E4C1388204623F040031B041B0CF2
:1050700013800D210222FFF7A1FB204602220E2100
:10508000FFF79CFB2046BDE8104002220F21FFF7EE
:1050900095BB00BFC00B0020003800400004024058
:1050A000284A38B5136A054643F480531362052233
:1050B00025480C461146FFF7BFFB05220621224872
:1050C000FFF7BAFB052207211F48FFF7B5FBC5B163
:1050D000022205211C48FFF713FB022206211A4871
:1050E000FFF70EFB022207211748FFF709FB012CEF
:1050F00021D144F451740122144B1C80144B1A70BA
:1051000038BD2A4605211048FFF7FAFA2A4606213B
:105110000D48FFF7F5FA2A4607210B48FFF7F0FA8A
:10512000012C05D0022C03D0032C14BF002403242F
:1051300044F45974DFE7022CDBD0032C0CBF0324AA
:105140000024D6E700380240000002400030014051
:10515000C10B002000220E4B10B51A700D4A0E4CE8
:105160001388204623F040031B041B0C13800521E9
:105170000222FFF723FB204602220621FFF71EFB37
:105180002046BDE8104002220721FFF717BB00BFF1
:10519000C10B00200030014000000240064B074ACE
:1051A000988111781A461889C00701D40029FAD1CC
:1051B0009089C0B2704700BF00300140C10B002091
:1051C000054AD36823F4E0631B041B0C43F0BF6360
:1051D00043F40033D360704700ED00E0202200214B
:1051E000114B10B5C3F88420104B114C1A6A20469D
:1051F00042F480421A625A6942F480425A615A6902
:1052000022F480425A610B4A91811A6A092122F4E0
:1052100080421A620222FFF7D1FA2046BDE8104010
:1052200002220A21FFF7CABA00E100E0003802407A
:10523000000002400038014010B50B4C40F22551EF
:10524000204600F0D8FC48B1204600F0B2FC074BE5
:10525000C0B21B6833B1BDE810401847A388044AA8
:10526000DBB2137010BD00BF00380140C40B00203A
:10527000C455002010B504468021084800F0B5FC54
:105280000028F9D02146054800F08FFC034C40214E
:10529000204600F0AAFC0028F9D010BD00380140DB
:1052A00010B5441E14F8010F00B910BDFFF7E2FF5E
:1052B000F8E7000008B5024800F07BFCC0B208BD6A
:1052C000003801402DE9F0438846012189B081462C
:1052D000084614461D4600F0D1FB01214FF48040E2
:1052E00000F0D8FB4FF4C06702230122002602A978
:1052F0003F488DF80C308DF80D308DF80F20029757
:105300008DF80E6000F01CFB07220921384800F0E0
:1053100059FB07220A21364800F054FBB8F1450F2B
:10532000CDF810903CD14FF48063ADF81830072CC5
:1053300042D10023ADF81430052D4ED14FF48053E7
:10534000ADF816300023ADF81C300C2304A9294811
:10535000ADF81A3000F0CEFB274B1A6802B10122DB
:1053600040F22551234800F028FC0121214800F09B
:1053700011FCFFF79FFF25238DF804309DF8403086
:105380008DF8053000238DF8063001238DF80730A5
:10539000FFF716FF01A800F007F909B0BDE8F08398
:1053A000B8F14F0F02D1ADF81870C0E7072CADF877
:1053B00018600DD1592107E0082C02D14FF4805319
:1053C000B8E7092CB8D154210C48FEF793FCB3E799
:1053D000082CAED0092CAFD1F0E70F2D02D14FF43D
:1053E0004053ADE7022D0CBF4FF400530023A7E755
:1053F0000000024000380140C40B002092960108D2
:105400000E2307B5082200934E210123FFF75AFF10
:1054100003B05DF804FB000070B5134C40F2255159
:10542000204600F0E8FBC0B1104B1D6825B12046B6
:1054300000F0BFFBC0B2A84740F226610A4800F066
:10544000DAFB78B140F22661074800F0F3FB084B25
:105450001B683BB1BDE870401847A388054ADBB222
:105460001370E9E770BD00BF00440040C80B002086
:10547000CC0B0020C4550020BFF34F8F0449054BCF
:10548000CA6802F4E0621343CB60BFF34F8FFEE7BC
:1054900000ED00E00400FA0510B5441EE3B2052B50
:1054A00003D90E211148FEF725FCFEF705FF45F252
:1054B00055520F4B1A60DA68D207FCD4052C06D877
:1054C000DFE804F003090B0D0F1101225A604CF6BE
:1054D000CC421A6010BD0222F8E70322F6E704224C
:1054E000F4E70522F2E70622F0E700BF5B97010828
:1054F0000030004038B5224C236853B95F2000F0DB
:10550000E1FA204D38B1204B236001232B7000F0CD
:10551000E9FA206838BD5E2000F0D4FA18B11B4BC0
:1055200023600223F2E75D2000F0CCFA18B1184B9B
:1055300023600323EAE75C2000F0C4FA18B1154B9E
:1055400023600423E2E75B2000F0BCFA18B1124BA1
:1055500023600523DAE75A2000F0B4FA18B10F4BA4
:1055600023600623D2E7592000F0ACFA18B10C4BA7
:1055700023600723CAE70B4B2360FF23C6E700BF66
:10558000D00B0020D40B0020D9960108E996010821
:10559000FF9601081A970108299701083897010812
:1055A00051970108DBA2010830B5012403780A4DA8
:1055B00003F01F029440C278590952B1074A2B44A4
:1055C000D26842781201D2B283F8002345F8214014
:1055D00030BD2031FAE700BF00E100E000ED00E05F
:1055E00008B5084B98420BD101214FF4007000F030
:1055F0005DFABDE8084000214FF4007000F056BA93
:1056000008BD00BF0024014043680A7923F04073BD
:1056100023F4807343EA02230A6810B513434360FE
:10562000D1E9032313438A6884681343084A22405C
:1056300013434A7943EA420383600A7D036B013ACC
:1056400023F0F873D2B243EA0253036310BD00BFE4
:10565000FDF7FFC000234FF04072036003714371F8
:105660008360C0E90323012303757047836819B180
:1056700043F001038360704723F00103FAE7000061
:10568000044B5A6818B142F400025A60704722F481
:105690000002FAE7002701401D2970B51BD9072534
:1056A000A1F11E06C46D06EB4606B54024EA0504CA
:1056B00003FA06F62643C665062A38D81F24013A9F
:1056C000036C02EB8202944023EA040301FA02F223
:1056D0001A43026470BD13290DD90726A1F11405E0
:1056E000C46805EB4505AE4024EA060403FA05F557
:1056F0002543C560E0E709290DD90726A1F10A0471
:10570000056904EB4404A64025EA060503FA04F4FF
:105710002C430461D0E70726446901EB4105AE4004
:1057200024EA060403FA05F626434661C4E70C2A78
:105730000CD81F24073AC36B02EB8202944023EA81
:10574000040301FA02F21A43C263C3E7122A0CD817
:105750001F240D3A836B02EB8202944023EA040378
:1057600001FA02F21A438263B4E7182A0CD81F2404
:10577000133A436B02EB8202944023EA040301FADA
:1057800002F21A434263A5E71F24193A036B02EBA6
:105790008202944023EA040391401943016399E78C
:1057A000836843F0804383607047806D80B27047A8
:1057B0000368194214BF012000207047C9430160EB
:1057C00070470000044B1A6818B142F002021A60D8
:1057D000704722F00202FAE7003C0240044B1A68CC
:1057E00018B142F004021A60704722F00402FAE78E
:1057F000003C0240044B1A6818B142F008021A60DB
:10580000704722F00802FAE7003C0240044B5A6855
:10581000D20741BF034ADA60034ADA60704700BF2B
:10582000003C0240EFCDAB8905040302024A5368F5
:1058300043F0010353607047003C0240014B986104
:10584000704700BF003C0240084B9A69D10709D459
:105850009A69D20508D49B6913F4F05F14BF032042
:10586000042070470120704702207047003C02402E
:10587000042313B504468DF80730FFF7E5FF8DF8D4
:1058800007009DF80730012B0AD11CB905238DF8BC
:10589000073007E0FFF7D8FF013C8DF80700F0E77D
:1058A000002CF3D09DF8070002B010BD10B50446DF
:1058B0004FF40040FFF7DCFF042804BF00232360FF
:1058C00010BD000038B504464FF400400D46FFF708
:1058D000CFFF04280BD1064A4FF40040536823F44D
:1058E000807353602560BDE83840FFF7C1BF38BD05
:1058F000003C024038B504464FF400400D46FFF727
:10590000B7FF04281BD135B125704FF40040BDE826
:105910003840FFF7ADBFFF2324F0030504F0030474
:105920002968E40003FA04F421EA04042846FFF796
:10593000BDFF21462846BDE83840FFF7C3BF38BD4C
:105940002DE9F0430022012703250E6807FA02F330
:1059500033EA060431D14FEA420C05FA0CF4E44371
:1059600091F804E0D0F800900EFA0CF804EA090966
:105970000EF1FF3E48EA0908BEF1010FC0F80080B1
:1059800011D8D0F808E004EA0E0E4C7904FA0CF4B1
:1059900044EA0E048460848824EA03048B799340EB
:1059A0009BB223438380C36805FA0CF423EA040402
:1059B000CB7903FA0CF32343C3600132102AC5D11B
:1059C000BDE8F08310B50F2401F00703C90800EB10
:1059D0008100016A9B009C4021EA04010162016A86
:1059E0009A400A43026210BD204B10B59A6802F03B
:1059F0000C020C2A30D8DFE802F02F2F2F2F072FB0
:105A00002F2F072F2F2F2000194B184A0360936860
:105A10001849C3F30313CC5C0368E3404360946804
:105A2000C4F302240C5D23FA04F484609268C2F388
:105A3000C2228A5CD340C36010BD99680E4CC1F38A
:105A400083419A68615C9B68094BC2F381524B4366
:105A50000132B3FBF2F3D8E74FF400425B68C3F3C3
:105A60004233013302FA03F3CFE700BF00380240AC
:105A70000024F4003400002044000020044BDA69C4
:105A800011B11043D861704722EA0000FAE700BF65
:105A900000380240044B1A6A11B110431862704773
:105AA00022EA0000FAE700BF00380240044B5A69BE
:105AB00011B110435861704722EA0000FAE700BFB5
:105AC000003802404309012B054B00F01F000CBFBA
:105AD0001B685B6B23FA00F000F00100704700BF09
