:020000040800F2
:10000000008000202D3A0008A5460008093A0008A3
:10001000A7460008A9460008AB46000800000000FB
:100020000000000000000000000000000191000836
:10003000AD4600080000000091910008D59100082D
:10004000AF460008B1460008B3460008B5460008B0
:10005000B7460008B9460008394600083F46000880
:10006000454600084B46000851460008BB460008BC
:10007000BD460008BF460008C1460008C346000848
:10008000C5460008C7460008C9460008CB46000818
:10009000CD460008CF460008D14600085746000864
:1000A000D3460008D5460008D7460008D9460008C0
:1000B000DB460008DD460008DF460008E146000890
:1000C000E3460008E5460008E7460008E946000860
:1000D000EB460008794D0008454F0008ED46000842
:1000E0007B46000825470008EF460008F146000857
:1000F000F3460008000000000000000000000000BF
:1001000000000000000000005FF808F110B5054C89
:10011000237833B9044B13B10448AFF300800123B3
:10012000237010BD700200200000000008BD01080F
:1001300008B5034B1BB103490348AFF3008008BD6A
:10014000000000007402002008BD010808B5034843
:1001500006F09AFEBDE8084004F024BFE5680108F7
:1001600004F020BF70B515460022C0E901150270E9
:10017000C0E90332C0E90522C0E907224262DDE995
:100180000412044600F11C060FF0E8FF38B92946B6
:10019000074806F079FE2B21064803F0B9FBDDE99C
:1001A0000423314620460FF0C6FF204670BD00BF35
:1001B000036901082E69010810B50446C06910B131
:1001C000012111F08FFA206910B1012111F08AFA92
:1001D000204610BD2DE9F04100259DF81860C0E9CA
:1001E00001120570C0E90335C0E90555C0E907559E
:1001F000456231460446174600F11C080FF000FE28
:1002000038B93946074806F03FFE2021064803F07A
:100210007FFB3246414620460FF0E0FD2046BDE818
:10022000F08100BF036901082E690108F8B50025B7
:10023000C0E901120570C0E90335C0E90555C0E900
:100240000755456206990446164600F11C070FF053
:10025000C7FE38B93146074806F016FE2021064889
:1002600003F056FB069A394620460FF0A2FE2046C0
:10027000F8BD00BF036901082E690108F8B5002523
:10028000C0E901120570C0E90335C0E90555C0E9B0
:100290000755456206990446164600F11C070FF003
:1002A00045FF38B93146074806F0EEFD20210648E3
:1002B00003F02EFB069A394620460FF007FF204632
:1002C000F8BD00BF036901082E6901082DE9F0415E
:1002D0008F4B9EB0D3E9001214331B6881EA0204ED
:1002E0005C400EAF00948B4806F0CEFD21463846A8
:1002F0000BF018FF00F090FE02463B4652F8300F1C
:10030000012651684FF0080803C310F079FB054639
:1003100004AC814B814A314600962046FFF75AFFD4
:100320002146284610F018FC2046FFF745FF7C4B7D
:10033000CDE900781A4604212046FFF713FF214635
:10034000284610F009FC2046FFF736FFCDF8048060
:100350004FF0100814AB0093724B04211A4620464C
:10036000FFF700FF2146284610F0F6FB2046FFF776
:1003700023FF10AB00936C4BCDF804801A46042188
:100380002046FFF7EFFE2146284610F0E5FB674FB9
:100390002046FFF711FF16AB654A0093CDF80480A5
:1003A0003B4604212046FFF7DDFE2146284610F09B
:1003B000D3FB2046FFF700FF1AAB5E4A0093CDF84F
:1003C00004803B4604212046FFF7CCFE2146284608
:1003D00010F0C2FB2046FFF7EFFE04210FAB564A98
:1003E0000191009320463B46FFF7BCFE214628467C
:1003F00010F0B2FB2046FFF7DFFE0B234F4A0093BD
:1004000002214F4B2046FFF711FF2146284610F0EE
:10041000A3FB2046FFF7D0FE0E230027494A009396
:100420000221494B2046FFF701FF2146284610F0E4
:1004300093FB2046FFF7C0FE444B454A31460096E9
:100440002046FFF7C7FE2146284610F085FB2046D0
:10045000FFF7B2FE3F4B404A314600972046FFF778
:10046000B9FE2146284610F077FB2046FFF7A4FE90
:100470003A4B3B4A009303213A4B2046FFF7FEFEDE
:100480002146284610F068FB2046FFF795FE364BC4
:10049000364A314600972046FFF79CFE2146284603
:1004A00010F05AFB2046FFF787FE314B314A3146A8
:1004B00000962046FFF78EFE2146284610F04CFBA2
:1004C0002046FFF779FE2C4B2C4A009303212C4B3E
:1004D0002046FFF7D3FE2146284610F03DFB20467C
:1004E000FFF76AFE2846274B274A284910F0FCF9F7
:1004F000274B0493274B0593274B0693274B0093D9
:1005000094E80700052310F0D5FC1EB0BDE8F0818B
:100510005000F81F94660108B7660108CA66010812
:10052000CF660108D6660108DD660108C6660108C7
:10053000E4660108EC660108F46601082367010817
:10054000FB6601084F670108266701085767010825
:1005500090A00108726701089B670108E96701081C
:10056000DD670108A4670108F8670108226801082F
:1005700033680108556801087A6F0108AD68010801
:100580006268010861010008BB680108DF680108B2
:10059000A93F0008313F00084D010008000008088D
:1005A00008B500F02BFC00F043FC00F0F9FB014B18
:1005B000187808BDB804002008B500F02DFDBDE88E
:1005C000084000F05FBD07B58DF8041001A98DF853
:1005D00005208DF8063001F019FE03B05DF804FB2C
:1005E0002DE9F04F85B0FFF771FEFA200AF0A2F86E
:1005F00010F020FA0FF00CFE5C4806F045FC10F0FD
:1006000019FA5B4E054633685A4C13F0010F04D1BA
:1006100001F016FD012320603360266800F0FCFC29
:1006200000F12801304601F0CFFB5349206801F06A
:10063000CDFB52492846266810F09FF850490246E3
:1006400001A801F0ABFB01A9304601F001FC6127D4
:100650004C4B01A902934C4B8346206801970393AE
:1006600001F008FD494A4A4B02924A4A187001A912
:1006700020680197039201F0FDFC474A474E029221
:10068000474A307001A920680197039201F0F2FCFB
:1006900070220192434A444F0292002201A938700D
:1006A00020688DF80C2001F0E5FCDFF8148188F853
:1006B0000000206802F040FD3C498246206802F0BC
:1006C00041FC3B498146284610F034F8304B394D07
:1006D0001978F0B120682A7880F828103378FFF76D
:1006E00072FF31782A780B462068FFF76CFF20688C
:1006F00001F0ACFF304806F0C7FB01224FF4FA715D
:10070000206801F011FF002009F08EFD05B0BDE862
:10071000F08F2068534680F828102A78FFF753FF9F
:1007200033782A7851462068FFF74DFF3B782A78C6
:1007300031782068FFF747FF204A4B461278397816
:100740002068FFF740FF3B782A7849462068FFF78A
:100750003AFF98F800302A7839782068FFF733FF9D
:1007600033785A4698F80010BEE700BF216A0108A6
:100770008C020020D4020020B9050008DD670108C2
:100780003E6A0108D67B0108A10500084A6A0108F3
:10079000D8020020CD0800084F6A0108D9020020C5
:1007A000050A00083F7B0108DB020020566A0108A9
:1007B0009B670108B80400205F6A0108B7040020A5
:1007C000DA0200202DE9F04F85B01F46904606461C
:1007D0000D4610F02FF904463A464146684610F09F
:1007E00005FF374B6846197810F02AFF3549204637
:1007F0000FF0A0FF814600F00FFC347800F1110AE1
:100800000CBB05F101082B78A3421CDD4046514684
:1008100000F0A8F94FEAC40B08F1080868B3B9F171
:10082000000F06D00BF1020106222944684610F0A1
:10083000E9FE05EB4404B4F90211684610F00FFF1D
:10084000337801333370B9F1000F0CBF0223082352
:100850003478FF1A2B78A34209D9684610F0FDFEC0
:10086000B8420CD329781848091B06F00DFB6846DE
:1008700010F0F3FE05B0BDE8F08F0134C3E74FEA96
:10088000C40808F101005146284400F06BF998B9FA
:10089000B9F1000F06D008F102010622294468468A
:1008A00010F0B0FE05EB4403B3F90211684610F0F6
:1008B000D6FE3378013333700134E4B2CAE700BFA7
:1008C0002204002055680108006A010870B52D4B0C
:1008D000C0B21B788EB0984203D100F08FFA00F0BE
:1008E000A7FA04F035F8284BC3E9000100F058FAE4
:1008F00000F092FB044610F09DF824490FF01AFF17
:1009000020B904F11101224811F0FEF900F0DCF9E0
:1009100000F02CFAE36904F11C051B68284600214D
:100920009847012203211B4803F002FDE369284692
:100930005B680021984702221648114603F0F8FC34
:1009400000230124124D144E8DF803302B789DF8AE
:100950000320934211D921460132304606F094FA21
:10096000322301AA29460DF10300FFF72BFF0146B0
:1009700001A806F0EFFA0134E8E7084B18780EB04A
:1009800070BD00BFDA0200201000002022680108BC
:10099000E00200200000024067690108B80400205E
:1009A0001FB50A221449684610F020FE002168464F
:1009B00010F046FE0321684610F042FE032168460F
:1009C00010F03EFE0D4B6846B3F9001010F047FEE4
:1009D0000B4B6846198810F04EFE684610F03BFE3F
:1009E0000446684610F039FE2146C2B2012002F0EA
:1009F000CDFC04B010BD00BFC7020020DC02002007
:100A0000DE0200202DE9F843254BC0B21B78254DAE
:100A1000984204D1244806F037FA00232B7023496A
:100A20002C78D1E90023B3F1004F08BF002A894692
:100A3000DFF89C8009D0D8E900108E1A60EB03071C
:100A400000231B4AB242BB410DDA2146194806F089
:100A50001BFAD8E90023C9E90023FFF7A1FF164BD1
:100A60001878BDE8F883154E3378A34212D9314681
:100A70003223134A0B48FFF7A5FE07462A78611C6C
:100A80003378104806F000FAFAB20D49022002F05D
:100A90007DFCE4E721460C4806F0F6F90B4BDFE756
:100AA000D9020020C6020020976901080800002032
:100AB00008510100B2690108B7040020E0020020DB
:100AC00094020020C4690108E3690108B804002009
:100AD0001000002037B500F09FFA01250446036896
:100AE0009B689847114B4FF496720193104900236D
:100AF0000095104809F0AAFA23682946DB682046C9
:100B000098474FF4FA7003F0F1F923680021DB688D
:100B100020469847084806F0B7F9084806F0B4F9A7
:100B2000C82003F0E3F909F06BFCFEE79002002017
:100B3000796A0108E1050008826A0108956A0108DE
:100B4000FF23044A1370044A1370044A1370044AC2
:100B500013707047D8020020DB020020D902002069
:100B6000DA02002008B5082213F022F8B0FA80F06B
:100B7000400908BD2DE9F04F0024A1B00FF05AFF45
:100B80004B49CDE9034405948DF818400FF0F5FD6D
:100B90006626054665274FF064084FF063094FF05D
:100BA000620A4FF0610B284613F022FFA04219D9C8
:100BB0002B5D413B052B06D8DFE803F003070A0D48
:100BC000101205F804B00134EDE705F804A0FAE7C7
:100BD00005F80490F7E705F80480F4E72F55F2E7ED
:100BE0002E55F0E72C7844B9324806F04DF92146ED
:100BF000314811F0D7F801201FE028462F4913F0A3
:100C00003BFF07AE35464FF0000A2C4F079055F8D2
:100C1000044BACB13946002013F02EFF2860044687
:100C200013F0E6FE0C280AF1010AF0D02378002B1D
:100C3000EDD0234806F028F9002021B0BDE8F08F60
:100C40002546A24532D00027DFF86C801A4B1B786E
:100C5000BB4226DD4FF0000B08F102030DF10C0939
:100C600013F8012B48460BF1010B1649CDE900336F
:100C700013F08CFEBBF1060F09F10209009BEFD1C6
:100C80000C2230680DEB020113F0BAFE08F10808DF
:100C900050B9EAB205F10108F9B2074811F066F857
:100CA000454601340436CCE70137CFE729469FE7B4
:100CB000AD680108326B0108E00200205C6B01089E
:100CC0005E6B01088F9B010838B5064C25683DB95D
:100CD000042010F0F9FC40F6E443057043802060E6
:100CE000206838BD240400200378F7B504466BBBA8
:100CF00002F0EAFF194912F083FA12F06DFC85B296
:100D0000284612F029FA154912F02EFB11F008FEC0
:100D1000064660880F4612F01FFA104912F024FBB5
:100D200011F0FEFD3B46CDE9000132460C4806F0CD
:100D3000ABF86388AB420BD90A4806F0A5F800F07F
:100D40006BF9012100F08AF90123237003B0F0BD93
:100D5000054803B0BDE8F04006F096B800007A44BC
:100D6000816B0108B76B0108D06B0108037810B5DF
:100D700004464BB1054806F087F800F04DF9002114
:100D800000F06CF90023237010BD00BFE86B010870
:100D900008B5FFF799FFBDE80840FFF7E7BF00007F
:100DA000002310B5124C2370FFF78EFFFFF79CFF56
:100DB00000F032F9C36901215B681C3098470D4887
:100DC00010F0E2FE0B4810F031FF0A4810F0ACFEC4
:100DD00048B1FFF7CFFE074811F012F80123237046
:100DE000FFF7D6FF10BD044806F04EF8F8E700BF45
:100DF00022040020E0020020096B010810B5FFF773
:100E0000C7FF02F061FF074912F0FAF912F0E4FBA4
:100E100084B22146044806F037F8044B20461C8073
:100E200010BD00BF00007A44EE6A0108DE02002017
:100E300010B500F0F1F8C36900215B681C309847D9
:100E4000FFF742FFFFF750FF10F034FE0446FFF7B4
:100E50009FFF2146034806F017F8034B20461C80ED
:100E600010BD00BFC66A0108DC0200207047000008
:100E700038B50A4C05460121204603F0DDFA00236F
:100E800020461A46012103F015FA85F0010220469A
:100E9000BDE83840012103F0DBBA00BF000002408A
:100EA00008B50120FFF7E4FFBDE80840032004F087
:100EB00089B80846FFF7DCBF10B504463C2110F0A6
:100EC00011FC204610BD084603F010B8024B01216A
:100ED000186803681B68184750040020021C18BFDC
:100EE00001220321014803F0B3BA00BF000402400D
:100EF0000321014803F0B5BA0004024010B5094CC3
:100F0000094805F0C1FF20460B2103F095FA0023A4
:100F100020461A460B2103F0CDF9BDE8104002F03F
:100F2000CBBF00BF000002407B6F010808B5022064
:100F300002F026FF02F088FF00F088FB02F0AEFF0F
:100F400000F068FD03F00EFD0A4802F0A7FC4FF424
:100F5000E13003F0EBFF084B1A680AB9074A1A6040
:100F6000074B1A680AB9054A1A600648BDE80840E6
:100F700005F08ABFA10E000888070020E14D000897
:100F80008C0700206A6C010810B5044611F0E8F9DE
:100F900022460D4B0D4842F8113B0023C4F8113096
:100FA00053600B4A84F82430E2610A4AC4E90C33E6
:100FB0002262094A84F83830A262084AE26205F0E7
:100FC00063FF204610BD00BFCC6F0108AF6F010862
:100FD000B47001080471010834710108207101081E
:100FE00010B5094CFFF7A2FF2368DB0709D40748B7
:100FF000FFF7CAFF0123064A06490448236011F09F
:10100000D6F9024810BD00BF2C0400205404002073
:10101000000000206D0E000838B5064D064C2B6808
:1010200013F0010F04D1FFF7DBFF012320602B60D9
:10103000206838BD300400209004002008B50B2142
:10104000054803F013FA28B1BDE808400B21024817
:1010500003F020BA08BD00BF0000024008B519B176
:10106000BDE80840FFF74ABF044805F00DFFBDE8A2
:10107000084002220B21024803F05AB9976F010879
:101080000000024070B504462C4804F11C0505F030
:10109000FBFE2846002100F0E5FC0021284600F078
:1010A000F7FC204611F066F90BF080F9204600218C
:1010B000FFF7D4FF0AF026FB01220C21204803F0A1
:1010C00037F903F067FD23682046DB6804F12C053F
:1010D000002198471B4E0021284600F05FFD03F0D9
:1010E00035FA194805F0D0FE03F018FE02F0D6FEDE
:1010F000304601220D2103F01BF9012230460E215A
:1011000003F016F90021084603F002FD04F1200067
:1011100000F0D4FC0121284600F040FD4FF4E130FE
:1011200003F004FF094805F0AFFE0AF011FA03F0DE
:101130002FFD2046BDE8704011F029B9496F010824
:1011400000040240000002406D6F0108429A01084D
:1011500038B50546FFF772FF044628B1002128463E
:10116000FFF77CFF02F0A8FE02F0AEFD05460CB1D1
:10117000FFF7C4FE284638BD70B50C460646154933
:10118000204612F0F9F920B90021204612F0D6F9D4
:1011900070B11149204612F033F812F0F7F9014608
:1011A0000E4805F071FE40F263110D4802F0B0FBED
:1011B0003046FFF743FF054648B93046FFF7C8FF02
:1011C0000146204612F0D8F908B1FFF797FE2846ED
:1011D00070BD00BF3333534000007A44806C010877
:1011E000AF6C010870B52F4AD6B013680546DB070F
:1011F00005D42D4900F12C030B60012313602B490A
:101200002846FFF7B9FF0646294805F03DFE0021B4
:1012100005F11C0000F03CFC264C274BE360274BFB
:101220002361274BA360274B6360274B2360274B29
:101230006361274BA361274BE36104F110030FCBDC
:101240008DE80F0094E80F0010F016FD002305A8AC
:10125000C5F81130C5F8153010F096FC9DF8143023
:1012600005F11104012B16D1DDF8153005A8C5F8DC
:101270001130DDF81930C5F8153010F055FC16485E
:1012800005F002FE0821204605F064FEBDF91611A6
:10129000124805F0F9FD31462846FFF7DFFE56B04B
:1012A00070BD00BF28040020500400200000404012
:1012B000036C0108984E0020ED3E0008753E0008C2
:1012C000CD0E0008F10E0008DD0E0008896E000842
:1012D0002591000865910008246C01084A6C0108FA
:1012E0007FB5F82300F12005064628468DF80F301B
:1012F00000F0EAFB02230DF10F0100930122A0236D
:10130000284600F0E5FB4FF400430822009306F165
:101310003001A0230446284600F004FC0440E4B257
:10132000284600F0D3FB204604B070BD30B504461B
:101330008BB05A4805F0A8FD204600F021FB00F0D4
:101340005FFA00F00BFA564805F09EFD04F1200507
:101350005448554905F098FD284600F0AFFB38B9D0
:10136000524805F091FD40F22111514802F0D0FAA7
:1013700002F0A2FD2046FFF7B3FF20B94FF49371AE
:101380004B4802F0C5FA94F837304A48049394F871
:101390003630039394F83530029394F83430019347
:1013A00094F83330009394F8323094F8312094F864
:1013B000301005F069FD284600F0D2F9284600F00B
:1013C00031FA04F11C0584F838000021284600F0A9
:1013D00049FB012000F032FC0021284600F058FBB8
:1013E000012000F049FC2046FFF7FCFE00F066FA01
:1013F000314805F049FD4FF4FA7012F0C9FB04467C
:10140000002844D12D4805F03FFD2D4805F03CFD56
:101410002C4805F039FD2C4805F036FD2B4805F029
:1014200033FD2B4805F030FD2A4805F02DFD2A48F4
:1014300005F02AFD294805F027FD294A29492A48AF
:1014400005F022FD29492A4805F01EFD294805F02E
:101450001BFD294B294A1B6829490093294B126817
:101460001B68294813F092FA2749284805F00CFD1B
:1014700007A803F00FFA07A805F05CFC0146244812
:1014800005F002FD0F4805F0FFFC0BB030BD214810
:1014900005F0FAFC204612F083FBB6E7EF6C01087A
:1014A000016D0108166D0108A0860100316D01086B
:1014B000AF6C0108476D01087C6D0108AA6D010839
:1014C000786F0108E86D0108196E0108286E01089F
:1014D0004A6E01086D6E0108916E0108796F01086E
:1014E000B46E0108BA6E0108D86E0108E86E0108F2
:1014F000EF6E0108FA6E01086400F81F5000F81F33
:101500001A6F01085400F81F340400202C6F0108E2
:10151000376F0108DE6D0108024B186803685B68CD
:10152000184700BFA0040020024B186803689B689E
:10153000184700BFA00400200023F0B51370144624
:10154000022205460C4E85B030688DF80F100368F6
:101550000092DF6801222B460DF10F01B84748B118
:101560004FF4004230682146036800921E69012250
:101570002B46B04705B0F0BDA004002030B585B0C3
:101580008DF80D200022074B8DF80C101C6803A964
:1015900023680092DD68022203462046A84705B072
:1015A00030BD00BFA004002037B54FF40045064B06
:1015B0001C68236800951D6913460A4601462046AB
:1015C000A84703B030BD00BF9C04002037B50025FC
:1015D000054B1C6823680095DD6813460A460146E2
:1015E0002046A84703B030BD9C04002037B5022533
:1015F000054B1C6823680095DD6813460A460146C2
:101600002046A84703B030BD9C040020024B186858
:1016100003681B68184700BF9C040020024B186831
:1016200003685B68184700BF9C040020024B1868E1
:1016300003689B68184700BF9C0400204FF47A732E
:101640005843B0FBF3F009F075B8000010B5424CF8
:101650000AF0AAF820460222002102F069FE0122C7
:101660002046114602F064FE20460122022102F0CB
:101670005FFE20460222032102F05AFE204600228D
:10168000042102F055FE20460222082102F050FEFD
:1016900020460122092102F04BFE204601220A21A8
:1016A00002F046FE204602220B2102F041FE02F02B
:1016B000F5FB002320461A460C2102F0FBFD2046D4
:1016C00000220C2102F0C4FE2046002204F58064B2
:1016D0000F2102F02DFE20460122002102F028FEFB
:1016E00020460022022102F023FE20460022032190
:1016F00002F01EFE20460222062102F019FE2046BC
:101700000022082102F014FE20460022092102F0E6
:101710000FFE204601220C2102F00AFE2046022282
:101720000D2102F005FE204602220E2102F000FEED
:10173000204602220F2102F0FBFD002304F5806405
:1017400020461A460D2102F0B5FD2046BDE81040A6
:1017500000220D2102F07CBE0000024003F002B91D
:101760001C4B00B51A6889B0D2075FBF1A4A1060D7
:1017700001221A60194B0493194B0593194B0393DB
:10178000194B0293194B0793194B069308AB13E9B6
:1017900003008DE8030002AB0FCB10F01BF990B1F2
:1017A000144805F071FB00221348114602F0C0FDF9
:1017B0000F2302220021104802F05AFC09B05DF804
:1017C00004EB10F0A1B869210C4809B05DF804EBF6
:1017D00002F09EB898040020A0040020191500080B
:1017E00029150008391500087D150008896E0008C4
:1017F0003D16000859700108000002406A70010897
:10180000002307B5ADF8043001238DF806300198A8
:1018100009F026FF02F042FB03B05DF804EB09F08B
:1018200071BF0000194B10B51A688CB0D2075FBFAA
:10183000174A106001221A60164B0793164B059346
:10184000164B0693164B0893164B0993164B0A93A7
:10185000164B0B930CAB13E907008DE8070005ABA3
:101860000FCB0FF0DBFF044601220F21104802F0DE
:101870005FFD3CB10F4805F007FB0FF0ADFF2046C0
:101880000CB010BD0C4805F0FFFAF8E794040020F6
:101890009C040020A9150008CD150008ED150008CE
:1018A0000D1600081D1600082D160008896E000888
:1018B00000000240E06F0108137001082DE9F047B5
:1018C0009AB00AF03BFBDFF8B490244C244E254F2D
:1018D00012AD50B9CDE91544CDE91376CDF8489055
:1018E000009495E80F000AF02FFB1F4B4FF0000A01
:1018F00013931E4B4FF0010812931D4B06A914932E
:101900001C4B284615931C4BCDE91876CDE91634AF
:101910000423CDE9063A8DF81D8006F001F805F0A4
:10192000F3FF12F097FF514610220EA812F076F93D
:101930000323CDE908440D938DF83D8001AC0DAD36
:101940000FCDCDE90A970FC42B682360009608AB32
:101950000FCB0AF02DFC1AB0BDE8F087896E0008A5
:10196000756F0008A16F000889B6000851B500081E
:1019700061B40008F9B300080DB40008514900082B
:101980002DE9F047044602F09FF91E49054611F083
:1019900037FC11F0FBFD01461B4805F075FA4FF0CE
:1019A0008041284611F0CAFD48B30025DFF8609059
:1019B000DFF85080154E02F087F94946074611F0CE
:1019C000D1FDA8B94146384611F01AFC11F0DEFDF0
:1019D0000146304605F058FA236885F00105204697
:1019E000DB68294698474FF47A7002F07FFAE2E705
:1019F00023682046BDE8F047DB6800211847BDE8B2
:101A0000F08700BF00007A44317001083E70010881
:101A10000000204008B50D49012002F0FBFD0C49F3
:101A20000B2002F0F7FD0B490A2002F0F3FD0A49F2
:101A3000042002F0EFFD0949072002F0EBFDBDE8AC
:101A400008400749052002F0E5BD00BF4D8C0008A5
:101A50005D8F0008E98D000875900008C98F0008A7
:101A600051900008002310B50C461A460D21074876
:101A700002F020FC14B1012C00D010BD2246BDE8BC
:101A800010400D21014802F0E3BC00BF00080240F5
:101A9000002310B50C461A460C21074802F00AFC38
:101AA00014B1012C00D010BD2246BDE810400C211D
:101AB000014802F0CDBC00BF00000240014802F026
:101AC00033BD00BFA086010002F0FEBC02F018BDCD
:101AD0002DE9F041069F1E4607F00303032B8046C5
:101AE0000C46154603D119210D4801F011FF20467F
:101AF000BC07324629460AD502F050FD10B101203C
:101B0000BDE8F0810123002088F80430F8E7FB07E6
:101B100002D502F051FDF1E702F032FDEEE700BF21
:101B2000BC7001082DE9F041069C0D46E107804696
:101B300016461F4603D536210D4801F0E9FEA207DF
:101B400003D539210A4801F0E3FE23043A46314621
:101B500028460AD502F03EFD10B10120BDE8F08113
:101B60000123002088F80430F8E702F0FBFCF3E7DB
:101B7000BC70010808B50321034802F072FC003074
:101B800018BF012008BD00BF000402400A460248F9
:101B9000032102F05DBC00BF0004024008B581B122
:101BA000012303211A460A4802F084FB0321084856
:101BB00002F042FCBDE8084003220548114602F04D
:101BC00059BB0122BDE808400321014802F0B0BB27
:101BD0000004024002F0BCBE084611461A469DF8B9
:101BE000003002F055BF02F001BF02F019BF0846F5
:101BF00002F092BDDFB50023CDE90133ADF80C3022
:101C000001238DF807308DF808306FF01D038DF833
:101C100009300723044601A88DF80A3005F071F851
:101C2000236806461B6820460F469847864277EB96
:101C30000103B4BF0120002004B0D0BD042817D890
:101C4000DFE800F00309100E1200002303211A46FA
:101C5000084802F02FBB00220321064802F068BBAF
:101C60000222F9E70122F7E70321024802F086BBCE
:101C7000704700BF00000240042817D8DFE800F0DA
:101C80000309100E1200002302211A46084802F030
:101C900011BB00220221064802F04ABB0222F9E7EA
:101CA0000122F7E70221024802F068BB704700BF3B
:101CB000000002401FB553680293137801934B68EC
:101CC00000930B6842680178024805F0DDF805B022
:101CD0005DF804FB4C71010810B50446C06908B1F9
:101CE00005F048F9206908B105F044F9606808B1C9
:101CF00005F040F9204610BD10B50446006808F014
:101D0000C5F8204610BD0000CA21014801F000BE00
:101D10006A710108FE2307B58DF80430054B01A94F
:101D20001868002300681A4607F09CFD03B05DF8B0
:101D300004FB00BFB0040020D0B51F467423C0E9E7
:101D40000031002304468360082016460FF0BCFCD7
:101D5000C0E90067A0602046D0BD0000036837B529
:101D6000632B05460C4601D0FFF7CEFF002301AAE6
:101D7000A9682046019304F06DFE019A3AB121460C
:101D8000044805F081F83821034801F0C1FD03B093
:101D900030BD00BFAC710108D971010870B5632373
:101DA0000025C0E90031044685601A2016460FF070
:101DB0008BFC1A22294611F031FF3146A0602046E3
:101DC000FFF7CCFF204670BD81647047C164704747
:101DD0002DE9F843D0E90173884600254FF00C093E
:101DE000DB1B0A4E9B105E43ECB2B4420BD209FBE4
:101DF00004724146506812F0E9FD01350028F3D124
:101E00002046BDE8F8834FF0FF30FAE7ABAAAAAA54
:101E10002DE9F843D0E90473884600254FF00C09FA
:101E2000DB1B0A4E9B105E43ECB2B4420BD209FBA3
:101E300004724146506812F0C9FD01350028F3D103
:101E40002046BDE8F8834FF0FF30FAE7ABAAAAAA14
:101E50002DE9F0470E4649680446FFF7B9FFC0B2C6
:101E6000FF2807D071682E4805F00EF87C212D4818
:101E700001F04EFDD4E901232B4F9B1A9B107B43AD
:101E80007E2B03D97F21274801F042FDD4E90112BE
:101E90000C25E068531A9B10121A7B4392107A4368
:101EA0000133934205FB03F80ED84144A160D4E905
:101EB000013496E80700E31A04E907001A489B106A
:101EC00058430138BDE8F087404605F069F80546FB
:101ED00018B96921154801F01BFDD4E901C3002799
:101EE0004FF00C0AA3EB0C030F4A9B1002FB03F903
:101EF000A9EB0703002B0ADD0AFB07F305EB030E32
:101F0000634493E8070001378EE80700F0E7604676
:101F100005F030F865604544C4E90255C7E700BFE5
:101F200012770108D9710108ABAAAAAA3277010871
:101F30001FB56E23CDE90131002301A90393FFF7FB
:101F400087FF05B05DF804FB0023FF2270B54FF05A
:101F50000041C0E90033C0E90233C0E90433C0E9FD
:101F60000633C0E9083380F82820044600206FF0CB
:101F70007F42C4E90C01C4E90E014FF0FF31C4E90E
:101F80001233C4E91012002305221E4DC4E91423A4
:101F90002A6812F0010212D101211B4E084632605C
:101FA00007F086FB306018B91121184801F0B0FC29
:101FB0000123174A174914482B6010F0F8F9164B03
:101FC0001A680AB9104A1A6014492046FFF7B0FF90
:101FD000134B144918702046FFF7AAFF124B134900
:101FE00018702046FFF7A4FF114B124918702046C5
:101FF000FFF79EFFFE22104B1870104B20461A7000
:1020000070BD00BFAC040020200500205F780108EF
:1020100000000020F91C0008B00400209978010895
:10202000B8040020A1780108B6040020A9780108AE
:10203000B4040020AE780108B7040020B5040020E5
:1020400010B5084C2368DB0709D40748FFF77CFF6D
:102050000123064A06490448236010F0A8F9024803
:1020600010BD00BFA8040020C8040020000000200C
:10207000D91C00082DE9F0470E4649680446FFF7D1
:10208000C7FEC0B2FF2807D071682E4804F0FCFEDE
:1020900087212D4801F03CFCD4E904232B4F9B1AE7
:1020A0009B107B437E2B03D98A21274801F030FC0B
:1020B000D4E904120C25A069531A9B10121A7B4311
:1020C00092107A430133934205FB03F80ED8414442
:1020D0006161D4E9043496E80700E31A04E90700D3
:1020E0001A489B1058430138BDE8F087404604F079
:1020F00057FF054618B96921154801F009FCD4E9D4
:1021000004C300274FF00C0AA3EB0C030F4A9B10EB
:1021100002FB03F9A9EB0703002B0ADD0AFB07F317
:1021200005EB030E634493E8070001378EE80700D0
:10213000F0E7604604F01EFF25614544C4E90555FB
:10214000C7E700BF6A770108D9710108ABAAAAAA3C
:102150003277010838B5D0E901239B1A074A9B1052
:102160005343CDB29D42044603D3A621044801F057
:10217000CFFB0C20636800FB053038BDABAAAAAAD0
:10218000D971010838B5CCB2114905460B6813F076
:10219000010307D10F4A70201372012310600E480B
:1021A0000B605060FF2C10D0D5E904239B1A0B4A1A
:1021B0009B1053439C4203D3B221094801F0A8FB72
:1021C0000C23286903FB040038BD0248FCE700BF6C
:1021D000A4040020BC04002059720108ABAAAAAADA
:1021E000D971010810B5D0E90730C9B2D2B2834223
:1021F00009D01C788C4204D15C78944201D1987843
:1022000010BD0333F3E74FF0FF30F9E72DE9F0415C
:10221000D0E904239B1A534A9B1053430D46097877
:102220000446994203D393214F4801F071FBD4E94E
:1022300001239B1A4B4A9B1053436978994203D35D
:102240009421494801F064FBD4E904239B1A454AD0
:102250009B105343A978994205D3FE2903D09521B9
:10226000414801F055FB6A7829782046FFF7BAFF0C
:10227000C3B2FF2B06462CD03C4804F005FE29785B
:102280002046FFF77FFF697807462046FFF762FF89
:10229000314680462046FFF775FF414602463846E4
:1022A000FFF708FD29782046FFF76CFF697806469E
:1022B0002046FFF74FFFA97807462046FFF762FF49
:1022C000394602463046FFF7F5FC9C21264801F0CE
:1022D0001FFBD4E90723234F9B1A7B437E2B03D993
:1022E0009F21214801F014FBD4E90721606A8B1A71
:1022F0007B43091A4F430133BB4203EB43080AD81F
:10230000424422622A88236A23F8032CAA7803F81D
:10231000012CBDE8F081404604F042FE064618B9A3
:102320006921134801F0F4FAD4E907010B1A0D49A9
:1023300059430023CA1A002A0DDD03EB4302871814
:10234000B7F800E006EB020C26F802E0BA78013399
:102350008CF80220EEE704F00DFEE6614644C4E985
:102360000866CFE7ABAAAAAAD97101083E72010894
:102370003277010813B5FF24074B8DF804401B6822
:102380000A46186801A907F011FB012814BF20466E
:102390009DF8040002B010BDB004002038B581687B
:1023A00000681D46144604F047FE0346201845EB1E
:1023B000E37138BD2DE9F0410E681046722E1F46BC
:1023C00027D0742E08D0632E12D000244FF0004581
:1023D00020462946BDE8F0818B68D3E90023B3F19C
:1023E000004F08BF002A19D0841847EB0305EFE718
:1023F000886804F0EFFB002871F1000304460D46E5
:10240000E6DA084804F040FDDD21074801F080FAD3
:10241000DEE78868BDE8F041FFF7C0BF14461D46FF
:10242000D6E700BF60730108D97101082DE9F047B4
:102430000F460646FFF7A6FE0024DFF85C904268D0
:102440000178FFB2124804F01FFDD6E90758454550
:1024500016D02B78BB4211D169783046FFF77AFE4F
:10246000016869290AD1D0E9012A484604F00CFD27
:10247000DAF8003003B198470134E4B20335E6E7F7
:102480002146044804F000FD2046BDE8F08700BF67
:1024900086730108CF730108AD7301082DE9F34776
:1024A00007468846FFF76EFE0025426801781B4804
:1024B00004F0EAFCFC693E6ADFF8689003340336F6
:1024C0005FFA88F8A64220D0234633F8032D9B7884
:1024D000ADF804208DF8063014F8033C984512D16D
:1024E0009DF805103846FFF735FE016869290AD1C5
:1024F000D0E9012A484604F0C7FCDAF8043003B1F9
:1025000098470135EDB20334DCE72946044804F06E
:10251000BBFC284602B0BDE8F08700BFED730108A0
:102520003A74010816740108836C73B504460D46AD
:10253000164623B94FF48C710D4801F0E9F90D49A5
:10254000CDE9006423462A460B4807F07FFD0128A9
:1025500001460AD0094804F097FC4FF48F710448F3
:1025600002B0BDE8704001F0D3B902B070BD00BF49
:10257000D9710108E0760108992D0008EB76010871
:1025800038B590F847300446032B0D4604D940F285
:102590003111064801F0BCF994F847305A1C84F810
:1025A00047201C4484F8425038BD00BFD97101084F
:1025B00010B590F84730044623B94FF49B71064894
:1025C00001F0A6F994F84730013BDBB284F84730BC
:1025D0001C4494F8420010BDD9710108CBB2FE2B07
:1025E00037B5054605D1104803B0BDE8304004F0CA
:1025F0004BBCFFF7C7FD016804466D290DD1017A78
:102600002846FFF7BFFD436800930368D4E9001232
:10261000064804F039FC03B030BD4268044803B0FA
:10262000BDE8304004F030BC0B7801081378010895
:102630004075010808B5FFF78DFDBDE80840D0E9F9
:102640000012014804F020BC8A7701082DE9F74FF9
:1026500004462A4804F018FC4FF00008284FDFF821
:10266000B0A0DFF8B090D4E90431C91A89107943D9
:102670005FFA88F6B14231D9504604F005FC204695
:102680003146FFF7ABFF94F82830DFF88CB0B34247
:102690000CBF1C48484604F0F7FBD4E907531A4A1C
:1026A000AB4218D02978B14213D11046019304F0FF
:1026B000EBFB69782046FFF7BDFF584604F0E4FBCA
:1026C000A9782046FFF78AFF484604F0DDFB019B0E
:1026D0000D4A0335E4E708F10108C4E7D4E907230C
:1026E0009B1AD4E90102121A92107B437A430748DD
:1026F00003B0BDE8F04F04F0C7BB00BF92770108FC
:10270000ABAAAAAAAA770108B6770108C777010879
:10271000A1770108796F0108C37701082DE9F84313
:102720000422054690F84710114804F0ADFB002440
:10273000DFF848900F4F05F1420695F84730A34265
:1027400010DD16F8011B2846FFF71CFDD0F80480A9
:1027500014B1484604F098FB4146384604F094FB17
:102760000134EAE70448BDE8F84304F08DBB00BF3C
:10277000FB7701080578010808780108037801084B
:1027800000232DE9F04FC0E90433884619464FF085
:1027900000430446C0E90213C0E90013FF2085B0DE
:1027A000CDE90013DDE90E6720745FFA82F9D8E9FC
:1027B00007500390039BD4E900AB9D4220D02B78B7
:1027C0004B451BD169784046FFF7C4FC32463B4677
:1027D00001464046FFF7EEFDDDE90023994208BFC0
:1027E00090420BD09B4508BF924503D0504571EBFA
:1027F0000B0303DA6B78C4E9000123740335D9E7CE
:10280000BBF1004F08BFBAF1000F05D0BAEB0606C6
:102810006BEB0707C4E90267204605B0BDE8F08FFF
:10282000F8B50D460E4B896806464B434FF47A7156
:10283000B3FBF1F1FFF79EFD0446C7B2B06C03682D
:102840001B689847C6E90E0104F09EFA0146054848
:1028500004F01AFBFF2F0CBF287C2046F8BD00BFF8
:1028600040420F001B72010870B5C36C86B004466D
:102870000D464BB9224804F007FB2946204606B016
:10288000BDE87040FFF7CCBF806C1E4903681B6930
:102890009847A06C03689B689847D5E9002303A874
:1028A00004F00AFAA06C9DF80C20036800929DF8D1
:1028B0000F109DF80E205E689DF80D30B047A06C9B
:1028C0000368DB689847E36C9847A06C03689B68D3
:1028D0009847A06C03681B689847C4E90E0104F090
:1028E00053FA0146084804F0CFFA00212046FFF7CA
:1028F00041FDC0B2FE2808BF287C06B070BD00BFF5
:1029000021780108151D00083F7801082DE9F84FCE
:102910009046D1E90023B3F1004F08BF002A0546D5
:102920000C4677D0DFF830B1DFF830A1D4E90201EE
:10293000012871F100030DDA50EA010302D03B488F
:1029400004F0A2FA3A4804F09FFA94F8109048462E
:10295000BDE8F88FB8F1000F1AD0504604F094FA91
:1029600021462846FFF75CFF5FFA80F9B9F1FF0FB7
:102970001ED1304804F088FA40F20E212E4800F0B3
:10298000C7FF2E4B2E4A40F20F212B4810F0FEFFBE
:10299000D5E91423904271EB030301DA5846DDE7D1
:1029A000284804F071FA21462846FFF75DFFDBE76F
:1029B000237C4B452AD1D5E90E01D4E9002390426E
:1029C00071EB030C12DA204804F05EFAD5E90E230D
:1029D000D4E90001801A61EB0301C4E9020104F0AB
:1029E000E9F90146194804F04FFA9FE7861A61EBAE
:1029F0000307022E77F10003A9DB3946304604F0C5
:102A0000D9F90146124804F03FFAA0E7114804F052
:102A10003BFA9CE7B8F1000F03D0BDE8F84FFFF791
:102A2000FFBEBDE8F84FFFF71FBF00BFB775010835
:102A3000DC7501084C760108D9710108727601082D
:102A4000DB7801083276010878760108977601086C
:102A5000AA760108C976010814760108F475010800
:102A60002DE9F04188B004460E46FFF78BFB036862
:102A70000546702B04D04FF49E71344800F048FF97
:102A8000A06C03681B6898473246C4E90C01CDE985
:102A90000001214602A8FFF773FE31462046FFF7EA
:102AA000C5FC9DF818300746FF2B0AD148B9297894
:102AB00027486A6804F0E8F940F24711234800F01B
:102AC00027FFD4E90C0104F05FF90146214804F026
:102AD000DBF93946204804F0D7F99DF81810FF2992
:102AE00015D11E4804F0D0F900224FF00043CDE983
:102AF00004232A7A02A92046FFF708FF054631463B
:102B00002046FFF7CBFC284608B0BDE8F081204600
:102B1000FFF720FBD0E90078DDE9020104F034F989
:102B20004246034639460E4804F0AEF9D4E90C3269
:102B300002980399C01A61EB0201CDE9040104F087
:102B400039F90146074804F09FF9D2E7D971010825
:102B500098720108CB720108EA7201080573010836
:102B60001E7301084273010870B504460D46FFF755
:102B700009FB03686D2B11D0702B09D0612B0DD18F
:102B8000836894F8411094F84000BDE870401847FD
:102B900029462046BDE87040FFF762BF40F22B1186
:102BA000024800F0B5FE4FF0FF3070BDD97101084A
:102BB0002DE9F74F0446684804F066F9674804F0C9
:102BC00063F9674804F060F9644804F05DF994F82B
:102BD0002830FF2B04D14FF4D071624800F098FEEA
:102BE00094F828102046FFF7CDFA426801785E4835
:102BF00004F04AF994F82830DFF898B1DFF85891DA
:102C000084F8463094F846102046FFF7BBFA036874
:102C100080466D2B1BD14168544804F035F994F877
:102C200046102046FFF7ACFC98F80810204684F8C0
:102C30004610FFF7A7FA426801784D4804F024F9DE
:102C40002046FFF76BFD484604F01EF9DAE794F8DA
:102C500046102046FFF788FFC3B2FF2B07460ED170
:102C6000444804F011F940F2B5113E4800F050FE1E
:102C700040F2B511404B414A3A4810F087FE0246F7
:102C800094F846102046FFF7ADFAC5B2FF2D0CD1DF
:102C90003B4804F0F9F840F2BB11324800F038FE2E
:102CA000354B364A40F2BB11E6E794F84610FE2D4C
:102CB000204630D1FFF77CFC014606462046FFF750
:102CC00061FAD8F8042098F8001082462D4804F0E4
:102CD000DBF83A4631462046FFF784FAC5B2FF2DAD
:102CE0000CD1294804F0D0F84FF4E3711D4800F0EE
:102CF0000FFE214B214A4FF4E371BDE7DAF80410CF
:102D0000584604F0C1F82046FFF708FD484604F095
:102D1000BBF83146CBE7FFF735FA39460646204681
:102D2000FFF718FA294680462046FFF72BFA019054
:102D3000164804F0A9F8164804F0A6F8019A41468E
:102D40003046FEF7B7FF94F8463084F8417084F8B7
:102D5000403084F8465055E7796F01085A740108ED
:102D600079740108D971010898740108B6740108D2
:102D7000D5740108EC74010872760108B678010870
:102D80000F7501082975010848750108917501083A
:102D9000A77501087B75010808B5FFF751F9FFF722
:102DA00007FF00002DE9F8431F461646FFF7D2F94A
:102DB000B7F1004F08BF002ED0E9005884681AD040
:102DC000742D01D0FEF7A0FFD4E9000103F0F2FF5B
:102DD00039468146304603F0EDFF4A4603464146F8
:102DE0000A4804F051F8742D01D0FEF78DFFC4E9B4
:102DF0000067BDE8F883742D01D0FEF785FFD4E9A4
:102E0000000103F0D7FF024B0246E8E767720108B2
:102E10008C720108FF23054A1370054A1370054A96
:102E20001370054A1370054A13707047B8040020E8
:102E3000B6040020B4040020B7040020B50400202C
:102E400010B50446006807F021F8204610BD10B503
:102E50000446006807F01AF8204610BD1FB509F0B7
:102E6000FBFA0023ADF80C300E4B5A7812B1012258
:102E70008DF80C201B7813B101238DF80D30002341
:102E8000094A0A490A4800931278039B09780068A6
:102E900009F062FC20B1074B187805B05DF804FB1F
:102EA000054BF9E7480500204B0500204A050020A6
:102EB00044050020B4040020B604002008B5002317
:102EC0001A4606F0CFFC431E5842584108BD000088
:102ED00007B50B78012B11D05AB22AB1022B11D0B1
:102EE0000A4803F0D1FF06E00192094B01A91B68D3
:102EF0001868FFF7E3FF03B05DF804FB4FF0FF3302
:102F00000193F2E7024B04311B68F1E7D77A01081D
:102F10003C0500201FB56123CDE9013101A90392D1
:102F2000FFF7A8F805B05DF804FB1FB57023CDE9E5
:102F30000131002301A98DF80C30FFF79BF805B093
:102F40005DF804FB30B5044685B00D4600F010F87E
:102F50006D22064B01A91B782046CDE901258DF88D
:102F60000C30FFF787F805B030BD00BF4E050020DC
:102F70002DE9F04F554B85B01A780446002A40F0F1
:102F8000A180012652491E70FEF7D2FF514B5249D3
:102F900018702046FEF7CCFF504B51491870204660
:102FA000FEF7C6FF4F4900230A2208704E4901A8C8
:102FB000FEF7C2FE01A801462046FEF749FF4B4F2F
:102FC0004B4938702046FEF7B3FF4A4D4A4A2870F5
:102FD0004A492046FFF79EFFDFF854B1484A8BF874
:102FE000000048492046FFF795FF4749054620461F
:102FF000FFF79BFF70238046019301A8434B0146D6
:10300000204602938DF80C60FFF734F8404A824660
:1030100040492046FFF77EFF3F4E40493070204632
:10302000FFF790FF81463E482B4602789BF8001040
:103030002046FDF7C8FA294A434629461278204619
:10304000FDF7C1FA274953460A7820462946FDF77D
:10305000BAFA2B463A7841462046FDF7B4FA2B4699
:103060003A7851462046FDF7AEFA2E4A2B462946BD
:103070002D4F12782046DFF8BC80FDF7A4FA2946D0
:103080001C4D3B7898F800202046FDF79CFA4B46F3
:103090002A7831782046FDF796FA337898F80020A0
:1030A00049462046FDF78FFA204A3B78127831785E
:1030B0002046FDF788FA1A483B7802783178204696
:1030C000FDF781FA05B0BDE8F08F00BF4206002091
:1030D000307B01084C0500203A7B01084F05002099
:1030E000457B010830050020517B01083105002097
:1030F0005E7B0108500500205D2E00086A7B0108F8
:103100008D350008747B0108887B01089B7B0108D2
:1031100001360008AF7B010840050020C07B010894
:10312000B4040020B7040020B5040020510500209D
:103130004E050020B80400202DE9F8432B4B04462F
:103140001A682B4E12F0010F4AD1FF223270012271
:103150001A602046FFF70CFF264A27492046FFF752
:10316000D9FE264A307026492046FFF7D3FE254D6A
:10317000254928702046FFF7D8FE2449814620467D
:10318000FFF7D3FE0746224A2B7831782046127883
:10319000FDF719FA1F4A3378297820461278FDF78F
:1031A00012FA1D4ADFF878804B46297820461278BB
:1031B000FDF709FA2B7898F8002049462046FDF7DC
:1031C00002FA164A3B46297820461278FDF7FBF9A9
:1031D0002B7898F8002039462046FDF7F4F902E0F4
:1031E0003378FF2BB5D03078BDE8F8832C0500206C
:1031F00043060020B1360008D17B010845320008A3
:10320000DB7B01084D050020E57B0108F37B01080D
:103210004C050020B80400204F050020B604002013
:103220003105002070B50D460446FEF709FF04493C
:1032300022462B46BDE870400978FFF7B3BD00BFBA
:1032400031050020F7B5414C26689EB904200EF0E8
:103250003BFA3246054606600421012006F028FAB2
:10326000286018B911213A4800F052FB394825600E
:1032700009F012F9384F394E39683948013139604F
:1032800003F002FE09F0E8F833781BB9012333702C
:1032900009F018F9002301932368324A01A918683C
:1032A00006F084FB012806D02F4803F0EDFDFB213A
:1032B0002E4800F02DFB019D6B1C24D12C4803F0FF
:1032C000E3FD3C681E21013CE4B21E2C28BF1E24F5
:1032D000002001FA04F4B4F5E15F307028BF4FF428
:1032E000E15403F0A9FE0025261845EBE0773146AE
:1032F000204803F0C9FD30463946FFF793FF1E4BC7
:10330000187803B0F0BD4DB129461C4803F0BCFD50
:1033100001980021FFF786FF194BF1E719483D603E
:1033200003F0B2FD09F042F823686BB1284609F0BA
:10333000B3F8256835B1286806F0A8FD04212846B1
:103340000EF0D0F9002323600F4BD9E73C05002095
:103350005F780108D12E0008600500205C05002080
:1033600030790108A0860100437901085D790108E0
:10337000A9790108C0790108B6040020D7790108AD
:103380004F050020EC790108B8040020054B1870A7
:10339000054B1A700022054B1960054B1A705A70C4
:1033A000704700BF4B0500204A050020440500205F
:1033B000480500204FF47A7337B5002403FB00F270
:1033C0000749B2FBF3F20D6801A92868019406F0E1
:1033D0002FFC012814BF2046019803B030BD00BF68
:1033E000380500204FF47A7337B5002403FB00F250
:1033F0000749B2FBF3F20D6801A92868019406F0B1
:10340000D5FA012814BF2046019803B030BD00BF93
:1034100034050020034B93F82A30022B0CBF022006
:10342000002070479000002070B51D460023044620
:1034300003604171164602B115B92371204670BD73
:1034400028460EF04BF92A462060314610F0BEFBAC
:103450002571F3E710B50446006808B10EF040F995
:10346000204610BDF7B5184D04462A6822B94FF41E
:103470009171164800F04CFA24B3637F13B3237F95
:1034800003B308200EF020F9237FA26C617F06466B
:103490006789FFF7C9FF002328681A4601A9006859
:1034A000F780019606F028F901280BD0084803F0B0
:1034B000EBFC019C34B12046FFF7CCFF08212046ED
:1034C0000EF010F903B0F0BD380500205D79010859
:1034D000057B010810B50446FFF7C4FF24B1204660
:1034E000BDE810400BF0DEB810BD00007FB542F221
:1034F000107008F0D7FF04461F4803F0C5FC002CED
:1035000037D0A06FFFF7AEFF2578022D2DD1606870
:103510000021FFF787FEA36FF3B1D3E91423134310
:103520001AD0164B1E6806F0B3FF01461448B04788
:10353000A36FD3E9140103F027FCA36F01461A6DB2
:10354000104803F0A1FCA36F01A8D3E9142303F0F2
:10355000B3FB01A801F08EF90B4803F095FC20465F
:1035600009F05EFE284604B070BD032DD3D10020C3
:10357000CEE70125F6E700BFFC79010890000020A6
:103580001A7A0108277A0108587A0108002310B531
:10359000144C84F82E3008F03DFF08B108F05CFFB1
:1035A000FFF7A4FF032815D8DFE800F005020A089A
:1035B0000D4803F069FC0D4B187810BD0C4BFBE770
:1035C000FFF728FF022809BF01230A4B84F82E3099
:1035D000094BF1E709484FF4FA7100F099F94FF0FF
:1035E000FF30EAE790000020BD7A0108B80400200F
:1035F000B70400204F050020300500205D79010848
:1036000070B500200021FFF7D5FE28B1194803F05E
:103610003BFC194B187870BD00200021FFF7E2FE3B
:10362000044620B302794179144803F02DFC227935
:10363000134BDE2A28BFDE222168184610F0C6FA96
:10364000034666790F48257906700F48A179057001
:103650000E48E27903600E4B204619705A70FFF74E
:10366000F9FE082120460EF03DF80A4BD2E70A4B3E
:10367000D0E700BF717A010851050020887A01085F
:10368000640500204B0500204A0500204405002069
:103690004805002050050020B404002010B5044661
:1036A000006810B101210EF01DF8204610BD000089
:1036B00070B54F4BC0B21B788AB0984201D14D4BC8
:1036C0007DE00DF0B7F94C4904460DF033F805469E
:1036D000002877D0494A214601A80DF034F8484A1D
:1036E000214604A80DF02FF8464A214607A80DF000
:1036F0002AF8079A0499019809F066F907A8FFF7D4
:10370000CDFF04A8FFF7CAFF01A8FFF7C7FF3E4996
:1037100020460DF029F840B20AF026FE09F0D6F84E
:103720003A4920460DF020F8C0B20AF0EBFD09F04E
:10373000C3F837492046374C0CF0FCFF09F016F966
:10374000226812F0010212D10421334E0846326081
:1037500005F0AEFF306018B91121304800F0D8F8FC
:1037600001232F4A2F492C4823600EF020FE2E4BB8
:103770001A680AB9284A1A602C4C226812F0010211
:1037800012D104212A4E0846326005F091FF3060C4
:1037900018B91121214800F0BBF80123204A25491E
:1037A000234823600EF003FE234B1A680AB9204A0F
:1037B0001A60224809F0F0F8002D80D0204B1878CC
:1037C0000AB070BD214601A81E4A0CF0BCFF21467C
:1037D00004A81D4A0CF0B7FF214607A81B4A0CF0AD
:1037E000B2FF049A0799019809F0DCF886E700BF58
:1037F0004D050020B8040020CA660108D6660108FD
:10380000CF660108DD6601084F67010823670108DC
:1038100090A0010828050020580500205F780108C5
:10382000000000204F2E000838050020240500204D
:1038300054050020412E000834050020D53400082E
:103840004C050020F4660108EC660108E4660108F6
:10385000FF23094A1370094A1370094A1370094A71
:103860001370094A1370094A1370094A1370094A00
:103870001370094A137070474E0500204D05002053
:103880004005002051050020500500204C05002077
:103890004F0500203005002031050020014B186045
:1038A000704700BFD006002073B5134C064623783E
:1038B0000D46124A1BB913780BB172B6FEE701230D
:1038C000002113700E48642210F0A8F92B460096D0
:1038D0000C4A64210A4811F025F80B4B1B6803B110
:1038E00098470125064E304603F012FB72B6074B8F
:1038F0002570013BFDD1F6E7B0060020440600200C
:1039000046060020157C0108D0060020FFFF0F00AE
:1039100073B5134C064623780D46124A1BB913782B
:103920000BB172B6FEE70123002113700E4864222A
:1039300010F074F92B4600960C4A64210A4810F0E6
:10394000F1FF0B4B1B6803B19847074803F0E0FAFF
:10395000084803F0DDFA72B601232370FEE700BFCA
:10396000B106002045060020460600203D7C0108E7
:10397000D00600204C7C01080368DFF888C080B5C1
:10398000CCF80030164F4368164E3B608368164DE6
:103990003360C36815492B600369154A0B6043699E
:1039A000144C13608369C0692360134B1860DCF802
:1039B00000003868306828680968104812680021DB
:1039C000226864221B6810F029F923680C4A6421DC
:1039D0000A4810F0A7FF094803F09AFAFEE700BF73
:1039E000C0060020C8060020CC060020C406002027
:1039F000AC060020B4060020B806002046060020D1
:103A0000027C0108BC060020074B1B6803B19847E5
:103A10001EF0040F0CBFEFF30880EFF309808169FB
:103A2000004A104779390008D0060020002103E041
:103A30000A4B5B584350043109480A4B42189A42DA
:103A4000F6D3094A02E0002342F8043B074B9A42AE
:103A5000F9D300F00DF8FDF73DF8704714BD0108EB
:103A6000000000207002002070020020C84E0020DC
:103A7000314B82B01A6842F480721A6099682F4AFA
:103A80000A409A601A6822F0885222F001121A60E5
:103A90001A6822F480221A609A6822F47D029A60E1
:103AA0000022DA6001921B6813F4007318BF01232F
:103AB0000193019B012B37D14FF48051204B1A68A1
:103AC000A3F5806322F00102C3F80024D3F8002498
:103AD00022F00202C3F80024D3F8002422F00402EA
:103AE000C3F800245A6A42F080525A62154A1160A3
:103AF0005168C906FCD49A689A609A689A609A6874
:103B00009A605A6822F460425A605A6842F440420D
:103B10005A609A6822F003029A609A689A60064A8C
:103B2000936813F00C0FFBD14FF00062064B9A60C4
:103B3000064ADA6002B07047003802400CC0FF88C5
:103B4000003C02400070004000ED00E00003FA0578
:103B500070B5064688B02D4801F07EFA2C4B1A68E5
:103B60000092009A91073AD501214FF4007001F0BC
:103B7000CDFC012001F0BEFA264A536843F400331D
:103B80005360A2F5374253681B07FCD5002401257A
:103B900002A801F09BFA02A91C4806948DF81C505B
:103BA000ADF80C4001F06CFA2A460623314617485E
:103BB00001F0ACFA2946154801F093FA02211348A6
:103BC00001F036FB114801F025FB134D01940F4C19
:103BD0000221204601F026FB58B108B070BD1A68DA
:103BE00042F001021A60009A9207BDD41A6800924E
:103BF000F9E7019B01330193019BB3F5805FE7DB9C
:103C000038212846FFF784FEE2E700BF0024014088
:103C10000038024000270140687C010808B50020F8
:103C200001F068FA0021074801F05BFA00214FF427
:103C3000007001F06BFC044A136823F00103136069
:103C400008BD00BF002401400038024013B507231F
:103C500001220146114801F059FA02210F4801F0F2
:103C6000E7FA0E4801F0D6FA00230D4C0193022129
:103C70000A4801F0D7FA28B1084802B0BDE8104060
:103C800001F0CDBA019B01330193019BB3F5805F35
:103C9000EDDB4C212046FFF73BFEE8E70024014026
:103CA000687C010870B506460825FFF751FF00241F
:103CB0003046FFF7CBFF013D0444F9D1FFF7AEFFDB
:103CC000C4F3CF0070BD000008B51120FFF7EAFF74
:103CD0000FF03EFA014608480FF046FB0EF020FEBA
:103CE00003A3D3E900230EF073FE0FF02BF908BDF8
:103CF0002FDD24068195F33F00F07F450F4A536A7C
:103D000043F0805353620E4B1A465968C906FCD4DF
:103D10001B68022823F4C05306D143F4C053136038
:103D20005368DB06FCD47047012802D143F480536A
:103D3000F5E70028F3D143F40063F0E700380240D0
:103D40000070004010B50C4B5A68D206FCD41C68B9
:103D500014F4C05F0BD114F480500AD114F4006441
:103D600004D106482A21FFF7D3FD204610BD0220CA
:103D7000FCE70120FAE700BF00700040AE7C0108BC
:103D800038B50546012001F063FA022D01BF144A3F
:103D9000136843F001031360124B1A6842F48072F7
:103DA0001A601A689205FCD55A6822F4604242F4FF
:103DB00040425A6000229A600A4B9C6814F00C043E
:103DC000FBD14FF480721A60074B084A28461A60EC
:103DD000FFF794FF2046BDE8384001F02DBA00BF40
:103DE000003C02400038024018000020D0FE3F0096
:103DF0000C4B5A6B900513D45A6A42F080525A62A7
:103E0000094A116841F480711160596B41F4807165
:103E10005963596B8905FCD5136823F480731360CB
:103E2000704700BF0038024000700040054B5A6BDD
:103E3000910706D45A6B42F001025A635A6B9207FB
:103E4000FCD5704700380240094B5A6A42F0200204
:103E50005A629A6942F020029A619A6922F020021D
:103E60009A610022A3F509331A801A855A627047B5
:103E7000003802401521002202384143064B1A85C2
:103E8000D962012199825A621A8219801A8AD2074C
:103E9000FCD500221A80704700140040002349F628
:103EA000FE7282B00193019B934201DD02B0704724
:103EB000019B01330193F6E7002340F6FE7282B0C6
:103EC0000193019B934201DD02B07047019B0133D6
:103ED0000193F6E7002382B00193019BB3F5CC7FF9
:103EE00001DD02B07047019B0133F5E7D0B1012835
:103EF00001D1FFF7EFBF0C4B00211A684FF47A7322
:103F0000B2FBF3F2094B013A92B21A850122013851
:103F1000D8629A82596219821A801A8AD207FCD50D
:103F200000221A80704700BF1800002000140040D3
:103F300000F1774303F57803B3F5804F2DE9F041A5
:103F400006460C4617462DD202F1F73303F6080356
:103F50000344B3F5804F25D2FFF7F4FE804610B13D
:103F60000020FFF7CBFE01F08BF901252744361B1B
:103F7000A7420AD101F094F9B8F1000F02D04046EF
:103F8000FFF7BCFE2846BDE8F08141F6027001F063
:103F90008FF9301914F8011B01F0E6F9042818BF55
:103FA0000025E5E70025EDE710B50C4600F1774167
:103FB00001F57801B1F5804F0DD202F1F73303F628
:103FC00008030344B3F5804F05D2014620460FF0A5
:103FD000FDFD012010BD0020FCE7000008B5114BDD
:103FE000984215D003F58063984213D003F580639F
:103FF000984211D003F5806398420FD003F5006317
:1040000098420DD0084B094A142109480FF0BEFC14
:10401000002008BD0120FCE70220FAE70320F8E7B2
:104020000520F6E7000002403D7D0108F77C01080D
:10403000567D01080F2808B505D9094B094A3B21CF
:1040400009480FF0A3FC012303FA00F0C043074A1C
:1040500051680140516013681840106008BD00BFEE
:104060009F7D0108017D0108567D01080004014083
:104070000F292DE9F84F82460D4693461F4605D974
:104080005A4B5B4A54215B480FF080FC4FF001090A
:1040900009FA05F900F0B8F86FEA0903564E032D46
:1040A0007268564C02EA03027260326803EA020345
:1040B000534A3360136A43F0010313622ED80F2270
:1040C000A3684FEA850802FA08F223EA0203A36014
:1040D0005046FFF783FFA36800FA08F01843A0607A
:1040E0001BF0020F18BFB368464A1CBF43EA09031E
:1040F000B3601BF0040F1EBFF36843EA0903F360CB
:10410000336843EA090333603B01DBB2002D45D13C
:1041100082F8063340231360BDE8F88F072D13D8CB
:104120000F22A5F10408E3684FEA880802FA08F2B2
:1041300023EA0203E3605046FFF750FFE36800FA0A
:1041400008F01843E060CBE70B2D13D80F22A5F140
:10415000080823694FEA880802FA08F223EA0203F2
:1041600023615046FFF73AFF236900FA08F018432D
:104170002061B5E70F22A5F10C0863694FEA8808B2
:1041800002FA08F223EA020363615046FFF726FFB2
:10419000636900FA08F018436061A1E7012D03D1BB
:1041A00082F807338023B6E7022D04D182F8083362
:1041B0004FF48073AFE7032D04D182F809334FF435
:1041C0000073A8E7042D04D182F80A334FF480630A
:1041D000A1E7092D04D882F817334FF400039AE7BA
:1041E00082F828334FF48073536095E7AB7D010864
:1041F0001C7D0108567D01080004014000000140BB
:104200000038024000E100E0144B984205D1144A06
:10421000D36943F00103D3617047124B984204D134
:104220000F4AD36943F00203F5E70F4B984204D1DC
:104230000B4AD36943F00403EDE70C4B984204D1D9
:10424000074AD36943F00803E5E7094B9842E3D1F5
:10425000034AD36943F02003DDE700BF00000240BA
:10426000003802400004024000080240000C0240F6
:10427000001402400323490010B584688B4024EAEF
:10428000030484600124022A04FA01F407D0032AFB
:104290000DD0012A07D183682343836003E083683C
:1042A0008A401A43826083681C43846010BD826820
:1042B0001343F2E70F29F8B504460F4615461E468C
:1042C00003D940211948FFF723FB2046FFF79CFF45
:1042D00003237A009340DB432168194021600121C8
:1042E000D4F800C001FA02F04CEA000CB940C4F85E
:1042F00000C009B266B1A688314389B2A180E168E5
:10430000012D03EA0103E36006D0022D08D0F8BDB9
:10431000A68826EA0101F1E7E3680343E360F6E7D4
:10432000E36805FA02F21A43E260F0E7FB7D010858
:104330000F2970B505460C46164603D960210E4874
:10434000FFF7E6FA2846FFF75FFF032361008B4083
:10435000DB43EA68012E02EA0302EA6005D0022E7E
:1043600003D02A6813402B6070BDEA6806FA01F199
:104370001143E960F5E700BFFB7D01080F2910B587
:1043800005D9074B074A762107480FF0FFFAFFF7D8
:104390003BFF4B000321026899401143016010BDAF
:1043A0009F7D0108B77D0108FB7D01080F2938B505
:1043B0000446154605D97C211B4B1C4A1C480FF0AE
:1043C000E5FA0F2A03D91B4B184A7D21F6E7FFF7C0
:1043D0001BFF07294FF00F0318D8006A8A0093408B
:1043E00020EA03032362236A05FA02F21A432262D7
:1043F0000322236849008A4023EA02032360022340
:10440000226803FA01F11143216038BDA1F10802CD
:10441000406A9200934020EA03036362636A954016
:104420001D436562E4E700BF9F7D0108CA7D010866
:10443000FB7D0108E87D0108012303FA01F189B23F
:1044400001837047012303FA01F189B24183704768
:10445000012303FA01F189B20AB101837047418354
:104460007047008A084100F0010070470F2938B5F5
:1044700005460C4603D9A9210548FFF749FA2868E3
:104480006400E04000F00300431E5842584138BD2C
:10449000FB7D0108808A0841C04300F0010070479D
:1044A00010B5074C236853B9012005F0C9F9206005
:1044B00028B9BDE8104036210248FFF729BA10BDDF
:1044C000D4060020427E010810B50B4C22681AB9B0
:1044D0003C210A48FFF71CFA206842F2107105F0EF
:1044E000F7FA01280CBF0124002403D0402103481F
:1044F000FFF70EFA204610BDD4060020427E0108C8
:1045000010B5074C22681AB94D210648FFF700FA8A
:10451000002320681A46BDE81040194605F0ECB8A3
:10452000D4060020427E010810B50446FFF7B8FF0C
:10453000FFF7CAFF21461022034801F07BFC044626
:10454000FFF7DEFF204610BD0054004010B5FFF716
:10455000A7FFFFF7B9FF01F025FC0446FFF7D0FFE6
:10456000204610BD08B513460A460146034801F02F
:1045700091F8003018BF012008BD00BF0054004072
:1045800008B513460A460146034801F089F9003090
:1045900018BF012008BD00BF0054004008B51346F5
:1045A0000A460146034801F00FFA003018BF012007
:1045B00008BD00BF0054004008B513460A46014636
:1045C000034801F093FA003018BF012008BD00BF76
:1045D0000054004008B513460A460146034801F05E
:1045E000DFFA003018BF012008BD00BF00540040B2
:1045F0000123064A83405169194205D05361044B97
:1046000053F8203003B11847704700BF0004014041
:10461000D80600200F2838B504460D4603D92621B8
:104620000348FFF775F9034B43F8245038BD00BF2A
:10463000887E0108D80600200020FFF7D9BF01209E
:10464000FFF7D6BF0220FFF7D3BF0320FFF7D0BF8D
:104650000420FFF7CDBF08B50920FFF7C9FF0820E8
:10466000FFF7C6FF0720FFF7C3FF0620FFF7C0FFD5
:10467000BDE808400520FFF7BBBF08B50F20FFF7D6
:10468000B7FF0E20FFF7B4FF0D20FFF7B1FF0C209E
:10469000FFF7AEFF0B20FFF7ABFFBDE808400A2095
:1046A000FFF7A6BFFEE7FEE7FEE7FEE7FEE7FEE751
:1046B000FEE7FEE7FEE7FEE7FEE7FEE7FEE7FEE7D2
:1046C000FEE7FEE7FEE7FEE7FEE7FEE7FEE7FEE7C2
:1046D000FEE7FEE7FEE7FEE7FEE7FEE7FEE7FEE7B2
:1046E000FEE7FEE7FEE7FEE7FEE7FEE7FEE7FEE7A2
:1046F000FEE7FEE70A23B0FBF3F203FB120040EAF9
:104700000210C0B270470000CA22024B5A62532204
:104710005A62704700280040014B1860704700BF84
:10472000180700204FF400320F4B10B50F4C5A61A0
:10473000E368DB0503D430210D48FFF7E9F8FFF704
:10474000E3FF4FF40072A36823F48853A360094B7E
:10475000C3F88420FF236362074B1B6813B1BDE8D5
:104760001040184710BD00BF000401400028004061
:10477000CE7E010800E100E0180700202DE9FF4788
:104780009A46364B80461B7891469DF830709DF8CE
:1047900034602BB9324B334A8C2133480FF0F6F892
:1047A000431E1E2B58D80C2956D8A2F5FA63632B4A
:1047B00052D8BAF1170F4FD83B2F4DD83B2E4BD8BC
:1047C00002F13000C0B2FFF795FF05460846FFF73B
:1047D00091FF000240EA05454046FFF78BFF054385
:1047E0005046FFF787FF04463846FFF783FF000275
:1047F00040EA04443046FFF77DFF20431B4CFFF79F
:1048000083FFE36845F4005543F08003E360E36809
:104810005B06FCD565602060E36823F08003E360FD
:10482000124BDA689206FCD5FF2201A85A628DF875
:1048300007808DF80810ADF809908DF806A08DF866
:1048400005708DF8046002F05CFA094BC3E90001C1
:10485000012004B0BDE8F0870020FAE71C07002023
:10486000FDA50108267F0108CE7E01080028004032
:104870002007002007B503780193437800938378DD
:10488000B0F805200179C078FFF778FF03B05DF834
:1048900004FB000038B52B4B04461B781BB9E42100
:1048A0002948FFF735F8294AD36823F02003D3605D
:1048B000D3689B06FCD513685268C2F30741080908
:1048C00000EB800001F00F0101EB4001C9B201F5DE
:1048D000FA61A4F80510C2F30721C1F300108500A6
:1048E000284401F00F0101EB4001D2B22171C2F363
:1048F000011101EB810102F00F0202EB4102E270B3
:10490000C3F30742C2F3011101EB810102F00F0270
:1049100002EB4102A270C3F30722C2F3021101EBC2
:10492000810102F00F0202EB4102DBB26270C3F3BD
:10493000021202EB820203F00F0303EB4203237027
:1049400038BD00BF1C070020CE7E010800280040B3
:104950001FB501A8FFF79EFF01A802F0D2F905B02C
:104960005DF804FB08B5FFF743FA1B4A136843F4EC
:1049700080731360FFF7C8FE184A536B23F440336B
:1049800043F482035363164BDA6842F08002DA6024
:10499000DA685106FCD5FF221A611A6942F4FE0258
:1049A0001A619A6822F040029A609A6822F44C5286
:1049B0009A60DA6822F08002DA60094BDA689206BF
:1049C000FCD5FF225A620122064B1A70FFF7C0FF86
:1049D000054BC3E9000108BD0070004000380240EB
:1049E000002800401C0700202007002008B5094BC4
:1049F0001B7823B940F21F110748FEF789FFFFF724
:104A000083FE064B9A6822F480729A60FF225A62F3
:104A100008BD00BF1C070020CE7E01080028004012
:104A200008B5144B1B7833B9134B144A40F22711C5
:104A300013480EF0ABFFFFF767FE124BDA6822F463
:104A40008072DA60104A916841F400319160116817
:104A500041F400311160F0210C4A82F829134FF41F
:104A6000007151609A6842F488529A60FF225A623B
:104A700008BD00BF1C070020FDA50108327F01080A
:104A8000CE7E0108002800400004014000E100E063
:104A9000F8B51E46194B17461B7833B9184B194AFF
:104AA0004FF4A37118480EF071FF184CFFF72CFE5D
:104AB000A56825F48075A560E56825F48075E56036
:104AC000FFF718FE05460846FFF714FE000440EA0B
:104AD00005613846FFF70EFE05463046FFF70AFE31
:104AE000084340EA0520E368DB07FCD5FF23E061CB
:104AF0006362BDE8F840FFF793BF00BF1C070020CA
:104B0000FDA50108147F0108CE7E010800280040A1
:104B100038B50D46044604F005FB194A136823F026
:104B20000103136004F01EFB25B1164A536843F0DD
:104B30000603536072B6BFF34F8FBFF36F8F124AF5
:104B40000120136823F0030343F4007343F00103CF
:104B5000136000F089FB0D4B1A6942F004021A61E0
:104B600030BF1A69022022F004021A61FFF708F927
:104B7000034A136843F00103136004B162B638BD01
:104B800010E000E0002004E00070004000ED00E0D4
:104B900062B6704700220E4B10B51A700D4A0E4CCB
:104BA0001388204623F040031B041B0C13800D21A7
:104BB0000222FFF7BDFB204602220E21FFF7B8FBC1
:104BC0002046BDE8104002220F21FFF7B1BB00BF15
:104BD000280700200038004000040240294A38B568
:104BE000136A054643F480531362052226480C4697
:104BF0001146FFF7DBFB052206212348FFF7D6FB12
:104C0000052207212048FFF7D1FBC5B1022205216B
:104C10001D48FFF72FFB022206211B48FFF72AFB46
:104C2000022207211848FFF725FB012C1BD144F471
:104C300051740122154B1C80154B1A7038BD2A4641
:104C400005211148FFF716FB2A4606210E48FFF7FB
:104C500011FB2A4607210C48FFF70CFB012C09D158
:104C600044F45974E5E7022CE1D0032C0CBF032473
:104C70000024DCE7022CF3D0032C14BF002403240F
:104C8000EEE700BF00380240000002400030014063
:104C90002907002000220E4B10B51A700D4A0E4C49
:104CA0001388204623F040031B041B0C13800521AE
:104CB0000222FFF73DFB204602220621FFF738FBC8
:104CC0002046BDE8104002220721FFF731BB00BF9C
:104CD000290700200030014000000240064B074A2F
:104CE000988111781A461889C00701D40029FAD191
:104CF0009089C0B2704700BF0030014029070020F2
:104D0000054AD36823F4E0631B041B0C43F0BF6324
:104D100043F40033D360704700ED00E0202200210F
:104D2000114B10B5C3F88420104B114C1A6A204661
:104D300042F480421A625A6942F480425A615A69C6
:104D400022F480425A610B4A91811A6A092122F4A5
:104D500080421A620222FFF7EBFA2046BDE81040BB
:104D600002220A21FFF7E4BA00E100E00038024025
:104D7000000002400038014010B50B4C40F22551B4
:104D8000204600F060FC48B1204600F03AFC074B9A
:104D90001B683BB1BDE81040C0B21847A388044A65
:104DA000DBB2137010BD00BF003801402C0700209B
:104DB000E44D002010B504468021084800F03DFC79
:104DC0000028F9D02146054800F017FC034C40218B
:104DD000204600F032FC0028F9D010BD0038014018
:104DE00010B5441E14F8010F00B910BDFFF7E2FF23
:104DF000F8E7000008B5024800F003FCC0B208BDA7
:104E0000003801402DE9F0410F4601214FF4C06602
:104E1000804688B0084614461D4600F069FB012113
:104E20004FF4804000F072FB3B4B02A93B48CDE9B8
:104E3000026300F0BFFA07220921384800F0FCFAAB
:104E400007220A21354800F0F7FA452FCDF81080E7
:104E50003AD14FF48063ADF81830072C40D10023CD
:104E6000ADF81430052D4CD14FF48053ADF8163009
:104E70000023ADF81C300C2304A92948ADF81A30E2
:104E800000F060FB274B1A6802B1012240F2255165
:104E9000234800F0BAFB0121214800F0A3FBFFF7F3
:104EA000A9FF25238DF804309DF838308DF80530A2
:104EB0004FF48073ADF80630FFF722FF01A800F031
:104EC000AFF808B0BDE8F0814F2F02D1ADF81860FF
:104ED000C3E70023072CADF818300DD1592107E0A6
:104EE000082C02D14FF48053BAE7092CBAD15421CF
:104EF0000D48FEF70DFDB5E7082CB0D0092CB1D157
:104F0000F0E70F2D02D14FF44053AFE7022D0CBF55
:104F10004FF400530023A9E7020200010000024001
:104F2000003801402C070020477F01080E2307B5F9
:104F3000082200934E210123FFF764FF03B05DF8C0
:104F400004FB000070B5134C40F22551204600F0E0
:104F50007AFBC0B1104B1D6825B1204600F051FB13
:104F6000C0B2A84740F226610A4800F06CFB78B155
:104F700040F22661074800F085FB084B1B683BB1F7
:104F8000BDE870401847A388054ADBB21370E9E713
:104F900070BD00BF004400403007002034070020EF
:104FA000E44D0020BFF34F8F0449054BCA6802F45B
:104FB000E0621343CB60BFF34F8FFEE700ED00E0EC
:104FC0000400FA0510B5441EE3B2052B03D90E21E7
:104FD0001148FEF79DFCFEF729FF45F255520F4B95
:104FE0001A60DA68D207FCD4052C06D8DFE804F092
:104FF000030A0C0E101201225A604CF6CC42074BE9
:105000001A6010BD0222F7E70322F5E70422F3E756
:105010000522F1E70622EFE78E7F0108003000400D
:1050200030B5012403780A4D03F01F029440C27882
:10503000590952B1074A2B44D26842781201D2B2C0
:1050400083F8002345F8214030BD2031FAE700BF46
:1050500000E100E000ED00E008B5084B98420BD1FC
:1050600001214FF4007000F05FFABDE80840002114
:105070004FF4007000F058BA08BD00BF0024014092
:1050800043680A7923F0407323F4807343EA0223D0
:105090000A6810B513434360D1E9032313438A68B8
:1050A00084681343084A224013434A7943EA42037F
:1050B00083600A7D036B013A23F0F873D2B243EAAE
:1050C0000253036310BD00BFFDF7FFC000234FF084
:1050D0004072036083808360C0E90323012303756A
:1050E0007047836819B143F001038360704723F070
:1050F0000103FAE7044B5A6818B142F400025A60FF
:10510000704722F40002FAE7002701401D2970B51C
:105110001BD90725A1F11E06C46D06EB4606B54056
:1051200024EA050403FA06F62643C665062A38D89B
:105130001F24013A036C02EB8202944023EA040329
:1051400001FA02F21A43026470BD13290DD9072631
:10515000A1F11405C46805EB4505AE4024EA060438
:1051600003FA05F52543C560E0E709290DD90726AF
:10517000A1F10A04056904EB4404A64025EA0605EA
:1051800003FA04F42C430461D0E70726446901EBD9
:105190004105AE4024EA060403FA05F626434661BB
:1051A000C4E70C2A0CD81F24073AC36B02EB820217
:1051B000944023EA040301FA02F21A43C263C3E7EC
:1051C000122A0CD81F240D3A836B02EB8202944002
:1051D00023EA040301FA02F21A438263B4E7182AAD
:1051E0000CD81F24133A436B02EB8202944023EA4B
:1051F000040301FA02F21A434263A5E71F24193A95
:10520000036B02EB8202944023EA040391401943AA
:10521000016399E7836843F0804383607047806D42
:1052200080B270470368194214BF01200020704704
:10523000C943016070470000044B1A6818B142F07E
:1052400002021A60704722F00202FAE7003C0240B4
:10525000044B1A6818B142F004021A60704722F039
:105260000402FAE7003C0240044B1A6818B142F00D
:1052700008021A60704722F00802FAE7003C024078
:10528000044B5A68D20741BF034ADA60034ADA6026
:10529000704700BF003C0240EFCDAB89050403021C
:1052A000024A536843F0010353607047003C0240D8
:1052B000014B9861704700BF003C0240084B9A695F
:1052C000D10709D49A69D20508D49B6913F4F05F19
:1052D00014BF03200420704701207047022070474C
:1052E000003C0240042313B504468DF80730FFF755
:1052F000E5FF8DF807009DF80730012B0AD11CB996
:1053000005238DF8073007E0FFF7D8FF013C8DF843
:105310000700F0E7002CF3D09DF8070002B010BDA5
:1053200010B504464FF40040FFF7DCFF042804BF2B
:105330000023236010BD000038B504464FF4004040
:105340000D46FFF7CFFF04280BD1064A4FF400406B
:10535000536823F4807353602560BDE83840FFF73D
:10536000C1BF38BD003C024038B504464FF4004090
:105370000D46FFF7B7FF04281BD135B125704FF458
:105380000040BDE83840FFF7ADBFFF2324F0030520
:1053900004F003042968E40003FA04F421EA040495
:1053A0002846FFF7BDFF21462846BDE83840FFF7F5
:1053B000C3BF38BD2DE9F0430022012703250E6845
:1053C00007FA02F333EA060431D14FEA420C05FA38
:1053D0000CF4E44391F804E0D0F800900EFA0CF8D5
:1053E00004EA09090EF1FF3E48EA0908BEF1010F7F
:1053F000C0F8008011D8D0F808E004EA0E0E4C790D
:1054000004FA0CF444EA0E048460848824EA030459
:105410008B7993409BB223438380C36805FA0CF4D5
:1054200023EA0404CB7903FA0CF32343C36001326B
:10543000102AC5D1BDE8F08310B50F2401F0070391
:10544000C90800EB8100016A9B009C4021EA04012D
:105450000162016A9A400A43026210BD204B10B5F6
:105460009A6802F00C020C2A30D8DFE802F02F2FE5
:105470002F2F072F2F2F072F2F2F2000194B184AC0
:10548000036093681849C3F30313CC5C0368E340DB
:1054900043609468C4F302240C5D23FA04F484602E
:1054A0009268C2F3C2228A5CD340C36010BD99687F
:1054B0000E4CC1F383419A68615C9B68094BC2F34F
:1054C00081524B430132B3FBF2F3D8E74FF4004271
:1054D0005B68C3F34233013302FA03F3CFE700BF43
:1054E000003802400024F4001C0000202C000020A2
:1054F000054B19B1D9690143D9617047DA6922EACC
:105500000002DA61704700BF00380240054B19B154
:10551000196A0143196270471A6A22EA00021A6284
:10552000704700BF00380240054B19B1596901436B
:10553000596170475A6922EA00025A61704700BFF8
:105540000038024030B50D460446028AEB8892B21C
:1055500022F440521A43898902828389288923F4DC
:10556000B052AB8822F00C020343688985B0034334
:105570001343A381A38A68469BB223F440730B4371
:10558000A382FFF76BFFDDE90213154A944208BFBF
:1055900019461923A2894B43296810044CBF4900BE
:1055A0008900B3FBF1F16425B1FBF5F3A289180181
:1055B000120405FB13130BD5DA003232B2FBF5F2FD
:1055C00002F0070242EA00039BB2238105B030BD1E
:1055D0001B013233B3FBF5F303F00F030343F3E78F
:1055E00000380140838919B143F400538381704727
:1055F00023F400531B041B0CF8E7C1F3080181805E
:1056000070478088C0F30800704701F01F0310B591
:10561000C1F342140121012C01FA03F105D10C3030
:1056200003683AB11943016010BD022C0CBF103061
:105630001430F5E723EA0101F5E70388194214BFA6
:105640000120002070470123C1F3421210B5012A46
:1056500001F01F0403FA04F30DD18289134002887C
:1056600092B26BB10123090A03FA01F10A4214BF95
:105670001846002010BD022A0CBF028A828AEDE77C
:105680001846F7E70123090A8B40DB439BB20380EE
:10569000704700002DE9F3411F46002304460E46E3
:1056A000019315461AB9012002B0BDE8F08140F619
:1056B000FF7301934FF40031204600F014FD0028E1
:1056C00052D10121204600F0DEFC4FF2FF7120464E
:1056D00000F0F2FC0121204600F0BFFC40F6FF7311
:1056E000DFF8B88101934146204600F0F1FC002824
:1056F00041D039460122204600F0D0FC40F6FF732D
:10570000614F01933946204600F0EDFC002838D067
:10571000012D42D10021204600F0B5FC03F002FD2E
:1057200029462046238B00F0A3FC03F01BFD40F626
:10573000FF73564D01932946204600F0D4FC30B348
:10574000204600F0B6FC307040F6FF73504D0193D8
:105750002946204600F0C7FC0028A4D0019B5A1E11
:105760000192002BF4D104E0019B5A1E0192002B00
:10577000A0D1002098E7019B5A1E0192002BB2D1C4
:10578000F7E7019B5A1E0192002BBBD1F1E7019B69
:105790005A1E0192002BCED1EBE7022D25D103F04A
:1057A000C1FC4FF40061204600F086FC0021204639
:1057B00000F069FC238B03F0D5FC40F6FF73354DF8
:1057C00001932946204600F08EFC40B1012120467D
:1057D00000F04EFC238A3370238A7370B4E7019B78
:1057E0005A1E0192002BECD1C3E740F6FF77033D30
:1057F000238BDFF8A0803544AE4201972CD1254E93
:105800003146204600F06FFC90B30021204600F0A6
:105810003AFC03F087FC204600F04BFC0121287085
:10582000204600F025FC03F09DFC204600F041FCE2
:1058300040F6FF73184E687001933146204600F021
:1058400047FCD8B1204600F034FCA8707CE7019BEF
:105850005A1E0192002B8CD04146204600F043FC9A
:105860000028F4D0204600F024FC06F8010BC3E722
:10587000019B5A1E0192002BC2D17AE7019B5A1E4E
:105880000192002BD9D174E70200001040000010F3
:10589000100000100400001040000300010003008D
:1058A0002DE9F3411D46002304460E460193174699
:1058B0001AB9012002B0BDE8F08140F6FF730193F0
:1058C0004FF40031204600F00EFC002847D10121A2
:1058D000204600F0C2FB40F6FF73DFF8E88001933A
:1058E0004146204600F0F4FB00283FD02946002224
:1058F000204600F0D3FB40F6FF732E4D019329465E
:10590000204600F0E5FB002836D03546204615F845
:10591000011B3E4400F0CBFB40F6FF77DFF8988098
:10592000B542019733D1244D2946204600F0DBFBD8
:10593000002838D02046012100F09AFB40F6FF7382
:105940001E4D1F4C01932946204600F0CCFB002839
:10595000AFD0019B5A1E0192002BF4D104E0019BB1
:105960005A1E0192002BABD10020A3E7019B5A1EC7
:105970000192002BB4D1F7E7019B5A1E0192002B34
:10598000BDD1F1E7019B5A1E0192002BECD041469C
:10599000204600F0A8FB0028F4D015F8011B204693
:1059A00000F085FBBCE7019B5A1E0192002BBBD186
:1059B000DAE700BF820007000400001010000010AA
:1059C00000540040010003002DE9F3411D4600236F
:1059D00004460E46019317461AB9012002B0BDE8ED
:1059E000F08140F6FF7301934FF40031204600F040
:1059F0007AFB002838D10121204600F02EFB40F62A
:105A0000FF73DFF8E48001934146204600F060FB1D
:105A1000002843D029460022204600F03FFB40F6F4
:105A2000FF732D4D01932946204600F051FB0028BD
:105A30003AD03546204615F8011B3E4400F037FBAE
:105A400040F6FF77DFF89480B542019737D1234DB8
:105A50002946204600F047FB0028BED1019B5A1E74
:105A60000192002BF4D104E0019B5A1E0192002BFD
:105A7000BAD12046012100F0FBFA40F6FF73184D21
:105A8000184C01932946204600F02DFB20B1019BC4
:105A90005A1E0192002BF5D100209FE7019B5A1E50
:105AA0000192002BB0D1E4E7019B5A1E0192002B1A
:105AB000B9D1DEE7019B5A1E0192002BD9D0414695
:105AC000204600F010FB0028F4D015F8011B2046FA
:105AD00000F0EDFAB8E700BF8200070004000010F4
